{
  "contractName": "AMMPool",
  "abi": [
    {
      "inputs": [],
      "stateMutability": "nonpayable",
      "type": "constructor"
    },
    {
      "inputs": [
        {
          "internalType": "uint256",
          "name": "size",
          "type": "uint256"
        }
      ],
      "name": "BatchSizeExceeded",
      "type": "error"
    },
    {
      "inputs": [
        {
          "internalType": "uint16",
          "name": "chainId",
          "type": "uint16"
        }
      ],
      "name": "ChainPaused",
      "type": "error"
    },
    {
      "inputs": [],
      "name": "ContractPaused",
      "type": "error"
    },
    {
      "inputs": [
        {
          "internalType": "uint256",
          "name": "gasUsed",
          "type": "uint256"
        }
      ],
      "name": "GasLimitExceeded",
      "type": "error"
    },
    {
      "inputs": [
        {
          "internalType": "uint256",
          "name": "provided",
          "type": "uint256"
        },
        {
          "internalType": "uint256",
          "name": "required",
          "type": "uint256"
        }
      ],
      "name": "InsufficientFee",
      "type": "error"
    },
    {
      "inputs": [
        {
          "internalType": "uint256",
          "name": "amountOut",
          "type": "uint256"
        },
        {
          "internalType": "uint256",
          "name": "minAmountOut",
          "type": "uint256"
        }
      ],
      "name": "InsufficientOutputAmount",
      "type": "error"
    },
    {
      "inputs": [
        {
          "internalType": "uint256",
          "name": "amountOut",
          "type": "uint256"
        },
        {
          "internalType": "uint256",
          "name": "reserve",
          "type": "uint256"
        }
      ],
      "name": "InsufficientReserve",
      "type": "error"
    },
    {
      "inputs": [],
      "name": "InvalidAdapterParams",
      "type": "error"
    },
    {
      "inputs": [
        {
          "internalType": "address",
          "name": "addr",
          "type": "address"
        }
      ],
      "name": "InvalidAddress",
      "type": "error"
    },
    {
      "inputs": [
        {
          "internalType": "uint256",
          "name": "amountA",
          "type": "uint256"
        },
        {
          "internalType": "uint256",
          "name": "amountB",
          "type": "uint256"
        }
      ],
      "name": "InvalidAmount",
      "type": "error"
    },
    {
      "inputs": [
        {
          "internalType": "uint8",
          "name": "bridgeType",
          "type": "uint8"
        }
      ],
      "name": "InvalidBridgeType",
      "type": "error"
    },
    {
      "inputs": [
        {
          "internalType": "uint16",
          "name": "chainId",
          "type": "uint16"
        }
      ],
      "name": "InvalidChainId",
      "type": "error"
    },
    {
      "inputs": [
        {
          "internalType": "uint256",
          "name": "baseFee",
          "type": "uint256"
        },
        {
          "internalType": "uint256",
          "name": "maxFee",
          "type": "uint256"
        }
      ],
      "name": "InvalidFeeRange",
      "type": "error"
    },
    {
      "inputs": [
        {
          "internalType": "uint256",
          "name": "lpFeeShare",
          "type": "uint256"
        },
        {
          "internalType": "uint256",
          "name": "treasuryFeeShare",
          "type": "uint256"
        }
      ],
      "name": "InvalidFeeShare",
      "type": "error"
    },
    {
      "inputs": [
        {
          "internalType": "uint64",
          "name": "receivedNonce",
          "type": "uint64"
        },
        {
          "internalType": "uint64",
          "name": "expectedNonce",
          "type": "uint64"
        }
      ],
      "name": "InvalidNonce",
      "type": "error"
    },
    {
      "inputs": [],
      "name": "InvalidOracleArray",
      "type": "error"
    },
    {
      "inputs": [
        {
          "internalType": "uint256",
          "name": "expected",
          "type": "uint256"
        },
        {
          "internalType": "uint256",
          "name": "actual",
          "type": "uint256"
        }
      ],
      "name": "InvalidPrice",
      "type": "error"
    },
    {
      "inputs": [
        {
          "internalType": "uint256",
          "name": "ratio",
          "type": "uint256"
        }
      ],
      "name": "InvalidReserveRatio",
      "type": "error"
    },
    {
      "inputs": [
        {
          "internalType": "uint256",
          "name": "timelock",
          "type": "uint256"
        }
      ],
      "name": "InvalidTimelock",
      "type": "error"
    },
    {
      "inputs": [
        {
          "internalType": "address",
          "name": "token",
          "type": "address"
        }
      ],
      "name": "InvalidToken",
      "type": "error"
    },
    {
      "inputs": [
        {
          "internalType": "uint256",
          "name": "messageId",
          "type": "uint256"
        }
      ],
      "name": "MaxRetriesExceeded",
      "type": "error"
    },
    {
      "inputs": [
        {
          "internalType": "uint256",
          "name": "messageId",
          "type": "uint256"
        }
      ],
      "name": "MessageNotFailed",
      "type": "error"
    },
    {
      "inputs": [
        {
          "internalType": "int256",
          "name": "price",
          "type": "int256"
        }
      ],
      "name": "NegativeOraclePrice",
      "type": "error"
    },
    {
      "inputs": [],
      "name": "OracleFailure",
      "type": "error"
    },
    {
      "inputs": [
        {
          "internalType": "uint256",
          "name": "x",
          "type": "uint256"
        },
        {
          "internalType": "uint256",
          "name": "y",
          "type": "uint256"
        }
      ],
      "name": "PRBMath_MulDiv18_Overflow",
      "type": "error"
    },
    {
      "inputs": [
        {
          "internalType": "UD60x18",
          "name": "x",
          "type": "uint256"
        }
      ],
      "name": "PRBMath_UD60x18_Sqrt_Overflow",
      "type": "error"
    },
    {
      "inputs": [
        {
          "internalType": "uint256",
          "name": "proposalId",
          "type": "uint256"
        }
      ],
      "name": "ProposalAlreadyExecuted",
      "type": "error"
    },
    {
      "inputs": [],
      "name": "ProposalExecutionFailed",
      "type": "error"
    },
    {
      "inputs": [
        {
          "internalType": "uint256",
          "name": "proposalId",
          "type": "uint256"
        }
      ],
      "name": "ProposalNotFound",
      "type": "error"
    },
    {
      "inputs": [
        {
          "internalType": "uint256",
          "name": "proposalId",
          "type": "uint256"
        }
      ],
      "name": "ProposalNotReady",
      "type": "error"
    },
    {
      "inputs": [
        {
          "internalType": "uint256",
          "name": "currentTime",
          "type": "uint256"
        },
        {
          "internalType": "uint256",
          "name": "timelock",
          "type": "uint256"
        }
      ],
      "name": "TimelockNotExpired",
      "type": "error"
    },
    {
      "inputs": [],
      "name": "Unauthorized",
      "type": "error"
    },
    {
      "anonymous": false,
      "inputs": [
        {
          "indexed": true,
          "internalType": "uint16",
          "name": "chainId",
          "type": "uint16"
        },
        {
          "indexed": true,
          "internalType": "address",
          "name": "caller",
          "type": "address"
        }
      ],
      "name": "AMMPoolChainPaused",
      "type": "event"
    },
    {
      "anonymous": false,
      "inputs": [
        {
          "indexed": false,
          "internalType": "address",
          "name": "previousAdmin",
          "type": "address"
        },
        {
          "indexed": false,
          "internalType": "address",
          "name": "newAdmin",
          "type": "address"
        }
      ],
      "name": "AdminChanged",
      "type": "event"
    },
    {
      "anonymous": false,
      "inputs": [
        {
          "indexed": true,
          "internalType": "address",
          "name": "provider",
          "type": "address"
        },
        {
          "indexed": false,
          "internalType": "uint256",
          "name": "amountA",
          "type": "uint256"
        },
        {
          "indexed": false,
          "internalType": "uint256",
          "name": "amountB",
          "type": "uint256"
        }
      ],
      "name": "AllLPFeesClaimed",
      "type": "event"
    },
    {
      "anonymous": false,
      "inputs": [
        {
          "indexed": true,
          "internalType": "address",
          "name": "beacon",
          "type": "address"
        }
      ],
      "name": "BeaconUpgraded",
      "type": "event"
    },
    {
      "anonymous": false,
      "inputs": [
        {
          "indexed": true,
          "internalType": "uint16",
          "name": "chainId",
          "type": "uint16"
        },
        {
          "indexed": false,
          "internalType": "uint256",
          "name": "newTimelock",
          "type": "uint256"
        }
      ],
      "name": "ChainTimelockUpdated",
      "type": "event"
    },
    {
      "anonymous": false,
      "inputs": [
        {
          "indexed": true,
          "internalType": "uint16",
          "name": "chainId",
          "type": "uint16"
        },
        {
          "indexed": true,
          "internalType": "address",
          "name": "caller",
          "type": "address"
        }
      ],
      "name": "ChainUnpaused",
      "type": "event"
    },
    {
      "anonymous": false,
      "inputs": [
        {
          "indexed": true,
          "internalType": "address",
          "name": "provider",
          "type": "address"
        },
        {
          "indexed": false,
          "internalType": "uint256",
          "name": "amountA",
          "type": "uint256"
        },
        {
          "indexed": false,
          "internalType": "uint256",
          "name": "amountB",
          "type": "uint256"
        },
        {
          "indexed": true,
          "internalType": "uint16",
          "name": "chainId",
          "type": "uint16"
        },
        {
          "indexed": false,
          "internalType": "uint64",
          "name": "nonce",
          "type": "uint64"
        }
      ],
      "name": "CrossChainLiquidityReceived",
      "type": "event"
    },
    {
      "anonymous": false,
      "inputs": [
        {
          "indexed": true,
          "internalType": "address",
          "name": "provider",
          "type": "address"
        },
        {
          "indexed": false,
          "internalType": "uint256",
          "name": "amountA",
          "type": "uint256"
        },
        {
          "indexed": false,
          "internalType": "uint256",
          "name": "amountB",
          "type": "uint256"
        },
        {
          "indexed": true,
          "internalType": "uint16",
          "name": "chainId",
          "type": "uint16"
        },
        {
          "indexed": false,
          "internalType": "uint64",
          "name": "nonce",
          "type": "uint64"
        },
        {
          "indexed": false,
          "internalType": "uint256",
          "name": "estimatedConfirmationTime",
          "type": "uint256"
        }
      ],
      "name": "CrossChainLiquiditySent",
      "type": "event"
    },
    {
      "anonymous": false,
      "inputs": [
        {
          "indexed": true,
          "internalType": "address",
          "name": "user",
          "type": "address"
        },
        {
          "indexed": true,
          "internalType": "address",
          "name": "inputToken",
          "type": "address"
        },
        {
          "indexed": false,
          "internalType": "uint256",
          "name": "amountIn",
          "type": "uint256"
        },
        {
          "indexed": false,
          "internalType": "uint256",
          "name": "amountOut",
          "type": "uint256"
        },
        {
          "indexed": true,
          "internalType": "uint16",
          "name": "chainId",
          "type": "uint16"
        },
        {
          "indexed": false,
          "internalType": "uint64",
          "name": "nonce",
          "type": "uint64"
        },
        {
          "indexed": false,
          "internalType": "uint256",
          "name": "estimatedConfirmationTime",
          "type": "uint256"
        }
      ],
      "name": "CrossChainSwap",
      "type": "event"
    },
    {
      "anonymous": false,
      "inputs": [
        {
          "indexed": false,
          "internalType": "uint256",
          "name": "newPeriod",
          "type": "uint256"
        }
      ],
      "name": "EmaPeriodUpdated",
      "type": "event"
    },
    {
      "anonymous": false,
      "inputs": [
        {
          "indexed": true,
          "internalType": "address",
          "name": "user",
          "type": "address"
        },
        {
          "indexed": false,
          "internalType": "uint256",
          "name": "amountA",
          "type": "uint256"
        },
        {
          "indexed": false,
          "internalType": "uint256",
          "name": "amountB",
          "type": "uint256"
        }
      ],
      "name": "EmergencyWithdrawal",
      "type": "event"
    },
    {
      "anonymous": false,
      "inputs": [
        {
          "indexed": true,
          "internalType": "uint256",
          "name": "messageId",
          "type": "uint256"
        },
        {
          "indexed": true,
          "internalType": "address",
          "name": "recipient",
          "type": "address"
        }
      ],
      "name": "FailedMessageRecovered",
      "type": "event"
    },
    {
      "anonymous": false,
      "inputs": [
        {
          "indexed": true,
          "internalType": "uint256",
          "name": "messageId",
          "type": "uint256"
        },
        {
          "indexed": false,
          "internalType": "uint16",
          "name": "dstChainId",
          "type": "uint16"
        },
        {
          "indexed": false,
          "internalType": "uint256",
          "name": "retries",
          "type": "uint256"
        }
      ],
      "name": "FailedMessageRetried",
      "type": "event"
    },
    {
      "anonymous": false,
      "inputs": [
        {
          "indexed": true,
          "internalType": "uint256",
          "name": "messageId",
          "type": "uint256"
        },
        {
          "indexed": false,
          "internalType": "uint16",
          "name": "dstChainId",
          "type": "uint16"
        },
        {
          "indexed": false,
          "internalType": "bytes",
          "name": "payload",
          "type": "bytes"
        }
      ],
      "name": "FailedMessageStored",
      "type": "event"
    },
    {
      "anonymous": false,
      "inputs": [
        {
          "indexed": true,
          "internalType": "uint16",
          "name": "chainId",
          "type": "uint16"
        },
        {
          "indexed": false,
          "internalType": "uint256",
          "name": "baseFee",
          "type": "uint256"
        },
        {
          "indexed": false,
          "internalType": "uint256",
          "name": "maxFee",
          "type": "uint256"
        },
        {
          "indexed": false,
          "internalType": "uint256",
          "name": "lpFeeShare",
          "type": "uint256"
        },
        {
          "indexed": false,
          "internalType": "uint256",
          "name": "treasuryFeeShare",
          "type": "uint256"
        }
      ],
      "name": "FeesUpdated",
      "type": "event"
    },
    {
      "anonymous": false,
      "inputs": [
        {
          "indexed": true,
          "internalType": "uint256",
          "name": "proposalId",
          "type": "uint256"
        },
        {
          "indexed": false,
          "internalType": "address",
          "name": "target",
          "type": "address"
        },
        {
          "indexed": false,
          "internalType": "bytes",
          "name": "data",
          "type": "bytes"
        },
        {
          "indexed": false,
          "internalType": "uint256",
          "name": "proposedAt",
          "type": "uint256"
        }
      ],
      "name": "GovernanceProposalCreated",
      "type": "event"
    },
    {
      "anonymous": false,
      "inputs": [
        {
          "indexed": true,
          "internalType": "uint256",
          "name": "proposalId",
          "type": "uint256"
        }
      ],
      "name": "GovernanceProposalExecuted",
      "type": "event"
    },
    {
      "anonymous": false,
      "inputs": [
        {
          "indexed": true,
          "internalType": "address",
          "name": "newGovernance",
          "type": "address"
        }
      ],
      "name": "GovernanceUpdated",
      "type": "event"
    },
    {
      "anonymous": false,
      "inputs": [
        {
          "indexed": false,
          "internalType": "uint8",
          "name": "version",
          "type": "uint8"
        }
      ],
      "name": "Initialized",
      "type": "event"
    },
    {
      "anonymous": false,
      "inputs": [
        {
          "indexed": true,
          "internalType": "address",
          "name": "provider",
          "type": "address"
        },
        {
          "indexed": true,
          "internalType": "address",
          "name": "token",
          "type": "address"
        },
        {
          "indexed": false,
          "internalType": "uint256",
          "name": "amount",
          "type": "uint256"
        }
      ],
      "name": "LPFeeClaimed",
      "type": "event"
    },
    {
      "anonymous": false,
      "inputs": [
        {
          "indexed": true,
          "internalType": "address",
          "name": "newEndpoint",
          "type": "address"
        }
      ],
      "name": "LayerZeroEndpointUpdated",
      "type": "event"
    },
    {
      "anonymous": false,
      "inputs": [
        {
          "indexed": true,
          "internalType": "address",
          "name": "provider",
          "type": "address"
        },
        {
          "indexed": false,
          "internalType": "uint256",
          "name": "amountA",
          "type": "uint256"
        },
        {
          "indexed": false,
          "internalType": "uint256",
          "name": "amountB",
          "type": "uint256"
        },
        {
          "indexed": false,
          "internalType": "uint256",
          "name": "liquidity",
          "type": "uint256"
        }
      ],
      "name": "LiquidityAdded",
      "type": "event"
    },
    {
      "anonymous": false,
      "inputs": [
        {
          "indexed": true,
          "internalType": "address",
          "name": "provider",
          "type": "address"
        },
        {
          "indexed": false,
          "internalType": "uint256",
          "name": "amountA",
          "type": "uint256"
        },
        {
          "indexed": false,
          "internalType": "uint256",
          "name": "amountB",
          "type": "uint256"
        },
        {
          "indexed": false,
          "internalType": "uint256",
          "name": "liquidity",
          "type": "uint256"
        }
      ],
      "name": "LiquidityRemoved",
      "type": "event"
    },
    {
      "anonymous": false,
      "inputs": [
        {
          "indexed": true,
          "internalType": "address",
          "name": "previousOwner",
          "type": "address"
        },
        {
          "indexed": true,
          "internalType": "address",
          "name": "newOwner",
          "type": "address"
        }
      ],
      "name": "OwnershipTransferred",
      "type": "event"
    },
    {
      "anonymous": false,
      "inputs": [
        {
          "indexed": true,
          "internalType": "address",
          "name": "caller",
          "type": "address"
        }
      ],
      "name": "Paused",
      "type": "event"
    },
    {
      "anonymous": false,
      "inputs": [
        {
          "indexed": true,
          "internalType": "address",
          "name": "primaryOracle",
          "type": "address"
        },
        {
          "indexed": false,
          "internalType": "address[]",
          "name": "fallbackOracles",
          "type": "address[]"
        }
      ],
      "name": "PriceOracleUpdated",
      "type": "event"
    },
    {
      "anonymous": false,
      "inputs": [
        {
          "indexed": true,
          "internalType": "uint16",
          "name": "chainId",
          "type": "uint16"
        },
        {
          "indexed": false,
          "internalType": "uint256",
          "name": "amountA",
          "type": "uint256"
        },
        {
          "indexed": false,
          "internalType": "uint256",
          "name": "amountB",
          "type": "uint256"
        }
      ],
      "name": "ReservesRebalanced",
      "type": "event"
    },
    {
      "anonymous": false,
      "inputs": [
        {
          "indexed": true,
          "internalType": "address",
          "name": "user",
          "type": "address"
        },
        {
          "indexed": true,
          "internalType": "address",
          "name": "inputToken",
          "type": "address"
        },
        {
          "indexed": false,
          "internalType": "uint256",
          "name": "amountIn",
          "type": "uint256"
        },
        {
          "indexed": false,
          "internalType": "uint256",
          "name": "amountOut",
          "type": "uint256"
        }
      ],
      "name": "Swap",
      "type": "event"
    },
    {
      "anonymous": false,
      "inputs": [
        {
          "indexed": false,
          "internalType": "uint256",
          "name": "newRatio",
          "type": "uint256"
        }
      ],
      "name": "TargetReserveRatioUpdated",
      "type": "event"
    },
    {
      "anonymous": false,
      "inputs": [
        {
          "indexed": true,
          "internalType": "address",
          "name": "token",
          "type": "address"
        },
        {
          "indexed": false,
          "internalType": "uint8",
          "name": "bridgeType",
          "type": "uint8"
        }
      ],
      "name": "TokenBridgeTypeUpdated",
      "type": "event"
    },
    {
      "anonymous": false,
      "inputs": [
        {
          "indexed": true,
          "internalType": "address",
          "name": "newTokenBridge",
          "type": "address"
        }
      ],
      "name": "TokenBridgeUpdated",
      "type": "event"
    },
    {
      "anonymous": false,
      "inputs": [
        {
          "indexed": true,
          "internalType": "uint16",
          "name": "chainId",
          "type": "uint16"
        },
        {
          "indexed": false,
          "internalType": "bytes",
          "name": "poolAddress",
          "type": "bytes"
        }
      ],
      "name": "TrustedRemotePoolAdded",
      "type": "event"
    },
    {
      "anonymous": false,
      "inputs": [
        {
          "indexed": true,
          "internalType": "address",
          "name": "caller",
          "type": "address"
        }
      ],
      "name": "Unpaused",
      "type": "event"
    },
    {
      "anonymous": false,
      "inputs": [
        {
          "indexed": true,
          "internalType": "address",
          "name": "implementation",
          "type": "address"
        }
      ],
      "name": "Upgraded",
      "type": "event"
    },
    {
      "anonymous": false,
      "inputs": [
        {
          "indexed": false,
          "internalType": "uint256",
          "name": "newThreshold",
          "type": "uint256"
        }
      ],
      "name": "VolatilityThresholdUpdated",
      "type": "event"
    },
    {
      "inputs": [],
      "name": "GOVERNANCE_TIMELOCK",
      "outputs": [
        {
          "internalType": "uint256",
          "name": "",
          "type": "uint256"
        }
      ],
      "stateMutability": "view",
      "type": "function"
    },
    {
      "inputs": [],
      "name": "MAX_BATCH_SIZE",
      "outputs": [
        {
          "internalType": "uint256",
          "name": "",
          "type": "uint256"
        }
      ],
      "stateMutability": "view",
      "type": "function"
    },
    {
      "inputs": [],
      "name": "MAX_GAS_LIMIT",
      "outputs": [
        {
          "internalType": "uint256",
          "name": "",
          "type": "uint256"
        }
      ],
      "stateMutability": "view",
      "type": "function"
    },
    {
      "inputs": [],
      "name": "MAX_RETRIES",
      "outputs": [
        {
          "internalType": "uint256",
          "name": "",
          "type": "uint256"
        }
      ],
      "stateMutability": "view",
      "type": "function"
    },
    {
      "inputs": [],
      "name": "MAX_TIMELOCK",
      "outputs": [
        {
          "internalType": "uint256",
          "name": "",
          "type": "uint256"
        }
      ],
      "stateMutability": "view",
      "type": "function"
    },
    {
      "inputs": [],
      "name": "MIN_TIMELOCK",
      "outputs": [
        {
          "internalType": "uint256",
          "name": "",
          "type": "uint256"
        }
      ],
      "stateMutability": "view",
      "type": "function"
    },
    {
      "inputs": [],
      "name": "VERSION",
      "outputs": [
        {
          "internalType": "string",
          "name": "",
          "type": "string"
        }
      ],
      "stateMutability": "view",
      "type": "function"
    },
    {
      "inputs": [
        {
          "internalType": "uint16",
          "name": "",
          "type": "uint16"
        }
      ],
      "name": "chainFees",
      "outputs": [
        {
          "internalType": "uint256",
          "name": "baseFee",
          "type": "uint256"
        },
        {
          "internalType": "uint256",
          "name": "maxFee",
          "type": "uint256"
        }
      ],
      "stateMutability": "view",
      "type": "function"
    },
    {
      "inputs": [
        {
          "internalType": "uint16",
          "name": "",
          "type": "uint16"
        }
      ],
      "name": "chainPaused",
      "outputs": [
        {
          "internalType": "bool",
          "name": "",
          "type": "bool"
        }
      ],
      "stateMutability": "view",
      "type": "function"
    },
    {
      "inputs": [
        {
          "internalType": "uint16",
          "name": "",
          "type": "uint16"
        }
      ],
      "name": "chainTimelocks",
      "outputs": [
        {
          "internalType": "uint256",
          "name": "",
          "type": "uint256"
        }
      ],
      "stateMutability": "view",
      "type": "function"
    },
    {
      "inputs": [],
      "name": "emaPeriod",
      "outputs": [
        {
          "internalType": "uint256",
          "name": "",
          "type": "uint256"
        }
      ],
      "stateMutability": "view",
      "type": "function"
    },
    {
      "inputs": [],
      "name": "emaVolatility",
      "outputs": [
        {
          "internalType": "uint256",
          "name": "",
          "type": "uint256"
        }
      ],
      "stateMutability": "view",
      "type": "function"
    },
    {
      "inputs": [],
      "name": "failedMessageCount",
      "outputs": [
        {
          "internalType": "uint256",
          "name": "",
          "type": "uint256"
        }
      ],
      "stateMutability": "view",
      "type": "function"
    },
    {
      "inputs": [
        {
          "internalType": "uint256",
          "name": "",
          "type": "uint256"
        }
      ],
      "name": "failedMessages",
      "outputs": [
        {
          "internalType": "uint16",
          "name": "dstChainId",
          "type": "uint16"
        },
        {
          "internalType": "bytes",
          "name": "payload",
          "type": "bytes"
        },
        {
          "internalType": "bytes",
          "name": "adapterParams",
          "type": "bytes"
        },
        {
          "internalType": "uint256",
          "name": "retries",
          "type": "uint256"
        },
        {
          "internalType": "uint256",
          "name": "timestamp",
          "type": "uint256"
        }
      ],
      "stateMutability": "view",
      "type": "function"
    },
    {
      "inputs": [
        {
          "internalType": "uint256",
          "name": "",
          "type": "uint256"
        }
      ],
      "name": "fallbackPriceOracles",
      "outputs": [
        {
          "internalType": "address",
          "name": "",
          "type": "address"
        }
      ],
      "stateMutability": "view",
      "type": "function"
    },
    {
      "inputs": [],
      "name": "governance",
      "outputs": [
        {
          "internalType": "address",
          "name": "",
          "type": "address"
        }
      ],
      "stateMutability": "view",
      "type": "function"
    },
    {
      "inputs": [
        {
          "internalType": "uint256",
          "name": "",
          "type": "uint256"
        }
      ],
      "name": "governanceProposals",
      "outputs": [
        {
          "internalType": "address",
          "name": "target",
          "type": "address"
        },
        {
          "internalType": "bytes",
          "name": "data",
          "type": "bytes"
        },
        {
          "internalType": "uint256",
          "name": "proposedAt",
          "type": "uint256"
        },
        {
          "internalType": "bool",
          "name": "executed",
          "type": "bool"
        }
      ],
      "stateMutability": "view",
      "type": "function"
    },
    {
      "inputs": [],
      "name": "lastPrice",
      "outputs": [
        {
          "internalType": "uint256",
          "name": "",
          "type": "uint256"
        }
      ],
      "stateMutability": "view",
      "type": "function"
    },
    {
      "inputs": [],
      "name": "layerZeroEndpoint",
      "outputs": [
        {
          "internalType": "address",
          "name": "",
          "type": "address"
        }
      ],
      "stateMutability": "view",
      "type": "function"
    },
    {
      "inputs": [
        {
          "internalType": "address",
          "name": "",
          "type": "address"
        }
      ],
      "name": "liquidityBalance",
      "outputs": [
        {
          "internalType": "uint256",
          "name": "",
          "type": "uint256"
        }
      ],
      "stateMutability": "view",
      "type": "function"
    },
    {
      "inputs": [],
      "name": "lpFeeShare",
      "outputs": [
        {
          "internalType": "uint256",
          "name": "",
          "type": "uint256"
        }
      ],
      "stateMutability": "view",
      "type": "function"
    },
    {
      "inputs": [
        {
          "internalType": "address",
          "name": "",
          "type": "address"
        },
        {
          "internalType": "address",
          "name": "",
          "type": "address"
        }
      ],
      "name": "lpFees",
      "outputs": [
        {
          "internalType": "uint256",
          "name": "",
          "type": "uint256"
        }
      ],
      "stateMutability": "view",
      "type": "function"
    },
    {
      "inputs": [],
      "name": "owner",
      "outputs": [
        {
          "internalType": "address",
          "name": "",
          "type": "address"
        }
      ],
      "stateMutability": "view",
      "type": "function"
    },
    {
      "inputs": [],
      "name": "paused",
      "outputs": [
        {
          "internalType": "bool",
          "name": "",
          "type": "bool"
        }
      ],
      "stateMutability": "view",
      "type": "function"
    },
    {
      "inputs": [],
      "name": "priceDeviationThreshold",
      "outputs": [
        {
          "internalType": "uint256",
          "name": "",
          "type": "uint256"
        }
      ],
      "stateMutability": "view",
      "type": "function"
    },
    {
      "inputs": [],
      "name": "primaryPriceOracle",
      "outputs": [
        {
          "internalType": "address",
          "name": "",
          "type": "address"
        }
      ],
      "stateMutability": "view",
      "type": "function"
    },
    {
      "inputs": [],
      "name": "proposalCount",
      "outputs": [
        {
          "internalType": "uint256",
          "name": "",
          "type": "uint256"
        }
      ],
      "stateMutability": "view",
      "type": "function"
    },
    {
      "inputs": [],
      "name": "proxiableUUID",
      "outputs": [
        {
          "internalType": "bytes32",
          "name": "",
          "type": "bytes32"
        }
      ],
      "stateMutability": "view",
      "type": "function"
    },
    {
      "inputs": [],
      "name": "renounceOwnership",
      "outputs": [],
      "stateMutability": "nonpayable",
      "type": "function"
    },
    {
      "inputs": [],
      "name": "reserves",
      "outputs": [
        {
          "internalType": "uint256",
          "name": "reserveA",
          "type": "uint256"
        },
        {
          "internalType": "uint256",
          "name": "reserveB",
          "type": "uint256"
        },
        {
          "internalType": "uint256",
          "name": "crossChainReserveA",
          "type": "uint256"
        },
        {
          "internalType": "uint256",
          "name": "crossChainReserveB",
          "type": "uint256"
        }
      ],
      "stateMutability": "view",
      "type": "function"
    },
    {
      "inputs": [],
      "name": "targetReserveRatio",
      "outputs": [
        {
          "internalType": "uint256",
          "name": "",
          "type": "uint256"
        }
      ],
      "stateMutability": "view",
      "type": "function"
    },
    {
      "inputs": [],
      "name": "tokenA",
      "outputs": [
        {
          "internalType": "address",
          "name": "",
          "type": "address"
        }
      ],
      "stateMutability": "view",
      "type": "function"
    },
    {
      "inputs": [],
      "name": "tokenB",
      "outputs": [
        {
          "internalType": "address",
          "name": "",
          "type": "address"
        }
      ],
      "stateMutability": "view",
      "type": "function"
    },
    {
      "inputs": [],
      "name": "tokenBridge",
      "outputs": [
        {
          "internalType": "address",
          "name": "",
          "type": "address"
        }
      ],
      "stateMutability": "view",
      "type": "function"
    },
    {
      "inputs": [
        {
          "internalType": "address",
          "name": "",
          "type": "address"
        }
      ],
      "name": "tokenBridgeType",
      "outputs": [
        {
          "internalType": "uint8",
          "name": "",
          "type": "uint8"
        }
      ],
      "stateMutability": "view",
      "type": "function"
    },
    {
      "inputs": [],
      "name": "totalLiquidity",
      "outputs": [
        {
          "internalType": "uint256",
          "name": "",
          "type": "uint256"
        }
      ],
      "stateMutability": "view",
      "type": "function"
    },
    {
      "inputs": [
        {
          "internalType": "address",
          "name": "newOwner",
          "type": "address"
        }
      ],
      "name": "transferOwnership",
      "outputs": [],
      "stateMutability": "nonpayable",
      "type": "function"
    },
    {
      "inputs": [],
      "name": "treasury",
      "outputs": [
        {
          "internalType": "address",
          "name": "",
          "type": "address"
        }
      ],
      "stateMutability": "view",
      "type": "function"
    },
    {
      "inputs": [],
      "name": "treasuryFeeShare",
      "outputs": [
        {
          "internalType": "uint256",
          "name": "",
          "type": "uint256"
        }
      ],
      "stateMutability": "view",
      "type": "function"
    },
    {
      "inputs": [
        {
          "internalType": "uint16",
          "name": "",
          "type": "uint16"
        }
      ],
      "name": "trustedRemotePools",
      "outputs": [
        {
          "internalType": "bytes",
          "name": "",
          "type": "bytes"
        }
      ],
      "stateMutability": "view",
      "type": "function"
    },
    {
      "inputs": [
        {
          "internalType": "address",
          "name": "newImplementation",
          "type": "address"
        }
      ],
      "name": "upgradeTo",
      "outputs": [],
      "stateMutability": "nonpayable",
      "type": "function"
    },
    {
      "inputs": [
        {
          "internalType": "address",
          "name": "newImplementation",
          "type": "address"
        },
        {
          "internalType": "bytes",
          "name": "data",
          "type": "bytes"
        }
      ],
      "name": "upgradeToAndCall",
      "outputs": [],
      "stateMutability": "payable",
      "type": "function"
    },
    {
      "inputs": [],
      "name": "useConstantSum",
      "outputs": [
        {
          "internalType": "bool",
          "name": "",
          "type": "bool"
        }
      ],
      "stateMutability": "view",
      "type": "function"
    },
    {
      "inputs": [
        {
          "internalType": "uint16",
          "name": "",
          "type": "uint16"
        },
        {
          "internalType": "uint64",
          "name": "",
          "type": "uint64"
        }
      ],
      "name": "usedNonces",
      "outputs": [
        {
          "internalType": "bool",
          "name": "",
          "type": "bool"
        }
      ],
      "stateMutability": "view",
      "type": "function"
    },
    {
      "inputs": [],
      "name": "volatilityThreshold",
      "outputs": [
        {
          "internalType": "uint256",
          "name": "",
          "type": "uint256"
        }
      ],
      "stateMutability": "view",
      "type": "function"
    },
    {
      "stateMutability": "payable",
      "type": "receive"
    },
    {
      "inputs": [
        {
          "internalType": "address",
          "name": "_tokenA",
          "type": "address"
        },
        {
          "internalType": "address",
          "name": "_tokenB",
          "type": "address"
        },
        {
          "internalType": "address",
          "name": "_treasury",
          "type": "address"
        },
        {
          "internalType": "address",
          "name": "_layerZeroEndpoint",
          "type": "address"
        },
        {
          "internalType": "address",
          "name": "_feeRecipient",
          "type": "address"
        },
        {
          "internalType": "address",
          "name": "_primaryPriceOracle",
          "type": "address"
        },
        {
          "internalType": "address[]",
          "name": "_fallbackPriceOracles",
          "type": "address[]"
        },
        {
          "internalType": "address",
          "name": "_factory",
          "type": "address"
        },
        {
          "internalType": "uint256",
          "name": "_timelock",
          "type": "uint256"
        },
        {
          "internalType": "uint256",
          "name": "_targetReserveRatio",
          "type": "uint256"
        }
      ],
      "name": "initialize",
      "outputs": [],
      "stateMutability": "nonpayable",
      "type": "function"
    },
    {
      "inputs": [
        {
          "internalType": "uint256",
          "name": "amountA",
          "type": "uint256"
        },
        {
          "internalType": "uint256",
          "name": "amountB",
          "type": "uint256"
        }
      ],
      "name": "addLiquidity",
      "outputs": [],
      "stateMutability": "nonpayable",
      "type": "function"
    },
    {
      "inputs": [
        {
          "internalType": "uint256",
          "name": "liquidity",
          "type": "uint256"
        }
      ],
      "name": "removeLiquidity",
      "outputs": [],
      "stateMutability": "nonpayable",
      "type": "function"
    },
    {
      "inputs": [
        {
          "internalType": "address",
          "name": "inputToken",
          "type": "address"
        },
        {
          "internalType": "uint256",
          "name": "amountIn",
          "type": "uint256"
        },
        {
          "internalType": "uint256",
          "name": "minAmountOut",
          "type": "uint256"
        }
      ],
      "name": "swap",
      "outputs": [
        {
          "internalType": "uint256",
          "name": "amountOut",
          "type": "uint256"
        }
      ],
      "stateMutability": "nonpayable",
      "type": "function"
    },
    {
      "inputs": [
        {
          "internalType": "address",
          "name": "token",
          "type": "address"
        }
      ],
      "name": "claimLPFees",
      "outputs": [],
      "stateMutability": "nonpayable",
      "type": "function"
    },
    {
      "inputs": [],
      "name": "claimAllLPFees",
      "outputs": [],
      "stateMutability": "nonpayable",
      "type": "function"
    },
    {
      "inputs": [
        {
          "internalType": "uint16",
          "name": "dstChainId",
          "type": "uint16"
        },
        {
          "internalType": "bytes",
          "name": "payload",
          "type": "bytes"
        },
        {
          "internalType": "bytes",
          "name": "adapterParams",
          "type": "bytes"
        }
      ],
      "name": "getEstimatedLayerZeroFee",
      "outputs": [
        {
          "internalType": "uint256",
          "name": "nativeFee",
          "type": "uint256"
        },
        {
          "internalType": "uint256",
          "name": "zroFee",
          "type": "uint256"
        }
      ],
      "stateMutability": "view",
      "type": "function"
    },
    {
      "inputs": [
        {
          "internalType": "uint256",
          "name": "amountA",
          "type": "uint256"
        },
        {
          "internalType": "uint256",
          "name": "amountB",
          "type": "uint256"
        },
        {
          "internalType": "uint16",
          "name": "dstChainId",
          "type": "uint16"
        },
        {
          "internalType": "bytes",
          "name": "adapterParams",
          "type": "bytes"
        }
      ],
      "name": "addLiquidityCrossChain",
      "outputs": [],
      "stateMutability": "payable",
      "type": "function"
    },
    {
      "inputs": [
        {
          "internalType": "uint16",
          "name": "srcChainId",
          "type": "uint16"
        },
        {
          "internalType": "bytes",
          "name": "srcAddress",
          "type": "bytes"
        },
        {
          "internalType": "uint64",
          "name": "nonce",
          "type": "uint64"
        },
        {
          "internalType": "bytes",
          "name": "payload",
          "type": "bytes"
        }
      ],
      "name": "lzReceive",
      "outputs": [],
      "stateMutability": "nonpayable",
      "type": "function"
    },
    {
      "inputs": [
        {
          "internalType": "address",
          "name": "inputToken",
          "type": "address"
        },
        {
          "internalType": "uint256",
          "name": "amountIn",
          "type": "uint256"
        },
        {
          "internalType": "uint256",
          "name": "minAmountOut",
          "type": "uint256"
        },
        {
          "internalType": "uint16",
          "name": "dstChainId",
          "type": "uint16"
        },
        {
          "internalType": "bytes",
          "name": "adapterParams",
          "type": "bytes"
        }
      ],
      "name": "swapCrossChain",
      "outputs": [
        {
          "internalType": "uint256",
          "name": "amountOut",
          "type": "uint256"
        }
      ],
      "stateMutability": "payable",
      "type": "function"
    },
    {
      "inputs": [
        {
          "internalType": "uint16",
          "name": "srcChainId",
          "type": "uint16"
        },
        {
          "internalType": "bytes",
          "name": "srcAddress",
          "type": "bytes"
        },
        {
          "internalType": "uint64",
          "name": "nonce",
          "type": "uint64"
        },
        {
          "internalType": "bytes",
          "name": "payload",
          "type": "bytes"
        }
      ],
      "name": "receiveSwapCrossChain",
      "outputs": [],
      "stateMutability": "nonpayable",
      "type": "function"
    },
    {
      "inputs": [
        {
          "internalType": "uint16",
          "name": "dstChainId",
          "type": "uint16"
        },
        {
          "internalType": "bytes[]",
          "name": "payloads",
          "type": "bytes[]"
        },
        {
          "internalType": "bytes",
          "name": "adapterParams",
          "type": "bytes"
        }
      ],
      "name": "batchCrossChainMessages",
      "outputs": [],
      "stateMutability": "payable",
      "type": "function"
    },
    {
      "inputs": [
        {
          "internalType": "uint256",
          "name": "messageId",
          "type": "uint256"
        }
      ],
      "name": "retryFailedMessage",
      "outputs": [],
      "stateMutability": "payable",
      "type": "function"
    },
    {
      "inputs": [
        {
          "internalType": "uint256",
          "name": "messageId",
          "type": "uint256"
        },
        {
          "internalType": "address",
          "name": "recipient",
          "type": "address"
        }
      ],
      "name": "recoverFailedMessage",
      "outputs": [],
      "stateMutability": "nonpayable",
      "type": "function"
    },
    {
      "inputs": [
        {
          "internalType": "uint16",
          "name": "dstChainId",
          "type": "uint16"
        },
        {
          "internalType": "bytes",
          "name": "adapterParams",
          "type": "bytes"
        }
      ],
      "name": "rebalanceReserves",
      "outputs": [],
      "stateMutability": "nonpayable",
      "type": "function"
    },
    {
      "inputs": [
        {
          "internalType": "uint16",
          "name": "chainId",
          "type": "uint16"
        },
        {
          "internalType": "bytes",
          "name": "adapterParams",
          "type": "bytes"
        }
      ],
      "name": "syncCrossChainReserves",
      "outputs": [],
      "stateMutability": "nonpayable",
      "type": "function"
    },
    {
      "inputs": [],
      "name": "emergencyWithdraw",
      "outputs": [],
      "stateMutability": "nonpayable",
      "type": "function"
    },
    {
      "inputs": [],
      "name": "getReserves",
      "outputs": [
        {
          "internalType": "uint256",
          "name": "",
          "type": "uint256"
        },
        {
          "internalType": "uint256",
          "name": "",
          "type": "uint256"
        },
        {
          "internalType": "uint256",
          "name": "",
          "type": "uint256"
        },
        {
          "internalType": "uint256",
          "name": "",
          "type": "uint256"
        }
      ],
      "stateMutability": "view",
      "type": "function"
    },
    {
      "inputs": [
        {
          "internalType": "uint16",
          "name": "chainId",
          "type": "uint16"
        }
      ],
      "name": "getCrossChainState",
      "outputs": [
        {
          "internalType": "address",
          "name": "",
          "type": "address"
        },
        {
          "internalType": "address",
          "name": "",
          "type": "address"
        },
        {
          "internalType": "uint256",
          "name": "",
          "type": "uint256"
        },
        {
          "internalType": "bytes",
          "name": "",
          "type": "bytes"
        },
        {
          "internalType": "uint256",
          "name": "",
          "type": "uint256"
        },
        {
          "internalType": "uint256",
          "name": "",
          "type": "uint256"
        }
      ],
      "stateMutability": "view",
      "type": "function"
    },
    {
      "inputs": [
        {
          "internalType": "uint256",
          "name": "amountIn",
          "type": "uint256"
        },
        {
          "internalType": "address",
          "name": "inputToken",
          "type": "address"
        }
      ],
      "name": "getPriceImpact",
      "outputs": [
        {
          "internalType": "uint256",
          "name": "",
          "type": "uint256"
        }
      ],
      "stateMutability": "view",
      "type": "function"
    },
    {
      "inputs": [
        {
          "internalType": "address",
          "name": "target",
          "type": "address"
        },
        {
          "internalType": "bytes",
          "name": "data",
          "type": "bytes"
        }
      ],
      "name": "proposeGovernanceUpdate",
      "outputs": [
        {
          "internalType": "uint256",
          "name": "",
          "type": "uint256"
        }
      ],
      "stateMutability": "nonpayable",
      "type": "function"
    },
    {
      "inputs": [
        {
          "internalType": "uint256",
          "name": "proposalId",
          "type": "uint256"
        }
      ],
      "name": "executeGovernanceProposal",
      "outputs": [],
      "stateMutability": "nonpayable",
      "type": "function"
    },
    {
      "inputs": [
        {
          "internalType": "uint16",
          "name": "chainId",
          "type": "uint16"
        },
        {
          "internalType": "uint256",
          "name": "_baseFee",
          "type": "uint256"
        },
        {
          "internalType": "uint256",
          "name": "_maxFee",
          "type": "uint256"
        },
        {
          "internalType": "uint256",
          "name": "_lpFeeShare",
          "type": "uint256"
        },
        {
          "internalType": "uint256",
          "name": "_treasuryFeeShare",
          "type": "uint256"
        }
      ],
      "name": "updateFees",
      "outputs": [],
      "stateMutability": "nonpayable",
      "type": "function"
    },
    {
      "inputs": [],
      "name": "pause",
      "outputs": [],
      "stateMutability": "nonpayable",
      "type": "function"
    },
    {
      "inputs": [],
      "name": "unpause",
      "outputs": [],
      "stateMutability": "nonpayable",
      "type": "function"
    },
    {
      "inputs": [
        {
          "internalType": "uint16",
          "name": "chainId",
          "type": "uint16"
        }
      ],
      "name": "pauseChain",
      "outputs": [],
      "stateMutability": "nonpayable",
      "type": "function"
    },
    {
      "inputs": [
        {
          "internalType": "uint16",
          "name": "chainId",
          "type": "uint16"
        }
      ],
      "name": "unpauseChain",
      "outputs": [],
      "stateMutability": "nonpayable",
      "type": "function"
    },
    {
      "inputs": [
        {
          "internalType": "address",
          "name": "_layerZeroEndpoint",
          "type": "address"
        }
      ],
      "name": "updateLayerZeroEndpoint",
      "outputs": [],
      "stateMutability": "nonpayable",
      "type": "function"
    },
    {
      "inputs": [
        {
          "internalType": "address",
          "name": "_tokenBridge",
          "type": "address"
        }
      ],
      "name": "updateTokenBridge",
      "outputs": [],
      "stateMutability": "nonpayable",
      "type": "function"
    },
    {
      "inputs": [
        {
          "internalType": "uint16",
          "name": "chainId",
          "type": "uint16"
        },
        {
          "internalType": "bytes",
          "name": "poolAddress",
          "type": "bytes"
        }
      ],
      "name": "addTrustedRemotePool",
      "outputs": [],
      "stateMutability": "nonpayable",
      "type": "function"
    },
    {
      "inputs": [
        {
          "internalType": "uint16",
          "name": "chainId",
          "type": "uint16"
        },
        {
          "internalType": "uint256",
          "name": "_timelock",
          "type": "uint256"
        }
      ],
      "name": "updateChainTimelock",
      "outputs": [],
      "stateMutability": "nonpayable",
      "type": "function"
    },
    {
      "inputs": [
        {
          "internalType": "address",
          "name": "token",
          "type": "address"
        },
        {
          "internalType": "uint8",
          "name": "bridgeType",
          "type": "uint8"
        }
      ],
      "name": "updateTokenBridgeType",
      "outputs": [],
      "stateMutability": "nonpayable",
      "type": "function"
    },
    {
      "inputs": [
        {
          "internalType": "uint256",
          "name": "_targetReserveRatio",
          "type": "uint256"
        }
      ],
      "name": "updateTargetReserveRatio",
      "outputs": [],
      "stateMutability": "nonpayable",
      "type": "function"
    },
    {
      "inputs": [
        {
          "internalType": "address",
          "name": "_primaryPriceOracle",
          "type": "address"
        },
        {
          "internalType": "address[]",
          "name": "_fallbackPriceOracles",
          "type": "address[]"
        }
      ],
      "name": "updatePriceOracles",
      "outputs": [],
      "stateMutability": "nonpayable",
      "type": "function"
    },
    {
      "inputs": [
        {
          "internalType": "address",
          "name": "_governance",
          "type": "address"
        }
      ],
      "name": "updateGovernance",
      "outputs": [],
      "stateMutability": "nonpayable",
      "type": "function"
    },
    {
      "inputs": [
        {
          "internalType": "uint256",
          "name": "_emaPeriod",
          "type": "uint256"
        }
      ],
      "name": "updateEmaPeriod",
      "outputs": [],
      "stateMutability": "nonpayable",
      "type": "function"
    },
    {
      "inputs": [
        {
          "internalType": "uint256",
          "name": "_volatilityThreshold",
          "type": "uint256"
        }
      ],
      "name": "updateVolatilityThreshold",
      "outputs": [],
      "stateMutability": "nonpayable",
      "type": "function"
    },
    {
      "inputs": [
        {
          "internalType": "uint256",
          "name": "_priceDeviationThreshold",
          "type": "uint256"
        }
      ],
      "name": "updatePriceDeviationThreshold",
      "outputs": [],
      "stateMutability": "nonpayable",
      "type": "function"
    }
  ],
  "bytecode": "0x60a0604052346200003657620000146200003b565b604051619054620001fc823960805181818161305c0152613cec015261905490f35b600080fd5b6200004562000051565b6200004f62000181565b565b6200004f62000096565b620000719062000074906001600160a01b031682565b90565b6001600160a01b031690565b62000071906200005b565b620000719062000080565b620000a1306200008b565b608052565b620000719060081c5b60ff1690565b620000719054620000a6565b60208082526027908201527f496e697469616c697a61626c653a20636f6e747261637420697320696e697469604082015266616c697a696e6760c81b606082015260800190565b156200011057565b60405162461bcd60e51b8152806200012b60048201620000c1565b0390fd5b6200007190620000af565b6200007190546200012f565b620000af62000071620000719260ff1690565b906200016d620000716200017d9262000146565b825460ff191660ff919091161790565b9055565b6200019f62000199620001956000620000b5565b1590565b62000108565b620001ab60006200013a565b60ff90811603620001b857565b620001c660ff600062000159565b7f7f26b83ff96e1f2b6a682f133852f6798a09c465da95921460cefb3847402498620001f160405190565b60ff8152602090a156fe60a0604052600436101561001b575b361561001957600080fd5b005b60003560e01c80621d35671461054a578063024d973f14610545578063053f14da1461054057806307968db11461053b5780630902f1ac146105365780630b645028146105315780630e3187e51461052c5780630f012183146105275780630fc63d101461052257806315770f921461051d57806316ca32dc146105185780632577055b146105135780632782b67a1461050e5780633659cfe6146105095780633a1efa9f146105045780633d09f515146104ff5780633f4ba83a146104fa57806345f11178146104f557806346ebbdb0146104f05780634a7f931e146104eb5780634afdfbdb146104e65780634f1ef286146104e157806352d1902d146104dc5780635442774e146104d7578063559ced1e146104d25780635a770289146104cd5780635aa6e675146104c85780635b080361146104c35780635c975abb146104be5780635da885a1146104b95780635e0611e8146104b45780635f64b55b146104af57806361d027b3146104aa578063681234c0146104a557806368d58240146104a05780636d7616c11461049b578063715018a61461049657806375172a8b1461049157806378ba139d1461048c57806378ef8333146104875780637b35aded146104825780637e7836041461047d5780638456cb5914610478578063881882cb146104735780638da5cb5b1461046e5780638e0738201461046957806394c3e9141461046457806394f1825b1461045f578063968761ec1461045a5780639c8f9f23146104555780639cd441da146104505780639f1d0f591461044b5780639fe88c8414610446578063a35906bd14610441578063aa659ea41461043c578063b256126314610437578063c158e71514610432578063c6328a461461042d578063c79ce9d114610428578063c818c74914610423578063cfdbf2541461041e578063d35eaee814610419578063d46630f914610414578063d7d674b01461040f578063d84e2d341461040a578063d9c0222f14610405578063da35c66414610400578063db2e21bc146103fb578063dbecb7eb146103f6578063dd296480146103f1578063de12a4f6146103ec578063e1ac42da146103e7578063e3f5aa51146103e2578063e79d3d95146103dd578063eaeb3ff9146103d8578063f2fde38b146103d3578063f4365710146103ce578063f8c8b892146103c9578063f9a69ecc146103c4578063fa596d32146103bf578063fb0c7549146103ba578063fd0320af146103b55763ffa1ad740361000e57611cd9565b611c18565b611bf0565b611bc1565b611b9b565b611b82565b611b34565b611ac9565b611aaa565b611a8f565b611a17565b6119e7565b611963565b61193b565b611911565b6118f9565b6118de565b6118b8565b611867565b61184c565b611824565b6117e2565b611726565b611701565b6116e6565b6116be565b611699565b611681565b611669565b611652565b611606565b6115dd565b61159b565b611567565b61154c565b611524565b6114f5565b6114d0565b6114b5565b61149d565b611485565b611469565b611424565b6113db565b6113af565b611380565b61133b565b611322565b611309565b6112d5565b6112ba565b611292565b611261565b61111d565b611082565b611059565b611022565b610fe1565b610f78565b610f47565b610d0c565b610cf8565b610be2565b610bbd565b610ba2565b610b66565b610aef565b610ad3565b610a61565b6109db565b610996565b610972565b6108d7565b6108bc565b610894565b61086c565b6107f5565b6107dc565b610776565b61071e565b6106ac565b610662565b610623565b61ffff81165b0361055c57565b600080fd5b9050359061056e8261054f565b565b909182601f8301121561055c578135916001600160401b03831161055c57602001926001830284011161055c57565b6001600160401b038116610555565b9050359061056e8261059f565b909160808284031261055c576105d18383610561565b9260208301356001600160401b03811161055c57816105f1918501610570565b92909361060183604083016105ae565b9260608201356001600160401b03811161055c5761061f9201610570565b9091565b3461055c576106426106363660046105bb565b949390939291926122fd565b604051005b0390f35b9060208282031261055c5761065f91610561565b90565b3461055c5761064261067536600461064b565b612399565b600091031261055c57565b61065f916008021c81565b9061065f9154610685565b61065f6000610118610690565b9052565b3461055c576106bc36600461067a565b6106476106c761069b565b6040515b9182918290815260200190565b61065f916008021c5b6001600160a01b031690565b9061065f91546106d8565b61065f600061010b6106ed565b6106a8906106e1565b60208101929161056e9190610705565b3461055c5761072e36600461067a565b6106476107396106f8565b6040519182918261070e565b61077261056e9461076b606094989795610764608086019a6000870152565b6020850152565b6040830152565b0152565b3461055c5761078636600461067a565b6106476107916123a2565b9061079e94929460405190565b94859485610745565b91909160408184031261055c576107be8382610561565b9260208201356001600160401b03811161055c5761061f9201610570565b3461055c576106426107ef3660046107a7565b91612667565b3461055c5761064261080836600461064b565b6126fa565b80610555565b9050359061056e8261080d565b919060a08382031261055c576108368184610561565b926108448260208301610813565b9261065f6108558460408501610813565b9360806108658260608701610813565b9401610813565b3461055c5761064261087f366004610820565b9392909261289e565b61065f600060fc6106ed565b3461055c576108a436600461067a565b610647610739610888565b61065f6000610106610690565b3461055c576108cc36600461067a565b6106476106c76108af565b3461055c576108e736600461067a565b610642612a3a565b909182601f8301121561055c578135916001600160401b03831161055c57602001926020830284011161055c57565b60608183031261055c576109328282610561565b9260208201356001600160401b03811161055c57836109529184016108ef565b92909360408201356001600160401b03811161055c5761061f9201610570565b61064261098036600461091e565b93929092612f78565b61065f60006101126106ed565b3461055c576109a636600461067a565b610647610739610989565b610555816106e1565b9050359061056e826109b1565b9060208282031261055c5761065f916109ba565b3461055c576106426109ee3660046109c7565b613114565b61065f906106e1906001600160a01b031682565b61065f906109f3565b61065f90610a07565b90610a2390610a10565b600052602052604060002090565b61065f916008021c5b60ff1690565b9061065f9154610a31565b6000610a5c61065f92610110610a19565b610a40565b3461055c57610647610a7c610a773660046109c7565b610a4b565b6040515b9182918260ff909116815260200190565b919060408382031261055c5761065f906020610aad82866109ba565b94016109ba565b610ace61065f92610ac9600093610108610a19565b610a19565b610690565b3461055c576106476106c7610ae9366004610a91565b90610ab4565b3461055c57610aff36600461067a565b610642613195565b91909160a08184031261055c57610b1e83826109ba565b92610b2c8160208401610813565b92610b3a8260408501610813565b92610b488360608301610561565b9260808201356001600160401b03811161055c5761061f9201610570565b6106476106c7610b77366004610b07565b94939093929192613b71565b61065f61065f61065f9290565b61065f6003610b83565b61065f610b90565b3461055c57610bb236600461067a565b6106476106c7610b9a565b3461055c57610642610bd03660046109c7565b613c2e565b61065f600061011c610690565b3461055c57610bf236600461067a565b6106476106c7610bd5565b634e487b7160e01b600052604160045260246000fd5b90601f01601f191681019081106001600160401b03821117610c3457604052565b610bfd565b9061056e610c4660405190565b9283610c13565b6001600160401b038111610c3457602090601f01601f19160190565b0190565b90826000939282370152565b90929192610c8e610c8982610c4d565b610c39565b938185528183011161055c5761056e916020850190610c6d565b9080601f8301121561055c5781602061065f93359101610c79565b91909160408184031261055c57610cda83826109ba565b9260208201356001600160401b03811161055c5761065f9201610ca8565b610642610d06366004610cc3565b90613c5d565b3461055c57610d1c36600461067a565b6106476106c7613d4d565b9060208282031261055c5761065f91610813565b90610a2390610b83565b61065f905b61ffff1690565b61065f9054610d45565b634e487b7160e01b600052602260045260246000fd5b9060016002830492168015610d91575b6020831014610d8c57565b610d5b565b91607f1691610d81565b80546000939291610db8610dae83610d71565b8085529360200190565b9160018116908115610e0a5750600114610dd157505050565b610de49192939450600052602060002090565b916000925b818410610df65750500190565b805484840152602090930192600101610de9565b92949550505060ff1916825215156020020190565b9061065f91610d9b565b9061056e610e4392610e3a60405190565b93848092610e1f565b0383610c13565b61065f9081565b61065f9054610e4a565b610e679061011b610d3b565b610e7081610d51565b91610e7d60018301610e29565b91610e8a60028201610e29565b9161065f6004610e9c60038501610e51565b9301610e51565b60005b838110610eb65750506000910152565b8181015183820152602001610ea6565b610ee7610ef0602093610c6993610edb815190565b80835293849260200190565b95869101610ea3565b601f01601f191690565b90610f3f61056e95979694610f3161077293608096610f2460a0880192600089019061ffff169052565b8682036020880152610ec6565b908482036040860152610ec6565b966060830152565b3461055c57610647610f62610f5d366004610d27565b610e5b565b91610f6f95939560405190565b95869586610efa565b3461055c57610642610f8b366004610d27565b613dcc565b916107729161056e96989795610fcc60a096610fc5610fd995610fbb60c08a019660008b0190610705565b6020890190610705565b6040870152565b8482036060860152610ec6565b966080830152565b3461055c57610647610ffc610ff736600461064b565b613e0d565b9261100c96949692919260405190565b96879687610f90565b61065f60006101146106ed565b3461055c5761103236600461067a565b610647610739611015565b919060408382031261055c5761065f906020610aad8286610813565b3461055c576106476106c761106f36600461103d565b90613e7a565b61065f6000610109610a40565b3461055c5761109236600461067a565b61064761109d611075565b60405191829182901515815260200190565b610d4a61065f61065f9261ffff1690565b90610a23906110af565b634e487b7160e01b600052600060045260246000fd5b906000106110f15761065f90610e29565b6110ca565b600061110761065f9261010d6110c0565b6110e0565b602080825261065f92910190610ec6565b3461055c5761064761113861113336600461064b565b6110f6565b6040519182918261110c565b6001600160401b038111610c345760208091020190565b9092919261116b610c8982611144565b938185526020808601920283019281841161055c57915b83831061118f5750505050565b6020809161119d84866109ba565b815201920191611182565b9080601f8301121561055c5781602061065f9335910161115b565b6101408183031261055c576111d882826109ba565b926111e683602084016109ba565b926111f481604085016109ba565b9261120282606083016109ba565b9261121083608084016109ba565b9261121e8160a085016109ba565b9260c08101356001600160401b03811161055c578261123e9183016111a8565b9261065f61124f8460e085016109ba565b93610120610865826101008701610813565b3461055c576106426112743660046111c3565b989790979691969592959493946145b5565b61065f600060fd6106ed565b3461055c576112a236600461067a565b610647610739611286565b61065f60006101056106ed565b3461055c576112ca36600461067a565b6106476107396112ad565b3461055c576106426112e83660046109c7565b61463c565b919060408382031261055c5761065f9060206108658286610561565b3461055c5761064261131c3660046112ed565b906146e0565b3461055c5761064261133536600461103d565b90614b0b565b3461055c5761134b36600461067a565b610642614b32565b61135d60fe610e51565b9061136860ff610e51565b90611374610100610e51565b9061065f610101610e51565b3461055c5761139036600461067a565b610647610791611353565b61065f6202a300610b83565b61065f61139b565b3461055c576113bf36600461067a565b6106476106c76113a7565b6000610ace61065f9261010f6110c0565b3461055c576106476106c76113f136600461064b565b6113ca565b611402906101026110c0565b9061065f6001610e9c84610e51565b90815260408101929161056e9160200152565b3461055c5761143c61143736600461064b565b6113f6565b9061064761144960405190565b92839283611411565b91909160408184031261055c576107be83826109ba565b3461055c576106476106c761147f366004611452565b91614cb6565b3461055c5761149536600461067a565b610642614d31565b3461055c576106426114b0366004610d27565b614da7565b3461055c576114c536600461067a565b610647610739614db0565b3461055c576106426114e3366004610d27565b614df6565b61065f6000610104610690565b3461055c5761150536600461067a565b6106476106c76114e8565b61065f62093a80610b83565b61065f611510565b3461055c5761153436600461067a565b6106476106c761151c565b61065f6000610115610690565b3461055c5761155c36600461067a565b6106476106c761153f565b3461055c5761064261157a366004610d27565b614fab565b919060408382031261055c5761065f9060206108658286610813565b3461055c576106426115ae36600461157f565b90615377565b909160608284031261055c5761065f6115cd84846109ba565b9360406108658260208701610813565b3461055c576106476106c76115f33660046115b4565b9161576f565b61065f6000610117610690565b3461055c5761161636600461067a565b6106476106c76115f9565b9060808282031261055c576116368183610813565b926116448260208501610813565b926106018360408301610561565b610642611660366004611621565b93929092615e1d565b3461055c5761064261167c3660046109c7565b615f0f565b3461055c576106426116943660046109c7565b615f8d565b3461055c576106426116ac366004610d27565b615ff7565b61065f600061010c6106ed565b3461055c576116ce36600461067a565b6106476107396116b1565b61065f6000610119610a40565b3461055c576116f636600461067a565b61064761109d6116d9565b61064261170f366004610d27565b616306565b61065f6064610b83565b61065f611714565b3461055c5761173636600461067a565b6106476106c761171e565b61065f906106e1565b61065f9054611741565b61065f90610a3a565b61065f9054611754565b6117739061011d610d3b565b9061177d8261174a565b9161178a60018201610e29565b9161065f600361179c60028501610e51565b930161175d565b6117da6117d260609361056e969897956117c560808601926000870190610705565b8482036020860152610ec6565b966040830152565b019015159052565b3461055c576106476117fd6117f8366004610d27565b611767565b9061180a94929460405190565b948594856117a3565b6000610a5c61065f9261010a6110c0565b3461055c5761064761109d61183a36600461064b565b611813565b61065f6000610116610690565b3461055c5761185c36600461067a565b6106476106c761183f565b3461055c5761064261187a366004610d27565b6164b7565b60ff8116610555565b9050359061056e8261187f565b919060408382031261055c5761065f9060206118b182866109ba565b9401611888565b3461055c576106426118cb366004611895565b90616560565b61065f600061011e610690565b3461055c576118ee36600461067a565b6106476106c76118d1565b3461055c5761190936600461067a565b61064261669a565b3461055c576106426119243660046107a7565b916168b0565b6000610ace61065f92610107610a19565b3461055c576106476106c76119513660046109c7565b61192a565b61065f6000610111610690565b3461055c5761197336600461067a565b6106476106c7611956565b919060408382031261055c5761065f90602061199a8286610561565b94016105ae565b6119b761065f61065f926001600160401b031690565b6001600160401b031690565b90610a23906119a1565b610a5c61065f926119e260009361010e6110c0565b6119c3565b3461055c5761064761109d6119fd36600461197e565b906119cd565b61065f620f4240610b83565b61065f611a03565b3461055c57611a2736600461067a565b6106476106c7611a0f565b634e487b7160e01b600052603260045260246000fd5b8054821015611a6b57611a62600191600052602060002090565b91020190600090565b611a32565b610113805482101561055c5761065f91611a8991611a48565b906106ed565b3461055c57610647610739611aa5366004610d27565b611a70565b3461055c57610642611abd3660046105bb565b94939093929192616c66565b3461055c57610642611adc3660046109c7565b616d04565b9160608383031261055c57611af68284610561565b9260208101356001600160401b03811161055c5783611b16918301610ca8565b9260408201356001600160401b03811161055c5761065f9201610ca8565b3461055c5761143c611b47366004611ae1565b91616d7d565b91909160408184031261055c57611b6483826109ba565b9260208201356001600160401b03811161055c5761065f92016111a8565b3461055c57610642611b95366004611b4d565b90616f81565b3461055c57610642611bae3660046107a7565b916174b8565b61065f600061011a610690565b3461055c57611bd136600461067a565b6106476106c7611bb4565b61065f62015180610b83565b61065f611bdc565b3461055c57611c0036600461067a565b6106476106c7611be8565b61065f6000610103610690565b3461055c57611c2836600461067a565b6106476106c7611c0b565b80546000939291611c46610dae83610d71565b9160018116908115610e0a5750600114611c5f57505050565b611c729192939450600052602060002090565b916000925b818410611c845750500190565b805484840152602090930192600101611c77565b9061065f91611c33565b9061056e610e4392611cb360405190565b93848092611c98565b906000106110f15761065f90611ca2565b61065f600060fb611cbc565b3461055c57611ce936600461067a565b610647611138611ccd565b9493929190611d0c611d0761010b61174a565b6106e1565b611d15336106e1565b03611d235761056e95611d38565b6040516282b42960e81b8152600490fd5b0390fd5b9493929190611d4861010961175d565b611d555761056e95611d67565b60405163ab35696f60e01b8152600490fd5b959493929190611d81611d7c8861010a6110c0565b61175d565b611d8f5761056e9596611dbb565b611d3487611d9c60405190565b6314fb671960e01b81529182916004830161ffff909116815260200190565b90611dd19594939291611dcc617519565b611f3a565b61056e61754b565b61065f9054610d71565b61065f913691610c79565b61065f90610e29565b6001600160401b03909116815260408101929161056e916020905b01906001600160401b03169052565b919060a08382031261055c57611e3781846109ba565b92611e458260208301610813565b9261065f611e568460408501610813565b93608061086582606087016105ae565b9060ff905b9181191691161790565b90611e8561065f611e8c92151590565b8254611e66565b9055565b634e487b7160e01b600052601160045260246000fd5b81810292918115918404141715611eb957565b611e90565b634e487b7160e01b600052601260045260246000fd5b90611ede565b9190565b908115611ee9570490565b611ebe565b91908201809211611eb957565b9060001990611e6b565b90611f1561065f611e8c92610b83565b8254611efb565b90815260608101939261056e929091604091611e12905b6020830152565b939092949161010d90611f55611f5087846110c0565b611dd9565b94600095611f65611eda88610b83565b146122d157611f9f611f9a88611f81611fae95611eda95611de3565b611f93611f8c825190565b9160200190565b20956110c0565b611dee565b611faa611f8c825190565b2090565b036122b65761010e91611fc8611d7c876119e288876110c0565b6122925781611fdc91611fea930190611e21565b919693959295949094610a10565b936001600160401b0389166001600160401b0382160361226e575080421061224a575061201682610b83565b84148015612239575b61222a576001612036886119e28961203b956110c0565b611e75565b61208e61204860fc61174a565b61206c6101109186612066611d7c61206060fc61174a565b86610a19565b9161757d565b85612066611d7c61207d60fd61174a565b9361208860fd61174a565b90610a19565b612099610106610e51565b6120a5611eda83610b83565b036121c7576120de6120d86120d36120ce6120bf87617780565b6120c889617780565b9061778d565b6177db565b61783a565b91610b83565b81146121a35761218b6121858361215261214a61219e9561213f6121277f553174d2f9335bb8fe056c3fb592f25fbf86b0783fd64a389dec8cac71ffa6909b9a99610107610a19565b6121398361213483610e51565b611eee565b90611f05565b612134610106610e51565b610106611f05565b6121656101006121398761213483610e51565b6121786101016121398861213483610e51565b612180617843565b610a10565b956110af565b9561219560405190565b93849384611f1c565b0390a3565b5050611d346121b160405190565b6307c83fcf60e41b815292839260048401611411565b6120de6121f36121e16121db610106610e51565b86611ea6565b6121ed8460fe01610e51565b90611ed4565b61221461220a612204610106610e51565b88611ea6565b6121ed60ff610e51565b80821015612223575091610b83565b90506120d8565b505050611d346121b160405190565b5061224382610b83565b851461201f565b611d349061225760405190565b63126b74dd60e11b81529182914260048401611411565b8890611d3461227c60405190565b637c8bfff560e11b815292839260048401611df7565b611d348661229f60405190565b637c8bfff560e11b81529182918060048401611df7565b604051634726455360e11b815280611d34336004830161070e565b611d34876122de60405190565b6306b03b4d60e21b81529182916004830161ffff909116815260200190565b9061056e9594939291611cf4565b612319611d0761011461174a565b612322336106e1565b03611d235761056e9061010a9061234361233f611d7c83856110c0565b1590565b611d235761235960006120368361235e956110c0565b6110af565b61236733610a10565b907f2f1bdc4fe18de51bcc190eb64e3c94664ce3b2da13ac05e3d13606759e26d51261239260405190565b808061219e565b61056e9061230b565b60fe6123ad81610e51565b6123b960018301610e51565b926123d260036123cb60028601610e51565b9401610e51565b9193929190565b91906123e9611d0761011461174a565b6123f2336106e1565b03611d235761056e926125d5565b6106e161065f61065f9290565b61065f90612400565b9160001960089290920291821b911b611e6b565b919061243b61065f611e8c93610b83565b908354612416565b61056e9160009161242a565b81811061245a575050565b806124686000600193612443565b0161244f565b9190601f811161247d57505050565b61248f61056e93600052602060002090565b906020601f8401819004830193106124b2575b6020601f909101045b019061244f565b90915081906124a2565b9060001960089091021c191690565b816124d5916124bc565b906002021790565b91906001600160401b038211610c3457612501826124fb8554610d71565b8561246e565b600090601f831160011461252f57611e8c929160009183612524575b50506124cb565b01359050388061251d565b90601f1983169161254585600052602060002090565b92825b81811061258357509160029391856001969410612569575b50505002019055565b61257991601f85169101356124bc565b9055388080612560565b92936020600181928786013581550195019301612548565b9061056e92916124dd565b9190610ef0816125bd81610c699560209181520190565b8095610c6d565b602080825261065f939101916125a6565b9091806125e5611eda6000610b83565b14612640576126258261235983866126207f8addd86e28b6d441c80911f85edcb6e1ecd0e8cdfad6b9f32e7df4632b3f31dd9761010d6110c0565b61259b565b9261263b61263260405190565b928392836125c4565b0390a2565b611d3461264d600061240d565b6040515b634726455360e11b81529182916004830161070e565b9061056e92916123d9565b612680611d0761011461174a565b612689336106e1565b03611d235761056e9061010a6126a2611d7c83836110c0565b6126ed57906123596001612036836126b9956110c0565b6126c233610a10565b907f15f6658bf5dbf64da256a223ca4a07ecc61673268783da156cd818a816dae25661239260405190565b611d3482611d9c60405190565b61056e90612672565b93929190612715611d0761011461174a565b61271e336106e1565b03611d235761056e94612778565b61065f6040610c39565b600161275a602061056e9461275561274f600083015190565b86611f05565b015190565b9101611f05565b9061056e91612736565b610d4a61065f61065f9290565b93909192936127848490565b8311801561288b575b6128675761279b8286611eee565b6127a9611eda612710610b83565b03612843577f5c6a01c3a5ffb90be1066451325aa08ec140df702f29234657b710c82a3da30493929161282161263b926128086127e461272c565b6127ec878252565b6127f7886020830152565b612803836101026110c0565b612761565b612812600161276b565b61ffff82161461282b576110af565b9561079e60405190565b61283788610103611f05565b61235983610104611f05565b5083611d3461285160405190565b639737c62f60e01b815292839260048401611411565b5050611d3461287560405190565b6305a7b3d160e11b815292839260048401611411565b506128976103e8610b83565b841161278d565b9061056e94939291612703565b6128b3617519565b611dd16128e6565b6106a890610b83565b91602061056e9294936128df604082019660008301906128bb565b01906128bb565b6101086129086129036128f93384610a19565b61208860fc61174a565b610e51565b906129236129036129193384610a19565b61208860fd61174a565b9060009061293082610b83565b841480612a29575b612a0557907f93ac92bbc1328856b13822d7444a28a1e81b79e61085164305d71765c6110bc4929161296982610b83565b85116129d6575b61297982610b83565b8311612998575b505061298b33610a10565b9261263b61144960405190565b6129b26129196129aa6129b794610b83565b923390610a19565b611f05565b6129cf816129c861218060fd61174a565b33906179f2565b3880612980565b6129ef6129e283610b83565b6129b26128f93385610a19565b612a00856129c861218060fc61174a565b612970565b611d3482612a1260405190565b6307c83fcf60e41b815291829180600484016128c4565b50612a3382610b83565b8314612938565b61056e6128ab565b93929190612a5161010961175d565b611d555761056e93929190612a6b611d7c8761010a6110c0565b612a795761056e9495612a86565b611d3486611d9c60405190565b90611dd194939291612a96617519565b612c73565b9050519061056e8261059f565b9060208282031261055c5761065f91612a9b565b80546000939291612acf610dae83610d71565b9160018116908115610e0a5750600114612ae857505050565b612afb9192939450600052602060002090565b916000925b818410612b0d5750500190565b805484840152602090930192600101612b00565b61ffff909116815261065f9160408201916020818403910152612abc565b6040513d6000823e3d90fd5b80546000939291612b62612b5e83610d71565b9390565b9160018116908115612bb35750600114612b7b57505050565b612b8e9192939450600052602060002090565b6000905b838210612b9f5750500190565b600181602092548486015201910190612b92565b60ff191683525050811515909102019150565b612bd26106a8916106e1565b60601b90565b612be8610c699160149493612b4b565b8092612bc6565b903590601e19368290030182121561055c57018035906001600160401b03821161055c576020019136829003831361055c57565b90821015611a6b57602061061f9202810190612bef565b6119b761065f61065f9290565b6001600160401b03908116911601906001600160401b038211611eb957565b91908203918211611eb957565b60809190915290939284600094612c8986610b83565b8714612f6b57612c9a61065f611714565b8711612f445761010d92612cb1611f5086866110c0565b612cbd611eda89610b83565b14612f3757612cd4612ccf8288611de3565b617a3a565b612d2360009182936020612cef61218061218061010b61174a565b612cf98a8a6110c0565b908a612d0460405190565b809781948293612d1863fdc07c7060e01b90565b845260048401612b21565b03915afa928315612f3257612d719789918c95612ef7575b50612d7d91612d50919c93949596979c6110c0565b612d5930610a10565b90612d6360405190565b998a92602084019283612bd8565b90810382520388610c13565b612d8f612d8989617a61565b42611eee565b94809150995b8b5b8b1015612e935790898989898796958f9a859b89829c9b5a98868460805191612dbf92612c23565b612dc891611de3565b91612dd291611de3565b612ddc9189616d7d565b509384612de891611eee565b9d8c868460805191612df992612c23565b9050612e056084610b83565b14968460805191612e1592612c23565b919094612e2190612c3a565b612e2a91612c47565b93612e3499617b47565b5a612e3e91612c66565b612e4791611eee565b998a612e51611a03565b8111612e6c5750612d97906001019a91929394959050612d95565b611d3490612e7960405190565b63ef9a044160e01b81529182916004830190815260200190565b995050985050505050505050612ea68190565b3410612ed357803411612eb65750565b61056e90612ecd612ec633610a10565b9134612c66565b90617e7e565b611d3490612ee060405190565b63a458261b60e01b81529182913460048401611411565b612d5091955091612f22612d7d9360203d602011612f2b575b612f1a8183610c13565b810190612aa8565b95915091612d3b565b503d612f10565b612b3f565b611d34856122de60405190565b611d3487612f5160405190565b63707aa4ed60e11b81529182916004830190815260200190565b611d3486612a1260405190565b9061056e94939291612a42565b15612f8c57565b60405162461bcd60e51b815260206004820152602c60248201527f46756e6374696f6e206d7573742062652063616c6c6564207468726f7567682060448201526b19195b1959d85d1958d85b1b60a21b6064820152608490fd5b15612fed57565b60405162461bcd60e51b815260206004820152602c60248201527f46756e6374696f6e206d7573742062652063616c6c6564207468726f7567682060448201526b6163746976652070726f787960a01b6064820152608490fd5b61056e906130af61305730610a10565b6130957f00000000000000000000000000000000000000000000000000000000000000009161308e613088846106e1565b916106e1565b1415612f85565b6130a96130886130a3617ebe565b926106e1565b14612fe6565b6130ee565b906130c1610c8983610c4d565b918252565b369037565b9061056e6130e16130db846130b4565b93610c4d565b601f1901602084016130c6565b600061056e916130fd81617edd565b61310e61310983610b83565b6130cb565b90617f6d565b61056e90613047565b61312b611d0761011461174a565b613134336106e1565b03611d235761056e61314a61233f61010961175d565b611d235761315b6000610109611e75565b61316433610a10565b7f5db9ee0a495bf2e6ff9c91a7834c1ba4fdd244a5e8aa4e537bd38aeae4b073aa61318e60405190565b808061263b565b61056e61311d565b9594939291906131ae61010961175d565b611d555761065f9594939291906131ca611d7c8561010a6110c0565b6131d85761065f96976131e5565b611d3484611d9c60405190565b906131fc9695949392916131f7617519565b6134b3565b9061056e61754b565b90815260408101929161056e916020906128df565b610a3a61065f61065f9290565b9050519061056e8261080d565b9060208282031261055c5761065f91613227565b949290979695939160e08601986000870161326291610705565b6020860161326f91610705565b6040850152606084015260808301526001600160401b031660a082015260c00152565b926132da6132e5916132cc61065f9a98946132ef969a989a6132bf60c08a019260008b019061ffff169052565b88820360208a0152610ec6565b908682036040880152610ec6565b966060850190610705565b6080830190610705565b60a08185039101526125a6565b61077261056e9461331b606094989795610764608086019a6000870152565b6001600160401b03166040830152565b61065f60a0610c39565b9061ffff90611e6b565b9061334f61065f611e8c926110af565b8254613335565b9061335f815190565b906001600160401b038211610c345761337c826124fb8554610d71565b602090601f83116001146133a957611e8c92916000918361339e5750506124cb565b01519050388061251d565b601f198316916133be85600052602060002090565b9260005b8181106133f2575091600293918560019694106133e25750505002019055565b612579910151601f8416906124bc565b919360206001819287870151815501950192016133c2565b9061056e91613356565b600461275a608061056e94613437613431600083015161ffff1690565b8661333f565b61344e613445602083015190565b6001870161340a565b61346561345c604083015190565b6002870161340a565b612755613473606083015190565b60038701611f05565b9061056e91613414565b61ffff909116815261065f9160408201916020818403910152610ec6565b6000198114611eb95760010190565b50959490939291906134c8611d0760fc61174a565b6134d1886106e1565b141580613b53575b613b30576134e76000610b83565b8514613b21576134fc611f508461010d6110c0565b613509611eda6000610b83565b14613b14576101109661351f611d7c828a610a19565b61353361352c600161321a565b9160ff1690565b141580613af2575b613ac05761354c611d0760fc61174a565b613555826106e1565b03613aa65761356460fe610e51565b61356e60ff610e51565b965b61357a868261806c565b9691909361358961011961175d565b15613a895750985b818a10613a6557808a11613a4257506135ab8983866180d4565b6135b484610a10565b926135be84610a10565b936370a08231946135ce30610a10565b956135d860405190565b916135e38260e01b90565b8352602083806135f68b6004830161070e565b0381845afa928315612f3257600093613a1a575b5061362a9160209161361e898b33896182b7565b60405193849260e01b90565b8252818061363b8c6004830161070e565b03915afa918215612f325786916000936139db575b5061065f61366192611eda92611eee565b106139b65761368861367f611d7c6136c69a9b9c9d9e9f8990610a19565b8b33878a618323565b602061369b61218061218061010b61174a565b6136a78c61010d6110c0565b908c6136b260405190565b809c81948293612d1863fdc07c7060e01b90565b03915afa978815612f3257600098613993575b509787986136e98b999899617a61565b6136f39042611eee565b938d888661370060405190565b9d8e9460208601948b33956137159688613248565b908103825203613725908b610c13565b61372f898d611de3565b61373a908b8d616d7d565b5092833410613986579061376a61377b93926121396137608b610ac96101083390610a19565b9161213483610e51565b61377561010561174a565b906179f2565b61378c61218061218061010b61174a565b936137b66137c263c5803100926137a58d61010d6110c0565b604051938492602084019283612bd8565b90810382520382610c13565b6137cb33610a10565b916137d6600061240d565b873b1561055c578e976138088f8f93948f8f8a936000988b613813946137fb60405190565b9c8d9b8c9a8b9960e01b90565b895260048901613292565b03925af19081613960575b506138ea5750505050505050600080516020618fff833981519152929361386561076b6138a09361384d61332b565b61ffff8916815293613860876020870152565b611de3565b6138796138726000610b83565b6060830152565b613884426080830152565b61389b61011b61389561011c610e51565b90610d3b565b61347c565b6138b36138ae61011c610e51565b610b83565b926138c96138c060405190565b92839283613486565b0390a261065f6138e26138dd61011c610e51565b6134a4565b61011c611f05565b90919294975061394693959950600080516020618fdf833981519152965061390f8290565b341161394c575b505061393361392d61392733610a10565b97610a10565b976110af565b9761393d60405190565b948594856132fc565b0390a490565b612ecd6139599234612c66565b3880613916565b6139799060005b6139718183610c13565b81019061067a565b3861381e565b503d613967565b611d3484612ee060405190565b6139ae9197985060203d602011612f2b57612f1a8183610c13565b9695386136d9565b600084611d346139c560405190565b6307c83fcf60e41b815292839260048401613205565b611eda91935061366192613a0961065f9260203d602011613a13575b613a018183610c13565b810190613234565b9492509250613650565b503d6139f7565b602091935091613a3961362a93833d8511613a1357613a018183610c13565b9391509161360a565b89611d34613a4f60405190565b63315276c960e01b815292839260048401611411565b5088611d34613a7360405190565b63d28d3eb560e01b815292839260048401611411565b6121ed82613a9a8d613aa095611ea6565b92611eee565b98613591565b613ab060ff610e51565b613aba60fe610e51565b96613570565b613ad0611d7c611d34928a610a19565b6040515b630d50b4bb60e31b81529182916004830160ff909116815260200190565b50613b00611d7c828a610a19565b613b0d61352c600261321a565b141561353b565b611d34836122de60405190565b600085611d346139c560405190565b611d3487613b3d60405190565b63961c9a4f60e01b81529182916004830161070e565b50613b61611d0760fd61174a565b613b6a886106e1565b14156134d9565b61065f959493929190600061319d565b613b8f611d0761011461174a565b613b98336106e1565b03611d235761056e90613bcc565b906001600160a01b0390611e6b565b90613bc561065f611e8c92610a10565b8254613ba6565b613bd9611d07600061240d565b613be2826106e1565b14613c215780612180613bf79261010b613bb5565b7f07ac75b380fe4c5e41ea9b7030179bb21229b84ab9f9ba2fabebccd430ae2f6d61318e60405190565b611d349061265160405190565b61056e90613b81565b9061056e91613c4861305730610a10565b61056e91600191613c5881617edd565b617f6d565b9061056e91613c37565b15613c6e57565b60405162461bcd60e51b815260206004820152603860248201527f555550535570677261646561626c653a206d757374206e6f742062652063616c6044820152771b1959081d1a1c9bdd59da0819195b1959d85d1958d85b1b60421b6064820152608490fd5b61065f90613d16613ce430610a10565b613d106130887f00000000000000000000000000000000000000000000000000000000000000006106e1565b14613c67565b613d44565b61065f7f360894a13ba1a3210667c828492db98dca3e2076cc3735a920a3ca505d382bbc610b83565b5061065f613d1b565b61065f6000613cd4565b613d65611d0761011461174a565b613d6e336106e1565b03611d235761056e90613d816000610b83565b8114613dbd57613db8816106c77ff2510ae1838122ec0293334ab4736fa75c51a329d30f7232d3155bdbe1181d1093610117611f05565b0390a1565b600090611d346139c560405190565b61056e90613d57565b9061056e613dfd6001613de661272c565b94613df7613df382610e51565b8752565b01610e51565b6020840152565b61065f90613dd5565b613e21613e1c826101026110c0565b613e04565b91613e2d61010b61174a565b92613e3961010c61174a565b93613e55613e4c6129038661010f6110c0565b9461010d6110c0565b92613e75613e6c6020613e66865190565b95015190565b92969594611dee565b929190565b61065f91613e8e613088611d0760fc61174a565b60009103613ef4575060fe906121ed90613ed8613ebf613ead85610e51565b613eb960028701610e51565b90611eee565b93613eb96003613ed160018401610e51565b9201610e51565b505b613a9a613eee670de0b6b3a7640000610b83565b82611ea6565b906121ed90613f2760fe613eb96002613ed1613f1f613f1360ff610e51565b613eb960038701610e51565b978401610e51565b50613eda565b61065f9060081c610a3a565b61065f9054613f2d565b15613f4a57565b60405162461bcd60e51b815260206004820152602e60248201527f496e697469616c697a61626c653a20636f6e747261637420697320616c72656160448201526d191e481a5b9a5d1a585b1a5e995960921b6064820152608490fd5b610a3a61065f61065f9260ff1690565b90611e8561065f611e8c92613fa6565b9061ff009060081b611e6b565b90613fe361065f611e8c92151590565b8254613fc6565b6106a89061321a565b60208101929161056e9190613fea565b9896949290916140539896949261401d61233f6000613f39565b9a8b806140e9575b80156140ab575b61403590613f43565b8b61404a614043600161321a565b6000613fb6565b61409a5761423d565b61405957565b614064600080613fd3565b7f7f26b83ff96e1f2b6a682f133852f6798a09c465da95921460cefb384740249861408e60405190565b80613db8600182613ff3565b6140a660016000613fd3565b61423d565b506140c061233f6140bb30610a10565b6183f0565b801561402c57506140356140d4600061175d565b6140e161352c600161321a565b14905061402c565b506140f4600061175d565b61410161352c600161321a565b10614025565b90614110825190565b811015611a6b576020809102010190565b61065f90516106e1565b614140600561413a8354610d71565b8361246e565b600a640312e302e360dc1b019055565b61056e9061412b565b9061416c90600019906020036008021c90565b8154169055565b91909182821061418257505050565b61056e92916141979091600052602060002090565b918201910161244f565b90600160401b8111610c3457816141b961056e935490565b90828155614173565b8151916001600160401b038311610c34576141f86141ec6001926141e686866141a1565b60200190565b92600052602060002090565b92049160005b83811061420b5750505050565b600190602061421c61065f86614121565b94019381840155016141fe565b9061056e916141c2565b90610a239061276b565b999692989390979598949194614252896106e1565b61425b8c6106e1565b10156145125760009561426d8761240d565b998c61427b6130888d6106e1565b14801561459c575b8015614583575b801561456a575b8015614551575b8015614538575b801561451f575b614512576142b561065f611bdc565b891080156144ff575b6144d8576142cb88610b83565b87146144b1578b9c6142dc89610b83565b6142ec819f61065f611eda915190565b101561433f578b61430d8f8f614308613088926130a392614107565b614121565b14614332576143208d9e9d9c9d60010190565b6142ec819f9e9d61065f611eda915190565b611d348c61265160405190565b614463999a9d5061448f9b50946143bb6143ee9897956143b361056e9f95966143ab6143cb986143a36143c39861439c6143d39e61437b61847f565b614383618494565b61438b6184b4565b61439560fb614150565b60fc613bb5565b60fd613bb5565b610105613bb5565b61010b613bb5565b61010c613bb5565b610112613bb5565b610113614229565b610114613bb5565b6143e661010f956129b260018098614233565b610111611f05565b61440a6143f961272c565b916144046014610b83565b90830152565b61442f6144176064610b83565b91614423836020830152565b61280385610102614233565b61444561443d61208d610b83565b610103611f05565b61445b614453610683610b83565b610104611f05565b610116611f05565b61448a614476662386f26fc10000610b83565b61448281610117611f05565b61011a611f05565b61321a565b6144ac610110612919836144ac6144a660fc61174a565b84610a19565b613fb6565b611d34876144be60405190565b635f7918ed60e01b81529182916004830190815260200190565b611d34896144e560405190565b6381872b2960e01b81529182916004830190815260200190565b5061450b61065f611510565b89116142be565b611d348b61265160405190565b506145298b6106e1565b614532876106e1565b146142a6565b506145428b6106e1565b61454b866106e1565b1461429f565b5061455b8b6106e1565b614564856106e1565b14614298565b506145748b6106e1565b61457d846106e1565b14614291565b5061458d8b6106e1565b614596836106e1565b1461428a565b506145a68b6106e1565b6145af826106e1565b14614283565b9061056e999897969594939291614003565b6145d5611d0761011461174a565b6145de336106e1565b03611d235761056e906145f4611d07600061240d565b6145fd826106e1565b14613c2157806121806146129261010c613bb5565b7f6c24236f84b31300a6f3205a33d3029ce86c6a479cd52f40a6566c584d1ce6b361318e60405190565b61056e906145c7565b90614654611d0761011461174a565b61465d336106e1565b03611d235761056e9161467161065f611bdc565b821080156146cd575b6146c05761263b6146b682612359856129b27f6fe98c92bfe8df924816e01e7afebdc610c405b5478d9f33da330607d6127c6d9661010f6110c0565b926106cb60405190565b611d34826144e560405190565b506146d961065f611510565b821161467a565b9061056e91614645565b9061056e916146f761850c565b90611dd191614704617519565b61498e565b9050519061056e826109b1565b60e08183031261055c5761472a8282614709565b926147388360208401614709565b926147468160408501613227565b926147548260608301613227565b9261065f6147658460808501613227565b9360c06147758260a08701612a9b565b9401613227565b919060a08382031261055c576147928184614709565b926147a08260208301613227565b9261065f6147b18460408501613227565b9360806147758260608701612a9b565b906000916147df6147d782600052602060002090565b9283546124cb565b905555565b919290602082101561483c57601f841160011461480657611e8c9293506124cb565b509061483761056e93600161482e61482385600052602060002090565b92601f602091010490565b8201910161244f565b6147c1565b506148758293614853600194600052602060002090565b6124ab6020601f860104820192601f86168061487d575b50601f602091010490565b600202179055565b61488990888603614159565b3861486a565b929091600160401b8211610c3457602011156148d65760208110156148b757611e8c916124cb565b60019160ff19166148cd84600052602060002090565b55600202019055565b60019150600202019055565b9081546148ee81610d71565b90818311614917575b818310614905575b50505050565b61490e936147e4565b388080806148ff565b6149238383838761488f565b6148f7565b600061056e916148e2565b906000036110f15761056e90614928565b600080825561056e9160049061495d8360018301614933565b61496a8360028301614933565b6149778360038301612443565b01612443565b906000036110f15761056e90614944565b9061011b906149a061065f8484610d3b565b6149a981610d51565b6149be6149b6600061276b565b9161ffff1690565b14614ae4576149cf60038201610e51565b6149dd611eda61065f610b90565b10614ae45792600092614aa392600161056e9601816149fb82611dd9565b614a08611eda6084610b83565b148714614aa85750614a4f614a37614a22614a5d93611dee565b6020614a2c825190565b81830101910161477c565b505092915084614a4a61218060fc61174a565b6179f2565b82614a4a61218060fd61174a565b614a6f614a6984610b83565b91610a10565b907f6cee4864d4fc096a6fd4f666503c8ee8b4da2206789899638dbd6e29ea329a95614a9a60405190565b600090a3610d3b565b61497d565b61218090614a4a614ad3614abe614adf95611dee565b6020614ac8825190565b818301019101614716565b50505050949150610a10565b614a5d565b611d3484614af160405190565b63c89cd9df60e01b81529182916004830190815260200190565b9061056e916146ea565b614b1d61850c565b61056e61056e614b2d600061240d565b618529565b61056e614b15565b929190614b4b611d0761011461174a565b614b54336106e1565b03611d235761065f93614c05565b61065f6080610c39565b906106a8906106e1565b6003614bc2606061056e94614b96614b9060008301614121565b86613bb5565b614ba4613445602083015190565b614bbb614bb2604083015190565b60028701611f05565b0151151590565b9101611e75565b9061056e91614b76565b94939160409161056e94614c0092614bf360608a019360008b0190610705565b88830360208a01526125a6565b940152565b5090917f4b7172d87913da4ec16468004dd6490dabd28e411fe887e2ed87cacafb13059c90614c3561011e610e51565b93614c4a614c42866134a4565b61011e611f05565b614c8f614c55614b62565b614c5f8682614b6c565b614c6c611f338585611de3565b614c77426040830152565b60006060820152614c8a8761011d610d3b565b614bc9565b614cb0614c9b86610b83565b94614ca560405190565b938493429285614bd3565b0390a290565b61065f9291906000614b3a565b614cd1611d0761011461174a565b614cda336106e1565b03611d235761056e614ced61010961175d565b611d5557614cfe6001610109611e75565b614d0733610a10565b7f62e78cea01bee320cd4e420270b5ea74000d11b0c9f74754ebdbfc544b05a25861318e60405190565b61056e614cc3565b614d47611d0761011461174a565b614d50336106e1565b03611d235761056e90614d636000610b83565b8114614d9a57613db8816106c77fd5382bd6594878e7a8cee5087eb23c841cc8ebe7b8753ccd2cda0fd11c85852893610111611f05565b611d34906144be60405190565b61056e90614d39565b61065f603361174a565b614dc8611d0761011461174a565b614dd1336106e1565b03611d235761056e90614de46000610b83565b8114613dbd5761056e9061011a611f05565b61056e90614dba565b614e0a61010961175d565b611d555761056e90611dd190614e1e617519565b614e3e565b90815260608101939261056e92909160409161077290611f33565b6000614e4981610b83565b82148015614f94575b614f7757614e61610106610e51565b614e6d611eda83610b83565b14614f6a577f1dc8bb69df2b8e91fbdcbfcf93d951b3f0000f085a95fe3f7946d6161439245d9060fe90810190614f216001614eb9614eae61220486610e51565b6121ed610106610e51565b9201614f14614ed3614eae614ecd84610e51565b89611ea6565b94614ef5614ee333610107610a19565b6121398a614ef083610e51565b612c66565b614f0761214a89614ef0610106610e51565b61213985614ef083610e51565b61213984614ef083610e51565b614f32816129c861218060fc61174a565b614f43826129c861218060fd61174a565b614f4b617843565b61263b614f5733610a10565b94614f6160405190565b93849384614e23565b611d3490612a1260405190565b50614f8761290333610107610a19565b90611d346121b160405190565b50614fa461290333610107610a19565b8211614e52565b61056e90614dff565b90614fc061010961175d565b611d555761056e9190611dd191614fd5617519565b90600091614fe283610b83565b81148015615366575b61524c57614fff61218061218060fc61174a565b6370a082319061500e30610a10565b602061501960405190565b80936150258660e01b90565b82528180615036866004830161070e565b03915afa918215612f32578692615345575b5061505961218061218060fd61174a565b91602061506560405190565b80946150718760e01b90565b82528180615082876004830161070e565b03915afa928315612f32578793615324575b506150ae85836150a761218060fc61174a565b33906182b7565b6150c086836150a761218060fd61174a565b6150d061218061218060fc61174a565b60206150db60405190565b80926150e78860e01b90565b825281806150f8886004830161070e565b03915afa918215612f3257869189936152f5575b5061065f61511d92611eda92611eee565b1415928315615258575b50505061524c57615139610106610e51565b615145611eda85610b83565b036151fb576151656120d36120ce61515c84617780565b6120c886617780565b925b61517081610b83565b84146151ee57906151dc7f64b83944e79c3ce8d4c297411de637c3e102d064677aac0c163976ebdcd6f50e93926151ba6151ad6101073390610a19565b6121398861213483610e51565b6151cc61214a87612134610106610e51565b60fe016121398361213483610e51565b614f4360ff6121398461213483610e51565b50611d346121b160405190565b61521e61521261520c610106610e51565b83611ea6565b6121ed8560fe01610e51565b61523561220a61522f610106610e51565b85611ea6565b8082101561524557505b92615167565b905061523f565b611d346121b160405190565b6152979293509060209161528c61527561218061218060fd61174a565b9161527f60405190565b9586948593849360e01b90565b83526004830161070e565b03915afa918215612f3257849186936152c6575b5061065f6152bc92611eda92611eee565b1415388080615127565b611eda9193506152bc926152eb61065f9260203d602011613a1357613a018183610c13565b94925092506152ab565b611eda91935061511d9261531a61065f9260203d602011613a1357613a018183610c13565b949250925061510c565b61533e91935060203d602011613a1357613a018183610c13565b9138615094565b61535f91925060203d602011613a1357613a018183610c13565b9038615048565b5061537083610b83565b8214614feb565b9061056e91614fb4565b92919061538f61010961175d565b611d555761065f93906131fc9392916153a6617519565b939293506153b7611d0760fc61174a565b6153c0826106e1565b141580615751575b6157445760006153d781610b83565b8314615737576153ea611d0760fc61174a565b6153f3836106e1565b0361571b576154048160fe01610e51565b61540e60ff610e51565b915b61542261541d600161276b565b61856f565b926154426127106121ed6120d861543c88614ef085610b83565b8a611ea6565b615490615463615452878a611ea6565b61545d610103610e51565b90611ea6565b6121ed6120d861548561547e6305f5e100946121ed86610b83565b998c611ea6565b61545d610104610e51565b9361549c61011961175d565b156157045750975b8089106156f757508088116156ea57506154bf8786866180d4565b6154c884610a10565b906154d282610a10565b6370a08231906154e130610a10565b906154eb60405190565b926154f68160e01b90565b845260208480615509866004830161070e565b0381855afa938415612f32578c8b9187966156b8575b5061559394926020949261528c928d61553e613088611d0760fc61174a565b0361566a5761557e61558b9261555e8c60fe016121398361213483610e51565b61557060ff61213985614ef083610e51565b876150a761218060fc61174a565b6129c861218060fd61174a565b60405161527f565b03915afa918215612f32578891849361563b575b5061065f6155b892611eda92611eee565b1061562e57506155e592916155d29161377561010561174a565b61213961376084610ac933610108610a19565b6155ed617843565b7ffa2dda1cc1b86e41239702756b13effbc1a092b5c57e3ad320fbe4f3b13fe2358461562161561b33610a10565b93610a10565b9361219e61144960405190565b85611d346139c560405190565b611eda9193506155b89261566061065f9260203d602011613a1357613a018183610c13565b94925092506155a7565b6156b3916156a69061568460ff6121398361213483610e51565b6156988c60fe0161213985614ef083610e51565b876150a761218060fd61174a565b6129c861218060fc61174a565b61558b565b61528c91965092602094926156dd6155939795873d8911613a1357613a018183610c13565b979250929450929461551f565b87611d34613a4f60405190565b88611d34613a7360405190565b6121ed82613a9a8561571595611ea6565b976154a4565b61572560ff610e51565b6157318260fe01610e51565b91615410565b82611d346139c560405190565b611d3490613b3d60405190565b5061575f611d0760fd61174a565b615768826106e1565b14156153c8565b61065f9291906000615381565b9392919061578b61010961175d565b611d555761056e939291906157a5611d7c8361010a6110c0565b6126ed5761056e949590611dd1949392916157be617519565b615808565b9095949261056e946157f8610772926157f16080966157ea60a088019c6000890190610705565b6020870152565b6040850152565b6001600160401b03166060830152565b91929360009161581783610b83565b84148015615e0c575b615dff5761010d93615835611f5087876110c0565b615841611eda86610b83565b14615df25761011061585f611d7c61585960fc61174a565b83610a19565b61586c61352c600161321a565b141580615dcd575b615db957615888611d7c61585960fd61174a565b61589561352c600161321a565b141580615d94575b615d80576158b161218061218060fc61174a565b906370a082316158c030610a10565b9260206158cc60405190565b80926158d88560e01b90565b825281806158e9896004830161070e565b03915afa908115612f32578891615d61575b5061590c61218061218060fd61174a565b90602061591860405190565b80936159248660e01b90565b825281806159358a6004830161070e565b03915afa918215612f32578992615d40575b5061595a86866150a761218060fc61174a565b61596c87866150a761218060fd61174a565b61597c61218061218060fc61174a565b602061598760405190565b80926159938760e01b90565b825281806159a48b6004830161070e565b03915afa918215612f325787918b93615d11575b5061065f6159c992611eda92611eee565b1415918215615c8a575b50506121a35790615a24615a60949392615a0a6159f060fc61174a565b8b615a01611d7c61206060fc61174a565b91873391618323565b89615a1b611d7c61207d60fd61174a565b91863391618323565b6020615a3761218061218061010b61174a565b615a418a8a6110c0565b908a615a4c60405190565b809881948293612d1863fdc07c7060e01b90565b03915afa938415612f32578694615c69575b50615a7f612d8989617a61565b90615a8960405190565b97615aac8960208101615aa0868a8a8a33866157c3565b9081038252038a610c13565b615ac0615ab9888d611de3565b8a8c616d7d565b5091823410615c5c578a615b0e615b0292615af1615ae561218061218061010b61174a565b9363c5803100966110c0565b604051948592602084019283612bd8565b90810382520383610c13565b615b1733610a10565b92615b218b61240d565b91803b1561055c576138088f8f938f8f968f90938b948b615b45946137fb60405190565b03925af19081615c40575b50615bd05750505050505093613879613872615ba1936138ae615b9a600080516020618fff8339815191529899615b8561332b565b61ffff8c1685820152966138608a60208a0152565b6040860152565b615baf6138ae61011c610e51565b92615bbc6138c060405190565b0390a261056e6138e26138dd61011c610e51565b9193965091945061219e9398507fab3dd6f8805da3a89e0a4c04ca885fac2d81d4cf9c996f7759480cec2ab77ff79650615c078290565b3411615c2c575b5050615c22615c1c33610a10565b966110af565b9661393d60405190565b612ecd615c399234612c66565b3880615c0e565b615c56908a3d8c1161397f576139718183610c13565b38615b50565b611d3483612ee060405190565b615c8391945060203d602011612f2b57612f1a8183610c13565b9238615a72565b615ca391925060209061361e61218061218060fd61174a565b82528180615cb4896004830161070e565b03915afa918215612f325786918993615ce2575b5061065f615cd992611eda92611eee565b141538806159d3565b611eda919350615cd992615d0761065f9260203d602011613a1357613a018183610c13565b9492509250615cc8565b611eda9193506159c992615d3661065f9260203d602011613a1357613a018183610c13565b94925092506159b8565b615d5a91925060203d602011613a1357613a018183610c13565b9038615947565b615d7a915060203d602011613a1357613a018183610c13565b386158fb565b613ad0611d7c611d349261208860fd61174a565b50615da5611d7c61585960fd61174a565b615db261352c600261321a565b141561589d565b613ad0611d7c611d349261208860fc61174a565b50615dde611d7c61585960fc61174a565b615deb61352c600261321a565b1415615874565b611d34866122de60405190565b83611d346121b160405190565b50615e1683610b83565b8114615820565b9061056e9493929161577c565b611dd190615e36617519565b615e43611d0760fc61174a565b615e4c826106e1565b141580615ef1575b6157445761010890615e6d61290382610ac93386610a19565b91615e786000610b83565b8314615ee257615e9b906129b283610ac9615e936000610b83565b933390610a19565b615ea8826129c883610a10565b7f7643db038b35f94894e86d0571d9683cab130be8788071149652ff88a0dafb1c61219e615ed861561b33610a10565b936106cb60405190565b600083611d346139c560405190565b50615eff611d0760fd61174a565b615f08826106e1565b1415615e54565b61056e90615e2a565b615f26611d0761011461174a565b615f2f336106e1565b03611d235761056e90615f45611d07600061240d565b615f4e826106e1565b14613c215780612180615f6392610114613bb5565b7f9d3e522e1e47a2f6009739342b9cc7b252a1888154e843ab55ee1c81745795ab61318e60405190565b61056e90615f18565b615fa4611d0761011461174a565b615fad336106e1565b03611d235761056e90615fc06000610b83565b8114613dbd57613db8816106c77f4671be32631b99aac8fa189c024957f38f6e98e5e28b9307934ed8a488523dc693610116611f05565b61056e90615f96565b61056e9061600c61850c565b611dd190616018617519565b616086565b926160566132e59161604861065f99979894616061966132bf60c08a019260008b019061ffff169052565b908682036040880152612abc565b956060850190610705565b60a0818403910152612abc565b61ffff909116815260408101929161056e9160200152565b61011b9061609761065f8284610d3b565b906160a182610d51565b6000906160b06149b68361276b565b146162f95760038301936160c385610e51565b6160d1611eda61065f610b90565b10156162d257818401946160e486610d51565b600186019061610360028801916160fa84611dee565b611b4784611dee565b5091823410615c5c576161879061611f61274f6138dd87610e51565b61612c4260048b01611f05565b8961613e61218061218061010b61174a565b63c58031009461619361616661615385610d51565b9461616061010d91610d51565b906110c0565b61616f30610a10565b9061617960405190565b978892602084019283612bd8565b90810382520386610c13565b61619c33610a10565b956161a68b61240d565b90833b1561055c576161db6161d0938a938a8f996161c360405190565b9b8c9a8b998a9860e01b90565b88526004880161601d565b03925af190816162b6575b5061622c575050505050616216600161620e600080516020618fff8339815191529495610d51565b940191610b83565b9261263b61622360405190565b92839283612b21565b614aa39594965061627561056e988361627b936162677f4f4b6c0817f0e0a67292b790d7acf108e8dab0b904bd991dcd7a2fe795966ca29690565b34116162a2575b5050610d51565b92610e51565b61628485610b83565b9261629a61629160405190565b9283928361606e565b0390a2610d3b565b612ecd6162af9234612c66565b388061626e565b6162cc90873d891161397f576139718183610c13565b386161e6565b611d34836162df60405190565b639511ab7760e01b81529182916004830190815260200190565b611d3482614af160405190565b61056e90616000565b61631d611d0761011461174a565b616326336106e1565b03611d235761056e9061635c565b61065f91612b4b565b3d156163575761634c3d6130b4565b903d6000602084013e565b606090565b61636b61065f8261011d610d3b565b6163748161174a565b616384613088611d07600061240d565b1461649057600381016163968161175d565b616469576163b461065f6163ac60028501610e51565b613eb961139b565b4210616442576000916163c960018493611e75565b6163ee8260016163da82850161174a565b93016163e560405190565b92839182616334565b03925af16164026163fd61633d565b911590565b61643a575061641090610b83565b7f60bc57ad9ccc47a7b523b7c981288595451ba6a606d24e6dab57baae45e3205f61318e60405190565b805190602001fd5b611d348361644f60405190565b630d18469760e21b81529182916004830190815260200190565b611d348361647660405190565b632776407360e11b81529182916004830190815260200190565b611d348261649d60405190565b63428d06a960e01b81529182916004830190815260200190565b61056e9061630f565b906164cf611d0761011461174a565b6164d8336106e1565b03611d235761056e916164eb600161321a565b60ff831614158061654a575b61653d5761263b61653382612180856144ac7f715b06b22953b3a8b60e841c991956b92745c835ac7790c2b8507d9272c3e9a296610110610a19565b92610a8060405190565b611d3482613ad460405190565b50616555600261321a565b60ff831614156164f7565b9061056e916164c0565b616572617519565b611dd161658361233f61010961175d565b611d23576101076165976129033383610a19565b906000906165a482610b83565b831461668c576165b5610106610e51565b6165c1611eda84610b83565b14612a0557906166617f56da9a5ae0bcf6e7c3fdd78a10550e7d0458de1c39bfb7f6e96a3e92dd344a689261665460fe9561664761214a8689019261663c6001616610614eae61522f88610e51565b9b01966129b261663461662e614eae6166288c610e51565b87611ea6565b9b610b83565b913390610a19565b614ef0610106610e51565b61213987614ef083610e51565b61213983614ef083610e51565b616672836129c861218060fc61174a565b616683816129c861218060fd61174a565b61298b33610a10565b5090611d346139c560405190565b61056e61656a565b9061056e92916166b061850c565b90611dd192916166be617519565b9161010d916166d0611f5085856110c0565b926000936166e0611eda86610b83565b14612f37579061672d929160206166fe61218061218061010b61174a565b61670888846110c0565b9061671260405190565b96879283918291630fdc07c760e41b83528c60048401612b21565b03915afa938415612f3257859461688f575b5061678a8661674d30610a10565b9261678561675c610100610e51565b97616768610101610e51565b612d7161677460405190565b9a8b93602085019342928b866157c3565b6110c0565b906167a861679760405190565b8093615b0284602084019283612bd8565b6167bc6167b58585611de3565b8689616d7d565b50908181311061686c57506167d861218061218061010b61174a565b9063c5803100916167e833610a10565b916167f28961240d565b90823b1561055c5789946168118989613808958f988e6137fb60405190565b03925af19081616850575b5061684957613879613872600080516020618fff833981519152956138ae615b9a615ba196615b8561332b565b5050505050565b61686690863d881161397f576139718183610c13565b3861681c565b31611d3461687960405190565b63a458261b60e01b815292839260048401611411565b6168a991945060203d602011612f2b57612f1a8183610c13565b923861673f565b9061056e92916166a2565b94939291906168ce611d0761010b61174a565b6168d7336106e1565b03611d235761056e9594939291906168f061010961175d565b611d555761056e949392919061690b611d7c8861010a6110c0565b611d8f5761056e959690611dd19594939291616925617519565b616989565b60e08183031261055c5761693e82826109ba565b9261694c83602084016109ba565b9261695a8160408501610813565b926169688260608301610813565b9261065f6169798460808501610813565b9360c06108658260a087016105ae565b93919594929561010d916169a0611f5087856110c0565b6169ad611eda6000610b83565b14615df257611f9f611f9a87611f816169c995611eda95611de3565b036122b65761010e916169e3611d7c876119e287876110c0565b61229257916169fd82616a0d94616a13979894019061692a565b929694959a91939a989098610a10565b94610a10565b966001600160401b0387166001600160401b03821603616c58575080421061224a5750616a43611d0760fc61174a565b616a4c876106e1565b141580616c3a575b616c2d57808410616c20575061011090616a71611d7c8784610a19565b616a7e61352c600161321a565b141580616bfe575b616bee5790616aa16001612036876119e28b616ad4976110c0565b616aae611d0760fc61174a565b616ab7876106e1565b03616bdd5783612066611d7c616acd60fd61174a565b8094610a19565b616ae1611d0760fc61174a565b616aea856106e1565b03616b7f57600360fe616b066101006121398a61213483610e51565b01616b1361065f82610e51565b8311616b6857616b4e615c1c616b48859461217885612139600080516020618fdf8339815191529a99614ef0616b6399610e51565b96610a10565b96616b5860405190565b9384934292856132fc565b0390a4565b616b729150610e51565b90611d34613a4f60405190565b600260fe616b966101016121398a61213483610e51565b01616ba361065f82610e51565b8311616b6857616b4e615c1c616b488594616bd885612139600080516020618fdf8339815191529a99614ef0616b6399610e51565b612178565b83612066611d7c616acd60fc61174a565b611d34613ad0611d7c8885610a19565b50616c0c611d7c8784610a19565b616c1961352c600261321a565b1415616a86565b83611d34613a7360405190565b611d3486613b3d60405190565b50616c48611d0760fd61174a565b616c51876106e1565b1415616a54565b8690611d3461227c60405190565b9061056e95949392916168bb565b61056e90616c8061850c565b616ce0565b15616c8c57565b60405162461bcd60e51b815260206004820152602660248201527f4f776e61626c653a206e6577206f776e657220697320746865207a65726f206160448201526564647265737360d01b6064820152608490fd5b61056e90614b2d616cf4611d07600061240d565b616cfd836106e1565b1415616c85565b61056e90616c74565b919060408382031261055c5761065f9060206147758286613227565b91616d709161065f9694616d59616d6693616d4f60a0880194600089019061ffff169052565b6020870190610705565b8482036040860152610ec6565b9315156060830152565b6080818403910152610ec6565b9060409160009493616d8d600090565b50616d9781617a3a565b616da861218061218061010b61174a565b91616dd9616db530610a10565b92616dbf60405190565b9889968795869563040a7bb160e41b875260048701616d29565b03915afa918215612f3257600090600093616df357509190565b905061061f91925060403d604011616e18575b616e108183610c13565b810190616d0d565b503d616e06565b90616e2e611d0761011461174a565b616e37336106e1565b03611d235761056e91616eb6565b90610c6981602093610705565b90616e72616e6b616e61845190565b8084529260200190565b9260200190565b9060005b818110616e835750505090565b909192616e9d616e966001928651616e45565b9460200190565b929101616e76565b602080825261065f92910190616e52565b9190616ec2600061240d565b91616ecc836106e1565b616ed5856106e1565b14616f1c57616ee46000610b83565b616eef61065f845190565b811015616f2957616f036143088285614107565b616f0f613088866106e1565b14616f1c57600101616ee4565b611d348461265160405190565b50927fd7fca014dd163c94969dc6642aabbf5fd072ccb3abadc03db45fa1c261306642919250616f6e61263b91616f6281610112613bb5565b61218085610113614229565b92616f7860405190565b91829182616ea5565b9061056e91616e1f565b9061056e9291616f9961850c565b9190616fa661010961175d565b611d555761056e9190616fbe611d7c8561010a6110c0565b6131d85761056e929390611dd19291616fd5617519565b61010d9392616fe7611f5083876110c0565b90600091616ff7611eda84610b83565b14613b145760fe8281019661701a61700e89610e51565b613eb960028501610e51565b916001810161703761702b82610e51565b613eb960038501610e51565b61704087610b83565b851480156174a7575b61749a57670de0b6b3a76400009161706c82617067614ecd86610b83565b611ed4565b61707a61065f610111610e51565b811461748b578c929190617095611eda61065f610111610e51565b111561744c57509461545d6170da6121ed9361545d6170d46170e098999a6170ce6170c2614ecd8b610b83565b9161545d610111610e51565b90612c66565b91610e51565b93610b83565b916170ea85610b83565b915b6170f586610b83565b841115617372575061011098617117611d7c61711160fc61174a565b8c610a19565b61712461352c600161321a565b14158061734d575b6173395761718790614f076171c998999a9b61715a8761714f61218060fc61174a565b61377561010c61174a565b8a61716560fc61174a565b9188617181611d7c61717630610a10565b9361208860fc61174a565b93618323565b602061719a61218061218061010b61174a565b6171a489846110c0565b906171ae60405190565b98899283918291630fdc07c760e41b83528d60048401612b21565b03915afa8015612f325787615aa0978792617316575b5061721891926167856171f4612d8984617a61565b6171fd30610a10565b9561720760405190565b9b8c9260208401928a8c8b866157c3565b9061722561679760405190565b617239617232868b611de3565b888a616d7d565b50908181311061686c575061725561218061218061010b61174a565b9063c58031009161726533610a10565b61726e8961240d565b92823b1561055c57899461728e8a8f8f978f96613808976137fb60405190565b03925af190816172fa575b506172ca57505093613879613872615ba1936138ae615b9a600080516020618fff8339815191529899615b8561332b565b93509450505061298b7fdc4532e76aff42eab2b4691d7c34a5baca6deaf244fad3b12bbbea9f8edea916926110af565b61731090863d881161397f576139718183610c13565b38617299565b61721892506173339060203d602011612f2b57612f1a8183610c13565b916171df565b611d34613ad0611d7c8c61208860fc61174a565b5061735e611d7c61711160fc61174a565b61736b61352c600261321a565b141561712c565b985061737d85610b83565b8211617391575b6171c99596979850617187565b610110986173a5611d7c61711160fd61174a565b6173b261352c600161321a565b141580617427575b617413576001617409916173fb6171c9999a9b9c6173df8761714f61218060fd61174a565b8b6173ea60fd61174a565b9188617181611d7c61207d30610a10565b0161213984614ef083610e51565b8897969550617384565b611d34613ad0611d7c8c61208860fd61174a565b50617438611d7c61711160fd61174a565b61744561352c600261321a565b14156173ba565b6121ed925061545d6170d46170c293956170ce61747b989a61545d6170da617475610111610e51565b8b611ea6565b9061748585610b83565b926170ec565b50505050505050505050509050565b5050505050505050509050565b506174b187610b83565b8114617049565b9061056e9291616f8b565b61065f6002610b83565b156174d457565b60405162461bcd60e51b815260206004820152601f60248201527f5265656e7472616e637947756172643a207265656e7472616e742063616c6c006044820152606490fd5b61056e61752660c9610e51565b61753a6175316174c3565b918214156174cd565b60c9611f05565b61065f6001610b83565b61056e61753a617541565b60409061757661056e9496959396611f3360608401986000850190610705565b0190610705565b91909161758c61218082610a10565b906370a082319161759c30610a10565b906175a660405190565b946175b18560e01b90565b8652602086806175c4866004830161070e565b0381855afa958615612f325760009661775f575b506175e3600161321a565b60ff8216036176c957506175fe61218061218061010c61174a565b803b1561055c578260009188836176339761761860405190565b98899586948593630d4d151360e01b5b855260048501617556565b03925af18015612f32576176569460209461528c926176b3575b5060405161527f565b03915afa918215612f32578391600093617684575b5061065f61767c92611eda92611eee565b10613dbd5750565b611eda91935061767c926176a961065f9260203d602011613a1357613a018183610c13565b949250925061766b565b6176c39060006139718183610c13565b3861764d565b6176d3600261321a565b60ff82160361775257506176ee61218061218061010c61174a565b803b1561055c5782600091888361771c9761770860405190565b988995869485936315f4150160e01b617628565b03925af18015612f32576176569460209461528c9261773c575b5061558b565b61774c9060006139718183610c13565b38617736565b611d3490613ad460405190565b61777991965060203d602011613a1357613a018183610c13565b94386175d8565b61065f9060005b5061783a565b61065f916177a96177a36120d393617787600090565b9161783a565b9061864d565b61065f600019610b83565b61065f670de0b6b3a7640000610b83565b60208101929161056e91906128bb565b6177e48161783a565b6177ec6177af565b9161780261065f6177fb6177ba565b8095611ed4565b8211617817575061065f916120d3910261872e565b611d349061782460405190565b63edc236ad60e01b8152918291600483016177cb565b61065f90610b83565b60fe61786661785461700e83610e51565b91613eb96003613ed160018401610e51565b6178706000610b83565b82146179ad5761789361056e92617067670de0b6b3a76400009361545d85610b83565b9061789f610118610e51565b6178ac611eda6000610b83565b036178bb575b50610118611f05565b61795761795f916178d061065f610118610e51565b84111561798d576121ed6120d861790b6179006178f76178f1610118610e51565b89612c66565b61545d86610b83565b6121ed610118610e51565b613eb961794c61794261793b671bc16d674ec800006170676120d8617931610116610e51565b613eb96001610b83565b9384611ea6565b92614ef087610b83565b61545d610115610e51565b610115611f05565b61798761796d610115610e51565b61797e611eda61065f610117610e51565b10610119611e75565b386178b2565b6121ed6120d861790b6179006179a888614ef0610118610e51565b6178f7565b5050565b6179ca6179c461065f9263ffffffff1690565b60e01b90565b6001600160e01b03191690565b91602061056e92949361077260408201966000830190610705565b617a35600492617a2661056e95617a0c63a9059cbb6179b1565b92617a1660405190565b96879460208601908152016179d7565b60208201810382520383610c13565b618a24565b51617a48611eda6002610b83565b10617a4f57565b60405163cef80ea360e01b8152600490fd5b612903617a7991617a70600090565b5061010f6110c0565b80617a846000610b83565b8114617ae257617a95610115610e51565b617aa6611eda61065f610117610e51565b11617aaf575090565b9050617abe613eee6002610b83565b90617ac7611510565b91821015617ad3575090565b61065f915061545d6002610b83565b6040516381872b2960e01b815280611d346000600483016177cb565b936132ef936132da91617b396132e59461065f9c9a969b999b617b2c60c08b019260008c019061ffff169052565b89820360208b0152610ec6565b9187830360408901526125a6565b9397909498919550959195600014617c985790617b7691617b6a86860186611e21565b94929591969093610a10565b926001600160401b038d166001600160401b03821603617c8a5750617b9f61065f612d89611bdc565b8410617c7d57617bb661218061218061010b61174a565b9063c580310091617bc633610a10565b91617bd1600061240d565b90823b1561055c576000948f8f908f918f958f98617c0e94617c0398617bf660405190565b9d8e9c8d9b8c9a60e01b90565b8a5260048a01617afe565b03925af19081617c67575b50617c2c575050505061056e9550618a9f565b61219e9498507fab3dd6f8805da3a89e0a4c04ca885fac2d81d4cf9c996f7759480cec2ab77ff79750615c1c91939650615c22929550610a10565b617c779060006139718183610c13565b38617c19565b611d34846144e560405190565b8c90611d3461227c60405190565b617cbd617cc3617cad87879b959b018761692a565b959098949f939692979150610a10565b9d610a10565b956001600160401b0388166001600160401b03821603617db25750617cec61065f612d89611bdc565b8310617da557617d0361218061218061010b61174a565b9063c580310091617d1333610a10565b91617d1e600061240d565b90823b1561055c578f948f8f968f918f9795617c039660009a617d4495617bf660405190565b03925af19081617d8f575b50617d6357505050505061056e9550618a9f565b9297509397509350600080516020618fdf833981519152945061393361392d613927616b63949a610a10565b617d9f9060006139718183610c13565b38617d4f565b611d34836144e560405190565b8790611d3461227c60405190565b15617dc757565b60405162461bcd60e51b815260206004820152601d60248201527f416464726573733a20696e73756666696369656e742062616c616e63650000006044820152606490fd5b15617e1357565b60405162461bcd60e51b815260206004820152603a60248201527f416464726573733a20756e61626c6520746f2073656e642076616c75652c207260448201527f6563697069656e74206d617920686176652072657665727465640000000000006064820152608490fd5b600061056e92617e9f8293612180617e9530610a10565b8490311015617dc0565b90617ea960405190565b90818003925af1617eb861633d565b50617e0c565b61065f6000617ece61065f613d1b565b0161174a565b5061056e61850c565b61056e90617ed4565b61065f7f4910fdfa16fed3260ed0e7147f7cc6da11a60208b5b9406d12a635614ffd9143610b83565b15617f1657565b60405162461bcd60e51b815260206004820152602960248201527f45524331393637557067726164653a20756e737570706f727465642070726f786044820152681a58589b195555525160ba1b6064820152608490fd5b9190617f856000617f7f61065f617ee6565b0161175d565b15617f9557505061056e90618b9b565b617fa161218084610a10565b926020617fad60405190565b6352d1902d60e01b815294859060049082905afa6000948161804b575b5061802b5760405162461bcd60e51b815260206004820152602e60248201527f45524331393637557067726164653a206e657720696d706c656d656e7461746960448201526d6f6e206973206e6f74205555505360901b6064820152608490fd5b61804661056e94618040611eda61065f613d1b565b14617f0f565b618afd565b61806591955060203d602011613a1357613a018183610c13565b9338617fca565b906180769061856f565b9161065f6180936127106121ed6120d861662888614ef085610b83565b936121ed6120d86154856180aa6154528589611ea6565b936180bd6305f5e100956121ed87610b83565b97611ea6565b60ff16604d8111611eb957600a0a90565b916180e86180e361011261174a565b618c4f565b9290806000916180fa611eda84610b83565b13156181df575b90618133618113618170959493610b83565b956121ed61812d670de0b6b3a76400009861545d8a610b83565b916180c3565b95618144613088611d0760fc61174a565b141590506181c9579061706761815d9261545d86610b83565b915b6121ed6120d86121db61011a610e51565b61817d61065f8285611eee565b82119081156181b2575b50618190575050565b611d3461819c60405190565b63af608abb60e01b815292839260048401611411565b6181c1915061065f9084612c66565b811038618187565b6170676181d99261545d86610b83565b9161815f565b9492909195936181ee83610b83565b955b610113916181ff61065f845490565b88101561827f5750506180e3611a898761821893611a48565b909586618227611eda86610b83565b1361823557600101956181f0565b509293949590915b61824681610b83565b87131561825857909192939495618101565b611d348761826560405190565b639db55b2760e01b81529182916004830190815260200190565b94959650969192905061823d565b60409061077261056e94969593966182ad60608401986000850190610705565b6020830190610705565b90617a3590617a2661056e956004956182d36323b872dd6179b1565b936182dd60405190565b978895602087019081520161828d565b61831961056e9461830f606094989795610764608086019a6000870190610705565b6040830190610705565b019061ffff169052565b929361832f600161321a565b60ff82160361839f575061834a61218061218061010c61174a565b90813b1561055c576000809461837d61836260405190565b978896879586946369f6a59360e11b5b8652600486016182ed565b03925af18015612f325761838f575b50565b61056e9060006139718183610c13565b6183a9600261321a565b60ff82160361775257506183c461218061218061010c61174a565b90813b1561055c576000809461837d6183dc60405190565b9788968795869463e73e606960e01b618372565b3b6183fe611eda6000610b83565b1190565b1561840957565b60405162461bcd60e51b815260206004820152602b60248201527f496e697469616c697a61626c653a20636f6e7472616374206973206e6f74206960448201526a6e697469616c697a696e6760a81b6064820152608490fd5b61847461846f6000613f39565b618402565b61056e61056e618d94565b61056e618462565b61056e61846f6000613f39565b61056e618487565b6184a961846f6000613f39565b61056e61056e618da9565b61056e61849c565b156184c357565b60405162461bcd60e51b815280611d34600482016020808252818101527f4f776e61626c653a2063616c6c6572206973206e6f7420746865206f776e6572604082015260600190565b61056e618517614db0565b618523613088336106e1565b146184bc565b618544614a69618539603361174a565b612180846033613bb5565b907f8be0079c531659141344cd1fd0a4f28419497f9722a3daafe3b4186f6b6457e061239260405190565b61857f613e1c61010292836110c0565b90618588825190565b618595611eda6000610b83565b14618637575b506185a7610115610e51565b6185b8611eda61065f610117610e51565b106186335780613eb96185df60006185d4602061065f96015190565b9301926170ce845190565b916121ed6120d86185f1610115610e51565b92670de0b6b3a764000093618608611eda86610b83565b11156186255761861f61861a85610b83565b915190565b95611ea6565b61861f61861a610115610e51565b5190565b61864791506001613e1c91614233565b3861859b565b6000906000198382099280820293848082109103039161866b6177ba565b93848410156186d95750670de0b6b3a76400009190099161868c6000610b83565b82146186cd57506204000082840304929091119003600160ee1b02177faccb18165bd6fe31ae1cf318dc5b51eee0e1ba569b88cd74c1773b91fac106690290565b91505061065f91611ed4565b50611d346186e660405190565b635173648d60e01b815292839260048401611411565b61065f90618710611eda61065f9460ff1690565b901c90565b61065f90618729611eda61065f9460ff1690565b901b90565b906187396000610b83565b8214618955576188486188288061882d808261881e818061883e83828d610c69618837600161880e6188088561876e84610b83565b908161877d600160801b610b83565b89101561892a575b50618793600160401b610b83565b811015618908575b6187a9640100000000610b83565b8110156188e6575b6187bd62010000610b83565b8110156188c4575b6187d0610100610b83565b8110156188a2575b6187e26010610b83565b81101561887a575b6187f7611eda6004610b83565b1015618862575b610c698188611ed4565b9161321a565b9e8f9c8d809b81998280966186fc565b610c69818a611ed4565b6186fc565b610c698187611ed4565b8092611ed4565b610c69818d611ed4565b618853818094611ed4565b9081111561885e5750565b9150565b6188759061886f8561321a565b90618715565b6187fe565b61889161889c9161888b600461321a565b906186fc565b9161886f600261321a565b906187ea565b6188b36188be9161888b600861321a565b9161886f600461321a565b906187d8565b6188d56188e09161888b601061321a565b9161886f600861321a565b906187c5565b6188f76189029161888b602061321a565b9161886f601061321a565b906187b1565b6189196189249161888b604061321a565b9161886f602061321a565b9061879b565b91505061894e61894361893d608061321a565b896186fc565b9161886f604061321a565b9038618785565b905061065f6000610b83565b61896b60206130b4565b7f5361666545524332303a206c6f772d6c6576656c2063616c6c206661696c6564602082015290565b61065f618961565b801515610555565b9050519061056e8261899c565b9060208282031261055c5761065f916189a4565b156189cc57565b60405162461bcd60e51b815260206004820152602a60248201527f5361666545524332303a204552433230206f7065726174696f6e20646964206e6044820152691bdd081cdd58d8d9595960b21b6064820152608490fd5b61056e91618a34618a4392610a10565b90618a3d618994565b91618db1565b8051618a52611eda6000610b83565b14908115618a61575b506189c5565b618a7b91506020618a70825190565b8183010191016189b1565b38618a5b565b61ffff91909116815260406020820181905261065f939101916125a6565b909193600080516020618fff8339815191529361386561076b618ad993618ac461332b565b61ffff87168152936138606157ea8b8a611de3565b615bbc618aea6138ae61011c610e51565b94618af460405190565b93849384618a81565b91618b0783618dc6565b8151618b16611eda6000610b83565b11908115618b31575b50618b28575050565b61838c91618e48565b905038618b1f565b15618b4057565b60405162461bcd60e51b815260206004820152602d60248201527f455243313936373a206e657720696d706c656d656e746174696f6e206973206e60448201526c1bdd08184818dbdb9d1c9858dd609a1b6064820152608490fd5b61056e90618bb0618bab826183f0565b618b39565b6000618bbd61065f613d1b565b01613bb5565b69ffffffffffffffffffff8116610555565b9050519061056e82618bc3565b919060a08382031261055c57618bf88184618bd5565b92618c068260208301613227565b9261065f618c178460408501613227565b936080618c278260608701613227565b9401618bd5565b9050519061056e8261187f565b9060208282031261055c5761065f91618c2e565b612180618c6491618c5e600090565b50610a10565b90618c6e60405190565b633fabe5a360e21b815260a081600481865afa9060009160009181618d46575b50618ca6576040515b630ae360c360e11b8152600490fd5b618cb06000610b83565b821315618d3957618cd1611eda61065f618ccb610e10610b83565b42612c66565b10618d3157916020618ce260405190565b63313ce56760e01b815291829060049082905afa908115612f3257600091618d08575090565b61065f915060203d602011618d2a575b618d228183610c13565b810190618c3b565b503d618d18565b604051618c97565b611d348261826560405190565b909250618d6b915060a03d60a011618d76575b618d638183610c13565b810190618be2565b509250929092618c8e565b503d618d59565b618d8a61846f6000613f39565b61056e8033618529565b61056e618d7d565b611dd161846f6000613f39565b61056e618d9c565b61065f9291618dc06000610b83565b91618eb5565b618dd39061218081618b9b565b7fbc7cd75a20ee27fd9adebab32041f755214dbc6bffa90cc0225b39da2e5c2d3b61318e60405190565b618e0760276130b4565b7f416464726573733a206c6f772d6c6576656c2064656c65676174652063616c6c6020820152660819985a5b195960ca1b604082015290565b61065f618dfd565b61065f91618e54618e40565b91618ef6565b15618e6157565b60405162461bcd60e51b815260206004820152602660248201527f416464726573733a20696e73756666696369656e742062616c616e636520666f6044820152651c8818d85b1b60d21b6064820152608490fd5b906000809161065f9594618ec7606090565b50618ede618ed430610a10565b8290311015618e5a565b60208251920190855af1618ef061633d565b91618f64565b60008061065f9493618f06606090565b50602081519101845af4618ef061633d565b15618f1f57565b60405162461bcd60e51b815260206004820152601d60248201527f416464726573733a2063616c6c20746f206e6f6e2d636f6e74726163740000006044820152606490fd5b91929015618f9657508151618f7c611eda6000610b83565b14618f85575090565b618f9161065f916183f0565b618f18565b8290618fa0825190565b618fad611eda6000610b83565b1115618fbc5750805190602001fd5b611d3490618fc960405190565b62461bcd60e51b81529182916004830161110c56fe32a8653225596c34a0a926a8a7938a4bdecb2d1dec0106aa2d0e932fb8271a3216da215dcc6c8463004c9668563aec97f0c7d9f75d03e03ee647d599f74fea1ba2646970667358221220930a5464086bcbc3659519fe4e6f9d9582d486ad5cf6a4bd54e7455bab4f962c64736f6c63430008180033",
  "immutableReferences": {
    "1339": [
      {
        "length": 32,
        "start": 12380
      },
      {
        "length": 32,
        "start": 15596
      }
    ]
  },
  "source": "// SPDX-License-Identifier: MIT\r\npragma solidity ^0.8.24;\r\n\r\n// PRBMath for precise square root calculations\r\nimport \"@openzeppelin/contracts-upgradeable/token/ERC20/IERC20Upgradeable.sol\";\r\nimport \"@openzeppelin/contracts-upgradeable/token/ERC20/utils/SafeERC20Upgradeable.sol\";\r\nimport \"@openzeppelin/contracts-upgradeable/access/OwnableUpgradeable.sol\";\r\nimport \"@openzeppelin/contracts-upgradeable/proxy/utils/Initializable.sol\";\r\nimport \"@openzeppelin/contracts-upgradeable/proxy/utils/UUPSUpgradeable.sol\";\r\nimport \"@openzeppelin/contracts-upgradeable/security/ReentrancyGuardUpgradeable.sol\";\r\nimport \"@chainlink/contracts/src/v0.8/shared/interfaces/AggregatorV3Interface.sol\";\r\nimport {UD60x18, ud} from \"@prb/math/src/UD60x18.sol\";\r\nimport {Address} from \"@openzeppelin/contracts/utils/Address.sol\";\r\n\r\n// LayerZero interface for cross-chain communication\r\ninterface ILayerZeroEndpoint {\r\n    function send(\r\n        uint16 dstChainId,\r\n        bytes calldata remoteAndLocalAddresses,\r\n        bytes calldata payload,\r\n        address payable refundAddress,\r\n        address zroPaymentAddress,\r\n        bytes calldata adapterParams\r\n    ) external payable;\r\n\r\n    function lzReceive(\r\n        uint16 srcChainId,\r\n        bytes calldata srcAddress,\r\n        uint64 nonce,\r\n        bytes calldata payload\r\n    ) external;\r\n\r\n    function estimateFees(\r\n        uint16 dstChainId,\r\n        address userApplication,\r\n        bytes calldata payload,\r\n        bool payInZRO,\r\n        bytes calldata adapterParams\r\n    ) external view returns (uint256 nativeFee, uint256 zroFee);\r\n\r\n    function getInboundNonce(uint16 srcChainId, bytes calldata srcAddress) external view returns (uint64);\r\n}\r\n\r\n// Token bridge interface for cross-chain token transfers\r\ninterface ITokenBridge {\r\n    function burn(address token, uint256 amount, address recipient, uint16 dstChainId) external;\r\n    function mint(address token, uint256 amount, address recipient) external;\r\n    function lock(address token, uint256 amount, address recipient, uint16 dstChainId) external;\r\n    function release(address token, uint256 amount, address recipient) external;\r\n}\r\n\r\n// Governance interface for decentralized control\r\ninterface IGovernance {\r\n    function isProposalPassed(uint256 proposalId) external view returns (bool);\r\n    function propose(address target, bytes calldata data) external returns (uint256);\r\n}\r\n\r\n/// @title AMMPool - An upgradeable AMM pool with cross-chain capabilities\r\n/// @notice Implements a Uniswap-style AMM with LayerZero cross-chain support, dynamic fees, and volatility-based curve switching\r\n/// @dev Uses OpenZeppelin upgradeable contracts for security and flexibility\r\ncontract AMMPool is Initializable, OwnableUpgradeable, UUPSUpgradeable, ReentrancyGuardUpgradeable {\r\n    using SafeERC20Upgradeable for IERC20Upgradeable;\r\n\r\n    // Constants\r\n    string public VERSION;\r\n    uint256 public constant MIN_TIMELOCK = 1 days;\r\n    uint256 public constant MAX_TIMELOCK = 7 days;\r\n    uint256 public constant MAX_BATCH_SIZE = 100;\r\n    uint256 public constant MAX_GAS_LIMIT = 1_000_000;\r\n    uint256 public constant GOVERNANCE_TIMELOCK = 2 days;\r\n    uint256 public constant MAX_RETRIES = 3;\r\n\r\n    /// @notice Token A address (must be less than tokenB for pair ordering)\r\n    address public tokenA;\r\n    /// @notice Token B address\r\n    address public tokenB;\r\n\r\n    /// @notice Structure to track local and cross-chain reserves\r\n    struct Reserves {\r\n        uint256 reserveA; // Local reserve of tokenA\r\n        uint256 reserveB; // Local reserve of tokenB\r\n        uint256 crossChainReserveA; // Cross-chain reserve of tokenA\r\n        uint256 crossChainReserveB; // Cross-chain reserve of tokenB\r\n    }\r\n    Reserves public reserves;\r\n\r\n    /// @notice Chain-specific fee configurations\r\n    struct FeeConfig {\r\n        uint256 baseFee; // Base fee in basis points (e.g., 20 = 0.02%)\r\n        uint256 maxFee; // Maximum fee in basis points (e.g., 100 = 1%)\r\n    }\r\n    mapping(uint16 => FeeConfig) public chainFees;\r\n\r\n    /// @notice Default LP fee share (in basis points, e.g., 8333 = 83.33%)\r\n    uint256 public lpFeeShare;\r\n    /// @notice Default treasury fee share (in basis points, e.g., 1667 = 16.67%)\r\n    uint256 public treasuryFeeShare;\r\n    /// @notice Treasury address for fee collection\r\n    address public treasury;\r\n    /// @notice Total liquidity in the pool\r\n    uint256 public totalLiquidity;\r\n    /// @notice Liquidity balance per provider\r\n    mapping(address => uint256) public liquidityBalance;\r\n    /// @notice Accumulated LP fees per provider per token\r\n    mapping(address => mapping(address => uint256)) public lpFees;\r\n    /// @notice Global pause status\r\n    bool public paused;\r\n    /// @notice Chain-specific pause status\r\n    mapping(uint16 => bool) public chainPaused;\r\n    /// @notice LayerZero endpoint address\r\n    address public layerZeroEndpoint;\r\n    /// @notice Token bridge address\r\n    address public tokenBridge;\r\n    /// @notice Trusted remote pool addresses by chain ID\r\n    mapping(uint16 => bytes) public trustedRemotePools;\r\n    /// @notice Used nonces to prevent replay attacks\r\n    mapping(uint16 => mapping(uint64 => bool)) public usedNonces;\r\n    /// @notice Timelock duration per chain (in seconds)\r\n    mapping(uint16 => uint256) public chainTimelocks;\r\n    /// @notice Token bridge type (1 = burn/mint, 2 = lock/release)\r\n    mapping(address => uint8) public tokenBridgeType;\r\n    /// @notice Desired reserveA/reserveB ratio (in 1e18 precision)\r\n    uint256 public targetReserveRatio;\r\n    /// @notice Primary Chainlink oracle for tokenA/tokenB price\r\n    address public primaryPriceOracle;\r\n    /// @notice Array of fallback Chainlink oracles for redundancy\r\n    address[] public fallbackPriceOracles;\r\n    /// @notice Governance contract address\r\n    address public governance;\r\n    /// @notice EMA volatility for dynamic fee and curve switching\r\n    uint256 public emaVolatility;\r\n    /// @notice EMA period (default 100 blocks)\r\n    uint256 public emaPeriod;\r\n    /// @notice Volatility threshold for curve switching (in 1e18 precision)\r\n    uint256 public volatilityThreshold;\r\n    /// @notice Last recorded price (in 1e18 precision)\r\n    uint256 public lastPrice;\r\n    /// @notice Whether to use constant sum curve (true) or constant product (false)\r\n    bool public useConstantSum;\r\n    /// @notice Price deviation threshold (in 1e18 precision)\r\n    uint256 public priceDeviationThreshold;\r\n\r\n    /// @notice Structure to track failed cross-chain messages\r\n    struct FailedMessage {\r\n        uint16 dstChainId;\r\n        bytes payload;\r\n        bytes adapterParams;\r\n        uint256 retries;\r\n        uint256 timestamp;\r\n    }\r\n    mapping(uint256 => FailedMessage) public failedMessages;\r\n    uint256 public failedMessageCount;\r\n\r\n    /// @notice Structure to track governance proposals\r\n    struct AMMGovernanceProposal {\r\n        address target; // Target contract address\r\n        bytes data; // Call data\r\n        uint256 proposedAt; // Proposal timestamp\r\n        bool executed; // Execution status\r\n    }\r\n    mapping(uint256 => AMMGovernanceProposal) public governanceProposals;\r\n    uint256 public proposalCount;\r\n\r\n    // Custom errors\r\n    error InvalidAmount(uint256 amountA, uint256 amountB);\r\n    error InvalidToken(address token);\r\n    error InsufficientOutputAmount(uint256 amountOut, uint256 minAmountOut);\r\n    error InsufficientReserve(uint256 amountOut, uint256 reserve);\r\n    error InvalidChainId(uint16 chainId);\r\n    error InvalidNonce(uint64 receivedNonce, uint64 expectedNonce);\r\n    error TimelockNotExpired(uint256 currentTime, uint256 timelock);\r\n    error InsufficientFee(uint256 provided, uint256 required);\r\n    error InvalidFeeRange(uint256 baseFee, uint256 maxFee);\r\n    error InvalidFeeShare(uint256 lpFeeShare, uint256 treasuryFeeShare);\r\n    error InvalidAddress(address addr);\r\n    error ContractPaused();\r\n    error ChainPaused(uint16 chainId);\r\n    error InvalidTimelock(uint256 timelock);\r\n    error InvalidBridgeType(uint8 bridgeType);\r\n    error InvalidReserveRatio(uint256 ratio);\r\n    error BatchSizeExceeded(uint256 size);\r\n    error GasLimitExceeded(uint256 gasUsed);\r\n    error InvalidPrice(uint256 expected, uint256 actual);\r\n    error Unauthorized();\r\n    error InvalidAdapterParams();\r\n    error ProposalNotFound(uint256 proposalId);\r\n    error ProposalNotReady(uint256 proposalId);\r\n    error ProposalAlreadyExecuted(uint256 proposalId);\r\n    error NegativeOraclePrice(int256 price);\r\n    error OracleFailure();\r\n    error MaxRetriesExceeded(uint256 messageId);\r\n    error MessageNotFailed(uint256 messageId);\r\n    error ProposalExecutionFailed();\r\n    error InvalidOracleArray();\r\n\r\n    // Events\r\n    event LiquidityAdded(address indexed provider, uint256 amountA, uint256 amountB, uint256 liquidity);\r\n    event LiquidityRemoved(address indexed provider, uint256 amountA, uint256 amountB, uint256 liquidity);\r\n    event Swap(address indexed user, address indexed inputToken, uint256 amountIn, uint256 amountOut);\r\n    event FeesUpdated(uint16 indexed chainId, uint256 baseFee, uint256 maxFee, uint256 lpFeeShare, uint256 treasuryFeeShare);\r\n    event Paused(address indexed caller);\r\n    event Unpaused(address indexed caller);\r\n    event AMMPoolChainPaused(uint16 indexed chainId, address indexed caller);\r\n    event ChainUnpaused(uint16 indexed chainId, address indexed caller);\r\n    event CrossChainLiquiditySent(address indexed provider, uint256 amountA, uint256 amountB, uint16 indexed chainId, uint64 nonce, uint256 estimatedConfirmationTime);\r\n    event CrossChainLiquidityReceived(address indexed provider, uint256 amountA, uint256 amountB, uint16 indexed chainId, uint64 nonce);\r\n    event CrossChainSwap(address indexed user, address indexed inputToken, uint256 amountIn, uint256 amountOut, uint16 indexed chainId, uint64 nonce, uint256 estimatedConfirmationTime);\r\n    event ChainTimelockUpdated(uint16 indexed chainId, uint256 newTimelock);\r\n    event TrustedRemotePoolAdded(uint16 indexed chainId, bytes poolAddress);\r\n    event TokenBridgeUpdated(address indexed newTokenBridge);\r\n    event TokenBridgeTypeUpdated(address indexed token, uint8 bridgeType);\r\n    event ReservesRebalanced(uint16 indexed chainId, uint256 amountA, uint256 amountB);\r\n    event TargetReserveRatioUpdated(uint256 newRatio);\r\n    event LPFeeClaimed(address indexed provider, address indexed token, uint256 amount);\r\n    event EmergencyWithdrawal(address indexed user, uint256 amountA, uint256 amountB);\r\n    event GovernanceUpdated(address indexed newGovernance);\r\n    event PriceOracleUpdated(address indexed primaryOracle, address[] fallbackOracles);\r\n    event EmaPeriodUpdated(uint256 newPeriod);\r\n    event VolatilityThresholdUpdated(uint256 newThreshold);\r\n    event LayerZeroEndpointUpdated(address indexed newEndpoint);\r\n    event GovernanceProposalCreated(uint256 indexed proposalId, address target, bytes data, uint256 proposedAt);\r\n    event GovernanceProposalExecuted(uint256 indexed proposalId);\r\n    event FailedMessageStored(uint256 indexed messageId, uint16 dstChainId, bytes payload);\r\n    event FailedMessageRetried(uint256 indexed messageId, uint16 dstChainId, uint256 retries);\r\n    event FailedMessageRecovered(uint256 indexed messageId, address indexed recipient);\r\n    event AllLPFeesClaimed(address indexed provider, uint256 amountA, uint256 amountB);\r\n\r\n    /// @notice Modifier to check if the contract is not paused\r\n    modifier whenNotPaused() {\r\n        if (paused) revert ContractPaused();\r\n        _;\r\n    }\r\n\r\n    /// @notice Modifier to check if a specific chain is not paused\r\n    modifier whenChainNotPaused(uint16 chainId) {\r\n        if (chainPaused[chainId]) revert ChainPaused(chainId);\r\n        _;\r\n    }\r\n\r\n    /// @notice Modifier to restrict calls to LayerZero endpoint\r\n    modifier onlyLayerZero() {\r\n        if (msg.sender != layerZeroEndpoint) revert Unauthorized();\r\n        _;\r\n    }\r\n\r\n    /// @notice Modifier to restrict calls to governance contract\r\n    modifier onlyGovernance() {\r\n        if (msg.sender != governance) revert Unauthorized();\r\n        _;\r\n    }\r\n\r\n    /// @notice Constructor disables initializers for upgradeable contracts\r\n    constructor() {\r\n        _disableInitializers();\r\n    }\r\n\r\n    /// @notice Initializes the AMM pool\r\n    function initialize(\r\n        address _tokenA,\r\n        address _tokenB,\r\n        address _treasury,\r\n        address _layerZeroEndpoint,\r\n        address _feeRecipient,\r\n        address _primaryPriceOracle,\r\n        address[] memory _fallbackPriceOracles,\r\n        address _factory,\r\n        uint256 _timelock,\r\n        uint256 _targetReserveRatio\r\n    ) external initializer {\r\n        if (_tokenA >= _tokenB) revert InvalidAddress(_tokenA);\r\n        if (_tokenA == address(0) || _tokenB == address(0) || _treasury == address(0) ||\r\n            _layerZeroEndpoint == address(0) || _feeRecipient == address(0) ||\r\n            _primaryPriceOracle == address(0) || _factory == address(0)) \r\n            revert InvalidAddress(address(0));\r\n        if (_timelock < MIN_TIMELOCK || _timelock > MAX_TIMELOCK) \r\n            revert InvalidTimelock(_timelock);\r\n        if (_targetReserveRatio == 0) \r\n            revert InvalidReserveRatio(_targetReserveRatio);\r\n        for (uint256 i = 0; i < _fallbackPriceOracles.length; i++) {\r\n            if (_fallbackPriceOracles[i] == address(0)) revert InvalidAddress(address(0));\r\n        }\r\n\r\n        __Ownable_init();\r\n        __UUPSUpgradeable_init();\r\n        __ReentrancyGuard_init();\r\n\r\n        VERSION = \"1.0.0\";\r\n        tokenA = _tokenA;\r\n        tokenB = _tokenB;\r\n        treasury = _treasury;\r\n        layerZeroEndpoint = _layerZeroEndpoint;\r\n        tokenBridge = _feeRecipient;\r\n        primaryPriceOracle = _primaryPriceOracle;\r\n        fallbackPriceOracles = _fallbackPriceOracles;\r\n        governance = _factory;\r\n        chainTimelocks[1] = _timelock;\r\n        targetReserveRatio = _targetReserveRatio;\r\n        chainFees[1] = FeeConfig({baseFee: 20, maxFee: 100});\r\n        lpFeeShare = 8333;\r\n        treasuryFeeShare = 1667;\r\n        emaPeriod = 100;\r\n        volatilityThreshold = 1e16;\r\n        priceDeviationThreshold = 1e16;\r\n        tokenBridgeType[tokenA] = 1;\r\n        tokenBridgeType[tokenB] = 1;\r\n    }\r\n\r\n    /// @notice Authorizes contract upgrades\r\n    function _authorizeUpgrade(address newImplementation) internal override onlyOwner {}\r\n\r\n    /// @notice Adds liquidity to the pool\r\n    function addLiquidity(uint256 amountA, uint256 amountB) external whenNotPaused nonReentrant {\r\n        if (amountA == 0 || amountB == 0) revert InvalidAmount(amountA, amountB);\r\n\r\n        uint256 balanceBeforeA = IERC20Upgradeable(tokenA).balanceOf(address(this));\r\n        uint256 balanceBeforeB = IERC20Upgradeable(tokenB).balanceOf(address(this));\r\n\r\n        IERC20Upgradeable(tokenA).safeTransferFrom(msg.sender, address(this), amountA);\r\n        IERC20Upgradeable(tokenB).safeTransferFrom(msg.sender, address(this), amountB);\r\n\r\n        if (IERC20Upgradeable(tokenA).balanceOf(address(this)) != balanceBeforeA + amountA ||\r\n            IERC20Upgradeable(tokenB).balanceOf(address(this)) != balanceBeforeB + amountB)\r\n            revert InvalidAmount(amountA, amountB);\r\n\r\n        uint256 liquidity;\r\n        if (totalLiquidity == 0) {\r\n            UD60x18 sqrtResult = ud(amountA).mul(ud(amountB)).sqrt();\r\n            liquidity = sqrtResult.unwrap();\r\n        } else {\r\n            liquidity = (amountA * totalLiquidity) / reserves.reserveA;\r\n            uint256 liquidityB = (amountB * totalLiquidity) / reserves.reserveB;\r\n            liquidity = liquidity < liquidityB ? liquidity : liquidityB;\r\n        }\r\n\r\n        if (liquidity == 0) revert InvalidAmount(amountA, amountB);\r\n\r\n        liquidityBalance[msg.sender] += liquidity;\r\n        totalLiquidity += liquidity;\r\n        reserves.reserveA += amountA;\r\n        reserves.reserveB += amountB;\r\n\r\n        _updateVolatility();\r\n        emit LiquidityAdded(msg.sender, amountA, amountB, liquidity);\r\n    }\r\n\r\n    /// @notice Removes liquidity from the pool\r\n    function removeLiquidity(uint256 liquidity) external whenNotPaused nonReentrant {\r\n        if (liquidity == 0 || liquidityBalance[msg.sender] < liquidity) \r\n            revert InvalidAmount(liquidity, liquidityBalance[msg.sender]);\r\n        if (totalLiquidity == 0) revert InvalidAmount(0, 0);\r\n\r\n        uint256 amountA = (liquidity * reserves.reserveA) / totalLiquidity;\r\n        uint256 amountB = (liquidity * reserves.reserveB) / totalLiquidity;\r\n\r\n        liquidityBalance[msg.sender] -= liquidity;\r\n        totalLiquidity -= liquidity;\r\n        reserves.reserveA -= amountA;\r\n        reserves.reserveB -= amountB;\r\n\r\n        IERC20Upgradeable(tokenA).safeTransfer(msg.sender, amountA);\r\n        IERC20Upgradeable(tokenB).safeTransfer(msg.sender, amountB);\r\n\r\n        _updateVolatility();\r\n        emit LiquidityRemoved(msg.sender, amountA, amountB, liquidity);\r\n    }\r\n\r\n    /// @notice Swaps tokens with dynamic fees and slippage protection\r\n    function swap(address inputToken, uint256 amountIn, uint256 minAmountOut) \r\n        external \r\n        whenNotPaused \r\n        nonReentrant \r\n        returns (uint256 amountOut) \r\n    {\r\n        if (inputToken != tokenA && inputToken != tokenB) revert InvalidToken(inputToken);\r\n        if (amountIn == 0) revert InvalidAmount(amountIn, 0);\r\n\r\n        (uint256 reserveIn, uint256 reserveOut) = inputToken == tokenA \r\n            ? (reserves.reserveA, reserves.reserveB) \r\n            : (reserves.reserveB, reserves.reserveA);\r\n        uint256 currentFee = _getDynamicFee(1);\r\n        uint256 amountInWithFee = (amountIn * (10000 - currentFee)) / 10000;\r\n        uint256 lpFee = (amountIn * currentFee * lpFeeShare) / (10000 * 10000);\r\n        uint256 treasuryFee = (amountIn * currentFee * treasuryFeeShare) / (10000 * 10000);\r\n\r\n        if (useConstantSum) {\r\n            amountOut = amountInWithFee;\r\n        } else {\r\n            amountOut = (amountInWithFee * reserveOut) / (reserveIn + amountInWithFee);\r\n        }\r\n\r\n        if (amountOut < minAmountOut) revert InsufficientOutputAmount(amountOut, minAmountOut);\r\n        if (amountOut > reserveOut) revert InsufficientReserve(amountOut, reserveOut);\r\n\r\n        _validatePrice(inputToken, amountIn, amountOut);\r\n\r\n        uint256 balanceBefore = IERC20Upgradeable(inputToken).balanceOf(address(this));\r\n\r\n        if (inputToken == tokenA) {\r\n            reserves.reserveA += amountIn;\r\n            reserves.reserveB -= amountOut;\r\n            IERC20Upgradeable(tokenA).safeTransferFrom(msg.sender, address(this), amountIn);\r\n            IERC20Upgradeable(tokenB).safeTransfer(msg.sender, amountOut);\r\n        } else {\r\n            reserves.reserveB += amountIn;\r\n            reserves.reserveA -= amountOut;\r\n            IERC20Upgradeable(tokenB).safeTransferFrom(msg.sender, address(this), amountIn);\r\n            IERC20Upgradeable(tokenA).safeTransfer(msg.sender, amountOut);\r\n        }\r\n\r\n        if (IERC20Upgradeable(inputToken).balanceOf(address(this)) < balanceBefore + amountIn)\r\n            revert InvalidAmount(amountIn, 0);\r\n\r\n        IERC20Upgradeable(inputToken).safeTransfer(treasury, treasuryFee);\r\n        lpFees[msg.sender][inputToken] += lpFee;\r\n\r\n        _updateVolatility();\r\n        emit Swap(msg.sender, inputToken, amountIn, amountOut);\r\n    }\r\n\r\n    /// @notice Claims accumulated LP fees for a single token\r\n    function claimLPFees(address token) external nonReentrant {\r\n        if (token != tokenA && token != tokenB) revert InvalidToken(token);\r\n        uint256 feeAmount = lpFees[msg.sender][token];\r\n        if (feeAmount == 0) revert InvalidAmount(feeAmount, 0);\r\n\r\n        lpFees[msg.sender][token] = 0;\r\n        IERC20Upgradeable(token).safeTransfer(msg.sender, feeAmount);\r\n        emit LPFeeClaimed(msg.sender, token, feeAmount);\r\n    }\r\n\r\n    /// @notice Claims accumulated LP fees for both tokens\r\n    function claimAllLPFees() external nonReentrant {\r\n        uint256 feeAmountA = lpFees[msg.sender][tokenA];\r\n        uint256 feeAmountB = lpFees[msg.sender][tokenB];\r\n        if (feeAmountA == 0 && feeAmountB == 0) revert InvalidAmount(0, 0);\r\n\r\n        if (feeAmountA > 0) {\r\n            lpFees[msg.sender][tokenA] = 0;\r\n            IERC20Upgradeable(tokenA).safeTransfer(msg.sender, feeAmountA);\r\n        }\r\n        if (feeAmountB > 0) {\r\n            lpFees[msg.sender][tokenB] = 0;\r\n            IERC20Upgradeable(tokenB).safeTransfer(msg.sender, feeAmountB);\r\n        }\r\n\r\n        emit AllLPFeesClaimed(msg.sender, feeAmountA, feeAmountB);\r\n    }\r\n\r\n    /// @notice Estimates LayerZero fees for cross-chain operations\r\n    function getEstimatedLayerZeroFee(\r\n        uint16 dstChainId,\r\n        bytes memory payload,\r\n        bytes memory adapterParams\r\n    ) public view returns (uint256 nativeFee, uint256 zroFee) {\r\n        _validateAdapterParams(adapterParams);\r\n        return ILayerZeroEndpoint(layerZeroEndpoint).estimateFees(dstChainId, address(this), payload, false, adapterParams);\r\n    }\r\n\r\n    /// @notice Adds liquidity to a remote chain\r\n    function addLiquidityCrossChain(\r\n        uint256 amountA,\r\n        uint256 amountB,\r\n        uint16 dstChainId,\r\n        bytes calldata adapterParams\r\n    ) external payable whenNotPaused whenChainNotPaused(dstChainId) nonReentrant {\r\n        if (amountA == 0 || amountB == 0) revert InvalidAmount(amountA, amountB);\r\n        if (trustedRemotePools[dstChainId].length == 0) revert InvalidChainId(dstChainId);\r\n        if (tokenBridgeType[tokenA] != 1 && tokenBridgeType[tokenA] != 2) revert InvalidBridgeType(tokenBridgeType[tokenA]);\r\n        if (tokenBridgeType[tokenB] != 1 && tokenBridgeType[tokenB] != 2) revert InvalidBridgeType(tokenBridgeType[tokenB]);\r\n\r\n        uint256 balanceBeforeA = IERC20Upgradeable(tokenA).balanceOf(address(this));\r\n        uint256 balanceBeforeB = IERC20Upgradeable(tokenB).balanceOf(address(this));\r\n\r\n        IERC20Upgradeable(tokenA).safeTransferFrom(msg.sender, address(this), amountA);\r\n        IERC20Upgradeable(tokenB).safeTransferFrom(msg.sender, address(this), amountB);\r\n\r\n        if (IERC20Upgradeable(tokenA).balanceOf(address(this)) != balanceBeforeA + amountA ||\r\n            IERC20Upgradeable(tokenB).balanceOf(address(this)) != balanceBeforeB + amountB)\r\n            revert InvalidAmount(amountA, amountB);\r\n\r\n        _handleTokenBridge(tokenA, amountA, msg.sender, dstChainId, tokenBridgeType[tokenA]);\r\n        _handleTokenBridge(tokenB, amountB, msg.sender, dstChainId, tokenBridgeType[tokenB]);\r\n\r\n        uint64 nonce = ILayerZeroEndpoint(layerZeroEndpoint).getInboundNonce(dstChainId, trustedRemotePools[dstChainId]);\r\n        uint256 timelock = block.timestamp + _getDynamicTimelock(dstChainId);\r\n        bytes memory payload = abi.encode(msg.sender, amountA, amountB, nonce, timelock);\r\n\r\n        (uint256 nativeFee,) = getEstimatedLayerZeroFee(dstChainId, payload, adapterParams);\r\n        if (msg.value < nativeFee) revert InsufficientFee(msg.value, nativeFee);\r\n\r\n        try ILayerZeroEndpoint(layerZeroEndpoint).send{value: nativeFee}(\r\n            dstChainId,\r\n            abi.encodePacked(trustedRemotePools[dstChainId], address(this)),\r\n            payload,\r\n            payable(msg.sender),\r\n            address(0),\r\n            adapterParams\r\n        ) {\r\n            if (msg.value > nativeFee) {\r\n                Address.sendValue(payable(msg.sender), msg.value - nativeFee);\r\n            }\r\n            emit CrossChainLiquiditySent(msg.sender, amountA, amountB, dstChainId, nonce, timelock);\r\n        } catch {\r\n            failedMessages[failedMessageCount] = FailedMessage({\r\n                dstChainId: dstChainId,\r\n                payload: payload,\r\n                adapterParams: adapterParams,\r\n                retries: 0,\r\n                timestamp: block.timestamp\r\n            });\r\n            emit FailedMessageStored(failedMessageCount, dstChainId, payload);\r\n            failedMessageCount++;\r\n        }\r\n    }\r\n\r\n    /// @notice Helper function to handle token bridging\r\n    function _handleTokenBridge(address token, uint256 amount, address recipient, uint16 dstChainId, uint8 bridgeType) internal {\r\n        if (bridgeType == 1) {\r\n            ITokenBridge(tokenBridge).burn(token, amount, recipient, dstChainId);\r\n        } else if (bridgeType == 2) {\r\n            ITokenBridge(tokenBridge).lock(token, amount, recipient, dstChainId);\r\n        } else {\r\n            revert InvalidBridgeType(bridgeType);\r\n        }\r\n    }\r\n\r\n    /// @notice Receives cross-chain liquidity\r\n    function lzReceive(\r\n        uint16 srcChainId,\r\n        bytes calldata srcAddress,\r\n        uint64 nonce,\r\n        bytes calldata payload\r\n    ) external onlyLayerZero whenNotPaused whenChainNotPaused(srcChainId) nonReentrant {\r\n        if (trustedRemotePools[srcChainId].length == 0) revert InvalidChainId(srcChainId);\r\n        if (keccak256(srcAddress) != keccak256(trustedRemotePools[srcChainId])) revert InvalidAddress(msg.sender);\r\n        if (usedNonces[srcChainId][nonce]) revert InvalidNonce(nonce, nonce);\r\n\r\n        (address provider, uint256 amountA, uint256 amountB, uint64 receivedNonce, uint256 timelock) = \r\n            abi.decode(payload, (address, uint256, uint256, uint64, uint256));\r\n        if (receivedNonce != nonce) revert InvalidNonce(receivedNonce, nonce);\r\n        if (block.timestamp < timelock) revert TimelockNotExpired(block.timestamp, timelock);\r\n        if (amountA == 0 || amountB == 0) revert InvalidAmount(amountA, amountB);\r\n\r\n        usedNonces[srcChainId][nonce] = true;\r\n\r\n        _handleTokenBridgeReceive(tokenA, amountA, tokenBridgeType[tokenA]);\r\n        _handleTokenBridgeReceive(tokenB, amountB, tokenBridgeType[tokenB]);\r\n\r\n        uint256 liquidity;\r\n        if (totalLiquidity == 0) {\r\n            UD60x18 sqrtResult = ud(amountA).mul(ud(amountB)).sqrt();\r\n            liquidity = sqrtResult.unwrap();\r\n        } else {\r\n            liquidity = (amountA * totalLiquidity) / reserves.reserveA;\r\n            uint256 liquidityB = (amountB * totalLiquidity) / reserves.reserveB;\r\n            liquidity = liquidity < liquidityB ? liquidity : liquidityB;\r\n        }\r\n\r\n        if (liquidity == 0) revert InvalidAmount(amountA, amountB);\r\n\r\n        liquidityBalance[provider] += liquidity;\r\n        totalLiquidity += liquidity;\r\n        reserves.crossChainReserveA += amountA;\r\n        reserves.crossChainReserveB += amountB;\r\n\r\n        _updateVolatility();\r\n        emit CrossChainLiquidityReceived(provider, amountA, amountB, srcChainId, nonce);\r\n    }\r\n\r\n    /// @notice Helper function to handle token bridge receiving\r\n    function _handleTokenBridgeReceive(address token, uint256 amount, uint8 bridgeType) internal {\r\n        uint256 balanceBefore = IERC20Upgradeable(token).balanceOf(address(this));\r\n        if (bridgeType == 1) {\r\n            ITokenBridge(tokenBridge).mint(token, amount, address(this));\r\n        } else if (bridgeType == 2) {\r\n            ITokenBridge(tokenBridge).release(token, amount, address(this));\r\n        } else {\r\n            revert InvalidBridgeType(bridgeType);\r\n        }\r\n        if (IERC20Upgradeable(token).balanceOf(address(this)) < balanceBefore + amount) \r\n            revert InvalidAmount(amount, 0);\r\n    }\r\n\r\n    /// @notice Performs a cross-chain swap\r\n    function swapCrossChain(\r\n        address inputToken,\r\n        uint256 amountIn,\r\n        uint256 minAmountOut,\r\n        uint16 dstChainId,\r\n        bytes calldata adapterParams\r\n    ) external payable whenNotPaused whenChainNotPaused(dstChainId) nonReentrant returns (uint256 amountOut) {\r\n        if (inputToken != tokenA && inputToken != tokenB) revert InvalidToken(inputToken);\r\n        if (amountIn == 0) revert InvalidAmount(amountIn, 0);\r\n        if (trustedRemotePools[dstChainId].length == 0) revert InvalidChainId(dstChainId);\r\n        if (tokenBridgeType[inputToken] != 1 && tokenBridgeType[inputToken] != 2) \r\n            revert InvalidBridgeType(tokenBridgeType[inputToken]);\r\n\r\n        (uint256 reserveIn, uint256 reserveOut) = inputToken == tokenA \r\n            ? (reserves.reserveA, reserves.reserveB) \r\n            : (reserves.reserveB, reserves.reserveA);\r\n        (uint256 amountInWithFee, uint256 lpFee, uint256 treasuryFee) = _calculateSwapFees(amountIn, dstChainId);\r\n\r\n        if (useConstantSum) {\r\n            amountOut = amountInWithFee;\r\n        } else {\r\n            amountOut = (amountInWithFee * reserveOut) / (reserveIn + amountInWithFee);\r\n        }\r\n\r\n        if (amountOut < minAmountOut) revert InsufficientOutputAmount(amountOut, minAmountOut);\r\n        if (amountOut > reserveOut) revert InsufficientReserve(amountOut, reserveOut);\r\n\r\n        _validatePrice(inputToken, amountIn, amountOut);\r\n\r\n        uint256 balanceBefore = IERC20Upgradeable(inputToken).balanceOf(address(this));\r\n        IERC20Upgradeable(inputToken).safeTransferFrom(msg.sender, address(this), amountIn);\r\n        if (IERC20Upgradeable(inputToken).balanceOf(address(this)) < balanceBefore + amountIn) \r\n            revert InvalidAmount(amountIn, 0);\r\n\r\n        _handleTokenBridge(inputToken, amountIn, msg.sender, dstChainId, tokenBridgeType[inputToken]);\r\n\r\n        uint64 nonce = ILayerZeroEndpoint(layerZeroEndpoint).getInboundNonce(dstChainId, trustedRemotePools[dstChainId]);\r\n        uint256 timelock = block.timestamp + _getDynamicTimelock(dstChainId);\r\n        bytes memory payload = abi.encode(msg.sender, inputToken, amountIn, amountOut, minAmountOut, nonce, timelock);\r\n\r\n        (uint256 nativeFee,) = getEstimatedLayerZeroFee(dstChainId, payload, adapterParams);\r\n        if (msg.value < nativeFee) revert InsufficientFee(msg.value, nativeFee);\r\n\r\n        lpFees[msg.sender][inputToken] += lpFee;\r\n        IERC20Upgradeable(inputToken).safeTransfer(treasury, treasuryFee);\r\n\r\n        try ILayerZeroEndpoint(layerZeroEndpoint).send{value: nativeFee}(\r\n            dstChainId,\r\n            abi.encodePacked(trustedRemotePools[dstChainId], address(this)),\r\n            payload,\r\n            payable(msg.sender),\r\n            address(0),\r\n            adapterParams\r\n        ) {\r\n            if (msg.value > nativeFee) {\r\n                Address.sendValue(payable(msg.sender), msg.value - nativeFee);\r\n            }\r\n            emit CrossChainSwap(msg.sender, inputToken, amountIn, amountOut, dstChainId, nonce, timelock);\r\n        } catch {\r\n            failedMessages[failedMessageCount] = FailedMessage({\r\n                dstChainId: dstChainId,\r\n                payload: payload,\r\n                adapterParams: adapterParams,\r\n                retries: 0,\r\n                timestamp: block.timestamp\r\n            });\r\n            emit FailedMessageStored(failedMessageCount, dstChainId, payload);\r\n            failedMessageCount++;\r\n        }\r\n\r\n        return amountOut;\r\n    }\r\n\r\n    /// @notice Receives a cross-chain swap\r\n    function receiveSwapCrossChain(\r\n        uint16 srcChainId,\r\n        bytes calldata srcAddress,\r\n        uint64 nonce,\r\n        bytes calldata payload\r\n    ) external onlyLayerZero whenNotPaused whenChainNotPaused(srcChainId) nonReentrant {\r\n        if (trustedRemotePools[srcChainId].length == 0) revert InvalidChainId(srcChainId);\r\n        if (keccak256(srcAddress) != keccak256(trustedRemotePools[srcChainId])) revert InvalidAddress(msg.sender);\r\n        if (usedNonces[srcChainId][nonce]) revert InvalidNonce(nonce, nonce);\r\n\r\n        (address sender, address inputToken, uint256 amountIn, uint256 amountOut, uint256 minAmountOut, uint64 receivedNonce, uint256 timelock) = \r\n            abi.decode(payload, (address, address, uint256, uint256, uint256, uint64, uint256));\r\n        if (receivedNonce != nonce) revert InvalidNonce(receivedNonce, nonce);\r\n        if (block.timestamp < timelock) revert TimelockNotExpired(block.timestamp, timelock);\r\n        if (inputToken != tokenA && inputToken != tokenB) revert InvalidToken(inputToken);\r\n        if (amountOut < minAmountOut) revert InsufficientOutputAmount(amountOut, minAmountOut);\r\n        if (tokenBridgeType[inputToken] != 1 && tokenBridgeType[inputToken] != 2) \r\n            revert InvalidBridgeType(tokenBridgeType[inputToken]);\r\n\r\n        usedNonces[srcChainId][nonce] = true;\r\n\r\n        address outputToken = inputToken == tokenA ? tokenB : tokenA;\r\n        _handleTokenBridgeReceive(outputToken, amountOut, tokenBridgeType[outputToken]);\r\n\r\n        if (inputToken == tokenA) {\r\n            reserves.crossChainReserveA += amountIn;\r\n            if (amountOut > reserves.crossChainReserveB) revert InsufficientReserve(amountOut, reserves.crossChainReserveB);\r\n            reserves.crossChainReserveB -= amountOut;\r\n        } else {\r\n            reserves.crossChainReserveB += amountIn;\r\n            if (amountOut > reserves.crossChainReserveA) revert InsufficientReserve(amountOut, reserves.crossChainReserveA);\r\n            reserves.crossChainReserveA -= amountOut;\r\n        }\r\n\r\n        _updateVolatility();\r\n        emit CrossChainSwap(sender, inputToken, amountIn, amountOut, srcChainId, nonce, block.timestamp);\r\n    }\r\n\r\n    /// @notice Helper function to calculate swap fees\r\n    function _calculateSwapFees(uint256 amountIn, uint16 chainId) \r\n        internal \r\n        view \r\n        returns (uint256 amountInWithFee, uint256 lpFee, uint256 treasuryFee) \r\n    {\r\n        uint256 currentFee = _getDynamicFee(chainId);\r\n        amountInWithFee = (amountIn * (10000 - currentFee)) / 10000;\r\n        lpFee = (amountIn * currentFee * lpFeeShare) / (10000 * 10000);\r\n        treasuryFee = (amountIn * currentFee * treasuryFeeShare) / (10000 * 10000);\r\n    }\r\n\r\n    /// @notice Batches cross-chain messages for liquidity or swaps\r\n    function batchCrossChainMessages(\r\n        uint16 dstChainId,\r\n        bytes[] calldata payloads,\r\n        bytes calldata adapterParams\r\n    ) external payable whenNotPaused whenChainNotPaused(dstChainId) nonReentrant {\r\n        if (payloads.length == 0) revert InvalidAmount(0, 0);\r\n        if (payloads.length > MAX_BATCH_SIZE) revert BatchSizeExceeded(payloads.length);\r\n        if (trustedRemotePools[dstChainId].length == 0) revert InvalidChainId(dstChainId);\r\n        _validateAdapterParams(adapterParams);\r\n\r\n        uint256 totalNativeFee;\r\n        uint64 nonce = ILayerZeroEndpoint(layerZeroEndpoint).getInboundNonce(dstChainId, trustedRemotePools[dstChainId]);\r\n        bytes memory remoteAndLocalAddresses = abi.encodePacked(trustedRemotePools[dstChainId], address(this));\r\n        uint256 timelock = block.timestamp + _getDynamicTimelock(dstChainId);\r\n        uint256 gasUsed;\r\n\r\n        for (uint256 i; i < payloads.length; ++i) {\r\n            uint256 gasStart = gasleft();\r\n            (uint256 nativeFee,) = getEstimatedLayerZeroFee(dstChainId, payloads[i], adapterParams);\r\n            totalNativeFee += nativeFee;\r\n\r\n            bool isLiquidity = payloads[i].length == 132;\r\n            _processPayload(\r\n                dstChainId,\r\n                payloads[i],\r\n                adapterParams,\r\n                nonce + uint64(i),\r\n                timelock,\r\n                nativeFee,\r\n                isLiquidity,\r\n                remoteAndLocalAddresses\r\n            );\r\n\r\n            gasUsed += gasStart - gasleft();\r\n            if (gasUsed > MAX_GAS_LIMIT) revert GasLimitExceeded(gasUsed);\r\n        }\r\n\r\n        if (msg.value < totalNativeFee) revert InsufficientFee(msg.value, totalNativeFee);\r\n        if (msg.value > totalNativeFee) {\r\n            Address.sendValue(payable(msg.sender), msg.value - totalNativeFee);\r\n        }\r\n    }\r\n\r\n    function _processPayload(\r\n        uint16 dstChainId,\r\n        bytes calldata payload,\r\n        bytes calldata adapterParams,\r\n        uint64 nonce,\r\n        uint256 timelock,\r\n        uint256 nativeFee,\r\n        bool isLiquidity,\r\n        bytes memory remoteAndLocalAddresses\r\n    ) private {\r\n        if (isLiquidity) {\r\n            (address sender, uint256 amountA, uint256 amountB, uint64 payloadNonce, uint256 payloadTimelock) = \r\n                abi.decode(payload, (address, uint256, uint256, uint64, uint256));\r\n            if (payloadNonce != nonce) revert InvalidNonce(payloadNonce, nonce);\r\n            if (payloadTimelock < block.timestamp + MIN_TIMELOCK) revert InvalidTimelock(payloadTimelock);\r\n\r\n            try ILayerZeroEndpoint(layerZeroEndpoint).send{value: nativeFee}(\r\n                dstChainId,\r\n                remoteAndLocalAddresses,\r\n                payload,\r\n                payable(msg.sender),\r\n                address(0),\r\n                adapterParams\r\n            ) {\r\n                emit CrossChainLiquiditySent(sender, amountA, amountB, dstChainId, nonce, payloadTimelock);\r\n            } catch {\r\n                _storeFailedMessage(dstChainId, payload, adapterParams);\r\n            }\r\n        } else {\r\n            (address sender, address inputToken, uint256 amountIn, uint256 amountOut, uint256 minAmountOut, uint64 payloadNonce, uint256 payloadTimelock) = \r\n                abi.decode(payload, (address, address, uint256, uint256, uint256, uint64, uint256));\r\n            if (payloadNonce != nonce) revert InvalidNonce(payloadNonce, nonce);\r\n            if (payloadTimelock < block.timestamp + MIN_TIMELOCK) revert InvalidTimelock(payloadTimelock);\r\n\r\n            try ILayerZeroEndpoint(layerZeroEndpoint).send{value: nativeFee}(\r\n                dstChainId,\r\n                remoteAndLocalAddresses,\r\n                payload,\r\n                payable(msg.sender),\r\n                address(0),\r\n                adapterParams\r\n            ) {\r\n                emit CrossChainSwap(sender, inputToken, amountIn, amountOut, dstChainId, nonce, payloadTimelock);\r\n            } catch {\r\n                _storeFailedMessage(dstChainId, payload, adapterParams);\r\n            }\r\n        }\r\n    }\r\n\r\n    function _storeFailedMessage(\r\n        uint16 dstChainId,\r\n        bytes calldata payload,\r\n        bytes calldata adapterParams\r\n    ) private {\r\n        failedMessages[failedMessageCount] = FailedMessage({\r\n            dstChainId: dstChainId,\r\n            payload: payload,\r\n            adapterParams: adapterParams,\r\n            retries: 0,\r\n            timestamp: block.timestamp\r\n        });\r\n        emit FailedMessageStored(failedMessageCount, dstChainId, payload);\r\n        failedMessageCount++;\r\n    }\r\n\r\n    /// @notice Retries a failed cross-chain message\r\n    function retryFailedMessage(uint256 messageId) external payable onlyOwner nonReentrant {\r\n        FailedMessage storage message = failedMessages[messageId];\r\n        if (message.dstChainId == 0) revert MessageNotFailed(messageId);\r\n        if (message.retries >= MAX_RETRIES) revert MaxRetriesExceeded(messageId);\r\n\r\n        (uint256 nativeFee,) = getEstimatedLayerZeroFee(message.dstChainId, message.payload, message.adapterParams);\r\n        if (msg.value < nativeFee) revert InsufficientFee(msg.value, nativeFee);\r\n\r\n        message.retries++;\r\n        message.timestamp = block.timestamp;\r\n\r\n        try ILayerZeroEndpoint(layerZeroEndpoint).send{value: nativeFee}(\r\n            message.dstChainId,\r\n            abi.encodePacked(trustedRemotePools[message.dstChainId], address(this)),\r\n            message.payload,\r\n            payable(msg.sender),\r\n            address(0),\r\n            message.adapterParams\r\n        ) {\r\n            if (msg.value > nativeFee) {\r\n                Address.sendValue(payable(msg.sender), msg.value - nativeFee);\r\n            }\r\n            emit FailedMessageRetried(messageId, message.dstChainId, message.retries);\r\n            delete failedMessages[messageId];\r\n        } catch {\r\n            emit FailedMessageStored(messageId, message.dstChainId, message.payload);\r\n        }\r\n    }\r\n\r\n    /// @notice Recovers a failed cross-chain message after max retries\r\n    function recoverFailedMessage(uint256 messageId, address recipient) external onlyOwner nonReentrant {\r\n        FailedMessage storage message = failedMessages[messageId];\r\n        if (message.dstChainId == 0) revert MessageNotFailed(messageId);\r\n        if (message.retries < MAX_RETRIES) revert MessageNotFailed(messageId);\r\n\r\n        bool isLiquidity = message.payload.length == 132;\r\n        if (isLiquidity) {\r\n            (address sender, uint256 amountA, uint256 amountB,,) = \r\n                abi.decode(message.payload, (address, uint256, uint256, uint64, uint256));\r\n            IERC20Upgradeable(tokenA).safeTransfer(recipient, amountA);\r\n            IERC20Upgradeable(tokenB).safeTransfer(recipient, amountB);\r\n        } else {\r\n            (, address inputToken, uint256 amountIn,,,,) = \r\n                abi.decode(message.payload, (address, address, uint256, uint256, uint256, uint64, uint256));\r\n            IERC20Upgradeable(inputToken).safeTransfer(recipient, amountIn);\r\n        }\r\n\r\n        emit FailedMessageRecovered(messageId, recipient);\r\n        delete failedMessages[messageId];\r\n    }\r\n\r\n    /// @notice Rebalances reserves across chains\r\n    function rebalanceReserves(uint16 dstChainId, bytes calldata adapterParams) \r\n        external \r\n        onlyOwner \r\n        whenNotPaused \r\n        whenChainNotPaused(dstChainId) \r\n        nonReentrant \r\n    {\r\n        if (trustedRemotePools[dstChainId].length == 0) revert InvalidChainId(dstChainId);\r\n\r\n        uint256 totalReserveA = reserves.reserveA + reserves.crossChainReserveA;\r\n        uint256 totalReserveB = reserves.reserveB + reserves.crossChainReserveB;\r\n        if (totalReserveA == 0 || totalReserveB == 0) return;\r\n\r\n        uint256 currentRatio = (totalReserveA * 1e18) / totalReserveB;\r\n        if (currentRatio == targetReserveRatio) return;\r\n\r\n        uint256 amountA;\r\n        uint256 amountB;\r\n        if (currentRatio > targetReserveRatio) {\r\n            amountA = ((totalReserveA * 1e18 - totalReserveB * targetReserveRatio) * reserves.reserveA) / (totalReserveA * 1e18);\r\n            amountB = 0;\r\n        } else {\r\n            amountB = ((totalReserveB * targetReserveRatio - totalReserveA * 1e18) * reserves.reserveB) / (totalReserveB * targetReserveRatio);\r\n            amountA = 0;\r\n        }\r\n\r\n        if (amountA > 0) {\r\n            if (tokenBridgeType[tokenA] != 1 && tokenBridgeType[tokenA] != 2) \r\n                revert InvalidBridgeType(tokenBridgeType[tokenA]);\r\n            IERC20Upgradeable(tokenA).safeTransfer(tokenBridge, amountA);\r\n            _handleTokenBridge(tokenA, amountA, address(this), dstChainId, tokenBridgeType[tokenA]);\r\n            reserves.reserveA -= amountA;\r\n        } else if (amountB > 0) {\r\n            if (tokenBridgeType[tokenB] != 1 && tokenBridgeType[tokenB] != 2) \r\n                revert InvalidBridgeType(tokenBridgeType[tokenB]);\r\n            IERC20Upgradeable(tokenB).safeTransfer(tokenBridge, amountB);\r\n            _handleTokenBridge(tokenB, amountB, address(this), dstChainId, tokenBridgeType[tokenB]);\r\n            reserves.reserveB -= amountB;\r\n        }\r\n\r\n        uint64 nonce = ILayerZeroEndpoint(layerZeroEndpoint).getInboundNonce(dstChainId, trustedRemotePools[dstChainId]);\r\n        uint256 timelock = block.timestamp + _getDynamicTimelock(dstChainId);\r\n        bytes memory payload = abi.encode(address(this), amountA, amountB, nonce, timelock);\r\n        bytes memory remoteAndLocalAddresses = abi.encodePacked(trustedRemotePools[dstChainId], address(this));\r\n\r\n        (uint256 nativeFee,) = getEstimatedLayerZeroFee(dstChainId, payload, adapterParams);\r\n        if (address(this).balance < nativeFee) revert InsufficientFee(address(this).balance, nativeFee);\r\n\r\n        try ILayerZeroEndpoint(layerZeroEndpoint).send{value: nativeFee}(\r\n            dstChainId,\r\n            remoteAndLocalAddresses,\r\n            payload,\r\n            payable(msg.sender),\r\n            address(0),\r\n            adapterParams\r\n        ) {\r\n            emit ReservesRebalanced(dstChainId, amountA, amountB);\r\n        } catch {\r\n            failedMessages[failedMessageCount] = FailedMessage({\r\n                dstChainId: dstChainId,\r\n                payload: payload,\r\n                adapterParams: adapterParams,\r\n                retries: 0,\r\n                timestamp: block.timestamp\r\n            });\r\n            emit FailedMessageStored(failedMessageCount, dstChainId, payload);\r\n            failedMessageCount++;\r\n        }\r\n    }\r\n\r\n    /// @notice Synchronizes cross-chain reserves with remote pool\r\n    function syncCrossChainReserves(uint16 chainId, bytes calldata adapterParams) \r\n        external \r\n        onlyOwner \r\n        nonReentrant \r\n    {\r\n        if (trustedRemotePools[chainId].length == 0) revert InvalidChainId(chainId);\r\n\r\n        uint64 nonce = ILayerZeroEndpoint(layerZeroEndpoint).getInboundNonce(chainId, trustedRemotePools[chainId]);\r\n        bytes memory payload = abi.encode(address(this), reserves.crossChainReserveA, reserves.crossChainReserveB, nonce, block.timestamp);\r\n        bytes memory remoteAndLocalAddresses = abi.encodePacked(trustedRemotePools[chainId], address(this));\r\n\r\n        (uint256 nativeFee,) = getEstimatedLayerZeroFee(chainId, payload, adapterParams);\r\n        if (address(this).balance < nativeFee) revert InsufficientFee(address(this).balance, nativeFee);\r\n\r\n        try ILayerZeroEndpoint(layerZeroEndpoint).send{value: nativeFee}(\r\n            chainId,\r\n            remoteAndLocalAddresses,\r\n            payload,\r\n            payable(msg.sender),\r\n            address(0),\r\n            adapterParams\r\n        ) {\r\n        } catch {\r\n            failedMessages[failedMessageCount] = FailedMessage({\r\n                dstChainId: chainId,\r\n                payload: payload,\r\n                adapterParams: adapterParams,\r\n                retries: 0,\r\n                timestamp: block.timestamp\r\n            });\r\n            emit FailedMessageStored(failedMessageCount, chainId, payload);\r\n            failedMessageCount++;\r\n        }\r\n    }\r\n\r\n    /// @notice Allows users to withdraw liquidity during a pause\r\n    function emergencyWithdraw() external nonReentrant {\r\n        if (!paused) revert Unauthorized();\r\n        uint256 liquidity = liquidityBalance[msg.sender];\r\n        if (liquidity == 0) revert InvalidAmount(liquidity, 0);\r\n        if (totalLiquidity == 0) revert InvalidAmount(0, 0);\r\n\r\n        uint256 amountA = (liquidity * reserves.reserveA) / totalLiquidity;\r\n        uint256 amountB = (liquidity * reserves.reserveB) / totalLiquidity;\r\n\r\n        liquidityBalance[msg.sender] = 0;\r\n        totalLiquidity -= liquidity;\r\n        reserves.reserveA -= amountA;\r\n        reserves.reserveB -= amountB;\r\n\r\n        IERC20Upgradeable(tokenA).safeTransfer(msg.sender, amountA);\r\n        IERC20Upgradeable(tokenB).safeTransfer(msg.sender, amountB);\r\n\r\n        emit EmergencyWithdrawal(msg.sender, amountA, amountB);\r\n    }\r\n\r\n    /// @notice Gets current reserves (local and cross-chain)\r\n    function getReserves() external view returns (uint256, uint256, uint256, uint256) {\r\n        return (reserves.reserveA, reserves.reserveB, reserves.crossChainReserveA, reserves.crossChainReserveB);\r\n    }\r\n\r\n    /// @notice Gets cross-chain state for monitoring\r\n    function getCrossChainState(uint16 chainId) \r\n        external \r\n        view \r\n        returns (address, address, uint256, bytes memory, uint256, uint256) \r\n    {\r\n        FeeConfig memory feeConfig = chainFees[chainId];\r\n        return (layerZeroEndpoint, tokenBridge, chainTimelocks[chainId], trustedRemotePools[chainId], \r\n                feeConfig.baseFee, feeConfig.maxFee);\r\n    }\r\n\r\n    /// @notice Calculates price impact for a trade\r\n    function getPriceImpact(uint256 amountIn, address inputToken) external view returns (uint256) {\r\n        (uint256 reserveIn,) = inputToken == tokenA \r\n            ? (reserves.reserveA + reserves.crossChainReserveA, reserves.reserveB + reserves.crossChainReserveB) \r\n            : (reserves.reserveB + reserves.crossChainReserveB, reserves.reserveA + reserves.crossChainReserveA);\r\n        return (amountIn * 1e18) / (reserveIn + amountIn);\r\n    }\r\n\r\n    /// @notice Updates volatility EMA and switches curve if needed\r\n    function _updateVolatility() internal {\r\n        uint256 totalReserveA = reserves.reserveA + reserves.crossChainReserveA;\r\n        uint256 totalReserveB = reserves.reserveB + reserves.crossChainReserveB;\r\n        if (totalReserveA == 0) return;\r\n\r\n        uint256 currentPrice = (totalReserveB * 1e18) / totalReserveA;\r\n        if (lastPrice != 0) {\r\n            uint256 priceChange = currentPrice > lastPrice ? currentPrice - lastPrice : lastPrice - currentPrice;\r\n            uint256 volatility = (priceChange * 1e18) / lastPrice;\r\n\r\n            uint256 alpha = (2 * 1e18) / (emaPeriod + 1);\r\n            emaVolatility = (alpha * volatility + (1e18 - alpha) * emaVolatility) / 1e18;\r\n\r\n            useConstantSum = emaVolatility < volatilityThreshold;\r\n        }\r\n        lastPrice = currentPrice;\r\n    }\r\n\r\n    /// @notice Calculates dynamic fee based on volatility and chain\r\n    function _getDynamicFee(uint16 chainId) internal view returns (uint256) {\r\n        FeeConfig memory feeConfig = chainFees[chainId];\r\n        if (feeConfig.baseFee == 0) {\r\n            feeConfig = chainFees[1];\r\n        }\r\n        if (emaVolatility < volatilityThreshold) {\r\n            return feeConfig.baseFee;\r\n        }\r\n        uint256 feeRange = feeConfig.maxFee - feeConfig.baseFee;\r\n        uint256 volatilityFactor = emaVolatility > 1e18 ? 1e18 : emaVolatility;\r\n        return feeConfig.baseFee + (feeRange * volatilityFactor) / 1e18;\r\n    }\r\n\r\n    /// @notice Calculates dynamic timelock based on chain conditions\r\n    function _getDynamicTimelock(uint16 chainId) internal view returns (uint256) {\r\n        uint256 timelock = chainTimelocks[chainId];\r\n        if (timelock == 0) revert InvalidTimelock(0);\r\n        if (emaVolatility > volatilityThreshold) {\r\n            timelock = timelock * 2 > MAX_TIMELOCK ? MAX_TIMELOCK : timelock * 2;\r\n        }\r\n        return timelock;\r\n    }\r\n\r\n    /// @notice Validates swap price against Chainlink oracles\r\n    function _validatePrice(address inputToken, uint256 amountIn, uint256 amountOut) internal view {\r\n        (int256 price, uint8 decimals) = _getOraclePrice(primaryPriceOracle);\r\n        if (price <= 0) {\r\n            for (uint256 i = 0; i < fallbackPriceOracles.length; i++) {\r\n                (price, decimals) = _getOraclePrice(fallbackPriceOracles[i]);\r\n                if (price > 0) break;\r\n            }\r\n            if (price <= 0) revert NegativeOraclePrice(price);\r\n        }\r\n        uint256 oraclePriceScaled = uint256(price) * 1e18 / (10 ** decimals);\r\n\r\n        uint256 expectedPrice = inputToken == tokenA ? (amountIn * 1e18) / amountOut : (amountOut * 1e18) / amountIn;\r\n        uint256 maxDeviation = (oraclePriceScaled * priceDeviationThreshold) / 1e18;\r\n        if (expectedPrice > oraclePriceScaled + maxDeviation || expectedPrice < oraclePriceScaled - maxDeviation) {\r\n            revert InvalidPrice(expectedPrice, oraclePriceScaled);\r\n        }\r\n    }\r\n\r\n    /// @notice Fetches price from a Chainlink oracle\r\n    function _getOraclePrice(address oracle) internal view returns (int256 price, uint8 decimals) {\r\n        try AggregatorV3Interface(oracle).latestRoundData() returns (\r\n            uint80,\r\n            int256 answer,\r\n            uint256,\r\n            uint256 updatedAt,\r\n            uint80\r\n        ) {\r\n            if (answer <= 0) revert NegativeOraclePrice(answer);\r\n            if (updatedAt < block.timestamp - 1 hours) revert OracleFailure();\r\n            price = answer;\r\n            decimals = AggregatorV3Interface(oracle).decimals();\r\n        } catch {\r\n            revert OracleFailure();\r\n        }\r\n    }\r\n\r\n    /// @notice Validates LayerZero adapter parameters\r\n    function _validateAdapterParams(bytes memory adapterParams) internal pure {\r\n        if (adapterParams.length < 2) revert InvalidAdapterParams();\r\n    }\r\n\r\n    /// @notice Proposes a governance update\r\n    function proposeGovernanceUpdate(address target, bytes calldata data) \r\n        external \r\n        onlyGovernance \r\n        returns (uint256) \r\n    {\r\n        uint256 proposalId = proposalCount++;\r\n        governanceProposals[proposalId] = AMMGovernanceProposal({\r\n            target: target,\r\n            data: data,\r\n            proposedAt: block.timestamp,\r\n            executed: false\r\n        });\r\n        emit GovernanceProposalCreated(proposalId, target, data, block.timestamp);\r\n        return proposalId;\r\n    }\r\n\r\n    /// @notice Executes a governance proposal after timelock\r\n    function executeGovernanceProposal(uint256 proposalId) external onlyGovernance {\r\n    AMMGovernanceProposal storage proposal = governanceProposals[proposalId];\r\n    if (proposal.target == address(0)) revert ProposalNotFound(proposalId);\r\n    if (proposal.executed) revert ProposalAlreadyExecuted(proposalId);\r\n    if (block.timestamp < proposal.proposedAt + GOVERNANCE_TIMELOCK) \r\n        revert ProposalNotReady(proposalId);\r\n\r\n    proposal.executed = true;\r\n    (bool success, bytes memory result) = proposal.target.call(proposal.data);\r\n    if (!success) {\r\n        assembly (\"memory-safe\") {\r\n            let returndata_size := mload(result)\r\n            revert(add(32, result), returndata_size)\r\n        }\r\n    }\r\n    emit GovernanceProposalExecuted(proposalId);\r\n}\r\n\r\n    /// @notice Updates fee parameters for a specific chain\r\n    function updateFees(\r\n        uint16 chainId,\r\n        uint256 _baseFee,\r\n        uint256 _maxFee,\r\n        uint256 _lpFeeShare,\r\n        uint256 _treasuryFeeShare\r\n    ) external onlyGovernance {\r\n        if (_baseFee > _maxFee || _maxFee > 1000) revert InvalidFeeRange(_baseFee, _maxFee);\r\n        if (_lpFeeShare + _treasuryFeeShare != 10000) revert InvalidFeeShare(_lpFeeShare, _treasuryFeeShare);\r\n        chainFees[chainId] = FeeConfig({baseFee: _baseFee, maxFee: _maxFee});\r\n        if (chainId == 1) {\r\n            lpFeeShare = _lpFeeShare;\r\n            treasuryFeeShare = _treasuryFeeShare;\r\n        }\r\n        emit FeesUpdated(chainId, _baseFee, _maxFee, _lpFeeShare, _treasuryFeeShare);\r\n    }\r\n\r\n    /// @notice Pauses the contract\r\n    function pause() external onlyGovernance {\r\n        if (paused) revert ContractPaused();\r\n        paused = true;\r\n        emit Paused(msg.sender);\r\n    }\r\n\r\n    /// @notice Unpauses the contract\r\n    function unpause() external onlyGovernance {\r\n        if (!paused) revert Unauthorized();\r\n        paused = false;\r\n        emit Unpaused(msg.sender);\r\n    }\r\n\r\n    /// @notice Pauses a specific chain\r\n    function pauseChain(uint16 chainId) external onlyGovernance {\r\n        if (chainPaused[chainId]) revert ChainPaused(chainId);\r\n        chainPaused[chainId] = true;\r\n        emit AMMPoolChainPaused(chainId, msg.sender);\r\n    }\r\n\r\n    /// @notice Unpauses a specific chain\r\n    function unpauseChain(uint16 chainId) external onlyGovernance {\r\n        if (!chainPaused[chainId]) revert Unauthorized();\r\n        chainPaused[chainId] = false;\r\n        emit ChainUnpaused(chainId, msg.sender);\r\n    }\r\n\r\n    /// @notice Updates LayerZero endpoint\r\n    function updateLayerZeroEndpoint(address _layerZeroEndpoint) external onlyGovernance {\r\n        if (_layerZeroEndpoint == address(0)) revert InvalidAddress(_layerZeroEndpoint);\r\n        layerZeroEndpoint = _layerZeroEndpoint;\r\n        emit LayerZeroEndpointUpdated(_layerZeroEndpoint);\r\n    }\r\n\r\n    /// @notice Updates token bridge\r\n    function updateTokenBridge(address _tokenBridge) external onlyGovernance {\r\n        if (_tokenBridge == address(0)) revert InvalidAddress(_tokenBridge);\r\n        tokenBridge = _tokenBridge;\r\n        emit TokenBridgeUpdated(_tokenBridge);\r\n    }\r\n\r\n    /// @notice Adds trusted remote pool\r\n    function addTrustedRemotePool(uint16 chainId, bytes calldata poolAddress) external onlyGovernance {\r\n        if (poolAddress.length == 0) revert InvalidAddress(address(0));\r\n        trustedRemotePools[chainId] = poolAddress;\r\n        emit TrustedRemotePoolAdded(chainId, poolAddress);\r\n    }\r\n\r\n    /// @notice Updates chain-specific timelock\r\n    function updateChainTimelock(uint16 chainId, uint256 _timelock) external onlyGovernance {\r\n        if (_timelock < MIN_TIMELOCK || _timelock > MAX_TIMELOCK) revert InvalidTimelock(_timelock);\r\n        chainTimelocks[chainId] = _timelock;\r\n        emit ChainTimelockUpdated(chainId, _timelock);\r\n    }\r\n\r\n    /// @notice Updates token bridge type\r\n    function updateTokenBridgeType(address token, uint8 bridgeType) external onlyGovernance {\r\n        if (bridgeType != 1 && bridgeType != 2) revert InvalidBridgeType(bridgeType);\r\n        tokenBridgeType[token] = bridgeType;\r\n        emit TokenBridgeTypeUpdated(token, bridgeType);\r\n    }\r\n\r\n    /// @notice Updates target reserve ratio\r\n    function updateTargetReserveRatio(uint256 _targetReserveRatio) external onlyGovernance {\r\n        if (_targetReserveRatio == 0) revert InvalidReserveRatio(_targetReserveRatio);\r\n        targetReserveRatio = _targetReserveRatio;\r\n        emit TargetReserveRatioUpdated(_targetReserveRatio);\r\n    }\r\n\r\n    /// @notice Updates price oracles\r\n    function updatePriceOracles(address _primaryPriceOracle, address[] memory _fallbackPriceOracles) \r\n        external \r\n        onlyGovernance \r\n    {\r\n        if (_primaryPriceOracle == address(0)) revert InvalidAddress(_primaryPriceOracle);\r\n        for (uint256 i = 0; i < _fallbackPriceOracles.length; i++) {\r\n            if (_fallbackPriceOracles[i] == address(0)) revert InvalidAddress(address(0));\r\n        }\r\n        primaryPriceOracle = _primaryPriceOracle;\r\n        fallbackPriceOracles = _fallbackPriceOracles;\r\n        emit PriceOracleUpdated(_primaryPriceOracle, _fallbackPriceOracles);\r\n    }\r\n\r\n    /// @notice Updates governance contract\r\n    function updateGovernance(address _governance) external onlyGovernance {\r\n        if (_governance == address(0)) revert InvalidAddress(_governance);\r\n        governance = _governance;\r\n        emit GovernanceUpdated(_governance);\r\n    }\r\n\r\n    /// @notice Updates EMA period\r\n    function updateEmaPeriod(uint256 _emaPeriod) external onlyGovernance {\r\n        if (_emaPeriod == 0) revert InvalidAmount(_emaPeriod, 0);\r\n        emaPeriod = _emaPeriod;\r\n        emit EmaPeriodUpdated(_emaPeriod);\r\n    }\r\n\r\n    /// @notice Updates volatility threshold\r\n    function updateVolatilityThreshold(uint256 _volatilityThreshold) external onlyGovernance {\r\n        if (_volatilityThreshold == 0) revert InvalidAmount(_volatilityThreshold, 0);\r\n        volatilityThreshold = _volatilityThreshold;\r\n        emit VolatilityThresholdUpdated(_volatilityThreshold);\r\n    }\r\n\r\n    /// @notice Updates price deviation threshold\r\n    function updatePriceDeviationThreshold(uint256 _priceDeviationThreshold) external onlyGovernance {\r\n        if (_priceDeviationThreshold == 0) revert InvalidAmount(_priceDeviationThreshold, 0);\r\n        priceDeviationThreshold = _priceDeviationThreshold;\r\n    }\r\n\r\n    /// @notice Allows contract to receive native tokens\r\n    receive() external payable {}\r\n}",
  "sourcePath": "C:\\Users\\DR. EMMA\\my-project\\lumora\\contracts\\AMMPool.sol",
  "compiler": {
    "name": "solc",
    "version": "0.8.24+commit.e11b9ed9.Emscripten.clang"
  },
  "schemaVersion": "3.4.16",
  "updatedAt": "2025-06-04T21:49:36.392Z",
  "devdoc": {
    "details": "Uses OpenZeppelin upgradeable contracts for security and flexibility",
    "events": {
      "AdminChanged(address,address)": {
        "details": "Emitted when the admin account has changed."
      },
      "BeaconUpgraded(address)": {
        "details": "Emitted when the beacon is changed."
      },
      "Initialized(uint8)": {
        "details": "Triggered when the contract has been initialized or reinitialized."
      },
      "Upgraded(address)": {
        "details": "Emitted when the implementation is upgraded."
      }
    },
    "kind": "dev",
    "methods": {
      "owner()": {
        "details": "Returns the address of the current owner."
      },
      "proxiableUUID()": {
        "details": "Implementation of the ERC1822 {proxiableUUID} function. This returns the storage slot used by the implementation. It is used to validate the implementation's compatibility when performing an upgrade. IMPORTANT: A proxy pointing at a proxiable contract should not be considered proxiable itself, because this risks bricking a proxy that upgrades to it, by delegating to itself until out of gas. Thus it is critical that this function revert if invoked through a proxy. This is guaranteed by the `notDelegated` modifier."
      },
      "renounceOwnership()": {
        "details": "Leaves the contract without owner. It will not be possible to call `onlyOwner` functions. Can only be called by the current owner. NOTE: Renouncing ownership will leave the contract without an owner, thereby disabling any functionality that is only available to the owner."
      },
      "transferOwnership(address)": {
        "details": "Transfers ownership of the contract to a new account (`newOwner`). Can only be called by the current owner."
      },
      "upgradeTo(address)": {
        "custom:oz-upgrades-unsafe-allow-reachable": "delegatecall",
        "details": "Upgrade the implementation of the proxy to `newImplementation`. Calls {_authorizeUpgrade}. Emits an {Upgraded} event."
      },
      "upgradeToAndCall(address,bytes)": {
        "custom:oz-upgrades-unsafe-allow-reachable": "delegatecall",
        "details": "Upgrade the implementation of the proxy to `newImplementation`, and subsequently execute the function call encoded in `data`. Calls {_authorizeUpgrade}. Emits an {Upgraded} event."
      }
    },
    "title": "AMMPool - An upgradeable AMM pool with cross-chain capabilities",
    "version": 1
  },
  "userdoc": {
    "errors": {
      "PRBMath_MulDiv18_Overflow(uint256,uint256)": [
        {
          "notice": "Emitted when the ending result in the fixed-point version of `mulDiv` would overflow uint256."
        }
      ],
      "PRBMath_UD60x18_Sqrt_Overflow(uint256)": [
        {
          "notice": "Emitted when calculating the square root overflows UD60x18."
        }
      ]
    },
    "kind": "user",
    "methods": {
      "addLiquidity(uint256,uint256)": {
        "notice": "Adds liquidity to the pool"
      },
      "addLiquidityCrossChain(uint256,uint256,uint16,bytes)": {
        "notice": "Adds liquidity to a remote chain"
      },
      "addTrustedRemotePool(uint16,bytes)": {
        "notice": "Adds trusted remote pool"
      },
      "batchCrossChainMessages(uint16,bytes[],bytes)": {
        "notice": "Batches cross-chain messages for liquidity or swaps"
      },
      "chainPaused(uint16)": {
        "notice": "Chain-specific pause status"
      },
      "chainTimelocks(uint16)": {
        "notice": "Timelock duration per chain (in seconds)"
      },
      "claimAllLPFees()": {
        "notice": "Claims accumulated LP fees for both tokens"
      },
      "claimLPFees(address)": {
        "notice": "Claims accumulated LP fees for a single token"
      },
      "constructor": {
        "notice": "Constructor disables initializers for upgradeable contracts"
      },
      "emaPeriod()": {
        "notice": "EMA period (default 100 blocks)"
      },
      "emaVolatility()": {
        "notice": "EMA volatility for dynamic fee and curve switching"
      },
      "emergencyWithdraw()": {
        "notice": "Allows users to withdraw liquidity during a pause"
      },
      "executeGovernanceProposal(uint256)": {
        "notice": "Executes a governance proposal after timelock"
      },
      "fallbackPriceOracles(uint256)": {
        "notice": "Array of fallback Chainlink oracles for redundancy"
      },
      "getCrossChainState(uint16)": {
        "notice": "Gets cross-chain state for monitoring"
      },
      "getEstimatedLayerZeroFee(uint16,bytes,bytes)": {
        "notice": "Estimates LayerZero fees for cross-chain operations"
      },
      "getPriceImpact(uint256,address)": {
        "notice": "Calculates price impact for a trade"
      },
      "getReserves()": {
        "notice": "Gets current reserves (local and cross-chain)"
      },
      "governance()": {
        "notice": "Governance contract address"
      },
      "initialize(address,address,address,address,address,address,address[],address,uint256,uint256)": {
        "notice": "Initializes the AMM pool"
      },
      "lastPrice()": {
        "notice": "Last recorded price (in 1e18 precision)"
      },
      "layerZeroEndpoint()": {
        "notice": "LayerZero endpoint address"
      },
      "liquidityBalance(address)": {
        "notice": "Liquidity balance per provider"
      },
      "lpFeeShare()": {
        "notice": "Default LP fee share (in basis points, e.g., 8333 = 83.33%)"
      },
      "lpFees(address,address)": {
        "notice": "Accumulated LP fees per provider per token"
      },
      "lzReceive(uint16,bytes,uint64,bytes)": {
        "notice": "Receives cross-chain liquidity"
      },
      "pause()": {
        "notice": "Pauses the contract"
      },
      "pauseChain(uint16)": {
        "notice": "Pauses a specific chain"
      },
      "paused()": {
        "notice": "Global pause status"
      },
      "priceDeviationThreshold()": {
        "notice": "Price deviation threshold (in 1e18 precision)"
      },
      "primaryPriceOracle()": {
        "notice": "Primary Chainlink oracle for tokenA/tokenB price"
      },
      "proposeGovernanceUpdate(address,bytes)": {
        "notice": "Proposes a governance update"
      },
      "rebalanceReserves(uint16,bytes)": {
        "notice": "Rebalances reserves across chains"
      },
      "receiveSwapCrossChain(uint16,bytes,uint64,bytes)": {
        "notice": "Receives a cross-chain swap"
      },
      "recoverFailedMessage(uint256,address)": {
        "notice": "Recovers a failed cross-chain message after max retries"
      },
      "removeLiquidity(uint256)": {
        "notice": "Removes liquidity from the pool"
      },
      "retryFailedMessage(uint256)": {
        "notice": "Retries a failed cross-chain message"
      },
      "swap(address,uint256,uint256)": {
        "notice": "Swaps tokens with dynamic fees and slippage protection"
      },
      "swapCrossChain(address,uint256,uint256,uint16,bytes)": {
        "notice": "Performs a cross-chain swap"
      },
      "syncCrossChainReserves(uint16,bytes)": {
        "notice": "Synchronizes cross-chain reserves with remote pool"
      },
      "targetReserveRatio()": {
        "notice": "Desired reserveA/reserveB ratio (in 1e18 precision)"
      },
      "tokenA()": {
        "notice": "Token A address (must be less than tokenB for pair ordering)"
      },
      "tokenB()": {
        "notice": "Token B address"
      },
      "tokenBridge()": {
        "notice": "Token bridge address"
      },
      "tokenBridgeType(address)": {
        "notice": "Token bridge type (1 = burn/mint, 2 = lock/release)"
      },
      "totalLiquidity()": {
        "notice": "Total liquidity in the pool"
      },
      "treasury()": {
        "notice": "Treasury address for fee collection"
      },
      "treasuryFeeShare()": {
        "notice": "Default treasury fee share (in basis points, e.g., 1667 = 16.67%)"
      },
      "trustedRemotePools(uint16)": {
        "notice": "Trusted remote pool addresses by chain ID"
      },
      "unpause()": {
        "notice": "Unpauses the contract"
      },
      "unpauseChain(uint16)": {
        "notice": "Unpauses a specific chain"
      },
      "updateChainTimelock(uint16,uint256)": {
        "notice": "Updates chain-specific timelock"
      },
      "updateEmaPeriod(uint256)": {
        "notice": "Updates EMA period"
      },
      "updateFees(uint16,uint256,uint256,uint256,uint256)": {
        "notice": "Updates fee parameters for a specific chain"
      },
      "updateGovernance(address)": {
        "notice": "Updates governance contract"
      },
      "updateLayerZeroEndpoint(address)": {
        "notice": "Updates LayerZero endpoint"
      },
      "updatePriceDeviationThreshold(uint256)": {
        "notice": "Updates price deviation threshold"
      },
      "updatePriceOracles(address,address[])": {
        "notice": "Updates price oracles"
      },
      "updateTargetReserveRatio(uint256)": {
        "notice": "Updates target reserve ratio"
      },
      "updateTokenBridge(address)": {
        "notice": "Updates token bridge"
      },
      "updateTokenBridgeType(address,uint8)": {
        "notice": "Updates token bridge type"
      },
      "updateVolatilityThreshold(uint256)": {
        "notice": "Updates volatility threshold"
      },
      "useConstantSum()": {
        "notice": "Whether to use constant sum curve (true) or constant product (false)"
      },
      "usedNonces(uint16,uint64)": {
        "notice": "Used nonces to prevent replay attacks"
      },
      "volatilityThreshold()": {
        "notice": "Volatility threshold for curve switching (in 1e18 precision)"
      }
    },
    "notice": "Implements a Uniswap-style AMM with LayerZero cross-chain support, dynamic fees, and volatility-based curve switching",
    "version": 1
  }
}