{
  "contractName": "DebtToken",
  "abi": [
    {
      "anonymous": false,
      "inputs": [
        {
          "indexed": false,
          "internalType": "address",
          "name": "previousAdmin",
          "type": "address"
        },
        {
          "indexed": false,
          "internalType": "address",
          "name": "newAdmin",
          "type": "address"
        }
      ],
      "name": "AdminChanged",
      "type": "event"
    },
    {
      "anonymous": false,
      "inputs": [
        {
          "indexed": true,
          "internalType": "address",
          "name": "owner",
          "type": "address"
        },
        {
          "indexed": true,
          "internalType": "address",
          "name": "spender",
          "type": "address"
        },
        {
          "indexed": false,
          "internalType": "uint256",
          "name": "value",
          "type": "uint256"
        }
      ],
      "name": "Approval",
      "type": "event"
    },
    {
      "anonymous": false,
      "inputs": [
        {
          "indexed": false,
          "internalType": "address[]",
          "name": "recipients",
          "type": "address[]"
        },
        {
          "indexed": false,
          "internalType": "uint256[]",
          "name": "amounts",
          "type": "uint256[]"
        }
      ],
      "name": "BatchDebtMinted",
      "type": "event"
    },
    {
      "anonymous": false,
      "inputs": [
        {
          "indexed": false,
          "internalType": "address[]",
          "name": "accounts",
          "type": "address[]"
        },
        {
          "indexed": false,
          "internalType": "uint256[]",
          "name": "amounts",
          "type": "uint256[]"
        }
      ],
      "name": "BatchDebtRepaid",
      "type": "event"
    },
    {
      "anonymous": false,
      "inputs": [
        {
          "indexed": true,
          "internalType": "address",
          "name": "beacon",
          "type": "address"
        }
      ],
      "name": "BeaconUpgraded",
      "type": "event"
    },
    {
      "anonymous": false,
      "inputs": [
        {
          "indexed": true,
          "internalType": "address",
          "name": "user",
          "type": "address"
        },
        {
          "indexed": true,
          "internalType": "address",
          "name": "underlyingAsset",
          "type": "address"
        },
        {
          "indexed": false,
          "internalType": "uint256",
          "name": "amount",
          "type": "uint256"
        }
      ],
      "name": "DebtMinted",
      "type": "event"
    },
    {
      "anonymous": false,
      "inputs": [
        {
          "indexed": true,
          "internalType": "address",
          "name": "user",
          "type": "address"
        },
        {
          "indexed": true,
          "internalType": "address",
          "name": "underlyingAsset",
          "type": "address"
        },
        {
          "indexed": false,
          "internalType": "uint256",
          "name": "amount",
          "type": "uint256"
        }
      ],
      "name": "DebtRepaid",
      "type": "event"
    },
    {
      "anonymous": false,
      "inputs": [
        {
          "indexed": false,
          "internalType": "uint8",
          "name": "version",
          "type": "uint8"
        }
      ],
      "name": "Initialized",
      "type": "event"
    },
    {
      "anonymous": false,
      "inputs": [
        {
          "indexed": true,
          "internalType": "address",
          "name": "previousOwner",
          "type": "address"
        },
        {
          "indexed": true,
          "internalType": "address",
          "name": "newOwner",
          "type": "address"
        }
      ],
      "name": "OwnershipTransferred",
      "type": "event"
    },
    {
      "anonymous": false,
      "inputs": [
        {
          "indexed": false,
          "internalType": "address",
          "name": "account",
          "type": "address"
        }
      ],
      "name": "Paused",
      "type": "event"
    },
    {
      "anonymous": false,
      "inputs": [
        {
          "indexed": true,
          "internalType": "address",
          "name": "from",
          "type": "address"
        },
        {
          "indexed": true,
          "internalType": "address",
          "name": "to",
          "type": "address"
        },
        {
          "indexed": false,
          "internalType": "uint256",
          "name": "value",
          "type": "uint256"
        }
      ],
      "name": "Transfer",
      "type": "event"
    },
    {
      "anonymous": false,
      "inputs": [
        {
          "indexed": false,
          "internalType": "address",
          "name": "account",
          "type": "address"
        }
      ],
      "name": "Unpaused",
      "type": "event"
    },
    {
      "anonymous": false,
      "inputs": [
        {
          "indexed": true,
          "internalType": "address",
          "name": "newImplementation",
          "type": "address"
        },
        {
          "indexed": false,
          "internalType": "uint256",
          "name": "proposalTime",
          "type": "uint256"
        }
      ],
      "name": "UpgradeProposed",
      "type": "event"
    },
    {
      "anonymous": false,
      "inputs": [
        {
          "indexed": true,
          "internalType": "address",
          "name": "implementation",
          "type": "address"
        }
      ],
      "name": "Upgraded",
      "type": "event"
    },
    {
      "inputs": [
        {
          "internalType": "address",
          "name": "owner",
          "type": "address"
        },
        {
          "internalType": "address",
          "name": "spender",
          "type": "address"
        }
      ],
      "name": "allowance",
      "outputs": [
        {
          "internalType": "uint256",
          "name": "",
          "type": "uint256"
        }
      ],
      "stateMutability": "view",
      "type": "function"
    },
    {
      "inputs": [
        {
          "internalType": "address",
          "name": "spender",
          "type": "address"
        },
        {
          "internalType": "uint256",
          "name": "amount",
          "type": "uint256"
        }
      ],
      "name": "approve",
      "outputs": [
        {
          "internalType": "bool",
          "name": "",
          "type": "bool"
        }
      ],
      "stateMutability": "nonpayable",
      "type": "function"
    },
    {
      "inputs": [
        {
          "internalType": "address",
          "name": "account",
          "type": "address"
        }
      ],
      "name": "balanceOf",
      "outputs": [
        {
          "internalType": "uint256",
          "name": "",
          "type": "uint256"
        }
      ],
      "stateMutability": "view",
      "type": "function"
    },
    {
      "inputs": [],
      "name": "decimals",
      "outputs": [
        {
          "internalType": "uint8",
          "name": "",
          "type": "uint8"
        }
      ],
      "stateMutability": "view",
      "type": "function"
    },
    {
      "inputs": [
        {
          "internalType": "address",
          "name": "spender",
          "type": "address"
        },
        {
          "internalType": "uint256",
          "name": "subtractedValue",
          "type": "uint256"
        }
      ],
      "name": "decreaseAllowance",
      "outputs": [
        {
          "internalType": "bool",
          "name": "",
          "type": "bool"
        }
      ],
      "stateMutability": "nonpayable",
      "type": "function"
    },
    {
      "inputs": [
        {
          "internalType": "address",
          "name": "spender",
          "type": "address"
        },
        {
          "internalType": "uint256",
          "name": "addedValue",
          "type": "uint256"
        }
      ],
      "name": "increaseAllowance",
      "outputs": [
        {
          "internalType": "bool",
          "name": "",
          "type": "bool"
        }
      ],
      "stateMutability": "nonpayable",
      "type": "function"
    },
    {
      "inputs": [],
      "name": "name",
      "outputs": [
        {
          "internalType": "string",
          "name": "",
          "type": "string"
        }
      ],
      "stateMutability": "view",
      "type": "function"
    },
    {
      "inputs": [],
      "name": "owner",
      "outputs": [
        {
          "internalType": "address",
          "name": "",
          "type": "address"
        }
      ],
      "stateMutability": "view",
      "type": "function"
    },
    {
      "inputs": [],
      "name": "paused",
      "outputs": [
        {
          "internalType": "bool",
          "name": "",
          "type": "bool"
        }
      ],
      "stateMutability": "view",
      "type": "function"
    },
    {
      "inputs": [],
      "name": "proposedImplementation",
      "outputs": [
        {
          "internalType": "address",
          "name": "",
          "type": "address"
        }
      ],
      "stateMutability": "view",
      "type": "function"
    },
    {
      "inputs": [],
      "name": "proxiableUUID",
      "outputs": [
        {
          "internalType": "bytes32",
          "name": "",
          "type": "bytes32"
        }
      ],
      "stateMutability": "view",
      "type": "function"
    },
    {
      "inputs": [],
      "name": "renounceOwnership",
      "outputs": [],
      "stateMutability": "nonpayable",
      "type": "function"
    },
    {
      "inputs": [],
      "name": "symbol",
      "outputs": [
        {
          "internalType": "string",
          "name": "",
          "type": "string"
        }
      ],
      "stateMutability": "view",
      "type": "function"
    },
    {
      "inputs": [],
      "name": "totalSupply",
      "outputs": [
        {
          "internalType": "uint256",
          "name": "",
          "type": "uint256"
        }
      ],
      "stateMutability": "view",
      "type": "function"
    },
    {
      "inputs": [
        {
          "internalType": "address",
          "name": "newOwner",
          "type": "address"
        }
      ],
      "name": "transferOwnership",
      "outputs": [],
      "stateMutability": "nonpayable",
      "type": "function"
    },
    {
      "inputs": [],
      "name": "underlyingAsset",
      "outputs": [
        {
          "internalType": "address",
          "name": "",
          "type": "address"
        }
      ],
      "stateMutability": "view",
      "type": "function"
    },
    {
      "inputs": [],
      "name": "upgradeDelay",
      "outputs": [
        {
          "internalType": "uint256",
          "name": "",
          "type": "uint256"
        }
      ],
      "stateMutability": "view",
      "type": "function"
    },
    {
      "inputs": [],
      "name": "upgradeProposalTime",
      "outputs": [
        {
          "internalType": "uint256",
          "name": "",
          "type": "uint256"
        }
      ],
      "stateMutability": "view",
      "type": "function"
    },
    {
      "inputs": [
        {
          "internalType": "address",
          "name": "newImplementation",
          "type": "address"
        }
      ],
      "name": "upgradeTo",
      "outputs": [],
      "stateMutability": "nonpayable",
      "type": "function"
    },
    {
      "inputs": [
        {
          "internalType": "address",
          "name": "newImplementation",
          "type": "address"
        },
        {
          "internalType": "bytes",
          "name": "data",
          "type": "bytes"
        }
      ],
      "name": "upgradeToAndCall",
      "outputs": [],
      "stateMutability": "payable",
      "type": "function"
    },
    {
      "inputs": [
        {
          "internalType": "string",
          "name": "name_",
          "type": "string"
        },
        {
          "internalType": "string",
          "name": "symbol_",
          "type": "string"
        },
        {
          "internalType": "address",
          "name": "_underlyingAsset",
          "type": "address"
        },
        {
          "internalType": "address",
          "name": "initialOwner",
          "type": "address"
        },
        {
          "internalType": "uint256",
          "name": "_upgradeDelay",
          "type": "uint256"
        }
      ],
      "name": "initialize",
      "outputs": [],
      "stateMutability": "nonpayable",
      "type": "function"
    },
    {
      "inputs": [
        {
          "internalType": "address",
          "name": "to",
          "type": "address"
        },
        {
          "internalType": "uint256",
          "name": "amount",
          "type": "uint256"
        }
      ],
      "name": "mint",
      "outputs": [],
      "stateMutability": "nonpayable",
      "type": "function"
    },
    {
      "inputs": [
        {
          "internalType": "address",
          "name": "from",
          "type": "address"
        },
        {
          "internalType": "uint256",
          "name": "amount",
          "type": "uint256"
        }
      ],
      "name": "burn",
      "outputs": [],
      "stateMutability": "nonpayable",
      "type": "function"
    },
    {
      "inputs": [
        {
          "internalType": "address[]",
          "name": "recipients",
          "type": "address[]"
        },
        {
          "internalType": "uint256[]",
          "name": "amounts",
          "type": "uint256[]"
        }
      ],
      "name": "batchMint",
      "outputs": [],
      "stateMutability": "nonpayable",
      "type": "function"
    },
    {
      "inputs": [
        {
          "internalType": "address[]",
          "name": "accounts",
          "type": "address[]"
        },
        {
          "internalType": "uint256[]",
          "name": "amounts",
          "type": "uint256[]"
        }
      ],
      "name": "batchBurn",
      "outputs": [],
      "stateMutability": "nonpayable",
      "type": "function"
    },
    {
      "inputs": [],
      "name": "pause",
      "outputs": [],
      "stateMutability": "nonpayable",
      "type": "function"
    },
    {
      "inputs": [],
      "name": "unpause",
      "outputs": [],
      "stateMutability": "nonpayable",
      "type": "function"
    },
    {
      "inputs": [
        {
          "internalType": "address",
          "name": "newImplementation",
          "type": "address"
        }
      ],
      "name": "proposeUpgrade",
      "outputs": [],
      "stateMutability": "nonpayable",
      "type": "function"
    },
    {
      "inputs": [],
      "name": "getProposedImplementation",
      "outputs": [
        {
          "internalType": "address",
          "name": "",
          "type": "address"
        }
      ],
      "stateMutability": "view",
      "type": "function"
    },
    {
      "inputs": [],
      "name": "getUpgradeProposalTime",
      "outputs": [
        {
          "internalType": "uint256",
          "name": "",
          "type": "uint256"
        }
      ],
      "stateMutability": "view",
      "type": "function"
    },
    {
      "inputs": [
        {
          "internalType": "address",
          "name": "",
          "type": "address"
        },
        {
          "internalType": "uint256",
          "name": "",
          "type": "uint256"
        }
      ],
      "name": "transfer",
      "outputs": [
        {
          "internalType": "bool",
          "name": "",
          "type": "bool"
        }
      ],
      "stateMutability": "nonpayable",
      "type": "function"
    },
    {
      "inputs": [
        {
          "internalType": "address",
          "name": "",
          "type": "address"
        },
        {
          "internalType": "address",
          "name": "",
          "type": "address"
        },
        {
          "internalType": "uint256",
          "name": "",
          "type": "uint256"
        }
      ],
      "name": "transferFrom",
      "outputs": [
        {
          "internalType": "bool",
          "name": "",
          "type": "bool"
        }
      ],
      "stateMutability": "nonpayable",
      "type": "function"
    }
  ],
  "bytecode": "0x60a0604052346200003657620000146200003b565b604051612b38620000a18239608051818181610bea01526112a80152612b3890f35b600080fd5b6200004562000047565b565b620000456200004562000090565b6200006b906200006e906001600160a01b031682565b90565b6001600160a01b031690565b6200006b9062000055565b6200006b906200007a565b6200009b3062000085565b60805256fe6080604052600436101561001257600080fd5b60003560e01c806306fdde0314610212578063095ea7b31461020d57806318160ddd1461020857806323b872dd14610203578063313ce567146101fe5780633659cfe6146101f957806339509351146101f45780633f4ba83a146101ef57806340381738146101ea57806340c10f19146101e55780634a6cc677146101e05780634f1ef286146101db57806352d1902d146101d65780635ac22bf8146101d15780635c975abb146101cc578063651eebfe146101c757806368573107146101c257806370a08231146101bd578063715018a6146101b85780637158da7c146101b35780637e48d4ea146101ae5780638456cb59146101a95780638da5cb5b146101a457806395d89b411461019f5780639dc29fac1461019a578063a457c2d714610195578063a9059cbb14610190578063bb057c5e1461018b578063c915fc9314610186578063c9aba0aa14610181578063dd62ed3e1461017c5763f2fde38b0361021757610938565b61091c565b6108dd565b61085c565b610841565b61081e565b610802565b6107e9565b6107ce565b6107b3565b61079b565b610780565b610758565b610714565b6106f9565b6106dd565b6106c2565b610684565b61065d565b610629565b610615565b610502565b61046e565b610453565b61043b565b61041f565b610402565b6103bf565b6103a9565b610354565b610326565b610296565b600080fd5b600091031261021757565b60005b83811061023a5750506000910152565b818101518382015260200161022a565b61026b61027460209361027e9361025f815190565b80835293849260200190565b95869101610227565b601f01601f191690565b0190565b60208082526102939291019061024a565b90565b34610217576102a636600461021c565b6102bd6102b1610a48565b60405191829182610282565b0390f35b6001600160a01b031690565b6102d6816102c1565b0361021757565b905035906102ea826102cd565b565b806102d6565b905035906102ea826102ec565b91906040838203126102175761029390602061031b82866102dd565b94016102f2565b9052565b34610217576102bd61034261033c3660046102ff565b90610a52565b60405191829182901515815260200190565b346102175761036436600461021c565b6102bd61036f610a73565b6040515b9182918290815260200190565b90916060828403126102175761029361039984846102dd565b93604061031b82602087016102dd565b34610217576103b9366004610380565b91610a7d565b34610217576103cf36600461021c565b6102bd6103da610ae3565b6040519182918260ff909116815260200190565b9060208282031261021757610293916102dd565b346102175761041a6104153660046103ee565b610caf565b604051005b34610217576102bd6103426104353660046102ff565b90610ce0565b346102175761044b36600461021c565b61041a610d4c565b346102175761046336600461021c565b6102bd61036f610d54565b346102175761041a6104813660046102ff565b90610ede565b909182601f83011215610217578135916001600160401b03831161021757602001926020830284011161021757565b90916040828403126102175781356001600160401b03811161021757836104de918401610487565b92909360208201356001600160401b038111610217576104fe9201610487565b9091565b346102175761041a6105153660046104b6565b929190916111e7565b634e487b7160e01b600052604160045260246000fd5b90601f01601f191681019081106001600160401b0382111761055557604052565b61051e565b906102ea61056760405190565b9283610534565b6001600160401b03811161055557602090601f01601f19160190565b90826000939282370152565b909291926105ab6105a68261056e565b61055a565b9381855281830111610217576102ea91602085019061058a565b9080601f830112156102175781602061029393359101610596565b919091604081840312610217576105f783826102dd565b9260208201356001600160401b0381116102175761029392016105c5565b61041a6106233660046105e0565b90611219565b346102175761063936600461021c565b6102bd61036f611309565b610322906102c1565b6020810192916102ea9190610644565b346102175761066d36600461021c565b6102bd610678611313565b6040519182918261064d565b346102175761069436600461021c565b6102bd610342611331565b610293916008021c81565b90610293915461069f565b61029360006101616106aa565b34610217576106d236600461021c565b6102bd61036f6106b5565b346102175761041a6106f03660046104b6565b92919091611437565b34610217576102bd61036f61070f3660046103ee565b61145b565b346102175761072436600461021c565b61041a611494565b610293916008021c6001600160a01b031690565b90610293915461072c565b610293600061015f610740565b346102175761076836600461021c565b6102bd61067861074b565b61029360006101606106aa565b346102175761079036600461021c565b6102bd61036f610773565b34610217576107ab36600461021c565b61041a6114d9565b34610217576107c336600461021c565b6102bd6106786114e1565b34610217576107de36600461021c565b6102bd6102b16114eb565b346102175761041a6107fc3660046102ff565b90611578565b34610217576102bd6103426108183660046102ff565b906115dc565b346102175761082e3660046102ff565b90610a7d565b6102936000610162610740565b346102175761085136600461021c565b6102bd610678610834565b346102175761041a61086f3660046103ee565b61173a565b919060a0838203126102175782356001600160401b038111610217578161089c9185016105c5565b9260208101356001600160401b03811161021757826108bc9183016105c5565b926102936108cd84604085016102dd565b93608061031b82606087016102dd565b346102175761041a6108f0366004610874565b93929092611b88565b91906040838203126102175761029390602061091582866102dd565b94016102dd565b34610217576102bd61036f6109323660046108f9565b90611b95565b346102175761041a61094b3660046103ee565b611c45565b634e487b7160e01b600052602260045260246000fd5b9060016002830492168015610986575b602083101461098157565b610950565b91607f1691610976565b805460009392916109ad6109a383610966565b8085529360200190565b91600181169081156109ff57506001146109c657505050565b6109d99192939450600052602060002090565b916000925b8184106109eb5750500190565b8054848401526020909301926001016109de565b92949550505060ff1916825215156020020190565b9061029391610990565b906102ea610a3892610a2f60405190565b93848092610a14565b0383610534565b61029390610a1e565b6102936036610a3f565b610a5d919033611cfd565b600190565b6102939081565b6102939054610a62565b6102936035610a69565b60405162461bcd60e51b815260206004820152602160248201527f44656274546f6b656e3a205472616e7366657273206172652064697361626c656044820152601960fa1b6064820152608490fd5b0390fd5b610add6102936102939290565b60ff1690565b6102936012610ad0565b610293906102c1906001600160a01b031682565b61029390610aed565b61029390610b01565b15610b1a57565b60405162461bcd60e51b815260206004820152602c60248201527f46756e6374696f6e206d7573742062652063616c6c6564207468726f7567682060448201526b19195b1959d85d1958d85b1b60a21b6064820152608490fd5b15610b7b57565b60405162461bcd60e51b815260206004820152602c60248201527f46756e6374696f6e206d7573742062652063616c6c6564207468726f7567682060448201526b6163746976652070726f787960a01b6064820152608490fd5b6102ea90610c3d610be530610b0a565b610c237f000000000000000000000000000000000000000000000000000000000000000091610c1c610c16846102c1565b916102c1565b1415610b13565b610c37610c16610c31611d81565b926102c1565b14610b74565b610c89565b6102936102936102939290565b90610c5c6105a68361056e565b918252565b369037565b906102ea610c7c610c7684610c4f565b9361056e565b601f190160208401610c61565b60006102ea91610c9881611ee9565b610ca9610ca483610c42565b610c66565b90611f9a565b6102ea90610bd5565b634e487b7160e01b600052601160045260246000fd5b91908201809211610cdb57565b610cb8565b610a5d9190610cf93392610cf48385611b95565b610cce565b91611cfd565b610d076120f9565b6102ea610d1261216c565b7f5db9ee0a495bf2e6ff9c91a7834c1ba4fdd244a5e8aa4e537bd38aeae4b073aa610d3c60405190565b80610d47338261064d565b0390a1565b6102ea610cff565b610293610161610a69565b906102ea91610d6c6120f9565b906102ea91610d796121b3565b90610d8b91610d8661221c565b610e4a565b6102ea612250565b6102c16102936102939290565b61029390610d93565b15610db057565b60405162461bcd60e51b815260206004820152600f60248201526e496e76616c6964206164647265737360881b6044820152606490fd5b15610dee57565b60405162461bcd60e51b815280610acc600482016020808252818101527f416d6f756e74206d7573742062652067726561746572207468616e207a65726f604082015260600190565b610293906102c1565b6102939054610e37565b610e6f610e5f610e5a6000610da0565b6102c1565b610e68836102c1565b1415610da9565b610e84610e7c6000610c42565b835b11610de7565b610e8e82826122a7565b7f582189f7394b93e93476738fd1de7cf483e1f99dfb27e00a7c345a393eefe18c610ed9610ecf610ec9610ec361015f610e40565b94610b0a565b93610b0a565b9361037360405190565b0390a3565b906102ea91610d5f565b906102ea939291610ef76120f9565b906102ea939291610f066121b3565b90610d8b939291610f1561221c565b6110d7565b15610f2157565b60405162461bcd60e51b8152602060048201526016602482015275082e4e4c2f2e640d8cadccee8d040dad2e6dac2e8c6d60531b6044820152606490fd5b15610f6657565b60405162461bcd60e51b815260206004820152600c60248201526b456d7074792061727261797360a01b6044820152606490fd5b15610fa157565b60405162461bcd60e51b815260206004820152601460248201527342617463682073697a6520746f6f206c6172676560601b6044820152606490fd5b634e487b7160e01b600052603260045260246000fd5b9190811015611003576020020190565b610fdd565b35610293816102cd565b35610293816102ec565b9061027e81602093610644565b506102939060208101906102dd565b818352602090920191906000825b828210611054575050505090565b9091929361107761107060019261106b8886611029565b61101c565b9560200190565b93920190611046565b9037565b8183529091602001916001600160fb1b038111610217578291602061027e9202938491611080565b92906110c990610293959360408601918683036000880152611038565b926020818503910152611084565b929080936110e7835b8614610f1a565b6000956110fd6110f688610c42565b8711610f5f565b61111261110a6064610c42565b871115610f9a565b61111b87610c42565b865b8110156111a9576111a2816111518a610e68610c16610e5a61114b61114661111d998d8d610ff3565b611008565b93610da0565b611177611167611162838a8c610ff3565b611012565b610e7e6111738d610c42565b9190565b61119c611188611146838989610ff3565b611196611162848b8d610ff3565b906123dd565b60010190565b905061111b565b509550917f95eb041e116443e44d5e5f89bba504bd288df2a00235f6996ba6d0cee74f14a19450610d4791936111de60405190565b948594856110ac565b906102ea939291610ee8565b906102ea91611204610be530610b0a565b6102ea9160019161121481611ee9565b611f9a565b906102ea916111f3565b1561122a57565b60405162461bcd60e51b815260206004820152603860248201527f555550535570677261646561626c653a206d757374206e6f742062652063616c6044820152771b1959081d1a1c9bdd59da0819195b1959d85d1958d85b1b60421b6064820152608490fd5b610293906112d26112a030610b0a565b6112cc610c167f00000000000000000000000000000000000000000000000000000000000000006102c1565b14611223565b611300565b6102937f360894a13ba1a3210667c828492db98dca3e2076cc3735a920a3ca505d382bbc610c42565b506102936112d7565b6102936000611290565b610293610162610e40565b61029390610add565b610293905461131e565b61029360fb611327565b906102ea93929161134a6120f9565b906102ea9392916113596121b3565b90610d8b93929161136861221c565b92908093611375836110e0565b6000956113846110f688610c42565b61139161110a6064610c42565b61139a87610c42565b865b811015611402576113fb816113c58a610e68610c16610e5a61114b61114661139c998d8d610ff3565b6113d6611167611162838a8c610ff3565b61119c6113e7611146838989610ff3565b6113f5611162848b8d610ff3565b906122a7565b905061139a565b509550917fb2d52f51d17f6a36667bdd9225bf0f8b6a5e043af71d7ab20c3bb5047089eacf9450610d4791936111de60405190565b906102ea93929161133b565b9061144d90610b0a565b600052602052604060002090565b6114726102939161146a600090565b506033611443565b610a69565b61147f6120f9565b6102ea6102ea61148f6000610da0565b61246b565b6102ea611477565b6114a46120f9565b6102ea6114af6124ff565b7f62e78cea01bee320cd4e420270b5ea74000d11b0c9f74754ebdbfc544b05a258610d3c60405190565b6102ea61149c565b6102936065610e40565b6102936037610a3f565b906102ea916115026120f9565b906102ea9161150f6121b3565b90610d8b9161151c61221c565b61152c610e5f610e5a6000610da0565b611539610e7c6000610c42565b61154382826123dd565b7feef1a28252f7c3266ccea3202ee9693f0834485bc3551310a406e04829c7e2cf610ed9610ecf610ec9610ec361015f610e40565b906102ea916114f5565b1561158957565b60405162461bcd60e51b815260206004820152602560248201527f45524332303a2064656372656173656420616c6c6f77616e63652062656c6f77604482015264207a65726f60d81b6064820152608490fd5b610a5d9190610cf933926115f08385611b95565b6115fc82821015611582565b0390565b6102ea9061160c6120f9565b6116ae565b1561161857565b60405162461bcd60e51b815260206004820152601e60248201527f496e76616c696420696d706c656d656e746174696f6e206164647265737300006044820152606490fd5b90600019905b9181191691161790565b9061167d61029361168492610c42565b825461165d565b9055565b906001600160a01b0390611663565b906116a761029361168492610b0a565b8254611688565b6116ce6116be610e5a6000610da0565b6116c7836102c1565b1415611611565b6116ed6116e56116df610160610a69565b42610cce565b61016161166d565b6116f981610162611697565b7fea80d7bcdb5b960a75976c0e94d2d4b2077378cfea983c73b49501b8613da22461173561172b610ec9610161610a69565b9261037360405190565b0390a2565b6102ea90611600565b6102939060081c610add565b6102939054611743565b1561176057565b60405162461bcd60e51b815260206004820152602e60248201527f496e697469616c697a61626c653a20636f6e747261637420697320616c72656160448201526d191e481a5b9a5d1a585b1a5e995960921b6064820152608490fd5b9060ff90611663565b610add6102936102939260ff1690565b906117e5610293611684926117c5565b82546117bc565b9061ff009060081b611663565b9061180961029361168492151590565b82546117ec565b61032290610ad0565b6020810192916102ea9190611810565b9391611877939161184161183d600061174f565b1590565b958680611914575b80156118cf575b61185990611759565b8661186e6118676001610ad0565b60006117d5565b6118be57611a8e565b61187d57565b6118886000806117f9565b7f7f26b83ff96e1f2b6a682f133852f6798a09c465da95921460cefb38474024986118b260405190565b80610d47600182611819565b6118ca600160006117f9565b611a8e565b506118e461183d6118df30610b0a565b612507565b801561185057506118596118f86000611327565b61190c6119056001610ad0565b9160ff1690565b149050611850565b5061191f6000611327565b61192c6119056001610ad0565b10611849565b1561193957565b60405162461bcd60e51b8152602060048201526012602482015271496e76616c696420746f6b656e206e616d6560701b6044820152606490fd5b1561197a57565b60405162461bcd60e51b8152602060048201526014602482015273125b9d985b1a59081d1bdad95b881cde5b589bdb60621b6044820152606490fd5b156119bd57565b60405162461bcd60e51b815280610acc600482016020808252818101527f496e76616c696420756e6465726c79696e672061737365742061646472657373604082015260600190565b15611a0d57565b60405162461bcd60e51b8152602060048201526015602482015274496e76616c6964206f776e6572206164647265737360581b6044820152606490fd5b15611a5157565b60405162461bcd60e51b8152602060048201526015602482015274496e76616c696420757067726164652064656c617960581b6044820152606490fd5b611b4e92611b3e6102ea969593611b4693611b1c611b0c611af0611ab6611ab28590565b5190565b611ace600091611ac861117384610c42565b11611932565b611aeb611ad9875190565b611ae561117384610c42565b11611973565b610da0565b610e5a611afc826102c1565b611b05896102c1565b14156119b6565b611b15886102c1565b1415611a06565b611b27610e10610c42565b88101580611b6e575b611b3990611a4a565b61259a565b61015f611697565b61094b6125bc565b611b566125d1565b611b5e6125f1565b611b66612611565b61016061166d565b50611b39611b7e62278d00610c42565b8911159050611b30565b906102ea94939291611829565b61029391611bb061147292611ba8600090565b506034611443565b611443565b6102ea90611bc16120f9565b611c21565b15611bcd57565b60405162461bcd60e51b815260206004820152602660248201527f4f776e61626c653a206e6577206f776e657220697320746865207a65726f206160448201526564647265737360d01b6064820152608490fd5b6102ea9061148f611c35610e5a6000610da0565b611c3e836102c1565b1415611bc6565b6102ea90611bb5565b15611c5557565b60405162461bcd60e51b8152602060048201526024808201527f45524332303a20617070726f76652066726f6d20746865207a65726f206164646044820152637265737360e01b6064820152608490fd5b15611cad57565b60405162461bcd60e51b815260206004820152602260248201527f45524332303a20617070726f766520746f20746865207a65726f206164647265604482015261737360f01b6064820152608490fd5b610ed9610ecf610ec97f8c5be1e5ebec7d5bd14f71427d1e84f3dd0314c0f7b2291e5b200ac8c7c3b92593611d64611d54611d386000610da0565b610e5a611d44826102c1565b611d4d866102c1565b1415611c4e565b611d5d886102c1565b1415611ca6565b611d7c87611d7788611bb0856034611443565b61166d565b610b0a565b6102936000611d916102936112d7565b01610e40565b6102ea90611da36120f9565b611e72565b15611daf57565b60405162461bcd60e51b815260206004820152601660248201527524b73b30b634b21034b6b83632b6b2b73a30ba34b7b760511b6044820152606490fd5b15611df457565b60405162461bcd60e51b8152602060048201526014602482015273151a5b595b1bd8dac81b9bdd08195b185c1cd95960621b6044820152606490fd5b15611e3757565b60405162461bcd60e51b8152602060048201526013602482015272139bc81d5c19dc985919481c1c9bdc1bdcd959606a1b6044820152606490fd5b611e8d90611e87610c16610e5a610162610e40565b14611da8565b611ea6611e9e610293610161610a69565b421015611ded565b611ec7611eb4610161610a69565b611ec16111736000610c42565b11611e30565b611ed46116e56000610c42565b6102ea611ee16000610da0565b610162611697565b6102ea90611d97565b6102937f4910fdfa16fed3260ed0e7147f7cc6da11a60208b5b9406d12a635614ffd9143610c42565b905051906102ea826102ec565b906020828203126102175761029391611f1b565b15611f4357565b60405162461bcd60e51b815260206004820152602960248201527f45524331393637557067726164653a20756e737570706f727465642070726f786044820152681a58589b195555525160ba1b6064820152608490fd5b9190611fb26000611fac610293611ef2565b01611327565b15611fc25750506102ea906126ba565b611fce611d7c84610b0a565b926020611fda60405190565b6352d1902d60e01b815294859060049082905afa60009481612078575b506120585760405162461bcd60e51b815260206004820152602e60248201527f45524331393637557067726164653a206e657720696d706c656d656e7461746960448201526d6f6e206973206e6f74205555505360901b6064820152608490fd5b6120736102ea9461206d6111736102936112d7565b14611f3c565b612619565b61209b91955060203d6020116120a2575b6120938183610534565b810190611f28565b9338611ff7565b503d612089565b156120b057565b60405162461bcd60e51b815280610acc600482016020808252818101527f4f776e61626c653a2063616c6c6572206973206e6f7420746865206f776e6572604082015260600190565b6102ea6121046114e1565b612110610c16336102c1565b146120a9565b61211e612725565b6102ea612136565b906117e561029361168492151590565b612142600060fb612126565b7f5db9ee0a495bf2e6ff9c91a7834c1ba4fdd244a5e8aa4e537bd38aeae4b073aa610d4733610678565b6102ea612116565b1561217b57565b60405162461bcd60e51b815260206004820152601060248201526f14185d5cd8589b194e881c185d5cd95960821b6044820152606490fd5b6102ea6121c161183d611331565b612174565b6102936002610c42565b156121d757565b60405162461bcd60e51b815260206004820152601f60248201527f5265656e7472616e637947756172643a207265656e7472616e742063616c6c006044820152606490fd5b6102ea61222a61012d610a69565b61223e6122356121c6565b918214156121d0565b61012d61166d565b6102936001610c42565b6102ea61223e612246565b1561226257565b60405162461bcd60e51b815260206004820152601f60248201527f45524332303a206d696e7420746f20746865207a65726f2061646472657373006044820152606490fd5b7fddf252ad1be2c89b69c2b068fc378daa952ba7f163c4a11628f55a4df523b3ef610ed9610ecf610ec96122db6000610da0565b6122f76122e7826102c1565b6122f0886102c1565b141561225b565b61230f61230888610cf46035610a69565b603561166d565b611d7c61231d876033611443565b61232a8961027e83610a69565b9061166d565b1561233757565b60405162461bcd60e51b815260206004820152602160248201527f45524332303a206275726e2066726f6d20746865207a65726f206164647265736044820152607360f81b6064820152608490fd5b1561238d57565b60405162461bcd60e51b815260206004820152602260248201527f45524332303a206275726e20616d6f756e7420657863656564732062616c616e604482015261636560f01b6064820152608490fd5b7fddf252ad1be2c89b69c2b068fc378daa952ba7f163c4a11628f55a4df523b3ef610ed9610ecf610ec96124116000610da0565b9461242e61241e876102c1565b612427836102c1565b1415612330565b61245a61244f88612443611472856033611443565b6115fc82821015612386565b611d77836033611443565b611d7c612308886115fc6035610a69565b61248c61248661247b6065610e40565b611d7c846065611697565b91610b0a565b907f8be0079c531659141344cd1fd0a4f28419497f9722a3daafe3b4186f6b6457e06124b760405190565b8080610ed9565b6124c66121b3565b6102ea6124d5600160fb612126565b7f62e78cea01bee320cd4e420270b5ea74000d11b0c9f74754ebdbfc544b05a258610d4733610678565b6102ea6124be565b3b6125156111736000610c42565b1190565b1561252057565b60405162461bcd60e51b815260206004820152602b60248201527f496e697469616c697a61626c653a20636f6e7472616374206973206e6f74206960448201526a6e697469616c697a696e6760a81b6064820152608490fd5b906102ea9161259061258b600061174f565b612519565b906102ea916128f8565b906102ea91612579565b6125b161258b600061174f565b6102ea6102ea612919565b6102ea6125a4565b6102ea61258b600061174f565b6102ea6125c4565b6125e661258b600061174f565b6102ea6102ea61293d565b6102ea6125d9565b61260661258b600061174f565b6102ea6102ea612952565b6102ea6125f9565b916126238361295a565b81516126326111736000610c42565b11908115612650575b50612644575050565b61264d916129e3565b50565b90503861263b565b1561265f57565b60405162461bcd60e51b815260206004820152602d60248201527f455243313936373a206e657720696d706c656d656e746174696f6e206973206e60448201526c1bdd08184818dbdb9d1c9858dd609a1b6064820152608490fd5b6102ea906126cf6126ca82612507565b612658565b60006126dc6102936112d7565b01611697565b156126e957565b60405162461bcd60e51b815260206004820152601460248201527314185d5cd8589b194e881b9bdd081c185d5cd95960621b6044820152606490fd5b6102ea612730611331565b6126e2565b906102ea9161274761258b600061174f565b6128e2565b9160001960089290920291821b911b611663565b919061277161029361168493610c42565b90835461274c565b6102ea91600091612760565b818110612790575050565b8061279e6000600193612779565b01612785565b9190601f81116127b357505050565b6127c56102ea93600052602060002090565b906020601f8401819004830193106127e7575b6020601f909101040190612785565b90915081906127d8565b9060001960089091021c191690565b8161280a916127f1565b906002021790565b9061281b815190565b906001600160401b0382116105555761283e826128388554610966565b856127a4565b602090601f831160011461286c57611684929160009183612861575b5050612800565b01519050388061285a565b601f1983169161288185600052602060002090565b9260005b8181106128c0575091600293918560019694106128a6575b50505002019055565b6128b6910151601f8416906127f1565b905538808061289d565b91936020600181928787015181550195019201612885565b906102ea91612812565b906128f16102ea9260366128d8565b60376128d8565b906102ea91612735565b61290f61258b600061174f565b6102ea803361246b565b6102ea612902565b61292e61258b600061174f565b6102ea6102ea600060fb612126565b6102ea612921565b610d8b61258b600061174f565b6102ea612945565b61296790611d7c816126ba565b7fbc7cd75a20ee27fd9adebab32041f755214dbc6bffa90cc0225b39da2e5c2d3b61299160405190565b8080611735565b6129a26027610c4f565b7f416464726573733a206c6f772d6c6576656c2064656c65676174652063616c6c6020820152660819985a5b195960ca1b604082015290565b610293612998565b610293916129ef6129db565b91612a14565b3d15612a0f57612a043d610c4f565b903d6000602084013e565b606090565b6000806102939493612a24606090565b50602081519101845af4612a366129f5565b91612a88565b15612a4357565b60405162461bcd60e51b815260206004820152601d60248201527f416464726573733a2063616c6c20746f206e6f6e2d636f6e74726163740000006044820152606490fd5b91929015612aba57508151612aa06111736000610c42565b14612aa9575090565b612ab561029391612507565b612a3c565b8290612ac4825190565b612ad16111736000610c42565b1115612ae05750805190602001fd5b610acc90612aed60405190565b62461bcd60e51b81529182916004830161028256fea2646970667358221220f31ccf6ad8008c22a45972b42d50a95fedc8d283ba66432add55f3c0b33d8d0364736f6c63430008180033",
  "immutableReferences": {
    "1339": [
      {
        "length": 32,
        "start": 3050
      },
      {
        "length": 32,
        "start": 4776
      }
    ]
  },
  "source": "// SPDX-License-Identifier: MIT\r\npragma solidity ^0.8.24;\r\n\r\nimport \"@openzeppelin/contracts-upgradeable/token/ERC20/ERC20Upgradeable.sol\";\r\nimport \"@openzeppelin/contracts-upgradeable/access/OwnableUpgradeable.sol\";\r\nimport \"@openzeppelin/contracts-upgradeable/proxy/utils/Initializable.sol\";\r\nimport \"@openzeppelin/contracts-upgradeable/proxy/utils/UUPSUpgradeable.sol\";\r\nimport \"@openzeppelin/contracts-upgradeable/security/PausableUpgradeable.sol\";\r\nimport \"@openzeppelin/contracts-upgradeable/security/ReentrancyGuardUpgradeable.sol\";\r\n\r\n/**\r\n * @title DebtToken\r\n * @dev Upgradeable ERC20 token representing user debt in a lending protocol\r\n * @notice Tracks debt for a specific asset, minted when borrowing and burned upon repayment.\r\n *         Only the owner (LendingPool) can mint/burn tokens. Supports pausing, upgrades with a timelock,\r\n *         and reentrancy protection for future-proofing.\r\n */\r\ncontract DebtToken is Initializable, ERC20Upgradeable, OwnableUpgradeable, UUPSUpgradeable, PausableUpgradeable, ReentrancyGuardUpgradeable {\r\n    /// @notice Address of the underlying asset (e.g., USDC) associated with this debt token\r\n    address public underlyingAsset;\r\n\r\n    /// @notice Delay for contract upgrades (in seconds)\r\n    uint256 public upgradeDelay;\r\n    /// @notice Timestamp when the proposed upgrade can be executed\r\n    uint256 public upgradeProposalTime;\r\n    /// @notice Proposed new implementation address for the upgrade\r\n    address public proposedImplementation;\r\n\r\n    /// @notice Emitted when debt tokens are minted\r\n    event DebtMinted(address indexed user, address indexed underlyingAsset, uint256 amount);\r\n    /// @notice Emitted when debt tokens are burned\r\n    event DebtRepaid(address indexed user, address indexed underlyingAsset, uint256 amount);\r\n    /// @notice Emitted when an upgrade is proposed\r\n    event UpgradeProposed(address indexed newImplementation, uint256 proposalTime);\r\n    /// @notice Emitted when debt tokens are minted in batch\r\n    event BatchDebtMinted(address[] recipients, uint256[] amounts);\r\n    /// @notice Emitted when debt tokens are burned in batch\r\n    event BatchDebtRepaid(address[] accounts, uint256[] amounts);\r\n\r\n    /**\r\n     * @dev Constructor is replaced by initializer for upgradeable contracts\r\n     * @param name_ Token name (e.g., \"Debt USDC\")\r\n     * @param symbol_ Token symbol (e.g., \"dUSDC\")\r\n     * @param _underlyingAsset Address of the underlying asset (e.g., USDC)\r\n     * @param _upgradeDelay Delay for upgrades in seconds (min 1 hour, max 30 days)\r\n     */\r\n    function initialize(\r\n        string memory name_,\r\n        string memory symbol_,\r\n        address _underlyingAsset,\r\n        address initialOwner,\r\n        uint256 _upgradeDelay\r\n    ) public initializer {\r\n        require(bytes(name_).length > 0, \"Invalid token name\");\r\n        require(bytes(symbol_).length > 0, \"Invalid token symbol\");\r\n        require(_underlyingAsset != address(0), \"Invalid underlying asset address\");\r\n        require(initialOwner != address(0), \"Invalid owner address\");\r\n        require(_upgradeDelay >= 1 hours && _upgradeDelay <= 30 days, \"Invalid upgrade delay\");\r\n        __ERC20_init(name_, symbol_);\r\n        underlyingAsset = _underlyingAsset;\r\n        __Ownable_init(); // FIXED: Removed initialOwner parameter\r\n        transferOwnership(initialOwner); // FIXED: Set owner explicitly\r\n        __UUPSUpgradeable_init();\r\n        __Pausable_init();\r\n        __ReentrancyGuard_init();\r\n        upgradeDelay = _upgradeDelay;\r\n    }\r\n\r\n    /**\r\n     * @notice Mints debt tokens to a user, representing new debt\r\n     * @dev Only callable by the owner (LendingPool) when not paused, with reentrancy protection\r\n     * @param to Address receiving the debt tokens\r\n     * @param amount Amount of debt tokens to mint, in wei\r\n     */\r\n    function mint(address to, uint256 amount) external onlyOwner whenNotPaused nonReentrant {\r\n        require(to != address(0), \"Invalid address\");\r\n        require(amount > 0, \"Amount must be greater than zero\");\r\n        _mint(to, amount);\r\n        emit DebtMinted(to, underlyingAsset, amount);\r\n    }\r\n\r\n    /**\r\n     * @notice Burns debt tokens from a user, representing debt repayment\r\n     * @dev Only callable by the owner (LendingPool) when not paused, with reentrancy protection\r\n     * @param from Address from which to burn debt tokens\r\n     * @param amount Amount of debt tokens to burn, in wei\r\n     */\r\n    function burn(address from, uint256 amount) external onlyOwner whenNotPaused nonReentrant {\r\n        require(from != address(0), \"Invalid address\");\r\n        require(amount > 0, \"Amount must be greater than zero\");\r\n        _burn(from, amount);\r\n        emit DebtRepaid(from, underlyingAsset, amount);\r\n    }\r\n\r\n    /**\r\n     * @notice Mints debt tokens to multiple users in a single transaction\r\n     * @dev Only callable by the owner (LendingPool) when not paused, with reentrancy protection\r\n     * @param recipients Array of addresses receiving the debt tokens\r\n     * @param amounts Array of amounts to mint for each recipient\r\n     */\r\n    function batchMint(address[] calldata recipients, uint256[] calldata amounts) external onlyOwner whenNotPaused nonReentrant {\r\n        require(recipients.length == amounts.length, \"Arrays length mismatch\");\r\n        require(recipients.length > 0, \"Empty arrays\");\r\n        require(recipients.length <= 100, \"Batch size too large\");\r\n        for (uint256 i = 0; i < recipients.length; i++) {\r\n            require(recipients[i] != address(0), \"Invalid address\");\r\n            require(amounts[i] > 0, \"Amount must be greater than zero\");\r\n            _mint(recipients[i], amounts[i]);\r\n        }\r\n        emit BatchDebtMinted(recipients, amounts);\r\n    }\r\n\r\n    /**\r\n     * @notice Burns debt tokens from multiple users in a single transaction\r\n     * @dev Only callable by the owner (LendingPool) when not paused, with reentrancy protection\r\n     * @param accounts Array of addresses from which to burn debt tokens\r\n     * @param amounts Array of amounts to burn for each account\r\n     */\r\n    function batchBurn(address[] calldata accounts, uint256[] calldata amounts) external onlyOwner whenNotPaused nonReentrant {\r\n        require(accounts.length == amounts.length, \"Arrays length mismatch\");\r\n        require(accounts.length > 0, \"Empty arrays\");\r\n        require(accounts.length <= 100, \"Batch size too large\");\r\n        for (uint256 i = 0; i < accounts.length; i++) {\r\n            require(accounts[i] != address(0), \"Invalid address\");\r\n            require(amounts[i] > 0, \"Amount must be greater than zero\");\r\n            _burn(accounts[i], amounts[i]);\r\n        }\r\n        emit BatchDebtRepaid(accounts, amounts);\r\n    }\r\n\r\n    /**\r\n     * @notice Pauses minting and burning operations\r\n     * @dev Only callable by the owner\r\n     */\r\n    function pause() external onlyOwner {\r\n        _pause();\r\n        emit Paused(msg.sender);\r\n    }\r\n\r\n    /**\r\n     * @notice Unpauses minting and burning operations\r\n     * @dev Only callable by the owner\r\n     */\r\n    function unpause() external onlyOwner {\r\n        _unpause();\r\n        emit Unpaused(msg.sender);\r\n    }\r\n\r\n    /**\r\n     * @notice Proposes a new implementation for the contract upgrade\r\n     * @dev Only callable by the owner. The upgrade can only be executed after the timelock period (upgradeDelay) has passed.\r\n     * @param newImplementation Address of the new contract implementation\r\n     */\r\n    function proposeUpgrade(address newImplementation) external onlyOwner {\r\n        require(newImplementation != address(0), \"Invalid implementation address\");\r\n        upgradeProposalTime = block.timestamp + upgradeDelay;\r\n        proposedImplementation = newImplementation;\r\n        emit UpgradeProposed(newImplementation, upgradeProposalTime);\r\n    }\r\n\r\n    /**\r\n     * @dev Authorizes the upgrade to the proposed implementation after the timelock period\r\n     * @param newImplementation Address of the new contract implementation\r\n     * @notice Only callable by the owner. The newImplementation must match the proposedImplementation, and the timelock must have elapsed.\r\n     */\r\n    function _authorizeUpgrade(address newImplementation) internal override onlyOwner {\r\n        require(newImplementation == proposedImplementation, \"Invalid implementation\");\r\n        require(block.timestamp >= upgradeProposalTime, \"Timelock not elapsed\");\r\n        require(upgradeProposalTime > 0, \"No upgrade proposed\");\r\n        upgradeProposalTime = 0;\r\n        proposedImplementation = address(0);\r\n    }\r\n\r\n    /**\r\n     * @notice Returns the proposed implementation address\r\n     * @return Address of the proposed implementation\r\n     */\r\n    function getProposedImplementation() external view returns (address) {\r\n        return proposedImplementation;\r\n    }\r\n\r\n    /**\r\n     * @notice Returns the timestamp when the proposed upgrade can be executed\r\n     * @return Timestamp of the proposed upgrade\r\n     */\r\n    function getUpgradeProposalTime() external view returns (uint256) {\r\n        return upgradeProposalTime;\r\n    }\r\n\r\n    /**\r\n     * @notice Disables token transfers\r\n     * @dev Debt tokens are non-transferable to ensure protocol integrity\r\n     */\r\n    function transfer(address, uint256) public virtual override returns (bool) {\r\n        revert(\"DebtToken: Transfers are disabled\");\r\n    }\r\n\r\n    /**\r\n     * @notice Disables token transfers\r\n     * @dev Debt tokens are non-transferable to ensure protocol integrity\r\n     */\r\n    function transferFrom(address, address, uint256) public virtual override returns (bool) {\r\n        revert(\"DebtToken: Transfers are disabled\");\r\n    }\r\n}",
  "sourcePath": "C:\\Users\\DR. EMMA\\my-project\\lumora\\contracts\\DebtToken.sol",
  "compiler": {
    "name": "solc",
    "version": "0.8.24+commit.e11b9ed9.Emscripten.clang"
  },
  "schemaVersion": "3.4.16",
  "updatedAt": "2025-06-04T21:49:36.680Z",
  "devdoc": {
    "details": "Upgradeable ERC20 token representing user debt in a lending protocol",
    "events": {
      "AdminChanged(address,address)": {
        "details": "Emitted when the admin account has changed."
      },
      "Approval(address,address,uint256)": {
        "details": "Emitted when the allowance of a `spender` for an `owner` is set by a call to {approve}. `value` is the new allowance."
      },
      "BeaconUpgraded(address)": {
        "details": "Emitted when the beacon is changed."
      },
      "Initialized(uint8)": {
        "details": "Triggered when the contract has been initialized or reinitialized."
      },
      "Paused(address)": {
        "details": "Emitted when the pause is triggered by `account`."
      },
      "Transfer(address,address,uint256)": {
        "details": "Emitted when `value` tokens are moved from one account (`from`) to another (`to`). Note that `value` may be zero."
      },
      "Unpaused(address)": {
        "details": "Emitted when the pause is lifted by `account`."
      },
      "Upgraded(address)": {
        "details": "Emitted when the implementation is upgraded."
      }
    },
    "kind": "dev",
    "methods": {
      "allowance(address,address)": {
        "details": "See {IERC20-allowance}."
      },
      "approve(address,uint256)": {
        "details": "See {IERC20-approve}. NOTE: If `amount` is the maximum `uint256`, the allowance is not updated on `transferFrom`. This is semantically equivalent to an infinite approval. Requirements: - `spender` cannot be the zero address."
      },
      "balanceOf(address)": {
        "details": "See {IERC20-balanceOf}."
      },
      "batchBurn(address[],uint256[])": {
        "details": "Only callable by the owner (LendingPool) when not paused, with reentrancy protection",
        "params": {
          "accounts": "Array of addresses from which to burn debt tokens",
          "amounts": "Array of amounts to burn for each account"
        }
      },
      "batchMint(address[],uint256[])": {
        "details": "Only callable by the owner (LendingPool) when not paused, with reentrancy protection",
        "params": {
          "amounts": "Array of amounts to mint for each recipient",
          "recipients": "Array of addresses receiving the debt tokens"
        }
      },
      "burn(address,uint256)": {
        "details": "Only callable by the owner (LendingPool) when not paused, with reentrancy protection",
        "params": {
          "amount": "Amount of debt tokens to burn, in wei",
          "from": "Address from which to burn debt tokens"
        }
      },
      "decimals()": {
        "details": "Returns the number of decimals used to get its user representation. For example, if `decimals` equals `2`, a balance of `505` tokens should be displayed to a user as `5.05` (`505 / 10 ** 2`). Tokens usually opt for a value of 18, imitating the relationship between Ether and Wei. This is the default value returned by this function, unless it's overridden. NOTE: This information is only used for _display_ purposes: it in no way affects any of the arithmetic of the contract, including {IERC20-balanceOf} and {IERC20-transfer}."
      },
      "decreaseAllowance(address,uint256)": {
        "details": "Atomically decreases the allowance granted to `spender` by the caller. This is an alternative to {approve} that can be used as a mitigation for problems described in {IERC20-approve}. Emits an {Approval} event indicating the updated allowance. Requirements: - `spender` cannot be the zero address. - `spender` must have allowance for the caller of at least `subtractedValue`."
      },
      "getProposedImplementation()": {
        "returns": {
          "_0": "Address of the proposed implementation"
        }
      },
      "getUpgradeProposalTime()": {
        "returns": {
          "_0": "Timestamp of the proposed upgrade"
        }
      },
      "increaseAllowance(address,uint256)": {
        "details": "Atomically increases the allowance granted to `spender` by the caller. This is an alternative to {approve} that can be used as a mitigation for problems described in {IERC20-approve}. Emits an {Approval} event indicating the updated allowance. Requirements: - `spender` cannot be the zero address."
      },
      "initialize(string,string,address,address,uint256)": {
        "details": "Constructor is replaced by initializer for upgradeable contracts",
        "params": {
          "_underlyingAsset": "Address of the underlying asset (e.g., USDC)",
          "_upgradeDelay": "Delay for upgrades in seconds (min 1 hour, max 30 days)",
          "name_": "Token name (e.g., \"Debt USDC\")",
          "symbol_": "Token symbol (e.g., \"dUSDC\")"
        }
      },
      "mint(address,uint256)": {
        "details": "Only callable by the owner (LendingPool) when not paused, with reentrancy protection",
        "params": {
          "amount": "Amount of debt tokens to mint, in wei",
          "to": "Address receiving the debt tokens"
        }
      },
      "name()": {
        "details": "Returns the name of the token."
      },
      "owner()": {
        "details": "Returns the address of the current owner."
      },
      "pause()": {
        "details": "Only callable by the owner"
      },
      "paused()": {
        "details": "Returns true if the contract is paused, and false otherwise."
      },
      "proposeUpgrade(address)": {
        "details": "Only callable by the owner. The upgrade can only be executed after the timelock period (upgradeDelay) has passed.",
        "params": {
          "newImplementation": "Address of the new contract implementation"
        }
      },
      "proxiableUUID()": {
        "details": "Implementation of the ERC1822 {proxiableUUID} function. This returns the storage slot used by the implementation. It is used to validate the implementation's compatibility when performing an upgrade. IMPORTANT: A proxy pointing at a proxiable contract should not be considered proxiable itself, because this risks bricking a proxy that upgrades to it, by delegating to itself until out of gas. Thus it is critical that this function revert if invoked through a proxy. This is guaranteed by the `notDelegated` modifier."
      },
      "renounceOwnership()": {
        "details": "Leaves the contract without owner. It will not be possible to call `onlyOwner` functions. Can only be called by the current owner. NOTE: Renouncing ownership will leave the contract without an owner, thereby disabling any functionality that is only available to the owner."
      },
      "symbol()": {
        "details": "Returns the symbol of the token, usually a shorter version of the name."
      },
      "totalSupply()": {
        "details": "See {IERC20-totalSupply}."
      },
      "transfer(address,uint256)": {
        "details": "Debt tokens are non-transferable to ensure protocol integrity"
      },
      "transferFrom(address,address,uint256)": {
        "details": "Debt tokens are non-transferable to ensure protocol integrity"
      },
      "transferOwnership(address)": {
        "details": "Transfers ownership of the contract to a new account (`newOwner`). Can only be called by the current owner."
      },
      "unpause()": {
        "details": "Only callable by the owner"
      },
      "upgradeTo(address)": {
        "custom:oz-upgrades-unsafe-allow-reachable": "delegatecall",
        "details": "Upgrade the implementation of the proxy to `newImplementation`. Calls {_authorizeUpgrade}. Emits an {Upgraded} event."
      },
      "upgradeToAndCall(address,bytes)": {
        "custom:oz-upgrades-unsafe-allow-reachable": "delegatecall",
        "details": "Upgrade the implementation of the proxy to `newImplementation`, and subsequently execute the function call encoded in `data`. Calls {_authorizeUpgrade}. Emits an {Upgraded} event."
      }
    },
    "title": "DebtToken",
    "version": 1
  },
  "userdoc": {
    "events": {
      "BatchDebtMinted(address[],uint256[])": {
        "notice": "Emitted when debt tokens are minted in batch"
      },
      "BatchDebtRepaid(address[],uint256[])": {
        "notice": "Emitted when debt tokens are burned in batch"
      },
      "DebtMinted(address,address,uint256)": {
        "notice": "Emitted when debt tokens are minted"
      },
      "DebtRepaid(address,address,uint256)": {
        "notice": "Emitted when debt tokens are burned"
      },
      "UpgradeProposed(address,uint256)": {
        "notice": "Emitted when an upgrade is proposed"
      }
    },
    "kind": "user",
    "methods": {
      "batchBurn(address[],uint256[])": {
        "notice": "Burns debt tokens from multiple users in a single transaction"
      },
      "batchMint(address[],uint256[])": {
        "notice": "Mints debt tokens to multiple users in a single transaction"
      },
      "burn(address,uint256)": {
        "notice": "Burns debt tokens from a user, representing debt repayment"
      },
      "getProposedImplementation()": {
        "notice": "Returns the proposed implementation address"
      },
      "getUpgradeProposalTime()": {
        "notice": "Returns the timestamp when the proposed upgrade can be executed"
      },
      "mint(address,uint256)": {
        "notice": "Mints debt tokens to a user, representing new debt"
      },
      "pause()": {
        "notice": "Pauses minting and burning operations"
      },
      "proposeUpgrade(address)": {
        "notice": "Proposes a new implementation for the contract upgrade"
      },
      "proposedImplementation()": {
        "notice": "Proposed new implementation address for the upgrade"
      },
      "transfer(address,uint256)": {
        "notice": "Disables token transfers"
      },
      "transferFrom(address,address,uint256)": {
        "notice": "Disables token transfers"
      },
      "underlyingAsset()": {
        "notice": "Address of the underlying asset (e.g., USDC) associated with this debt token"
      },
      "unpause()": {
        "notice": "Unpauses minting and burning operations"
      },
      "upgradeDelay()": {
        "notice": "Delay for contract upgrades (in seconds)"
      },
      "upgradeProposalTime()": {
        "notice": "Timestamp when the proposed upgrade can be executed"
      }
    },
    "notice": "Tracks debt for a specific asset, minted when borrowing and burned upon repayment.         Only the owner (LendingPool) can mint/burn tokens. Supports pausing, upgrades with a timelock,         and reentrancy protection for future-proofing.",
    "version": 1
  }
}