{
  "contractName": "GovernanceToken",
  "abi": [
    {
      "anonymous": false,
      "inputs": [
        {
          "indexed": false,
          "internalType": "address",
          "name": "previousAdmin",
          "type": "address"
        },
        {
          "indexed": false,
          "internalType": "address",
          "name": "newAdmin",
          "type": "address"
        }
      ],
      "name": "AdminChanged",
      "type": "event"
    },
    {
      "anonymous": false,
      "inputs": [
        {
          "indexed": true,
          "internalType": "address",
          "name": "owner",
          "type": "address"
        },
        {
          "indexed": true,
          "internalType": "address",
          "name": "spender",
          "type": "address"
        },
        {
          "indexed": false,
          "internalType": "uint256",
          "name": "value",
          "type": "uint256"
        }
      ],
      "name": "Approval",
      "type": "event"
    },
    {
      "anonymous": false,
      "inputs": [
        {
          "indexed": true,
          "internalType": "address",
          "name": "beacon",
          "type": "address"
        }
      ],
      "name": "BeaconUpgraded",
      "type": "event"
    },
    {
      "anonymous": false,
      "inputs": [
        {
          "indexed": true,
          "internalType": "address",
          "name": "oldBridge",
          "type": "address"
        },
        {
          "indexed": true,
          "internalType": "address",
          "name": "fallbackBridge",
          "type": "address"
        },
        {
          "indexed": false,
          "internalType": "uint256",
          "name": "timestamp",
          "type": "uint256"
        }
      ],
      "name": "BridgeRevoked",
      "type": "event"
    },
    {
      "anonymous": false,
      "inputs": [
        {
          "indexed": true,
          "internalType": "uint256",
          "name": "proposalId",
          "type": "uint256"
        },
        {
          "indexed": true,
          "internalType": "address",
          "name": "approver",
          "type": "address"
        }
      ],
      "name": "BridgeUpdateApproved",
      "type": "event"
    },
    {
      "anonymous": false,
      "inputs": [
        {
          "indexed": true,
          "internalType": "uint256",
          "name": "proposalId",
          "type": "uint256"
        },
        {
          "indexed": false,
          "internalType": "uint256",
          "name": "timestamp",
          "type": "uint256"
        }
      ],
      "name": "BridgeUpdateCancelled",
      "type": "event"
    },
    {
      "anonymous": false,
      "inputs": [
        {
          "indexed": false,
          "internalType": "uint256",
          "name": "oldDelay",
          "type": "uint256"
        },
        {
          "indexed": false,
          "internalType": "uint256",
          "name": "newDelay",
          "type": "uint256"
        },
        {
          "indexed": false,
          "internalType": "uint256",
          "name": "timestamp",
          "type": "uint256"
        }
      ],
      "name": "BridgeUpdateDelaySet",
      "type": "event"
    },
    {
      "anonymous": false,
      "inputs": [
        {
          "indexed": true,
          "internalType": "uint256",
          "name": "proposalId",
          "type": "uint256"
        },
        {
          "indexed": true,
          "internalType": "address",
          "name": "newBridge",
          "type": "address"
        },
        {
          "indexed": false,
          "internalType": "uint256",
          "name": "executedTime",
          "type": "uint256"
        }
      ],
      "name": "BridgeUpdateExecuted",
      "type": "event"
    },
    {
      "anonymous": false,
      "inputs": [
        {
          "indexed": true,
          "internalType": "uint256",
          "name": "proposalId",
          "type": "uint256"
        },
        {
          "indexed": true,
          "internalType": "address",
          "name": "newBridge",
          "type": "address"
        },
        {
          "indexed": false,
          "internalType": "uint256",
          "name": "proposedTime",
          "type": "uint256"
        },
        {
          "indexed": false,
          "internalType": "uint256",
          "name": "chainId",
          "type": "uint256"
        }
      ],
      "name": "BridgeUpdateProposed",
      "type": "event"
    },
    {
      "anonymous": false,
      "inputs": [
        {
          "indexed": true,
          "internalType": "address",
          "name": "from",
          "type": "address"
        },
        {
          "indexed": false,
          "internalType": "uint256",
          "name": "amount",
          "type": "uint256"
        },
        {
          "indexed": false,
          "internalType": "uint256",
          "name": "chainId",
          "type": "uint256"
        },
        {
          "indexed": false,
          "internalType": "uint256",
          "name": "timestamp",
          "type": "uint256"
        },
        {
          "indexed": false,
          "internalType": "uint256",
          "name": "blockNumber",
          "type": "uint256"
        }
      ],
      "name": "Burn",
      "type": "event"
    },
    {
      "anonymous": false,
      "inputs": [
        {
          "indexed": false,
          "internalType": "uint256",
          "name": "chainId",
          "type": "uint256"
        },
        {
          "indexed": false,
          "internalType": "bool",
          "name": "supported",
          "type": "bool"
        },
        {
          "indexed": false,
          "internalType": "uint256",
          "name": "timestamp",
          "type": "uint256"
        }
      ],
      "name": "ChainSupportUpdated",
      "type": "event"
    },
    {
      "anonymous": false,
      "inputs": [
        {
          "indexed": true,
          "internalType": "address",
          "name": "to",
          "type": "address"
        },
        {
          "indexed": false,
          "internalType": "uint256",
          "name": "amount",
          "type": "uint256"
        },
        {
          "indexed": false,
          "internalType": "uint256",
          "name": "sourceChainId",
          "type": "uint256"
        },
        {
          "indexed": false,
          "internalType": "bytes32",
          "name": "nonce",
          "type": "bytes32"
        },
        {
          "indexed": false,
          "internalType": "uint256",
          "name": "timestamp",
          "type": "uint256"
        }
      ],
      "name": "CrossChainTransfer",
      "type": "event"
    },
    {
      "anonymous": false,
      "inputs": [
        {
          "indexed": false,
          "internalType": "bool",
          "name": "paused",
          "type": "bool"
        },
        {
          "indexed": false,
          "internalType": "uint256",
          "name": "timestamp",
          "type": "uint256"
        }
      ],
      "name": "EmergencyBridgePause",
      "type": "event"
    },
    {
      "anonymous": false,
      "inputs": [
        {
          "indexed": false,
          "internalType": "uint8",
          "name": "version",
          "type": "uint8"
        }
      ],
      "name": "Initialized",
      "type": "event"
    },
    {
      "anonymous": false,
      "inputs": [
        {
          "indexed": false,
          "internalType": "uint256",
          "name": "oldMaxSupply",
          "type": "uint256"
        },
        {
          "indexed": false,
          "internalType": "uint256",
          "name": "newMaxSupply",
          "type": "uint256"
        },
        {
          "indexed": false,
          "internalType": "uint256",
          "name": "timestamp",
          "type": "uint256"
        }
      ],
      "name": "MaxSupplySet",
      "type": "event"
    },
    {
      "anonymous": false,
      "inputs": [
        {
          "indexed": true,
          "internalType": "address",
          "name": "to",
          "type": "address"
        },
        {
          "indexed": false,
          "internalType": "uint256",
          "name": "amount",
          "type": "uint256"
        },
        {
          "indexed": false,
          "internalType": "uint256",
          "name": "chainId",
          "type": "uint256"
        },
        {
          "indexed": false,
          "internalType": "uint256",
          "name": "timestamp",
          "type": "uint256"
        },
        {
          "indexed": false,
          "internalType": "uint256",
          "name": "blockNumber",
          "type": "uint256"
        }
      ],
      "name": "Mint",
      "type": "event"
    },
    {
      "anonymous": false,
      "inputs": [
        {
          "indexed": true,
          "internalType": "bytes32",
          "name": "nonce",
          "type": "bytes32"
        },
        {
          "indexed": false,
          "internalType": "uint256",
          "name": "chainId",
          "type": "uint256"
        },
        {
          "indexed": false,
          "internalType": "uint256",
          "name": "timestamp",
          "type": "uint256"
        }
      ],
      "name": "NonceReclaimed",
      "type": "event"
    },
    {
      "anonymous": false,
      "inputs": [
        {
          "indexed": false,
          "internalType": "address",
          "name": "account",
          "type": "address"
        }
      ],
      "name": "Paused",
      "type": "event"
    },
    {
      "anonymous": false,
      "inputs": [
        {
          "indexed": false,
          "internalType": "uint256",
          "name": "oldRequiredApprovals",
          "type": "uint256"
        },
        {
          "indexed": false,
          "internalType": "uint256",
          "name": "newRequiredApprovals",
          "type": "uint256"
        },
        {
          "indexed": false,
          "internalType": "uint256",
          "name": "timestamp",
          "type": "uint256"
        }
      ],
      "name": "RequiredApprovalsSet",
      "type": "event"
    },
    {
      "anonymous": false,
      "inputs": [
        {
          "indexed": true,
          "internalType": "bytes32",
          "name": "role",
          "type": "bytes32"
        },
        {
          "indexed": true,
          "internalType": "bytes32",
          "name": "previousAdminRole",
          "type": "bytes32"
        },
        {
          "indexed": true,
          "internalType": "bytes32",
          "name": "newAdminRole",
          "type": "bytes32"
        }
      ],
      "name": "RoleAdminChanged",
      "type": "event"
    },
    {
      "anonymous": false,
      "inputs": [
        {
          "indexed": true,
          "internalType": "bytes32",
          "name": "role",
          "type": "bytes32"
        },
        {
          "indexed": true,
          "internalType": "address",
          "name": "account",
          "type": "address"
        },
        {
          "indexed": true,
          "internalType": "address",
          "name": "sender",
          "type": "address"
        }
      ],
      "name": "RoleGranted",
      "type": "event"
    },
    {
      "anonymous": false,
      "inputs": [
        {
          "indexed": true,
          "internalType": "bytes32",
          "name": "role",
          "type": "bytes32"
        },
        {
          "indexed": true,
          "internalType": "address",
          "name": "account",
          "type": "address"
        },
        {
          "indexed": true,
          "internalType": "address",
          "name": "sender",
          "type": "address"
        }
      ],
      "name": "RoleRevoked",
      "type": "event"
    },
    {
      "anonymous": false,
      "inputs": [
        {
          "indexed": true,
          "internalType": "address",
          "name": "from",
          "type": "address"
        },
        {
          "indexed": true,
          "internalType": "address",
          "name": "to",
          "type": "address"
        },
        {
          "indexed": false,
          "internalType": "uint256",
          "name": "value",
          "type": "uint256"
        }
      ],
      "name": "Transfer",
      "type": "event"
    },
    {
      "anonymous": false,
      "inputs": [
        {
          "indexed": false,
          "internalType": "address",
          "name": "account",
          "type": "address"
        }
      ],
      "name": "Unpaused",
      "type": "event"
    },
    {
      "anonymous": false,
      "inputs": [
        {
          "indexed": true,
          "internalType": "address",
          "name": "implementation",
          "type": "address"
        }
      ],
      "name": "Upgraded",
      "type": "event"
    },
    {
      "anonymous": false,
      "inputs": [
        {
          "indexed": false,
          "internalType": "uint256",
          "name": "version",
          "type": "uint256"
        },
        {
          "indexed": true,
          "internalType": "address",
          "name": "newImplementation",
          "type": "address"
        },
        {
          "indexed": false,
          "internalType": "uint256",
          "name": "timestamp",
          "type": "uint256"
        }
      ],
      "name": "VersionUpgraded",
      "type": "event"
    },
    {
      "inputs": [],
      "name": "BRIDGE_ADMIN_ROLE",
      "outputs": [
        {
          "internalType": "bytes32",
          "name": "",
          "type": "bytes32"
        }
      ],
      "stateMutability": "view",
      "type": "function"
    },
    {
      "inputs": [],
      "name": "DEFAULT_ADMIN_ROLE",
      "outputs": [
        {
          "internalType": "bytes32",
          "name": "",
          "type": "bytes32"
        }
      ],
      "stateMutability": "view",
      "type": "function"
    },
    {
      "inputs": [],
      "name": "DEFAULT_MAX_SUPPLY",
      "outputs": [
        {
          "internalType": "uint256",
          "name": "",
          "type": "uint256"
        }
      ],
      "stateMutability": "view",
      "type": "function"
    },
    {
      "inputs": [],
      "name": "MAX_DELAY",
      "outputs": [
        {
          "internalType": "uint256",
          "name": "",
          "type": "uint256"
        }
      ],
      "stateMutability": "view",
      "type": "function"
    },
    {
      "inputs": [],
      "name": "MINTER_ROLE",
      "outputs": [
        {
          "internalType": "bytes32",
          "name": "",
          "type": "bytes32"
        }
      ],
      "stateMutability": "view",
      "type": "function"
    },
    {
      "inputs": [],
      "name": "MIN_DELAY",
      "outputs": [
        {
          "internalType": "uint256",
          "name": "",
          "type": "uint256"
        }
      ],
      "stateMutability": "view",
      "type": "function"
    },
    {
      "inputs": [],
      "name": "PAUSER_ROLE",
      "outputs": [
        {
          "internalType": "bytes32",
          "name": "",
          "type": "bytes32"
        }
      ],
      "stateMutability": "view",
      "type": "function"
    },
    {
      "inputs": [],
      "name": "PROPOSAL_EXPIRY",
      "outputs": [
        {
          "internalType": "uint256",
          "name": "",
          "type": "uint256"
        }
      ],
      "stateMutability": "view",
      "type": "function"
    },
    {
      "inputs": [],
      "name": "UPGRADER_ROLE",
      "outputs": [
        {
          "internalType": "bytes32",
          "name": "",
          "type": "bytes32"
        }
      ],
      "stateMutability": "view",
      "type": "function"
    },
    {
      "inputs": [
        {
          "internalType": "address",
          "name": "owner",
          "type": "address"
        },
        {
          "internalType": "address",
          "name": "spender",
          "type": "address"
        }
      ],
      "name": "allowance",
      "outputs": [
        {
          "internalType": "uint256",
          "name": "",
          "type": "uint256"
        }
      ],
      "stateMutability": "view",
      "type": "function"
    },
    {
      "inputs": [
        {
          "internalType": "address",
          "name": "spender",
          "type": "address"
        },
        {
          "internalType": "uint256",
          "name": "amount",
          "type": "uint256"
        }
      ],
      "name": "approve",
      "outputs": [
        {
          "internalType": "bool",
          "name": "",
          "type": "bool"
        }
      ],
      "stateMutability": "nonpayable",
      "type": "function"
    },
    {
      "inputs": [
        {
          "internalType": "address",
          "name": "account",
          "type": "address"
        }
      ],
      "name": "balanceOf",
      "outputs": [
        {
          "internalType": "uint256",
          "name": "",
          "type": "uint256"
        }
      ],
      "stateMutability": "view",
      "type": "function"
    },
    {
      "inputs": [],
      "name": "bridgeContract",
      "outputs": [
        {
          "internalType": "address",
          "name": "",
          "type": "address"
        }
      ],
      "stateMutability": "view",
      "type": "function"
    },
    {
      "inputs": [
        {
          "internalType": "uint256",
          "name": "",
          "type": "uint256"
        }
      ],
      "name": "bridgeProposals",
      "outputs": [
        {
          "internalType": "address",
          "name": "newBridge",
          "type": "address"
        },
        {
          "internalType": "uint256",
          "name": "proposedTime",
          "type": "uint256"
        },
        {
          "internalType": "uint256",
          "name": "approvalCount",
          "type": "uint256"
        },
        {
          "internalType": "bool",
          "name": "executed",
          "type": "bool"
        },
        {
          "internalType": "bool",
          "name": "cancelled",
          "type": "bool"
        }
      ],
      "stateMutability": "view",
      "type": "function"
    },
    {
      "inputs": [],
      "name": "bridgeUpdateDelay",
      "outputs": [
        {
          "internalType": "uint256",
          "name": "",
          "type": "uint256"
        }
      ],
      "stateMutability": "view",
      "type": "function"
    },
    {
      "inputs": [],
      "name": "decimals",
      "outputs": [
        {
          "internalType": "uint8",
          "name": "",
          "type": "uint8"
        }
      ],
      "stateMutability": "view",
      "type": "function"
    },
    {
      "inputs": [
        {
          "internalType": "address",
          "name": "spender",
          "type": "address"
        },
        {
          "internalType": "uint256",
          "name": "subtractedValue",
          "type": "uint256"
        }
      ],
      "name": "decreaseAllowance",
      "outputs": [
        {
          "internalType": "bool",
          "name": "",
          "type": "bool"
        }
      ],
      "stateMutability": "nonpayable",
      "type": "function"
    },
    {
      "inputs": [
        {
          "internalType": "bytes32",
          "name": "role",
          "type": "bytes32"
        }
      ],
      "name": "getRoleAdmin",
      "outputs": [
        {
          "internalType": "bytes32",
          "name": "",
          "type": "bytes32"
        }
      ],
      "stateMutability": "view",
      "type": "function"
    },
    {
      "inputs": [
        {
          "internalType": "bytes32",
          "name": "role",
          "type": "bytes32"
        },
        {
          "internalType": "address",
          "name": "account",
          "type": "address"
        }
      ],
      "name": "grantRole",
      "outputs": [],
      "stateMutability": "nonpayable",
      "type": "function"
    },
    {
      "inputs": [
        {
          "internalType": "bytes32",
          "name": "role",
          "type": "bytes32"
        },
        {
          "internalType": "address",
          "name": "account",
          "type": "address"
        }
      ],
      "name": "hasRole",
      "outputs": [
        {
          "internalType": "bool",
          "name": "",
          "type": "bool"
        }
      ],
      "stateMutability": "view",
      "type": "function"
    },
    {
      "inputs": [
        {
          "internalType": "address",
          "name": "spender",
          "type": "address"
        },
        {
          "internalType": "uint256",
          "name": "addedValue",
          "type": "uint256"
        }
      ],
      "name": "increaseAllowance",
      "outputs": [
        {
          "internalType": "bool",
          "name": "",
          "type": "bool"
        }
      ],
      "stateMutability": "nonpayable",
      "type": "function"
    },
    {
      "inputs": [],
      "name": "maxSupply",
      "outputs": [
        {
          "internalType": "uint256",
          "name": "",
          "type": "uint256"
        }
      ],
      "stateMutability": "view",
      "type": "function"
    },
    {
      "inputs": [],
      "name": "name",
      "outputs": [
        {
          "internalType": "string",
          "name": "",
          "type": "string"
        }
      ],
      "stateMutability": "view",
      "type": "function"
    },
    {
      "inputs": [
        {
          "internalType": "uint256",
          "name": "",
          "type": "uint256"
        },
        {
          "internalType": "bytes32",
          "name": "",
          "type": "bytes32"
        }
      ],
      "name": "nonceStatus",
      "outputs": [
        {
          "internalType": "enum GovernanceToken.NonceStatus",
          "name": "",
          "type": "uint8"
        }
      ],
      "stateMutability": "view",
      "type": "function"
    },
    {
      "inputs": [],
      "name": "paused",
      "outputs": [
        {
          "internalType": "bool",
          "name": "",
          "type": "bool"
        }
      ],
      "stateMutability": "view",
      "type": "function"
    },
    {
      "inputs": [],
      "name": "proposalCount",
      "outputs": [
        {
          "internalType": "uint256",
          "name": "",
          "type": "uint256"
        }
      ],
      "stateMutability": "view",
      "type": "function"
    },
    {
      "inputs": [],
      "name": "proxiableUUID",
      "outputs": [
        {
          "internalType": "bytes32",
          "name": "",
          "type": "bytes32"
        }
      ],
      "stateMutability": "view",
      "type": "function"
    },
    {
      "inputs": [
        {
          "internalType": "bytes32",
          "name": "role",
          "type": "bytes32"
        },
        {
          "internalType": "address",
          "name": "account",
          "type": "address"
        }
      ],
      "name": "renounceRole",
      "outputs": [],
      "stateMutability": "nonpayable",
      "type": "function"
    },
    {
      "inputs": [],
      "name": "requiredApprovals",
      "outputs": [
        {
          "internalType": "uint256",
          "name": "",
          "type": "uint256"
        }
      ],
      "stateMutability": "view",
      "type": "function"
    },
    {
      "inputs": [
        {
          "internalType": "bytes32",
          "name": "role",
          "type": "bytes32"
        },
        {
          "internalType": "address",
          "name": "account",
          "type": "address"
        }
      ],
      "name": "revokeRole",
      "outputs": [],
      "stateMutability": "nonpayable",
      "type": "function"
    },
    {
      "inputs": [
        {
          "internalType": "uint256",
          "name": "",
          "type": "uint256"
        }
      ],
      "name": "supportedChainIds",
      "outputs": [
        {
          "internalType": "bool",
          "name": "",
          "type": "bool"
        }
      ],
      "stateMutability": "view",
      "type": "function"
    },
    {
      "inputs": [
        {
          "internalType": "bytes4",
          "name": "interfaceId",
          "type": "bytes4"
        }
      ],
      "name": "supportsInterface",
      "outputs": [
        {
          "internalType": "bool",
          "name": "",
          "type": "bool"
        }
      ],
      "stateMutability": "view",
      "type": "function"
    },
    {
      "inputs": [],
      "name": "symbol",
      "outputs": [
        {
          "internalType": "string",
          "name": "",
          "type": "string"
        }
      ],
      "stateMutability": "view",
      "type": "function"
    },
    {
      "inputs": [],
      "name": "totalCrossChainSupply",
      "outputs": [
        {
          "internalType": "uint256",
          "name": "",
          "type": "uint256"
        }
      ],
      "stateMutability": "view",
      "type": "function"
    },
    {
      "inputs": [
        {
          "internalType": "address",
          "name": "from",
          "type": "address"
        },
        {
          "internalType": "address",
          "name": "to",
          "type": "address"
        },
        {
          "internalType": "uint256",
          "name": "amount",
          "type": "uint256"
        }
      ],
      "name": "transferFrom",
      "outputs": [
        {
          "internalType": "bool",
          "name": "",
          "type": "bool"
        }
      ],
      "stateMutability": "nonpayable",
      "type": "function"
    },
    {
      "inputs": [
        {
          "internalType": "address",
          "name": "newImplementation",
          "type": "address"
        }
      ],
      "name": "upgradeTo",
      "outputs": [],
      "stateMutability": "nonpayable",
      "type": "function"
    },
    {
      "inputs": [
        {
          "internalType": "address",
          "name": "newImplementation",
          "type": "address"
        },
        {
          "internalType": "bytes",
          "name": "data",
          "type": "bytes"
        }
      ],
      "name": "upgradeToAndCall",
      "outputs": [],
      "stateMutability": "payable",
      "type": "function"
    },
    {
      "inputs": [],
      "name": "version",
      "outputs": [
        {
          "internalType": "uint256",
          "name": "",
          "type": "uint256"
        }
      ],
      "stateMutability": "view",
      "type": "function"
    },
    {
      "inputs": [
        {
          "internalType": "address",
          "name": "admin",
          "type": "address"
        },
        {
          "internalType": "uint256",
          "name": "initialRequiredApprovals",
          "type": "uint256"
        },
        {
          "internalType": "address",
          "name": "initialBridge",
          "type": "address"
        },
        {
          "internalType": "uint256",
          "name": "initialMaxSupply",
          "type": "uint256"
        }
      ],
      "name": "initialize",
      "outputs": [],
      "stateMutability": "nonpayable",
      "type": "function"
    },
    {
      "inputs": [
        {
          "internalType": "uint256",
          "name": "newDelay",
          "type": "uint256"
        }
      ],
      "name": "setBridgeUpdateDelay",
      "outputs": [],
      "stateMutability": "nonpayable",
      "type": "function"
    },
    {
      "inputs": [
        {
          "internalType": "address",
          "name": "_newBridge",
          "type": "address"
        }
      ],
      "name": "proposeBridgeContract",
      "outputs": [],
      "stateMutability": "nonpayable",
      "type": "function"
    },
    {
      "inputs": [
        {
          "internalType": "uint256",
          "name": "proposalId",
          "type": "uint256"
        }
      ],
      "name": "approveBridgeContract",
      "outputs": [],
      "stateMutability": "nonpayable",
      "type": "function"
    },
    {
      "inputs": [
        {
          "internalType": "uint256",
          "name": "proposalId",
          "type": "uint256"
        }
      ],
      "name": "executeBridgeContract",
      "outputs": [],
      "stateMutability": "nonpayable",
      "type": "function"
    },
    {
      "inputs": [
        {
          "internalType": "uint256",
          "name": "proposalId",
          "type": "uint256"
        }
      ],
      "name": "cancelBridgeContractProposal",
      "outputs": [],
      "stateMutability": "nonpayable",
      "type": "function"
    },
    {
      "inputs": [
        {
          "internalType": "address",
          "name": "fallbackBridge",
          "type": "address"
        }
      ],
      "name": "revokeBridgeContract",
      "outputs": [],
      "stateMutability": "nonpayable",
      "type": "function"
    },
    {
      "inputs": [
        {
          "internalType": "uint256",
          "name": "chainId",
          "type": "uint256"
        },
        {
          "internalType": "bool",
          "name": "supported",
          "type": "bool"
        }
      ],
      "name": "updateChainSupport",
      "outputs": [],
      "stateMutability": "nonpayable",
      "type": "function"
    },
    {
      "inputs": [
        {
          "internalType": "address",
          "name": "to",
          "type": "address"
        },
        {
          "internalType": "uint256",
          "name": "amount",
          "type": "uint256"
        },
        {
          "internalType": "uint256",
          "name": "chainId",
          "type": "uint256"
        }
      ],
      "name": "mint",
      "outputs": [],
      "stateMutability": "nonpayable",
      "type": "function"
    },
    {
      "inputs": [
        {
          "internalType": "uint256",
          "name": "amount",
          "type": "uint256"
        },
        {
          "internalType": "uint256",
          "name": "chainId",
          "type": "uint256"
        }
      ],
      "name": "burn",
      "outputs": [],
      "stateMutability": "nonpayable",
      "type": "function"
    },
    {
      "inputs": [
        {
          "internalType": "address",
          "name": "to",
          "type": "address"
        },
        {
          "internalType": "uint256",
          "name": "amount",
          "type": "uint256"
        },
        {
          "internalType": "uint256",
          "name": "sourceChainId",
          "type": "uint256"
        },
        {
          "internalType": "bytes32",
          "name": "nonce",
          "type": "bytes32"
        }
      ],
      "name": "bridgeTransfer",
      "outputs": [],
      "stateMutability": "nonpayable",
      "type": "function"
    },
    {
      "inputs": [
        {
          "internalType": "bytes32",
          "name": "nonce",
          "type": "bytes32"
        },
        {
          "internalType": "uint256",
          "name": "sourceChainId",
          "type": "uint256"
        }
      ],
      "name": "markNonceFailed",
      "outputs": [],
      "stateMutability": "nonpayable",
      "type": "function"
    },
    {
      "inputs": [
        {
          "internalType": "bytes32",
          "name": "nonce",
          "type": "bytes32"
        },
        {
          "internalType": "uint256",
          "name": "sourceChainId",
          "type": "uint256"
        }
      ],
      "name": "reclaimNonce",
      "outputs": [],
      "stateMutability": "nonpayable",
      "type": "function"
    },
    {
      "inputs": [
        {
          "internalType": "address",
          "name": "to",
          "type": "address"
        },
        {
          "internalType": "uint256",
          "name": "amount",
          "type": "uint256"
        }
      ],
      "name": "transfer",
      "outputs": [
        {
          "internalType": "bool",
          "name": "",
          "type": "bool"
        }
      ],
      "stateMutability": "nonpayable",
      "type": "function"
    },
    {
      "inputs": [],
      "name": "totalSupply",
      "outputs": [
        {
          "internalType": "uint256",
          "name": "",
          "type": "uint256"
        }
      ],
      "stateMutability": "view",
      "type": "function"
    },
    {
      "inputs": [],
      "name": "pause",
      "outputs": [],
      "stateMutability": "nonpayable",
      "type": "function"
    },
    {
      "inputs": [],
      "name": "unpause",
      "outputs": [],
      "stateMutability": "nonpayable",
      "type": "function"
    },
    {
      "inputs": [
        {
          "internalType": "uint256",
          "name": "newRequiredApprovals",
          "type": "uint256"
        }
      ],
      "name": "setRequiredApprovals",
      "outputs": [],
      "stateMutability": "nonpayable",
      "type": "function"
    },
    {
      "inputs": [
        {
          "internalType": "uint256",
          "name": "newMaxSupply",
          "type": "uint256"
        }
      ],
      "name": "setMaxSupply",
      "outputs": [],
      "stateMutability": "nonpayable",
      "type": "function"
    },
    {
      "inputs": [
        {
          "internalType": "bool",
          "name": "paused",
          "type": "bool"
        }
      ],
      "name": "setBridgePaused",
      "outputs": [],
      "stateMutability": "nonpayable",
      "type": "function"
    }
  ],
  "bytecode": "0x60a0604052346200003657620000146200003b565b60405161475c620000a58239608051818181611fae01526122d2015261475c90f35b600080fd5b6200004562000047565b565b62000045620000456200004562000094565b6200006f9062000072906001600160a01b031682565b90565b6001600160a01b031690565b6200006f9062000059565b6200006f906200007e565b6200009f3062000089565b60805256fe6080604052600436101561001257600080fd5b60003560e01c806301ffc9a7146103ad57806304856cb3146103a857806306fdde03146103a3578063095ea7b31461039e578063118c38c714610399578063156e29f61461039457806318160ddd1461038f5780631f56772a1461038a578063222a242e1461038557806323b872dd14610380578063248a9ca31461037b5780632b58e196146103765780632bffaecf146103715780632f2ff15d1461036c578063313ce5671461036757806335ff674f1461036257806336568abe1461035d5780633659cfe61461035857806339509351146103535780633f4ba83a1461034e5780634125ff901461031257806341509fa6146103495780634cf2ab32146103445780634f1ef2861461033f57806352d1902d1461033a57806354fd4d50146103355780635c975abb146103305780636f8b44b01461032b57806370a082311461032657806374ac0ec1146103215780637588ad0e1461031c5780638456cb59146103175780638a14e3d0146103125780638a9968561461030d57806391d148541461030857806395d89b411461030357806399c1aadc146102fe5780639f81aed7146102f95780639fd04541146102f4578063a217fddf146102ef578063a457c2d7146102ea578063a9059cbb146102e5578063b390c0ab146102e0578063ba2756c9146102db578063cd596583146102d6578063d0089b93146102d1578063d5391393146102cc578063d547741f146102c7578063d5abeb01146102c2578063d74bb968146102bd578063da35c664146102b8578063dd62ed3e146102b3578063e24df754146102ae578063e3fb65c6146102a9578063e63ab1e9146102a4578063eec1344f1461029f578063f6a3ceb01461029a5763f72c0d8b036103b2576110b8565b611074565b61105c565b611041565b610ffd565b610fe1565b610f90565b610f59565b610f34565b610f19565b610ef3565b610ed8565b610e84565b610dec565b610d9c565b610d76565b610d5a565b610d3e565b610d23565b610cf8565b610cdd565b610cae565b610c86565b610c6a565b610c51565b610985565b610c1d565b610c04565b610bc9565b610b85565b610b6d565b610b52565b610b37565b610b0f565b610afb565b6109e6565b6109a0565b610959565b61093d565b610925565b6108f8565b6108dc565b610878565b61085f565b610821565b6107e6565b6107cb565b6107af565b61076e565b61073d565b61061a565b6105fc565b6105b8565b610570565b6104f1565b610459565b6103f4565b600080fd5b6001600160e01b031981165b036103b257565b905035906103d7826103b7565b565b906020828203126103b2576103ed916103ca565b90565b9052565b346103b25761042161040f61040a3660046103d9565b6110d3565b60405191829182901515815260200190565b0390f35b60009103126103b257565b6103ed6103ed6103ed9290565b6103ed6a52b7d2dcc80cd2e4000000610430565b6103ed61043d565b346103b257610469366004610425565b610421610474610451565b6040515b9182918290815260200190565b60005b8381106104985750506000910152565b8181015183820152602001610488565b6104c96104d26020936104dc936104bd815190565b80835293849260200190565b95869101610485565b601f01601f191690565b0190565b60208082526103ed929101906104a8565b346103b257610501366004610425565b61042161050c611205565b604051918291826104e0565b6001600160a01b031690565b6103c381610518565b905035906103d782610524565b806103c3565b905035906103d78261053a565b91906040838203126103b2576103ed906020610569828661052d565b9401610540565b346103b25761042161040f61058636600461054d565b9061120f565b7f751b795d24b92e3d92d1d0d8f2885f4e9c9c269da350af36ae6b49069babf4bf90565b6103ed61058c565b346103b2576105c8366004610425565b6104216104746105b0565b90916060828403126103b2576103ed6105ec848461052d565b9360406105698260208701610540565b346103b25761061561060f3660046105d3565b916115d6565b604051005b346103b25761062a366004610425565b6104216104746115e1565b906020828203126103b2576103ed91610540565b9061065390610430565b600052602052604060002090565b6103ed9054610518565b6103ed9081565b6103ed905461066b565b6103ed905b60ff1690565b6103ed905461067c565b6103ed9060081c610681565b6103ed9054610691565b6106b390610196610649565b6106bc81610661565b916106c960018301610672565b916106d660028201610672565b916103ed60046106e7818501610687565b930161069d565b6103f090610518565b909594926103d79461072c6107359261072560809661071e60a088019c60008901906106ee565b6020870152565b6040850152565b15156060830152565b019015159052565b346103b257610421610758610753366004610635565b6106a7565b9161076595939560405190565b958695866106f7565b346103b257610615610781366004610635565b6116ea565b90916060828403126103b2576103ed61079f848461052d565b936040610569826020870161052d565b346103b25761042161040f6107c5366004610786565b916116f3565b346103b2576104216104746107e1366004610635565b611709565b346103b2576106156107f9366004610635565b611aad565b6103ed916008021c81565b906103ed91546107fe565b6103ed6000610193610809565b346103b257610831366004610425565b610421610474610814565b91906040838203126103b2576103ed9060206108588286610540565b940161052d565b346103b25761061561087236600461083c565b90611ad1565b346103b257610888366004610425565b610421610893611ae8565b6040519182918260ff909116815260200190565b6080818303126103b2576108bb828261052d565b926103ed6108cc8460208501610540565b9360606105698260408701610540565b346103b2576106156108ef3660046108a7565b92919091611e42565b346103b25761061561090b36600461083c565b90611eb2565b906020828203126103b2576103ed9161052d565b346103b257610615610938366004610911565b612060565b346103b25761042161040f61095336600461054d565b90612069565b346103b257610969366004610425565b610615612099565b6103ed62093a80610430565b6103ed610971565b346103b257610995366004610425565b61042161047461097d565b346103b2576106156109b3366004610911565b612214565b6103ed916008021c610681565b906103ed91546109b8565b60006109e16103ed92610192610649565b6109c5565b346103b25761042161040f6109fc366004610635565b6109d0565b634e487b7160e01b600052604160045260246000fd5b90601f01601f1916810190811067ffffffffffffffff821117610a3957604052565b610a01565b906103d7610a4b60405190565b9283610a17565b67ffffffffffffffff8111610a3957602090601f01601f19160190565b90826000939282370152565b90929192610a90610a8b82610a52565b610a3e565b93818552818301116103b2576103d7916020850190610a6f565b9080601f830112156103b2578160206103ed93359101610a7b565b9190916040818403126103b257610adc838261052d565b92602082013567ffffffffffffffff81116103b2576103ed9201610aaa565b610615610b09366004610ac5565b90612243565b346103b257610b1f366004610425565b610421610474612333565b6103ed600061019a610809565b346103b257610b47366004610425565b610421610474610b2a565b346103b257610b62366004610425565b61042161040f61233d565b346103b257610615610b80366004610635565b61240b565b346103b257610421610474610b9b366004610911565b61241e565b8015156103c3565b905035906103d782610ba0565b906020828203126103b2576103ed91610ba8565b346103b257610615610bdc366004610bb5565b61249f565b91906040838203126103b2576103ed906020610bfd8286610540565b9401610ba8565b346103b257610615610c17366004610be1565b90612536565b346103b257610c2d366004610425565b610615612556565b91906040838203126103b2576103ed9060206105698286610540565b346103b257610615610c64366004610c35565b90612592565b346103b25761042161040f610c8036600461083c565b9061259c565b346103b257610c96366004610425565b61042161050c6125b7565b6103ed6000610198610809565b346103b257610cbe366004610425565b610421610474610ca1565b6103ed62015180610430565b6103ed610cc9565b346103b257610ced366004610425565b610421610474610cd5565b346103b257610615610d0b366004610c35565b906126b3565b6103ed6000610430565b6103ed610d11565b346103b257610d33366004610425565b610421610474610d1b565b346103b25761042161040f610d5436600461054d565b90612717565b346103b25761042161040f610d7036600461054d565b90612754565b346103b257610615610d89366004610c35565b90612885565b6103ed6000610199610809565b346103b257610dac366004610425565b610421610474610d8f565b6103ed916008021c610518565b906103ed9154610db7565b6103ed6000610191610dc4565b6020810192916103d791906106ee565b346103b257610dfc366004610425565b610421610e07610dcf565b60405191829182610ddc565b90610653565b6109e16103ed92610e2e600093610194610649565b610e13565b634e487b7160e01b600052602160045260246000fd5b60031115610e5357565b610e33565b906103d782610e49565b6103ed90610e58565b6103f090610e62565b6020810192916103d79190610e6b565b346103b257610421610ea0610e9a366004610c35565b90610e19565b60405191829182610e74565b7f9f2df0fed2c77648de5860a4cc508cd0818c85b8b8a1ab4ceeef8d981c8956a690565b6103ed610eac565b346103b257610ee8366004610425565b610421610474610ed0565b346103b257610615610f0636600461083c565b906128aa565b6103ed6000610195610809565b346103b257610f29366004610425565b610421610474610f0c565b346103b257610615610f47366004610635565b612a24565b6103ed6000610197610809565b346103b257610f69366004610425565b610421610474610f4c565b91906040838203126103b2576103ed906020610858828661052d565b346103b257610421610474610fa6366004610f74565b90612a2d565b6080818303126103b257610fc0828261052d565b926103ed610fd18460208501610540565b936060610569826040870161052d565b346103b257610615610ff4366004610fac565b92919091612f7b565b346103b257610615611010366004610635565b613057565b7f65d7a28e3265b37a6474929f336521b332c1681b933f6cb9f3376673440d862a90565b6103ed611015565b346103b257611051366004610425565b610421610474611039565b346103b25761061561106f366004610635565b613212565b346103b257610615611087366004610911565b6133ed565b7f189ab7a9244df0848122154315af71fe140f3db0fe014031783b0946b8c9d2e390565b6103ed61108c565b346103b2576110c8366004610425565b6104216104746110b0565b637965db0b60e01b6001600160e01b03198216149081156110f2575090565b6103ed91506001600160e01b0319166301ffc9a760e01b1490565b634e487b7160e01b600052602260045260246000fd5b9060016002830492168015611143575b602083101461113e57565b61110d565b91607f1691611133565b8054600093929161116a61116083611123565b8085529360200190565b91600181169081156111bc575060011461118357505050565b6111969192939450600052602060002090565b916000925b8184106111a85750500190565b80548484015260209093019260010161119b565b92949550505060ff1916825215156020020190565b906103ed9161114d565b906103d76111f5926111ec60405190565b938480926111d1565b0383610a17565b6103ed906111db565b6103ed60366111fc565b61121a9190336134a5565b600190565b906103d7929161122d613573565b90611240929161123b6135dc565b61145e565b6103d7613610565b6105186103ed6103ed9290565b6103ed90611248565b1561126557565b60405162461bcd60e51b815260206004820152601d60248201527f476f7665726e616e6365546f6b656e3a20756e617574686f72697a65640000006044820152606490fd5b0390fd5b156112b557565b60405162461bcd60e51b815260206004820152602260248201527f476f7665726e616e6365546f6b656e3a20756e737570706f727465642063686160448201526134b760f11b6064820152608490fd5b1561130c57565b60405162461bcd60e51b815260206004820152602260248201527f476f7665726e616e6365546f6b656e3a20696e76616c696420726563697069656044820152611b9d60f21b6064820152608490fd5b634e487b7160e01b600052601160045260246000fd5b9190820180921161137f57565b61135c565b1561138b57565b60405162461bcd60e51b815260206004820152602360248201527f476f7665726e616e6365546f6b656e3a2065786365656473206d617820737570604482015262706c7960e81b6064820152608490fd5b90600019905b9181191691161790565b906113fc6103ed61140392610430565b82546113dc565b9055565b6103ed90610518906001600160a01b031682565b6103ed90611407565b6103ed9061141b565b61145a6103d79461145360609498979561144c608086019a6000870152565b6020850152565b6040830152565b0152565b9161154b7f94c792774c59479f7bd68442f3af3691c02123a5aabee8b6f9116d8af8aa66699293611497611490610eac565b339061259c565b8015611589575b6114a79061125e565b6114c36114be6114b985610192610649565b610687565b6112ae565b6114e86114d86114d36000611255565b610518565b6114e183610518565b1415611305565b61151b6114ff866114fa61019b610672565b611372565b6115146115106103ed610195610672565b9190565b1115611384565b6115258582613667565b61153f611537866114fa61019b610672565b61019b6113ec565b46830361156a57611424565b9261156561155860405190565b928392439142918561142d565b0390a2565b61158461157c866114fa610193610672565b6101936113ec565b611424565b506115986114d3610191610661565b6115a133610518565b14801561149e57506114a76115b7610191610661565b6115cd6115c76114d36000611255565b91610518565b1415905061149e565b906103d7929161121f565b6103ed61019b610672565b6103d7906116006115fb610d11565b6136d8565b61167f565b1561160c57565b60405162461bcd60e51b815260206004820152602760248201527f476f7665726e616e6365546f6b656e3a20696e76616c696420617070726f76616044820152661b0818dbdd5b9d60ca1b6064820152608490fd5b9081526060810193926103d792909160409161145a905b6020830152565b7f0dcab93683847615ba1d888e93c2097c5994468fbf0c2680c1055145c43d0eac906116b66116ae6000610430565b825b11611605565b6116c1610198610672565b906116ce816101986113ec565b6116e56116da60405190565b928392429184611661565b0390a1565b6103d7906115ec565b61121a92919061170483338361372f565b613874565b60016117226103ed9261171a600090565b506097610e13565b01610672565b6103d7906117376115fb61058c565b61199d565b1561174357565b60405162461bcd60e51b815260206004820152602160248201527f476f7665726e616e6365546f6b656e3a20696e76616c69642070726f706f73616044820152601b60fa1b6064820152608490fd5b1561179957565b60405162461bcd60e51b815260206004820152602a60248201527f476f7665726e616e6365546f6b656e3a2070726f706f73616c20616c726561646044820152691e48195e1958dd5d195960b21b6064820152608490fd5b156117f857565b60405162461bcd60e51b815260206004820152602360248201527f476f7665726e616e6365546f6b656e3a2070726f706f73616c2063616e63656c6044820152621b195960ea1b6064820152608490fd5b1561185057565b60405162461bcd60e51b815260206004820152602160248201527f476f7665726e616e6365546f6b656e3a2070726f706f73616c206578706972656044820152601960fa1b6064820152608490fd5b156118a657565b60405162461bcd60e51b815260206004820152602160248201527f476f7665726e616e6365546f6b656e3a20616c726561647920617070726f76656044820152601960fa1b6064820152608490fd5b634e487b7160e01b600052603260045260246000fd5b805482101561192e57611925600191600052602060002090565b91020190600090565b6118f5565b916001600160a01b0360089290920291821b911b6113e2565b919061195d6103ed61140393611424565b908354611933565b80549190600160401b831015610a3957826119889160016103d79501815561190b565b9061194c565b600019811461137f5760010190565b611a7190611a6c60026119b56103ed84610196610649565b6119d86119c182610661565b6119d16115c76114d36000611255565b141561173c565b611a07611a026119f4600484016119fd6119f86119f483610687565b1590565b611792565b61069d565b6117f1565b611a32611a2a6103ed611a1c60018501610672565b611a24610971565b90611372565b421115611849565b611a47611a426119f433876138fc565b61189f565b611a543360038301611965565b01611a66611a6182610672565b61198e565b906113ec565b610430565b611a7a33611424565b907f61915bbc10160972a2942b84c7f57851f7c40ea1d558aaa7b9643c41948c34f1611aa560405190565b80805b0390a3565b6103d790611728565b906103d791611ac76115fb82611709565b906103d791613972565b906103d791611ab6565b6106816103ed6103ed9290565b6103ed6012611adb565b906103d7939291611b01613573565b611b52565b15611b0d57565b60405162461bcd60e51b815260206004820152601e60248201527f476f7665726e616e6365546f6b656e3a206272696467652070617573656400006044820152606490fd5b906103d7939291611b6f611b6a6119f461019c610687565b611b06565b90611240939291611b7e6135dc565b611ce5565b15611b8a57565b60405162461bcd60e51b815260206004820152601f60248201527f476f7665726e616e6365546f6b656e3a20696e76616c696420627269646765006044820152606490fd5b15611bd657565b60405162461bcd60e51b815260206004820152602960248201527f476f7665726e616e6365546f6b656e3a20756e737570706f7274656420736f756044820152683931b29031b430b4b760b91b6064820152608490fd5b15611c3457565b60405162461bcd60e51b815260206004820152601e60248201527f476f7665726e616e6365546f6b656e3a20696e76616c6964206e6f6e636500006044820152606490fd5b15611c8057565b60405162461bcd60e51b815260206004820152601e60248201527f476f7665726e616e6365546f6b656e3a206e6f6e636520696e76616c696400006044820152606490fd5b9060ff906113e2565b90611cde6103ed61140392610e62565b8254611cc5565b91611565611e057f3006141dde0d69aba40687c42991ce96e4a76425573e72dd6c18a4b0c0d21aff94959395611d1f6114d3610191610661565b611d2833610518565b1480611e1a575b611d3890611b83565b611d4f611d4a6114b986610192610649565b611bcf565b611d67611d5f6103ed6000610430565b861415611c2d565b611de16001611ddc87610e2e88610194611dd78e611da6611d8d6114b988888888610649565b611da0611d9a6000610e58565b91610e58565b14611c79565b611dbf611db66114d36000611255565b6114e18c610518565b611dd16114ff826114fa61019b610672565b89613667565b610649565b611cce565b611df361157c886114fa610193610672565b611584611537886114fa61019b610672565b94611e0f60405190565b93849342928561142d565b50611d38611e29610191610661565b611e396115c76114d36000611255565b14159050611d2f565b906103d7939291611af2565b15611e5557565b60405162461bcd60e51b815260206004820152602f60248201527f416363657373436f6e74726f6c3a2063616e206f6e6c792072656e6f756e636560448201526e103937b632b9903337b91039b2b63360891b6064820152608490fd5b6103d79190611ed2611ec333610518565b611ecc84610518565b14611e4e565b6139dc565b15611ede57565b60405162461bcd60e51b815260206004820152602c60248201527f46756e6374696f6e206d7573742062652063616c6c6564207468726f7567682060448201526b19195b1959d85d1958d85b1b60a21b6064820152608490fd5b15611f3f57565b60405162461bcd60e51b815260206004820152602c60248201527f46756e6374696f6e206d7573742062652063616c6c6564207468726f7567682060448201526b6163746976652070726f787960a01b6064820152608490fd5b6103d790611ffb611fa930611424565b611fe17f000000000000000000000000000000000000000000000000000000000000000091611fda6115c784610518565b1415611ed7565b611ff56115c7611fef613a3c565b92610518565b14611f38565b61203a565b9061200d610a8b83610a52565b918252565b369037565b906103d761202d61202784612000565b93610a52565b601f190160208401612012565b60006103d79161204981613ab4565b61205a61205583610430565b612017565b90613b65565b6103d790611f99565b61121a919061207d33926114fa8385612a2d565b916134a5565b61208e6115fb611015565b6103d76103d7613cb6565b6103d7612083565b6103d7906120b06115fb610d11565b612101565b156120bc57565b60405162461bcd60e51b815260206004820152601f60248201527f476f7665726e616e6365546f6b656e3a206e6f74206120636f6e7472616374006044820152606490fd5b6103d79061211d813b6121176115106000610430565b116120b5565b612194565b1561212957565b60405162461bcd60e51b815260206004820152601e60248201527f476f7665726e616e6365546f6b656e3a206e6f206272696467652073657400006044820152606490fd5b906001600160a01b03906113e2565b9061218d6103ed61140392611424565b825461216e565b6121b96121a2610191610661565b6121b26115c76114d36000611255565b1415612122565b6121dc6121d66121ca610191610661565b6115848461019161217d565b91611424565b907ff19454d00d69e2b8ae206510d79393a19e2838f0d1ef901257aa6f827689be2e61220760405190565b4281528060208101611aa8565b6103d7906120a1565b906103d79161222e611fa930611424565b6103d79160019161223e81613ab4565b613b65565b906103d79161221d565b1561225457565b60405162461bcd60e51b815260206004820152603860248201527f555550535570677261646561626c653a206d757374206e6f742062652063616c6044820152771b1959081d1a1c9bdd59da0819195b1959d85d1958d85b1b60421b6064820152608490fd5b6103ed906122fc6122ca30611424565b6122f66115c77f0000000000000000000000000000000000000000000000000000000000000000610518565b1461224d565b61232a565b6103ed7f360894a13ba1a3210667c828492db98dca3e2076cc3735a920a3ca505d382bbc610430565b506103ed612301565b6103ed60006122ba565b6103ed61012d610687565b6103d7906123576115fb610d11565b6123b8565b1561236357565b60405162461bcd60e51b815260206004820152602760248201527f476f7665726e616e6365546f6b656e3a206e6577206d617820737570706c7920604482015266746f6f206c6f7760c81b6064820152608490fd5b7f68c4ee39d0d5b5d37a31e4f81910c7f610cfccb64847106c409897720d9265a9906123f36123eb6103ed61019b610672565b82101561235c565b6123fe610195610672565b906116ce816101956113ec565b6103d790612348565b9061065390611424565b6124356103ed9161242d600090565b506033612414565b610672565b6103d7906124496115fb611015565b612463565b90151581526040810192916103d79160200152565b6116e57f2a93fa072fc66a6309ad603e72f41adc1ca1067d951a84b99ecf27a1d0d926c49161249181613cbe565b60405191829142908361244e565b6103d79061243a565b906103d7916124b86115fb610d11565b6124e8565b90611cde6103ed61140392151590565b90815290151560208201526060810192916103d79160400152565b7fb5ad4e6b50f06f9d376f879c67b2198ebb95a68dd48c516bd6c8e0714a0cc2879161251f8161251a84610192610649565b6124bd565b6116e561252b60405190565b9283924291846124cd565b906103d7916124a8565b61254b6115fb611015565b6103d76103d7613d0c565b6103d7612540565b906103d79161256e6115fb61058c565b611ddc600291610e2e6103d794610194611dd7611d8d6114b986610e2e8686610649565b906103d79161255e565b6103ed9160006125b16114b99361171a600090565b01612414565b6103ed60376111fc565b906103d7916125d16115fb61058c565b61263f565b156125dd57565b60405162461bcd60e51b815260206004820152602160248201527f476f7665726e616e6365546f6b656e3a206e6f6e6365206e6f74206661696c656044820152601960fa1b6064820152608490fd5b9081526040810192916103d79160200152565b61156561269e7f38eeb855c5fd22441c16da4529c56a0f90cb0e22d66b92c5031538e1ccf21f93926103ed6000611ddc83610e2e89610194611dd761268b6114b986610e2e8686610649565b612698611d9a6002610e58565b146125d6565b926126a860405190565b91829142908361262c565b906103d7916125c1565b156126c457565b60405162461bcd60e51b815260206004820152602560248201527f45524332303a2064656372656173656420616c6c6f77616e63652062656c6f77604482015264207a65726f60d81b6064820152608490fd5b61121a919061207d339261272b8385612a2d565b612737828210156126bd565b0390565b906103ed9291612749613573565b506103ed9190613d14565b6103ed9190600061273b565b906103d79161276d613573565b906112409161277a6135dc565b6127f1565b9190820391821161137f57565b1561279357565b60405162461bcd60e51b815260206004820152603060248201527f476f7665726e616e6365546f6b656e3a20696e73756666696369656e7420637260448201526f6f73732d636861696e20737570706c7960801b6064820152608490fd5b907f4d667732637549615f3cd28023b13380094dd975c0ac7c1b26916a8b1363b7ec906128266114be6114b983610192610649565b6128308333613dcc565b6128476115378461284261019b610672565b61277f565b468103612858575b61154b33611424565b61286e612866610193610672565b84111561278c565b61288061157c84612842610193610672565b61284f565b906103d791612760565b906103d7916128a06115fb82611709565b906103d7916139dc565b906103d79161288f565b6103d7906128c36115fb610d11565b612999565b156128cf57565b60405162461bcd60e51b815260206004820152602160248201527f476f7665726e616e6365546f6b656e3a20616c726561647920657865637574656044820152601960fa1b6064820152608490fd5b1561292557565b60405162461bcd60e51b815260206004820152602260248201527f476f7665726e616e6365546f6b656e3a20616c72656164792063616e63656c6c604482015261195960f21b6064820152608490fd5b9061ff009060081b6113e2565b906129926103ed61140392151590565b8254612975565b6129ed90611a6c600160046129b36103ed85610196610649565b6129bf6119c182610661565b016129d46129cf6119f483610687565b6128c8565b6129e86129e36119f48361069d565b61291e565b612982565b7f036f19717214d9fe5ffef8856d03bb93519717733869635633c408da691c757a612a1760405190565b4281528060208101611565565b6103d7906128b4565b6103ed91612a4861243592612a40600090565b506034612414565b612414565b15612a5457565b60405162461bcd60e51b815260206004820152602e60248201527f496e697469616c697a61626c653a20636f6e747261637420697320616c72656160448201526d191e481a5b9a5d1a585b1a5e995960921b6064820152608490fd5b6106816103ed6103ed9260ff1690565b90611cde6103ed61140392612ab0565b6103f090611adb565b6020810192916103d79190612ad0565b929091612b3392612afd6119f4600061069d565b948580612bd0575b8015612b8b575b612b1590612a4d565b85612b2a612b236001611adb565b6000612ac0565b612b7a57612dd5565b612b3957565b612b44600080612982565b7f7f26b83ff96e1f2b6a682f133852f6798a09c465da95921460cefb3847402498612b6e60405190565b806116e5600182612ad9565b612b8660016000612982565b612dd5565b50612ba06119f4612b9b30611424565b613e48565b8015612b0c5750612b15612bb46000610687565b612bc8612bc16001611adb565b9160ff1690565b149050612b0c565b50612bdb6000610687565b612be8612bc16001611adb565b10612b05565b15612bf557565b60405162461bcd60e51b815260206004820152602660248201527f476f7665726e616e6365546f6b656e3a20696e76616c69642061646d696e206160448201526564647265737360d01b6064820152608490fd5b15612c5057565b60405162461bcd60e51b815260206004820152602760248201527f476f7665726e616e6365546f6b656e3a20696e76616c696420696e697469616c6044820152662062726964676560c81b6064820152608490fd5b15612cac57565b60405162461bcd60e51b815260206004820152602360248201527f476f7665726e616e6365546f6b656e3a20696e76616c6964206d617820737570604482015262706c7960e81b6064820152608490fd5b612d076010612000565b6f23b7bb32b93730b731b2902a37b5b2b760811b602082015290565b6103ed612cfd565b612d356003612000565b6223a7ab60e91b602082015290565b6103ed612d2b565b15612d5357565b60405162461bcd60e51b815260206004820152602b60248201527f476f7665726e616e6365546f6b656e3a20696e697469616c20737570706c792060448201526a0caf0c6cacac8e640dac2f60ab1b6064820152608490fd5b6103f090610430565b60409061145a6103d7949695939661167860608401986000850190612dac565b91612f4f90612f347f68c4ee39d0d5b5d37a31e4f81910c7f610cfccb64847106c409897720d9265a99593612f1b600096612e53612e43612e158a611255565b612e31612e2182610518565b612e2a86610518565b1415612bee565b6114d3612e3d8c610430565b876116b0565b612e4c87610518565b1415612c49565b612e66612e5f89610430565b8811612ca5565b612e7f612e71612d23565b612e79612d44565b90613edb565b612e87613ef2565b612e8f613ef2565b612e97613f12565b612e9f613f32565b612eb081612eab610d11565b613972565b612ebc81612eab610eac565b612ec881612eab61108c565b612ed481612eab61058c565b612ee081612eab611015565b612f0f612ef669d3c21bcecceda1000000610430565b8092612f0a612f028b90565b831115612d4c565b613667565b611537876101956113ec565b612f2c600161251a46610192610649565b6101986113ec565b612f47612f3f610cc9565b6101996113ec565b61019161217d565b612f64612f5c6001610430565b61019a6113ec565b6116e5612f7060405190565b928392429184612db5565b906103d7939291612ae9565b6103d790612f966115fb610d11565b612fe7565b15612fa257565b60405162461bcd60e51b815260206004820152601e60248201527f476f7665726e616e6365546f6b656e3a20696e76616c69642064656c617900006044820152606490fd5b7fc0fc5102dc08a4e93b36b33d1211df6352e9a02b1bc20f1f764a3257d2a1ec0e906130146103ed610cc9565b8110158061303e575b61302690612f9b565b613031610199610672565b906116ce816101996113ec565b5061302661304d6103ed610971565b821115905061301d565b6103d790612f87565b6112409061306c6135dc565b613124565b1561307857565b60405162461bcd60e51b815260206004820152602760248201527f476f7665726e616e6365546f6b656e3a20696e73756666696369656e7420617060448201526670726f76616c7360c81b6064820152608490fd5b156130d457565b60405162461bcd60e51b815260206004820152602260248201527f476f7665726e616e6365546f6b656e3a2064656c6179206e6f7420656c617073604482015261195960f21b6064820152608490fd5b6131d060016131386103ed84610196610649565b6131446119c182610661565b61251a612f47600060048401936131606129cf6119f487610687565b61316f611a026119f48761069d565b61319661317e60028301610672565b61318f6115106103ed610198610672565b1015613071565b6131ca611a2a6103ed611a1c8985016124356131c26103ed6131b784610672565b611a24610199610672565b4210156130cd565b01610661565b6131e76121d66131e1610191610661565b92610430565b907f7140b4644b1aedd0eefd2c8bbb8e2bb186f4c36db5846aea12e05454f4de912761220760405190565b6103d790613060565b6103d79061322a6115fb61058c565b6103d790613240813b6121176115106000610430565b6132fa565b1561324c57565b60405162461bcd60e51b8152602060048201526024808201527f476f7665726e616e6365546f6b656e3a2073616d6520627269646765206164646044820152637265737360e01b6064820152608490fd5b156132a457565b60405162461bcd60e51b815260206004820152602860248201527f476f7665726e616e6365546f6b656e3a2070726f706f73616c20636f756e74206044820152676f766572666c6f7760c01b6064820152608490fd5b61331b61330b6114d3610191610661565b61331483610518565b1415613245565b613332613329610197610672565b6000191161329d565b61334b613343611a61610197610672565b6101976113ec565b6133a56000600461336c6103ed610196613366610197610672565b90610649565b6133788584830161217d565b61338542600183016113ec565b61339a61339184610430565b600283016113ec565b016129e882826124bd565b6133b66121d6611a6c610197610672565b907f1018f10af3238a5714c29ec82fb60ad9461ef7b138a9de83d11efbcf0b7097a36133e160405190565b80611aa846428361262c565b6103d79061321b565b156133fd57565b60405162461bcd60e51b8152602060048201526024808201527f45524332303a20617070726f76652066726f6d20746865207a65726f206164646044820152637265737360e01b6064820152608490fd5b1561345557565b60405162461bcd60e51b815260206004820152602260248201527f45524332303a20617070726f766520746f20746865207a65726f206164647265604482015261737360f01b6064820152608490fd5b611aa861352a6135247f8c5be1e5ebec7d5bd14f71427d1e84f3dd0314c0f7b2291e5b200ac8c7c3b9259361350c6134fc6134e06000611255565b6114d36134ec82610518565b6134f586610518565b14156133f6565b61350588610518565b141561344e565b6115848761351f88612a48856034612414565b6113ec565b93611424565b9361047860405190565b1561353b57565b60405162461bcd60e51b815260206004820152601060248201526f14185d5cd8589b194e881c185d5cd95960821b6044820152606490fd5b6103d76135816119f461233d565b613534565b6103ed6002610430565b1561359757565b60405162461bcd60e51b815260206004820152601f60248201527f5265656e7472616e637947756172643a207265656e7472616e742063616c6c006044820152606490fd5b6103d76135ea61015f610672565b6135fe6135f5613586565b91821415613590565b61015f6113ec565b6103ed6001610430565b6103d76135fe613606565b1561362257565b60405162461bcd60e51b815260206004820152601f60248201527f45524332303a206d696e7420746f20746865207a65726f2061646472657373006044820152606490fd5b600080516020614707833981519152611aa861352a6135246136896000611255565b6136a561369582610518565b61369e88610518565b141561361b565b6136bd6136b6886114fa6035610672565b60356113ec565b6115846136cb876033612414565b611a66896104dc83610672565b6103d7903390613fb9565b156136ea57565b60405162461bcd60e51b815260206004820152601d60248201527f45524332303a20696e73756666696369656e7420616c6c6f77616e63650000006044820152606490fd5b9061373a8183612a2d565b600019810361374a575b50505050565b61375e9361207d91612737828210156136e3565b38808080613744565b1561376e57565b60405162461bcd60e51b815260206004820152602560248201527f45524332303a207472616e736665722066726f6d20746865207a65726f206164604482015264647265737360d81b6064820152608490fd5b156137c857565b60405162461bcd60e51b815260206004820152602360248201527f45524332303a207472616e7366657220746f20746865207a65726f206164647260448201526265737360e81b6064820152608490fd5b1561382057565b60405162461bcd60e51b815260206004820152602660248201527f45524332303a207472616e7366657220616d6f756e7420657863656564732062604482015265616c616e636560d01b6064820152608490fd5b611aa861352a613524600080516020614707833981519152936138c96138b961389d6000611255565b6114d36138a982610518565b6138b286610518565b1415613767565b6138c288610518565b14156137c1565b6115846136cb876033612a486138f28c6138e66124358986612414565b61273782821015613819565b61351f8784612414565b6103ed6139149161390b600090565b50610196610649565b9061391f6000610430565b6003830161392e6103ed825490565b82101561396957613942826139489261190b565b90610dc4565b6139546115c784610518565b146139615760010161391f565b505050600190565b50505050600090565b61397f6119f4838361259c565b613987575050565b61399d600161251a8460006125b1866097610e13565b6139ab6121d6613524339390565b917f2f8788117e7eff1d82e926ec794901d17c78024a50270940304540a733656f0d6139d660405190565b600090a4565b6139e6828261259c565b6139ee575050565b613a03600061251a84826125b1866097610e13565b613a116121d6613524339390565b917ff6391f5c32d9c69d2a47ea670b442974b53935d1edc7fd64eb21e047a839171b6139d660405190565b6103ed60006131ca6103ed612301565b6103d790613a5b6115fb61108c565b6103d790613a71813b6121176115106000610430565b613a82612f5c611a6161019a610672565b7f1c06c5c924761d924743bed6eebc2883780fba25114dbe3ab2d9192cc8bbd78161156561269e61352461019a610672565b6103d790613a4c565b6103ed7f4910fdfa16fed3260ed0e7147f7cc6da11a60208b5b9406d12a635614ffd9143610430565b905051906103d78261053a565b906020828203126103b2576103ed91613ae6565b15613b0e57565b60405162461bcd60e51b815260206004820152602960248201527f45524331393637557067726164653a20756e737570706f727465642070726f786044820152681a58589b195555525160ba1b6064820152608490fd5b9190613b7d6000613b776103ed613abd565b01610687565b15613b8d5750506103d7906140df565b613b9961158484611424565b926020613ba560405190565b6352d1902d60e01b815294859060049082905afa60009481613c43575b50613c235760405162461bcd60e51b815260206004820152602e60248201527f45524331393637557067726164653a206e657720696d706c656d656e7461746960448201526d6f6e206973206e6f74205555505360901b6064820152608490fd5b613c3e6103d794613c386115106103ed612301565b14613b07565b61403e565b613c6691955060203d602011613c6d575b613c5e8183610a17565b810190613af3565b9338613bc2565b503d613c54565b613c7c61414a565b6103d7613c8c600061012d6124bd565b7f5db9ee0a495bf2e6ff9c91a7834c1ba4fdd244a5e8aa4e537bd38aeae4b073aa6116e533610e07565b6103d7613c74565b6103d79061019c6124bd565b613cd2613573565b6103d7613ce2600161012d6124bd565b7f62e78cea01bee320cd4e420270b5ea74000d11b0c9f74754ebdbfc544b05a2586116e533610e07565b6103d7613cca565b61121a919033613874565b15613d2657565b60405162461bcd60e51b815260206004820152602160248201527f45524332303a206275726e2066726f6d20746865207a65726f206164647265736044820152607360f81b6064820152608490fd5b15613d7c57565b60405162461bcd60e51b815260206004820152602260248201527f45524332303a206275726e20616d6f756e7420657863656564732062616c616e604482015261636560f01b6064820152608490fd5b600080516020614707833981519152611aa861352a613524613dee6000611255565b94613e0b613dfb87610518565b613e0483610518565b1415613d1f565b613e37613e2c88613e20612435856033612414565b61273782821015613d75565b61351f836033612414565b6115846136b6886127376035610672565b3b613e566115106000610430565b1190565b15613e6157565b60405162461bcd60e51b815260206004820152602b60248201527f496e697469616c697a61626c653a20636f6e7472616374206973206e6f74206960448201526a6e697469616c697a696e6760a81b6064820152608490fd5b906103d791613ed1613ecc600061069d565b613e5a565b906103d79161431e565b906103d791613eba565b6103d7613ecc600061069d565b6103d7613ee5565b613f07613ecc600061069d565b6103d76103d7614345565b6103d7613efa565b613f27613ecc600061069d565b6103d76103d761435a565b6103d7613f1a565b6103ed90610430565b6104dc613f5b92602092613f55815190565b94859290565b93849101610485565b613f9c6103ed9392613f96613f969376020b1b1b2b9b9a1b7b73a3937b61d1030b1b1b7bab73a1604d1b815260170190565b90613f43565b7001034b99036b4b9b9b4b733903937b6329607d1b815260110190565b90613fc76119f4828461259c565b613fcf575050565b6140196103ed6112aa93614001613ff1613feb6140259661438e565b92613f3a565b613ffb6020610430565b9061445b565b9061400b60405190565b938492602084019283613f64565b90810382520382610a17565b6040515b62461bcd60e51b8152918291600483016104e0565b9161404883614573565b81516140576115106000610430565b11908115614075575b50614069575050565b614072916145fc565b50565b905038614060565b1561408457565b60405162461bcd60e51b815260206004820152602d60248201527f455243313936373a206e657720696d706c656d656e746174696f6e206973206e60448201526c1bdd08184818dbdb9d1c9858dd609a1b6064820152608490fd5b6103d7906140f46140ef82613e48565b61407d565b60006141016103ed612301565b0161217d565b1561410e57565b60405162461bcd60e51b815260206004820152601460248201527314185d5cd8589b194e881b9bdd081c185d5cd95960621b6044820152606490fd5b6103d761415561233d565b614107565b906103d79161416c613ecc600061069d565b614308565b9160001960089290920291821b911b6113e2565b91906141966103ed61140393610430565b908354614171565b6103d791600091614185565b8181106141b5575050565b806141c3600060019361419e565b016141aa565b9190601f81116141d857505050565b6141ea6103d793600052602060002090565b906020601f84018190048301931061420c575b6020601f9091010401906141aa565b90915081906141fd565b9060001960089091021c191690565b8161422f91614216565b906002021790565b90614240815190565b9067ffffffffffffffff8211610a39576142648261425e8554611123565b856141c9565b602090601f831160011461429257611403929160009183614287575b5050614225565b015190503880614280565b601f198316916142a785600052602060002090565b9260005b8181106142e6575091600293918560019694106142cc575b50505002019055565b6142dc910151601f841690614216565b90553880806142c3565b919360206001819287870151815501950192016142ab565b906103d791614237565b906143176103d79260366142fe565b60376142fe565b906103d79161415a565b614335613ecc600061069d565b6103d76103d7600061012d6124bd565b6103d7614328565b611240613ecc600061069d565b6103d761434d565b6103ed9081906001600160a01b031681565b6103ed6014611adb565b6103ed6103ed6103ed9260ff1690565b6143ab6143a66103ed926143a0606090565b5061141b565b614362565b613ffb6143b6614374565b61437e565b8181029291811591840414171561137f57565b906143d7825190565b81101561192e570160200190565b801561137f576000190190565b6103ed906144066115106103ed9460ff1690565b901c90565b1561441257565b60405162461bcd60e51b8152806112aa600482016020808252818101527f537472696e67733a20686578206c656e67746820696e73756666696369656e74604082015260600190565b909190614481612055614477856144726002610430565b6143bb565b611a246002610430565b906000603061449861449283610430565b856143ce565b53600f60fb1b6144d16144c86001978893851a6144bd6144b786610430565b896143ce565b536144726002610430565b611a2483610430565b905b6144f5575b506103ed939450906144ef6115106103ed93610430565b1461440b565b916144ff86610430565b83111561456d576f181899199a1a9b1b9c1cb0b131b232b360811b614524600f610430565b821690601082101561192e57879261454461456192614567941a60f81b90565b851a61455087896143ce565b5361455b6004611adb565b906143f2565b936143e5565b906144d3565b916144d8565b61458090611584816140df565b7fbc7cd75a20ee27fd9adebab32041f755214dbc6bffa90cc0225b39da2e5c2d3b6145aa60405190565b8080611565565b6145bb6027612000565b7f416464726573733a206c6f772d6c6576656c2064656c65676174652063616c6c6020820152660819985a5b195960ca1b604082015290565b6103ed6145b1565b6103ed916146086145f4565b9161462d565b3d156146285761461d3d612000565b903d6000602084013e565b606090565b6000806103ed949361463d606090565b50602081519101845af461464f61460e565b916146a1565b1561465c57565b60405162461bcd60e51b815260206004820152601d60248201527f416464726573733a2063616c6c20746f206e6f6e2d636f6e74726163740000006044820152606490fd5b919290156146d3575081516146b96115106000610430565b146146c2575090565b6146ce6103ed91613e48565b614655565b82906146dd825190565b6146ea6115106000610430565b11156146f95750805190602001fd5b6112aa906140296040519056feddf252ad1be2c89b69c2b068fc378daa952ba7f163c4a11628f55a4df523b3efa26469706673582212207af47e062947742f191019959763987ccde1ed588ac4f4644b800d1f12851da264736f6c63430008180033",
  "immutableReferences": {
    "1339": [
      {
        "length": 32,
        "start": 8110
      },
      {
        "length": 32,
        "start": 8914
      }
    ]
  },
  "source": "// SPDX-License-Identifier: MIT\r\npragma solidity ^0.8.24;\r\n\r\nimport \"@openzeppelin/contracts-upgradeable/token/ERC20/ERC20Upgradeable.sol\";\r\nimport \"@openzeppelin/contracts-upgradeable/access/AccessControlUpgradeable.sol\";\r\nimport \"@openzeppelin/contracts-upgradeable/proxy/utils/Initializable.sol\";\r\nimport \"@openzeppelin/contracts-upgradeable/proxy/utils/UUPSUpgradeable.sol\";\r\nimport \"@openzeppelin/contracts-upgradeable/security/PausableUpgradeable.sol\";\r\nimport \"@openzeppelin/contracts-upgradeable/security/ReentrancyGuardUpgradeable.sol\";\r\n\r\n/// @title IBridgeable\r\n/// @notice Interface for cross-chain bridge functionality\r\ninterface IBridgeable {\r\n    function bridgeTransfer(address to, uint256 amount, uint256 sourceChainId, bytes32 nonce) external;\r\n    function mint(address to, uint256 amount, uint256 chainId) external;\r\n}\r\n\r\n/// @title GovernanceToken\r\n/// @notice An upgradeable ERC20 token with cross-chain support, access control, and multisig bridge updates\r\n/// @dev Inherits from OpenZeppelin's upgradeable contracts with added security and governance features\r\ncontract GovernanceToken is\r\n    Initializable,\r\n    ERC20Upgradeable,\r\n    AccessControlUpgradeable,\r\n    UUPSUpgradeable,\r\n    PausableUpgradeable,\r\n    ReentrancyGuardUpgradeable,\r\n    IBridgeable\r\n{\r\n    // Roles for access control\r\n    bytes32 public constant MINTER_ROLE = keccak256(\"MINTER_ROLE\");\r\n    bytes32 public constant UPGRADER_ROLE = keccak256(\"UPGRADER_ROLE\");\r\n    bytes32 public constant BRIDGE_ADMIN_ROLE = keccak256(\"BRIDGE_ADMIN_ROLE\");\r\n    bytes32 public constant PAUSER_ROLE = keccak256(\"PAUSER_ROLE\");\r\n\r\n    // Cross-chain bridge interface\r\n    address public bridgeContract;\r\n    mapping(uint256 => bool) public supportedChainIds;\r\n    uint256 public totalCrossChainSupply;\r\n    enum NonceStatus { Unprocessed, Processed, Failed }\r\n    mapping(uint256 => mapping(bytes32 => NonceStatus)) public nonceStatus; // chainId => nonce => status\r\n    uint256 public maxSupply;\r\n    uint256 public constant DEFAULT_MAX_SUPPLY = 100_000_000 * 10**18; // 100M tokens\r\n\r\n    // Multisig for bridge contract updates\r\n    struct BridgeUpdateProposal {\r\n        address newBridge;\r\n        uint256 proposedTime;\r\n        uint256 approvalCount;\r\n        address[] approvers;\r\n        bool executed;\r\n        bool cancelled;\r\n    }\r\n    mapping(uint256 => BridgeUpdateProposal) public bridgeProposals;\r\n    uint256 public proposalCount;\r\n    uint256 public requiredApprovals;\r\n    uint256 public bridgeUpdateDelay;\r\n    uint256 public constant MIN_DELAY = 1 days;\r\n    uint256 public constant MAX_DELAY = 7 days;\r\n    uint256 public constant PROPOSAL_EXPIRY = 7 days;\r\n    uint256 public version;\r\n    uint256 private cachedTotalSupply;\r\n\r\n    // Events\r\n    event Mint(address indexed to, uint256 amount, uint256 chainId, uint256 timestamp, uint256 blockNumber);\r\n    event Burn(address indexed from, uint256 amount, uint256 chainId, uint256 timestamp, uint256 blockNumber);\r\n    event BridgeUpdateProposed(uint256 indexed proposalId, address indexed newBridge, uint256 proposedTime, uint256 chainId);\r\n    event BridgeUpdateApproved(uint256 indexed proposalId, address indexed approver);\r\n    event BridgeUpdateExecuted(uint256 indexed proposalId, address indexed newBridge, uint256 executedTime);\r\n    event BridgeUpdateCancelled(uint256 indexed proposalId, uint256 timestamp);\r\n    event ChainSupportUpdated(uint256 chainId, bool supported, uint256 timestamp);\r\n    event CrossChainTransfer(address indexed to, uint256 amount, uint256 sourceChainId, bytes32 nonce, uint256 timestamp);\r\n    event NonceReclaimed(bytes32 indexed nonce, uint256 chainId, uint256 timestamp);\r\n    event BridgeUpdateDelaySet(uint256 oldDelay, uint256 newDelay, uint256 timestamp);\r\n    event RequiredApprovalsSet(uint256 oldRequiredApprovals, uint256 newRequiredApprovals, uint256 timestamp);\r\n    event BridgeRevoked(address indexed oldBridge, address indexed fallbackBridge, uint256 timestamp);\r\n    event MaxSupplySet(uint256 oldMaxSupply, uint256 newMaxSupply, uint256 timestamp);\r\n    event EmergencyBridgePause(bool paused, uint256 timestamp);\r\n    event VersionUpgraded(uint256 version, address indexed newImplementation, uint256 timestamp);\r\n\r\n    // Modifiers\r\n    modifier onlyContract(address _addr) {\r\n        require(_addr.code.length > 0, \"GovernanceToken: not a contract\");\r\n        _;\r\n    }\r\n\r\n    function initialize(\r\n        address admin,\r\n        uint256 initialRequiredApprovals,\r\n        address initialBridge,\r\n        uint256 initialMaxSupply\r\n    ) public initializer {\r\n        require(admin != address(0), \"GovernanceToken: invalid admin address\");\r\n        require(initialRequiredApprovals > 0, \"GovernanceToken: invalid approval count\");\r\n        require(initialBridge != address(0), \"GovernanceToken: invalid initial bridge\");\r\n        require(initialMaxSupply > 0, \"GovernanceToken: invalid max supply\");\r\n\r\n        __ERC20_init(\"Governance Token\", \"GOV\");\r\n        __AccessControl_init();\r\n        __UUPSUpgradeable_init();\r\n        __Pausable_init();\r\n        __ReentrancyGuard_init();\r\n\r\n        _grantRole(DEFAULT_ADMIN_ROLE, admin);\r\n        _grantRole(MINTER_ROLE, admin);\r\n        _grantRole(UPGRADER_ROLE, admin);\r\n        _grantRole(BRIDGE_ADMIN_ROLE, admin);\r\n        _grantRole(PAUSER_ROLE, admin);\r\n\r\n        uint256 initialSupply = 1_000_000 * 10**18; // 1M tokens\r\n        require(initialSupply <= initialMaxSupply, \"GovernanceToken: initial supply exceeds max\");\r\n        _mint(admin, initialSupply);\r\n        maxSupply = initialMaxSupply;\r\n        cachedTotalSupply = initialSupply;\r\n        supportedChainIds[block.chainid] = true;\r\n        requiredApprovals = initialRequiredApprovals;\r\n        bridgeUpdateDelay = MIN_DELAY;\r\n        bridgeContract = initialBridge;\r\n        version = 1;\r\n\r\n        emit MaxSupplySet(0, initialMaxSupply, block.timestamp);\r\n    }\r\n\r\n    function _authorizeUpgrade(address newImplementation) internal override onlyRole(UPGRADER_ROLE) onlyContract(newImplementation) {\r\n        version++;\r\n        emit VersionUpgraded(version, newImplementation, block.timestamp);\r\n    }\r\n\r\n    function setBridgeUpdateDelay(uint256 newDelay) external onlyRole(DEFAULT_ADMIN_ROLE) {\r\n        require(newDelay >= MIN_DELAY && newDelay <= MAX_DELAY, \"GovernanceToken: invalid delay\");\r\n        uint256 oldDelay = bridgeUpdateDelay;\r\n        bridgeUpdateDelay = newDelay;\r\n        emit BridgeUpdateDelaySet(oldDelay, newDelay, block.timestamp);\r\n    }\r\n\r\n    function proposeBridgeContract(address _newBridge) external onlyRole(BRIDGE_ADMIN_ROLE) onlyContract(_newBridge) {\r\n        require(_newBridge != bridgeContract, \"GovernanceToken: same bridge address\");\r\n        require(proposalCount < type(uint256).max, \"GovernanceToken: proposal count overflow\");\r\n\r\n        proposalCount++;\r\n        BridgeUpdateProposal storage proposal = bridgeProposals[proposalCount];\r\n        proposal.newBridge = _newBridge;\r\n        proposal.proposedTime = block.timestamp;\r\n        proposal.approvalCount = 0;\r\n        proposal.executed = false;\r\n        proposal.cancelled = false;\r\n\r\n        emit BridgeUpdateProposed(proposalCount, _newBridge, block.timestamp, block.chainid);\r\n    }\r\n\r\n    function approveBridgeContract(uint256 proposalId) external onlyRole(BRIDGE_ADMIN_ROLE) {\r\n        BridgeUpdateProposal storage proposal = bridgeProposals[proposalId];\r\n        require(proposal.newBridge != address(0), \"GovernanceToken: invalid proposal\");\r\n        require(!proposal.executed, \"GovernanceToken: proposal already executed\");\r\n        require(!proposal.cancelled, \"GovernanceToken: proposal cancelled\");\r\n        require(block.timestamp <= proposal.proposedTime + PROPOSAL_EXPIRY, \"GovernanceToken: proposal expired\");\r\n        require(!hasApproved(proposalId, msg.sender), \"GovernanceToken: already approved\");\r\n\r\n        proposal.approvers.push(msg.sender);\r\n        proposal.approvalCount++;\r\n\r\n        emit BridgeUpdateApproved(proposalId, msg.sender);\r\n    }\r\n\r\n    function hasApproved(uint256 proposalId, address approver) private view returns (bool) {\r\n        BridgeUpdateProposal storage proposal = bridgeProposals[proposalId];\r\n        for (uint256 i = 0; i < proposal.approvers.length; i++) {\r\n            if (proposal.approvers[i] == approver) {\r\n                return true;\r\n            }\r\n        }\r\n        return false;\r\n    }\r\n\r\n    function executeBridgeContract(uint256 proposalId) external nonReentrant {\r\n        BridgeUpdateProposal storage proposal = bridgeProposals[proposalId];\r\n        require(proposal.newBridge != address(0), \"GovernanceToken: invalid proposal\");\r\n        require(!proposal.executed, \"GovernanceToken: already executed\");\r\n        require(!proposal.cancelled, \"GovernanceToken: proposal cancelled\");\r\n        require(proposal.approvalCount >= requiredApprovals, \"GovernanceToken: insufficient approvals\");\r\n        require(block.timestamp >= proposal.proposedTime + bridgeUpdateDelay, \"GovernanceToken: delay not elapsed\");\r\n        require(block.timestamp <= proposal.proposedTime + PROPOSAL_EXPIRY, \"GovernanceToken: proposal expired\");\r\n\r\n        bridgeContract = proposal.newBridge;\r\n        proposal.executed = true;\r\n        emit BridgeUpdateExecuted(proposalId, bridgeContract, block.timestamp);\r\n    }\r\n\r\n    function cancelBridgeContractProposal(uint256 proposalId) external onlyRole(DEFAULT_ADMIN_ROLE) {\r\n        BridgeUpdateProposal storage proposal = bridgeProposals[proposalId];\r\n        require(proposal.newBridge != address(0), \"GovernanceToken: invalid proposal\");\r\n        require(!proposal.executed, \"GovernanceToken: already executed\");\r\n        require(!proposal.cancelled, \"GovernanceToken: already cancelled\");\r\n\r\n        proposal.cancelled = true;\r\n        emit BridgeUpdateCancelled(proposalId, block.timestamp);\r\n    }\r\n\r\n    function revokeBridgeContract(address fallbackBridge) external onlyRole(DEFAULT_ADMIN_ROLE) onlyContract(fallbackBridge) {\r\n        require(bridgeContract != address(0), \"GovernanceToken: no bridge set\");\r\n        address oldBridge = bridgeContract;\r\n        bridgeContract = fallbackBridge;\r\n        emit BridgeRevoked(oldBridge, fallbackBridge, block.timestamp);\r\n    }\r\n\r\n    function updateChainSupport(uint256 chainId, bool supported) external onlyRole(DEFAULT_ADMIN_ROLE) {\r\n        supportedChainIds[chainId] = supported;\r\n        emit ChainSupportUpdated(chainId, supported, block.timestamp);\r\n    }\r\n\r\n    function mint(address to, uint256 amount, uint256 chainId) external override whenNotPaused nonReentrant {\r\n        require(hasRole(MINTER_ROLE, msg.sender) || (msg.sender == bridgeContract && bridgeContract != address(0)), \"GovernanceToken: unauthorized\");\r\n        require(supportedChainIds[chainId], \"GovernanceToken: unsupported chain\");\r\n        require(to != address(0), \"GovernanceToken: invalid recipient\");\r\n        require(cachedTotalSupply + amount <= maxSupply, \"GovernanceToken: exceeds max supply\");\r\n\r\n        _mint(to, amount);\r\n        cachedTotalSupply += amount;\r\n        if (chainId != block.chainid) {\r\n            totalCrossChainSupply += amount;\r\n        }\r\n        emit Mint(to, amount, chainId, block.timestamp, block.number);\r\n    }\r\n\r\n    function burn(uint256 amount, uint256 chainId) external whenNotPaused nonReentrant {\r\n        require(supportedChainIds[chainId], \"GovernanceToken: unsupported chain\");\r\n        _burn(msg.sender, amount);\r\n        cachedTotalSupply -= amount;\r\n        if (chainId != block.chainid) {\r\n            require(totalCrossChainSupply >= amount, \"GovernanceToken: insufficient cross-chain supply\");\r\n            totalCrossChainSupply -= amount;\r\n        }\r\n        emit Burn(msg.sender, amount, chainId, block.timestamp, block.number);\r\n    }\r\n\r\n    function bridgeTransfer(\r\n        address to,\r\n        uint256 amount,\r\n        uint256 sourceChainId,\r\n        bytes32 nonce\r\n    ) external override whenNotPaused whenBridgeNotPaused nonReentrant {\r\n        require(msg.sender == bridgeContract && bridgeContract != address(0), \"GovernanceToken: invalid bridge\");\r\n        require(supportedChainIds[sourceChainId], \"GovernanceToken: unsupported source chain\");\r\n        require(nonce != bytes32(0), \"GovernanceToken: invalid nonce\");\r\n        require(nonceStatus[sourceChainId][nonce] == NonceStatus.Unprocessed, \"GovernanceToken: nonce invalid\");\r\n        require(to != address(0), \"GovernanceToken: invalid recipient\");\r\n        require(cachedTotalSupply + amount <= maxSupply, \"GovernanceToken: exceeds max supply\");\r\n\r\n        _mint(to, amount);\r\n        nonceStatus[sourceChainId][nonce] = NonceStatus.Processed;\r\n        totalCrossChainSupply += amount;\r\n        cachedTotalSupply += amount;\r\n        emit CrossChainTransfer(to, amount, sourceChainId, nonce, block.timestamp);\r\n    }\r\n\r\n    function markNonceFailed(bytes32 nonce, uint256 sourceChainId) external onlyRole(BRIDGE_ADMIN_ROLE) {\r\n        require(nonceStatus[sourceChainId][nonce] == NonceStatus.Unprocessed, \"GovernanceToken: nonce invalid\");\r\n        nonceStatus[sourceChainId][nonce] = NonceStatus.Failed;\r\n    }\r\n\r\n    function reclaimNonce(bytes32 nonce, uint256 sourceChainId) external onlyRole(BRIDGE_ADMIN_ROLE) {\r\n        require(nonceStatus[sourceChainId][nonce] == NonceStatus.Failed, \"GovernanceToken: nonce not failed\");\r\n        nonceStatus[sourceChainId][nonce] = NonceStatus.Unprocessed;\r\n        emit NonceReclaimed(nonce, sourceChainId, block.timestamp);\r\n    }\r\n\r\n    function transfer(address to, uint256 amount) public virtual override whenNotPaused returns (bool) {\r\n        return super.transfer(to, amount);\r\n    }\r\n\r\n    function totalSupply() public view virtual override returns (uint256) {\r\n        return cachedTotalSupply;\r\n    }\r\n\r\n    function pause() external onlyRole(PAUSER_ROLE) {\r\n        _pause();\r\n    }\r\n\r\n    function unpause() external onlyRole(PAUSER_ROLE) {\r\n        _unpause();\r\n    }\r\n\r\n    function setRequiredApprovals(uint256 newRequiredApprovals) external onlyRole(DEFAULT_ADMIN_ROLE) {\r\n        require(newRequiredApprovals > 0, \"GovernanceToken: invalid approval count\");\r\n        uint256 oldRequiredApprovals = requiredApprovals;\r\n        requiredApprovals = newRequiredApprovals;\r\n        emit RequiredApprovalsSet(oldRequiredApprovals, newRequiredApprovals, block.timestamp);\r\n    }\r\n\r\n    function setMaxSupply(uint256 newMaxSupply) external onlyRole(DEFAULT_ADMIN_ROLE) {\r\n        require(newMaxSupply >= cachedTotalSupply, \"GovernanceToken: new max supply too low\");\r\n        uint256 oldMaxSupply = maxSupply;\r\n        maxSupply = newMaxSupply;\r\n        emit MaxSupplySet(oldMaxSupply, newMaxSupply, block.timestamp);\r\n    }\r\n\r\n    function setBridgePaused(bool paused) external onlyRole(PAUSER_ROLE) {\r\n        _setBridgePaused(paused);\r\n        emit EmergencyBridgePause(paused, block.timestamp);\r\n    }\r\n\r\n    bool private bridgePaused;\r\n    function _setBridgePaused(bool paused) internal {\r\n        bridgePaused = paused;\r\n    }\r\n\r\n    modifier whenBridgeNotPaused() {\r\n        require(!bridgePaused, \"GovernanceToken: bridge paused\");\r\n        _;\r\n    }\r\n}",
  "sourcePath": "C:\\Users\\DR. EMMA\\my-project\\lumora\\contracts\\GovernanceToken.sol",
  "compiler": {
    "name": "solc",
    "version": "0.8.24+commit.e11b9ed9.Emscripten.clang"
  },
  "schemaVersion": "3.4.16",
  "updatedAt": "2025-06-04T21:49:36.693Z",
  "devdoc": {
    "details": "Inherits from OpenZeppelin's upgradeable contracts with added security and governance features",
    "events": {
      "AdminChanged(address,address)": {
        "details": "Emitted when the admin account has changed."
      },
      "Approval(address,address,uint256)": {
        "details": "Emitted when the allowance of a `spender` for an `owner` is set by a call to {approve}. `value` is the new allowance."
      },
      "BeaconUpgraded(address)": {
        "details": "Emitted when the beacon is changed."
      },
      "Initialized(uint8)": {
        "details": "Triggered when the contract has been initialized or reinitialized."
      },
      "Paused(address)": {
        "details": "Emitted when the pause is triggered by `account`."
      },
      "RoleAdminChanged(bytes32,bytes32,bytes32)": {
        "details": "Emitted when `newAdminRole` is set as ``role``'s admin role, replacing `previousAdminRole` `DEFAULT_ADMIN_ROLE` is the starting admin for all roles, despite {RoleAdminChanged} not being emitted signaling this. _Available since v3.1._"
      },
      "RoleGranted(bytes32,address,address)": {
        "details": "Emitted when `account` is granted `role`. `sender` is the account that originated the contract call, an admin role bearer except when using {AccessControl-_setupRole}."
      },
      "RoleRevoked(bytes32,address,address)": {
        "details": "Emitted when `account` is revoked `role`. `sender` is the account that originated the contract call:   - if using `revokeRole`, it is the admin role bearer   - if using `renounceRole`, it is the role bearer (i.e. `account`)"
      },
      "Transfer(address,address,uint256)": {
        "details": "Emitted when `value` tokens are moved from one account (`from`) to another (`to`). Note that `value` may be zero."
      },
      "Unpaused(address)": {
        "details": "Emitted when the pause is lifted by `account`."
      },
      "Upgraded(address)": {
        "details": "Emitted when the implementation is upgraded."
      }
    },
    "kind": "dev",
    "methods": {
      "allowance(address,address)": {
        "details": "See {IERC20-allowance}."
      },
      "approve(address,uint256)": {
        "details": "See {IERC20-approve}. NOTE: If `amount` is the maximum `uint256`, the allowance is not updated on `transferFrom`. This is semantically equivalent to an infinite approval. Requirements: - `spender` cannot be the zero address."
      },
      "balanceOf(address)": {
        "details": "See {IERC20-balanceOf}."
      },
      "decimals()": {
        "details": "Returns the number of decimals used to get its user representation. For example, if `decimals` equals `2`, a balance of `505` tokens should be displayed to a user as `5.05` (`505 / 10 ** 2`). Tokens usually opt for a value of 18, imitating the relationship between Ether and Wei. This is the default value returned by this function, unless it's overridden. NOTE: This information is only used for _display_ purposes: it in no way affects any of the arithmetic of the contract, including {IERC20-balanceOf} and {IERC20-transfer}."
      },
      "decreaseAllowance(address,uint256)": {
        "details": "Atomically decreases the allowance granted to `spender` by the caller. This is an alternative to {approve} that can be used as a mitigation for problems described in {IERC20-approve}. Emits an {Approval} event indicating the updated allowance. Requirements: - `spender` cannot be the zero address. - `spender` must have allowance for the caller of at least `subtractedValue`."
      },
      "getRoleAdmin(bytes32)": {
        "details": "Returns the admin role that controls `role`. See {grantRole} and {revokeRole}. To change a role's admin, use {_setRoleAdmin}."
      },
      "grantRole(bytes32,address)": {
        "details": "Grants `role` to `account`. If `account` had not been already granted `role`, emits a {RoleGranted} event. Requirements: - the caller must have ``role``'s admin role. May emit a {RoleGranted} event."
      },
      "hasRole(bytes32,address)": {
        "details": "Returns `true` if `account` has been granted `role`."
      },
      "increaseAllowance(address,uint256)": {
        "details": "Atomically increases the allowance granted to `spender` by the caller. This is an alternative to {approve} that can be used as a mitigation for problems described in {IERC20-approve}. Emits an {Approval} event indicating the updated allowance. Requirements: - `spender` cannot be the zero address."
      },
      "name()": {
        "details": "Returns the name of the token."
      },
      "paused()": {
        "details": "Returns true if the contract is paused, and false otherwise."
      },
      "proxiableUUID()": {
        "details": "Implementation of the ERC1822 {proxiableUUID} function. This returns the storage slot used by the implementation. It is used to validate the implementation's compatibility when performing an upgrade. IMPORTANT: A proxy pointing at a proxiable contract should not be considered proxiable itself, because this risks bricking a proxy that upgrades to it, by delegating to itself until out of gas. Thus it is critical that this function revert if invoked through a proxy. This is guaranteed by the `notDelegated` modifier."
      },
      "renounceRole(bytes32,address)": {
        "details": "Revokes `role` from the calling account. Roles are often managed via {grantRole} and {revokeRole}: this function's purpose is to provide a mechanism for accounts to lose their privileges if they are compromised (such as when a trusted device is misplaced). If the calling account had been revoked `role`, emits a {RoleRevoked} event. Requirements: - the caller must be `account`. May emit a {RoleRevoked} event."
      },
      "revokeRole(bytes32,address)": {
        "details": "Revokes `role` from `account`. If `account` had been granted `role`, emits a {RoleRevoked} event. Requirements: - the caller must have ``role``'s admin role. May emit a {RoleRevoked} event."
      },
      "supportsInterface(bytes4)": {
        "details": "See {IERC165-supportsInterface}."
      },
      "symbol()": {
        "details": "Returns the symbol of the token, usually a shorter version of the name."
      },
      "totalSupply()": {
        "details": "See {IERC20-totalSupply}."
      },
      "transfer(address,uint256)": {
        "details": "See {IERC20-transfer}. Requirements: - `to` cannot be the zero address. - the caller must have a balance of at least `amount`."
      },
      "transferFrom(address,address,uint256)": {
        "details": "See {IERC20-transferFrom}. Emits an {Approval} event indicating the updated allowance. This is not required by the EIP. See the note at the beginning of {ERC20}. NOTE: Does not update the allowance if the current allowance is the maximum `uint256`. Requirements: - `from` and `to` cannot be the zero address. - `from` must have a balance of at least `amount`. - the caller must have allowance for ``from``'s tokens of at least `amount`."
      },
      "upgradeTo(address)": {
        "custom:oz-upgrades-unsafe-allow-reachable": "delegatecall",
        "details": "Upgrade the implementation of the proxy to `newImplementation`. Calls {_authorizeUpgrade}. Emits an {Upgraded} event."
      },
      "upgradeToAndCall(address,bytes)": {
        "custom:oz-upgrades-unsafe-allow-reachable": "delegatecall",
        "details": "Upgrade the implementation of the proxy to `newImplementation`, and subsequently execute the function call encoded in `data`. Calls {_authorizeUpgrade}. Emits an {Upgraded} event."
      }
    },
    "title": "GovernanceToken",
    "version": 1
  },
  "userdoc": {
    "kind": "user",
    "methods": {},
    "notice": "An upgradeable ERC20 token with cross-chain support, access control, and multisig bridge updates",
    "version": 1
  }
}