{
  "contractName": "PoolFactory",
  "abi": [
    {
      "inputs": [],
      "stateMutability": "nonpayable",
      "type": "constructor"
    },
    {
      "inputs": [],
      "name": "AlreadyVoted",
      "type": "error"
    },
    {
      "inputs": [
        {
          "internalType": "uint256",
          "name": "size",
          "type": "uint256"
        },
        {
          "internalType": "uint256",
          "name": "max",
          "type": "uint256"
        }
      ],
      "name": "BatchSizeExceeded",
      "type": "error"
    },
    {
      "inputs": [
        {
          "internalType": "uint16",
          "name": "chainId",
          "type": "uint16"
        }
      ],
      "name": "ChainPaused",
      "type": "error"
    },
    {
      "inputs": [],
      "name": "CircuitBreakerTriggered",
      "type": "error"
    },
    {
      "inputs": [],
      "name": "ContractPaused",
      "type": "error"
    },
    {
      "inputs": [
        {
          "internalType": "address",
          "name": "delegate",
          "type": "address"
        }
      ],
      "name": "DelegationExpired",
      "type": "error"
    },
    {
      "inputs": [
        {
          "internalType": "uint256",
          "name": "proposalId",
          "type": "uint256"
        }
      ],
      "name": "EmergencyFlagPending",
      "type": "error"
    },
    {
      "inputs": [
        {
          "internalType": "string",
          "name": "reason",
          "type": "string"
        }
      ],
      "name": "FailedExternalCall",
      "type": "error"
    },
    {
      "inputs": [],
      "name": "IdenticalTokens",
      "type": "error"
    },
    {
      "inputs": [
        {
          "internalType": "uint256",
          "name": "provided",
          "type": "uint256"
        },
        {
          "internalType": "uint256",
          "name": "required",
          "type": "uint256"
        }
      ],
      "name": "InsufficientFee",
      "type": "error"
    },
    {
      "inputs": [
        {
          "internalType": "uint256",
          "name": "provided",
          "type": "uint256"
        },
        {
          "internalType": "uint256",
          "name": "required",
          "type": "uint256"
        }
      ],
      "name": "InsufficientProposalFee",
      "type": "error"
    },
    {
      "inputs": [
        {
          "internalType": "uint256",
          "name": "power",
          "type": "uint256"
        },
        {
          "internalType": "uint256",
          "name": "required",
          "type": "uint256"
        }
      ],
      "name": "InsufficientVotingPower",
      "type": "error"
    },
    {
      "inputs": [
        {
          "internalType": "string",
          "name": "reason",
          "type": "string"
        }
      ],
      "name": "InvalidAdapterParams",
      "type": "error"
    },
    {
      "inputs": [
        {
          "internalType": "address",
          "name": "addr",
          "type": "address"
        },
        {
          "internalType": "string",
          "name": "reason",
          "type": "string"
        }
      ],
      "name": "InvalidAddress",
      "type": "error"
    },
    {
      "inputs": [
        {
          "internalType": "string",
          "name": "reason",
          "type": "string"
        }
      ],
      "name": "InvalidAmount",
      "type": "error"
    },
    {
      "inputs": [
        {
          "internalType": "address",
          "name": "member",
          "type": "address"
        }
      ],
      "name": "InvalidCommitteeMember",
      "type": "error"
    },
    {
      "inputs": [
        {
          "internalType": "address",
          "name": "delegate",
          "type": "address"
        }
      ],
      "name": "InvalidDelegate",
      "type": "error"
    },
    {
      "inputs": [
        {
          "internalType": "uint256",
          "name": "gasLimit",
          "type": "uint256"
        },
        {
          "internalType": "uint256",
          "name": "minGasLimit",
          "type": "uint256"
        }
      ],
      "name": "InvalidGasLimit",
      "type": "error"
    },
    {
      "inputs": [],
      "name": "InvalidNonce",
      "type": "error"
    },
    {
      "inputs": [
        {
          "internalType": "address",
          "name": "oracle",
          "type": "address"
        },
        {
          "internalType": "string",
          "name": "reason",
          "type": "string"
        }
      ],
      "name": "InvalidOracle",
      "type": "error"
    },
    {
      "inputs": [
        {
          "internalType": "address",
          "name": "oracle",
          "type": "address"
        },
        {
          "internalType": "address",
          "name": "relayer",
          "type": "address"
        }
      ],
      "name": "InvalidOracleRelayer",
      "type": "error"
    },
    {
      "inputs": [],
      "name": "InvalidPayload",
      "type": "error"
    },
    {
      "inputs": [],
      "name": "InvalidReserveRatio",
      "type": "error"
    },
    {
      "inputs": [],
      "name": "InvalidSalt",
      "type": "error"
    },
    {
      "inputs": [
        {
          "internalType": "address",
          "name": "target",
          "type": "address"
        }
      ],
      "name": "InvalidTarget",
      "type": "error"
    },
    {
      "inputs": [
        {
          "internalType": "uint256",
          "name": "timelock",
          "type": "uint256"
        },
        {
          "internalType": "uint256",
          "name": "min",
          "type": "uint256"
        },
        {
          "internalType": "uint256",
          "name": "max",
          "type": "uint256"
        }
      ],
      "name": "InvalidTimelock",
      "type": "error"
    },
    {
      "inputs": [
        {
          "internalType": "string",
          "name": "reason",
          "type": "string"
        }
      ],
      "name": "InvalidTokenAddress",
      "type": "error"
    },
    {
      "inputs": [
        {
          "internalType": "address",
          "name": "token",
          "type": "address"
        },
        {
          "internalType": "string",
          "name": "reason",
          "type": "string"
        }
      ],
      "name": "InvalidTokenContract",
      "type": "error"
    },
    {
      "inputs": [
        {
          "internalType": "address",
          "name": "oracle",
          "type": "address"
        },
        {
          "internalType": "address",
          "name": "tokenA",
          "type": "address"
        },
        {
          "internalType": "address",
          "name": "tokenB",
          "type": "address"
        }
      ],
      "name": "InvalidTokenPair",
      "type": "error"
    },
    {
      "inputs": [],
      "name": "MaxRetriesExceeded",
      "type": "error"
    },
    {
      "inputs": [
        {
          "internalType": "uint256",
          "name": "messageId",
          "type": "uint256"
        }
      ],
      "name": "MessageNotExists",
      "type": "error"
    },
    {
      "inputs": [],
      "name": "NoOracleAvailable",
      "type": "error"
    },
    {
      "inputs": [
        {
          "internalType": "string",
          "name": "reason",
          "type": "string"
        }
      ],
      "name": "NotPaused",
      "type": "error"
    },
    {
      "inputs": [
        {
          "internalType": "uint8",
          "name": "primaryDecimals",
          "type": "uint8"
        },
        {
          "internalType": "uint8",
          "name": "fallbackDecimals",
          "type": "uint8"
        }
      ],
      "name": "OraclePrecisionMismatch",
      "type": "error"
    },
    {
      "inputs": [],
      "name": "PoolAlreadyExists",
      "type": "error"
    },
    {
      "inputs": [],
      "name": "ProposalAlreadyExecuted",
      "type": "error"
    },
    {
      "inputs": [],
      "name": "ProposalCanceled",
      "type": "error"
    },
    {
      "inputs": [
        {
          "internalType": "uint256",
          "name": "nextProposalTime",
          "type": "uint256"
        }
      ],
      "name": "ProposalCooldownActive",
      "type": "error"
    },
    {
      "inputs": [
        {
          "internalType": "uint256",
          "name": "proposalId",
          "type": "uint256"
        }
      ],
      "name": "ProposalNotFound",
      "type": "error"
    },
    {
      "inputs": [
        {
          "internalType": "uint256",
          "name": "proposalId",
          "type": "uint256"
        },
        {
          "internalType": "string",
          "name": "reason",
          "type": "string"
        }
      ],
      "name": "ProposalNotReady",
      "type": "error"
    },
    {
      "inputs": [
        {
          "internalType": "uint256",
          "name": "totalVotes",
          "type": "uint256"
        },
        {
          "internalType": "uint256",
          "name": "quorumRequired",
          "type": "uint256"
        }
      ],
      "name": "QuorumNotMet",
      "type": "error"
    },
    {
      "inputs": [
        {
          "internalType": "uint256",
          "name": "updatedAt",
          "type": "uint256"
        },
        {
          "internalType": "uint256",
          "name": "currentTimestamp",
          "type": "uint256"
        }
      ],
      "name": "StaleOracleData",
      "type": "error"
    },
    {
      "inputs": [
        {
          "internalType": "address",
          "name": "caller",
          "type": "address"
        }
      ],
      "name": "UnauthorizedCaller",
      "type": "error"
    },
    {
      "inputs": [
        {
          "internalType": "uint256",
          "name": "upgradeId",
          "type": "uint256"
        }
      ],
      "name": "UpgradeNotApproved",
      "type": "error"
    },
    {
      "inputs": [],
      "name": "VotingClosed",
      "type": "error"
    },
    {
      "anonymous": false,
      "inputs": [
        {
          "indexed": false,
          "internalType": "address",
          "name": "previousAdmin",
          "type": "address"
        },
        {
          "indexed": false,
          "internalType": "address",
          "name": "newAdmin",
          "type": "address"
        }
      ],
      "name": "AdminChanged",
      "type": "event"
    },
    {
      "anonymous": false,
      "inputs": [
        {
          "indexed": false,
          "internalType": "uint256",
          "name": "poolCount",
          "type": "uint256"
        },
        {
          "indexed": false,
          "internalType": "uint16",
          "name": "chainId",
          "type": "uint16"
        }
      ],
      "name": "BatchPoolsCreated",
      "type": "event"
    },
    {
      "anonymous": false,
      "inputs": [
        {
          "indexed": true,
          "internalType": "address",
          "name": "voter",
          "type": "address"
        },
        {
          "indexed": false,
          "internalType": "uint256[]",
          "name": "proposalIds",
          "type": "uint256[]"
        },
        {
          "indexed": false,
          "internalType": "bool[]",
          "name": "inFavor",
          "type": "bool[]"
        },
        {
          "indexed": false,
          "internalType": "uint256",
          "name": "votingPower",
          "type": "uint256"
        }
      ],
      "name": "BatchVoted",
      "type": "event"
    },
    {
      "anonymous": false,
      "inputs": [
        {
          "indexed": true,
          "internalType": "address",
          "name": "beacon",
          "type": "address"
        }
      ],
      "name": "BeaconUpgraded",
      "type": "event"
    },
    {
      "anonymous": false,
      "inputs": [
        {
          "indexed": true,
          "internalType": "uint16",
          "name": "chainId",
          "type": "uint16"
        },
        {
          "indexed": true,
          "internalType": "address",
          "name": "caller",
          "type": "address"
        }
      ],
      "name": "ChainPausedEvent",
      "type": "event"
    },
    {
      "anonymous": false,
      "inputs": [
        {
          "indexed": true,
          "internalType": "uint16",
          "name": "chainId",
          "type": "uint16"
        },
        {
          "indexed": true,
          "internalType": "address",
          "name": "caller",
          "type": "address"
        }
      ],
      "name": "ChainUnpaused",
      "type": "event"
    },
    {
      "anonymous": false,
      "inputs": [
        {
          "indexed": false,
          "internalType": "bool",
          "name": "enabled",
          "type": "bool"
        }
      ],
      "name": "CircuitBreakerToggled",
      "type": "event"
    },
    {
      "anonymous": false,
      "inputs": [
        {
          "indexed": true,
          "internalType": "address",
          "name": "member",
          "type": "address"
        }
      ],
      "name": "CommitteeMemberAdded",
      "type": "event"
    },
    {
      "anonymous": false,
      "inputs": [
        {
          "indexed": true,
          "internalType": "address",
          "name": "member",
          "type": "address"
        }
      ],
      "name": "CommitteeMemberRemoved",
      "type": "event"
    },
    {
      "anonymous": false,
      "inputs": [
        {
          "indexed": true,
          "internalType": "uint16",
          "name": "srcChainId",
          "type": "uint16"
        },
        {
          "indexed": false,
          "internalType": "address",
          "name": "tokenA",
          "type": "address"
        },
        {
          "indexed": false,
          "internalType": "address",
          "name": "tokenB",
          "type": "address"
        },
        {
          "indexed": false,
          "internalType": "address",
          "name": "pool",
          "type": "address"
        }
      ],
      "name": "CrossChainPoolUpdated",
      "type": "event"
    },
    {
      "anonymous": false,
      "inputs": [
        {
          "indexed": true,
          "internalType": "uint16",
          "name": "chainId",
          "type": "uint16"
        },
        {
          "indexed": false,
          "internalType": "bytes",
          "name": "payload",
          "type": "bytes"
        }
      ],
      "name": "CrossChainSyncSent",
      "type": "event"
    },
    {
      "anonymous": false,
      "inputs": [
        {
          "indexed": false,
          "internalType": "uint256",
          "name": "newRatio",
          "type": "uint256"
        }
      ],
      "name": "DefaultTargetReserveRatioUpdated",
      "type": "event"
    },
    {
      "anonymous": false,
      "inputs": [
        {
          "indexed": false,
          "internalType": "uint256",
          "name": "newTimelock",
          "type": "uint256"
        }
      ],
      "name": "DefaultTimelockUpdated",
      "type": "event"
    },
    {
      "anonymous": false,
      "inputs": [
        {
          "indexed": true,
          "internalType": "address",
          "name": "delegator",
          "type": "address"
        },
        {
          "indexed": true,
          "internalType": "address",
          "name": "delegate",
          "type": "address"
        }
      ],
      "name": "DelegationRevoked",
      "type": "event"
    },
    {
      "anonymous": false,
      "inputs": [
        {
          "indexed": true,
          "internalType": "uint256",
          "name": "proposalId",
          "type": "uint256"
        },
        {
          "indexed": false,
          "internalType": "bool",
          "name": "oracleOverride",
          "type": "bool"
        },
        {
          "indexed": false,
          "internalType": "bool",
          "name": "circuitBreaker",
          "type": "bool"
        },
        {
          "indexed": false,
          "internalType": "uint256",
          "name": "proposedAt",
          "type": "uint256"
        }
      ],
      "name": "EmergencyFlagProposed",
      "type": "event"
    },
    {
      "anonymous": false,
      "inputs": [
        {
          "indexed": true,
          "internalType": "uint256",
          "name": "messageId",
          "type": "uint256"
        }
      ],
      "name": "FailedMessageCleared",
      "type": "event"
    },
    {
      "anonymous": false,
      "inputs": [
        {
          "indexed": true,
          "internalType": "uint256",
          "name": "messageId",
          "type": "uint256"
        },
        {
          "indexed": true,
          "internalType": "address",
          "name": "recipient",
          "type": "address"
        }
      ],
      "name": "FailedMessageRecovered",
      "type": "event"
    },
    {
      "anonymous": false,
      "inputs": [
        {
          "indexed": true,
          "internalType": "uint256",
          "name": "messageId",
          "type": "uint256"
        },
        {
          "indexed": false,
          "internalType": "uint16",
          "name": "dstChainId",
          "type": "uint16"
        },
        {
          "indexed": false,
          "internalType": "uint256",
          "name": "retries",
          "type": "uint256"
        }
      ],
      "name": "FailedMessageRetried",
      "type": "event"
    },
    {
      "anonymous": false,
      "inputs": [
        {
          "indexed": true,
          "internalType": "uint256",
          "name": "messageId",
          "type": "uint256"
        },
        {
          "indexed": false,
          "internalType": "uint16",
          "name": "dstChainId",
          "type": "uint16"
        },
        {
          "indexed": false,
          "internalType": "bytes",
          "name": "payload",
          "type": "bytes"
        }
      ],
      "name": "FailedMessageStored",
      "type": "event"
    },
    {
      "anonymous": false,
      "inputs": [
        {
          "indexed": true,
          "internalType": "uint16",
          "name": "chainId",
          "type": "uint16"
        },
        {
          "indexed": false,
          "internalType": "address[]",
          "name": "oracles",
          "type": "address[]"
        }
      ],
      "name": "FallbackOraclesUpdated",
      "type": "event"
    },
    {
      "anonymous": false,
      "inputs": [
        {
          "indexed": true,
          "internalType": "uint256",
          "name": "proposalId",
          "type": "uint256"
        }
      ],
      "name": "GovernanceProposalCanceled",
      "type": "event"
    },
    {
      "anonymous": false,
      "inputs": [
        {
          "indexed": true,
          "internalType": "uint256",
          "name": "proposalId",
          "type": "uint256"
        }
      ],
      "name": "GovernanceProposalCleared",
      "type": "event"
    },
    {
      "anonymous": false,
      "inputs": [
        {
          "indexed": true,
          "internalType": "uint256",
          "name": "proposalId",
          "type": "uint256"
        },
        {
          "indexed": false,
          "internalType": "address",
          "name": "target",
          "type": "address"
        },
        {
          "indexed": false,
          "internalType": "bytes",
          "name": "data",
          "type": "bytes"
        },
        {
          "indexed": false,
          "internalType": "address",
          "name": "proposer",
          "type": "address"
        },
        {
          "indexed": false,
          "internalType": "uint256",
          "name": "proposedAt",
          "type": "uint256"
        },
        {
          "indexed": false,
          "internalType": "uint256",
          "name": "snapshotSupply",
          "type": "uint256"
        },
        {
          "indexed": false,
          "internalType": "uint256",
          "name": "impactLevel",
          "type": "uint256"
        }
      ],
      "name": "GovernanceProposalCreated",
      "type": "event"
    },
    {
      "anonymous": false,
      "inputs": [
        {
          "indexed": true,
          "internalType": "uint256",
          "name": "proposalId",
          "type": "uint256"
        }
      ],
      "name": "GovernanceProposalExecuted",
      "type": "event"
    },
    {
      "anonymous": false,
      "inputs": [
        {
          "indexed": true,
          "internalType": "address",
          "name": "target",
          "type": "address"
        }
      ],
      "name": "GovernanceTargetWhitelisted",
      "type": "event"
    },
    {
      "anonymous": false,
      "inputs": [
        {
          "indexed": false,
          "internalType": "uint256",
          "name": "newSupply",
          "type": "uint256"
        }
      ],
      "name": "GovernanceTokenSupplyUpdated",
      "type": "event"
    },
    {
      "anonymous": false,
      "inputs": [
        {
          "indexed": true,
          "internalType": "address",
          "name": "newGovernanceToken",
          "type": "address"
        }
      ],
      "name": "GovernanceTokenUpdated",
      "type": "event"
    },
    {
      "anonymous": false,
      "inputs": [
        {
          "indexed": false,
          "internalType": "uint8",
          "name": "version",
          "type": "uint8"
        }
      ],
      "name": "Initialized",
      "type": "event"
    },
    {
      "anonymous": false,
      "inputs": [
        {
          "indexed": true,
          "internalType": "address",
          "name": "newEndpoint",
          "type": "address"
        }
      ],
      "name": "LayerZeroEndpointUpdated",
      "type": "event"
    },
    {
      "anonymous": false,
      "inputs": [
        {
          "indexed": false,
          "internalType": "uint256",
          "name": "maxBatchSize",
          "type": "uint256"
        }
      ],
      "name": "MaxBatchSizeUpdated",
      "type": "event"
    },
    {
      "anonymous": false,
      "inputs": [
        {
          "indexed": false,
          "internalType": "uint256",
          "name": "maxOracleStaleness",
          "type": "uint256"
        }
      ],
      "name": "MaxOracleStalenessUpdated",
      "type": "event"
    },
    {
      "anonymous": false,
      "inputs": [
        {
          "indexed": false,
          "internalType": "uint256",
          "name": "maxRetries",
          "type": "uint256"
        }
      ],
      "name": "MaxRetriesUpdated",
      "type": "event"
    },
    {
      "anonymous": false,
      "inputs": [
        {
          "indexed": false,
          "internalType": "uint256",
          "name": "maxTimelock",
          "type": "uint256"
        }
      ],
      "name": "MaxTimelockUpdated",
      "type": "event"
    },
    {
      "anonymous": false,
      "inputs": [
        {
          "indexed": false,
          "internalType": "uint256",
          "name": "minGasLimit",
          "type": "uint256"
        }
      ],
      "name": "MinGasLimitUpdated",
      "type": "event"
    },
    {
      "anonymous": false,
      "inputs": [
        {
          "indexed": false,
          "internalType": "uint256",
          "name": "minTimelock",
          "type": "uint256"
        }
      ],
      "name": "MinTimelockUpdated",
      "type": "event"
    },
    {
      "anonymous": false,
      "inputs": [
        {
          "indexed": false,
          "internalType": "bool",
          "name": "enabled",
          "type": "bool"
        }
      ],
      "name": "OracleOverrideToggled",
      "type": "event"
    },
    {
      "anonymous": false,
      "inputs": [
        {
          "indexed": true,
          "internalType": "uint16",
          "name": "chainId",
          "type": "uint16"
        },
        {
          "indexed": false,
          "internalType": "address",
          "name": "oracle",
          "type": "address"
        },
        {
          "indexed": false,
          "internalType": "address",
          "name": "relayer",
          "type": "address"
        }
      ],
      "name": "OracleRelayerUpdated",
      "type": "event"
    },
    {
      "anonymous": false,
      "inputs": [
        {
          "indexed": true,
          "internalType": "uint256",
          "name": "oracle",
          "type": "uint256"
        },
        {
          "indexed": false,
          "internalType": "string",
          "name": "reason",
          "type": "string"
        }
      ],
      "name": "OracleValidationFailed",
      "type": "event"
    },
    {
      "anonymous": false,
      "inputs": [
        {
          "indexed": true,
          "internalType": "address",
          "name": "previousOwner",
          "type": "address"
        },
        {
          "indexed": true,
          "internalType": "address",
          "name": "newOwner",
          "type": "address"
        }
      ],
      "name": "OwnershipTransferred",
      "type": "event"
    },
    {
      "anonymous": false,
      "inputs": [
        {
          "indexed": false,
          "internalType": "bool",
          "name": "paused",
          "type": "bool"
        }
      ],
      "name": "PauseToggled",
      "type": "event"
    },
    {
      "anonymous": false,
      "inputs": [
        {
          "indexed": true,
          "internalType": "address",
          "name": "tokenA",
          "type": "address"
        },
        {
          "indexed": true,
          "internalType": "address",
          "name": "tokenB",
          "type": "address"
        },
        {
          "indexed": false,
          "internalType": "address",
          "name": "pool",
          "type": "address"
        },
        {
          "indexed": false,
          "internalType": "address",
          "name": "primaryPriceOracle",
          "type": "address"
        },
        {
          "indexed": false,
          "internalType": "address[]",
          "name": "fallbackPriceOracles",
          "type": "address[]"
        },
        {
          "indexed": false,
          "internalType": "uint16",
          "name": "chainId",
          "type": "uint16"
        },
        {
          "indexed": false,
          "internalType": "bytes32",
          "name": "salt",
          "type": "bytes32"
        }
      ],
      "name": "PoolCreated",
      "type": "event"
    },
    {
      "anonymous": false,
      "inputs": [
        {
          "indexed": false,
          "internalType": "uint256",
          "name": "newCooldown",
          "type": "uint256"
        }
      ],
      "name": "ProposalCooldownUpdated",
      "type": "event"
    },
    {
      "anonymous": false,
      "inputs": [
        {
          "indexed": false,
          "internalType": "uint256",
          "name": "newFee",
          "type": "uint256"
        }
      ],
      "name": "ProposalFeeUpdated",
      "type": "event"
    },
    {
      "anonymous": false,
      "inputs": [
        {
          "indexed": true,
          "internalType": "uint16",
          "name": "chainId",
          "type": "uint16"
        },
        {
          "indexed": false,
          "internalType": "uint256",
          "name": "timelock",
          "type": "uint256"
        }
      ],
      "name": "TimelockUpdated",
      "type": "event"
    },
    {
      "anonymous": false,
      "inputs": [
        {
          "indexed": true,
          "internalType": "address",
          "name": "newTreasury",
          "type": "address"
        }
      ],
      "name": "TreasuryUpdated",
      "type": "event"
    },
    {
      "anonymous": false,
      "inputs": [
        {
          "indexed": true,
          "internalType": "uint16",
          "name": "chainId",
          "type": "uint16"
        },
        {
          "indexed": false,
          "internalType": "bytes",
          "name": "factoryAddress",
          "type": "bytes"
        }
      ],
      "name": "TrustedRemoteFactoryAdded",
      "type": "event"
    },
    {
      "anonymous": false,
      "inputs": [
        {
          "indexed": true,
          "internalType": "uint256",
          "name": "upgradeId",
          "type": "uint256"
        },
        {
          "indexed": false,
          "internalType": "address",
          "name": "approver",
          "type": "address"
        }
      ],
      "name": "UpgradeApproved",
      "type": "event"
    },
    {
      "anonymous": false,
      "inputs": [
        {
          "indexed": true,
          "internalType": "uint256",
          "name": "upgradeId",
          "type": "uint256"
        },
        {
          "indexed": false,
          "internalType": "address",
          "name": "newImplementation",
          "type": "address"
        }
      ],
      "name": "UpgradeExecuted",
      "type": "event"
    },
    {
      "anonymous": false,
      "inputs": [
        {
          "indexed": true,
          "internalType": "uint256",
          "name": "upgradeId",
          "type": "uint256"
        },
        {
          "indexed": false,
          "internalType": "address",
          "name": "newImplementation",
          "type": "address"
        },
        {
          "indexed": false,
          "internalType": "uint256",
          "name": "proposedAt",
          "type": "uint256"
        }
      ],
      "name": "UpgradeProposed",
      "type": "event"
    },
    {
      "anonymous": false,
      "inputs": [
        {
          "indexed": true,
          "internalType": "address",
          "name": "implementation",
          "type": "address"
        }
      ],
      "name": "Upgraded",
      "type": "event"
    },
    {
      "anonymous": false,
      "inputs": [
        {
          "indexed": true,
          "internalType": "address",
          "name": "delegator",
          "type": "address"
        },
        {
          "indexed": true,
          "internalType": "address",
          "name": "delegate",
          "type": "address"
        },
        {
          "indexed": false,
          "internalType": "uint256",
          "name": "expiry",
          "type": "uint256"
        }
      ],
      "name": "VoteDelegated",
      "type": "event"
    },
    {
      "anonymous": false,
      "inputs": [
        {
          "indexed": true,
          "internalType": "uint256",
          "name": "proposalId",
          "type": "uint256"
        },
        {
          "indexed": true,
          "internalType": "address",
          "name": "voter",
          "type": "address"
        },
        {
          "indexed": false,
          "internalType": "bool",
          "name": "inFavor",
          "type": "bool"
        },
        {
          "indexed": false,
          "internalType": "uint256",
          "name": "votingPower",
          "type": "uint256"
        }
      ],
      "name": "Voted",
      "type": "event"
    },
    {
      "anonymous": false,
      "inputs": [
        {
          "indexed": true,
          "internalType": "uint256",
          "name": "proposalId",
          "type": "uint256"
        }
      ],
      "name": "VotingClosedEvent",
      "type": "event"
    },
    {
      "anonymous": false,
      "inputs": [
        {
          "indexed": false,
          "internalType": "uint256",
          "name": "votingPeriod",
          "type": "uint256"
        },
        {
          "indexed": false,
          "internalType": "uint256",
          "name": "minimumProposalPower",
          "type": "uint256"
        },
        {
          "indexed": false,
          "internalType": "uint256",
          "name": "quorumThreshold",
          "type": "uint256"
        }
      ],
      "name": "VotingParametersUpdated",
      "type": "event"
    },
    {
      "inputs": [],
      "name": "MIN_COMMITTEE_APPROVALS",
      "outputs": [
        {
          "internalType": "uint256",
          "name": "",
          "type": "uint256"
        }
      ],
      "stateMutability": "view",
      "type": "function"
    },
    {
      "inputs": [
        {
          "internalType": "uint256",
          "name": "",
          "type": "uint256"
        }
      ],
      "name": "allPools",
      "outputs": [
        {
          "internalType": "address",
          "name": "",
          "type": "address"
        }
      ],
      "stateMutability": "view",
      "type": "function"
    },
    {
      "inputs": [
        {
          "internalType": "uint16",
          "name": "",
          "type": "uint16"
        },
        {
          "internalType": "uint256",
          "name": "",
          "type": "uint256"
        }
      ],
      "name": "chainOracles",
      "outputs": [
        {
          "internalType": "address",
          "name": "",
          "type": "address"
        }
      ],
      "stateMutability": "view",
      "type": "function"
    },
    {
      "inputs": [
        {
          "internalType": "uint16",
          "name": "",
          "type": "uint16"
        }
      ],
      "name": "chainPaused",
      "outputs": [
        {
          "internalType": "bool",
          "name": "",
          "type": "bool"
        }
      ],
      "stateMutability": "view",
      "type": "function"
    },
    {
      "inputs": [
        {
          "internalType": "uint16",
          "name": "",
          "type": "uint16"
        },
        {
          "internalType": "uint256",
          "name": "",
          "type": "uint256"
        }
      ],
      "name": "chainRelayers",
      "outputs": [
        {
          "internalType": "address",
          "name": "",
          "type": "address"
        }
      ],
      "stateMutability": "view",
      "type": "function"
    },
    {
      "inputs": [],
      "name": "committeeMemberCount",
      "outputs": [
        {
          "internalType": "uint256",
          "name": "",
          "type": "uint256"
        }
      ],
      "stateMutability": "view",
      "type": "function"
    },
    {
      "inputs": [
        {
          "internalType": "address",
          "name": "",
          "type": "address"
        }
      ],
      "name": "committeeMembers",
      "outputs": [
        {
          "internalType": "bool",
          "name": "",
          "type": "bool"
        }
      ],
      "stateMutability": "view",
      "type": "function"
    },
    {
      "inputs": [],
      "name": "crossChainCircuitBreaker",
      "outputs": [
        {
          "internalType": "bool",
          "name": "",
          "type": "bool"
        }
      ],
      "stateMutability": "view",
      "type": "function"
    },
    {
      "inputs": [],
      "name": "defaultTargetReserveRatio",
      "outputs": [
        {
          "internalType": "uint256",
          "name": "",
          "type": "uint256"
        }
      ],
      "stateMutability": "view",
      "type": "function"
    },
    {
      "inputs": [],
      "name": "defaultTimelock",
      "outputs": [
        {
          "internalType": "uint256",
          "name": "",
          "type": "uint256"
        }
      ],
      "stateMutability": "view",
      "type": "function"
    },
    {
      "inputs": [],
      "name": "emergencyFlagProposalCount",
      "outputs": [
        {
          "internalType": "uint256",
          "name": "",
          "type": "uint256"
        }
      ],
      "stateMutability": "view",
      "type": "function"
    },
    {
      "inputs": [
        {
          "internalType": "uint256",
          "name": "",
          "type": "uint256"
        }
      ],
      "name": "emergencyFlagProposals",
      "outputs": [
        {
          "internalType": "bool",
          "name": "oracleOverride",
          "type": "bool"
        },
        {
          "internalType": "bool",
          "name": "circuitBreaker",
          "type": "bool"
        },
        {
          "internalType": "uint256",
          "name": "proposedAt",
          "type": "uint256"
        }
      ],
      "stateMutability": "view",
      "type": "function"
    },
    {
      "inputs": [
        {
          "internalType": "uint256",
          "name": "",
          "type": "uint256"
        }
      ],
      "name": "executedProposals",
      "outputs": [
        {
          "internalType": "address",
          "name": "target",
          "type": "address"
        },
        {
          "internalType": "bytes",
          "name": "data",
          "type": "bytes"
        },
        {
          "internalType": "address",
          "name": "proposer",
          "type": "address"
        },
        {
          "internalType": "uint256",
          "name": "proposedAt",
          "type": "uint256"
        },
        {
          "internalType": "bool",
          "name": "executed",
          "type": "bool"
        },
        {
          "internalType": "uint256",
          "name": "votesFor",
          "type": "uint256"
        },
        {
          "internalType": "uint256",
          "name": "votesAgainst",
          "type": "uint256"
        },
        {
          "internalType": "bool",
          "name": "votingClosed",
          "type": "bool"
        },
        {
          "internalType": "bool",
          "name": "cancelled",
          "type": "bool"
        },
        {
          "internalType": "uint256",
          "name": "snapshotSupply",
          "type": "uint256"
        },
        {
          "internalType": "uint256",
          "name": "impactLevel",
          "type": "uint256"
        }
      ],
      "stateMutability": "view",
      "type": "function"
    },
    {
      "inputs": [],
      "name": "failedMessageCount",
      "outputs": [
        {
          "internalType": "uint256",
          "name": "",
          "type": "uint256"
        }
      ],
      "stateMutability": "view",
      "type": "function"
    },
    {
      "inputs": [
        {
          "internalType": "uint256",
          "name": "",
          "type": "uint256"
        }
      ],
      "name": "failedMessages",
      "outputs": [
        {
          "internalType": "uint16",
          "name": "dstChainId",
          "type": "uint16"
        },
        {
          "internalType": "bytes",
          "name": "payload",
          "type": "bytes"
        },
        {
          "internalType": "bytes",
          "name": "adapterParams",
          "type": "bytes"
        },
        {
          "internalType": "uint256",
          "name": "retries",
          "type": "uint256"
        },
        {
          "internalType": "uint256",
          "name": "timestamp",
          "type": "uint256"
        },
        {
          "internalType": "uint256",
          "name": "nextRetryTimestamp",
          "type": "uint256"
        }
      ],
      "stateMutability": "view",
      "type": "function"
    },
    {
      "inputs": [
        {
          "internalType": "uint16",
          "name": "",
          "type": "uint16"
        },
        {
          "internalType": "uint256",
          "name": "",
          "type": "uint256"
        }
      ],
      "name": "fallbackOracles",
      "outputs": [
        {
          "internalType": "address",
          "name": "",
          "type": "address"
        }
      ],
      "stateMutability": "view",
      "type": "function"
    },
    {
      "inputs": [
        {
          "internalType": "address",
          "name": "",
          "type": "address"
        },
        {
          "internalType": "address",
          "name": "",
          "type": "address"
        }
      ],
      "name": "getPool",
      "outputs": [
        {
          "internalType": "address",
          "name": "",
          "type": "address"
        }
      ],
      "stateMutability": "view",
      "type": "function"
    },
    {
      "inputs": [
        {
          "internalType": "uint256",
          "name": "",
          "type": "uint256"
        }
      ],
      "name": "governanceProposals",
      "outputs": [
        {
          "internalType": "address",
          "name": "target",
          "type": "address"
        },
        {
          "internalType": "bytes",
          "name": "data",
          "type": "bytes"
        },
        {
          "internalType": "address",
          "name": "proposer",
          "type": "address"
        },
        {
          "internalType": "uint256",
          "name": "proposedAt",
          "type": "uint256"
        },
        {
          "internalType": "bool",
          "name": "executed",
          "type": "bool"
        },
        {
          "internalType": "uint256",
          "name": "votesFor",
          "type": "uint256"
        },
        {
          "internalType": "uint256",
          "name": "votesAgainst",
          "type": "uint256"
        },
        {
          "internalType": "bool",
          "name": "votingClosed",
          "type": "bool"
        },
        {
          "internalType": "bool",
          "name": "cancelled",
          "type": "bool"
        },
        {
          "internalType": "uint256",
          "name": "snapshotSupply",
          "type": "uint256"
        },
        {
          "internalType": "uint256",
          "name": "impactLevel",
          "type": "uint256"
        }
      ],
      "stateMutability": "view",
      "type": "function"
    },
    {
      "inputs": [
        {
          "internalType": "address",
          "name": "",
          "type": "address"
        }
      ],
      "name": "governanceTargetWhitelist",
      "outputs": [
        {
          "internalType": "bool",
          "name": "",
          "type": "bool"
        }
      ],
      "stateMutability": "view",
      "type": "function"
    },
    {
      "inputs": [],
      "name": "governanceTimelock",
      "outputs": [
        {
          "internalType": "uint256",
          "name": "",
          "type": "uint256"
        }
      ],
      "stateMutability": "view",
      "type": "function"
    },
    {
      "inputs": [],
      "name": "governanceToken",
      "outputs": [
        {
          "internalType": "address",
          "name": "",
          "type": "address"
        }
      ],
      "stateMutability": "view",
      "type": "function"
    },
    {
      "inputs": [],
      "name": "governanceTokenTotalSupply",
      "outputs": [
        {
          "internalType": "uint256",
          "name": "",
          "type": "uint256"
        }
      ],
      "stateMutability": "view",
      "type": "function"
    },
    {
      "inputs": [
        {
          "internalType": "uint256",
          "name": "",
          "type": "uint256"
        },
        {
          "internalType": "address",
          "name": "",
          "type": "address"
        }
      ],
      "name": "hasVoted",
      "outputs": [
        {
          "internalType": "bool",
          "name": "",
          "type": "bool"
        }
      ],
      "stateMutability": "view",
      "type": "function"
    },
    {
      "inputs": [
        {
          "internalType": "address",
          "name": "",
          "type": "address"
        }
      ],
      "name": "lastProposalTime",
      "outputs": [
        {
          "internalType": "uint256",
          "name": "",
          "type": "uint256"
        }
      ],
      "stateMutability": "view",
      "type": "function"
    },
    {
      "inputs": [],
      "name": "layerZeroEndpoint",
      "outputs": [
        {
          "internalType": "address",
          "name": "",
          "type": "address"
        }
      ],
      "stateMutability": "view",
      "type": "function"
    },
    {
      "inputs": [],
      "name": "localChainId",
      "outputs": [
        {
          "internalType": "uint16",
          "name": "",
          "type": "uint16"
        }
      ],
      "stateMutability": "view",
      "type": "function"
    },
    {
      "inputs": [],
      "name": "maxBatchSize",
      "outputs": [
        {
          "internalType": "uint32",
          "name": "",
          "type": "uint32"
        }
      ],
      "stateMutability": "view",
      "type": "function"
    },
    {
      "inputs": [],
      "name": "maxOracleStaleness",
      "outputs": [
        {
          "internalType": "uint32",
          "name": "",
          "type": "uint32"
        }
      ],
      "stateMutability": "view",
      "type": "function"
    },
    {
      "inputs": [],
      "name": "maxRetries",
      "outputs": [
        {
          "internalType": "uint32",
          "name": "",
          "type": "uint32"
        }
      ],
      "stateMutability": "view",
      "type": "function"
    },
    {
      "inputs": [],
      "name": "maxTimelock",
      "outputs": [
        {
          "internalType": "uint32",
          "name": "",
          "type": "uint32"
        }
      ],
      "stateMutability": "view",
      "type": "function"
    },
    {
      "inputs": [],
      "name": "minGasLimit",
      "outputs": [
        {
          "internalType": "uint32",
          "name": "",
          "type": "uint32"
        }
      ],
      "stateMutability": "view",
      "type": "function"
    },
    {
      "inputs": [],
      "name": "minTimelock",
      "outputs": [
        {
          "internalType": "uint32",
          "name": "",
          "type": "uint32"
        }
      ],
      "stateMutability": "view",
      "type": "function"
    },
    {
      "inputs": [],
      "name": "minimumProposalPower",
      "outputs": [
        {
          "internalType": "uint256",
          "name": "",
          "type": "uint256"
        }
      ],
      "stateMutability": "view",
      "type": "function"
    },
    {
      "inputs": [],
      "name": "oracleOverride",
      "outputs": [
        {
          "internalType": "bool",
          "name": "",
          "type": "bool"
        }
      ],
      "stateMutability": "view",
      "type": "function"
    },
    {
      "inputs": [],
      "name": "owner",
      "outputs": [
        {
          "internalType": "address",
          "name": "",
          "type": "address"
        }
      ],
      "stateMutability": "view",
      "type": "function"
    },
    {
      "inputs": [],
      "name": "paused",
      "outputs": [
        {
          "internalType": "bool",
          "name": "",
          "type": "bool"
        }
      ],
      "stateMutability": "view",
      "type": "function"
    },
    {
      "inputs": [
        {
          "internalType": "uint256",
          "name": "",
          "type": "uint256"
        }
      ],
      "name": "pendingUpgrades",
      "outputs": [
        {
          "internalType": "address",
          "name": "newImplementation",
          "type": "address"
        },
        {
          "internalType": "uint256",
          "name": "proposedAt",
          "type": "uint256"
        },
        {
          "internalType": "uint256",
          "name": "approvals",
          "type": "uint256"
        }
      ],
      "stateMutability": "view",
      "type": "function"
    },
    {
      "inputs": [],
      "name": "proposalCooldown",
      "outputs": [
        {
          "internalType": "uint256",
          "name": "",
          "type": "uint256"
        }
      ],
      "stateMutability": "view",
      "type": "function"
    },
    {
      "inputs": [],
      "name": "proposalCount",
      "outputs": [
        {
          "internalType": "uint256",
          "name": "",
          "type": "uint256"
        }
      ],
      "stateMutability": "view",
      "type": "function"
    },
    {
      "inputs": [],
      "name": "proposalFee",
      "outputs": [
        {
          "internalType": "uint256",
          "name": "",
          "type": "uint256"
        }
      ],
      "stateMutability": "view",
      "type": "function"
    },
    {
      "inputs": [],
      "name": "proxiableUUID",
      "outputs": [
        {
          "internalType": "bytes32",
          "name": "",
          "type": "bytes32"
        }
      ],
      "stateMutability": "view",
      "type": "function"
    },
    {
      "inputs": [],
      "name": "quorumThreshold",
      "outputs": [
        {
          "internalType": "uint256",
          "name": "",
          "type": "uint256"
        }
      ],
      "stateMutability": "view",
      "type": "function"
    },
    {
      "inputs": [],
      "name": "renounceOwnership",
      "outputs": [],
      "stateMutability": "nonpayable",
      "type": "function"
    },
    {
      "inputs": [
        {
          "internalType": "uint16",
          "name": "",
          "type": "uint16"
        }
      ],
      "name": "selectedOracle",
      "outputs": [
        {
          "internalType": "address",
          "name": "",
          "type": "address"
        }
      ],
      "stateMutability": "view",
      "type": "function"
    },
    {
      "inputs": [
        {
          "internalType": "uint16",
          "name": "",
          "type": "uint16"
        }
      ],
      "name": "selectedRelayer",
      "outputs": [
        {
          "internalType": "address",
          "name": "",
          "type": "address"
        }
      ],
      "stateMutability": "view",
      "type": "function"
    },
    {
      "inputs": [
        {
          "internalType": "uint16",
          "name": "",
          "type": "uint16"
        }
      ],
      "name": "timelocks",
      "outputs": [
        {
          "internalType": "uint256",
          "name": "",
          "type": "uint256"
        }
      ],
      "stateMutability": "view",
      "type": "function"
    },
    {
      "inputs": [
        {
          "internalType": "address",
          "name": "newOwner",
          "type": "address"
        }
      ],
      "name": "transferOwnership",
      "outputs": [],
      "stateMutability": "nonpayable",
      "type": "function"
    },
    {
      "inputs": [],
      "name": "treasury",
      "outputs": [
        {
          "internalType": "address",
          "name": "",
          "type": "address"
        }
      ],
      "stateMutability": "view",
      "type": "function"
    },
    {
      "inputs": [
        {
          "internalType": "uint16",
          "name": "",
          "type": "uint16"
        }
      ],
      "name": "trustedRemoteFactories",
      "outputs": [
        {
          "internalType": "bytes",
          "name": "",
          "type": "bytes"
        }
      ],
      "stateMutability": "view",
      "type": "function"
    },
    {
      "inputs": [],
      "name": "upgradeProposalCount",
      "outputs": [
        {
          "internalType": "uint256",
          "name": "",
          "type": "uint256"
        }
      ],
      "stateMutability": "view",
      "type": "function"
    },
    {
      "inputs": [
        {
          "internalType": "address",
          "name": "newImplementation",
          "type": "address"
        }
      ],
      "name": "upgradeTo",
      "outputs": [],
      "stateMutability": "nonpayable",
      "type": "function"
    },
    {
      "inputs": [
        {
          "internalType": "address",
          "name": "newImplementation",
          "type": "address"
        },
        {
          "internalType": "bytes",
          "name": "data",
          "type": "bytes"
        }
      ],
      "name": "upgradeToAndCall",
      "outputs": [],
      "stateMutability": "payable",
      "type": "function"
    },
    {
      "inputs": [
        {
          "internalType": "uint16",
          "name": "",
          "type": "uint16"
        },
        {
          "internalType": "uint64",
          "name": "",
          "type": "uint64"
        }
      ],
      "name": "usedNonces",
      "outputs": [
        {
          "internalType": "bool",
          "name": "",
          "type": "bool"
        }
      ],
      "stateMutability": "view",
      "type": "function"
    },
    {
      "inputs": [
        {
          "internalType": "address",
          "name": "",
          "type": "address"
        }
      ],
      "name": "voteDelegate",
      "outputs": [
        {
          "internalType": "address",
          "name": "delegate",
          "type": "address"
        },
        {
          "internalType": "uint256",
          "name": "expiry",
          "type": "uint256"
        }
      ],
      "stateMutability": "view",
      "type": "function"
    },
    {
      "inputs": [],
      "name": "votingPeriod",
      "outputs": [
        {
          "internalType": "uint256",
          "name": "",
          "type": "uint256"
        }
      ],
      "stateMutability": "view",
      "type": "function"
    },
    {
      "stateMutability": "payable",
      "type": "receive"
    },
    {
      "inputs": [
        {
          "internalType": "address",
          "name": "_layerZeroEndpoint",
          "type": "address"
        },
        {
          "internalType": "address",
          "name": "_treasury",
          "type": "address"
        },
        {
          "internalType": "address",
          "name": "_governanceToken",
          "type": "address"
        },
        {
          "internalType": "uint256",
          "name": "_defaultTimelock",
          "type": "uint256"
        },
        {
          "internalType": "uint256",
          "name": "_defaultTargetReserveRatio",
          "type": "uint256"
        },
        {
          "internalType": "uint256",
          "name": "_votingPeriod",
          "type": "uint256"
        },
        {
          "internalType": "uint256",
          "name": "_minimumProposalPower",
          "type": "uint256"
        },
        {
          "internalType": "uint256",
          "name": "_quorumThreshold",
          "type": "uint256"
        },
        {
          "internalType": "uint32",
          "name": "_maxOracleStaleness",
          "type": "uint32"
        },
        {
          "internalType": "address[]",
          "name": "_initialCommittee",
          "type": "address[]"
        }
      ],
      "name": "initialize",
      "outputs": [],
      "stateMutability": "nonpayable",
      "type": "function"
    },
    {
      "inputs": [
        {
          "internalType": "address",
          "name": "newImplementation",
          "type": "address"
        }
      ],
      "name": "proposeUpgrade",
      "outputs": [
        {
          "internalType": "uint256",
          "name": "",
          "type": "uint256"
        }
      ],
      "stateMutability": "nonpayable",
      "type": "function"
    },
    {
      "inputs": [
        {
          "internalType": "uint256",
          "name": "upgradeId",
          "type": "uint256"
        }
      ],
      "name": "approveUpgrade",
      "outputs": [],
      "stateMutability": "nonpayable",
      "type": "function"
    },
    {
      "inputs": [
        {
          "internalType": "address",
          "name": "tokenA",
          "type": "address"
        },
        {
          "internalType": "address",
          "name": "tokenB",
          "type": "address"
        },
        {
          "internalType": "address",
          "name": "primaryPriceOracle",
          "type": "address"
        },
        {
          "internalType": "uint16",
          "name": "chainId",
          "type": "uint16"
        },
        {
          "internalType": "bytes",
          "name": "adapterParams",
          "type": "bytes"
        },
        {
          "internalType": "bytes32",
          "name": "customSalt",
          "type": "bytes32"
        }
      ],
      "name": "createPool",
      "outputs": [
        {
          "internalType": "address",
          "name": "pool",
          "type": "address"
        }
      ],
      "stateMutability": "payable",
      "type": "function"
    },
    {
      "inputs": [
        {
          "internalType": "address[2][]",
          "name": "tokens",
          "type": "address[2][]"
        },
        {
          "internalType": "address[]",
          "name": "primaryPriceOracles",
          "type": "address[]"
        },
        {
          "internalType": "uint16[]",
          "name": "chainIds",
          "type": "uint16[]"
        },
        {
          "internalType": "bytes[]",
          "name": "adapterParams",
          "type": "bytes[]"
        },
        {
          "internalType": "bytes32[]",
          "name": "customSalts",
          "type": "bytes32[]"
        }
      ],
      "name": "batchCreatePools",
      "outputs": [
        {
          "internalType": "address[]",
          "name": "pools",
          "type": "address[]"
        }
      ],
      "stateMutability": "payable",
      "type": "function"
    },
    {
      "inputs": [
        {
          "internalType": "address",
          "name": "tokenA",
          "type": "address"
        },
        {
          "internalType": "address",
          "name": "tokenB",
          "type": "address"
        },
        {
          "internalType": "uint16",
          "name": "chainId",
          "type": "uint16"
        },
        {
          "internalType": "bytes32",
          "name": "customSalt",
          "type": "bytes32"
        }
      ],
      "name": "predictPoolAddress",
      "outputs": [
        {
          "internalType": "address",
          "name": "pool",
          "type": "address"
        }
      ],
      "stateMutability": "view",
      "type": "function"
    },
    {
      "inputs": [
        {
          "internalType": "uint256",
          "name": "messageId",
          "type": "uint256"
        }
      ],
      "name": "retryFailedMessage",
      "outputs": [],
      "stateMutability": "payable",
      "type": "function"
    },
    {
      "inputs": [
        {
          "internalType": "uint256",
          "name": "messageId",
          "type": "uint256"
        },
        {
          "internalType": "address",
          "name": "recipient",
          "type": "address"
        }
      ],
      "name": "recoverFailedMessage",
      "outputs": [],
      "stateMutability": "payable",
      "type": "function"
    },
    {
      "inputs": [
        {
          "internalType": "uint16",
          "name": "chainId",
          "type": "uint16"
        },
        {
          "internalType": "bytes",
          "name": "adapterParams",
          "type": "bytes"
        },
        {
          "internalType": "uint64",
          "name": "nonce",
          "type": "uint64"
        }
      ],
      "name": "syncCrossChain",
      "outputs": [],
      "stateMutability": "payable",
      "type": "function"
    },
    {
      "inputs": [
        {
          "internalType": "uint16",
          "name": "srcChainId",
          "type": "uint16"
        },
        {
          "internalType": "bytes",
          "name": "srcAddress",
          "type": "bytes"
        },
        {
          "internalType": "uint64",
          "name": "nonce",
          "type": "uint64"
        },
        {
          "internalType": "bytes",
          "name": "payload",
          "type": "bytes"
        }
      ],
      "name": "receiveCrossChainPoolUpdate",
      "outputs": [],
      "stateMutability": "nonpayable",
      "type": "function"
    },
    {
      "inputs": [
        {
          "internalType": "bytes",
          "name": "payload",
          "type": "bytes"
        }
      ],
      "name": "decodePayload",
      "outputs": [
        {
          "internalType": "address",
          "name": "tokenA",
          "type": "address"
        },
        {
          "internalType": "address",
          "name": "tokenB",
          "type": "address"
        },
        {
          "internalType": "address",
          "name": "pool",
          "type": "address"
        }
      ],
      "stateMutability": "pure",
      "type": "function"
    },
    {
      "inputs": [
        {
          "internalType": "uint256",
          "name": "start",
          "type": "uint256"
        },
        {
          "internalType": "uint256",
          "name": "end",
          "type": "uint256"
        }
      ],
      "name": "getAllPools",
      "outputs": [
        {
          "internalType": "address[]",
          "name": "pools",
          "type": "address[]"
        }
      ],
      "stateMutability": "view",
      "type": "function"
    },
    {
      "inputs": [],
      "name": "allPoolsLength",
      "outputs": [
        {
          "internalType": "uint256",
          "name": "",
          "type": "uint256"
        }
      ],
      "stateMutability": "view",
      "type": "function"
    },
    {
      "inputs": [
        {
          "internalType": "address",
          "name": "tokenA",
          "type": "address"
        },
        {
          "internalType": "address",
          "name": "tokenB",
          "type": "address"
        }
      ],
      "name": "poolExists",
      "outputs": [
        {
          "internalType": "bool",
          "name": "exists",
          "type": "bool"
        }
      ],
      "stateMutability": "view",
      "type": "function"
    },
    {
      "inputs": [
        {
          "internalType": "address",
          "name": "delegate",
          "type": "address"
        },
        {
          "internalType": "uint256",
          "name": "expiry",
          "type": "uint256"
        }
      ],
      "name": "delegateVote",
      "outputs": [],
      "stateMutability": "nonpayable",
      "type": "function"
    },
    {
      "inputs": [],
      "name": "revokeDelegation",
      "outputs": [],
      "stateMutability": "nonpayable",
      "type": "function"
    },
    {
      "inputs": [
        {
          "internalType": "address",
          "name": "target",
          "type": "address"
        },
        {
          "internalType": "bytes",
          "name": "data",
          "type": "bytes"
        },
        {
          "internalType": "uint256",
          "name": "impactLevel",
          "type": "uint256"
        }
      ],
      "name": "proposeGovernanceUpdate",
      "outputs": [
        {
          "internalType": "uint256",
          "name": "",
          "type": "uint256"
        }
      ],
      "stateMutability": "payable",
      "type": "function"
    },
    {
      "inputs": [
        {
          "internalType": "uint256",
          "name": "proposalId",
          "type": "uint256"
        }
      ],
      "name": "cancelGovernanceProposal",
      "outputs": [],
      "stateMutability": "nonpayable",
      "type": "function"
    },
    {
      "inputs": [
        {
          "internalType": "uint256",
          "name": "proposalId",
          "type": "uint256"
        },
        {
          "internalType": "bool",
          "name": "inFavor",
          "type": "bool"
        }
      ],
      "name": "vote",
      "outputs": [],
      "stateMutability": "nonpayable",
      "type": "function"
    },
    {
      "inputs": [
        {
          "internalType": "uint256[]",
          "name": "proposalIds",
          "type": "uint256[]"
        },
        {
          "internalType": "bool[]",
          "name": "inFavor",
          "type": "bool[]"
        }
      ],
      "name": "batchVoteProposals",
      "outputs": [],
      "stateMutability": "nonpayable",
      "type": "function"
    },
    {
      "inputs": [
        {
          "internalType": "uint256",
          "name": "proposalId",
          "type": "uint256"
        }
      ],
      "name": "executeGovernanceProposal",
      "outputs": [],
      "stateMutability": "nonpayable",
      "type": "function"
    },
    {
      "inputs": [
        {
          "internalType": "uint256",
          "name": "_votingPeriod",
          "type": "uint256"
        },
        {
          "internalType": "uint256",
          "name": "_minimumProposalPower",
          "type": "uint256"
        },
        {
          "internalType": "uint256",
          "name": "_quorumThreshold",
          "type": "uint256"
        }
      ],
      "name": "updateVotingParameters",
      "outputs": [],
      "stateMutability": "nonpayable",
      "type": "function"
    },
    {
      "inputs": [
        {
          "internalType": "uint32",
          "name": "_minTimelock",
          "type": "uint32"
        },
        {
          "internalType": "uint32",
          "name": "_maxTimelock",
          "type": "uint32"
        },
        {
          "internalType": "uint32",
          "name": "_maxRetries",
          "type": "uint32"
        },
        {
          "internalType": "uint32",
          "name": "_maxBatchSize",
          "type": "uint32"
        },
        {
          "internalType": "uint32",
          "name": "_minGasLimit",
          "type": "uint32"
        },
        {
          "internalType": "uint32",
          "name": "_maxOracleStaleness",
          "type": "uint32"
        }
      ],
      "name": "updateGovernanceParameters",
      "outputs": [],
      "stateMutability": "nonpayable",
      "type": "function"
    },
    {
      "inputs": [
        {
          "internalType": "address",
          "name": "_governanceToken",
          "type": "address"
        }
      ],
      "name": "updateGovernanceToken",
      "outputs": [],
      "stateMutability": "nonpayable",
      "type": "function"
    },
    {
      "inputs": [
        {
          "internalType": "uint16",
          "name": "chainId",
          "type": "uint16"
        },
        {
          "internalType": "address",
          "name": "oracle",
          "type": "address"
        },
        {
          "internalType": "address",
          "name": "relayer",
          "type": "address"
        }
      ],
      "name": "updateOracleRelayer",
      "outputs": [],
      "stateMutability": "nonpayable",
      "type": "function"
    },
    {
      "inputs": [
        {
          "internalType": "uint16",
          "name": "chainId",
          "type": "uint16"
        },
        {
          "internalType": "uint256",
          "name": "index",
          "type": "uint256"
        }
      ],
      "name": "selectOracleRelayer",
      "outputs": [],
      "stateMutability": "nonpayable",
      "type": "function"
    },
    {
      "inputs": [
        {
          "internalType": "uint16",
          "name": "chainId",
          "type": "uint16"
        },
        {
          "internalType": "uint256",
          "name": "timelock",
          "type": "uint256"
        }
      ],
      "name": "updateTimelock",
      "outputs": [],
      "stateMutability": "nonpayable",
      "type": "function"
    },
    {
      "inputs": [
        {
          "internalType": "uint256",
          "name": "_governanceTimelock",
          "type": "uint256"
        }
      ],
      "name": "updateGovernanceTimelock",
      "outputs": [],
      "stateMutability": "nonpayable",
      "type": "function"
    },
    {
      "inputs": [],
      "name": "pause",
      "outputs": [],
      "stateMutability": "nonpayable",
      "type": "function"
    },
    {
      "inputs": [],
      "name": "unpause",
      "outputs": [],
      "stateMutability": "nonpayable",
      "type": "function"
    },
    {
      "inputs": [
        {
          "internalType": "uint16",
          "name": "chainId",
          "type": "uint16"
        }
      ],
      "name": "pauseChain",
      "outputs": [],
      "stateMutability": "nonpayable",
      "type": "function"
    },
    {
      "inputs": [
        {
          "internalType": "uint16",
          "name": "chainId",
          "type": "uint16"
        }
      ],
      "name": "unpauseChain",
      "outputs": [],
      "stateMutability": "nonpayable",
      "type": "function"
    },
    {
      "inputs": [
        {
          "internalType": "address",
          "name": "_treasury",
          "type": "address"
        }
      ],
      "name": "updateTreasury",
      "outputs": [],
      "stateMutability": "nonpayable",
      "type": "function"
    },
    {
      "inputs": [
        {
          "internalType": "address",
          "name": "_layerZeroEndpoint",
          "type": "address"
        }
      ],
      "name": "updateLayerZeroEndpoint",
      "outputs": [],
      "stateMutability": "nonpayable",
      "type": "function"
    },
    {
      "inputs": [
        {
          "internalType": "uint256",
          "name": "_defaultTimelock",
          "type": "uint256"
        }
      ],
      "name": "updateDefaultTimelock",
      "outputs": [],
      "stateMutability": "nonpayable",
      "type": "function"
    },
    {
      "inputs": [
        {
          "internalType": "uint256",
          "name": "_defaultTargetReserveRatio",
          "type": "uint256"
        }
      ],
      "name": "updateDefaultTargetReserveRatio",
      "outputs": [],
      "stateMutability": "nonpayable",
      "type": "function"
    },
    {
      "inputs": [
        {
          "internalType": "uint16",
          "name": "chainId",
          "type": "uint16"
        },
        {
          "internalType": "bytes",
          "name": "factoryAddress",
          "type": "bytes"
        }
      ],
      "name": "addTrustedRemoteFactory",
      "outputs": [],
      "stateMutability": "nonpayable",
      "type": "function"
    },
    {
      "inputs": [
        {
          "internalType": "address",
          "name": "target",
          "type": "address"
        }
      ],
      "name": "whitelistGovernanceTarget",
      "outputs": [],
      "stateMutability": "nonpayable",
      "type": "function"
    },
    {
      "inputs": [
        {
          "internalType": "address",
          "name": "member",
          "type": "address"
        }
      ],
      "name": "addCommitteeMember",
      "outputs": [],
      "stateMutability": "nonpayable",
      "type": "function"
    },
    {
      "inputs": [
        {
          "internalType": "address",
          "name": "member",
          "type": "address"
        }
      ],
      "name": "removeCommitteeMember",
      "outputs": [],
      "stateMutability": "nonpayable",
      "type": "function"
    },
    {
      "inputs": [],
      "name": "updateGovernanceTokenSupply",
      "outputs": [],
      "stateMutability": "nonpayable",
      "type": "function"
    },
    {
      "inputs": [
        {
          "internalType": "bool",
          "name": "enableOracleOverride",
          "type": "bool"
        },
        {
          "internalType": "bool",
          "name": "enableCircuitBreaker",
          "type": "bool"
        }
      ],
      "name": "proposeEmergencyFlagToggle",
      "outputs": [
        {
          "internalType": "uint256",
          "name": "",
          "type": "uint256"
        }
      ],
      "stateMutability": "nonpayable",
      "type": "function"
    },
    {
      "inputs": [
        {
          "internalType": "uint256",
          "name": "proposalId",
          "type": "uint256"
        }
      ],
      "name": "executeEmergencyFlagToggle",
      "outputs": [],
      "stateMutability": "nonpayable",
      "type": "function"
    },
    {
      "inputs": [
        {
          "internalType": "uint16",
          "name": "chainId",
          "type": "uint16"
        },
        {
          "internalType": "address[]",
          "name": "oracles",
          "type": "address[]"
        }
      ],
      "name": "updateFallbackOracles",
      "outputs": [],
      "stateMutability": "nonpayable",
      "type": "function"
    },
    {
      "inputs": [
        {
          "internalType": "uint256",
          "name": "_proposalCooldown",
          "type": "uint256"
        }
      ],
      "name": "updateProposalCooldown",
      "outputs": [],
      "stateMutability": "nonpayable",
      "type": "function"
    },
    {
      "inputs": [
        {
          "internalType": "uint256",
          "name": "fee",
          "type": "uint256"
        }
      ],
      "name": "updateProposalFee",
      "outputs": [],
      "stateMutability": "nonpayable",
      "type": "function"
    },
    {
      "inputs": [
        {
          "internalType": "uint256[]",
          "name": "messageIds",
          "type": "uint256[]"
        },
        {
          "internalType": "uint256[]",
          "name": "proposalIds",
          "type": "uint256[]"
        }
      ],
      "name": "cleanupStorage",
      "outputs": [],
      "stateMutability": "nonpayable",
      "type": "function"
    }
  ],
  "bytecode": "0x60a0604052346200003857620000146200003d565b60405162014809620001fe82396080518181816131a0015261424a01526201480990f35b600080fd5b6200004762000053565b6200005162000183565b565b6200005162000098565b620000739062000076906001600160a01b031682565b90565b6001600160a01b031690565b62000073906200005d565b620000739062000082565b620000a3306200008d565b608052565b620000739060081c5b60ff1690565b620000739054620000a8565b60208082526027908201527f496e697469616c697a61626c653a20636f6e747261637420697320696e697469604082015266616c697a696e6760c81b606082015260800190565b156200011257565b60405162461bcd60e51b8152806200012d60048201620000c3565b0390fd5b6200007390620000b1565b62000073905462000131565b620000b162000073620000739260ff1690565b906200016f620000736200017f9262000148565b825460ff191660ff919091161790565b9055565b620001a16200019b620001976000620000b7565b1590565b6200010a565b620001ad60006200013c565b60ff90811603620001ba57565b620001c860ff60006200015b565b7f7f26b83ff96e1f2b6a682f133852f6798a09c465da95921460cefb3847402498620001f360405190565b60ff8152602090a156fe60e060405260043610156200001d575b36156200001b57600080fd5b005b60003560e01c8063024d973f146200074857806302a251a31462000742578063055c99db146200073c57806307968db1146200073657806309b99ddd14620007305780630a385cc2146200072a5780630cc6f11b14620007245780630e3187e5146200071e57806313e0afbe14620007185780631776f1d11462000712578063197c6e77146200070c57806321f9c804146200070657806324b604d1146200070057806325429e7d14620006fa57806325fd8e7614620006f45780632913daa014620006ee5780632e24af6914620006e85780633659cfe614620006e25780633b60288a14620006dc5780633ee6c3de14620006d65780633f4ba83a14620006d057806341d1de9714620006ca57806341ea9d3814620006c45780634340a34414620006be5780634357d1ed14620006b85780634385963214620006b2578063471327f914620006ac5780634802392514620006a65780634a7f931e14620006a05780634afdfbdb146200069a5780634f1bca9d14620006945780634f1ef286146200068e5780635001b98e14620006885780635014e8a3146200068257806352d1902d146200067c578063531aa03e146200067657806353f59d3b14620006705780635442774e146200066a57806354c6c8631462000664578063552e4e84146200065e578063594e88c114620006585780635aeb4d7714620006525780635b0082df146200064c5780635b056da514620006465780635b7ad57814620006405780635c975abb146200063a57806361d027b3146200063457806364ce83e6146200062e578063660ab6f81462000628578063686d58b61462000622578063687d2eda146200061c5780636d7616c11462000616578063715018a6146200061057806375af58ef146200060a57806376f69c76146200060457806377afe30214620005fe5780637b7a91dd14620005f85780637d3d8acc14620005f25780637f51bb1f14620005ec5780637fad0d4814620005e6578063810636bf14620005e05780638456cb5914620005da5780638da5cb5b14620005d4578063926f732714620005ce578063935e548514620005c857806393c70b7c14620005c25780639a1fdd7914620005bc5780639b7f306014620005b65780639f8810a914620005b0578063a043075214620005aa578063a4d3180514620005a4578063a7753f09146200059e578063b46ad5331462000598578063b4db270c1462000592578063b5372b10146200058c578063b5b310f61462000586578063b79dd3b51462000580578063bc1fd34b146200057a578063c27cabb51462000574578063c7fdfb76146200056e578063c818c7491462000568578063c915fc931462000562578063c9d27afe146200055c578063cd6d67911462000556578063cd8bdd9e1462000550578063d35eaee8146200054a578063d46630f91462000544578063d46c0fba146200053e578063d84e2d341462000538578063da35c6641462000532578063dc03c949146200052c578063e1ac42da1462000526578063e4adda971462000520578063e7f1f953146200051a578063e9b8ecfe1462000514578063ea604845146200050e578063efde4e641462000508578063f25d7c971462000502578063f2fde38b14620004fc578063f696c7c514620004f6578063f96dae0a14620004f05763fb16875d036200000f576200285a565b620027ca565b6200279d565b62002780565b62002763565b62002742565b6200270c565b6200269f565b62002625565b62002608565b620025e6565b6200254d565b6200251d565b620024f1565b620024cc565b6200246e565b6200243a565b62002408565b62002384565b62002366565b62002325565b6200230e565b620022ec565b62002259565b62002229565b620021fd565b620021df565b620021a8565b62002187565b62002166565b62002135565b620020f8565b620020d6565b62002075565b62002043565b62001f5c565b62001f2c565b62001ef5565b62001ec8565b62001e87565b62001e6a565b62001e40565b62001d4b565b62001d2e565b62001d13565b62001c87565b62001c5b565b62001c3a565b62001c0a565b62001bde565b62001bc6565b62001ba5565b62001b75565b62001b40565b62001b12565b62001aa5565b62001a75565b62001a46565b620019f6565b620019aa565b6200197a565b6200194a565b62001919565b620018f8565b620018ad565b620017b8565b62001782565b62001729565b6200170c565b620016ef565b620016d7565b620015d2565b62001445565b62001419565b620013f8565b6200135a565b62001338565b620012d8565b62001296565b62001206565b620011d7565b6200119e565b62001180565b62001107565b62000e2c565b62000e0a565b62000ddb565b62000daf565b62000d46565b62000ce6565b62000c45565b62000b5b565b62000aa8565b62000a6f565b620009e2565b620009c4565b62000986565b62000918565b6200089a565b6200082b565b620007ea565b6200078c565b61ffff81165b036200075c57565b600080fd5b9050359062000770826200074e565b565b906020828203126200075c57620007899162000761565b90565b346200075c57620007a9620007a336600462000772565b620029be565b604051005b0390f35b60009103126200075c57565b62000789916008021c81565b90620007899154620007be565b620007896000610111620007ca565b9052565b346200075c57620007fd366004620007b2565b620007ae6200080b620007d7565b6040515b9182918290815260200190565b62000789600061010c620007ca565b346200075c576200083e366004620007b2565b620007ae6200080b6200081c565b62000789916008021c5b6001600160a01b031690565b906200078991546200084c565b62000789600060ff62000862565b620007e69062000856565b6020810192916200077091906200087d565b346200075c57620008ad366004620007b2565b620007ae620008bb6200086f565b6040515b9182918262000888565b620008dd62000789620007899261ffff1690565b61ffff1690565b90620008f090620008c9565b600052602052604060002090565b6000620009126200078992610117620008e4565b62000862565b346200075c57620007ae620008bb6200093336600462000772565b620008fe565b8062000754565b90503590620007708262000939565b90916060828403126200075c57620007896200096c848462000940565b9360406200097e826020870162000940565b940162000940565b346200075c57620007a96200099d3660046200094f565b9162002b50565b91906040838203126200075c57620007899060206200097e828662000761565b346200075c57620007a9620009db366004620009a4565b9062002d37565b346200075c57620007a9620009f936600462000772565b62002dfb565b634e487b7160e01b600052603260045260246000fd5b805482101562000a3a5762000a31600191600052602060002090565b91020190600090565b620009ff565b62000a4e90610120620008e4565b80548210156200075c57620007899162000a689162000a15565b9062000862565b346200075c57620007ae620008bb62000a8a366004620009a4565b9062000a40565b906020828203126200075c57620007899162000940565b346200075c57620007a962000abf36600462000a91565b62002e5f565b909182601f830112156200075c578135916001600160401b0383116200075c5760200192600183028401116200075c57565b906020828203126200075c5781356001600160401b0381116200075c5762000b20920162000ac5565b9091565b60409062000b5362000770949695939662000b48606084019860008501906200087d565b60208301906200087d565b01906200087d565b346200075c57620007ae62000b7d62000b7636600462000af7565b9062002e87565b6040519193915b9384938462000b24565b6200078962000789620007899290565b90620008f09062000b8e565b62000789905b60ff1690565b62000789905462000baa565b620007899060081c62000bb0565b62000789905462000bc2565b620007899081565b62000789905462000bdc565b62000bfe9061012262000b9e565b62000c098162000bb6565b9162000789600162000c1b8462000bd0565b930162000be4565b90151581529015156020820152606081019291620007709160400152565b0152565b346200075c57620007ae62000c6662000c6036600462000a91565b62000bf0565b6040519193919384938462000c23565b620007899062000856565b62000789905462000c76565b62000c9b9061011e62000b9e565b62000ca68162000c81565b9162000789600262000c1b6001850162000be4565b60409062000c4162000770949695939662000cdf606084019860008501906200087d565b6020830152565b346200075c57620007ae62000d0762000d0136600462000a91565b62000c8d565b6040519193919384938462000cbb565b62000789916008021c5b63ffffffff1690565b9062000789915462000d17565b62000789600061011a62000d2a565b346200075c5762000d59366004620007b2565b620007ae62000d6762000d37565b6040519182918263ffffffff909116815260200190565b620007548162000856565b90503590620007708262000d7e565b906020828203126200075c57620007899162000d89565b346200075c57620007a962000dc636600462000d98565b620030b7565b62000789600c61011a62000d2a565b346200075c5762000dee366004620007b2565b620007ae62000d6762000dcc565b62000a4e90610114620008e4565b346200075c57620007ae620008bb62000e25366004620009a4565b9062000dfc565b346200075c57620007a962000e4336600462000d98565b62003275565b634e487b7160e01b600052602260045260246000fd5b906001600283049216801562000e82575b602083101462000e7c57565b62000e49565b91607f169162000e70565b8054600093929162000ead62000ea38362000e5f565b8085529360200190565b916001811690811562000f04575060011462000ec857505050565b62000edc9192939450600052602060002090565b916000925b81841062000eef5750500190565b80548484015260209093019260010162000ee1565b92949550505060ff1916825215156020020190565b90620007899162000e8d565b634e487b7160e01b600052604160045260246000fd5b90601f01601f191681019081106001600160401b0382111762000f5d57604052565b62000f25565b906200077062000f819262000f7760405190565b9384809262000f19565b038362000f3b565b62000f979061010862000b9e565b62000fa28162000c81565b9162000fb16001830162000f63565b9162000fc06002820162000c81565b9162000fcf6003830162000be4565b9162000fde6004820162000bb6565b9162000fed6005830162000be4565b9162000ffc6006820162000be4565b916200100b6007830162000bb6565b916200101a6007820162000bd0565b9162000789600962000c1b6008850162000be4565b60005b838110620010435750506000910152565b818101518382015260200162001032565b62001079620010836020936200108d936200106d815190565b80835293849260200190565b958691016200102f565b601f01601f191690565b0190565b989694929b9a9997959391906101608a019060008b01620010b2916200087d565b89810360208b0152620010c59162001054565b9a60408901620010d5916200087d565b60608801521515608087015260a086015260c0850152151560e084015215156101008301526101208201526101400152565b346200075c57620007ae620011286200112236600462000a91565b62000f89565b976200113f9b999b97919796929695939560405190565b9b8c9b8c62001091565b90916060828403126200075c576200078962001166848462000761565b93604062001178826020870162000d89565b940162000d89565b346200075c57620007a96200119736600462001149565b916200340f565b346200075c57620011b1366004620007b2565b620007a9620034d9565b60fc548110156200075c5762000a68620007899160fc62000a15565b346200075c57620007ae620008bb620011f236600462000a91565b620011bb565b62000a4e90610115620008e4565b346200075c57620007ae620008bb62001221366004620009a4565b90620011f8565b620007899062000856906001600160a01b031682565b620007899062001228565b62000789906200123e565b90620008f09062001249565b62000789916008021c62000bb0565b9062000789915462001260565b600062001290620007899261011b62001254565b6200126f565b346200075c57620007ae620012b7620012b136600462000d98565b6200127c565b60405191829182901515815260200190565b6200078960016101216200126f565b346200075c57620012eb366004620007b2565b620007ae620012b7620012c9565b91906040838203126200075c576200078990602062001178828662000940565b6200129062000789926200133260009361010a62000b9e565b62001254565b346200075c57620007ae620012b762001353366004620012f9565b9062001319565b346200075c57620007a96200137136600462000a91565b62003561565b909182601f830112156200075c578135916001600160401b0383116200075c5760200192602083028401116200075c57565b90916040828403126200075c5781356001600160401b0381116200075c5783620013d591840162001377565b92909360208201356001600160401b0381116200075c5762000b20920162001377565b346200075c57620007a96200140f366004620013a9565b92919091620036f7565b346200075c57620007a96200143036600462000d98565b62003a76565b620007896000610106620007ca565b346200075c5762001458366004620007b2565b620007ae6200080b62001436565b909182601f830112156200075c578135916001600160401b0383116200075c5760200192604083028401116200075c57565b9060a0828203126200075c5781356001600160401b0381116200075c5781620014c391840162001466565b92909360208201356001600160401b0381116200075c5783620014e891840162001377565b92909360408201356001600160401b0381116200075c57816200150d91840162001377565b92909360608201356001600160401b0381116200075c57836200153291840162001377565b92909360808201356001600160401b0381116200075c5762000b20920162001377565b906200108d816020936200087d565b90620015876200158062001576845190565b8084529260200190565b9260200190565b9060005b818110620015995750505090565b909192620015b6620015af600192865162001555565b9460200190565b9291016200158b565b6020808252620007899291019062001564565b620007ae620015fa620015e736600462001498565b9897909796919695929594939462003dd8565b6040515b91829182620015bf565b90620007706200161760405190565b928362000f3b565b6001600160401b03811162000f5d57602090601f01601f19160190565b90826000939282370152565b90929192620016616200165b826200161f565b62001608565b93818552818301116200075c57620007709160208501906200163c565b9080601f830112156200075c57816020620007899335910162001648565b9190916040818403126200075c57620016b6838262000d89565b9260208201356001600160401b0381116200075c576200078992016200167e565b620007a9620016e83660046200169c565b9062003e1c565b346200075c57620007a96200170636600462000a91565b62003f48565b346200075c57620007a96200172336600462000a91565b620041b3565b346200075c576200173c366004620007b2565b620007ae6200080b620042b2565b91906040838203126200075c576200078990602062001178828662000d89565b6200091262000789926200133260009360fb62001254565b346200075c57620007ae620008bb6200179d3660046200174a565b906200176a565b600062001290620007899261011c62001254565b346200075c57620007ae620012b7620017d336600462000d98565b620017a4565b6200078990620008dd565b620007899054620017d9565b620017fe9061010562000b9e565b906200180a82620017e4565b91620018196001820162000f63565b91620018286002830162000f63565b91620018376003820162000be4565b9162000789600562000c1b6004850162000be4565b9194620018a66200189e60a0956200188f62000c4195620007709a9c9b999c6200188160c08a019260008b019061ffff169052565b88820360208a015262001054565b90868203604088015262001054565b986060850152565b6080830152565b346200075c57620007ae620018ce620018c836600462000a91565b620017f0565b92620018df96949692919260405190565b968796876200184c565b620007896000610110620007ca565b346200075c576200190b366004620007b2565b620007ae6200080b620018e9565b346200075c57620007ae620012b7620019343660046200174a565b90620042be565b62000789600061011f620007ca565b346200075c576200195d366004620007b2565b620007ae6200080b6200193b565b62000789601061011a62000d2a565b346200075c576200198d366004620007b2565b620007ae62000d676200196b565b620007896000610123620007ca565b346200075c57620019bd366004620007b2565b620007ae6200080b6200199b565b62000789916008021c620008dd565b90620007899154620019cb565b620007896002610121620019da565b346200075c5762001a09366004620007b2565b620007ae62001a17620019e7565b6040519182918261ffff909116815260200190565b600062001a40620007899261010b62001254565b620007ca565b346200075c57620007ae6200080b62001a6136600462000d98565b62001a2c565b62000789600060fd6200126f565b346200075c5762001a88366004620007b2565b620007ae620012b762001a67565b62000789600061010062000862565b346200075c5762001ab8366004620007b2565b620007ae620008bb62001a96565b906060828203126200075c5762001ade818362000d89565b9260208301356001600160401b0381116200075c578262001b086040946200078993870162000ac5565b9490950162000940565b620007ae6200080b62001b2736600462001ac6565b9291909162004672565b620007896000610112620007ca565b346200075c5762001b53366004620007b2565b620007ae6200080b62001b31565b600062001a406200078992610118620008e4565b346200075c57620007ae6200080b62001b9036600462000772565b62001b61565b620007896000610102620007ca565b346200075c5762001bb8366004620007b2565b620007ae6200080b62001b96565b620007a962001bd7366004620012f9565b9062004ef2565b346200075c5762001bf1366004620007b2565b620007a962004f22565b62000789600061011d620007ca565b346200075c5762001c1d366004620007b2565b620007ae6200080b62001bfb565b6200078960006101216200126f565b346200075c5762001c4d366004620007b2565b620007ae620012b762001c2b565b346200075c57620007a962001c7236600462000a91565b62004f53565b620007896000610113620007ca565b346200075c5762001c9a366004620007b2565b620007ae6200080b62001c78565b6001600160401b03811662000754565b90503590620007708262001ca8565b906060828203126200075c5762001cdf818362000761565b9260208301356001600160401b0381116200075c578262001d096040946200078993870162000ac5565b9490950162001cb8565b620007a962001d2436600462001cc7565b929190916200591c565b346200075c57620007a962001d4536600462000d98565b62005a25565b346200075c57620007a962001d6236600462000d98565b62005b75565b63ffffffff811662000754565b90503590620007708262001d68565b90610140828203126200075c5762001d9d818362000d89565b9262001dad826020850162000d89565b9262001dbd836040830162000d89565b9262001dcd816060840162000940565b9262001ddd826080850162000940565b9262001ded8360a0830162000940565b9262001dfd8160c0840162000940565b9262001e0d8260e0850162000940565b9262001e1e83610100830162001d75565b926101208201356001600160401b0381116200075c5762000b20920162001377565b346200075c57620007a962001e5736600462001d84565b9998909897919796929695939562006733565b346200075c5762001e7d366004620007b2565b620007a9620067c5565b346200075c5762001e9a366004620007b2565b620007ae620008bb620067cf565b91906040838203126200075c57620007899060206200097e828662000d89565b346200075c57620007a962001edf36600462001ea8565b9062006812565b62000789601461011a62000d2a565b346200075c5762001f08366004620007b2565b620007ae62000d6762001ee6565b62000789600362000b8e565b6200078962001f16565b346200075c5762001f3f366004620007b2565b620007ae6200080b62001f22565b620007896000610119620007ca565b346200075c5762001f6f366004620007b2565b620007ae6200080b62001f4d565b6001600160401b03811162000f5d5760208091020190565b9092919262001fa86200165b8262001f7d565b93818552602080860192028301928184116200075c57915b83831062001fce5750505050565b6020809162001fde848662000d89565b81520192019162001fc0565b9080601f830112156200075c57816020620007899335910162001f95565b9190916040818403126200075c5762002022838262000761565b9260208201356001600160401b0381116200075c5762000789920162001fea565b346200075c57620007a96200205a36600462002008565b9062006bbe565b6000620009126200078992610116620008e4565b346200075c57620007ae620008bb6200209036600462000772565b62002061565b80151562000754565b90503590620007708262002096565b91906040838203126200075c5762000789906020620020ce82866200209f565b94016200209f565b346200075c57620007ae6200080b620020f1366004620020ae565b9062006ce3565b346200075c576200210b366004620007b2565b620007a962006d36565b91906040838203126200075c57620007899060206200097e828662000940565b346200075c57620007ae620015fa6200215036600462002115565b9062006de0565b620007896000610101620007ca565b346200075c5762002179366004620007b2565b620007ae6200080b62002157565b346200075c57620007a96200219e366004620013a9565b92919091620071c4565b346200075c57620007a9620021bf36600462000a91565b620072c7565b9190916040818403126200075c57620016b6838262000761565b346200075c57620007a9620021f6366004620021c5565b90620073cd565b346200075c5762002210366004620007b2565b620007a96200749d565b62000789600461011a62000d2a565b346200075c576200223c366004620007b2565b620007ae62000d676200221a565b62000789600061010d620007ca565b346200075c576200226c366004620007b2565b620007ae6200080b6200224a565b9060c0828203126200075c5762002292818362000d89565b92620022a2826020850162000d89565b92620022b2836040830162000d89565b92620022c2816060840162000761565b9260808301356001600160401b0381116200075c578262001b0860a0946200078993870162000ac5565b620007ae620008bb620023013660046200227a565b9594909493919362007576565b620007a96200231f36600462000a91565b62007bb5565b346200075c57620007ae6200080b6200234036600462000d98565b62007d40565b91906040838203126200075c5762000789906020620020ce828662000940565b346200075c57620007a96200237d36600462002346565b9062007d4d565b346200075c57620007a96200239b36600462000d98565b62007e63565b909160c0828403126200075c57620023ba838362001d75565b92620023ca816020850162001d75565b92620023da826040830162001d75565b9262000789620023ee846060850162001d75565b9360a062002400826080870162001d75565b940162001d75565b346200075c57620007a96200241f366004620023a1565b94939093929192620080d0565b62000f979061010762000b9e565b346200075c57620007ae620011286200245536600462000a91565b6200242c565b600062001290620007899260fe620008e4565b346200075c57620007ae620012b76200248936600462000772565b6200245b565b6080818303126200075c57620024a6828262000d89565b9262000789620024ba846020850162000d89565b9360606200097e826040870162000761565b346200075c57620007ae620008bb620024e73660046200248f565b9291909162008181565b346200075c57620007a96200250836600462000a91565b6200895f565b620007896000610109620007ca565b346200075c5762002530366004620007b2565b620007ae6200080b6200250e565b62000789600861011a62000d2a565b346200075c5762002560366004620007b2565b620007ae62000d676200253e565b91906040838203126200075c57620007899060206200258e828662000761565b940162001cb8565b620025af6200078962000789926001600160401b031690565b6001600160401b031690565b90620008f09062002596565b620012906200078992620025e0600093610104620008e4565b620025bb565b346200075c57620007ae620012b7620026013660046200256e565b90620025c7565b346200075c57620007a96200261f36600462000a91565b620089db565b346200075c57620007a96200263c36600462000d98565b62008b1f565b634e487b7160e01b600052600060045260246000fd5b906000106200266c57620007899062000f63565b62002642565b6000620026866200078992610103620008e4565b62002658565b6020808252620007899291019062001054565b346200075c57620007ae620026c0620026ba36600462000772565b62002672565b6040515b918291826200268c565b620026dc9061010e62001254565b9062000789600162000c1b8462000c81565b9160206200077092949362000c41604082019660008301906200087d565b346200075c57620027296200272336600462000d98565b620026ce565b90620007ae6200273860405190565b92839283620026ee565b346200075c5762002755366004620007b2565b620007ae6200080b60fc5490565b346200075c57620007a96200277a36600462000a91565b62008bd3565b346200075c57620007a96200279736600462000d98565b62008c7b565b346200075c57620007a9620027b4366004620009a4565b9062008d42565b62000789600061010f62000862565b346200075c57620027dd366004620007b2565b620007ae620008bb620027bb565b90916080828403126200075c5762002804838362000761565b9260208301356001600160401b0381116200075c57816200282791850162000ac5565b92909362002839836040830162001cb8565b9260608201356001600160401b0381116200075c5762000b20920162000ac5565b346200075c57620007a962002871366004620027eb565b9493909392919262008fe1565b620028936200288d3062001249565b62000856565b6200289e3362000856565b03620028af576200077090620028fe565b60405163d86ad9cf60e01b815280620028cc336004830162000888565b0390fd5b9060ff905b9181191691161790565b90620028f262000789620028fa92151590565b8254620028d0565b9055565b6200291d62002919620029138360fe620008e4565b62000bb6565b1590565b6200298557806200294060006200293a620029469460fe620008e4565b620028df565b620008c9565b620029513362001249565b907f2f1bdc4fe18de51bcc190eb64e3c94664ce3b2da13ac05e3d13606759e26d5126200297d60405190565b80805b0390a3565b604051634a161af760e11b815260206004820152601060248201526f10da185a5b881b9bdd081c185d5cd95960821b6044820152606490fd5b62000770906200287e565b9190620029da6200288d3062001249565b620029e53362000856565b03620028af57620007709262002a3b565b9060001990620028d5565b9062002a1562000789620028fa9262000b8e565b8254620029f6565b9081526060810193926200077092909160409162000c419062000cdf565b62002a47600062000b8e565b8114801562002b3b575b801562002b26575b801562002b0a575b62002ac85762002ac37f2f887d9c32f7cc3cbf806949310a3afdd85b147705550dde55deb4af1ab582f99362002a9a8361011162002a01565b62002aa88461011262002a01565b62002ab68161011362002a01565b6040519384938462002a1d565b0390a1565b60405163589956a560e11b8152602060048201526019602482015278496e76616c696420766f74696e6720706172616d657465727360381b6044820152606490fd5b5062002b1e670de0b6b3a764000062000b8e565b831162002a61565b5062002b33600062000b8e565b831462002a59565b5062002b48600062000b8e565b821462002a51565b90620007709291620029c9565b9062002b6d6200288d3062001249565b62002b783362000856565b03620028af57620007709162002bee565b6200085662000789620007899290565b620007899062002b89565b9160206200077092949362000b53604082019660008301906200087d565b906001600160a01b0390620028d5565b9062002be662000789620028fa9262001249565b825462002bc2565b906101149062002c0b6200078962002c078585620008e4565b5490565b811015801562002d17575b62002cec5762002cce62002cc762002cba8562002cc062002cba828762002cb462002ca562000a6862002c7c62000a68869d7f51c63bb2ee4fce2b25f5350489b5ddf06df2c15c0221d6e237d867022ccd8b239f8862002c7691620008e4565b62000a15565b9362002c976101169562002c918888620008e4565b62002bd2565b62002c7686610115620008e4565b62002c916101179d8e620008e4565b620008e4565b62000c81565b96620008e4565b91620008c9565b9262002ce762002cdd60405190565b9283928362002ba4565b0390a2565b620028cc62002cfc600062002b99565b60405163aba9729560e01b8152918291806004840162002ba4565b5062002d2e6200078962002c0785610115620008e4565b81101562002c16565b90620007709162002b5d565b62002d526200288d3062001249565b62002d5d3362000856565b03620028af57620007709062002d79620029138260fe620008e4565b62002dcd57806200294060016200293a62002d969460fe620008e4565b62002da13362001249565b907fb088a7d6c1048d1282b7ee45ec968a1c1dc31ea5b51f825f4db6ca62d9ef09826200297d60405190565b620028cc9062002ddc60405190565b6314fb671960e01b81529182916004830161ffff909116815260200190565b620007709062002d43565b62002e156200288d3062001249565b62002e203362000856565b03620028af57620007709062002ac37fb2163fea967470e693c56560199ca6bd539b9f4628c38eb790263909078a5d1c916200080b8161010d62002a01565b620007709062002e06565b90916060828403126200075c576200078962001166848462000d89565b62002ebf62002eac62002eb89262002eb89462002ea2600090565b5081019062002e6a565b94919493909362001249565b9262001249565b92565b62002ed16200288d3062001249565b62002edc3362000856565b03620028af57620007709062002f6a565b620007899160408201919062002f059082906200087d565b6020818303910152601881527724b73b30b634b21033b7bb32b93730b731b2903a37b5b2b760411b602082015260400190565b90505190620007708262000939565b906020828203126200075c57620007899162002f38565b6040513d6000823e3d90fd5b62002f7a6200288d600062002b99565b62002f858262000856565b14620030915762002f998161010f62002bd2565b62002fae62002fa88262001249565b62001249565b90602062002fbb60405190565b6318160ddd60e01b815292839060049082905afa9182156200308b5762002ff49262002fa89160009162003055575b5061011062002a01565b7febb6fcc3316b3c4d08d57521fd4c5ecb06fd1a671b0d49b1d01b33b0e074cb136200301f60405190565b600090a27ff5e6a4583a31c4689dfd5100f0d184bf1b5c03c796299cb6c0294a09bf73d6a762002ac36200080b61011062000be4565b6200307c915060203d60201162003083575b62003073818362000f3b565b81019062002f47565b3862002fea565b503d62003067565b62002f5e565b620028cc90620030a060405190565b63f7693c3d60e01b81529182916004830162002eed565b620007709062002ec2565b15620030ca57565b60405162461bcd60e51b815260206004820152602c60248201527f46756e6374696f6e206d7573742062652063616c6c6564207468726f7567682060448201526b19195b1959d85d1958d85b1b60a21b6064820152608490fd5b156200312c57565b60405162461bcd60e51b815260206004820152602c60248201527f46756e6374696f6e206d7573742062652063616c6c6564207468726f7567682060448201526b6163746976652070726f787960a01b6064820152608490fd5b6200077090620031fe6200319a3062001249565b620031de7f000000000000000000000000000000000000000000000000000000000000000091620031d6620031cf8462000856565b9162000856565b1415620030c2565b620031f7620031cf620031f062008ff1565b9262000856565b1462003124565b62003247565b90620032146200165b836200161f565b918252565b369037565b906200077062003239620032328462003204565b936200161f565b601f19016020840162003219565b60006200077091620032598162009179565b6200326e620032688362000b8e565b6200321e565b906200920e565b620007709062003186565b9190620032916200288d3062001249565b6200329c3362000856565b03620028af57620007709262003313565b916001600160a01b0360089290920291821b911b620028d5565b9190620032dc62000789620028fa9362001249565b908354620032ad565b80549190600160401b83101562000f5d57826200330c916001620007709501815562000a15565b90620032c7565b91909162003322600062002b99565b6200332d8162000856565b620033388562000856565b14908115620033f0575b50620033c9579062002cce826200338c8562003386620007897f51c63bb2ee4fce2b25f5350489b5ddf06df2c15c0221d6e237d867022ccd8b2397610114620008e4565b620032e5565b620033a383620033866200078984610115620008e4565b620033b68562002c9183610116620008e4565b620029408362002c9183610117620008e4565b5090620028cc620033d960405190565b63aba9729560e01b81529283926004840162002ba4565b620033fc915062000856565b620034078362000856565b143862003342565b9062000770929162003280565b6200342b6200288d3062001249565b620034363362000856565b03620028af5762000770620034506200291960fd62000bb6565b6200349d5762003463600060fd620028df565b7f9077d36bc00859b5c3f320310707208543dd35092cb0a0fe117d0c6a558b148b6200348e60405190565b60008152806020810162002ac3565b604051634a161af760e11b815260206004820152601360248201527210dbdb9d1c9858dd081b9bdd081c185d5cd959606a1b6044820152606490fd5b620007706200341c565b620034f26200288d3062001249565b620034fd3362000856565b03620028af57620007709062003514600062000b8e565b81146200354f5762002ac3816200080b7fcc068c92fb7a99eb96236b54888d0323e0d654a99fa3e24c8b954a00c342bf409361010262002a01565b6040516357428fd560e01b8152600490fd5b6200077090620034e3565b620007899060601c62000d21565b6200078990546200356c565b6200078962000789620007899263ffffffff1690565b620007e69062003586565b90815260408101929162000770916020905b01906200359c565b620007e69062000b8e565b90815260408101929162000770916020905b0190620035c1565b620007899060801c62000d21565b620007899054620035e6565b919081101562000a3a576020020190565b35620007898162000939565b35620007898162002096565b9037565b8183529091602001916001600160fb1b0381116200075c57829160206200108d920293849162003629565b50620007899060208101906200209f565b818352602090920191906000825b82821062003686575050505090565b90919293620036b2620036ab600192620036a1888662003658565b1515815260200190565b9560200190565b9392019062003677565b9594926200077094620036e3620036f29360409560608b01918b830360008d01526200362d565b9188830360208a015262003669565b940152565b93909182936000926200370a8462000b8e565b8614801562003962575b6200392e57818603620038f0576200372c3362009328565b936200374262002fa862002fa861010f62000c81565b9060206200374f60405190565b9283906370a0823160e01b825281806200376d8b6004830162000888565b03915afa9182156200308b578192620038ca575b506200378d8162000b8e565b8214620038a4576200379f9062000b8e565b875b81101562003855575a620037c9620037c5620037bf61011a620035f4565b62003586565b9190565b10620038215762003819816200381388620037f5620037ef620037a1968f8e9062003600565b62003611565b6200380c62003806858b8d62003600565b6200361d565b90620093d3565b60010190565b90506200379f565b5a6200382f61011a620035f4565b90620028cc6200383e60405190565b6301c54e1f60e61b815292839260048401620035a7565b5090969295507f85541b7582bc0bc1ebd4051b9a05c5e7de832e870397b08d162b0e1b4267d1a194935062002ce7916200388f3362001249565b966200389a60405190565b95869586620036bc565b90620028cc620038b360405190565b632ed8c74760e11b815292839260048401620035cc565b620038e891925060203d602011620030835762003073818362000f3b565b903862003781565b60405163589956a560e11b8152602060048201526015602482015274082e4e4c2f240d8cadccee8d040dad2e6dac2e8c6d605b1b6044820152606490fd5b856200393c61011a6200357a565b90620028cc6200394b60405190565b63f80a484560e01b815292839260048401620035a7565b5062003974620037bf61011a6200357a565b861162003714565b6200398b6200288d3062001249565b620039963362000856565b03620028af576200077090620039ea565b6200078991604082019190620039bf9082906200087d565b6020818303910152601081526f125b9d985b1a5908195b991c1bda5b9d60821b602082015260400190565b620039fa6200288d600062002b99565b62003a058262000856565b1462003a50578062002fa862003a1d9260ff62002bd2565b7f07ac75b380fe4c5e41ea9b7030179bb21229b84ab9f9ba2fabebccd430ae2f6d62003a4860405190565b808062002ce7565b620028cc9062003a5f60405190565b63f7693c3d60e01b815291829160048301620039a7565b62000770906200397c565b9998979695949392919062003a9760fd62000bb6565b62003aa757620007899a62003ab9565b60405163ab35696f60e01b8152600490fd5b9998979695949392919062003ad061012162000bd0565b62003ae057620007899a62003af2565b604051630552b01360e31b8152600490fd5b9062003b119a99989796959493929162003b0b6200967d565b62003be9565b9062000770620096b9565b90620032146200165b8362001f7d565b90620007706200323962003b408462003b1c565b9362001f7d565b919081101562000a3a576040020190565b35620007898162000d7e565b3562000789816200074e565b903590601e1936829003018212156200075c57018035906001600160401b0382116200075c57602001913682900383136200075c57565b9082101562000a3a57602062000b20920281019062003b70565b9062003bcb825190565b81101562000a3a576020809102010190565b90620007e69062000856565b9a98949291909995969a9793975062003bff8190565b9962003c0c600062000b8e565b8b14801562003dbe575b62003db057888b1415801562003da5575b858d821562003d97575b5050801562003d8c575b620038f05762003c4b8b62003b2c565b998a908c62003c5f620037c5600062000b8e565b81101562003d1257808f918f928f908f908f908f908f908f908f908f8f928f8b94928562003c91818096819562003b47565b9b62003c9d9262003600565b62003ca89062003b58565b9862003cb49262003600565b62003cbf9062003b64565b9362003ccb9262003ba7565b9462003cd992919462003600565b62003ce49062003611565b9362003cf095620096d9565b9162003cfc9162003bc1565b9062003d089162003bdd565b6001019062003c5f565b509b99509b505050509150507fc3273c0376852c26504214f070a932ec0c3d8190925daf2e227bc513cddd78cd945062003d5f915062003d659262003d58600062000b8e565b9162003600565b62003b64565b9062002ac362003d7460405190565b9283928390815261ffff909116602082015260400190565b50868b141562003c3b565b5090508b1415858d62003c31565b50878b141562003c27565b8a6200393c61011a6200357a565b5062003dd0620037bf61011a6200357a565b8b1162003c16565b6200078999989796959493929190606062003a81565b90620007709162003e036200319a3062001249565b620007709160019162003e168162009179565b6200920e565b90620007709162003dee565b62003e3e62002919620029133361011c62001254565b620028af57620007709062003e5a620007898261011e62000b9e565b9062003e668262000c81565b62003e7a620031cf6200288d600062002b99565b1462003f1f57600382019162003e9562002913338562001254565b62003f0d57600262003ecf9162003eb860016200293a62003ed597339062001254565b0162003ec8620038138262000be4565b9062002a01565b62000b8e565b7fd75dcac5a584d0289d6fb0b5e44d934b84e475bb8a42e6cc81a00f5dab30450b62003f0060405190565b8062002ce7338262000888565b604051637c9a1cf960e01b8152600490fd5b620028cc9062003f2e60405190565b63428d06a960e01b81529182916004830190815260200190565b620007709062003e28565b62003f626200288d3062001249565b62003f6d3362000856565b03620028af57620007709062004039565b634e487b7160e01b600052601160045260246000fd5b9190820180921162003fa257565b62003f7e565b9061ff009060081b620028d5565b9062003fc962000789620028fa92151590565b825462003fa8565b9160001960089290920291821b911b620028d5565b919062003ffb62000789620028fa9362000b8e565b90835462003fd1565b620007709160009162003fe6565b6000808255620007709160010162004004565b906000036200266c57620007709062004012565b6101226200404c62000789838362000b9e565b600181016200405b8162000be4565b6200406b620037c5600062000b8e565b14620041a4576200078962004084620040989262000be4565b6200409161011962000be4565b9062003f94565b42106200414f5762000770926000927fd54e260c48d23339d5c29a5c474aecd018822c155cb3624f2012203665da42b562004140620012b786620041499601620040ef620040e68262000bb6565b610121620028df565b62004107620040fe8262000bd0565b61012162003fb6565b7f4ec67d76c9f0effbdd08e91c3ca9d7808bf205278f138dbcf69169ab3f99ec1862004137620012b78362000bb6565b0390a162000bd0565b0390a162000b9e565b62004025565b620028cc836200415e60405190565b6365fd36f160e01b81529182916004830190815260406020820181905260149082015273151a5b595b1bd8dac81b9bdd08195b185c1cd95960621b606082015260800190565b620028cc8462003f2e60405190565b620007709062003f53565b15620041c657565b60405162461bcd60e51b815260206004820152603860248201527f555550535570677261646561626c653a206d757374206e6f742062652063616c6044820152771b1959081d1a1c9bdd59da0819195b1959d85d1958d85b1b60421b6064820152608490fd5b620007899062004276620042403062001249565b6200426f620031cf7f000000000000000000000000000000000000000000000000000000000000000062000856565b14620041be565b620042a7565b620007897f360894a13ba1a3210667c828492db98dca3e2076cc3735a920a3ca505d382bbc62000b8e565b50620007896200427c565b6200078960006200422c565b620042f39162002cba91620042d38262000856565b620042de8262000856565b10156200430c5762001332905b60fb62001254565b62004307620031cf6200288d600062002b99565b141590565b906200133290620042eb565b908152604081019291620007709160200152565b6200078961016062001608565b6200078991369162001648565b62000789905162000856565b8181106200435e575050565b806200436e600060019362004004565b0162004352565b9190601f81116200438557505050565b620043996200077093600052602060002090565b906020601f840181900483019310620043be575b6020601f909101045b019062004352565b9091508190620043ad565b9060001960089091021c191690565b81620043e491620043c9565b906002021790565b90620043f6815190565b906001600160401b03821162000f5d576200441e8262004417855462000e5f565b8562004375565b602090601f83116001146200445157620028fa92916000918362004445575b5050620043d8565b0151905038806200443d565b601f198316916200446785600052602060002090565b9260005b818110620044ab575091600293918560019694106200448e575b50505002019055565b620044a0910151601f841690620043c9565b905538808062004485565b919360206001819287870151815501950192016200446b565b906200077091620043ec565b6009620045e86101406200077094620044f7620044f06000830162004346565b8662002bd2565b6200451162004507602083015190565b60018701620044c4565b6200452d620045236040830162004346565b6002870162002bd2565b620045476200453d606083015190565b6003870162002a01565b62004563620045596080830151151590565b60048701620028df565b6200457d6200457360a083015190565b6005870162002a01565b620045976200458d60c083015190565b6006870162002a01565b620045c860078601620045b8620045b160e0850151151590565b82620028df565b61010083015115155b9062003fb6565b620045e3620045d961012083015190565b6008870162002a01565b015190565b910162002a01565b906200077091620044d0565b9190620010838162004616816200108d9560209181520190565b80956200163c565b9260a0949897956200466b6200465f620007709994620018a69462000c41976200465160c08b019360008c01906200087d565b89830360208b0152620045fc565b9a60408701906200087d565b6060850152565b9091600093620046886200078961010d62000be4565b3410620049f257620046a562002919620029138561011b62001254565b620049cc5761010b94620046d962000789620046cc620046c6338a62001254565b62000be4565b6200409161010c62000be4565b42106200499757620046ec600162000b8e565b8210801562004982575b62004945576200473f60206200470c3362009328565b6200472162002fa862002fa861010f62000c81565b604051938492839182916370a0823160e01b83526004830162000888565b03915afa9081156200308b5760009162004921575b50620047666200078961011262000be4565b8110620048ee57507fc5384f155acf5c82499102768c7320659539167c089d2513528b705b7e8443c5939291620048e891506200489a62004892620047ad61010962000be4565b98620047bf60018b0161010962002a01565b6200488a87620048698b6200486160006200480b620048048d620047e561011062000be4565b95620047fe620047f46200432c565b99868b0162003bdd565b62004339565b6020870152565b6200481a336040870162003bdd565b62004826426060870152565b8015156080860152620048506200483d8262000b8e565b620048498160a0890152565b60c0870152565b151560e08501819052610100850152565b610120830152565b6200487686610140830152565b620048848c61010762000b9e565b620045f0565b339062001254565b429062002a01565b620048b7620048af62002fa861010062000c81565b3490620098be565b620048c461011062000be4565b620048cf8862000b8e565b96620048da60405190565b95869542923392886200461e565b0390a290565b620048fb61011262000be4565b90620028cc6200490a60405190565b632ed8c74760e11b81529283926004840162004318565b6200493e915060203d602011620030835762003073818362000f3b565b3862004754565b60405163589956a560e11b8152602060048201526014602482015273125b9d985b1a59081a5b5c1858dd081b195d995b60621b6044820152606490fd5b506200498f600362000b8e565b8211620046f6565b620028cc620049af620046cc620046c6338a62001254565b604051630f11533d60e31b81529182916004830190815260200190565b620028cc83620049db60405190565b63d08525e960e01b81529182916004830162000888565b620028cc62004a0361010d62000be4565b604051630234b5bd60e61b8152918291346004840162004318565b9062004a2e6200288d3062001249565b62004a393362000856565b03620028af5762000770919062004a5a9162004a546200967d565b62004d11565b62000770620096b9565b620008dd62000789620007899290565b620007899060401c62000d21565b62000789905462004a74565b620007899160408201919062004aa69082906200087d565b60208183039101526011815270125b9d985b1a59081c9958da5c1a595b9d607a1b602082015260400190565b9062004ae690600019906020036008021c90565b8154169055565b9060009162004b0e62004b0582600052602060002090565b928354620043d8565b905555565b919290602082101562004b7557601f841160011462004b3957620028fa929350620043d8565b509062004b6f6200077093600162004b6562004b5a85600052602060002090565b92601f602091010490565b8201910162004352565b62004aed565b5062004bb2829362004b8e600194600052602060002090565b620043b66020601f860104820192601f86168062004bba575b50601f602091010490565b600202179055565b62004bc89088860362004ad2565b3862004ba7565b929091600160401b821162000f5d576020111562004c1c57602081101562004bfc57620028fa91620043d8565b60019160ff191662004c1384600052602060002090565b55600202019055565b60019150600202019055565b90815462004c368162000e5f565b9081831162004c64575b81831062004c4f575b50505050565b62004c5a9362004b13565b3880808062004c49565b62004c728383838762004bcf565b62004c40565b8181029291811591840414171562003fa257565b6000620007709162004c28565b906000036200266c57620007709062004c8c565b6000808255620007709160059062004cc9836001830162004c99565b62004cd8836002830162004c99565b62004ce7836003830162004004565b62004cf6836004830162004004565b0162004004565b906000036200266c57620007709062004cad565b6101059062004d2562000789828462000b9e565b9162004d3183620017e4565b9260009362004d4c62004d448662004a64565b9161ffff1690565b1462004ec957600362004d60910162000be4565b62004d75620037c5620037bf61011a62004a82565b1062004e715762004d8a6200288d8462002b99565b62004d958562000856565b1462004e4b57829162004e059162004db162004e0b9562000b8e565b341162004e36575b62004dcf62004dc88362000b8e565b9662001249565b867f6cee4864d4fc096a6fd4f666503c8ee8b4da2206789899638dbd6e29ea329a9562004dfb60405190565b600090a362000b9e565b62004cfd565b7f2843b880fb1ec1fdb5751b843af8242479fb792a1a8c2f5e797c18aae4a4815a62003a4860405190565b62004e45620048af8762001249565b62004db9565b620028cc8462004e5a60405190565b63f7693c3d60e01b81529182916004830162004a8e565b620028cc8262004e8060405190565b6365fd36f160e01b8152918291600483019081526040602082018190526017908201527613585e081c995d1c9a595cc81b9bdd081c995858da1959604a1b606082015260800190565b620028cc8362004ed860405190565b63669d8f9f60e11b81529182916004830190815260200190565b90620007709162004a1e565b62004f086200995a565b620007706200077062004f1c600062002b99565b6200997e565b6200077062004efe565b634e487b7160e01b600052601260045260246000fd5b811562004f4d570490565b62004f2c565b62004f65620007898261010762000b9e565b62004f708162000c81565b62004f84620031cf6200288d600062002b99565b146200514557600281019062004f9e6200288d8362000c81565b62004fa93362000856565b14158062005128575b620028af5762004fc56004820162000bb6565b801562005113575b620051015762004ff56200078962004fe86003840162000be4565b6200409161011162000be4565b4211620050ad579062005012600160076200503d95940162003fb6565b6200501f61010d62000be4565b6200502f620037c5600062000b8e565b1162005068575b5062000b8e565b7f522f3774095066263bccd10198742689940263f2d55fa0663429227cce081b7762003a4860405190565b6200507b62002fa8620050a69262000c81565b6200509f6200508c61010d62000be4565b62005098600262000b8e565b9062004f42565b90620098be565b3862005036565b620028cc83620050bc60405190565b6365fd36f160e01b81529182916004830190815260406020820181905260139082015272159bdd1a5b99c81c195c9a5bd908195b991959606a1b606082015260800190565b604051636cdcc09360e11b8152600490fd5b50620051226007820162000bd0565b62004fcd565b506200513f62002919620029133361011c62001254565b62004fb2565b620028cc8262003f2e60405190565b9291906200516461012162000bd0565b62003ae05762000770939062004a5a939291620051806200967d565b62005513565b62000789905462000e5f565b6200078991604082019190620051aa9082906200087d565b602081830391015260128152714e6f207472757374656420666163746f727960701b602082015260400190565b90620051f5620051e962001576845490565b92600052602060002090565b9060005b818110620052075750505090565b9091926200522d62005226600192620052208762000c81565b62001555565b9460010190565b929101620051f9565b604090620052646200525c620007709597969460608401908482036000860152620051d7565b966020830152565b01906001600160401b03169052565b91906040838203126200075c576200078990602062005293828662002f38565b940162002f38565b91620052eb916200078997959694620052d3620052e193620052c860a0880194600089019061ffff169052565b60208701906200087d565b848203604086015262001054565b9415156060830152565b6080818503910152620045fc565b80546000939291620053136200530f8362000e5f565b9390565b91600181169081156200536957506001146200532e57505050565b620053429192939450600052602060002090565b6000905b838210620053545750500190565b60018160209254848601520191019062005346565b60ff191683525050811515909102019150565b6200538b620007e69162000856565b60601b90565b620053a46200108d9160149493620052f9565b80926200537c565b90505190620007708262002096565b906020828203126200075c576200078991620053ac565b926200540562005411916200188f620007899a98946200541c969a989a6200188160c08a019260008b019061ffff169052565b9660608501906200087d565b60808301906200087d565b60a0818503910152620045fc565b6200078960c062001608565b9061ffff90620028d5565b906200545562000789620028fa92620008c9565b825462005436565b6005620045e860a06200077094620054856200547e600083015161ffff1690565b8662005441565b6200549562004507602083015190565b620054af620054a5604083015190565b60028701620044c4565b620054bf6200453d606083015190565b620045e3620054cf608083015190565b6004870162002a01565b9062000770916200545d565b61ffff909116815262000789916040820191602081840391015262001054565b9190820391821162003fa257565b91906101036200552e620055288583620008e4565b62005186565b9260009362005541620037c58662000b8e565b14620058f35761010491620055606200291388620025e08987620008e4565b620058e1576200558d60016200293a89620025e08a8a9862002cb4620055878a8d62004339565b62009a58565b620055bd6200559b60405190565b8098620055b060208301914260fc8462005236565b9081038252038862000f3b565b620055d162002fa862002fa860ff62000c81565b604088620055df3062001249565b92838a6200560d888b620055f260405190565b9d8e978896879663040a7bb160e41b8852600488016200529b565b03915afa9586156200308b578496620058a8575b508534106200588157869493929188916200563d60ff62000c81565b620056489062001249565b620056539062001249565b9163c5803100976200566591620008e4565b60405191829160208301916200567c918362005391565b9081038252036200568e908262000f3b565b620056993362001249565b96898588620056a88962002b99565b8b620056b360405190565b988997889760e01b8852620056cc9660048901620053d2565b0381895a94602095f19081156200308b5783916200584b575b501562005756575050507fae8ae19ec92f96baefb6c38e76a5ac1eede4f9cda04748f8b11f7c61701af569928262005733926200572362002ce79590565b34116200573e575b5050620008c9565b92620026c460405190565b6200509f6200574e923462005505565b38806200572b565b8596945062005800935091620057cc6200466b620057df9362003ecf620057c5600080516020620147b48339815191529a976200579e62005799610e1062000b8e565b420190565b96620057b9620057ad6200542a565b61ffff909b16868c0152565b620047fe8c60208c0152565b6040880152565b620057d8426080850152565b60a0830152565b620057fa610105620057f361010662000be4565b9062000b9e565b620054d9565b6200581162003ecf61010662000be4565b926200582a6200582060405190565b92839283620054e5565b0390a262000770620058426200381361010662000be4565b61010662002a01565b62005872915060203d60201162005879575b62005869818362000f3b565b810190620053bb565b38620056e5565b503d6200585d565b620028cc866200589060405190565b63a458261b60e01b8152918291346004840162004318565b620058d091965060403d604011620058d9575b620058c7818362000f3b565b81019062005273565b95909562005621565b503d620058bb565b604051633ab3447f60e11b8152600490fd5b620028cc620059028562002b99565b60405163f7693c3d60e01b81529182916004830162005192565b906200077093929162005154565b620059396200288d3062001249565b620059443362000856565b03620028af576200077090620059a0565b62000789916040820191906200596d9082906200087d565b60208183039101526018815277496e76616c6964207472656173757279206164647265737360401b602082015260400190565b620059b06200288d600062002b99565b620059bb8262000856565b14620059ff578062002fa8620059d49261010062002bd2565b7f7dae230f18360d76a040c81f050aa14eb9d6dc7901b20fc5d855e2a20fe814d162003a4860405190565b620028cc9062005a0e60405190565b63f7693c3d60e01b81529182916004830162005955565b62000770906200592a565b62005a3f6200288d3062001249565b62005a4a3362000856565b03620028af57620007709061011c9062005a6d6200291962002913838562001254565b62005b4f5762005a7f61011d62000be4565b62005a91620037c56200078962001f16565b111562005afe5762005aae60006200293a8362005ad39562001254565b62002fa862005aca62005ac361011d62000be4565b6000190190565b61011d62002a01565b7fc0cdacae5a1efb347198155da639c5dbd0a4231a08caed21a124471443a2f56262003a4860405190565b60405163589956a560e11b815260206004820152602260248201527f4d696e696d756d20636f6d6d6974746565206d656d6265727320726571756972604482015261195960f21b6064820152608490fd5b620028cc9062005b5e60405190565b63a75f4ba960e01b81529182916004830162000888565b620007709062005a30565b62000bb062000789620007899290565b1562005b9857565b60405162461bcd60e51b815260206004820152602e60248201527f496e697469616c697a61626c653a20636f6e747261637420697320616c72656160448201526d191e481a5b9a5d1a585b1a5e995960921b6064820152608490fd5b62000bb062000789620007899260ff1690565b90620028f262000789620028fa9262005bf4565b620007e69062005b80565b60208101929162000770919062005c1b565b999795939162005c96999795939162005c5662002919600062000bd0565b9b8c8062005d49575b801562005cf7575b62005c729062005b90565b8c62005c8b62005c83600162005b80565b600062005c07565b62005ce35762005fd6565b62005c9d57565b62005caa60008062003fb6565b7f7f26b83ff96e1f2b6a682f133852f6798a09c465da95921460cefb384740249862005cd560405190565b8062002ac360018262005c26565b62005cf16001600062003fb6565b62005fd6565b5062005d116200291962005d0b3062001249565b62009b6f565b801562005c67575062005c7262005d29600062000bb6565b62005d4062005d39600162005b80565b9160ff1690565b14905062005c67565b5062005d56600062000bb6565b62005d6662005d39600162005b80565b1062005c5f565b601881527716995c9bc81859191c995cdcc81b9bdd08185b1b1bddd95960421b602082015260400190565b620007899160408201919062005db09082906200087d565b602081830391015262005d6d565b90815260608101939262000770929091604091620035de906020830190620035c1565b62000d2162000789620007899290565b9063ffffffff90620028d5565b62000d2162000789620007899263ffffffff1690565b9062005e2862000789620028fa9262005dfe565b825462005df1565b9067ffffffff000000009060201b620028d5565b9062005e5862000789620028fa9262005dfe565b825462005e30565b9063ffffffff60401b9060401b620028d5565b9062005e8762000789620028fa9262005dfe565b825462005e60565b9063ffffffff60601b9060601b620028d5565b9062005eb662000789620028fa9262005dfe565b825462005e8f565b9063ffffffff60801b9060801b620028d5565b9062005ee562000789620028fa9262005dfe565b825462005ebe565b9063ffffffff60a01b9060a01b620028d5565b9062005f1462000789620028fa9262005dfe565b825462005eed565b9063ffff00009060101b620028d5565b9062005f4062000789620028fa92620008c9565b825462005f1c565b620007899160408201919062005f609082906200087d565b6020818303910152601881527724b73b30b634b21031b7b6b6b4ba3a32b29036b2b6b132b960411b602082015260400190565b620007899062000d21565b62000789905462005f93565b6020810192916200077091906200359c565b620007899060201c62000d21565b62000789905462005fbc565b939091999a969795929762005fec60ff62000c81565b9860009562005ffb8762002b99565b9a6200600b620031cf8d62000856565b03620066ed576200601c8b62000856565b620060278262000856565b148015620066cf575b8015620066b7575b6200669157612a30946200604c8662000b8e565b831080156200667a575b6200664f57620060668862000b8e565b85146200354f57620060788862000b8e565b891480156200663b575b801562006627575b80156200660b575b62002ac857620060a28862005de1565b63ffffffff8b1614620065ca578e9d8e620060c4620037c56200078962001f16565b1062006584576200610b62002fa892620061026200611995620060e662009c09565b620060f062009c23565b620060fa62009c4b565b60ff62002bd2565b61010062002bd2565b62002fa88161010f62002bd2565b9460206200612660405190565b6318160ddd60e01b815296879060049082905afa9182156200308b576200628f986200618a620061a596620061816200619394620061786200619c98620062589d8f9162003055575061011062002a01565b61010162002a01565b61010262002a01565b61011162002a01565b61011262002a01565b61011362002a01565b620061d9620061d0620061bb6201518062000b8e565b92620061ca8461011962002a01565b62005de1565b61011a62005e14565b620061f4620061eb6202a30062005de1565b61011a62005e44565b6200620d62006204600362005de1565b61011a62005e73565b620062266200621d600a62005de1565b61011a62005ea2565b620062416200623862030d4062005de1565b61011a62005ed1565b6200624f8561011a62005f00565b61010c62002a01565b620062776200626e662386f26fc1000062000b8e565b61010d62002a01565b62003ecf620062864662004a64565b61012162005f2c565b858110156200636d57620062af620062a982898862003600565b62003b58565b620062be620031cf8662000856565b146200633e576200633890620062ee60016200293a61011c620062e7620062a9868e8d62003600565b9062001254565b6200630362002fa8620062a9838b8a62003600565b7f0cb38e390fbd334396cf04e29d1374459cd2f2edeb56cf4d68004319aa1575c46200632e60405190565b600090a260010190565b6200628f565b62006353620062a9620028cc92898862003600565b60405163f7693c3d60e01b81529182916004830162005f48565b50915093506200651a9150620063a77ffcc0e600be0adc90f1d8e7eb8b988819b706b3d103b28f82471d9d3df973a7d29361011d62002a01565b620063cb61011b62002fa860016200293a620063c33062001249565b809462001254565b7f969eff453f277683e46c7e5f5b3a8eb055fb6a0dbf3656acb0d46b18b8516c09620063f660405190565b600090a27f53f26a2cca89cb13bb843784a8b97bfa4342a9b08377110145c430668f8f9cdd6200643a6200642c61011a62005f9e565b6040515b9182918262005faa565b0390a17fe5146f6c4bb5517f41218531a8a9b3e51df188b60528211c30a39d2e8299c0fa6200646f6200642c61011a62005fca565b0390a17f119cec565c36bb644c48e2d896c65eb82ada63af8ccbb89a99601520d3da3c82620064a46200642c61011a62004a82565b0390a17f25076f5d56ad1441963ac802aaa2f7a64f6ac48af52f929a5be59810a74d71d4620064d96200642c61011a6200357a565b0390a17f4aabbcdefb82b3502a27d8a790a885b31e0cb85b3ed2aaeaf42622c72c0a7f8d6200650e6200642c61011a620035f4565b0390a160405162006430565b0390a17f5a308529c2802603744568292f15da822f1847b538ab675e09ddc2a4d18d211d6200654f6200080b61010c62000be4565b0390a17fb2163fea967470e693c56560199ca6bd539b9f4628c38eb790263909078a5d1c62002ac36200080b61010d62000be4565b60405163589956a560e11b815260206004820152601e60248201527f496e73756666696369656e7420636f6d6d6974746565206d656d6265727300006044820152606490fd5b60405163589956a560e11b8152602060048201526018602482015277496e76616c6964206f7261636c65207374616c656e65737360401b6044820152606490fd5b506200661f670de0b6b3a764000062000b8e565b841162006092565b50620066338862000b8e565b84146200608a565b50620066478862000b8e565b871462006082565b8583620028cc6202a3006200666360405190565b639b2d1b3160e01b81529384936004850162005dbe565b50620066896202a30062000b8e565b831162006056565b620028cc8b620066a060405190565b63f7693c3d60e01b81529182916004830162005d98565b508c620066c8620031cf8d62000856565b1462006038565b50620066db8b62000856565b620066e68662000856565b1462006030565b60405163589956a560e11b815260206004820152601c60248201527f436f6e747261637420616c726561647920696e697469616c697a6564000000006044820152606490fd5b90620007709a99989796959493929162005c38565b620067576200288d3062001249565b620067623362000856565b03620028af57620007706200677860fd62000bb6565b62003aa7576200678b600160fd620028df565b7f9077d36bc00859b5c3f320310707208543dd35092cb0a0fe117d0c6a558b148b620067b660405190565b60018152806020810162002ac3565b6200077062006748565b62000789603362000c81565b62000789604062001608565b6001620045e860206200077094620045e3620044f06000830162004346565b906200077091620067e7565b620068216200288d3062001249565b6200682c8262000856565b14801562006962575b801562006944575b6200691e576200684e600062000b8e565b8214158062006914575b620068dd57620068976200686b620067db565b62006877838262003bdd565b62006883846020830152565b620068913361010e62001254565b62006806565b7ff5c2b450c3b6c4c3cc8c45e612ffa5ce51cda974e8b2ecaf58abda86d896584762002980620068d2620068cb3362001249565b9362001249565b936200080f60405190565b60405163589956a560e11b815260206004820152600e60248201526d496e76616c69642065787069727960901b6044820152606490fd5b5042821062006858565b620028cc906200692d60405190565b6343c5b80160e11b81529182916004830162000888565b50620069503362000856565b6200695b8262000856565b146200683d565b50620069736200288d600062002b99565b6200697e8262000856565b1462006835565b90620069956200288d3062001249565b620069a03362000856565b03620028af57620007709162006ac2565b6200078991604082019190620069c99082906200087d565b60208183039101526016815275496e76616c6964206f7261636c65206164647265737360501b602082015260400190565b91909182821062006a0a57505050565b62000770929162006a219091600052602060002090565b918201910162004352565b90600160401b811162000f5d578162006a4762000770935490565b90828155620069fa565b8151916001600160401b03831162000f5d5762006a80620051e960019262006a7a868662006a2c565b60200190565b92049160005b83811062006a945750505050565b600190602062006aa8620007898662004346565b940193818401550162006a86565b90620007709162006a51565b81519260009162006ad4600062000b8e565b8581101562006b6a5762006af362006aed828762003bc1565b62004346565b62006b06620031cf6200288d8762002b99565b14801562006b4b575b62006b1d5760010162006ad4565b62006b3162006aed620028cc928762003bc1565b60405163f7693c3d60e01b815291829160048301620069b1565b5062006b646200291962005d0b62006aed848962003bc1565b62006b0f565b5062002ce79194507fcd520ca83e34c41ae659a542bc88c1a0fad162da83d6fb93e0be2ee03a1ef6f7925062006bb390620029408562006bad83610120620008e4565b62006ab6565b92620015fe60405190565b90620007709162006985565b919062006bdb6200288d3062001249565b62006be63362000856565b03620028af57620007899262006c40565b62000789606062001608565b6200077091600190620045e890604090620045e38562006c27620045b18451151590565b60208301511515620045c1565b90620007709162006c03565b50907fc8cba553426218e0f46031012392a563069c0f977174d0add0f69db22560ac9e62006c7061012362000be4565b9262006c826001850161012362002a01565b62006cbd62006c9062006bf7565b8215158152841515602082015262006ca9426040830152565b62006cb78661012262000b9e565b62006c34565b62006cc88462000b8e565b92620048e862006cd760405190565b92839242918462000c23565b620007899190600062006bca565b906200077062006d24600162006d06620067db565b9462006d1d62006d168262000c81565b8762003bdd565b0162000be4565b6020840152565b620007899062006cf1565b61010e62006d4f62006d49338362001254565b62006d2b565b9062006d5b8262004346565b62006d67600062002b99565b9062006d77620031cf8362000856565b146200691e575062006d9e9162006d976000620041498194339062001254565b0162004346565b62006db462006dad3362001249565b9162001249565b907f6f0412fa95f7f48ec7dc7631b382833d8eae9cf4082e5e859b94d091a4a846d46200297d60405190565b9060fc9062006df26200078960fc5490565b8111801562006ebe575b62006e7d578262006e0d9162005505565b9162006e198362003b2c565b93849062006e28600062000b8e565b855b81101562006e745762006e6c816200381362006e5a62000a6862006e5362006e2a968a62003f94565b8a62000a15565b62006e66838c62003bc1565b62003bdd565b905062006e28565b50935093505050565b60405163589956a560e11b8152602060048201526018602482015277496e76616c696420706167696e6174696f6e2072616e676560401b6044820152606490fd5b5080831162006dfc565b92919062006eda6200288d3062001249565b62006ee53362000856565b03620028af57620007709362006f74565b6000808255620007709160099062006f12836001830162004c99565b82600282015562006f27836003830162004004565b82600482015562006f3c836005830162004004565b62006f4b836006830162004004565b82600782015562004cf6836008830162004004565b906000036200266c57620007709062006ef6565b9192819360009162006f868362000b8e565b865b811015620070595762006fe981878662006f88946101058a62006fc88462006fc162006fba620037ef87868b62003600565b8562000b9e565b01620017e4565b62006fd762004d448662004a64565b0362006ff1575b505050505060010190565b905062006f86565b620037ef62004e0593620057f3926200700a9762003600565b6200701f62003ecf620037ef838a8c62003600565b7f2843b880fb1ec1fdb5751b843af8242479fb792a1a8c2f5e797c18aae4a4815a6200704a60405190565b600090a2878682388a62006fde565b50925092509250620070688190565b92620070748162000b8e565b845b811015620071bd57620070e4620070769161010784620070ab62000789620070a4620037ef868b8d62003600565b8462000b9e565b620070b882820162000c81565b620070cb620031cf6200288d8562002b99565b1415908162007158575b50620070ec575b505060010190565b905062007074565b620071066200710c92620057f3620037ef868b8d62003600565b62006f60565b6200712162003ecf620037ef83888a62003600565b7fcbf2a6e8b82d4fa773edaedfd267a847cca9ca4add95eaec48f34fbb838081f06200714c60405190565b600090a23884620070dc565b9050620071686004820162000bb6565b908115620071a6575b811562007181575b5038620070d5565b6200719d91506200408462004fe8600362000789930162000be4565b42113862007179565b9050620071b66007820162000bd0565b9062007171565b5050505050565b906200077093929162006ec8565b620071e16200288d3062001249565b620071ec3362000856565b03620028af57620007709062007220565b90815260608101939262000770929091604091620035b99060208301906200359c565b62007231620037bf61011a62005f9e565b81108015620072ad575b620072745762002ac3816200080b7fe9fcc2bb765bc85f4ce77f746da64363029b697be808b00a656a85c2e009f9ee9361010162002a01565b6200728161011a62005f9e565b90620028cc6200729361011a62005fca565b604051639b2d1b3160e01b815293849360048501620071fd565b50620072bf620037bf61011a62005fca565b81116200723b565b6200077090620071d2565b90620072e26200288d3062001249565b620072ed3362000856565b03620028af57620007709162007348565b6200078991604082019190620073169082906200087d565b60208183039101526017815276496e76616c696420666163746f7279206164647265737360481b602082015260400190565b81516200735a620037c5600062000b8e565b14620073a35762002ce7620057338262002940856200739d7fd21cd540fd3e6b03220a09bafb5562631b66ab0e2bda5f6b8cfb3c83b5c1c9f896610103620008e4565b620044c4565b620028cc620073b3600062002b99565b60405163f7693c3d60e01b815291829160048301620072fe565b906200077091620072d2565b620073e86200288d3062001249565b620073f33362000856565b03620028af57620007706200741262002fa862002fa861010f62000c81565b60206200741e60405190565b6318160ddd60e01b815291829060049082905afa9081156200308b577ff5e6a4583a31c4689dfd5100f0d184bf1b5c03c796299cb6c0294a09bf73d6a79162002ac39160009162007479575b506200080b8161011062002a01565b62007496915060203d602011620030835762003073818362000f3b565b386200746a565b62000770620073d9565b96959493929190620074ba60fd62000bb6565b62003aa7576200078996959493929190620074db620029138560fe620008e4565b620074ec57620007899798620074fb565b620028cc8462002ddc60405190565b969594939291906200750f61012162000bd0565b62003ae05762000789979062003b11979695949392916200752f6200967d565b62002fa8966200078998966200756f929695949396506200755562005587838362004339565b62007561848862009daa565b620047fe848888886200a121565b936200a2f1565b62000789969594939291906000620074a7565b6200759661012162000bd0565b62003ae057620007709062004a5a90620075af6200967d565b6200771c565b80546000939291620075cb62000ea38362000e5f565b916001811690811562000f045750600114620075e657505050565b620075fa9192939450600052602060002090565b916000925b8184106200760d5750500190565b805484840152602090930192600101620075ff565b9162007665916200078996946200764d6200765b93620052c860a0880194600089019061ffff169052565b8482036040860152620075b5565b9315156060830152565b6080818403910152620075b5565b9062007684620037c5620007899390565b900a90565b92620076c96200541191620076ba6200078999979894620076d5966200188160c08a019260008b019061ffff169052565b908682036040880152620075b5565b9560608501906200087d565b60a0818403910152620075b5565b61ffff9091168152620007899160408201916020818403910152620075b5565b61ffff9091168152604081019291620007709160200152565b6200772d6200078961010d62000be4565b3410620049f2576101056200774762000789838362000b9e565b906200775382620017e4565b906000916200776662004d448462004a64565b1462007ba65760038301926200777c8462000be4565b62007791620037c5620037bf61011a62004a82565b101562007b945760058101620077ab620007898262000be4565b421062007b36578390620077c862002fa862002fa860ff62000c81565b9282810193620077d885620017e4565b926040620077e63062001249565b948593600186019687926200781d600289016200780260405190565b9b8c968795869563040a7bb160e41b87526004870162007622565b03915afa9485156200308b57889562007b0f575b506200784e620007896200784761010d62000be4565b8762003f94565b341062007af0578588949362007962876200792195620078c86020968f62005799620078b7620078a583620078966200788f6200381362003ec89762000be4565b8262002a01565b620046c64260048d0162002a01565b620078b1600262000b8e565b62007673565b620078c4610e1062000b8e565b0290565b6200796e620078e062002fa862002fa860ff62000c81565b946200792e63c58031009362007910620078fa8a620017e4565b996200790961010391620017e4565b90620008e4565b6040519b8c928c8401928362005391565b9081038252038a62000f3b565b6002620079466200793f3362001249565b9c62002b99565b9101908b8b6200795560405190565b9b8c9a8b998a9860e01b90565b88526004880162007689565b03925af19081156200308b57879162007acc575b501562007a765750620079ee62004e0b96979362004e059593620079f593620079bc62000789620079b561010d62000be4565b8462003f94565b341162007a46575b5050620079e8620079db62002fa861010062000c81565b6200509f61010d62000be4565b620017e4565b9662000be4565b957f4f4b6c0817f0e0a67292b790d7acf108e8dab0b904bd991dcd7a2fe795966ca262007a228462000b8e565b97889262007a3d62007a3360405190565b9283928362007703565b0390a262000b9e565b6200509f62007a5a62007a6e933462005505565b62007a6761010d62000be4565b9062005505565b3880620079c4565b94505050600080516020620147b4833981519152935062007ab3915062007aac90620079e8620079db62002fa861010062000c81565b9362000b8e565b9262002ce762007ac260405190565b92839283620076e3565b62007ae9915060203d602011620058795762005869818362000f3b565b3862007982565b620028cc62007b06866200409161010d62000be4565b60405162005890565b62007b2d91955060403d604011620058d957620058c7818362000f3b565b94909462007831565b620028cc8662007b4560405190565b6365fd36f160e01b815291829160048301908152604060208201819052601a908201527f52657472792074696d656c6f636b206e6f7420656c6170736564000000000000606082015260800190565b6040516312f6147760e01b8152600490fd5b620028cc8462004ed860405190565b620007709062007589565b9062007bd06200288d3062001249565b62007bdb3362000856565b03620028af57620007899162007c35565b620007899160408201919062007c049082906200087d565b6020818303910152601681527524b73b30b634b21034b6b83632b6b2b73a30ba34b7b760511b602082015260400190565b5062007c466200288d600062002b99565b62007c518262000856565b14801562007d2a575b62007d045762007c6c61011f62000be4565b9062007c7e6001830161011f62002a01565b62007cbd62007c94620007898461011e62000b9e565b62007ca0838262002bd2565b62007caf426001830162002a01565b6002620045e8600062000b8e565b7f6d2a78db5c50b32f71c160dd2d2103fb5e3a0bae8a9972e1eff105b8a5f37a07620048e862007ced8462000b8e565b9262007cf860405190565b918291429083620026ee565b620028cc9062007d1360405190565b63f7693c3d60e01b81529182916004830162007bec565b5062007d3a620029198262009b6f565b62007c5a565b6200078990600062007bc0565b620007709162007d5d3362009328565b91620093d3565b62007d736200288d3062001249565b62007d7e3362000856565b03620028af57620007709062007dd8565b620007899160408201919062007da79082906200087d565b60208183039101526016815275496e76616c696420746172676574206164647265737360501b602082015260400190565b62007de86200288d600062002b99565b62007df38262000856565b1462007e3d578062002fa860016200293a62007e129461011b62001254565b7f969eff453f277683e46c7e5f5b3a8eb055fb6a0dbf3656acb0d46b18b8516c0962003a4860405190565b620028cc9062007e4c60405190565b63f7693c3d60e01b81529182916004830162007d8f565b620007709062007d64565b949392919062007e826200288d3062001249565b62007e8d3362000856565b03620028af57620007709594929193600062007ea98162005de1565b63ffffffff881614908115620080b8575b81156200809c575b811562008080575b811562008064575b811562008049575b5062008007577f25076f5d56ad1441963ac802aaa2f7a64f6ac48af52f929a5be59810a74d71d46200650e847f119cec565c36bb644c48e2d896c65eb82ada63af8ccbb89a99601520d3da3c826200650e62002ac3997fe5146f6c4bb5517f41218531a8a9b3e51df188b60528211c30a39d2e8299c0fa6200650e6200650e997f53f26a2cca89cb13bb843784a8b97bfa4342a9b08377110145c430668f8f9cdd7ffcc0e600be0adc90f1d8e7eb8b988819b706b3d103b28f82471d9d3df973a7d29f808f7f4aabbcdefb82b3502a27d8a790a885b31e0cb85b3ed2aaeaf42622c72c0a7f8d9f9062007ffe8f620062386200642c9462007fe26200650e9861011a62005e14565b62007ff08a61011a62005e44565b6200621d8d61011a62005e73565b61011a62005f00565b60405163589956a560e11b8152602060048201526019602482015278496e76616c696420636f6e66696720706172616d657465727360381b6044820152606490fd5b62008055915062005de1565b63ffffffff8516143862007eda565b9050620080718162005de1565b63ffffffff8316149062007ed2565b90506200808d8162005de1565b63ffffffff8516149062007eca565b9050620080a98162005de1565b63ffffffff8716149062007ec2565b905063ffffffff871663ffffffff8416109062007eba565b9062000770959493929162007e6e565b620007e69061ffff1660f01b90565b60029392620081146014836200810b82956200108d976200537c565b0180926200537c565b018092620080e0565b620081336200812d620007899290565b60f81b90565b6001600160f81b03191690565b6200108d6200815b9260209262008155815190565b94859290565b938491016200102f565b620007899162008140565b01918252565b620007899062000b8e565b92620082d492620082ce9262000789956200819a600090565b50620081a68262000856565b620081b18262000856565b1015620082e3575b620081c962000789600062000b8e565b8403620082da5762008201929350620081f4620081e560405190565b948593602085019384620080ef565b9081038252038262000f3b565b620082156200820e825190565b9160200190565b205b620082ba6200822760ff6200811d565b620082323062001249565b90620081f4619250620082486020820162001608565b908082526200b5446020830139620082756200826360405190565b8092620081f460208301918262008165565b620082826200820e825190565b20604051958694602086019485926200817060146200108d94620081706001886200810b60209b9a8c996001600160f81b0319169052565b620082c76200820e825190565b2062008176565b62002b89565b6200123e565b50505062008217565b90620081b9565b62004a5a90620082f96200967d565b62008529565b90808214620083dd57620083138162005186565b906001600160401b03821162000f5d57620083348262004417855462000e5f565b600090601f83116001146200836657620028fa9291600091836200835a575050620043d8565b0154905038806200443d565b906200837c601f19841692600052602060002090565b906200838d85600052602060002090565b92815b818110620083c457509160029391856001969410620083b25750505002019055565b620044a0910154601f841690620043c9565b9193600180602092878701548155019501920162008390565b5050565b906200077091620082ff565b818103620083f9575050565b6009620045e8818462008417620044f0600062000770980162000c81565b620084296001820160018701620083e1565b6200843b620045236002830162000c81565b6200844d6200453d6003830162000be4565b6200845f620045596004830162000bb6565b62008471620045736005830162000be4565b620084836200458d6006830162000be4565b620084af60078601620045c160078401620084a9620084a28262000bb6565b84620028df565b62000bd0565b62006d1d620045d96008830162000be4565b906200077091620083ed565b6200078991620052f9565b3d15620084f557620084ea3d62003204565b903d6000602084013e565b606090565b62008506600d62003204565b6c2ab735b737bbb71032b93937b960991b602082015290565b62000789620084fa565b610107906200853d62000789828462000b9e565b90620085498262000c81565b9160009262008560620031cf6200288d8662002b99565b14620051455760048101620085758162000bb6565b6200894d5760078201620085898162000bd0565b62005101576003830190620085a66200078962004fe88462000be4565b4210620088f557620085bc620029198262000bb6565b620088a7575b5060058301620085d28162000be4565b90620085e76006860192620040918462000be4565b6200862462008611620085fd6008890162000be4565b6200860a61011362000be4565b9062004c78565b62005098670de0b6b3a764000062000b8e565b9081811062008882575050620037c562000789620086466200864d9362000be4565b9362000be4565b1115620088245762000789620086af916200867c6200866e61011962000be4565b6200860a6009880162000be4565b908162008693620037c5620037bf61011a62005fca565b11620087ff575b62004fe8620086a99162000be4565b62003f94565b42106200414f578391620086c660018493620028df565b620086df81620086d98661010862000b9e565b620084c1565b6200871782620086f181840162000c81565b6001620087016207a12062000b8e565b94016200870d60405190565b93849182620084cd565b0393f16200872d62008728620084d8565b911590565b620087a85750906200710682620087486200877d9462000b8e565b94857f60bc57ad9ccc47a7b523b7c981288595451ba6a606d24e6dab57baae45e3205f6200877560405190565b808062007a3d565b7fcbf2a6e8b82d4fa773edaedfd267a847cca9ca4add95eaec48f34fbb838081f062003a4860405190565b82620087b2825190565b620087c1620037c58362000b8e565b11159050620087ea57620028cc905b6040516371d9f36d60e11b8152918291600483016200268c565b50620028cc620087f96200851f565b620087d0565b9050620086a962004fe86200881a620037bf61011a62005fca565b929150506200869a565b620028cc846200883360405190565b6365fd36f160e01b815291829160048301908152604060208201819052601b908201527f496e73756666696369656e7420766f74657320696e206661766f720000000000606082015260800190565b620028cc6200889060405190565b63134a70cf60e11b81529283926004840162004318565b6001620088b491620028df565b620088bf8462000b8e565b7f5abeafd329d1c789d33f3356e08869b1eff7f392c76499eb4a2556f3d4a04e7c620088ea60405190565b600090a238620085c2565b620028cc856200890460405190565b6365fd36f160e01b81529182916004830190815260406020820181905260179082015276159bdd1a5b99c81c195c9a5bd9081b9bdd08195b991959604a1b606082015260800190565b6040516351618d5360e01b8152600490fd5b6200077090620082ea565b620089796200288d3062001249565b620089843362000856565b03620028af576200077090620089a0620037bf61011a62005f9e565b8110620072745762002ac3816200080b7fe9fcc2bb765bc85f4ce77f746da64363029b697be808b00a656a85c2e009f9ee9361011962002a01565b62000770906200896a565b620089f56200288d3062001249565b62008a003362000856565b03620028af57620007709062008a5a565b620007899160408201919062008a299082906200087d565b60208183039101526016815275496e76616c6964206d656d626572206164647265737360501b602082015260400190565b62008a6a6200288d600062002b99565b62008a758262000856565b1462008af95761011c62008a8e62002913838362001254565b62008aea579062008aaa60016200293a8362008abf9562001254565b62002fa862005aca6200381361011d62000be4565b7f0cb38e390fbd334396cf04e29d1374459cd2f2edeb56cf4d68004319aa1575c462003a4860405190565b620028cc8262005b5e60405190565b620028cc9062008b0860405190565b63f7693c3d60e01b81529182916004830162008a11565b6200077090620089e6565b62008b396200288d3062001249565b62008b443362000856565b03620028af57620007709062008b5d6201518062000b8e565b811062008b985762002ac3816200080b7f5a308529c2802603744568292f15da822f1847b538ab675e09ddc2a4d18d211d9361010c62002a01565b60405163589956a560e11b815260206004820152601260248201527110dbdbdb191bdddb881d1bdbc81cda1bdc9d60721b6044820152606490fd5b620007709062008b2a565b620007709062008bed6200995a565b62008c4f565b1562008bfb57565b60405162461bcd60e51b815260206004820152602660248201527f4f776e61626c653a206e6577206f776e657220697320746865207a65726f206160448201526564647265737360d01b6064820152608490fd5b620007709062004f1c62008c686200288d600062002b99565b62008c738362000856565b141562008bf3565b620007709062008bde565b9062008c966200288d3062001249565b62008ca13362000856565b03620028af57620007709162008cbd620037bf61011a62005f9e565b8210801562008d28575b62008d1a5762002ce762008d0f82620029408562008d097f9c0a81ab7ca8316ef085e471b030c7a7f5641583b6f7cbd222765f455f81652096610118620008e4565b62002a01565b926200080f60405190565b506200728161011a62005f9e565b5062008d3a620037bf61011a62005fca565b821162008cc7565b90620007709162008c86565b949392919062008d5f60fd62000bb6565b62003aa7576200077095949392919062008d7b61012162000bd0565b62003ae05762000770959062004a5a959493929162008d996200967d565b62008de8565b620007899160408201919062008db79082906200087d565b60208183039101526016815275496e76616c696420736f75726365206164647265737360501b602082015260400190565b93929094919462008dfe6200288d60ff62000c81565b62008e093362000856565b03620028af576101049562008e286200291384620025e0898b620008e4565b620058e15762008e389162004339565b62008e456200820e825190565b2062008e9a620037c5620081f462008e8962008e6489610103620008e4565b62008e6f3062001249565b9062008e7a60405190565b93849260208401928362005391565b62008e966200820e825190565b2090565b0362008fb7578162008eb1620037c5606062000b8e565b1062008fa55760016200293a62008efb92620025e08762008ef462008ee28962008eed9962008eed9b019062002e6a565b9a9199909962001249565b9862001249565b99620008e4565b62008f068262000856565b62008f118262000856565b101562008f9e575b62008f2f62002cba83620013328460fb62001254565b62008f43620031cf6200288d600062002b99565b1462008f4f5750505050565b62008f9162008f867f77ceac79a606620ed5c308e20989a73450087ec47fcce2b9e23b14ebc05177ba94620029408786866200a62d565b9462000b8460405190565b0390a23880808062004c49565b9062008f19565b604051637c6953f960e01b8152600490fd5b620028cc62008fc7600062002b99565b60405163f7693c3d60e01b81529182916004830162008d9f565b9062000770959493929162008d4e565b62000789600062009005620007896200427c565b0162000c81565b6200902262002919620029133361011c62001254565b620028af57620007709062009062565b6000808255620007709160029062004cf6836001830162004004565b906000036200266c57620007709062009032565b6200907f6200907361011f62000be4565b62007a67600162000b8e565b9061011e906200909462000789848462000b9e565b6200909f8162000c81565b620090ae620031cf8462000856565b1415801562009151575b620091285762000789620040846001620090d3930162000be4565b42106200414f578260009262009122927fbcac4fe6d0e0f980378f38cfad49851f96ab6b19bcbdd35e43ac43cd3d9af95262007a3d62009117620007709862000b8e565b92620008bf60405190565b6200904e565b620028cc846200913760405190565b63091bbd3760e21b81529182916004830190815260200190565b50620091606002820162000be4565b62009172620037c56200078962001f16565b10620090b8565b62000770906200900c565b620007897f4910fdfa16fed3260ed0e7147f7cc6da11a60208b5b9406d12a635614ffd914362000b8e565b15620091b757565b60405162461bcd60e51b815260206004820152602960248201527f45524331393637557067726164653a20756e737570706f727465642070726f786044820152681a58589b195555525160ba1b6064820152608490fd5b91906200922b6000620092246200078962009184565b0162000bb6565b156200923e57505062000770906200a6fd565b6200924d62002fa88462001249565b9260206200925a60405190565b6352d1902d60e01b815294859060049082905afa6000948162009302575b50620092da5760405162461bcd60e51b815260206004820152602e60248201527f45524331393637557067726164653a206e657720696d706c656d656e7461746960448201526d6f6e206973206e6f74205555505360901b6064820152608490fd5b620092fc6200077094620092f5620037c5620007896200427c565b14620091af565b6200a651565b6200932091955060203d602011620030835762003073818362000f3b565b933862009278565b6200933a620007898261010e62001254565b620093458162000c81565b62009359620031cf6200288d600062002b99565b14158062009377575b6200936b575090565b62000789915062000c81565b5060018101620093878162000be4565b62009397620037c5600062000b8e565b14908115620093a8575b5062009362565b620093b4915062000be4565b421038620093a1565b9015158152604081019291620007709160200152565b919091620093e8620007898261010762000b9e565b90620093f48262000c81565b916000926200940b620031cf6200288d8662002b99565b14620051455760078101620094208162000bb6565b80156200960f575b8015620095fd575b620095f4576200944b6200078962004fe86003850162000be4565b4211620095a0575061010a6200946b620029138662001332868562000b9e565b62003f0d576200948562002fa862002fa861010f62000c81565b9360206200949260405190565b9586906370a0823160e01b82528180620094b08b6004830162000888565b03915afa9485156200308b5781956200957a575b50620094d08162000b8e565b85146200956b5750826200953a926200951b60016200293a89620013327f7c2de587c00d75474a0c6c6fa96fd3b45dc974cd4e8a75f712bb84c950dce1b59a99620068cb9862000b9e565b87156200955357600562003ecf910162003ec886620086a98362000be4565b93620029806200954960405190565b92839283620093bd565b600662003ecf910162003ec886620086a98362000be4565b84620028cc620038b360405190565b6200959891955060203d602011620030835762003073818362000f3b565b9338620094c4565b8262003ecf6001620095b293620028df565b7f5abeafd329d1c789d33f3356e08869b1eff7f392c76499eb4a2556f3d4a04e7c620095dd60405190565b600090a26040515b63335b65a560e11b8152600490fd5b604051620095e5565b50620096098162000bd0565b62009430565b506200961e6004830162000bb6565b62009428565b62000789600262000b8e565b156200963857565b60405162461bcd60e51b815260206004820152601f60248201527f5265656e7472616e637947756172643a207265656e7472616e742063616c6c006044820152606490fd5b620007706200968d60c962000be4565b620096a56200969b62009624565b9182141562009630565b60c962002a01565b62000789600162000b8e565b62000770620096a5620096ad565b90600281101562000a3a576020020190565b93959294929391906000955a620096fa620037c5620037bf61011a620035f4565b1062003821576200971562002919620029138560fe620008e4565b62009725575b5050505050909150565b620097f296506200756f88620097456200558762002fa8999b8562004339565b6200978662009764620062a96200975d600062000b8e565b89620096c7565b6200977f620062a962009778600162000b8e565b8a620096c7565b9062009daa565b620097bb6200979e620062a96200975d600062000b8e565b620097b2620062a962009778600162000b8e565b9087876200a121565b620097eb620062a9620097d7620062a962009778600062000b8e565b97620097e4600162000b8e565b90620096c7565b9262004339565b8138808080806200971b565b156200980657565b60405162461bcd60e51b815260206004820152601d60248201527f416464726573733a20696e73756666696369656e742062616c616e63650000006044820152606490fd5b156200985357565b60405162461bcd60e51b815260206004820152603a60248201527f416464726573733a20756e61626c6520746f2073656e642076616c75652c207260448201527f6563697069656e74206d617920686176652072657665727465640000000000006064820152608490fd5b60006200077092620098e5829362002fa8620098da3062001249565b8490311015620097fe565b90620098f060405190565b90818003925af162009901620084d8565b506200984b565b156200991057565b60405162461bcd60e51b815280620028cc600482016020808252818101527f4f776e61626c653a2063616c6c6572206973206e6f7420746865206f776e6572604082015260600190565b6200077062009968620067cf565b62009977620031cf3362000856565b1462009908565b6200999f62006dad62009992603362000c81565b62002fa884603362002bd2565b907f8be0079c531659141344cd1fd0a4f28419497f9722a3daafe3b4186f6b6457e06200297d60405190565b9050519062000770826200074e565b90505190620007708262000d7e565b6080818303126200075c5762009a008282620099cb565b926200078962009a14846020850162002f38565b93606062009a26826040870162002f38565b9401620099da565b620007899160408201919062009a469082906200087d565b60208183039101526000815260200190565b805162009a6a620037c5602262000b8e565b1062009b2e5762009a9081602062009a8462009a9c945190565b818301019101620099e9565b90509290919262001249565b9162009aad62004d44600162004a64565b1415801562009b14575b62009b07575062009acd6200288d600062002b99565b62009ad88262000856565b1462009ae15750565b620028cc9062009af060405190565b63f7693c3d60e01b81529182916004830162009a2e565b6200382f61011a620035f4565b5062009b26620037bf61011a620035f4565b811062009ab7565b6040516329e9fe6160e21b81526020600482015260186024820152771059185c1d195c881c185c985b5cc81d1bdbc81cda1bdc9d60421b6044820152606490fd5b3b62009b80620037c5600062000b8e565b1190565b1562009b8c57565b60405162461bcd60e51b815260206004820152602b60248201527f496e697469616c697a61626c653a20636f6e7472616374206973206e6f74206960448201526a6e697469616c697a696e6760a81b6064820152608490fd5b62009bfb62009bf5600062000bd0565b62009b84565b62000770620007706200a74a565b6200077062009be5565b6200077062009bf5600062000bd0565b6200077062009c13565b62009c3d62009bf5600062000bd0565b62000770620007706200a764565b6200077062009c2d565b602080825262000789910162005d6d565b620007899160408201919062009c7e9082906200087d565b6020818303910152600e81526d139bdd08184818dbdb9d1c9858dd60921b602082015260400190565b620007899160408201919062009cbf9082906200087d565b6020818303910152600d81526c0496e76616c696420455243323609c1b602082015260400190565b60ff811662000754565b90505190620007708262009ce7565b906020828203126200075c57620007899162009cf1565b620007899160408201919062009d2f9082906200087d565b6020818303910152601b81527f446563696d616c73206f7574206f662075696e74382072616e67650000000000602082015260400190565b620007899160408201919062009d7f9082906200087d565b6020818303910152601081526f4d697373696e6720646563696d616c7360801b602082015260400190565b90600062009db88162002b99565b62009dc38162000856565b62009dce8562000856565b149081156200a102575b506200a0e75762009de98262000856565b62009df48462000856565b146200a0d55762009e09620029198462009b6f565b80156200a0bf575b6200a0825762009e2562002fa88462001249565b6318160ddd90602062009e3760405190565b809262009e448560e01b90565b825260049082905afa90816200a060575b5062009e8157620028cc8462009e6a60405190565b63554bbbf160e01b81529182916004830162009ca7565b602062009ea69194939462009e9a62002fa88762001249565b60405193849260e01b90565b825260049082905afa90816200a03e575b5062009ecc57620028cc8362009e6a60405190565b91909162009ede62002fa88462001249565b63313ce56790602062009ef060405190565b809262009efd8560e01b90565b825260049082905afa8391816200a018575b5062009f3b57620028cc8562009f2460405190565b63554bbbf160e01b81529182916004830162009d67565b62009f5062005d3960ff969394959662005b80565b1162009fba575090602062009f7a9262009f6e62002fa88662001249565b60405194859260e01b90565b825260049082905afa90918162009fe0575b5062009fa157620028cc8262009f2460405190565b62009fb162005d3960ff62005b80565b1162009fba5750565b620028cc9062009fc960405190565b63554bbbf160e01b81529182916004830162009d17565b6200a00891925060203d6020116200a010575b62009fff818362000f3b565b81019062009d00565b903862009f8c565b503d62009ff3565b6200a03691925060203d6020116200a0105762009fff818362000f3b565b903862009f0f565b6200a05a9060203d602011620030835762003073818362000f3b565b62009eb7565b6200a07c9060203d602011620030835762003073818362000f3b565b62009e55565b91620028cc926200a0938262009b6f565b1590506200a0b757505b60405163554bbbf160e01b81529182916004830162009c66565b90506200a09d565b506200a0cf620029198362009b6f565b62009e11565b604051635c6d7b7360e01b8152600490fd5b604051620d27e760e41b815280620028cc6004820162009c55565b6200a10e915062000856565b6200a1198362000856565b143862009dd8565b90916200a13061012162000bb6565b62004c49576200a160926200a155858362008728956200a14e600090565b506200a8e9565b92819691926200acbb565b90816200a182575b506200a17057565b6040516367767a3f60e11b8152600490fd5b159050386200a168565b926200817060146200108d946200811482886200810b60209b9a6002996200537c565b620007e69062001249565b62000789916040820191906200a1d29082906200a1af565b60208183039101526014815273141bdbdb0818dc99585d1a5bdb8819985a5b195960621b602082015260400190565b95966200a26d610120986200a26262000c41989b9e9d9b6200a257620007709e996200a24c6200a2879a60408f62000b536200a27b9d62000b4861014084019e60008501906200087d565b60608d01906200087d565b60808b01906200087d565b60a08901906200087d565b86820360c088015262001564565b9860e08501906200087d565b610100830152565b620007899060101c620008dd565b6200078990546200a28f565b906200a2e462000c419162000770969897956200a2d6608096620052c860a088019460008901906200a1af565b8482036040860152620051d7565b61ffff9097166060830152565b929391959490956080526200a304600090565b506200a311600062000b8e565b928382036200a5ea575b6200a3268762000856565b6200a3318262000856565b10156200a5e35795925b6200a35162002cba85620013328a60fb62001254565b6200a365620031cf6200288d600062002b99565b036200a5d15781036200a5ca57506040516200a38d8160208101620081f487878b84620080ef565b6200a39a6200820e825190565b20945b6040516192508101908082106001600160401b0383111762000f5d57806200a3cc89936192506200b544843990565b03906000f580156200308b576200a3e39062001249565b80966200a3f08262001249565b906200a400620029198362009b6f565b6200a5a4576200a41462002fa88462001249565b6200a42161010062000c81565b906200a42e60ff62000c81565b60c0526200a43e61010062000c81565b6200a4546200a44e600062000b8e565b62003b2c565b6200a45f3062001249565b6200a46c61010162000be4565b906200a47a61010262000be4565b92853b156200075c578c6200a4ba958c6000996200a49760405190565b60a052630bc0c23d60e31b60a051526080519360c05192600460a051016200a201565b60a051919082900390829084905af19182156200308b577f92bb6a95dac8cab0be0723d907a25c6f20712fc500571d4ebf165a77a6655df39562002980936200a57c575b6200a50b8289886200a62d565b886200a51d620008dd6101216200a29d565b61ffff8216036200a563575b6200a54a925062004dc891506200a54390610120620008e4565b9562001249565b966200a55560405190565b94859460805190866200a2a9565b6080516200a573938a896200b125565b3880886200a529565b6000806200a5916200a59e9260a05162000f3b565b60a0510160a051620007b2565b6200a4fe565b620028cc836200a5b360405190565b63f7693c3d60e01b8152918291600483016200a1ba565b946200a39d565b604051630188c99160e11b8152600490fd5b926200a33b565b6040516200a6058160208101620081f4868a8d88856200a18c565b6200a6126200820e825190565b208490036200a31b576040516381e69d9b60e01b8152600490fd5b8262002c91620007709493620013326200a6499460fb62001254565b60fc620032e5565b916200a65d836200b3a4565b81516200a66f620037c5600062000b8e565b119081156200a691575b506200a683575050565b6200a68e916200b42e565b50565b9050386200a679565b156200a6a257565b60405162461bcd60e51b815260206004820152602d60248201527f455243313936373a206e657720696d706c656d656e746174696f6e206973206e60448201526c1bdd08184818dbdb9d1c9858dd609a1b6064820152608490fd5b62000770906200a7176200a7118262009b6f565b6200a69a565b60006200a727620007896200427c565b0162002bd2565b6200a73e62009bf5600062000bd0565b6200077080336200997e565b620007706200a72e565b62004a5a62009bf5600062000bd0565b620007706200a754565b69ffffffffffffffffffff811662000754565b9050519062000770826200a76e565b919060a0838203126200075c576200a7a981846200a781565b926200a7b9826020830162002f38565b92620007896200a7cd846040850162002f38565b9360806200a7df826060870162002f38565b94016200a781565b620007899060a01c62000d21565b6200078990546200a7e7565b620007899081906001600160a01b031681565b6020808252600a90820152695374616c65206461746160b01b604082015260600190565b91906040838203126200075c576200078990602062009a268286620099da565b60208082526012908201527124b73b30b634b2103a37b5b2b7103830b4b960711b604082015260600190565b6020808252601a908201527f4661696c656420746f20666574636820746f6b656e2070616972000000000000604082015260600190565b6020808252601490820152734661696c656420746f206665746368206461746160601b604082015260600190565b90929060009384936000916200a9036200288d8462002b99565b6200a90e8562000856565b1480156200ac2a575b6200ac18576200a92b62002fa88562001249565b604051633fabe5a360e21b815260a081600481855afa8591816200abdd575b506200a99457505050505062003ecf6200a9686200a96e926200123e565b6200a801565b600080516020620147948339815191526200a98860405190565b8062002ce7816200a8bb565b6200a9b4919293949750620007899062004091620037bf61011a6200a7f5565b42116200ab8f5760405163313ce56760e01b8152602081600481855afa9081156200308b5787916200ab6b575b509560406200a9ef60405190565b63c1f1b1b560e01b815292839060049082905afa809282936200ab31575b506200aa50575050505062003ecf6200a9686200aa2a926200123e565b600080516020620147948339815191526200aa4460405190565b8062002ce7816200a884565b90919296506200aa608362000856565b6200aa6b8262000856565b1496876200ab11575b87156200aacb575b5050851591506200aa8a9050565b6200aa925750565b62003ecf6200a9686200aaa5926200123e565b600080516020620147948339815191526200aabf60405190565b8062002ce7816200a858565b6200aae0919293949750620031cf9062000856565b1491826200aaf6575b505092388080806200aa7c565b6200ab08919250620031cf9062000856565b1438806200aae9565b96506200ab1e8762000856565b6200ab298362000856565b14966200aa74565b9092506200ab5b915060403d6040116200ab63575b6200ab52818362000f3b565b8101906200a838565b91386200aa0d565b503d6200ab46565b6200ab88915060203d6020116200a0105762009fff818362000f3b565b386200a9e1565b5050506200aba9919293506200a96862003ecf916200123e565b600080516020620147948339815191526200abc360405190565b806200abcf816200a814565b0390a2620007898262005b80565b6200ac0591925060a03d60a0116200ac10575b6200abfc818362000f3b565b8101906200a790565b50939250506200a94a565b503d6200abf0565b50509350509050620007898262005b80565b506200ac3a620029198562009b6f565b6200a917565b906200ac52620051e962001576845490565b9060005b8181106200ac645750505090565b9091926200ac7d62005226600192620052208762000c81565b9291016200ac56565b9062000789916200ac40565b906200077062000f81926200aca660405190565b938480926200ac86565b62000789906200ac92565b9391949290946200ace26200acdc6200acd2600090565b96610120620008e4565b6200acb0565b8051956000956200acf38762000b8e565b885b8110156200b0a1576200ad0d62006aed828662003bc1565b6200ad1c6200288d8a62002b99565b6200ad278262000856565b1415806200b08f575b6200ad48575b506200acf5906001015b90506200acf3565b6200ad5762002fa88262001249565b604051633fabe5a360e21b815260a081600481855afa8b91816200b067575b506200adcc5750506200acf5916200ad9a62003ecf6200a9686200ad40946200123e565b600080516020620147948339815191526200adb460405190565b806200adc0816200a8bb565b0390a25b91506200ad36565b620007896200ade69162004091620037bf61011a6200a7f5565b42116200b0245760405163313ce56760e01b8152602081600481855afa9182156200308b578b9182936200afff575b508d60406200ae2360405190565b63c1f1b1b560e01b815292839060049082905afa8392816200afd5575b506200ae9557505050506200acf5916200ae6662003ecf6200a9686200ad40946200123e565b600080516020620147948339815191526200ae8060405190565b806200ae8c816200a884565b0390a26200adc4565b6200aea590979493959762000856565b6200aeb08362000856565b1491826200afb5575b82156200af74575b5050156200af2f57505085806200af1e575b6200aeea57506200acf56200ad406001936200adc4565b86620028cc6200aef960405190565b6309ac80e160e11b81529283926004840160ff91821681529116602082015260400190565b5060ff811660ff881614156200aed3565b6200acf59250936200af4e62003ecf6200a9686200ad4094976200123e565b600080516020620147948339815191526200af6860405190565b806200ae8c816200a858565b9091506200af86620031cf8a62000856565b14908d826200af9a575b505038806200aec1565b6200afac919250620031cf9062000856565b14388d6200af90565b91506200afc28962000856565b6200afcd8262000856565b14916200aeb9565b9093506200aff591925060403d81116200ab63576200ab52818362000f3b565b919092386200ae40565b6200b01c91935060203d81116200a0105762009fff818362000f3b565b91386200ae15565b506200acf5916200b04162003ecf6200a9686200ad40946200123e565b600080516020620147948339815191526200b05b60405190565b806200ae8c816200a814565b6200b08491925060a03d81116200ac10576200abfc818362000f3b565b50939250506200ad76565b506200b09b8162009b6f565b6200ad30565b50965096505050505050565b916200b0d891620007899694620052d36200765b93620052c860a0880194600089019061ffff169052565b608081840391015262001054565b92620076c962005411916200188f62000789999798946200b117966200188160c08a019260008b019061ffff169052565b60a081840391015262001054565b6200b15892959493506200b14b6200b13c60405190565b96879360208501938462000b24565b9081038252038462000f3b565b6200b1638262009a58565b6200b17762002fa862002fa860ff62000c81565b926200b1833062001249565b92600060406200b19260405190565b96879063040a7bb160e41b825281806200b1b487878a8d8d600487016200b0ad565b03915afa9586156200308b5781966200b37d575b5085341062005881576200b2156020856200b1ec62002fa862002fa860ff62000c81565b6200b22263c5803100996200b20484610103620008e4565b604051968792878401928362005391565b9081038252038562000f3b565b6200b2508a6200b2323362001249565b9a6200b25c898d6200b2448b62002b99565b908d6200795560405190565b8852600488016200b0e6565b03925af19081156200308b5782916200b359575b50156200b29e57505050506200b2838290565b34116200b28e575050565b6200509f62000770923462005505565b6200b32492939550600080516020620147b483398151915294506200b2fb90620057cc6200466b6200b2d662005799610e1062000b8e565b9262003ecf6200b2e56200542a565b61ffff8c168382015296620057c58a60208a0152565b620057fa6101056200b30f61010662000be4565b906200b31e6001830162005842565b62000b9e565b6200b34a62003ecf6200b33961010662000be4565b6200b345600162000b8e565b900390565b9262002ce76200582060405190565b6200b376915060203d602011620058795762005869818362000f3b565b386200b270565b6200b39b91965060403d604011620058d957620058c7818362000f3b565b9590956200b1c8565b6200b3b49062002fa8816200a6fd565b7fbc7cd75a20ee27fd9adebab32041f755214dbc6bffa90cc0225b39da2e5c2d3b62003a4860405190565b6200b3eb602762003204565b7f416464726573733a206c6f772d6c6576656c2064656c65676174652063616c6c6020820152660819985a5b195960ca1b604082015290565b620007896200b3df565b62000789916200b43d6200b424565b916000806200078994936200b450606090565b50602081519101845af46200b464620084d8565b916200b4b8565b156200b47357565b60405162461bcd60e51b815260206004820152601d60248201527f416464726573733a2063616c6c20746f206e6f6e2d636f6e74726163740000006044820152606490fd5b919290156200b4f3575081516200b4d4620037c5600062000b8e565b146200b4de575090565b6200b4ed620007899162009b6f565b6200b46b565b82906200b4fe825190565b6200b50e620037c5600062000b8e565b11156200b51e5750805190602001fd5b620028cc906200b52d60405190565b62461bcd60e51b8152918291600483016200268c56fe60a0604052346200003657620000146200003b565b604051619054620001fc823960805181818161305c0152613cec015261905490f35b600080fd5b6200004562000051565b6200004f62000181565b565b6200004f62000096565b620000719062000074906001600160a01b031682565b90565b6001600160a01b031690565b62000071906200005b565b620000719062000080565b620000a1306200008b565b608052565b620000719060081c5b60ff1690565b620000719054620000a6565b60208082526027908201527f496e697469616c697a61626c653a20636f6e747261637420697320696e697469604082015266616c697a696e6760c81b606082015260800190565b156200011057565b60405162461bcd60e51b8152806200012b60048201620000c1565b0390fd5b6200007190620000af565b6200007190546200012f565b620000af62000071620000719260ff1690565b906200016d620000716200017d9262000146565b825460ff191660ff919091161790565b9055565b6200019f62000199620001956000620000b5565b1590565b62000108565b620001ab60006200013a565b60ff90811603620001b857565b620001c660ff600062000159565b7f7f26b83ff96e1f2b6a682f133852f6798a09c465da95921460cefb3847402498620001f160405190565b60ff8152602090a156fe60a0604052600436101561001b575b361561001957600080fd5b005b60003560e01c80621d35671461054a578063024d973f14610545578063053f14da1461054057806307968db11461053b5780630902f1ac146105365780630b645028146105315780630e3187e51461052c5780630f012183146105275780630fc63d101461052257806315770f921461051d57806316ca32dc146105185780632577055b146105135780632782b67a1461050e5780633659cfe6146105095780633a1efa9f146105045780633d09f515146104ff5780633f4ba83a146104fa57806345f11178146104f557806346ebbdb0146104f05780634a7f931e146104eb5780634afdfbdb146104e65780634f1ef286146104e157806352d1902d146104dc5780635442774e146104d7578063559ced1e146104d25780635a770289146104cd5780635aa6e675146104c85780635b080361146104c35780635c975abb146104be5780635da885a1146104b95780635e0611e8146104b45780635f64b55b146104af57806361d027b3146104aa578063681234c0146104a557806368d58240146104a05780636d7616c11461049b578063715018a61461049657806375172a8b1461049157806378ba139d1461048c57806378ef8333146104875780637b35aded146104825780637e7836041461047d5780638456cb5914610478578063881882cb146104735780638da5cb5b1461046e5780638e0738201461046957806394c3e9141461046457806394f1825b1461045f578063968761ec1461045a5780639c8f9f23146104555780639cd441da146104505780639f1d0f591461044b5780639fe88c8414610446578063a35906bd14610441578063aa659ea41461043c578063b256126314610437578063c158e71514610432578063c6328a461461042d578063c79ce9d114610428578063c818c74914610423578063cfdbf2541461041e578063d35eaee814610419578063d46630f914610414578063d7d674b01461040f578063d84e2d341461040a578063d9c0222f14610405578063da35c66414610400578063db2e21bc146103fb578063dbecb7eb146103f6578063dd296480146103f1578063de12a4f6146103ec578063e1ac42da146103e7578063e3f5aa51146103e2578063e79d3d95146103dd578063eaeb3ff9146103d8578063f2fde38b146103d3578063f4365710146103ce578063f8c8b892146103c9578063f9a69ecc146103c4578063fa596d32146103bf578063fb0c7549146103ba578063fd0320af146103b55763ffa1ad740361000e57611cd9565b611c18565b611bf0565b611bc1565b611b9b565b611b82565b611b34565b611ac9565b611aaa565b611a8f565b611a17565b6119e7565b611963565b61193b565b611911565b6118f9565b6118de565b6118b8565b611867565b61184c565b611824565b6117e2565b611726565b611701565b6116e6565b6116be565b611699565b611681565b611669565b611652565b611606565b6115dd565b61159b565b611567565b61154c565b611524565b6114f5565b6114d0565b6114b5565b61149d565b611485565b611469565b611424565b6113db565b6113af565b611380565b61133b565b611322565b611309565b6112d5565b6112ba565b611292565b611261565b61111d565b611082565b611059565b611022565b610fe1565b610f78565b610f47565b610d0c565b610cf8565b610be2565b610bbd565b610ba2565b610b66565b610aef565b610ad3565b610a61565b6109db565b610996565b610972565b6108d7565b6108bc565b610894565b61086c565b6107f5565b6107dc565b610776565b61071e565b6106ac565b610662565b610623565b61ffff81165b0361055c57565b600080fd5b9050359061056e8261054f565b565b909182601f8301121561055c578135916001600160401b03831161055c57602001926001830284011161055c57565b6001600160401b038116610555565b9050359061056e8261059f565b909160808284031261055c576105d18383610561565b9260208301356001600160401b03811161055c57816105f1918501610570565b92909361060183604083016105ae565b9260608201356001600160401b03811161055c5761061f9201610570565b9091565b3461055c576106426106363660046105bb565b949390939291926122fd565b604051005b0390f35b9060208282031261055c5761065f91610561565b90565b3461055c5761064261067536600461064b565b612399565b600091031261055c57565b61065f916008021c81565b9061065f9154610685565b61065f6000610118610690565b9052565b3461055c576106bc36600461067a565b6106476106c761069b565b6040515b9182918290815260200190565b61065f916008021c5b6001600160a01b031690565b9061065f91546106d8565b61065f600061010b6106ed565b6106a8906106e1565b60208101929161056e9190610705565b3461055c5761072e36600461067a565b6106476107396106f8565b6040519182918261070e565b61077261056e9461076b606094989795610764608086019a6000870152565b6020850152565b6040830152565b0152565b3461055c5761078636600461067a565b6106476107916123a2565b9061079e94929460405190565b94859485610745565b91909160408184031261055c576107be8382610561565b9260208201356001600160401b03811161055c5761061f9201610570565b3461055c576106426107ef3660046107a7565b91612667565b3461055c5761064261080836600461064b565b6126fa565b80610555565b9050359061056e8261080d565b919060a08382031261055c576108368184610561565b926108448260208301610813565b9261065f6108558460408501610813565b9360806108658260608701610813565b9401610813565b3461055c5761064261087f366004610820565b9392909261289e565b61065f600060fc6106ed565b3461055c576108a436600461067a565b610647610739610888565b61065f6000610106610690565b3461055c576108cc36600461067a565b6106476106c76108af565b3461055c576108e736600461067a565b610642612a3a565b909182601f8301121561055c578135916001600160401b03831161055c57602001926020830284011161055c57565b60608183031261055c576109328282610561565b9260208201356001600160401b03811161055c57836109529184016108ef565b92909360408201356001600160401b03811161055c5761061f9201610570565b61064261098036600461091e565b93929092612f78565b61065f60006101126106ed565b3461055c576109a636600461067a565b610647610739610989565b610555816106e1565b9050359061056e826109b1565b9060208282031261055c5761065f916109ba565b3461055c576106426109ee3660046109c7565b613114565b61065f906106e1906001600160a01b031682565b61065f906109f3565b61065f90610a07565b90610a2390610a10565b600052602052604060002090565b61065f916008021c5b60ff1690565b9061065f9154610a31565b6000610a5c61065f92610110610a19565b610a40565b3461055c57610647610a7c610a773660046109c7565b610a4b565b6040515b9182918260ff909116815260200190565b919060408382031261055c5761065f906020610aad82866109ba565b94016109ba565b610ace61065f92610ac9600093610108610a19565b610a19565b610690565b3461055c576106476106c7610ae9366004610a91565b90610ab4565b3461055c57610aff36600461067a565b610642613195565b91909160a08184031261055c57610b1e83826109ba565b92610b2c8160208401610813565b92610b3a8260408501610813565b92610b488360608301610561565b9260808201356001600160401b03811161055c5761061f9201610570565b6106476106c7610b77366004610b07565b94939093929192613b71565b61065f61065f61065f9290565b61065f6003610b83565b61065f610b90565b3461055c57610bb236600461067a565b6106476106c7610b9a565b3461055c57610642610bd03660046109c7565b613c2e565b61065f600061011c610690565b3461055c57610bf236600461067a565b6106476106c7610bd5565b634e487b7160e01b600052604160045260246000fd5b90601f01601f191681019081106001600160401b03821117610c3457604052565b610bfd565b9061056e610c4660405190565b9283610c13565b6001600160401b038111610c3457602090601f01601f19160190565b0190565b90826000939282370152565b90929192610c8e610c8982610c4d565b610c39565b938185528183011161055c5761056e916020850190610c6d565b9080601f8301121561055c5781602061065f93359101610c79565b91909160408184031261055c57610cda83826109ba565b9260208201356001600160401b03811161055c5761065f9201610ca8565b610642610d06366004610cc3565b90613c5d565b3461055c57610d1c36600461067a565b6106476106c7613d4d565b9060208282031261055c5761065f91610813565b90610a2390610b83565b61065f905b61ffff1690565b61065f9054610d45565b634e487b7160e01b600052602260045260246000fd5b9060016002830492168015610d91575b6020831014610d8c57565b610d5b565b91607f1691610d81565b80546000939291610db8610dae83610d71565b8085529360200190565b9160018116908115610e0a5750600114610dd157505050565b610de49192939450600052602060002090565b916000925b818410610df65750500190565b805484840152602090930192600101610de9565b92949550505060ff1916825215156020020190565b9061065f91610d9b565b9061056e610e4392610e3a60405190565b93848092610e1f565b0383610c13565b61065f9081565b61065f9054610e4a565b610e679061011b610d3b565b610e7081610d51565b91610e7d60018301610e29565b91610e8a60028201610e29565b9161065f6004610e9c60038501610e51565b9301610e51565b60005b838110610eb65750506000910152565b8181015183820152602001610ea6565b610ee7610ef0602093610c6993610edb815190565b80835293849260200190565b95869101610ea3565b601f01601f191690565b90610f3f61056e95979694610f3161077293608096610f2460a0880192600089019061ffff169052565b8682036020880152610ec6565b908482036040860152610ec6565b966060830152565b3461055c57610647610f62610f5d366004610d27565b610e5b565b91610f6f95939560405190565b95869586610efa565b3461055c57610642610f8b366004610d27565b613dcc565b916107729161056e96989795610fcc60a096610fc5610fd995610fbb60c08a019660008b0190610705565b6020890190610705565b6040870152565b8482036060860152610ec6565b966080830152565b3461055c57610647610ffc610ff736600461064b565b613e0d565b9261100c96949692919260405190565b96879687610f90565b61065f60006101146106ed565b3461055c5761103236600461067a565b610647610739611015565b919060408382031261055c5761065f906020610aad8286610813565b3461055c576106476106c761106f36600461103d565b90613e7a565b61065f6000610109610a40565b3461055c5761109236600461067a565b61064761109d611075565b60405191829182901515815260200190565b610d4a61065f61065f9261ffff1690565b90610a23906110af565b634e487b7160e01b600052600060045260246000fd5b906000106110f15761065f90610e29565b6110ca565b600061110761065f9261010d6110c0565b6110e0565b602080825261065f92910190610ec6565b3461055c5761064761113861113336600461064b565b6110f6565b6040519182918261110c565b6001600160401b038111610c345760208091020190565b9092919261116b610c8982611144565b938185526020808601920283019281841161055c57915b83831061118f5750505050565b6020809161119d84866109ba565b815201920191611182565b9080601f8301121561055c5781602061065f9335910161115b565b6101408183031261055c576111d882826109ba565b926111e683602084016109ba565b926111f481604085016109ba565b9261120282606083016109ba565b9261121083608084016109ba565b9261121e8160a085016109ba565b9260c08101356001600160401b03811161055c578261123e9183016111a8565b9261065f61124f8460e085016109ba565b93610120610865826101008701610813565b3461055c576106426112743660046111c3565b989790979691969592959493946145b5565b61065f600060fd6106ed565b3461055c576112a236600461067a565b610647610739611286565b61065f60006101056106ed565b3461055c576112ca36600461067a565b6106476107396112ad565b3461055c576106426112e83660046109c7565b61463c565b919060408382031261055c5761065f9060206108658286610561565b3461055c5761064261131c3660046112ed565b906146e0565b3461055c5761064261133536600461103d565b90614b0b565b3461055c5761134b36600461067a565b610642614b32565b61135d60fe610e51565b9061136860ff610e51565b90611374610100610e51565b9061065f610101610e51565b3461055c5761139036600461067a565b610647610791611353565b61065f6202a300610b83565b61065f61139b565b3461055c576113bf36600461067a565b6106476106c76113a7565b6000610ace61065f9261010f6110c0565b3461055c576106476106c76113f136600461064b565b6113ca565b611402906101026110c0565b9061065f6001610e9c84610e51565b90815260408101929161056e9160200152565b3461055c5761143c61143736600461064b565b6113f6565b9061064761144960405190565b92839283611411565b91909160408184031261055c576107be83826109ba565b3461055c576106476106c761147f366004611452565b91614cb6565b3461055c5761149536600461067a565b610642614d31565b3461055c576106426114b0366004610d27565b614da7565b3461055c576114c536600461067a565b610647610739614db0565b3461055c576106426114e3366004610d27565b614df6565b61065f6000610104610690565b3461055c5761150536600461067a565b6106476106c76114e8565b61065f62093a80610b83565b61065f611510565b3461055c5761153436600461067a565b6106476106c761151c565b61065f6000610115610690565b3461055c5761155c36600461067a565b6106476106c761153f565b3461055c5761064261157a366004610d27565b614fab565b919060408382031261055c5761065f9060206108658286610813565b3461055c576106426115ae36600461157f565b90615377565b909160608284031261055c5761065f6115cd84846109ba565b9360406108658260208701610813565b3461055c576106476106c76115f33660046115b4565b9161576f565b61065f6000610117610690565b3461055c5761161636600461067a565b6106476106c76115f9565b9060808282031261055c576116368183610813565b926116448260208501610813565b926106018360408301610561565b610642611660366004611621565b93929092615e1d565b3461055c5761064261167c3660046109c7565b615f0f565b3461055c576106426116943660046109c7565b615f8d565b3461055c576106426116ac366004610d27565b615ff7565b61065f600061010c6106ed565b3461055c576116ce36600461067a565b6106476107396116b1565b61065f6000610119610a40565b3461055c576116f636600461067a565b61064761109d6116d9565b61064261170f366004610d27565b616306565b61065f6064610b83565b61065f611714565b3461055c5761173636600461067a565b6106476106c761171e565b61065f906106e1565b61065f9054611741565b61065f90610a3a565b61065f9054611754565b6117739061011d610d3b565b9061177d8261174a565b9161178a60018201610e29565b9161065f600361179c60028501610e51565b930161175d565b6117da6117d260609361056e969897956117c560808601926000870190610705565b8482036020860152610ec6565b966040830152565b019015159052565b3461055c576106476117fd6117f8366004610d27565b611767565b9061180a94929460405190565b948594856117a3565b6000610a5c61065f9261010a6110c0565b3461055c5761064761109d61183a36600461064b565b611813565b61065f6000610116610690565b3461055c5761185c36600461067a565b6106476106c761183f565b3461055c5761064261187a366004610d27565b6164b7565b60ff8116610555565b9050359061056e8261187f565b919060408382031261055c5761065f9060206118b182866109ba565b9401611888565b3461055c576106426118cb366004611895565b90616560565b61065f600061011e610690565b3461055c576118ee36600461067a565b6106476106c76118d1565b3461055c5761190936600461067a565b61064261669a565b3461055c576106426119243660046107a7565b916168b0565b6000610ace61065f92610107610a19565b3461055c576106476106c76119513660046109c7565b61192a565b61065f6000610111610690565b3461055c5761197336600461067a565b6106476106c7611956565b919060408382031261055c5761065f90602061199a8286610561565b94016105ae565b6119b761065f61065f926001600160401b031690565b6001600160401b031690565b90610a23906119a1565b610a5c61065f926119e260009361010e6110c0565b6119c3565b3461055c5761064761109d6119fd36600461197e565b906119cd565b61065f620f4240610b83565b61065f611a03565b3461055c57611a2736600461067a565b6106476106c7611a0f565b634e487b7160e01b600052603260045260246000fd5b8054821015611a6b57611a62600191600052602060002090565b91020190600090565b611a32565b610113805482101561055c5761065f91611a8991611a48565b906106ed565b3461055c57610647610739611aa5366004610d27565b611a70565b3461055c57610642611abd3660046105bb565b94939093929192616c66565b3461055c57610642611adc3660046109c7565b616d04565b9160608383031261055c57611af68284610561565b9260208101356001600160401b03811161055c5783611b16918301610ca8565b9260408201356001600160401b03811161055c5761065f9201610ca8565b3461055c5761143c611b47366004611ae1565b91616d7d565b91909160408184031261055c57611b6483826109ba565b9260208201356001600160401b03811161055c5761065f92016111a8565b3461055c57610642611b95366004611b4d565b90616f81565b3461055c57610642611bae3660046107a7565b916174b8565b61065f600061011a610690565b3461055c57611bd136600461067a565b6106476106c7611bb4565b61065f62015180610b83565b61065f611bdc565b3461055c57611c0036600461067a565b6106476106c7611be8565b61065f6000610103610690565b3461055c57611c2836600461067a565b6106476106c7611c0b565b80546000939291611c46610dae83610d71565b9160018116908115610e0a5750600114611c5f57505050565b611c729192939450600052602060002090565b916000925b818410611c845750500190565b805484840152602090930192600101611c77565b9061065f91611c33565b9061056e610e4392611cb360405190565b93848092611c98565b906000106110f15761065f90611ca2565b61065f600060fb611cbc565b3461055c57611ce936600461067a565b610647611138611ccd565b9493929190611d0c611d0761010b61174a565b6106e1565b611d15336106e1565b03611d235761056e95611d38565b6040516282b42960e81b8152600490fd5b0390fd5b9493929190611d4861010961175d565b611d555761056e95611d67565b60405163ab35696f60e01b8152600490fd5b959493929190611d81611d7c8861010a6110c0565b61175d565b611d8f5761056e9596611dbb565b611d3487611d9c60405190565b6314fb671960e01b81529182916004830161ffff909116815260200190565b90611dd19594939291611dcc617519565b611f3a565b61056e61754b565b61065f9054610d71565b61065f913691610c79565b61065f90610e29565b6001600160401b03909116815260408101929161056e916020905b01906001600160401b03169052565b919060a08382031261055c57611e3781846109ba565b92611e458260208301610813565b9261065f611e568460408501610813565b93608061086582606087016105ae565b9060ff905b9181191691161790565b90611e8561065f611e8c92151590565b8254611e66565b9055565b634e487b7160e01b600052601160045260246000fd5b81810292918115918404141715611eb957565b611e90565b634e487b7160e01b600052601260045260246000fd5b90611ede565b9190565b908115611ee9570490565b611ebe565b91908201809211611eb957565b9060001990611e6b565b90611f1561065f611e8c92610b83565b8254611efb565b90815260608101939261056e929091604091611e12905b6020830152565b939092949161010d90611f55611f5087846110c0565b611dd9565b94600095611f65611eda88610b83565b146122d157611f9f611f9a88611f81611fae95611eda95611de3565b611f93611f8c825190565b9160200190565b20956110c0565b611dee565b611faa611f8c825190565b2090565b036122b65761010e91611fc8611d7c876119e288876110c0565b6122925781611fdc91611fea930190611e21565b919693959295949094610a10565b936001600160401b0389166001600160401b0382160361226e575080421061224a575061201682610b83565b84148015612239575b61222a576001612036886119e28961203b956110c0565b611e75565b61208e61204860fc61174a565b61206c6101109186612066611d7c61206060fc61174a565b86610a19565b9161757d565b85612066611d7c61207d60fd61174a565b9361208860fd61174a565b90610a19565b612099610106610e51565b6120a5611eda83610b83565b036121c7576120de6120d86120d36120ce6120bf87617780565b6120c889617780565b9061778d565b6177db565b61783a565b91610b83565b81146121a35761218b6121858361215261214a61219e9561213f6121277f553174d2f9335bb8fe056c3fb592f25fbf86b0783fd64a389dec8cac71ffa6909b9a99610107610a19565b6121398361213483610e51565b611eee565b90611f05565b612134610106610e51565b610106611f05565b6121656101006121398761213483610e51565b6121786101016121398861213483610e51565b612180617843565b610a10565b956110af565b9561219560405190565b93849384611f1c565b0390a3565b5050611d346121b160405190565b6307c83fcf60e41b815292839260048401611411565b6120de6121f36121e16121db610106610e51565b86611ea6565b6121ed8460fe01610e51565b90611ed4565b61221461220a612204610106610e51565b88611ea6565b6121ed60ff610e51565b80821015612223575091610b83565b90506120d8565b505050611d346121b160405190565b5061224382610b83565b851461201f565b611d349061225760405190565b63126b74dd60e11b81529182914260048401611411565b8890611d3461227c60405190565b637c8bfff560e11b815292839260048401611df7565b611d348661229f60405190565b637c8bfff560e11b81529182918060048401611df7565b604051634726455360e11b815280611d34336004830161070e565b611d34876122de60405190565b6306b03b4d60e21b81529182916004830161ffff909116815260200190565b9061056e9594939291611cf4565b612319611d0761011461174a565b612322336106e1565b03611d235761056e9061010a9061234361233f611d7c83856110c0565b1590565b611d235761235960006120368361235e956110c0565b6110af565b61236733610a10565b907f2f1bdc4fe18de51bcc190eb64e3c94664ce3b2da13ac05e3d13606759e26d51261239260405190565b808061219e565b61056e9061230b565b60fe6123ad81610e51565b6123b960018301610e51565b926123d260036123cb60028601610e51565b9401610e51565b9193929190565b91906123e9611d0761011461174a565b6123f2336106e1565b03611d235761056e926125d5565b6106e161065f61065f9290565b61065f90612400565b9160001960089290920291821b911b611e6b565b919061243b61065f611e8c93610b83565b908354612416565b61056e9160009161242a565b81811061245a575050565b806124686000600193612443565b0161244f565b9190601f811161247d57505050565b61248f61056e93600052602060002090565b906020601f8401819004830193106124b2575b6020601f909101045b019061244f565b90915081906124a2565b9060001960089091021c191690565b816124d5916124bc565b906002021790565b91906001600160401b038211610c3457612501826124fb8554610d71565b8561246e565b600090601f831160011461252f57611e8c929160009183612524575b50506124cb565b01359050388061251d565b90601f1983169161254585600052602060002090565b92825b81811061258357509160029391856001969410612569575b50505002019055565b61257991601f85169101356124bc565b9055388080612560565b92936020600181928786013581550195019301612548565b9061056e92916124dd565b9190610ef0816125bd81610c699560209181520190565b8095610c6d565b602080825261065f939101916125a6565b9091806125e5611eda6000610b83565b14612640576126258261235983866126207f8addd86e28b6d441c80911f85edcb6e1ecd0e8cdfad6b9f32e7df4632b3f31dd9761010d6110c0565b61259b565b9261263b61263260405190565b928392836125c4565b0390a2565b611d3461264d600061240d565b6040515b634726455360e11b81529182916004830161070e565b9061056e92916123d9565b612680611d0761011461174a565b612689336106e1565b03611d235761056e9061010a6126a2611d7c83836110c0565b6126ed57906123596001612036836126b9956110c0565b6126c233610a10565b907f15f6658bf5dbf64da256a223ca4a07ecc61673268783da156cd818a816dae25661239260405190565b611d3482611d9c60405190565b61056e90612672565b93929190612715611d0761011461174a565b61271e336106e1565b03611d235761056e94612778565b61065f6040610c39565b600161275a602061056e9461275561274f600083015190565b86611f05565b015190565b9101611f05565b9061056e91612736565b610d4a61065f61065f9290565b93909192936127848490565b8311801561288b575b6128675761279b8286611eee565b6127a9611eda612710610b83565b03612843577f5c6a01c3a5ffb90be1066451325aa08ec140df702f29234657b710c82a3da30493929161282161263b926128086127e461272c565b6127ec878252565b6127f7886020830152565b612803836101026110c0565b612761565b612812600161276b565b61ffff82161461282b576110af565b9561079e60405190565b61283788610103611f05565b61235983610104611f05565b5083611d3461285160405190565b639737c62f60e01b815292839260048401611411565b5050611d3461287560405190565b6305a7b3d160e11b815292839260048401611411565b506128976103e8610b83565b841161278d565b9061056e94939291612703565b6128b3617519565b611dd16128e6565b6106a890610b83565b91602061056e9294936128df604082019660008301906128bb565b01906128bb565b6101086129086129036128f93384610a19565b61208860fc61174a565b610e51565b906129236129036129193384610a19565b61208860fd61174a565b9060009061293082610b83565b841480612a29575b612a0557907f93ac92bbc1328856b13822d7444a28a1e81b79e61085164305d71765c6110bc4929161296982610b83565b85116129d6575b61297982610b83565b8311612998575b505061298b33610a10565b9261263b61144960405190565b6129b26129196129aa6129b794610b83565b923390610a19565b611f05565b6129cf816129c861218060fd61174a565b33906179f2565b3880612980565b6129ef6129e283610b83565b6129b26128f93385610a19565b612a00856129c861218060fc61174a565b612970565b611d3482612a1260405190565b6307c83fcf60e41b815291829180600484016128c4565b50612a3382610b83565b8314612938565b61056e6128ab565b93929190612a5161010961175d565b611d555761056e93929190612a6b611d7c8761010a6110c0565b612a795761056e9495612a86565b611d3486611d9c60405190565b90611dd194939291612a96617519565b612c73565b9050519061056e8261059f565b9060208282031261055c5761065f91612a9b565b80546000939291612acf610dae83610d71565b9160018116908115610e0a5750600114612ae857505050565b612afb9192939450600052602060002090565b916000925b818410612b0d5750500190565b805484840152602090930192600101612b00565b61ffff909116815261065f9160408201916020818403910152612abc565b6040513d6000823e3d90fd5b80546000939291612b62612b5e83610d71565b9390565b9160018116908115612bb35750600114612b7b57505050565b612b8e9192939450600052602060002090565b6000905b838210612b9f5750500190565b600181602092548486015201910190612b92565b60ff191683525050811515909102019150565b612bd26106a8916106e1565b60601b90565b612be8610c699160149493612b4b565b8092612bc6565b903590601e19368290030182121561055c57018035906001600160401b03821161055c576020019136829003831361055c57565b90821015611a6b57602061061f9202810190612bef565b6119b761065f61065f9290565b6001600160401b03908116911601906001600160401b038211611eb957565b91908203918211611eb957565b60809190915290939284600094612c8986610b83565b8714612f6b57612c9a61065f611714565b8711612f445761010d92612cb1611f5086866110c0565b612cbd611eda89610b83565b14612f3757612cd4612ccf8288611de3565b617a3a565b612d2360009182936020612cef61218061218061010b61174a565b612cf98a8a6110c0565b908a612d0460405190565b809781948293612d1863fdc07c7060e01b90565b845260048401612b21565b03915afa928315612f3257612d719789918c95612ef7575b50612d7d91612d50919c93949596979c6110c0565b612d5930610a10565b90612d6360405190565b998a92602084019283612bd8565b90810382520388610c13565b612d8f612d8989617a61565b42611eee565b94809150995b8b5b8b1015612e935790898989898796958f9a859b89829c9b5a98868460805191612dbf92612c23565b612dc891611de3565b91612dd291611de3565b612ddc9189616d7d565b509384612de891611eee565b9d8c868460805191612df992612c23565b9050612e056084610b83565b14968460805191612e1592612c23565b919094612e2190612c3a565b612e2a91612c47565b93612e3499617b47565b5a612e3e91612c66565b612e4791611eee565b998a612e51611a03565b8111612e6c5750612d97906001019a91929394959050612d95565b611d3490612e7960405190565b63ef9a044160e01b81529182916004830190815260200190565b995050985050505050505050612ea68190565b3410612ed357803411612eb65750565b61056e90612ecd612ec633610a10565b9134612c66565b90617e7e565b611d3490612ee060405190565b63a458261b60e01b81529182913460048401611411565b612d5091955091612f22612d7d9360203d602011612f2b575b612f1a8183610c13565b810190612aa8565b95915091612d3b565b503d612f10565b612b3f565b611d34856122de60405190565b611d3487612f5160405190565b63707aa4ed60e11b81529182916004830190815260200190565b611d3486612a1260405190565b9061056e94939291612a42565b15612f8c57565b60405162461bcd60e51b815260206004820152602c60248201527f46756e6374696f6e206d7573742062652063616c6c6564207468726f7567682060448201526b19195b1959d85d1958d85b1b60a21b6064820152608490fd5b15612fed57565b60405162461bcd60e51b815260206004820152602c60248201527f46756e6374696f6e206d7573742062652063616c6c6564207468726f7567682060448201526b6163746976652070726f787960a01b6064820152608490fd5b61056e906130af61305730610a10565b6130957f00000000000000000000000000000000000000000000000000000000000000009161308e613088846106e1565b916106e1565b1415612f85565b6130a96130886130a3617ebe565b926106e1565b14612fe6565b6130ee565b906130c1610c8983610c4d565b918252565b369037565b9061056e6130e16130db846130b4565b93610c4d565b601f1901602084016130c6565b600061056e916130fd81617edd565b61310e61310983610b83565b6130cb565b90617f6d565b61056e90613047565b61312b611d0761011461174a565b613134336106e1565b03611d235761056e61314a61233f61010961175d565b611d235761315b6000610109611e75565b61316433610a10565b7f5db9ee0a495bf2e6ff9c91a7834c1ba4fdd244a5e8aa4e537bd38aeae4b073aa61318e60405190565b808061263b565b61056e61311d565b9594939291906131ae61010961175d565b611d555761065f9594939291906131ca611d7c8561010a6110c0565b6131d85761065f96976131e5565b611d3484611d9c60405190565b906131fc9695949392916131f7617519565b6134b3565b9061056e61754b565b90815260408101929161056e916020906128df565b610a3a61065f61065f9290565b9050519061056e8261080d565b9060208282031261055c5761065f91613227565b949290979695939160e08601986000870161326291610705565b6020860161326f91610705565b6040850152606084015260808301526001600160401b031660a082015260c00152565b926132da6132e5916132cc61065f9a98946132ef969a989a6132bf60c08a019260008b019061ffff169052565b88820360208a0152610ec6565b908682036040880152610ec6565b966060850190610705565b6080830190610705565b60a08185039101526125a6565b61077261056e9461331b606094989795610764608086019a6000870152565b6001600160401b03166040830152565b61065f60a0610c39565b9061ffff90611e6b565b9061334f61065f611e8c926110af565b8254613335565b9061335f815190565b906001600160401b038211610c345761337c826124fb8554610d71565b602090601f83116001146133a957611e8c92916000918361339e5750506124cb565b01519050388061251d565b601f198316916133be85600052602060002090565b9260005b8181106133f2575091600293918560019694106133e25750505002019055565b612579910151601f8416906124bc565b919360206001819287870151815501950192016133c2565b9061056e91613356565b600461275a608061056e94613437613431600083015161ffff1690565b8661333f565b61344e613445602083015190565b6001870161340a565b61346561345c604083015190565b6002870161340a565b612755613473606083015190565b60038701611f05565b9061056e91613414565b61ffff909116815261065f9160408201916020818403910152610ec6565b6000198114611eb95760010190565b50959490939291906134c8611d0760fc61174a565b6134d1886106e1565b141580613b53575b613b30576134e76000610b83565b8514613b21576134fc611f508461010d6110c0565b613509611eda6000610b83565b14613b14576101109661351f611d7c828a610a19565b61353361352c600161321a565b9160ff1690565b141580613af2575b613ac05761354c611d0760fc61174a565b613555826106e1565b03613aa65761356460fe610e51565b61356e60ff610e51565b965b61357a868261806c565b9691909361358961011961175d565b15613a895750985b818a10613a6557808a11613a4257506135ab8983866180d4565b6135b484610a10565b926135be84610a10565b936370a08231946135ce30610a10565b956135d860405190565b916135e38260e01b90565b8352602083806135f68b6004830161070e565b0381845afa928315612f3257600093613a1a575b5061362a9160209161361e898b33896182b7565b60405193849260e01b90565b8252818061363b8c6004830161070e565b03915afa918215612f325786916000936139db575b5061065f61366192611eda92611eee565b106139b65761368861367f611d7c6136c69a9b9c9d9e9f8990610a19565b8b33878a618323565b602061369b61218061218061010b61174a565b6136a78c61010d6110c0565b908c6136b260405190565b809c81948293612d1863fdc07c7060e01b90565b03915afa978815612f3257600098613993575b509787986136e98b999899617a61565b6136f39042611eee565b938d888661370060405190565b9d8e9460208601948b33956137159688613248565b908103825203613725908b610c13565b61372f898d611de3565b61373a908b8d616d7d565b5092833410613986579061376a61377b93926121396137608b610ac96101083390610a19565b9161213483610e51565b61377561010561174a565b906179f2565b61378c61218061218061010b61174a565b936137b66137c263c5803100926137a58d61010d6110c0565b604051938492602084019283612bd8565b90810382520382610c13565b6137cb33610a10565b916137d6600061240d565b873b1561055c578e976138088f8f93948f8f8a936000988b613813946137fb60405190565b9c8d9b8c9a8b9960e01b90565b895260048901613292565b03925af19081613960575b506138ea5750505050505050600080516020618fff833981519152929361386561076b6138a09361384d61332b565b61ffff8916815293613860876020870152565b611de3565b6138796138726000610b83565b6060830152565b613884426080830152565b61389b61011b61389561011c610e51565b90610d3b565b61347c565b6138b36138ae61011c610e51565b610b83565b926138c96138c060405190565b92839283613486565b0390a261065f6138e26138dd61011c610e51565b6134a4565b61011c611f05565b90919294975061394693959950600080516020618fdf833981519152965061390f8290565b341161394c575b505061393361392d61392733610a10565b97610a10565b976110af565b9761393d60405190565b948594856132fc565b0390a490565b612ecd6139599234612c66565b3880613916565b6139799060005b6139718183610c13565b81019061067a565b3861381e565b503d613967565b611d3484612ee060405190565b6139ae9197985060203d602011612f2b57612f1a8183610c13565b9695386136d9565b600084611d346139c560405190565b6307c83fcf60e41b815292839260048401613205565b611eda91935061366192613a0961065f9260203d602011613a13575b613a018183610c13565b810190613234565b9492509250613650565b503d6139f7565b602091935091613a3961362a93833d8511613a1357613a018183610c13565b9391509161360a565b89611d34613a4f60405190565b63315276c960e01b815292839260048401611411565b5088611d34613a7360405190565b63d28d3eb560e01b815292839260048401611411565b6121ed82613a9a8d613aa095611ea6565b92611eee565b98613591565b613ab060ff610e51565b613aba60fe610e51565b96613570565b613ad0611d7c611d34928a610a19565b6040515b630d50b4bb60e31b81529182916004830160ff909116815260200190565b50613b00611d7c828a610a19565b613b0d61352c600261321a565b141561353b565b611d34836122de60405190565b600085611d346139c560405190565b611d3487613b3d60405190565b63961c9a4f60e01b81529182916004830161070e565b50613b61611d0760fd61174a565b613b6a886106e1565b14156134d9565b61065f959493929190600061319d565b613b8f611d0761011461174a565b613b98336106e1565b03611d235761056e90613bcc565b906001600160a01b0390611e6b565b90613bc561065f611e8c92610a10565b8254613ba6565b613bd9611d07600061240d565b613be2826106e1565b14613c215780612180613bf79261010b613bb5565b7f07ac75b380fe4c5e41ea9b7030179bb21229b84ab9f9ba2fabebccd430ae2f6d61318e60405190565b611d349061265160405190565b61056e90613b81565b9061056e91613c4861305730610a10565b61056e91600191613c5881617edd565b617f6d565b9061056e91613c37565b15613c6e57565b60405162461bcd60e51b815260206004820152603860248201527f555550535570677261646561626c653a206d757374206e6f742062652063616c6044820152771b1959081d1a1c9bdd59da0819195b1959d85d1958d85b1b60421b6064820152608490fd5b61065f90613d16613ce430610a10565b613d106130887f00000000000000000000000000000000000000000000000000000000000000006106e1565b14613c67565b613d44565b61065f7f360894a13ba1a3210667c828492db98dca3e2076cc3735a920a3ca505d382bbc610b83565b5061065f613d1b565b61065f6000613cd4565b613d65611d0761011461174a565b613d6e336106e1565b03611d235761056e90613d816000610b83565b8114613dbd57613db8816106c77ff2510ae1838122ec0293334ab4736fa75c51a329d30f7232d3155bdbe1181d1093610117611f05565b0390a1565b600090611d346139c560405190565b61056e90613d57565b9061056e613dfd6001613de661272c565b94613df7613df382610e51565b8752565b01610e51565b6020840152565b61065f90613dd5565b613e21613e1c826101026110c0565b613e04565b91613e2d61010b61174a565b92613e3961010c61174a565b93613e55613e4c6129038661010f6110c0565b9461010d6110c0565b92613e75613e6c6020613e66865190565b95015190565b92969594611dee565b929190565b61065f91613e8e613088611d0760fc61174a565b60009103613ef4575060fe906121ed90613ed8613ebf613ead85610e51565b613eb960028701610e51565b90611eee565b93613eb96003613ed160018401610e51565b9201610e51565b505b613a9a613eee670de0b6b3a7640000610b83565b82611ea6565b906121ed90613f2760fe613eb96002613ed1613f1f613f1360ff610e51565b613eb960038701610e51565b978401610e51565b50613eda565b61065f9060081c610a3a565b61065f9054613f2d565b15613f4a57565b60405162461bcd60e51b815260206004820152602e60248201527f496e697469616c697a61626c653a20636f6e747261637420697320616c72656160448201526d191e481a5b9a5d1a585b1a5e995960921b6064820152608490fd5b610a3a61065f61065f9260ff1690565b90611e8561065f611e8c92613fa6565b9061ff009060081b611e6b565b90613fe361065f611e8c92151590565b8254613fc6565b6106a89061321a565b60208101929161056e9190613fea565b9896949290916140539896949261401d61233f6000613f39565b9a8b806140e9575b80156140ab575b61403590613f43565b8b61404a614043600161321a565b6000613fb6565b61409a5761423d565b61405957565b614064600080613fd3565b7f7f26b83ff96e1f2b6a682f133852f6798a09c465da95921460cefb384740249861408e60405190565b80613db8600182613ff3565b6140a660016000613fd3565b61423d565b506140c061233f6140bb30610a10565b6183f0565b801561402c57506140356140d4600061175d565b6140e161352c600161321a565b14905061402c565b506140f4600061175d565b61410161352c600161321a565b10614025565b90614110825190565b811015611a6b576020809102010190565b61065f90516106e1565b614140600561413a8354610d71565b8361246e565b600a640312e302e360dc1b019055565b61056e9061412b565b9061416c90600019906020036008021c90565b8154169055565b91909182821061418257505050565b61056e92916141979091600052602060002090565b918201910161244f565b90600160401b8111610c3457816141b961056e935490565b90828155614173565b8151916001600160401b038311610c34576141f86141ec6001926141e686866141a1565b60200190565b92600052602060002090565b92049160005b83811061420b5750505050565b600190602061421c61065f86614121565b94019381840155016141fe565b9061056e916141c2565b90610a239061276b565b999692989390979598949194614252896106e1565b61425b8c6106e1565b10156145125760009561426d8761240d565b998c61427b6130888d6106e1565b14801561459c575b8015614583575b801561456a575b8015614551575b8015614538575b801561451f575b614512576142b561065f611bdc565b891080156144ff575b6144d8576142cb88610b83565b87146144b1578b9c6142dc89610b83565b6142ec819f61065f611eda915190565b101561433f578b61430d8f8f614308613088926130a392614107565b614121565b14614332576143208d9e9d9c9d60010190565b6142ec819f9e9d61065f611eda915190565b611d348c61265160405190565b614463999a9d5061448f9b50946143bb6143ee9897956143b361056e9f95966143ab6143cb986143a36143c39861439c6143d39e61437b61847f565b614383618494565b61438b6184b4565b61439560fb614150565b60fc613bb5565b60fd613bb5565b610105613bb5565b61010b613bb5565b61010c613bb5565b610112613bb5565b610113614229565b610114613bb5565b6143e661010f956129b260018098614233565b610111611f05565b61440a6143f961272c565b916144046014610b83565b90830152565b61442f6144176064610b83565b91614423836020830152565b61280385610102614233565b61444561443d61208d610b83565b610103611f05565b61445b614453610683610b83565b610104611f05565b610116611f05565b61448a614476662386f26fc10000610b83565b61448281610117611f05565b61011a611f05565b61321a565b6144ac610110612919836144ac6144a660fc61174a565b84610a19565b613fb6565b611d34876144be60405190565b635f7918ed60e01b81529182916004830190815260200190565b611d34896144e560405190565b6381872b2960e01b81529182916004830190815260200190565b5061450b61065f611510565b89116142be565b611d348b61265160405190565b506145298b6106e1565b614532876106e1565b146142a6565b506145428b6106e1565b61454b866106e1565b1461429f565b5061455b8b6106e1565b614564856106e1565b14614298565b506145748b6106e1565b61457d846106e1565b14614291565b5061458d8b6106e1565b614596836106e1565b1461428a565b506145a68b6106e1565b6145af826106e1565b14614283565b9061056e999897969594939291614003565b6145d5611d0761011461174a565b6145de336106e1565b03611d235761056e906145f4611d07600061240d565b6145fd826106e1565b14613c2157806121806146129261010c613bb5565b7f6c24236f84b31300a6f3205a33d3029ce86c6a479cd52f40a6566c584d1ce6b361318e60405190565b61056e906145c7565b90614654611d0761011461174a565b61465d336106e1565b03611d235761056e9161467161065f611bdc565b821080156146cd575b6146c05761263b6146b682612359856129b27f6fe98c92bfe8df924816e01e7afebdc610c405b5478d9f33da330607d6127c6d9661010f6110c0565b926106cb60405190565b611d34826144e560405190565b506146d961065f611510565b821161467a565b9061056e91614645565b9061056e916146f761850c565b90611dd191614704617519565b61498e565b9050519061056e826109b1565b60e08183031261055c5761472a8282614709565b926147388360208401614709565b926147468160408501613227565b926147548260608301613227565b9261065f6147658460808501613227565b9360c06147758260a08701612a9b565b9401613227565b919060a08382031261055c576147928184614709565b926147a08260208301613227565b9261065f6147b18460408501613227565b9360806147758260608701612a9b565b906000916147df6147d782600052602060002090565b9283546124cb565b905555565b919290602082101561483c57601f841160011461480657611e8c9293506124cb565b509061483761056e93600161482e61482385600052602060002090565b92601f602091010490565b8201910161244f565b6147c1565b506148758293614853600194600052602060002090565b6124ab6020601f860104820192601f86168061487d575b50601f602091010490565b600202179055565b61488990888603614159565b3861486a565b929091600160401b8211610c3457602011156148d65760208110156148b757611e8c916124cb565b60019160ff19166148cd84600052602060002090565b55600202019055565b60019150600202019055565b9081546148ee81610d71565b90818311614917575b818310614905575b50505050565b61490e936147e4565b388080806148ff565b6149238383838761488f565b6148f7565b600061056e916148e2565b906000036110f15761056e90614928565b600080825561056e9160049061495d8360018301614933565b61496a8360028301614933565b6149778360038301612443565b01612443565b906000036110f15761056e90614944565b9061011b906149a061065f8484610d3b565b6149a981610d51565b6149be6149b6600061276b565b9161ffff1690565b14614ae4576149cf60038201610e51565b6149dd611eda61065f610b90565b10614ae45792600092614aa392600161056e9601816149fb82611dd9565b614a08611eda6084610b83565b148714614aa85750614a4f614a37614a22614a5d93611dee565b6020614a2c825190565b81830101910161477c565b505092915084614a4a61218060fc61174a565b6179f2565b82614a4a61218060fd61174a565b614a6f614a6984610b83565b91610a10565b907f6cee4864d4fc096a6fd4f666503c8ee8b4da2206789899638dbd6e29ea329a95614a9a60405190565b600090a3610d3b565b61497d565b61218090614a4a614ad3614abe614adf95611dee565b6020614ac8825190565b818301019101614716565b50505050949150610a10565b614a5d565b611d3484614af160405190565b63c89cd9df60e01b81529182916004830190815260200190565b9061056e916146ea565b614b1d61850c565b61056e61056e614b2d600061240d565b618529565b61056e614b15565b929190614b4b611d0761011461174a565b614b54336106e1565b03611d235761065f93614c05565b61065f6080610c39565b906106a8906106e1565b6003614bc2606061056e94614b96614b9060008301614121565b86613bb5565b614ba4613445602083015190565b614bbb614bb2604083015190565b60028701611f05565b0151151590565b9101611e75565b9061056e91614b76565b94939160409161056e94614c0092614bf360608a019360008b0190610705565b88830360208a01526125a6565b940152565b5090917f4b7172d87913da4ec16468004dd6490dabd28e411fe887e2ed87cacafb13059c90614c3561011e610e51565b93614c4a614c42866134a4565b61011e611f05565b614c8f614c55614b62565b614c5f8682614b6c565b614c6c611f338585611de3565b614c77426040830152565b60006060820152614c8a8761011d610d3b565b614bc9565b614cb0614c9b86610b83565b94614ca560405190565b938493429285614bd3565b0390a290565b61065f9291906000614b3a565b614cd1611d0761011461174a565b614cda336106e1565b03611d235761056e614ced61010961175d565b611d5557614cfe6001610109611e75565b614d0733610a10565b7f62e78cea01bee320cd4e420270b5ea74000d11b0c9f74754ebdbfc544b05a25861318e60405190565b61056e614cc3565b614d47611d0761011461174a565b614d50336106e1565b03611d235761056e90614d636000610b83565b8114614d9a57613db8816106c77fd5382bd6594878e7a8cee5087eb23c841cc8ebe7b8753ccd2cda0fd11c85852893610111611f05565b611d34906144be60405190565b61056e90614d39565b61065f603361174a565b614dc8611d0761011461174a565b614dd1336106e1565b03611d235761056e90614de46000610b83565b8114613dbd5761056e9061011a611f05565b61056e90614dba565b614e0a61010961175d565b611d555761056e90611dd190614e1e617519565b614e3e565b90815260608101939261056e92909160409161077290611f33565b6000614e4981610b83565b82148015614f94575b614f7757614e61610106610e51565b614e6d611eda83610b83565b14614f6a577f1dc8bb69df2b8e91fbdcbfcf93d951b3f0000f085a95fe3f7946d6161439245d9060fe90810190614f216001614eb9614eae61220486610e51565b6121ed610106610e51565b9201614f14614ed3614eae614ecd84610e51565b89611ea6565b94614ef5614ee333610107610a19565b6121398a614ef083610e51565b612c66565b614f0761214a89614ef0610106610e51565b61213985614ef083610e51565b61213984614ef083610e51565b614f32816129c861218060fc61174a565b614f43826129c861218060fd61174a565b614f4b617843565b61263b614f5733610a10565b94614f6160405190565b93849384614e23565b611d3490612a1260405190565b50614f8761290333610107610a19565b90611d346121b160405190565b50614fa461290333610107610a19565b8211614e52565b61056e90614dff565b90614fc061010961175d565b611d555761056e9190611dd191614fd5617519565b90600091614fe283610b83565b81148015615366575b61524c57614fff61218061218060fc61174a565b6370a082319061500e30610a10565b602061501960405190565b80936150258660e01b90565b82528180615036866004830161070e565b03915afa918215612f32578692615345575b5061505961218061218060fd61174a565b91602061506560405190565b80946150718760e01b90565b82528180615082876004830161070e565b03915afa928315612f32578793615324575b506150ae85836150a761218060fc61174a565b33906182b7565b6150c086836150a761218060fd61174a565b6150d061218061218060fc61174a565b60206150db60405190565b80926150e78860e01b90565b825281806150f8886004830161070e565b03915afa918215612f3257869189936152f5575b5061065f61511d92611eda92611eee565b1415928315615258575b50505061524c57615139610106610e51565b615145611eda85610b83565b036151fb576151656120d36120ce61515c84617780565b6120c886617780565b925b61517081610b83565b84146151ee57906151dc7f64b83944e79c3ce8d4c297411de637c3e102d064677aac0c163976ebdcd6f50e93926151ba6151ad6101073390610a19565b6121398861213483610e51565b6151cc61214a87612134610106610e51565b60fe016121398361213483610e51565b614f4360ff6121398461213483610e51565b50611d346121b160405190565b61521e61521261520c610106610e51565b83611ea6565b6121ed8560fe01610e51565b61523561220a61522f610106610e51565b85611ea6565b8082101561524557505b92615167565b905061523f565b611d346121b160405190565b6152979293509060209161528c61527561218061218060fd61174a565b9161527f60405190565b9586948593849360e01b90565b83526004830161070e565b03915afa918215612f3257849186936152c6575b5061065f6152bc92611eda92611eee565b1415388080615127565b611eda9193506152bc926152eb61065f9260203d602011613a1357613a018183610c13565b94925092506152ab565b611eda91935061511d9261531a61065f9260203d602011613a1357613a018183610c13565b949250925061510c565b61533e91935060203d602011613a1357613a018183610c13565b9138615094565b61535f91925060203d602011613a1357613a018183610c13565b9038615048565b5061537083610b83565b8214614feb565b9061056e91614fb4565b92919061538f61010961175d565b611d555761065f93906131fc9392916153a6617519565b939293506153b7611d0760fc61174a565b6153c0826106e1565b141580615751575b6157445760006153d781610b83565b8314615737576153ea611d0760fc61174a565b6153f3836106e1565b0361571b576154048160fe01610e51565b61540e60ff610e51565b915b61542261541d600161276b565b61856f565b926154426127106121ed6120d861543c88614ef085610b83565b8a611ea6565b615490615463615452878a611ea6565b61545d610103610e51565b90611ea6565b6121ed6120d861548561547e6305f5e100946121ed86610b83565b998c611ea6565b61545d610104610e51565b9361549c61011961175d565b156157045750975b8089106156f757508088116156ea57506154bf8786866180d4565b6154c884610a10565b906154d282610a10565b6370a08231906154e130610a10565b906154eb60405190565b926154f68160e01b90565b845260208480615509866004830161070e565b0381855afa938415612f32578c8b9187966156b8575b5061559394926020949261528c928d61553e613088611d0760fc61174a565b0361566a5761557e61558b9261555e8c60fe016121398361213483610e51565b61557060ff61213985614ef083610e51565b876150a761218060fc61174a565b6129c861218060fd61174a565b60405161527f565b03915afa918215612f32578891849361563b575b5061065f6155b892611eda92611eee565b1061562e57506155e592916155d29161377561010561174a565b61213961376084610ac933610108610a19565b6155ed617843565b7ffa2dda1cc1b86e41239702756b13effbc1a092b5c57e3ad320fbe4f3b13fe2358461562161561b33610a10565b93610a10565b9361219e61144960405190565b85611d346139c560405190565b611eda9193506155b89261566061065f9260203d602011613a1357613a018183610c13565b94925092506155a7565b6156b3916156a69061568460ff6121398361213483610e51565b6156988c60fe0161213985614ef083610e51565b876150a761218060fd61174a565b6129c861218060fc61174a565b61558b565b61528c91965092602094926156dd6155939795873d8911613a1357613a018183610c13565b979250929450929461551f565b87611d34613a4f60405190565b88611d34613a7360405190565b6121ed82613a9a8561571595611ea6565b976154a4565b61572560ff610e51565b6157318260fe01610e51565b91615410565b82611d346139c560405190565b611d3490613b3d60405190565b5061575f611d0760fd61174a565b615768826106e1565b14156153c8565b61065f9291906000615381565b9392919061578b61010961175d565b611d555761056e939291906157a5611d7c8361010a6110c0565b6126ed5761056e949590611dd1949392916157be617519565b615808565b9095949261056e946157f8610772926157f16080966157ea60a088019c6000890190610705565b6020870152565b6040850152565b6001600160401b03166060830152565b91929360009161581783610b83565b84148015615e0c575b615dff5761010d93615835611f5087876110c0565b615841611eda86610b83565b14615df25761011061585f611d7c61585960fc61174a565b83610a19565b61586c61352c600161321a565b141580615dcd575b615db957615888611d7c61585960fd61174a565b61589561352c600161321a565b141580615d94575b615d80576158b161218061218060fc61174a565b906370a082316158c030610a10565b9260206158cc60405190565b80926158d88560e01b90565b825281806158e9896004830161070e565b03915afa908115612f32578891615d61575b5061590c61218061218060fd61174a565b90602061591860405190565b80936159248660e01b90565b825281806159358a6004830161070e565b03915afa918215612f32578992615d40575b5061595a86866150a761218060fc61174a565b61596c87866150a761218060fd61174a565b61597c61218061218060fc61174a565b602061598760405190565b80926159938760e01b90565b825281806159a48b6004830161070e565b03915afa918215612f325787918b93615d11575b5061065f6159c992611eda92611eee565b1415918215615c8a575b50506121a35790615a24615a60949392615a0a6159f060fc61174a565b8b615a01611d7c61206060fc61174a565b91873391618323565b89615a1b611d7c61207d60fd61174a565b91863391618323565b6020615a3761218061218061010b61174a565b615a418a8a6110c0565b908a615a4c60405190565b809881948293612d1863fdc07c7060e01b90565b03915afa938415612f32578694615c69575b50615a7f612d8989617a61565b90615a8960405190565b97615aac8960208101615aa0868a8a8a33866157c3565b9081038252038a610c13565b615ac0615ab9888d611de3565b8a8c616d7d565b5091823410615c5c578a615b0e615b0292615af1615ae561218061218061010b61174a565b9363c5803100966110c0565b604051948592602084019283612bd8565b90810382520383610c13565b615b1733610a10565b92615b218b61240d565b91803b1561055c576138088f8f938f8f968f90938b948b615b45946137fb60405190565b03925af19081615c40575b50615bd05750505050505093613879613872615ba1936138ae615b9a600080516020618fff8339815191529899615b8561332b565b61ffff8c1685820152966138608a60208a0152565b6040860152565b615baf6138ae61011c610e51565b92615bbc6138c060405190565b0390a261056e6138e26138dd61011c610e51565b9193965091945061219e9398507fab3dd6f8805da3a89e0a4c04ca885fac2d81d4cf9c996f7759480cec2ab77ff79650615c078290565b3411615c2c575b5050615c22615c1c33610a10565b966110af565b9661393d60405190565b612ecd615c399234612c66565b3880615c0e565b615c56908a3d8c1161397f576139718183610c13565b38615b50565b611d3483612ee060405190565b615c8391945060203d602011612f2b57612f1a8183610c13565b9238615a72565b615ca391925060209061361e61218061218060fd61174a565b82528180615cb4896004830161070e565b03915afa918215612f325786918993615ce2575b5061065f615cd992611eda92611eee565b141538806159d3565b611eda919350615cd992615d0761065f9260203d602011613a1357613a018183610c13565b9492509250615cc8565b611eda9193506159c992615d3661065f9260203d602011613a1357613a018183610c13565b94925092506159b8565b615d5a91925060203d602011613a1357613a018183610c13565b9038615947565b615d7a915060203d602011613a1357613a018183610c13565b386158fb565b613ad0611d7c611d349261208860fd61174a565b50615da5611d7c61585960fd61174a565b615db261352c600261321a565b141561589d565b613ad0611d7c611d349261208860fc61174a565b50615dde611d7c61585960fc61174a565b615deb61352c600261321a565b1415615874565b611d34866122de60405190565b83611d346121b160405190565b50615e1683610b83565b8114615820565b9061056e9493929161577c565b611dd190615e36617519565b615e43611d0760fc61174a565b615e4c826106e1565b141580615ef1575b6157445761010890615e6d61290382610ac93386610a19565b91615e786000610b83565b8314615ee257615e9b906129b283610ac9615e936000610b83565b933390610a19565b615ea8826129c883610a10565b7f7643db038b35f94894e86d0571d9683cab130be8788071149652ff88a0dafb1c61219e615ed861561b33610a10565b936106cb60405190565b600083611d346139c560405190565b50615eff611d0760fd61174a565b615f08826106e1565b1415615e54565b61056e90615e2a565b615f26611d0761011461174a565b615f2f336106e1565b03611d235761056e90615f45611d07600061240d565b615f4e826106e1565b14613c215780612180615f6392610114613bb5565b7f9d3e522e1e47a2f6009739342b9cc7b252a1888154e843ab55ee1c81745795ab61318e60405190565b61056e90615f18565b615fa4611d0761011461174a565b615fad336106e1565b03611d235761056e90615fc06000610b83565b8114613dbd57613db8816106c77f4671be32631b99aac8fa189c024957f38f6e98e5e28b9307934ed8a488523dc693610116611f05565b61056e90615f96565b61056e9061600c61850c565b611dd190616018617519565b616086565b926160566132e59161604861065f99979894616061966132bf60c08a019260008b019061ffff169052565b908682036040880152612abc565b956060850190610705565b60a0818403910152612abc565b61ffff909116815260408101929161056e9160200152565b61011b9061609761065f8284610d3b565b906160a182610d51565b6000906160b06149b68361276b565b146162f95760038301936160c385610e51565b6160d1611eda61065f610b90565b10156162d257818401946160e486610d51565b600186019061610360028801916160fa84611dee565b611b4784611dee565b5091823410615c5c576161879061611f61274f6138dd87610e51565b61612c4260048b01611f05565b8961613e61218061218061010b61174a565b63c58031009461619361616661615385610d51565b9461616061010d91610d51565b906110c0565b61616f30610a10565b9061617960405190565b978892602084019283612bd8565b90810382520386610c13565b61619c33610a10565b956161a68b61240d565b90833b1561055c576161db6161d0938a938a8f996161c360405190565b9b8c9a8b998a9860e01b90565b88526004880161601d565b03925af190816162b6575b5061622c575050505050616216600161620e600080516020618fff8339815191529495610d51565b940191610b83565b9261263b61622360405190565b92839283612b21565b614aa39594965061627561056e988361627b936162677f4f4b6c0817f0e0a67292b790d7acf108e8dab0b904bd991dcd7a2fe795966ca29690565b34116162a2575b5050610d51565b92610e51565b61628485610b83565b9261629a61629160405190565b9283928361606e565b0390a2610d3b565b612ecd6162af9234612c66565b388061626e565b6162cc90873d891161397f576139718183610c13565b386161e6565b611d34836162df60405190565b639511ab7760e01b81529182916004830190815260200190565b611d3482614af160405190565b61056e90616000565b61631d611d0761011461174a565b616326336106e1565b03611d235761056e9061635c565b61065f91612b4b565b3d156163575761634c3d6130b4565b903d6000602084013e565b606090565b61636b61065f8261011d610d3b565b6163748161174a565b616384613088611d07600061240d565b1461649057600381016163968161175d565b616469576163b461065f6163ac60028501610e51565b613eb961139b565b4210616442576000916163c960018493611e75565b6163ee8260016163da82850161174a565b93016163e560405190565b92839182616334565b03925af16164026163fd61633d565b911590565b61643a575061641090610b83565b7f60bc57ad9ccc47a7b523b7c981288595451ba6a606d24e6dab57baae45e3205f61318e60405190565b805190602001fd5b611d348361644f60405190565b630d18469760e21b81529182916004830190815260200190565b611d348361647660405190565b632776407360e11b81529182916004830190815260200190565b611d348261649d60405190565b63428d06a960e01b81529182916004830190815260200190565b61056e9061630f565b906164cf611d0761011461174a565b6164d8336106e1565b03611d235761056e916164eb600161321a565b60ff831614158061654a575b61653d5761263b61653382612180856144ac7f715b06b22953b3a8b60e841c991956b92745c835ac7790c2b8507d9272c3e9a296610110610a19565b92610a8060405190565b611d3482613ad460405190565b50616555600261321a565b60ff831614156164f7565b9061056e916164c0565b616572617519565b611dd161658361233f61010961175d565b611d23576101076165976129033383610a19565b906000906165a482610b83565b831461668c576165b5610106610e51565b6165c1611eda84610b83565b14612a0557906166617f56da9a5ae0bcf6e7c3fdd78a10550e7d0458de1c39bfb7f6e96a3e92dd344a689261665460fe9561664761214a8689019261663c6001616610614eae61522f88610e51565b9b01966129b261663461662e614eae6166288c610e51565b87611ea6565b9b610b83565b913390610a19565b614ef0610106610e51565b61213987614ef083610e51565b61213983614ef083610e51565b616672836129c861218060fc61174a565b616683816129c861218060fd61174a565b61298b33610a10565b5090611d346139c560405190565b61056e61656a565b9061056e92916166b061850c565b90611dd192916166be617519565b9161010d916166d0611f5085856110c0565b926000936166e0611eda86610b83565b14612f37579061672d929160206166fe61218061218061010b61174a565b61670888846110c0565b9061671260405190565b96879283918291630fdc07c760e41b83528c60048401612b21565b03915afa938415612f3257859461688f575b5061678a8661674d30610a10565b9261678561675c610100610e51565b97616768610101610e51565b612d7161677460405190565b9a8b93602085019342928b866157c3565b6110c0565b906167a861679760405190565b8093615b0284602084019283612bd8565b6167bc6167b58585611de3565b8689616d7d565b50908181311061686c57506167d861218061218061010b61174a565b9063c5803100916167e833610a10565b916167f28961240d565b90823b1561055c5789946168118989613808958f988e6137fb60405190565b03925af19081616850575b5061684957613879613872600080516020618fff833981519152956138ae615b9a615ba196615b8561332b565b5050505050565b61686690863d881161397f576139718183610c13565b3861681c565b31611d3461687960405190565b63a458261b60e01b815292839260048401611411565b6168a991945060203d602011612f2b57612f1a8183610c13565b923861673f565b9061056e92916166a2565b94939291906168ce611d0761010b61174a565b6168d7336106e1565b03611d235761056e9594939291906168f061010961175d565b611d555761056e949392919061690b611d7c8861010a6110c0565b611d8f5761056e959690611dd19594939291616925617519565b616989565b60e08183031261055c5761693e82826109ba565b9261694c83602084016109ba565b9261695a8160408501610813565b926169688260608301610813565b9261065f6169798460808501610813565b9360c06108658260a087016105ae565b93919594929561010d916169a0611f5087856110c0565b6169ad611eda6000610b83565b14615df257611f9f611f9a87611f816169c995611eda95611de3565b036122b65761010e916169e3611d7c876119e287876110c0565b61229257916169fd82616a0d94616a13979894019061692a565b929694959a91939a989098610a10565b94610a10565b966001600160401b0387166001600160401b03821603616c58575080421061224a5750616a43611d0760fc61174a565b616a4c876106e1565b141580616c3a575b616c2d57808410616c20575061011090616a71611d7c8784610a19565b616a7e61352c600161321a565b141580616bfe575b616bee5790616aa16001612036876119e28b616ad4976110c0565b616aae611d0760fc61174a565b616ab7876106e1565b03616bdd5783612066611d7c616acd60fd61174a565b8094610a19565b616ae1611d0760fc61174a565b616aea856106e1565b03616b7f57600360fe616b066101006121398a61213483610e51565b01616b1361065f82610e51565b8311616b6857616b4e615c1c616b48859461217885612139600080516020618fdf8339815191529a99614ef0616b6399610e51565b96610a10565b96616b5860405190565b9384934292856132fc565b0390a4565b616b729150610e51565b90611d34613a4f60405190565b600260fe616b966101016121398a61213483610e51565b01616ba361065f82610e51565b8311616b6857616b4e615c1c616b488594616bd885612139600080516020618fdf8339815191529a99614ef0616b6399610e51565b612178565b83612066611d7c616acd60fc61174a565b611d34613ad0611d7c8885610a19565b50616c0c611d7c8784610a19565b616c1961352c600261321a565b1415616a86565b83611d34613a7360405190565b611d3486613b3d60405190565b50616c48611d0760fd61174a565b616c51876106e1565b1415616a54565b8690611d3461227c60405190565b9061056e95949392916168bb565b61056e90616c8061850c565b616ce0565b15616c8c57565b60405162461bcd60e51b815260206004820152602660248201527f4f776e61626c653a206e6577206f776e657220697320746865207a65726f206160448201526564647265737360d01b6064820152608490fd5b61056e90614b2d616cf4611d07600061240d565b616cfd836106e1565b1415616c85565b61056e90616c74565b919060408382031261055c5761065f9060206147758286613227565b91616d709161065f9694616d59616d6693616d4f60a0880194600089019061ffff169052565b6020870190610705565b8482036040860152610ec6565b9315156060830152565b6080818403910152610ec6565b9060409160009493616d8d600090565b50616d9781617a3a565b616da861218061218061010b61174a565b91616dd9616db530610a10565b92616dbf60405190565b9889968795869563040a7bb160e41b875260048701616d29565b03915afa918215612f3257600090600093616df357509190565b905061061f91925060403d604011616e18575b616e108183610c13565b810190616d0d565b503d616e06565b90616e2e611d0761011461174a565b616e37336106e1565b03611d235761056e91616eb6565b90610c6981602093610705565b90616e72616e6b616e61845190565b8084529260200190565b9260200190565b9060005b818110616e835750505090565b909192616e9d616e966001928651616e45565b9460200190565b929101616e76565b602080825261065f92910190616e52565b9190616ec2600061240d565b91616ecc836106e1565b616ed5856106e1565b14616f1c57616ee46000610b83565b616eef61065f845190565b811015616f2957616f036143088285614107565b616f0f613088866106e1565b14616f1c57600101616ee4565b611d348461265160405190565b50927fd7fca014dd163c94969dc6642aabbf5fd072ccb3abadc03db45fa1c261306642919250616f6e61263b91616f6281610112613bb5565b61218085610113614229565b92616f7860405190565b91829182616ea5565b9061056e91616e1f565b9061056e9291616f9961850c565b9190616fa661010961175d565b611d555761056e9190616fbe611d7c8561010a6110c0565b6131d85761056e929390611dd19291616fd5617519565b61010d9392616fe7611f5083876110c0565b90600091616ff7611eda84610b83565b14613b145760fe8281019661701a61700e89610e51565b613eb960028501610e51565b916001810161703761702b82610e51565b613eb960038501610e51565b61704087610b83565b851480156174a7575b61749a57670de0b6b3a76400009161706c82617067614ecd86610b83565b611ed4565b61707a61065f610111610e51565b811461748b578c929190617095611eda61065f610111610e51565b111561744c57509461545d6170da6121ed9361545d6170d46170e098999a6170ce6170c2614ecd8b610b83565b9161545d610111610e51565b90612c66565b91610e51565b93610b83565b916170ea85610b83565b915b6170f586610b83565b841115617372575061011098617117611d7c61711160fc61174a565b8c610a19565b61712461352c600161321a565b14158061734d575b6173395761718790614f076171c998999a9b61715a8761714f61218060fc61174a565b61377561010c61174a565b8a61716560fc61174a565b9188617181611d7c61717630610a10565b9361208860fc61174a565b93618323565b602061719a61218061218061010b61174a565b6171a489846110c0565b906171ae60405190565b98899283918291630fdc07c760e41b83528d60048401612b21565b03915afa8015612f325787615aa0978792617316575b5061721891926167856171f4612d8984617a61565b6171fd30610a10565b9561720760405190565b9b8c9260208401928a8c8b866157c3565b9061722561679760405190565b617239617232868b611de3565b888a616d7d565b50908181311061686c575061725561218061218061010b61174a565b9063c58031009161726533610a10565b61726e8961240d565b92823b1561055c57899461728e8a8f8f978f96613808976137fb60405190565b03925af190816172fa575b506172ca57505093613879613872615ba1936138ae615b9a600080516020618fff8339815191529899615b8561332b565b93509450505061298b7fdc4532e76aff42eab2b4691d7c34a5baca6deaf244fad3b12bbbea9f8edea916926110af565b61731090863d881161397f576139718183610c13565b38617299565b61721892506173339060203d602011612f2b57612f1a8183610c13565b916171df565b611d34613ad0611d7c8c61208860fc61174a565b5061735e611d7c61711160fc61174a565b61736b61352c600261321a565b141561712c565b985061737d85610b83565b8211617391575b6171c99596979850617187565b610110986173a5611d7c61711160fd61174a565b6173b261352c600161321a565b141580617427575b617413576001617409916173fb6171c9999a9b9c6173df8761714f61218060fd61174a565b8b6173ea60fd61174a565b9188617181611d7c61207d30610a10565b0161213984614ef083610e51565b8897969550617384565b611d34613ad0611d7c8c61208860fd61174a565b50617438611d7c61711160fd61174a565b61744561352c600261321a565b14156173ba565b6121ed925061545d6170d46170c293956170ce61747b989a61545d6170da617475610111610e51565b8b611ea6565b9061748585610b83565b926170ec565b50505050505050505050509050565b5050505050505050509050565b506174b187610b83565b8114617049565b9061056e9291616f8b565b61065f6002610b83565b156174d457565b60405162461bcd60e51b815260206004820152601f60248201527f5265656e7472616e637947756172643a207265656e7472616e742063616c6c006044820152606490fd5b61056e61752660c9610e51565b61753a6175316174c3565b918214156174cd565b60c9611f05565b61065f6001610b83565b61056e61753a617541565b60409061757661056e9496959396611f3360608401986000850190610705565b0190610705565b91909161758c61218082610a10565b906370a082319161759c30610a10565b906175a660405190565b946175b18560e01b90565b8652602086806175c4866004830161070e565b0381855afa958615612f325760009661775f575b506175e3600161321a565b60ff8216036176c957506175fe61218061218061010c61174a565b803b1561055c578260009188836176339761761860405190565b98899586948593630d4d151360e01b5b855260048501617556565b03925af18015612f32576176569460209461528c926176b3575b5060405161527f565b03915afa918215612f32578391600093617684575b5061065f61767c92611eda92611eee565b10613dbd5750565b611eda91935061767c926176a961065f9260203d602011613a1357613a018183610c13565b949250925061766b565b6176c39060006139718183610c13565b3861764d565b6176d3600261321a565b60ff82160361775257506176ee61218061218061010c61174a565b803b1561055c5782600091888361771c9761770860405190565b988995869485936315f4150160e01b617628565b03925af18015612f32576176569460209461528c9261773c575b5061558b565b61774c9060006139718183610c13565b38617736565b611d3490613ad460405190565b61777991965060203d602011613a1357613a018183610c13565b94386175d8565b61065f9060005b5061783a565b61065f916177a96177a36120d393617787600090565b9161783a565b9061864d565b61065f600019610b83565b61065f670de0b6b3a7640000610b83565b60208101929161056e91906128bb565b6177e48161783a565b6177ec6177af565b9161780261065f6177fb6177ba565b8095611ed4565b8211617817575061065f916120d3910261872e565b611d349061782460405190565b63edc236ad60e01b8152918291600483016177cb565b61065f90610b83565b60fe61786661785461700e83610e51565b91613eb96003613ed160018401610e51565b6178706000610b83565b82146179ad5761789361056e92617067670de0b6b3a76400009361545d85610b83565b9061789f610118610e51565b6178ac611eda6000610b83565b036178bb575b50610118611f05565b61795761795f916178d061065f610118610e51565b84111561798d576121ed6120d861790b6179006178f76178f1610118610e51565b89612c66565b61545d86610b83565b6121ed610118610e51565b613eb961794c61794261793b671bc16d674ec800006170676120d8617931610116610e51565b613eb96001610b83565b9384611ea6565b92614ef087610b83565b61545d610115610e51565b610115611f05565b61798761796d610115610e51565b61797e611eda61065f610117610e51565b10610119611e75565b386178b2565b6121ed6120d861790b6179006179a888614ef0610118610e51565b6178f7565b5050565b6179ca6179c461065f9263ffffffff1690565b60e01b90565b6001600160e01b03191690565b91602061056e92949361077260408201966000830190610705565b617a35600492617a2661056e95617a0c63a9059cbb6179b1565b92617a1660405190565b96879460208601908152016179d7565b60208201810382520383610c13565b618a24565b51617a48611eda6002610b83565b10617a4f57565b60405163cef80ea360e01b8152600490fd5b612903617a7991617a70600090565b5061010f6110c0565b80617a846000610b83565b8114617ae257617a95610115610e51565b617aa6611eda61065f610117610e51565b11617aaf575090565b9050617abe613eee6002610b83565b90617ac7611510565b91821015617ad3575090565b61065f915061545d6002610b83565b6040516381872b2960e01b815280611d346000600483016177cb565b936132ef936132da91617b396132e59461065f9c9a969b999b617b2c60c08b019260008c019061ffff169052565b89820360208b0152610ec6565b9187830360408901526125a6565b9397909498919550959195600014617c985790617b7691617b6a86860186611e21565b94929591969093610a10565b926001600160401b038d166001600160401b03821603617c8a5750617b9f61065f612d89611bdc565b8410617c7d57617bb661218061218061010b61174a565b9063c580310091617bc633610a10565b91617bd1600061240d565b90823b1561055c576000948f8f908f918f958f98617c0e94617c0398617bf660405190565b9d8e9c8d9b8c9a60e01b90565b8a5260048a01617afe565b03925af19081617c67575b50617c2c575050505061056e9550618a9f565b61219e9498507fab3dd6f8805da3a89e0a4c04ca885fac2d81d4cf9c996f7759480cec2ab77ff79750615c1c91939650615c22929550610a10565b617c779060006139718183610c13565b38617c19565b611d34846144e560405190565b8c90611d3461227c60405190565b617cbd617cc3617cad87879b959b018761692a565b959098949f939692979150610a10565b9d610a10565b956001600160401b0388166001600160401b03821603617db25750617cec61065f612d89611bdc565b8310617da557617d0361218061218061010b61174a565b9063c580310091617d1333610a10565b91617d1e600061240d565b90823b1561055c578f948f8f968f918f9795617c039660009a617d4495617bf660405190565b03925af19081617d8f575b50617d6357505050505061056e9550618a9f565b9297509397509350600080516020618fdf833981519152945061393361392d613927616b63949a610a10565b617d9f9060006139718183610c13565b38617d4f565b611d34836144e560405190565b8790611d3461227c60405190565b15617dc757565b60405162461bcd60e51b815260206004820152601d60248201527f416464726573733a20696e73756666696369656e742062616c616e63650000006044820152606490fd5b15617e1357565b60405162461bcd60e51b815260206004820152603a60248201527f416464726573733a20756e61626c6520746f2073656e642076616c75652c207260448201527f6563697069656e74206d617920686176652072657665727465640000000000006064820152608490fd5b600061056e92617e9f8293612180617e9530610a10565b8490311015617dc0565b90617ea960405190565b90818003925af1617eb861633d565b50617e0c565b61065f6000617ece61065f613d1b565b0161174a565b5061056e61850c565b61056e90617ed4565b61065f7f4910fdfa16fed3260ed0e7147f7cc6da11a60208b5b9406d12a635614ffd9143610b83565b15617f1657565b60405162461bcd60e51b815260206004820152602960248201527f45524331393637557067726164653a20756e737570706f727465642070726f786044820152681a58589b195555525160ba1b6064820152608490fd5b9190617f856000617f7f61065f617ee6565b0161175d565b15617f9557505061056e90618b9b565b617fa161218084610a10565b926020617fad60405190565b6352d1902d60e01b815294859060049082905afa6000948161804b575b5061802b5760405162461bcd60e51b815260206004820152602e60248201527f45524331393637557067726164653a206e657720696d706c656d656e7461746960448201526d6f6e206973206e6f74205555505360901b6064820152608490fd5b61804661056e94618040611eda61065f613d1b565b14617f0f565b618afd565b61806591955060203d602011613a1357613a018183610c13565b9338617fca565b906180769061856f565b9161065f6180936127106121ed6120d861662888614ef085610b83565b936121ed6120d86154856180aa6154528589611ea6565b936180bd6305f5e100956121ed87610b83565b97611ea6565b60ff16604d8111611eb957600a0a90565b916180e86180e361011261174a565b618c4f565b9290806000916180fa611eda84610b83565b13156181df575b90618133618113618170959493610b83565b956121ed61812d670de0b6b3a76400009861545d8a610b83565b916180c3565b95618144613088611d0760fc61174a565b141590506181c9579061706761815d9261545d86610b83565b915b6121ed6120d86121db61011a610e51565b61817d61065f8285611eee565b82119081156181b2575b50618190575050565b611d3461819c60405190565b63af608abb60e01b815292839260048401611411565b6181c1915061065f9084612c66565b811038618187565b6170676181d99261545d86610b83565b9161815f565b9492909195936181ee83610b83565b955b610113916181ff61065f845490565b88101561827f5750506180e3611a898761821893611a48565b909586618227611eda86610b83565b1361823557600101956181f0565b509293949590915b61824681610b83565b87131561825857909192939495618101565b611d348761826560405190565b639db55b2760e01b81529182916004830190815260200190565b94959650969192905061823d565b60409061077261056e94969593966182ad60608401986000850190610705565b6020830190610705565b90617a3590617a2661056e956004956182d36323b872dd6179b1565b936182dd60405190565b978895602087019081520161828d565b61831961056e9461830f606094989795610764608086019a6000870190610705565b6040830190610705565b019061ffff169052565b929361832f600161321a565b60ff82160361839f575061834a61218061218061010c61174a565b90813b1561055c576000809461837d61836260405190565b978896879586946369f6a59360e11b5b8652600486016182ed565b03925af18015612f325761838f575b50565b61056e9060006139718183610c13565b6183a9600261321a565b60ff82160361775257506183c461218061218061010c61174a565b90813b1561055c576000809461837d6183dc60405190565b9788968795869463e73e606960e01b618372565b3b6183fe611eda6000610b83565b1190565b1561840957565b60405162461bcd60e51b815260206004820152602b60248201527f496e697469616c697a61626c653a20636f6e7472616374206973206e6f74206960448201526a6e697469616c697a696e6760a81b6064820152608490fd5b61847461846f6000613f39565b618402565b61056e61056e618d94565b61056e618462565b61056e61846f6000613f39565b61056e618487565b6184a961846f6000613f39565b61056e61056e618da9565b61056e61849c565b156184c357565b60405162461bcd60e51b815280611d34600482016020808252818101527f4f776e61626c653a2063616c6c6572206973206e6f7420746865206f776e6572604082015260600190565b61056e618517614db0565b618523613088336106e1565b146184bc565b618544614a69618539603361174a565b612180846033613bb5565b907f8be0079c531659141344cd1fd0a4f28419497f9722a3daafe3b4186f6b6457e061239260405190565b61857f613e1c61010292836110c0565b90618588825190565b618595611eda6000610b83565b14618637575b506185a7610115610e51565b6185b8611eda61065f610117610e51565b106186335780613eb96185df60006185d4602061065f96015190565b9301926170ce845190565b916121ed6120d86185f1610115610e51565b92670de0b6b3a764000093618608611eda86610b83565b11156186255761861f61861a85610b83565b915190565b95611ea6565b61861f61861a610115610e51565b5190565b61864791506001613e1c91614233565b3861859b565b6000906000198382099280820293848082109103039161866b6177ba565b93848410156186d95750670de0b6b3a76400009190099161868c6000610b83565b82146186cd57506204000082840304929091119003600160ee1b02177faccb18165bd6fe31ae1cf318dc5b51eee0e1ba569b88cd74c1773b91fac106690290565b91505061065f91611ed4565b50611d346186e660405190565b635173648d60e01b815292839260048401611411565b61065f90618710611eda61065f9460ff1690565b901c90565b61065f90618729611eda61065f9460ff1690565b901b90565b906187396000610b83565b8214618955576188486188288061882d808261881e818061883e83828d610c69618837600161880e6188088561876e84610b83565b908161877d600160801b610b83565b89101561892a575b50618793600160401b610b83565b811015618908575b6187a9640100000000610b83565b8110156188e6575b6187bd62010000610b83565b8110156188c4575b6187d0610100610b83565b8110156188a2575b6187e26010610b83565b81101561887a575b6187f7611eda6004610b83565b1015618862575b610c698188611ed4565b9161321a565b9e8f9c8d809b81998280966186fc565b610c69818a611ed4565b6186fc565b610c698187611ed4565b8092611ed4565b610c69818d611ed4565b618853818094611ed4565b9081111561885e5750565b9150565b6188759061886f8561321a565b90618715565b6187fe565b61889161889c9161888b600461321a565b906186fc565b9161886f600261321a565b906187ea565b6188b36188be9161888b600861321a565b9161886f600461321a565b906187d8565b6188d56188e09161888b601061321a565b9161886f600861321a565b906187c5565b6188f76189029161888b602061321a565b9161886f601061321a565b906187b1565b6189196189249161888b604061321a565b9161886f602061321a565b9061879b565b91505061894e61894361893d608061321a565b896186fc565b9161886f604061321a565b9038618785565b905061065f6000610b83565b61896b60206130b4565b7f5361666545524332303a206c6f772d6c6576656c2063616c6c206661696c6564602082015290565b61065f618961565b801515610555565b9050519061056e8261899c565b9060208282031261055c5761065f916189a4565b156189cc57565b60405162461bcd60e51b815260206004820152602a60248201527f5361666545524332303a204552433230206f7065726174696f6e20646964206e6044820152691bdd081cdd58d8d9595960b21b6064820152608490fd5b61056e91618a34618a4392610a10565b90618a3d618994565b91618db1565b8051618a52611eda6000610b83565b14908115618a61575b506189c5565b618a7b91506020618a70825190565b8183010191016189b1565b38618a5b565b61ffff91909116815260406020820181905261065f939101916125a6565b909193600080516020618fff8339815191529361386561076b618ad993618ac461332b565b61ffff87168152936138606157ea8b8a611de3565b615bbc618aea6138ae61011c610e51565b94618af460405190565b93849384618a81565b91618b0783618dc6565b8151618b16611eda6000610b83565b11908115618b31575b50618b28575050565b61838c91618e48565b905038618b1f565b15618b4057565b60405162461bcd60e51b815260206004820152602d60248201527f455243313936373a206e657720696d706c656d656e746174696f6e206973206e60448201526c1bdd08184818dbdb9d1c9858dd609a1b6064820152608490fd5b61056e90618bb0618bab826183f0565b618b39565b6000618bbd61065f613d1b565b01613bb5565b69ffffffffffffffffffff8116610555565b9050519061056e82618bc3565b919060a08382031261055c57618bf88184618bd5565b92618c068260208301613227565b9261065f618c178460408501613227565b936080618c278260608701613227565b9401618bd5565b9050519061056e8261187f565b9060208282031261055c5761065f91618c2e565b612180618c6491618c5e600090565b50610a10565b90618c6e60405190565b633fabe5a360e21b815260a081600481865afa9060009160009181618d46575b50618ca6576040515b630ae360c360e11b8152600490fd5b618cb06000610b83565b821315618d3957618cd1611eda61065f618ccb610e10610b83565b42612c66565b10618d3157916020618ce260405190565b63313ce56760e01b815291829060049082905afa908115612f3257600091618d08575090565b61065f915060203d602011618d2a575b618d228183610c13565b810190618c3b565b503d618d18565b604051618c97565b611d348261826560405190565b909250618d6b915060a03d60a011618d76575b618d638183610c13565b810190618be2565b509250929092618c8e565b503d618d59565b618d8a61846f6000613f39565b61056e8033618529565b61056e618d7d565b611dd161846f6000613f39565b61056e618d9c565b61065f9291618dc06000610b83565b91618eb5565b618dd39061218081618b9b565b7fbc7cd75a20ee27fd9adebab32041f755214dbc6bffa90cc0225b39da2e5c2d3b61318e60405190565b618e0760276130b4565b7f416464726573733a206c6f772d6c6576656c2064656c65676174652063616c6c6020820152660819985a5b195960ca1b604082015290565b61065f618dfd565b61065f91618e54618e40565b91618ef6565b15618e6157565b60405162461bcd60e51b815260206004820152602660248201527f416464726573733a20696e73756666696369656e742062616c616e636520666f6044820152651c8818d85b1b60d21b6064820152608490fd5b906000809161065f9594618ec7606090565b50618ede618ed430610a10565b8290311015618e5a565b60208251920190855af1618ef061633d565b91618f64565b60008061065f9493618f06606090565b50602081519101845af4618ef061633d565b15618f1f57565b60405162461bcd60e51b815260206004820152601d60248201527f416464726573733a2063616c6c20746f206e6f6e2d636f6e74726163740000006044820152606490fd5b91929015618f9657508151618f7c611eda6000610b83565b14618f85575090565b618f9161065f916183f0565b618f18565b8290618fa0825190565b618fad611eda6000610b83565b1115618fbc5750805190602001fd5b611d3490618fc960405190565b62461bcd60e51b81529182916004830161110c56fe32a8653225596c34a0a926a8a7938a4bdecb2d1dec0106aa2d0e932fb8271a3216da215dcc6c8463004c9668563aec97f0c7d9f75d03e03ee647d599f74fea1ba2646970667358221220930a5464086bcbc3659519fe4e6f9d9582d486ad5cf6a4bd54e7455bab4f962c64736f6c634300081800338395961707989265db11b1709d47ed2c573906ea4768c36a0dd5fc9054015c0c16da215dcc6c8463004c9668563aec97f0c7d9f75d03e03ee647d599f74fea1ba26469706673582212206c79d06269653260eb93cf24f0e4680dc31416b85478c4a99c9dbe162515924864736f6c63430008180033",
  "immutableReferences": {
    "1339": [
      {
        "length": 32,
        "start": 12704
      },
      {
        "length": 32,
        "start": 16970
      }
    ]
  },
  "source": "// SPDX-License-Identifier: MIT\r\npragma solidity ^0.8.24;\r\n\r\nimport \"./AMMPool.sol\";\r\nimport \"@openzeppelin/contracts-upgradeable/utils/AddressUpgradeable.sol\";\r\nimport \"@openzeppelin/contracts/utils/Address.sol\";\r\nimport \"@openzeppelin/contracts-upgradeable/access/OwnableUpgradeable.sol\";\r\nimport \"@openzeppelin/contracts-upgradeable/proxy/utils/Initializable.sol\";\r\nimport \"@openzeppelin/contracts-upgradeable/proxy/utils/UUPSUpgradeable.sol\";\r\nimport \"@openzeppelin/contracts-upgradeable/security/ReentrancyGuardUpgradeable.sol\";\r\nimport \"@openzeppelin/contracts-upgradeable/token/ERC20/IERC20Upgradeable.sol\";\r\nimport \"@openzeppelin/contracts-upgradeable/token/ERC20/extensions/IERC20MetadataUpgradeable.sol\";\r\n\r\n// Chainlink Oracle interface for price validation\r\ninterface IChainlinkOracle {\r\n    function latestRoundData() external view returns (\r\n        uint80 roundId,\r\n        int256 answer,\r\n        uint256 startedAt,\r\n        uint256 updatedAt,\r\n        uint80 answeredInRound\r\n    );\r\n    function decimals() external view returns (uint8);\r\n    function getPair() external view returns (address tokenA, address tokenB);\r\n}\r\n\r\n// LayerZero endpoint interface for cross-chain compatibility\r\ninterface ICustomLayerZeroEndpoint {\r\n    function estimateFees(\r\n        uint16 dstChainId,\r\n        address userApplication,\r\n        bytes calldata payload,\r\n        bool payInZRO,\r\n        bytes calldata adapterParams\r\n    ) external view returns (uint256 nativeFee, uint256 zroFee);\r\n    function send(\r\n        uint16 dstChainId,\r\n        bytes calldata remoteAndLocalAddresses,\r\n        bytes calldata payload,\r\n        address payable refundAddress,\r\n        address zeroPaymentAddress,\r\n        bytes calldata adapterParams\r\n    ) external payable returns (bool success);\r\n}\r\n\r\n/// @title PoolFactory - An upgradeable factory for deploying AMM pools with CREATE2\r\n/// @notice Creates and manages AMM pools with deterministic addresses, cross-chain support, and enhanced governance\r\n/// @dev Uses UUPS upgradeability, ReentrancyGuard, and Chainlink oracles for secure pool deployment\r\ncontract PoolFactory is Initializable, OwnableUpgradeable, UUPSUpgradeable, ReentrancyGuardUpgradeable {\r\n    using AddressUpgradeable for address;\r\n\r\n    /// @notice Mapping to store pool addresses for token pairs (token0 => token1 => pool)\r\n    mapping(address => mapping(address => address)) public getPool;\r\n\r\n    /// @notice Tracks all created pools\r\n    address[] public allPools;\r\n\r\n    /// @notice Global pause status\r\n    bool public paused;\r\n\r\n    /// @notice Chain-specific pause status\r\n    mapping(uint16 => bool) public chainPaused;\r\n\r\n    /// @notice LayerZero endpoint address for cross-chain operations\r\n    address public layerZeroEndpoint;\r\n\r\n    /// @notice Treasury address for fee collection\r\n    address public treasury;\r\n\r\n    /// @notice Default timelock duration for cross-chain operations (in seconds)\r\n    uint256 public defaultTimelock;\r\n\r\n    /// @notice Default target reserve ratio (in 1e18 precision)\r\n    uint256 public defaultTargetReserveRatio;\r\n\r\n    /// @notice Trusted remote factory addresses by chain ID\r\n    mapping(uint16 => bytes) public trustedRemoteFactories;\r\n\r\n    /// @notice Nonces for cross-chain sync to prevent replays\r\n    mapping(uint16 => mapping(uint64 => bool)) public usedNonces;\r\n\r\n    /// @notice Failed cross-chain messages for retry\r\n    struct FailedMessage {\r\n        uint16 dstChainId;\r\n        bytes payload;\r\n        bytes adapterParams;\r\n        uint256 retries;\r\n        uint256 timestamp;\r\n        uint256 nextRetryTimestamp;\r\n    }\r\n    mapping(uint256 => FailedMessage) public failedMessages;\r\n    uint256 public failedMessageCount;\r\n\r\n    /// @notice Governance proposals\r\n    struct GovernanceProposal {\r\n        address target;\r\n        bytes data;\r\n        address proposer;\r\n        uint256 proposedAt;\r\n        bool executed;\r\n        uint256 votesFor;\r\n        uint256 votesAgainst;\r\n        bool votingClosed;\r\n        bool cancelled;\r\n        uint256 snapshotSupply;\r\n        uint256 impactLevel; // 1=low, 2=medium, 3=high\r\n    }\r\n    mapping(uint256 => GovernanceProposal) public governanceProposals;\r\n    mapping(uint256 => GovernanceProposal) public executedProposals;\r\n    uint256 public proposalCount;\r\n\r\n    /// @notice Tracks votes for proposals\r\n    mapping(uint256 => mapping(address => bool)) public hasVoted;\r\n\r\n    /// @notice Tracks last proposal submission time per address\r\n    mapping(address => uint256) public lastProposalTime;\r\n\r\n    /// @notice Proposal submission cooldown period (in seconds)\r\n    uint256 public proposalCooldown;\r\n\r\n    /// @notice Proposal submission fee (in native tokens)\r\n    uint256 public proposalFee;\r\n\r\n    /// @notice Delegated voting power with expiration\r\n    struct Delegation {\r\n        address delegate;\r\n        uint256 expiry;\r\n    }\r\n    mapping(address => Delegation) public voteDelegate;\r\n\r\n    /// @notice Governance token for voting power\r\n    address public governanceToken;\r\n\r\n    /// @notice Total supply of governance token for percentage-based quorum\r\n    uint256 public governanceTokenTotalSupply;\r\n\r\n    /// @notice Voting period for proposals (in seconds)\r\n    uint256 public votingPeriod;\r\n\r\n    /// @notice Minimum voting power required to propose\r\n    uint256 public minimumProposalPower;\r\n\r\n    /// @notice Quorum threshold as a percentage of total supply (in 1e18 precision)\r\n    uint256 public quorumThreshold;\r\n\r\n    /// @notice Available LayerZero oracles/relayers\r\n    mapping(uint16 => address[]) public chainOracles;\r\n    mapping(uint16 => address[]) public chainRelayers;\r\n\r\n    /// @notice Selected oracle/relayer per chain\r\n    mapping(uint16 => address) public selectedOracle;\r\n    mapping(uint16 => address) public selectedRelayer;\r\n\r\n    /// @notice Chain-specific timelocks for reorg protection\r\n    mapping(uint16 => uint256) public timelocks;\r\n\r\n    /// @notice Governance timelock delay\r\n    uint256 public governanceTimelock;\r\n\r\n    /// @notice Configurable constants\r\n    uint32 public minTimelock;\r\n    uint32 public maxTimelock;\r\n    uint32 public maxRetries;\r\n    uint32 public maxBatchSize;\r\n    uint32 public minGasLimit;\r\n    uint32 public maxOracleStaleness;\r\n\r\n    /// @notice Whitelist of allowed governance target addresses\r\n    mapping(address => bool) public governanceTargetWhitelist;\r\n\r\n    /// @notice Multi-signature committee for critical actions\r\n    mapping(address => bool) public committeeMembers;\r\n    uint256 public committeeMemberCount;\r\n    uint256 public constant MIN_COMMITTEE_APPROVALS = 3;\r\n\r\n    /// @notice Pending upgrades for multi-step approval\r\n    struct PendingUpgrade {\r\n        address newImplementation;\r\n        uint256 proposedAt;\r\n        uint256 approvals;\r\n        mapping(address => bool) approvedBy;\r\n    }\r\n    mapping(uint256 => PendingUpgrade) public pendingUpgrades;\r\n    uint256 public upgradeProposalCount;\r\n\r\n    /// @notice Fallback oracles per chain\r\n    mapping(uint16 => address[]) public fallbackOracles;\r\n\r\n    /// @notice Oracle override flag for emergency use\r\n    bool public oracleOverride;\r\n\r\n    /// @notice Circuit breaker for cross-chain operations\r\n    bool public crossChainCircuitBreaker;\r\n\r\n    /// @notice Local chain ID for cross-chain operations\r\n    uint16 public localChainId;\r\n\r\n    struct EmergencyFlagProposal {\r\n        bool oracleOverride;\r\n        bool circuitBreaker;\r\n        uint256 proposedAt;\r\n    }\r\n    mapping(uint256 => EmergencyFlagProposal) public emergencyFlagProposals;\r\n    uint256 public emergencyFlagProposalCount;\r\n\r\n    /// @notice Storage gap for future upgrades\r\n    uint256[98] private __gap;\r\n\r\n    /// @custom:errors\r\n    error InvalidTokenAddress(string reason);\r\n    error IdenticalTokens();\r\n    error PoolAlreadyExists();\r\n    error ContractPaused();\r\n    error ChainPaused(uint16 chainId);\r\n    error InvalidAddress(address addr, string reason);\r\n    error InvalidTimelock(uint256 timelock, uint256 min, uint256 max);\r\n    error InvalidReserveRatio();\r\n    error InvalidOracle(address oracle, string reason);\r\n    error ProposalNotFound(uint256 proposalId);\r\n    error ProposalNotReady(uint256 proposalId, string reason);\r\n    error ProposalAlreadyExecuted();\r\n    error ProposalCanceled();\r\n    error InvalidAdapterParams(string reason);\r\n    error InsufficientFee(uint256 provided, uint256 required);\r\n    error MaxRetriesExceeded();\r\n    error MessageNotExists(uint256 messageId);\r\n    error InsufficientVotingPower(uint256 power, uint256 required);\r\n    error AlreadyVoted();\r\n    error VotingClosed();\r\n    error BatchSizeExceeded(uint256 size, uint256 max);\r\n    error InvalidSalt();\r\n    error QuorumNotMet(uint256 totalVotes, uint256 quorumRequired);\r\n    error InvalidGasLimit(uint256 gasLimit, uint256 minGasLimit);\r\n    error InvalidNonce();\r\n    error InvalidOracleRelayer(address oracle, address relayer);\r\n    error InvalidAmount(string reason);\r\n    error StaleOracleData(uint256 updatedAt, uint256 currentTimestamp);\r\n    error UnauthorizedCaller(address caller);\r\n    error InvalidDelegate(address delegate);\r\n    error FailedExternalCall(string reason);\r\n    error InvalidTarget(address target);\r\n    error UpgradeNotApproved(uint256 upgradeId);\r\n    error DelegationExpired(address delegate);\r\n    error NoOracleAvailable();\r\n    error ProposalCooldownActive(uint256 nextProposalTime);\r\n    error InsufficientProposalFee(uint256 provided, uint256 required);\r\n    error InvalidCommitteeMember(address member);\r\n    error InvalidPayload();\r\n    error CircuitBreakerTriggered();\r\n    error InvalidTokenContract(address token, string reason);\r\n    error OraclePrecisionMismatch(uint8 primaryDecimals, uint8 fallbackDecimals);\r\n    error InvalidTokenPair(address oracle, address tokenA, address tokenB);\r\n    error EmergencyFlagPending(uint256 proposalId);\r\n    error NotPaused(string reason);\r\n\r\n    /// @notice Events\r\n    event PoolCreated(\r\n        address indexed tokenA,\r\n        address indexed tokenB,\r\n        address pool,\r\n        address primaryPriceOracle,\r\n        address[] fallbackPriceOracles,\r\n        uint16 chainId,\r\n        bytes32 salt\r\n    );\r\n    event BatchPoolsCreated(uint256 poolCount, uint16 chainId);\r\n    event PauseToggled(bool paused);\r\n    event ChainPausedEvent(uint16 indexed chainId, address indexed caller);\r\n    event ChainUnpaused(uint16 indexed chainId, address indexed caller);\r\n    event TreasuryUpdated(address indexed newTreasury);\r\n    event LayerZeroEndpointUpdated(address indexed newEndpoint);\r\n    event DefaultTimelockUpdated(uint256 newTimelock);\r\n    event DefaultTargetReserveRatioUpdated(uint256 newRatio);\r\n    event TrustedRemoteFactoryAdded(uint16 indexed chainId, bytes factoryAddress);\r\n    event GovernanceProposalCreated(\r\n        uint256 indexed proposalId,\r\n        address target,\r\n        bytes data,\r\n        address proposer,\r\n        uint256 proposedAt,\r\n        uint256 snapshotSupply,\r\n        uint256 impactLevel\r\n    );\r\n    event GovernanceProposalExecuted(uint256 indexed proposalId);\r\n    event GovernanceProposalCanceled(uint256 indexed proposalId);\r\n    event Voted(uint256 indexed proposalId, address indexed voter, bool inFavor, uint256 votingPower);\r\n    event BatchVoted(address indexed voter, uint256[] proposalIds, bool[] inFavor, uint256 votingPower);\r\n    event VotingClosedEvent(uint256 indexed proposalId);\r\n    event FailedMessageStored(uint256 indexed messageId, uint16 dstChainId, bytes payload);\r\n    event FailedMessageRetried(uint256 indexed messageId, uint16 dstChainId, uint256 retries);\r\n    event FailedMessageRecovered(uint256 indexed messageId, address indexed recipient);\r\n    event CrossChainSyncSent(uint16 indexed chainId, bytes payload);\r\n    event CrossChainPoolUpdated(uint16 indexed srcChainId, address tokenA, address tokenB, address pool);\r\n    event VotingParametersUpdated(uint256 votingPeriod, uint256 minimumProposalPower, uint256 quorumThreshold);\r\n    event GovernanceTokenUpdated(address indexed newGovernanceToken);\r\n    event OracleRelayerUpdated(uint16 indexed chainId, address oracle, address relayer);\r\n    event TimelockUpdated(uint16 indexed chainId, uint256 timelock);\r\n    event VoteDelegated(address indexed delegator, address indexed delegate, uint256 expiry);\r\n    event DelegationRevoked(address indexed delegator, address indexed delegate);\r\n    event MinTimelockUpdated(uint256 minTimelock);\r\n    event MaxTimelockUpdated(uint256 maxTimelock);\r\n    event MaxRetriesUpdated(uint256 maxRetries);\r\n    event MaxBatchSizeUpdated(uint256 maxBatchSize);\r\n    event MinGasLimitUpdated(uint256 minGasLimit);\r\n    event MaxOracleStalenessUpdated(uint256 maxOracleStaleness);\r\n    event GovernanceTargetWhitelisted(address indexed target);\r\n    event UpgradeProposed(uint256 indexed upgradeId, address newImplementation, uint256 proposedAt);\r\n    event UpgradeApproved(uint256 indexed upgradeId, address approver);\r\n    event UpgradeExecuted(uint256 indexed upgradeId, address newImplementation);\r\n    event FailedMessageCleared(uint256 indexed messageId);\r\n    event GovernanceProposalCleared(uint256 indexed proposalId);\r\n    event CommitteeMemberAdded(address indexed member);\r\n    event CommitteeMemberRemoved(address indexed member);\r\n    event GovernanceTokenSupplyUpdated(uint256 newSupply);\r\n    event OracleOverrideToggled(bool enabled);\r\n    event CircuitBreakerToggled(bool enabled);\r\n    event FallbackOraclesUpdated(uint16 indexed chainId, address[] oracles);\r\n    event ProposalCooldownUpdated(uint256 newCooldown);\r\n    event ProposalFeeUpdated(uint256 newFee);\r\n    event EmergencyFlagProposed(\r\n        uint256 indexed proposalId,\r\n        bool oracleOverride,\r\n        bool circuitBreaker,\r\n        uint256 proposedAt\r\n    );\r\n    event OracleValidationFailed(uint256 indexed oracle, string reason);\r\n\r\n    /// @notice Modifier to check if the contract is not paused\r\n    modifier whenNotPaused() {\r\n        if (paused) revert ContractPaused();\r\n        _;\r\n    }\r\n\r\n    /// @notice Modifier to check if a specific chain is not paused\r\n    /// @param chainId The chain ID to check\r\n    modifier whenChainNotPaused(uint16 chainId) {\r\n        if (chainPaused[chainId]) revert ChainPaused(chainId);\r\n        _;\r\n    }\r\n\r\n    /// @notice Modifier to restrict to governance-approved calls\r\n    modifier onlyGovernance() {\r\n        if (msg.sender != address(this)) revert UnauthorizedCaller(msg.sender);\r\n        _;\r\n    }\r\n\r\n    /// @notice Modifier to restrict to committee members\r\n    modifier onlyCommittee() {\r\n        if (!committeeMembers[msg.sender]) revert UnauthorizedCaller(msg.sender);\r\n        _;\r\n    }\r\n\r\n    /// @notice Modifier to check circuit breaker\r\n    modifier whenCircuitBreakerNotTriggered() {\r\n        if (crossChainCircuitBreaker) revert CircuitBreakerTriggered();\r\n        _;\r\n    }\r\n\r\n    /// @notice Disable constructor for upgradeable contracts\r\n    constructor() {\r\n        _disableInitializers();\r\n    }\r\n\r\n    /// @notice Initializes the factory\r\n    /// @param _layerZeroEndpoint LayerZero endpoint for cross-chain operations\r\n    /// @param _treasury Treasury address for fee collection\r\n    /// @param _governanceToken Governance token for voting\r\n    /// @param _defaultTimelock Default timelock for cross-chain operations\r\n    /// @param _defaultTargetReserveRatio Default reserve ratio (1e18 precision)\r\n    /// @param _votingPeriod Duration of voting period in seconds\r\n    /// @param _minimumProposalPower Minimum voting power to propose\r\n    /// @param _quorumThreshold Quorum threshold (1e18 precision)\r\n    /// @param _maxOracleStaleness Maximum oracle data staleness\r\n    /// @param _initialCommittee Initial committee members for multi-sig\r\n    function initialize(\r\n        address _layerZeroEndpoint,\r\n        address _treasury,\r\n        address _governanceToken,\r\n        uint256 _defaultTimelock,\r\n        uint256 _defaultTargetReserveRatio,\r\n        uint256 _votingPeriod,\r\n        uint256 _minimumProposalPower,\r\n        uint256 _quorumThreshold,\r\n        uint32 _maxOracleStaleness,\r\n        address[] calldata _initialCommittee\r\n    ) external initializer {\r\n        if (layerZeroEndpoint != address(0)) revert InvalidAmount(\"Contract already initialized\");\r\n        if (_layerZeroEndpoint == address(0) || _treasury == address(0) || _governanceToken == address(0))\r\n            revert InvalidAddress(address(0), \"Zero address not allowed\");\r\n        if (_defaultTimelock < 10800 || _defaultTimelock > 48 * 3600)\r\n            revert InvalidTimelock(_defaultTimelock, 10800, 48 * 3600);\r\n        if (_defaultTargetReserveRatio == 0) revert InvalidReserveRatio();\r\n        if (_votingPeriod == 0 || _minimumProposalPower == 0 || _quorumThreshold == 0 || _quorumThreshold > 1e18)\r\n            revert InvalidAmount(\"Invalid voting parameters\");\r\n        if (_maxOracleStaleness == 0) revert InvalidAmount(\"Invalid oracle staleness\");\r\n        if (_initialCommittee.length < MIN_COMMITTEE_APPROVALS) revert InvalidAmount(\"Insufficient committee members\");\r\n\r\n        __Ownable_init();\r\n        __UUPSUpgradeable_init();\r\n        __ReentrancyGuard_init();\r\n\r\n        layerZeroEndpoint = _layerZeroEndpoint;\r\n        treasury = _treasury;\r\n        governanceToken = _governanceToken;\r\n        governanceTokenTotalSupply = IERC20Upgradeable(_governanceToken).totalSupply();\r\n        defaultTimelock = _defaultTimelock;\r\n        defaultTargetReserveRatio = _defaultTargetReserveRatio;\r\n        votingPeriod = _votingPeriod;\r\n        minimumProposalPower = _minimumProposalPower;\r\n        quorumThreshold = _quorumThreshold;\r\n        governanceTimelock = 24 * 3600;\r\n        minTimelock = 10800;\r\n        maxTimelock = 48 * 3600;\r\n        maxRetries = 3;\r\n        maxBatchSize = 10;\r\n        minGasLimit = 200_000;\r\n        maxOracleStaleness = _maxOracleStaleness;\r\n        proposalCooldown = 1 days;\r\n        proposalFee = 0.01 ether;\r\n        localChainId = uint16(block.chainid);\r\n\r\n        uint256 length = _initialCommittee.length;\r\n        for (uint256 i = 0; i < length; ) {\r\n            if (_initialCommittee[i] == address(0)) revert InvalidAddress(_initialCommittee[i], \"Invalid committee member\");\r\n            committeeMembers[_initialCommittee[i]] = true;\r\n            emit CommitteeMemberAdded(_initialCommittee[i]);\r\n            unchecked { ++i; }\r\n        }\r\n        committeeMemberCount = length;\r\n\r\n        governanceTargetWhitelist[address(this)] = true;\r\n        emit GovernanceTargetWhitelisted(address(this));\r\n\r\n        emit MinTimelockUpdated(minTimelock);\r\n        emit MaxTimelockUpdated(maxTimelock);\r\n        emit MaxRetriesUpdated(maxRetries);\r\n        emit MaxBatchSizeUpdated(maxBatchSize);\r\n        emit MinGasLimitUpdated(minGasLimit);\r\n        emit MaxOracleStalenessUpdated(_maxOracleStaleness);\r\n        emit ProposalCooldownUpdated(proposalCooldown);\r\n        emit ProposalFeeUpdated(proposalFee);\r\n    }\r\n\r\n    /// @notice Authorizes contract upgrades with committee approval\r\n    /// @param newImplementation Address of the new implementation contract\r\n    function _authorizeUpgrade(address newImplementation) internal override onlyCommittee {\r\n        uint256 upgradeId = upgradeProposalCount - 1;\r\n        PendingUpgrade storage upgrade = pendingUpgrades[upgradeId];\r\n        if (upgrade.newImplementation != newImplementation || upgrade.approvals < MIN_COMMITTEE_APPROVALS)\r\n            revert UpgradeNotApproved(upgradeId);\r\n        if (block.timestamp < upgrade.proposedAt + governanceTimelock)\r\n            revert ProposalNotReady(upgradeId, \"Timelock not elapsed\");\r\n        emit UpgradeExecuted(upgradeId, newImplementation);\r\n        delete pendingUpgrades[upgradeId];\r\n    }\r\n\r\n    /// @notice Proposes a contract upgrade\r\n    /// @param newImplementation Address of the new implementation contract\r\n    /// @return upgradeId ID of the proposed upgrade\r\n    function proposeUpgrade(address newImplementation) external onlyGovernance returns (uint256) {\r\n        if (newImplementation == address(0) || !newImplementation.isContract())\r\n            revert InvalidAddress(newImplementation, \"Invalid implementation\");\r\n        uint256 upgradeId;\r\n        unchecked {\r\n            upgradeId = upgradeProposalCount++;\r\n        }\r\n        PendingUpgrade storage upgrade = pendingUpgrades[upgradeId];\r\n        upgrade.newImplementation = newImplementation;\r\n        upgrade.proposedAt = block.timestamp;\r\n        upgrade.approvals = 0;\r\n        emit UpgradeProposed(upgradeId, newImplementation, block.timestamp);\r\n        return upgradeId;\r\n    }\r\n\r\n    /// @notice Approves a proposed upgrade\r\n    /// @param upgradeId ID of the proposed upgrade\r\n    function approveUpgrade(uint256 upgradeId) external onlyCommittee {\r\n        PendingUpgrade storage upgrade = pendingUpgrades[upgradeId];\r\n        if (upgrade.newImplementation == address(0)) revert ProposalNotFound(upgradeId);\r\n        if (upgrade.approvedBy[msg.sender]) revert AlreadyVoted();\r\n        upgrade.approvedBy[msg.sender] = true;\r\n        unchecked {\r\n            upgrade.approvals++;\r\n        }\r\n        emit UpgradeApproved(upgradeId, msg.sender);\r\n    }\r\n\r\n    /// @notice Creates a new AMM pool for a token pair using CREATE2\r\n    /// @param tokenA First token address\r\n    /// @param tokenB Second token address\r\n    /// @param primaryPriceOracle Primary Chainlink oracle address\r\n    /// @param chainId Target chain ID\r\n    /// @param adapterParams LayerZero adapter parameters\r\n    /// @param customSalt Custom salt for CREATE2\r\n    /// @return pool Address of the created pool\r\n    function createPool(\r\n        address tokenA,\r\n        address tokenB,\r\n        address primaryPriceOracle,\r\n        uint16 chainId,\r\n        bytes calldata adapterParams,\r\n        bytes32 customSalt\r\n    ) external payable whenNotPaused whenChainNotPaused(chainId) whenCircuitBreakerNotTriggered nonReentrant returns (address pool) {\r\n        _validateAdapterParams(adapterParams);\r\n        _validateTokens(tokenA, tokenB);\r\n        _validateOracles(primaryPriceOracle, chainId, tokenA, tokenB);\r\n        pool = _createSinglePool(tokenA, tokenB, primaryPriceOracle, chainId, adapterParams, customSalt);\r\n    }\r\n\r\n    /// @notice Creates multiple AMM pools in a single transaction\r\n    /// @param tokens Array of token pairs\r\n    /// @param primaryPriceOracles Array of primary oracles\r\n    /// @param chainIds Array of target chain IDs\r\n    /// @param adapterParams Array of LayerZero adapter parameters\r\n    /// @param customSalts Array of custom salts\r\n    /// @return pools Array of created pool addresses\r\n    function batchCreatePools(\r\n    address[2][] calldata tokens,\r\n    address[] calldata primaryPriceOracles,\r\n    uint16[] calldata chainIds,\r\n    bytes[] calldata adapterParams,\r\n    bytes32[] calldata customSalts\r\n) external payable whenNotPaused whenCircuitBreakerNotTriggered nonReentrant returns (address[] memory pools) {\r\n    uint256 length = tokens.length;\r\n    if (length == 0 || length > maxBatchSize) revert BatchSizeExceeded(length, maxBatchSize);\r\n    if (\r\n        length != primaryPriceOracles.length ||\r\n        length != chainIds.length ||\r\n        length != adapterParams.length ||\r\n        length != customSalts.length\r\n    ) revert InvalidAmount(\"Array length mismatch\");\r\n\r\n    pools = new address[](length);\r\n    for (uint256 i = 0; i < length; ) {\r\n        pools[i] = _processPoolCreation(\r\n            tokens[i],\r\n            primaryPriceOracles[i],\r\n            chainIds[i],\r\n            adapterParams[i],\r\n            customSalts[i]\r\n        );\r\n        unchecked { ++i; }\r\n    }\r\n    emit BatchPoolsCreated(length, chainIds[0]);\r\n}\r\n\r\nfunction _processPoolCreation(\r\n    address[2] calldata tokens,\r\n    address primaryPriceOracle,\r\n    uint16 chainId,\r\n    bytes calldata adapterParams,\r\n    bytes32 customSalt\r\n) private returns (address pool) {\r\n    if (gasleft() < minGasLimit) revert InvalidGasLimit(gasleft(), minGasLimit);\r\n    if (!chainPaused[chainId]) {\r\n        _validateAdapterParams(adapterParams);\r\n        _validateTokens(tokens[0], tokens[1]);\r\n        _validateOracles(primaryPriceOracle, chainId, tokens[0], tokens[1]);\r\n        pool = _createSinglePool(\r\n            tokens[0],\r\n            tokens[1],\r\n            primaryPriceOracle,\r\n            chainId,\r\n            adapterParams,\r\n            customSalt\r\n        );\r\n    }\r\n}\r\n    /// @notice Predicts the deterministic address for a pool\r\n    /// @param tokenA First token address\r\n    /// @param tokenB Second token address\r\n    /// @param chainId Target chain ID\r\n    /// @param customSalt Custom salt for CREATE2\r\n    /// @return pool Predicted pool address\r\n    function predictPoolAddress(\r\n        address tokenA,\r\n        address tokenB,\r\n        uint16 chainId,\r\n        bytes32 customSalt\r\n    ) external view returns (address pool) {\r\n        (address token0, address token1) = tokenA < tokenB ? (tokenA, tokenB) : (tokenB, tokenA);\r\n        bytes32 salt = customSalt == bytes32(0) ? keccak256(abi.encodePacked(token0, token1, chainId)) : customSalt;\r\n        pool = address(\r\n            uint160(\r\n                uint(\r\n                    keccak256(\r\n                        abi.encodePacked(\r\n                            bytes1(0xff),\r\n                            address(this),\r\n                            salt,\r\n                            keccak256(abi.encodePacked(type(AMMPool).creationCode))\r\n                        )\r\n                    )\r\n                )\r\n            )\r\n        );\r\n    }\r\n\r\n    /// @notice Retries a failed cross-chain message with exponential backoff\r\n    /// @param messageId ID of the failed message\r\n    function retryFailedMessage(uint256 messageId) external payable whenCircuitBreakerNotTriggered nonReentrant {\r\n        if (msg.value < proposalFee) revert InsufficientProposalFee(msg.value, proposalFee);\r\n        FailedMessage storage message = failedMessages[messageId];\r\n        if (message.dstChainId == 0) revert MessageNotExists(messageId);\r\n        if (message.retries >= maxRetries) revert MaxRetriesExceeded();\r\n        if (block.timestamp < message.nextRetryTimestamp) revert ProposalNotReady(messageId, \"Retry timelock not elapsed\");\r\n\r\n        (uint256 nativeFee, ) = ICustomLayerZeroEndpoint(layerZeroEndpoint).estimateFees(\r\n            message.dstChainId,\r\n            address(this),\r\n            message.payload,\r\n            false,\r\n            message.adapterParams\r\n        );\r\n        if (msg.value < nativeFee + proposalFee) revert InsufficientFee(msg.value, nativeFee + proposalFee);\r\n\r\n        unchecked {\r\n            message.retries++;\r\n            message.timestamp = block.timestamp;\r\n            message.nextRetryTimestamp = block.timestamp + (2 ** message.retries) * 1 hours;\r\n        }\r\n\r\n        bool success = ICustomLayerZeroEndpoint(layerZeroEndpoint).send{ value: nativeFee }(\r\n            message.dstChainId,\r\n            abi.encodePacked(trustedRemoteFactories[message.dstChainId], address(this)),\r\n            message.payload,\r\n            payable(msg.sender),\r\n            address(0),\r\n            message.adapterParams\r\n        );\r\n        if (success) {\r\n            if (msg.value > nativeFee + proposalFee) {\r\n                AddressUpgradeable.sendValue(payable(msg.sender), msg.value - nativeFee - proposalFee);\r\n            }\r\n            AddressUpgradeable.sendValue(payable(treasury), proposalFee);\r\n            emit FailedMessageRetried(messageId, message.dstChainId, message.retries);\r\n            delete failedMessages[messageId];\r\n            emit FailedMessageCleared(messageId);\r\n        } else {\r\n            AddressUpgradeable.sendValue(payable(treasury), proposalFee);\r\n            emit FailedMessageStored(messageId, message.dstChainId, message.payload);\r\n        }\r\n    }\r\n\r\n    /// @notice Recovers a failed cross-chain message after max retries\r\n    /// @param messageId ID of the failed message\r\n    /// @param recipient Address to receive refunded funds\r\n    function recoverFailedMessage(uint256 messageId, address recipient) external payable onlyGovernance nonReentrant {\r\n        FailedMessage storage message = failedMessages[messageId];\r\n        if (message.dstChainId == 0) revert MessageNotExists(messageId);\r\n        if (message.retries < maxRetries) revert ProposalNotReady(messageId, \"Max retries not reached\");\r\n        if (recipient == address(0)) revert InvalidAddress(recipient, \"Invalid recipient\");\r\n\r\n        if (msg.value > 0) {\r\n            AddressUpgradeable.sendValue(payable(recipient), msg.value);\r\n        }\r\n\r\n        emit FailedMessageRecovered(messageId, recipient);\r\n        delete failedMessages[messageId];\r\n        emit FailedMessageCleared(messageId);\r\n    }\r\n\r\n    /// @notice Synchronizes pool data with a remote chain\r\n    /// @param chainId Target chain ID\r\n    /// @param adapterParams LayerZero adapter parameters\r\n    /// @param nonce Unique nonce for the message\r\n    function syncCrossChain(\r\n        uint16 chainId,\r\n        bytes calldata adapterParams,\r\n        uint64 nonce\r\n    ) external payable whenCircuitBreakerNotTriggered nonReentrant {\r\n        if (trustedRemoteFactories[chainId].length == 0) revert InvalidAddress(address(0), \"No trusted factory\");\r\n        if (usedNonces[chainId][nonce]) revert InvalidNonce();\r\n        _validateAdapterParams(adapterParams);\r\n\r\n        usedNonces[chainId][nonce] = true;\r\n        bytes memory payload = abi.encode(allPools, block.timestamp, nonce);\r\n        (uint256 nativeFee, ) = ICustomLayerZeroEndpoint(layerZeroEndpoint).estimateFees(\r\n            chainId,\r\n            address(this),\r\n            payload,\r\n            false,\r\n            adapterParams\r\n        );\r\n        if (msg.value < nativeFee) revert InsufficientFee(msg.value, nativeFee);\r\n\r\n        bool success = ICustomLayerZeroEndpoint(layerZeroEndpoint).send{ value: nativeFee }(\r\n            chainId,\r\n            abi.encodePacked(trustedRemoteFactories[chainId], address(this)),\r\n            payload,\r\n            payable(msg.sender),\r\n            address(0),\r\n            adapterParams\r\n        );\r\n        if (success) {\r\n            if (msg.value > nativeFee) {\r\n                AddressUpgradeable.sendValue(payable(msg.sender), msg.value - nativeFee);\r\n            }\r\n            emit CrossChainSyncSent(chainId, payload);\r\n        } else {\r\n            unchecked {\r\n                failedMessages[failedMessageCount] = FailedMessage({\r\n                    dstChainId: chainId,\r\n                    payload: payload,\r\n                    adapterParams: adapterParams,\r\n                    retries: 0,\r\n                    timestamp: block.timestamp,\r\n                    nextRetryTimestamp: block.timestamp + 1 hours\r\n                });\r\n                emit FailedMessageStored(failedMessageCount, chainId, payload);\r\n                failedMessageCount++;\r\n            }\r\n        }\r\n    }\r\n\r\n    /// @notice Receives cross-chain pool updates\r\n    /// @param srcChainId Source chain ID\r\n    /// @param srcAddress Source factory address\r\n    /// @param nonce Unique nonce for the message\r\n    /// @param payload Encoded pool data\r\n    function receiveCrossChainPoolUpdate(\r\n        uint16 srcChainId,\r\n        bytes calldata srcAddress,\r\n        uint64 nonce,\r\n        bytes calldata payload\r\n    ) external whenNotPaused whenCircuitBreakerNotTriggered nonReentrant {\r\n        if (msg.sender != layerZeroEndpoint) revert UnauthorizedCaller(msg.sender);\r\n        if (usedNonces[srcChainId][nonce]) revert InvalidNonce();\r\n        if (keccak256(srcAddress) != keccak256(abi.encodePacked(trustedRemoteFactories[srcChainId], address(this))))\r\n            revert InvalidAddress(address(0), \"Invalid source address\");\r\n\r\n        if (payload.length < 96) revert InvalidPayload();\r\n        (address tokenA, address tokenB, address pool) = abi.decode(payload, (address, address, address));\r\n        usedNonces[srcChainId][nonce] = true;\r\n        (address token0, address token1) = tokenA < tokenB ? (tokenA, tokenB) : (tokenB, tokenA);\r\n        if (getPool[token0][token1] == address(0)) {\r\n            _updatePoolStorage(token0, token1, pool);\r\n            emit CrossChainPoolUpdated(srcChainId, token0, token1, pool);\r\n        }\r\n    }\r\n\r\n    /// @notice Helper function to decode payload\r\n    /// @param payload Bytes data to decode\r\n    /// @return tokenA First token address\r\n    /// @return tokenB Second token address\r\n    /// @return pool Pool address\r\n    function decodePayload(bytes calldata payload) external pure returns (address tokenA, address tokenB, address pool) {\r\n        (tokenA, tokenB, pool) = abi.decode(payload, (address, address, address));\r\n    }\r\n\r\n    /// @notice Gets all created pools with pagination\r\n    /// @param start Start index\r\n    /// @param end End index\r\n    /// @return pools Array of pool addresses\r\n    function getAllPools(uint256 start, uint256 end) external view returns (address[] memory pools) {\r\n        if (end > allPools.length || start > end) revert InvalidAmount(\"Invalid pagination range\");\r\n        uint256 length = end - start;\r\n        pools = new address[](length);\r\n        for (uint256 i = 0; i < length; ) {\r\n            pools[i] = allPools[start + i];\r\n            unchecked { ++i; }\r\n        }\r\n    }\r\n\r\n    /// @notice Gets the number of pools created\r\n    /// @return Number of pools\r\n    function allPoolsLength() external view returns (uint256) {\r\n        return allPools.length;\r\n    }\r\n\r\n    /// @notice Validates if a pool exists for a token pair\r\n    /// @param tokenA First token address\r\n    /// @param tokenB Second token address\r\n    /// @return exists True if pool exists\r\n    function poolExists(address tokenA, address tokenB) external view returns (bool exists) {\r\n        (address token0, address token1) = tokenA < tokenB ? (tokenA, tokenB) : (tokenB, tokenA);\r\n        return getPool[token0][token1] != address(0);\r\n    }\r\n\r\n    /// @notice Delegates voting power to another address with optional expiry\r\n    /// @param delegate Address to delegate to\r\n    /// @param expiry Delegation expiry timestamp\r\n    function delegateVote(address delegate, uint256 expiry) external {\r\n        if (delegate == address(this) || delegate == address(0) || delegate == msg.sender) revert InvalidDelegate(delegate);\r\n        if (expiry != 0 && expiry < block.timestamp) revert InvalidAmount(\"Invalid expiry\");\r\n        voteDelegate[msg.sender] = Delegation(delegate, expiry);\r\n        emit VoteDelegated(msg.sender, delegate, expiry);\r\n    }\r\n\r\n    /// @notice Revokes vote delegation\r\n    function revokeDelegation() external {\r\n        Delegation memory delegation = voteDelegate[msg.sender];\r\n        if (delegation.delegate == address(0)) revert InvalidDelegate(address(0));\r\n        delete voteDelegate[msg.sender];\r\n        emit DelegationRevoked(msg.sender, delegation.delegate);\r\n    }\r\n\r\n    /// @notice Proposes a governance update\r\n    /// @param target Target contract address\r\n    /// @param data Call data for the proposal\r\n    /// @param impactLevel Impact level for dynamic timelock (1=low, 2=medium, 3=high)\r\n    /// @return proposalId The ID of the created proposal\r\n    function proposeGovernanceUpdate(\r\n        address target,\r\n        bytes calldata data,\r\n        uint256 impactLevel\r\n    ) external payable returns (uint256) {\r\n        if (msg.value < proposalFee) revert InsufficientProposalFee(msg.value, proposalFee);\r\n        if (!governanceTargetWhitelist[target]) revert InvalidTarget(target);\r\n        if (block.timestamp < lastProposalTime[msg.sender] + proposalCooldown)\r\n            revert ProposalCooldownActive(lastProposalTime[msg.sender] + proposalCooldown);\r\n        if (impactLevel < 1 || impactLevel > 3) revert InvalidAmount(\"Invalid impact level\");\r\n\r\n        address voter = _getVoter(msg.sender);\r\n        uint256 power = IERC20Upgradeable(governanceToken).balanceOf(voter);\r\n        if (power < minimumProposalPower) revert InsufficientVotingPower(power, minimumProposalPower);\r\n\r\n        uint256 proposalId;\r\n        unchecked {\r\n            proposalId = proposalCount++;\r\n        }\r\n        governanceProposals[proposalId] = GovernanceProposal({\r\n            target: target,\r\n            data: data,\r\n            proposer: msg.sender,\r\n            proposedAt: block.timestamp,\r\n            executed: false,\r\n            votesFor: 0,\r\n            votesAgainst: 0,\r\n            votingClosed: false,\r\n            cancelled: false,\r\n            snapshotSupply: governanceTokenTotalSupply,\r\n            impactLevel: impactLevel\r\n        });\r\n        lastProposalTime[msg.sender] = block.timestamp;\r\n        AddressUpgradeable.sendValue(payable(treasury), msg.value);\r\n        emit GovernanceProposalCreated(\r\n            proposalId,\r\n            target,\r\n            data,\r\n            msg.sender,\r\n            block.timestamp,\r\n            governanceTokenTotalSupply,\r\n            impactLevel\r\n        );\r\n        return proposalId;\r\n    }\r\n\r\n    /// @notice Cancels a governance proposal\r\n    /// @param proposalId ID of the proposal to cancel\r\n    function cancelGovernanceProposal(uint256 proposalId) external {\r\n        GovernanceProposal storage proposal = governanceProposals[proposalId];\r\n        if (proposal.target == address(0)) revert ProposalNotFound(proposalId);\r\n        if (msg.sender != proposal.proposer && !committeeMembers[msg.sender]) revert UnauthorizedCaller(msg.sender);\r\n        if (proposal.executed || proposal.cancelled) revert ProposalCanceled();\r\n        if (block.timestamp > proposal.proposedAt + votingPeriod)\r\n            revert ProposalNotReady(proposalId, \"Voting period ended\");\r\n\r\n        proposal.cancelled = true;\r\n\r\n        if (proposalFee > 0) {\r\n            AddressUpgradeable.sendValue(payable(proposal.proposer), proposalFee / 2);\r\n        }\r\n        emit GovernanceProposalCanceled(proposalId);\r\n    }\r\n\r\n    /// @notice Votes on a governance proposal\r\n    /// @param proposalId ID of the proposal\r\n    /// @param inFavor Whether to vote in favor\r\n    function vote(uint256 proposalId, bool inFavor) external {\r\n        _voteGovernanceUpdate(proposalId, inFavor, _getVoter(msg.sender));\r\n    }\r\n\r\n    /// @notice Batch votes on multiple proposals\r\n    /// @param proposalIds Array of proposal IDs\r\n    /// @param inFavor Array of vote preferences\r\n    function batchVoteProposals(uint256[] calldata proposalIds, bool[] calldata inFavor) external {\r\n        uint256 length = proposalIds.length;\r\n        if (length == 0 || length > maxBatchSize) revert BatchSizeExceeded(length, maxBatchSize);\r\n        if (length != inFavor.length) revert InvalidAmount(\"Array length mismatch\");\r\n        address voter = _getVoter(msg.sender);\r\n        uint256 power = IERC20Upgradeable(governanceToken).balanceOf(voter);\r\n        if (power == 0) revert InsufficientVotingPower(power, 0);\r\n\r\n        for (uint256 i = 0; i < length; ) {\r\n            if (gasleft() < minGasLimit) revert InvalidGasLimit(gasleft(), minGasLimit);\r\n            _voteGovernanceUpdate(proposalIds[i], inFavor[i], voter);\r\n            unchecked { ++i; }\r\n        }\r\n        emit BatchVoted(msg.sender, proposalIds, inFavor, power);\r\n    }\r\n\r\n    /// @notice Executes a governance proposal\r\n    /// @param proposalId ID of the proposal to execute\r\n    function executeGovernanceProposal(uint256 proposalId) external nonReentrant {\r\n        GovernanceProposal storage proposal = governanceProposals[proposalId];\r\n        if (proposal.target == address(0)) revert ProposalNotFound(proposalId);\r\n        if (proposal.executed) revert ProposalAlreadyExecuted();\r\n        if (proposal.cancelled) revert ProposalCanceled();\r\n        if (block.timestamp < proposal.proposedAt + votingPeriod)\r\n            revert ProposalNotReady(proposalId, \"Voting period not ended\");\r\n        if (!proposal.votingClosed) {\r\n            proposal.votingClosed = true;\r\n            emit VotingClosedEvent(proposalId);\r\n        }\r\n\r\n        uint256 totalVotes = proposal.votesFor + proposal.votesAgainst;\r\n        uint256 quorumRequired = (proposal.snapshotSupply * quorumThreshold) / 1e18;\r\n        if (totalVotes < quorumRequired) revert QuorumNotMet(totalVotes, quorumRequired);\r\n        if (proposal.votesFor <= proposal.votesAgainst) revert ProposalNotReady(proposalId, \"Insufficient votes in favor\");\r\n\r\n        uint256 requiredTimelock = governanceTimelock * proposal.impactLevel;\r\n        if (requiredTimelock > maxTimelock) requiredTimelock = maxTimelock;\r\n        if (block.timestamp < proposal.proposedAt + votingPeriod + requiredTimelock)\r\n            revert ProposalNotReady(proposalId, \"Timelock not elapsed\");\r\n\r\n        proposal.executed = true;\r\n        executedProposals[proposalId] = proposal;\r\n        (bool success, bytes memory reason) = proposal.target.call{ gas: 500_000 }(proposal.data);\r\n        if (!success) {\r\n            string memory revertReason = reason.length > 0 ? string(reason) : \"Unknown error\";\r\n            revert FailedExternalCall(revertReason);\r\n        }\r\n        emit GovernanceProposalExecuted(proposalId);\r\n\r\n        delete governanceProposals[proposalId];\r\n        emit GovernanceProposalCleared(proposalId);\r\n    }\r\n\r\n    /// @notice Updates the voting parameters\r\n    /// @param _votingPeriod New voting period\r\n    /// @param _minimumProposalPower Minimum voting power\r\n    /// @param _quorumThreshold New quorum threshold\r\n    function updateVotingParameters(\r\n        uint256 _votingPeriod,\r\n        uint256 _minimumProposalPower,\r\n        uint256 _quorumThreshold\r\n    ) external onlyGovernance {\r\n        if (_votingPeriod == 0 || _minimumProposalPower == 0 || _quorumThreshold == 0 || _quorumThreshold > 1e18)\r\n            revert InvalidAmount(\"Invalid voting parameters\");\r\n        votingPeriod = _votingPeriod;\r\n        minimumProposalPower = _minimumProposalPower;\r\n        quorumThreshold = _quorumThreshold;\r\n        emit VotingParametersUpdated(_votingPeriod, _minimumProposalPower, _quorumThreshold);\r\n    }\r\n\r\n    /// @notice Updates configuration parameters\r\n    /// @param _minTimelock Minimum timelock\r\n    /// @param _maxTimelock Maximum timelock\r\n    /// @param _maxRetries Maximum retries for failed messages\r\n    /// @param _maxBatchSize Maximum batch size\r\n    /// @param _minGasLimit Minimum gas limit\r\n    /// @param _maxOracleStaleness Maximum staleness\r\n    function updateGovernanceParameters(\r\n        uint32 _minTimelock,\r\n        uint32 _maxTimelock,\r\n        uint32 _maxRetries,\r\n        uint32 _maxBatchSize,\r\n        uint32 _minGasLimit,\r\n        uint32 _maxOracleStaleness\r\n    ) external onlyGovernance {\r\n        if (\r\n            _minTimelock == 0 || _maxTimelock < _minTimelock || _maxRetries == 0 || _maxBatchSize == 0\r\n                || _minGasLimit == 0 || _maxOracleStaleness == 0\r\n        ) revert InvalidAmount(\"Invalid config parameters\");\r\n        minTimelock = _minTimelock;\r\n        maxTimelock = _maxTimelock;\r\n        maxRetries = _maxRetries;\r\n        maxBatchSize = _maxBatchSize;\r\n        minGasLimit = _minGasLimit;\r\n        maxOracleStaleness = _maxOracleStaleness;\r\n        emit MinTimelockUpdated(_minTimelock);\r\n        emit MaxTimelockUpdated(_maxTimelock);\r\n        emit MaxRetriesUpdated(_maxRetries);\r\n        emit MaxBatchSizeUpdated(_maxBatchSize);\r\n        emit MinGasLimitUpdated(_minGasLimit);\r\n        emit MaxOracleStalenessUpdated(_maxOracleStaleness);\r\n    }\r\n\r\n    /// @notice Updates governance token and supply\r\n    /// @param _governanceToken New governance token\r\n    function updateGovernanceToken(address _governanceToken) external onlyGovernance {\r\n        if (_governanceToken == address(0)) revert InvalidAddress(_governanceToken, \"Invalid governance token\");\r\n        governanceToken = _governanceToken;\r\n        governanceTokenTotalSupply = IERC20Upgradeable(_governanceToken).totalSupply();\r\n        emit GovernanceTokenUpdated(_governanceToken);\r\n        emit GovernanceTokenSupplyUpdated(governanceTokenTotalSupply);\r\n    }\r\n\r\n    /// @notice Updates oracle and relayer for a chain\r\n    /// @param chainId Target chain ID\r\n    /// @param oracle Oracle address\r\n    /// @param relayer Relayer address\r\n    function updateOracleRelayer(uint16 chainId, address oracle, address relayer) external onlyGovernance {\r\n        if (oracle == address(0) || relayer == address(0)) revert InvalidOracleRelayer(oracle, relayer);\r\n        chainOracles[chainId].push(oracle);\r\n        chainRelayers[chainId].push(relayer);\r\n        selectedOracle[chainId] = oracle;\r\n        selectedRelayer[chainId] = relayer;\r\n        emit OracleRelayerUpdated(chainId, oracle, relayer);\r\n    }\r\n\r\n    /// @notice Selects an existing oracle/relayer pair\r\n    /// @param chainId Target chain ID\r\n    /// @param index Index of oracle/relayer pair\r\n    function selectOracleRelayer(uint16 chainId, uint256 index) external onlyGovernance {\r\n        if (index >= chainOracles[chainId].length || index >= chainRelayers[chainId].length)\r\n            revert InvalidOracleRelayer(address(0), address(0));\r\n        selectedOracle[chainId] = chainOracles[chainId][index];\r\n        selectedRelayer[chainId] = chainRelayers[chainId][index];\r\n        emit OracleRelayerUpdated(chainId, selectedOracle[chainId], selectedRelayer[chainId]);\r\n    }\r\n\r\n    /// @notice Updates timelock for a chain\r\n    /// @param chainId Target chain ID\r\n    /// @param timelock New timelock duration\r\n    function updateTimelock(uint16 chainId, uint256 timelock) external onlyGovernance {\r\n        if (timelock < minTimelock || timelock > maxTimelock) revert InvalidTimelock(timelock, minTimelock, maxTimelock);\r\n        timelocks[chainId] = timelock;\r\n        emit TimelockUpdated(chainId, timelock);\r\n    }\r\n\r\n    /// @notice Updates governance timelock\r\n    /// @param _governanceTimelock New timelock\r\n    function updateGovernanceTimelock(uint256 _governanceTimelock) external onlyGovernance {\r\n        if (_governanceTimelock < minTimelock) revert InvalidTimelock(_governanceTimelock, minTimelock, maxTimelock);\r\n        governanceTimelock = _governanceTimelock;\r\n        emit DefaultTimelockUpdated(_governanceTimelock);\r\n    }\r\n\r\n    /// @notice Pauses the contract\r\n    function pause() external onlyGovernance {\r\n        if (paused) revert ContractPaused();\r\n        paused = true;\r\n        emit PauseToggled(true);\r\n    }\r\n\r\n    /// @notice Unpauses the contract\r\n    function unpause() external onlyGovernance {\r\n        if (!paused) revert NotPaused(\"Contract not paused\");\r\n        paused = false;\r\n        emit PauseToggled(false);\r\n    }\r\n\r\n    /// @notice Pauses a specific chain\r\n    /// @param chainId Target chain ID\r\n    function pauseChain(uint16 chainId) external onlyGovernance {\r\n        if (chainPaused[chainId]) revert ChainPaused(chainId);\r\n        chainPaused[chainId] = true;\r\n        emit ChainPausedEvent(chainId, msg.sender);\r\n    }\r\n\r\n    /// @notice Unpauses a chain\r\n    /// @param chainId Target chain ID\r\n    function unpauseChain(uint16 chainId) external onlyGovernance {\r\n        if (!chainPaused[chainId]) revert NotPaused(\"Chain not paused\");\r\n        chainPaused[chainId] = false;\r\n        emit ChainUnpaused(chainId, msg.sender);\r\n    }\r\n\r\n    /// @notice Updates treasury address\r\n    /// @param _treasury New treasury\r\n    function updateTreasury(address _treasury) external onlyGovernance {\r\n        if (_treasury == address(0)) revert InvalidAddress(_treasury, \"Invalid treasury address\");\r\n        treasury = _treasury;\r\n        emit TreasuryUpdated(_treasury);\r\n    }\r\n\r\n    /// @notice Updates LayerZero endpoint\r\n    /// @param _layerZeroEndpoint New endpoint\r\n    function updateLayerZeroEndpoint(address _layerZeroEndpoint) external onlyGovernance {\r\n        if (_layerZeroEndpoint == address(0)) revert InvalidAddress(_layerZeroEndpoint, \"Invalid endpoint\");\r\n        layerZeroEndpoint = _layerZeroEndpoint;\r\n        emit LayerZeroEndpointUpdated(_layerZeroEndpoint);\r\n    }\r\n\r\n    /// @notice Updates default timelock\r\n    /// @param _defaultTimelock New timelock duration\r\n    function updateDefaultTimelock(uint256 _defaultTimelock) external onlyGovernance {\r\n        if (_defaultTimelock < minTimelock || _defaultTimelock > maxTimelock)\r\n            revert InvalidTimelock(_defaultTimelock, minTimelock, maxTimelock);\r\n        defaultTimelock = _defaultTimelock;\r\n        emit DefaultTimelockUpdated(_defaultTimelock);\r\n    }\r\n\r\n    /// @notice Updates target reserve ratio\r\n    /// @param _defaultTargetReserveRatio New target reserve ratio\r\n    function updateDefaultTargetReserveRatio(uint256 _defaultTargetReserveRatio) external onlyGovernance {\r\n        if (_defaultTargetReserveRatio == 0) revert InvalidReserveRatio();\r\n        defaultTargetReserveRatio = _defaultTargetReserveRatio;\r\n        emit DefaultTargetReserveRatioUpdated(_defaultTargetReserveRatio);\r\n    }\r\n\r\n    /// @notice Adds trusted remote factory address\r\n    /// @param chainId Target chain ID\r\n    /// @param factoryAddress Remote factory address\r\n    function addTrustedRemoteFactory(uint16 chainId, bytes memory factoryAddress) external onlyGovernance {\r\n        if (factoryAddress.length == 0) revert InvalidAddress(address(0), \"Invalid factory address\");\r\n        trustedRemoteFactories[chainId] = factoryAddress;\r\n        emit TrustedRemoteFactoryAdded(chainId, factoryAddress);\r\n    }\r\n\r\n    /// @notice Whitelists a governance target\r\n    /// @param target Address to whitelist\r\n    function whitelistGovernanceTarget(address target) external onlyGovernance {\r\n        if (target == address(0)) revert InvalidAddress(target, \"Invalid target address\");\r\n        governanceTargetWhitelist[target] = true;\r\n        emit GovernanceTargetWhitelisted(target);\r\n    }\r\n\r\n    /// @notice Adds a committee member\r\n    /// @param member Address to add\r\n    function addCommitteeMember(address member) external onlyGovernance {\r\n        if (member == address(0)) revert InvalidAddress(member, \"Invalid member address\");\r\n        if (committeeMembers[member]) revert InvalidCommitteeMember(member);\r\n        committeeMembers[member] = true;\r\n        unchecked {\r\n            committeeMemberCount++;\r\n        }\r\n        emit CommitteeMemberAdded(member);\r\n    }\r\n\r\n    /// @notice Removes a committee member\r\n    /// @param member Address to remove\r\n    function removeCommitteeMember(address member) external onlyGovernance {\r\n        if (!committeeMembers[member]) revert InvalidCommitteeMember(member);\r\n        if (committeeMemberCount <= MIN_COMMITTEE_APPROVALS) revert InvalidAmount(\"Minimum committee members required\");\r\n        committeeMembers[member] = false;\r\n        unchecked {\r\n            committeeMemberCount--;\r\n        }\r\n        emit CommitteeMemberRemoved(member);\r\n    }\r\n\r\n    /// @notice Updates governance token total supply\r\n    function updateGovernanceTokenSupply() external onlyGovernance {\r\n        uint256 newSupply = IERC20Upgradeable(governanceToken).totalSupply();\r\n        governanceTokenTotalSupply = newSupply;\r\n        emit GovernanceTokenSupplyUpdated(newSupply);\r\n    }\r\n\r\n    /// @notice Proposes emergency flag toggle\r\n    /// @param enableOracleOverride Whether to enable oracle override\r\n    /// @param enableCircuitBreaker Whether to enable circuit breaker\r\n    /// @return proposalId The ID of the proposal\r\n    function proposeEmergencyFlagToggle(\r\n        bool enableOracleOverride,\r\n        bool enableCircuitBreaker\r\n    ) external onlyGovernance returns (uint256) {\r\n        uint256 proposalId;\r\n        unchecked {\r\n            proposalId = emergencyFlagProposalCount++;\r\n        }\r\n        emergencyFlagProposals[proposalId] = EmergencyFlagProposal({\r\n            oracleOverride: enableOracleOverride,\r\n            circuitBreaker: enableCircuitBreaker,\r\n            proposedAt: block.timestamp\r\n        });\r\n        emit EmergencyFlagProposed(proposalId, enableOracleOverride, enableCircuitBreaker, block.timestamp);\r\n        return proposalId;\r\n    }\r\n\r\n    /// @notice Executes emergency flag toggle\r\n    /// @param proposalId ID of the proposal\r\n    function executeEmergencyFlagToggle(uint256 proposalId) external onlyGovernance {\r\n        EmergencyFlagProposal storage proposal = emergencyFlagProposals[proposalId];\r\n        if (proposal.proposedAt == 0) revert ProposalNotFound(proposalId);\r\n        if (block.timestamp < proposal.proposedAt + governanceTimelock)\r\n            revert ProposalNotReady(proposalId, \"Timelock not elapsed\");\r\n        oracleOverride = proposal.oracleOverride;\r\n        crossChainCircuitBreaker = proposal.circuitBreaker;\r\n        emit OracleOverrideToggled(proposal.oracleOverride);\r\n        emit CircuitBreakerToggled(proposal.circuitBreaker);\r\n        delete emergencyFlagProposals[proposalId];\r\n    }\r\n\r\n    /// @notice Updates fallback oracles\r\n    /// @param chainId Target chain ID\r\n    /// @param oracles Array of fallback oracles\r\n    function updateFallbackOracles(uint16 chainId, address[] memory oracles) external onlyGovernance {\r\n        uint256 length = oracles.length;\r\n        for (uint256 i = 0; i < length; ) {\r\n            if (oracles[i] == address(0) || !oracles[i].isContract())\r\n                revert InvalidAddress(oracles[i], \"Invalid oracle address\");\r\n            unchecked { ++i; }\r\n        }\r\n        fallbackOracles[chainId] = oracles;\r\n        emit FallbackOraclesUpdated(chainId, oracles);\r\n    }\r\n\r\n    /// @notice Updates proposal cooldown\r\n    /// @param _proposalCooldown New cooldown period\r\n    function updateProposalCooldown(uint256 _proposalCooldown) external onlyGovernance {\r\n        if (_proposalCooldown < 1 days) revert InvalidAmount(\"Cooldown too short\");\r\n        proposalCooldown = _proposalCooldown;\r\n        emit ProposalCooldownUpdated(_proposalCooldown);\r\n    }\r\n\r\n    /// @notice Updates proposal fee\r\n    /// @param fee New fee\r\n    function updateProposalFee(uint256 fee) external onlyGovernance {\r\n        proposalFee = fee;\r\n        emit ProposalFeeUpdated(fee);\r\n    }\r\n\r\n    /// @notice Cleans up storage\r\n    /// @param messageIds Array of failed message IDs\r\n    /// @param proposalIds Array of proposal IDs\r\n    function cleanupStorage(uint256[] calldata messageIds, uint256[] calldata proposalIds) external onlyGovernance {\r\n        uint256 msgLength = messageIds.length;\r\n        for (uint256 i = 0; i < msgLength; ) {\r\n            if (failedMessages[messageIds[i]].dstChainId != 0) {\r\n                delete failedMessages[messageIds[i]];\r\n                emit FailedMessageCleared(messageIds[i]);\r\n            }\r\n            unchecked { ++i; }\r\n        }\r\n        uint256 propLength = proposalIds.length;\r\n        for (uint256 i = 0; i < propLength; ) {\r\n            GovernanceProposal storage proposal = governanceProposals[proposalIds[i]];\r\n            if (\r\n                proposal.target != address(0)\r\n                    && (proposal.executed || proposal.cancelled\r\n                        || block.timestamp > proposal.proposedAt + votingPeriod + governanceTimelock)\r\n            ) {\r\n                delete governanceProposals[proposalIds[i]];\r\n                emit GovernanceProposalCleared(proposalIds[i]);\r\n            }\r\n            unchecked { ++i; }\r\n        }\r\n    }\r\n\r\n    /// @notice Creates a single AMM pool\r\n    /// @param tokenA Token A address\r\n    /// @param tokenB Token B address\r\n    /// @param primaryPriceOracle Primary oracle address\r\n    /// @param chainId Target chain ID\r\n    /// @param adapterParams LayerZero adapter parameters\r\n    /// @param customSalt Custom salt for CREATE2\r\n    /// @return pool Created pool address\r\n    function _createSinglePool(\r\n        address tokenA,\r\n        address tokenB,\r\n        address primaryPriceOracle,\r\n        uint16 chainId,\r\n        bytes memory adapterParams,\r\n        bytes32 customSalt\r\n    ) internal returns (address payable pool) {\r\n        if (customSalt != bytes32(0)) {\r\n            bytes32 computedSalt = keccak256(abi.encodePacked(tokenA, tokenB, chainId, customSalt));\r\n            if (computedSalt == bytes32(0)) revert InvalidSalt();\r\n        }\r\n\r\n        (address token0, address token1) = tokenA < tokenB ? (tokenA, tokenB) : (tokenB, tokenA);\r\n        if (getPool[token0][token1] != address(0)) revert PoolAlreadyExists();\r\n\r\n        bytes32 salt = customSalt == bytes32(0) ? keccak256(abi.encodePacked(token0, token1, chainId)) : customSalt;\r\n        pool = payable(new AMMPool{ salt: salt }());\r\n        if (!Address.isContract(pool)) revert InvalidAddress(pool, \"Pool creation failed\");\r\n\r\n        AMMPool(pool).initialize(\r\n            token0,\r\n            token1,\r\n            treasury,\r\n            layerZeroEndpoint,\r\n            treasury,\r\n            primaryPriceOracle,\r\n            new address[](0),\r\n            address(this),\r\n            defaultTimelock,\r\n            defaultTargetReserveRatio\r\n        );\r\n\r\n        _updatePoolStorage(token0, token1, pool);\r\n\r\n        if (chainId != localChainId) {\r\n            _sendCrossChainNotification(token0, token1, pool, primaryPriceOracle, chainId, adapterParams);\r\n        }\r\n\r\n        emit PoolCreated(token0, token1, pool, primaryPriceOracle, fallbackOracles[chainId], chainId, salt);\r\n    }\r\n\r\n    /// @notice Updates pool storage\r\n    /// @param token0 First token address\r\n    /// @param token1 Second token address\r\n    /// @param pool Pool address\r\n    function _updatePoolStorage(address token0, address token1, address pool) internal {\r\n        getPool[token0][token1] = pool;\r\n        allPools.push(pool);\r\n    }\r\n\r\n    /// @notice Sends cross-chain notification\r\n    /// @param token0 First token address\r\n    /// @param token1 Second token address\r\n    /// @param pool Pool address\r\n    /// @param primaryPriceOracle Primary price oracle address\r\n    /// @param chainId Target chain ID\r\n    /// @param adapterParams LayerZero adapter parameters\r\n    function _sendCrossChainNotification(\r\n        address token0,\r\n        address token1,\r\n        address pool,\r\n        address primaryPriceOracle,\r\n        uint16 chainId,\r\n        bytes memory adapterParams\r\n    ) internal {\r\n        bytes memory payload = abi.encode(token0, token1, pool);\r\n        _validateAdapterParams(adapterParams);\r\n        (uint256 nativeFee, ) = ICustomLayerZeroEndpoint(layerZeroEndpoint).estimateFees(\r\n            chainId,\r\n            address(this),\r\n            payload,\r\n            false,\r\n            adapterParams\r\n        );\r\n        if (msg.value < nativeFee) revert InsufficientFee(msg.value, nativeFee);\r\n\r\n        bool success = ICustomLayerZeroEndpoint(layerZeroEndpoint).send{ value: nativeFee }(\r\n            chainId,\r\n            abi.encodePacked(trustedRemoteFactories[chainId], address(this)),\r\n            payload,\r\n            payable(msg.sender),\r\n            address(0),\r\n            adapterParams\r\n        );\r\n        if (success) {\r\n            if (msg.value > nativeFee) {\r\n                AddressUpgradeable.sendValue(payable(msg.sender), msg.value - nativeFee);\r\n            }\r\n        } else {\r\n            unchecked {\r\n                failedMessages[failedMessageCount++] = FailedMessage({\r\n                    dstChainId: chainId,\r\n                    payload: payload,\r\n                    adapterParams: adapterParams,\r\n                    retries: 0,\r\n                    timestamp: block.timestamp,\r\n                    nextRetryTimestamp: block.timestamp + 1 hours\r\n                });\r\n                emit FailedMessageStored(failedMessageCount - 1, chainId, payload);\r\n            }\r\n        }\r\n    }\r\n\r\n    /// @notice Validates adapter parameters\r\n    /// @param adapterParams LayerZero adapter parameters\r\n    function _validateAdapterParams(bytes memory adapterParams) internal view {\r\n        if (adapterParams.length < 34) revert InvalidAdapterParams(\"Adapter params too short\");\r\n        (uint16 version, uint256 gasLimit, , address relayer) = abi.decode(adapterParams, (uint16, uint256, uint256, address));\r\n        if (version != 1 || gasLimit < minGasLimit) revert InvalidGasLimit(gasLimit, minGasLimit);\r\n        if (relayer == address(0)) revert InvalidAddress(relayer, \"\");\r\n    }\r\n\r\n    /// @notice Validates token contracts\r\n    /// @param tokenA First token address\r\n    /// @param tokenB Second token address\r\n    function _validateTokens(address tokenA, address tokenB) internal view {\r\n        if (tokenA == address(0) || tokenB == address(0)) revert InvalidTokenAddress(\"Zero address not allowed\");\r\n        if (tokenA == tokenB) revert IdenticalTokens();\r\n        if (!tokenA.isContract() || !tokenB.isContract())\r\n            revert InvalidTokenContract(tokenA.isContract() ? tokenB : tokenA, \"Not a contract\");\r\n        try IERC20Upgradeable(tokenA).totalSupply() {} catch {\r\n            revert InvalidTokenContract(tokenA, \"Invalid ERC20\");\r\n        }\r\n        try IERC20Upgradeable(tokenB).totalSupply() {} catch {\r\n            revert InvalidTokenContract(tokenB, \"Invalid ERC20\");\r\n        }\r\n        try IERC20MetadataUpgradeable(tokenA).decimals() returns (uint8 decimals) {\r\n            if (decimals > 255) revert InvalidTokenContract(tokenA, \"Decimals out of uint8 range\");\r\n        } catch {\r\n            revert InvalidTokenContract(tokenA, \"Missing decimals\");\r\n        }\r\n        try IERC20MetadataUpgradeable(tokenB).decimals() returns (uint8 decimals) {\r\n            if (decimals > 255) revert InvalidTokenContract(tokenB, \"Decimals out of uint8 range\");\r\n        } catch {\r\n            revert InvalidTokenContract(tokenB, \"Missing decimals\");\r\n        }\r\n    }\r\n\r\n    /// @notice Validates oracles\r\n    /// @param primaryOracle Primary oracle address\r\n    /// @param chainId Chain ID\r\n    /// @param tokenA First token address\r\n    /// @param tokenB Second token address\r\n    function _validateOracles(address primaryOracle, uint16 chainId, address tokenA, address tokenB) internal {\r\n    if (oracleOverride) return;\r\n\r\n    bool primaryValid;\r\n    uint8 primaryDecimals;\r\n    (primaryValid, primaryDecimals) = _validatePrimaryOracle(primaryOracle, tokenA, tokenB);\r\n    bool fallbackValid = _validateFallbackOracles(chainId, tokenA, tokenB, primaryValid, primaryDecimals);\r\n\r\n    if (!primaryValid && !fallbackValid) revert NoOracleAvailable();\r\n}\r\n\r\nfunction _validatePrimaryOracle(address primaryOracle, address tokenA, address tokenB)\r\n    internal returns (bool primaryValid, uint8 primaryDecimals) {\r\n    if (primaryOracle == address(0) || !primaryOracle.isContract()) return (false, 0);\r\n    \r\n    try IChainlinkOracle(primaryOracle).latestRoundData() returns (\r\n        uint80, int256, uint256, uint256 updatedAt, uint80\r\n    ) {\r\n        if (block.timestamp > updatedAt + maxOracleStaleness) {\r\n            emit OracleValidationFailed(uint256(uint160(primaryOracle)), \"Stale data\");\r\n            return (false, 0);\r\n        }\r\n        primaryDecimals = IChainlinkOracle(primaryOracle).decimals();\r\n        try IChainlinkOracle(primaryOracle).getPair() returns (address oracleTokenA, address oracleTokenB) {\r\n            primaryValid = (oracleTokenA == tokenA && oracleTokenB == tokenB)\r\n                || (oracleTokenA == tokenB && oracleTokenB == tokenA);\r\n            if (!primaryValid) {\r\n                emit OracleValidationFailed(uint256(uint160(primaryOracle)), \"Invalid token pair\");\r\n            }\r\n        } catch {\r\n            emit OracleValidationFailed(uint256(uint160(primaryOracle)), \"Failed to fetch token pair\");\r\n        }\r\n    } catch {\r\n        emit OracleValidationFailed(uint256(uint160(primaryOracle)), \"Failed to fetch data\");\r\n    }\r\n}\r\n\r\nfunction _validateFallbackOracles(\r\n    uint16 chainId,\r\n    address tokenA,\r\n    address tokenB,\r\n    bool primaryValid,\r\n    uint8 primaryDecimals\r\n) internal returns (bool fallbackValid) {\r\n    address[] memory fallbacks = fallbackOracles[chainId];\r\n    uint256 length = fallbacks.length;\r\n    for (uint256 i = 0; i < length; ) {\r\n        address fallbackOracle = fallbacks[i];\r\n        if (fallbackOracle != address(0) && fallbackOracle.isContract()) {\r\n            try IChainlinkOracle(fallbackOracle).latestRoundData() returns (\r\n                uint80, int256, uint256, uint256 updatedAt, uint80\r\n            ) {\r\n                if (block.timestamp <= updatedAt + maxOracleStaleness) {\r\n                    uint8 fallbackDecimals = IChainlinkOracle(fallbackOracle).decimals();\r\n                    try IChainlinkOracle(fallbackOracle).getPair() returns (address oracleTokenA, address oracleTokenB) {\r\n                        if (\r\n                            (oracleTokenA == tokenA && oracleTokenB == tokenB)\r\n                                || (oracleTokenA == tokenB && oracleTokenB == tokenA)\r\n                        ) {\r\n                            if (primaryValid && primaryDecimals != fallbackDecimals) {\r\n                                revert OraclePrecisionMismatch(primaryDecimals, fallbackDecimals);\r\n                            }\r\n                            fallbackValid = true;\r\n                        } else {\r\n                            emit OracleValidationFailed(uint256(uint160(fallbackOracle)), \"Invalid token pair\");\r\n                        }\r\n                    } catch {\r\n                        emit OracleValidationFailed(uint256(uint160(fallbackOracle)), \"Failed to fetch token pair\");\r\n                    }\r\n                } else {\r\n                    emit OracleValidationFailed(uint256(uint160(fallbackOracle)), \"Stale data\");\r\n                }\r\n            } catch {\r\n                emit OracleValidationFailed(uint256(uint160(fallbackOracle)), \"Failed to fetch data\");\r\n            }\r\n        }\r\n        unchecked { ++i; }\r\n    }\r\n}\r\n    /// @notice Gets effective voter address\r\n    /// @param account Address to check\r\n    /// @return Effective voter address\r\n    function _getVoter(address account) internal view returns (address) {\r\n        Delegation storage delegation = voteDelegate[account];\r\n        if (delegation.delegate != address(0) && (delegation.expiry == 0 || delegation.expiry > block.timestamp)) {\r\n            return delegation.delegate;\r\n        }\r\n        return account;\r\n    }\r\n\r\n    /// @notice Handles voting logic\r\n    /// @param proposalId Proposal ID\r\n    /// @param inFavor Whether to vote in favor\r\n    /// @param voter Voter address\r\n    function _voteGovernanceUpdate(uint256 proposalId, bool inFavor, address voter) internal {\r\n        GovernanceProposal storage proposal = governanceProposals[proposalId];\r\n        if (proposal.target == address(0)) revert ProposalNotFound(proposalId);\r\n        if (proposal.votingClosed || proposal.executed || proposal.cancelled) revert VotingClosed();\r\n        if (block.timestamp > proposal.proposedAt + votingPeriod) {\r\n            proposal.votingClosed = true;\r\n            emit VotingClosedEvent(proposalId);\r\n            revert VotingClosed();\r\n        }\r\n        if (hasVoted[proposalId][voter]) revert AlreadyVoted();\r\n\r\n        uint256 power = IERC20Upgradeable(governanceToken).balanceOf(voter);\r\n        if (power == 0) revert InsufficientVotingPower(power, 0);\r\n\r\n        hasVoted[proposalId][voter] = true;\r\n        if (inFavor) {\r\n            proposal.votesFor += power;\r\n        } else {\r\n            proposal.votesAgainst += power;\r\n        }\r\n        emit Voted(proposalId, voter, inFavor, power);\r\n    }\r\n\r\n    /// @notice Allows receiving Ether\r\n    receive() external payable {}\r\n}",
  "sourcePath": "C:\\Users\\DR. EMMA\\my-project\\lumora\\contracts\\Pool factory.sol",
  "compiler": {
    "name": "solc",
    "version": "0.8.24+commit.e11b9ed9.Emscripten.clang"
  },
  "schemaVersion": "3.4.16",
  "updatedAt": "2025-06-04T21:49:36.898Z",
  "devdoc": {
    "details": "Uses UUPS upgradeability, ReentrancyGuard, and Chainlink oracles for secure pool deployment",
    "errors": {
      "InvalidTokenAddress(string)": [
        {
          "custom:errors": ""
        }
      ]
    },
    "events": {
      "AdminChanged(address,address)": {
        "details": "Emitted when the admin account has changed."
      },
      "BeaconUpgraded(address)": {
        "details": "Emitted when the beacon is changed."
      },
      "Initialized(uint8)": {
        "details": "Triggered when the contract has been initialized or reinitialized."
      },
      "Upgraded(address)": {
        "details": "Emitted when the implementation is upgraded."
      }
    },
    "kind": "dev",
    "methods": {
      "addCommitteeMember(address)": {
        "params": {
          "member": "Address to add"
        }
      },
      "addTrustedRemoteFactory(uint16,bytes)": {
        "params": {
          "chainId": "Target chain ID",
          "factoryAddress": "Remote factory address"
        }
      },
      "allPoolsLength()": {
        "returns": {
          "_0": "Number of pools"
        }
      },
      "approveUpgrade(uint256)": {
        "params": {
          "upgradeId": "ID of the proposed upgrade"
        }
      },
      "batchCreatePools(address[2][],address[],uint16[],bytes[],bytes32[])": {
        "params": {
          "adapterParams": "Array of LayerZero adapter parameters",
          "chainIds": "Array of target chain IDs",
          "customSalts": "Array of custom salts",
          "primaryPriceOracles": "Array of primary oracles",
          "tokens": "Array of token pairs"
        },
        "returns": {
          "pools": "Array of created pool addresses"
        }
      },
      "batchVoteProposals(uint256[],bool[])": {
        "params": {
          "inFavor": "Array of vote preferences",
          "proposalIds": "Array of proposal IDs"
        }
      },
      "cancelGovernanceProposal(uint256)": {
        "params": {
          "proposalId": "ID of the proposal to cancel"
        }
      },
      "cleanupStorage(uint256[],uint256[])": {
        "params": {
          "messageIds": "Array of failed message IDs",
          "proposalIds": "Array of proposal IDs"
        }
      },
      "createPool(address,address,address,uint16,bytes,bytes32)": {
        "params": {
          "adapterParams": "LayerZero adapter parameters",
          "chainId": "Target chain ID",
          "customSalt": "Custom salt for CREATE2",
          "primaryPriceOracle": "Primary Chainlink oracle address",
          "tokenA": "First token address",
          "tokenB": "Second token address"
        },
        "returns": {
          "pool": "Address of the created pool"
        }
      },
      "decodePayload(bytes)": {
        "params": {
          "payload": "Bytes data to decode"
        },
        "returns": {
          "pool": "Pool address",
          "tokenA": "First token address",
          "tokenB": "Second token address"
        }
      },
      "delegateVote(address,uint256)": {
        "params": {
          "delegate": "Address to delegate to",
          "expiry": "Delegation expiry timestamp"
        }
      },
      "executeEmergencyFlagToggle(uint256)": {
        "params": {
          "proposalId": "ID of the proposal"
        }
      },
      "executeGovernanceProposal(uint256)": {
        "params": {
          "proposalId": "ID of the proposal to execute"
        }
      },
      "getAllPools(uint256,uint256)": {
        "params": {
          "end": "End index",
          "start": "Start index"
        },
        "returns": {
          "pools": "Array of pool addresses"
        }
      },
      "initialize(address,address,address,uint256,uint256,uint256,uint256,uint256,uint32,address[])": {
        "params": {
          "_defaultTargetReserveRatio": "Default reserve ratio (1e18 precision)",
          "_defaultTimelock": "Default timelock for cross-chain operations",
          "_governanceToken": "Governance token for voting",
          "_initialCommittee": "Initial committee members for multi-sig",
          "_layerZeroEndpoint": "LayerZero endpoint for cross-chain operations",
          "_maxOracleStaleness": "Maximum oracle data staleness",
          "_minimumProposalPower": "Minimum voting power to propose",
          "_quorumThreshold": "Quorum threshold (1e18 precision)",
          "_treasury": "Treasury address for fee collection",
          "_votingPeriod": "Duration of voting period in seconds"
        }
      },
      "owner()": {
        "details": "Returns the address of the current owner."
      },
      "pauseChain(uint16)": {
        "params": {
          "chainId": "Target chain ID"
        }
      },
      "poolExists(address,address)": {
        "params": {
          "tokenA": "First token address",
          "tokenB": "Second token address"
        },
        "returns": {
          "exists": "True if pool exists"
        }
      },
      "predictPoolAddress(address,address,uint16,bytes32)": {
        "params": {
          "chainId": "Target chain ID",
          "customSalt": "Custom salt for CREATE2",
          "tokenA": "First token address",
          "tokenB": "Second token address"
        },
        "returns": {
          "pool": "Predicted pool address"
        }
      },
      "proposeEmergencyFlagToggle(bool,bool)": {
        "params": {
          "enableCircuitBreaker": "Whether to enable circuit breaker",
          "enableOracleOverride": "Whether to enable oracle override"
        },
        "returns": {
          "_0": "proposalId The ID of the proposal"
        }
      },
      "proposeGovernanceUpdate(address,bytes,uint256)": {
        "params": {
          "data": "Call data for the proposal",
          "impactLevel": "Impact level for dynamic timelock (1=low, 2=medium, 3=high)",
          "target": "Target contract address"
        },
        "returns": {
          "_0": "proposalId The ID of the created proposal"
        }
      },
      "proposeUpgrade(address)": {
        "params": {
          "newImplementation": "Address of the new implementation contract"
        },
        "returns": {
          "_0": "upgradeId ID of the proposed upgrade"
        }
      },
      "proxiableUUID()": {
        "details": "Implementation of the ERC1822 {proxiableUUID} function. This returns the storage slot used by the implementation. It is used to validate the implementation's compatibility when performing an upgrade. IMPORTANT: A proxy pointing at a proxiable contract should not be considered proxiable itself, because this risks bricking a proxy that upgrades to it, by delegating to itself until out of gas. Thus it is critical that this function revert if invoked through a proxy. This is guaranteed by the `notDelegated` modifier."
      },
      "receiveCrossChainPoolUpdate(uint16,bytes,uint64,bytes)": {
        "params": {
          "nonce": "Unique nonce for the message",
          "payload": "Encoded pool data",
          "srcAddress": "Source factory address",
          "srcChainId": "Source chain ID"
        }
      },
      "recoverFailedMessage(uint256,address)": {
        "params": {
          "messageId": "ID of the failed message",
          "recipient": "Address to receive refunded funds"
        }
      },
      "removeCommitteeMember(address)": {
        "params": {
          "member": "Address to remove"
        }
      },
      "renounceOwnership()": {
        "details": "Leaves the contract without owner. It will not be possible to call `onlyOwner` functions. Can only be called by the current owner. NOTE: Renouncing ownership will leave the contract without an owner, thereby disabling any functionality that is only available to the owner."
      },
      "retryFailedMessage(uint256)": {
        "params": {
          "messageId": "ID of the failed message"
        }
      },
      "selectOracleRelayer(uint16,uint256)": {
        "params": {
          "chainId": "Target chain ID",
          "index": "Index of oracle/relayer pair"
        }
      },
      "syncCrossChain(uint16,bytes,uint64)": {
        "params": {
          "adapterParams": "LayerZero adapter parameters",
          "chainId": "Target chain ID",
          "nonce": "Unique nonce for the message"
        }
      },
      "transferOwnership(address)": {
        "details": "Transfers ownership of the contract to a new account (`newOwner`). Can only be called by the current owner."
      },
      "unpauseChain(uint16)": {
        "params": {
          "chainId": "Target chain ID"
        }
      },
      "updateDefaultTargetReserveRatio(uint256)": {
        "params": {
          "_defaultTargetReserveRatio": "New target reserve ratio"
        }
      },
      "updateDefaultTimelock(uint256)": {
        "params": {
          "_defaultTimelock": "New timelock duration"
        }
      },
      "updateFallbackOracles(uint16,address[])": {
        "params": {
          "chainId": "Target chain ID",
          "oracles": "Array of fallback oracles"
        }
      },
      "updateGovernanceParameters(uint32,uint32,uint32,uint32,uint32,uint32)": {
        "params": {
          "_maxBatchSize": "Maximum batch size",
          "_maxOracleStaleness": "Maximum staleness",
          "_maxRetries": "Maximum retries for failed messages",
          "_maxTimelock": "Maximum timelock",
          "_minGasLimit": "Minimum gas limit",
          "_minTimelock": "Minimum timelock"
        }
      },
      "updateGovernanceTimelock(uint256)": {
        "params": {
          "_governanceTimelock": "New timelock"
        }
      },
      "updateGovernanceToken(address)": {
        "params": {
          "_governanceToken": "New governance token"
        }
      },
      "updateLayerZeroEndpoint(address)": {
        "params": {
          "_layerZeroEndpoint": "New endpoint"
        }
      },
      "updateOracleRelayer(uint16,address,address)": {
        "params": {
          "chainId": "Target chain ID",
          "oracle": "Oracle address",
          "relayer": "Relayer address"
        }
      },
      "updateProposalCooldown(uint256)": {
        "params": {
          "_proposalCooldown": "New cooldown period"
        }
      },
      "updateProposalFee(uint256)": {
        "params": {
          "fee": "New fee"
        }
      },
      "updateTimelock(uint16,uint256)": {
        "params": {
          "chainId": "Target chain ID",
          "timelock": "New timelock duration"
        }
      },
      "updateTreasury(address)": {
        "params": {
          "_treasury": "New treasury"
        }
      },
      "updateVotingParameters(uint256,uint256,uint256)": {
        "params": {
          "_minimumProposalPower": "Minimum voting power",
          "_quorumThreshold": "New quorum threshold",
          "_votingPeriod": "New voting period"
        }
      },
      "upgradeTo(address)": {
        "custom:oz-upgrades-unsafe-allow-reachable": "delegatecall",
        "details": "Upgrade the implementation of the proxy to `newImplementation`. Calls {_authorizeUpgrade}. Emits an {Upgraded} event."
      },
      "upgradeToAndCall(address,bytes)": {
        "custom:oz-upgrades-unsafe-allow-reachable": "delegatecall",
        "details": "Upgrade the implementation of the proxy to `newImplementation`, and subsequently execute the function call encoded in `data`. Calls {_authorizeUpgrade}. Emits an {Upgraded} event."
      },
      "vote(uint256,bool)": {
        "params": {
          "inFavor": "Whether to vote in favor",
          "proposalId": "ID of the proposal"
        }
      },
      "whitelistGovernanceTarget(address)": {
        "params": {
          "target": "Address to whitelist"
        }
      }
    },
    "title": "PoolFactory - An upgradeable factory for deploying AMM pools with CREATE2",
    "version": 1
  },
  "userdoc": {
    "events": {
      "PoolCreated(address,address,address,address,address[],uint16,bytes32)": {
        "notice": "Events"
      }
    },
    "kind": "user",
    "methods": {
      "addCommitteeMember(address)": {
        "notice": "Adds a committee member"
      },
      "addTrustedRemoteFactory(uint16,bytes)": {
        "notice": "Adds trusted remote factory address"
      },
      "allPools(uint256)": {
        "notice": "Tracks all created pools"
      },
      "allPoolsLength()": {
        "notice": "Gets the number of pools created"
      },
      "approveUpgrade(uint256)": {
        "notice": "Approves a proposed upgrade"
      },
      "batchCreatePools(address[2][],address[],uint16[],bytes[],bytes32[])": {
        "notice": "Creates multiple AMM pools in a single transaction"
      },
      "batchVoteProposals(uint256[],bool[])": {
        "notice": "Batch votes on multiple proposals"
      },
      "cancelGovernanceProposal(uint256)": {
        "notice": "Cancels a governance proposal"
      },
      "chainOracles(uint16,uint256)": {
        "notice": "Available LayerZero oracles/relayers"
      },
      "chainPaused(uint16)": {
        "notice": "Chain-specific pause status"
      },
      "cleanupStorage(uint256[],uint256[])": {
        "notice": "Cleans up storage"
      },
      "committeeMembers(address)": {
        "notice": "Multi-signature committee for critical actions"
      },
      "constructor": {
        "notice": "Disable constructor for upgradeable contracts"
      },
      "createPool(address,address,address,uint16,bytes,bytes32)": {
        "notice": "Creates a new AMM pool for a token pair using CREATE2"
      },
      "crossChainCircuitBreaker()": {
        "notice": "Circuit breaker for cross-chain operations"
      },
      "decodePayload(bytes)": {
        "notice": "Helper function to decode payload"
      },
      "defaultTargetReserveRatio()": {
        "notice": "Default target reserve ratio (in 1e18 precision)"
      },
      "defaultTimelock()": {
        "notice": "Default timelock duration for cross-chain operations (in seconds)"
      },
      "delegateVote(address,uint256)": {
        "notice": "Delegates voting power to another address with optional expiry"
      },
      "executeEmergencyFlagToggle(uint256)": {
        "notice": "Executes emergency flag toggle"
      },
      "executeGovernanceProposal(uint256)": {
        "notice": "Executes a governance proposal"
      },
      "fallbackOracles(uint16,uint256)": {
        "notice": "Fallback oracles per chain"
      },
      "getAllPools(uint256,uint256)": {
        "notice": "Gets all created pools with pagination"
      },
      "getPool(address,address)": {
        "notice": "Mapping to store pool addresses for token pairs (token0 => token1 => pool)"
      },
      "governanceTargetWhitelist(address)": {
        "notice": "Whitelist of allowed governance target addresses"
      },
      "governanceTimelock()": {
        "notice": "Governance timelock delay"
      },
      "governanceToken()": {
        "notice": "Governance token for voting power"
      },
      "governanceTokenTotalSupply()": {
        "notice": "Total supply of governance token for percentage-based quorum"
      },
      "hasVoted(uint256,address)": {
        "notice": "Tracks votes for proposals"
      },
      "initialize(address,address,address,uint256,uint256,uint256,uint256,uint256,uint32,address[])": {
        "notice": "Initializes the factory"
      },
      "lastProposalTime(address)": {
        "notice": "Tracks last proposal submission time per address"
      },
      "layerZeroEndpoint()": {
        "notice": "LayerZero endpoint address for cross-chain operations"
      },
      "localChainId()": {
        "notice": "Local chain ID for cross-chain operations"
      },
      "minTimelock()": {
        "notice": "Configurable constants"
      },
      "minimumProposalPower()": {
        "notice": "Minimum voting power required to propose"
      },
      "oracleOverride()": {
        "notice": "Oracle override flag for emergency use"
      },
      "pause()": {
        "notice": "Pauses the contract"
      },
      "pauseChain(uint16)": {
        "notice": "Pauses a specific chain"
      },
      "paused()": {
        "notice": "Global pause status"
      },
      "poolExists(address,address)": {
        "notice": "Validates if a pool exists for a token pair"
      },
      "predictPoolAddress(address,address,uint16,bytes32)": {
        "notice": "Predicts the deterministic address for a pool"
      },
      "proposalCooldown()": {
        "notice": "Proposal submission cooldown period (in seconds)"
      },
      "proposalFee()": {
        "notice": "Proposal submission fee (in native tokens)"
      },
      "proposeEmergencyFlagToggle(bool,bool)": {
        "notice": "Proposes emergency flag toggle"
      },
      "proposeGovernanceUpdate(address,bytes,uint256)": {
        "notice": "Proposes a governance update"
      },
      "proposeUpgrade(address)": {
        "notice": "Proposes a contract upgrade"
      },
      "quorumThreshold()": {
        "notice": "Quorum threshold as a percentage of total supply (in 1e18 precision)"
      },
      "receiveCrossChainPoolUpdate(uint16,bytes,uint64,bytes)": {
        "notice": "Receives cross-chain pool updates"
      },
      "recoverFailedMessage(uint256,address)": {
        "notice": "Recovers a failed cross-chain message after max retries"
      },
      "removeCommitteeMember(address)": {
        "notice": "Removes a committee member"
      },
      "retryFailedMessage(uint256)": {
        "notice": "Retries a failed cross-chain message with exponential backoff"
      },
      "revokeDelegation()": {
        "notice": "Revokes vote delegation"
      },
      "selectOracleRelayer(uint16,uint256)": {
        "notice": "Selects an existing oracle/relayer pair"
      },
      "selectedOracle(uint16)": {
        "notice": "Selected oracle/relayer per chain"
      },
      "syncCrossChain(uint16,bytes,uint64)": {
        "notice": "Synchronizes pool data with a remote chain"
      },
      "timelocks(uint16)": {
        "notice": "Chain-specific timelocks for reorg protection"
      },
      "treasury()": {
        "notice": "Treasury address for fee collection"
      },
      "trustedRemoteFactories(uint16)": {
        "notice": "Trusted remote factory addresses by chain ID"
      },
      "unpause()": {
        "notice": "Unpauses the contract"
      },
      "unpauseChain(uint16)": {
        "notice": "Unpauses a chain"
      },
      "updateDefaultTargetReserveRatio(uint256)": {
        "notice": "Updates target reserve ratio"
      },
      "updateDefaultTimelock(uint256)": {
        "notice": "Updates default timelock"
      },
      "updateFallbackOracles(uint16,address[])": {
        "notice": "Updates fallback oracles"
      },
      "updateGovernanceParameters(uint32,uint32,uint32,uint32,uint32,uint32)": {
        "notice": "Updates configuration parameters"
      },
      "updateGovernanceTimelock(uint256)": {
        "notice": "Updates governance timelock"
      },
      "updateGovernanceToken(address)": {
        "notice": "Updates governance token and supply"
      },
      "updateGovernanceTokenSupply()": {
        "notice": "Updates governance token total supply"
      },
      "updateLayerZeroEndpoint(address)": {
        "notice": "Updates LayerZero endpoint"
      },
      "updateOracleRelayer(uint16,address,address)": {
        "notice": "Updates oracle and relayer for a chain"
      },
      "updateProposalCooldown(uint256)": {
        "notice": "Updates proposal cooldown"
      },
      "updateProposalFee(uint256)": {
        "notice": "Updates proposal fee"
      },
      "updateTimelock(uint16,uint256)": {
        "notice": "Updates timelock for a chain"
      },
      "updateTreasury(address)": {
        "notice": "Updates treasury address"
      },
      "updateVotingParameters(uint256,uint256,uint256)": {
        "notice": "Updates the voting parameters"
      },
      "usedNonces(uint16,uint64)": {
        "notice": "Nonces for cross-chain sync to prevent replays"
      },
      "vote(uint256,bool)": {
        "notice": "Votes on a governance proposal"
      },
      "votingPeriod()": {
        "notice": "Voting period for proposals (in seconds)"
      },
      "whitelistGovernanceTarget(address)": {
        "notice": "Whitelists a governance target"
      }
    },
    "notice": "Creates and manages AMM pools with deterministic addresses, cross-chain support, and enhanced governance",
    "version": 1
  }
}