{
  "contractName": "PriceOracle",
  "abi": [
    {
      "inputs": [
        {
          "internalType": "address",
          "name": "_vrfCoordinator",
          "type": "address"
        }
      ],
      "stateMutability": "nonpayable",
      "type": "constructor"
    },
    {
      "inputs": [],
      "name": "ContractPaused",
      "type": "error"
    },
    {
      "inputs": [
        {
          "internalType": "address",
          "name": "asset",
          "type": "address"
        }
      ],
      "name": "FeedDeviationTooHigh",
      "type": "error"
    },
    {
      "inputs": [
        {
          "internalType": "address",
          "name": "pool",
          "type": "address"
        }
      ],
      "name": "InsufficientLiquidity",
      "type": "error"
    },
    {
      "inputs": [
        {
          "internalType": "address",
          "name": "pool",
          "type": "address"
        }
      ],
      "name": "InsufficientObservations",
      "type": "error"
    },
    {
      "inputs": [],
      "name": "InvalidBlockWindow",
      "type": "error"
    },
    {
      "inputs": [
        {
          "internalType": "address",
          "name": "asset",
          "type": "address"
        }
      ],
      "name": "InvalidEmergencyPrice",
      "type": "error"
    },
    {
      "inputs": [],
      "name": "InvalidInput",
      "type": "error"
    },
    {
      "inputs": [
        {
          "internalType": "address",
          "name": "asset",
          "type": "address"
        }
      ],
      "name": "InvalidPool",
      "type": "error"
    },
    {
      "inputs": [
        {
          "internalType": "address",
          "name": "asset",
          "type": "address"
        }
      ],
      "name": "InvalidPrice",
      "type": "error"
    },
    {
      "inputs": [
        {
          "internalType": "address",
          "name": "asset",
          "type": "address"
        }
      ],
      "name": "InvalidPriceFeed",
      "type": "error"
    },
    {
      "inputs": [],
      "name": "InvalidReliabilityScore",
      "type": "error"
    },
    {
      "inputs": [],
      "name": "InvalidTWAPWindow",
      "type": "error"
    },
    {
      "inputs": [],
      "name": "InvalidVRFConfig",
      "type": "error"
    },
    {
      "inputs": [
        {
          "internalType": "uint256",
          "name": "requestId",
          "type": "uint256"
        }
      ],
      "name": "InvalidVRFRequest",
      "type": "error"
    },
    {
      "inputs": [
        {
          "internalType": "address",
          "name": "asset",
          "type": "address"
        }
      ],
      "name": "NoValidFeeds",
      "type": "error"
    },
    {
      "inputs": [
        {
          "internalType": "address",
          "name": "asset",
          "type": "address"
        }
      ],
      "name": "NoValidPools",
      "type": "error"
    },
    {
      "inputs": [
        {
          "internalType": "address",
          "name": "have",
          "type": "address"
        },
        {
          "internalType": "address",
          "name": "want",
          "type": "address"
        }
      ],
      "name": "OnlyCoordinatorCanFulfill",
      "type": "error"
    },
    {
      "inputs": [
        {
          "internalType": "address",
          "name": "asset",
          "type": "address"
        }
      ],
      "name": "PoolLimitReached",
      "type": "error"
    },
    {
      "inputs": [
        {
          "internalType": "address",
          "name": "asset",
          "type": "address"
        }
      ],
      "name": "PriceDeviationTooHigh",
      "type": "error"
    },
    {
      "inputs": [
        {
          "internalType": "address",
          "name": "asset",
          "type": "address"
        }
      ],
      "name": "StalePrice",
      "type": "error"
    },
    {
      "inputs": [],
      "name": "VRFNotConfigured",
      "type": "error"
    },
    {
      "inputs": [
        {
          "internalType": "address",
          "name": "asset",
          "type": "address"
        }
      ],
      "name": "VRFRequestPending",
      "type": "error"
    },
    {
      "inputs": [],
      "name": "ZeroAddress",
      "type": "error"
    },
    {
      "inputs": [],
      "name": "ZeroValue",
      "type": "error"
    },
    {
      "anonymous": false,
      "inputs": [
        {
          "indexed": false,
          "internalType": "address",
          "name": "previousAdmin",
          "type": "address"
        },
        {
          "indexed": false,
          "internalType": "address",
          "name": "newAdmin",
          "type": "address"
        }
      ],
      "name": "AdminChanged",
      "type": "event"
    },
    {
      "anonymous": false,
      "inputs": [
        {
          "indexed": true,
          "internalType": "address",
          "name": "beacon",
          "type": "address"
        }
      ],
      "name": "BeaconUpgraded",
      "type": "event"
    },
    {
      "anonymous": false,
      "inputs": [
        {
          "indexed": true,
          "internalType": "address",
          "name": "asset",
          "type": "address"
        },
        {
          "indexed": false,
          "internalType": "uint256",
          "name": "oldAlpha",
          "type": "uint256"
        },
        {
          "indexed": false,
          "internalType": "uint256",
          "name": "newAlpha",
          "type": "uint256"
        }
      ],
      "name": "EMASmoothingUpdated",
      "type": "event"
    },
    {
      "anonymous": false,
      "inputs": [
        {
          "indexed": true,
          "internalType": "address",
          "name": "asset",
          "type": "address"
        },
        {
          "indexed": false,
          "internalType": "bool",
          "name": "isActive",
          "type": "bool"
        }
      ],
      "name": "EmergencyOverrideToggled",
      "type": "event"
    },
    {
      "anonymous": false,
      "inputs": [
        {
          "indexed": true,
          "internalType": "address",
          "name": "asset",
          "type": "address"
        },
        {
          "indexed": false,
          "internalType": "uint256",
          "name": "price",
          "type": "uint256"
        }
      ],
      "name": "EmergencyPriceSet",
      "type": "event"
    },
    {
      "anonymous": false,
      "inputs": [
        {
          "indexed": false,
          "internalType": "uint8",
          "name": "version",
          "type": "uint8"
        }
      ],
      "name": "Initialized",
      "type": "event"
    },
    {
      "anonymous": false,
      "inputs": [
        {
          "indexed": true,
          "internalType": "address",
          "name": "previousOwner",
          "type": "address"
        },
        {
          "indexed": true,
          "internalType": "address",
          "name": "newOwner",
          "type": "address"
        }
      ],
      "name": "OwnershipTransferred",
      "type": "event"
    },
    {
      "anonymous": false,
      "inputs": [
        {
          "indexed": false,
          "internalType": "address",
          "name": "account",
          "type": "address"
        }
      ],
      "name": "Paused",
      "type": "event"
    },
    {
      "anonymous": false,
      "inputs": [
        {
          "indexed": true,
          "internalType": "address",
          "name": "asset",
          "type": "address"
        },
        {
          "indexed": false,
          "internalType": "address",
          "name": "pool",
          "type": "address"
        },
        {
          "indexed": false,
          "internalType": "uint8",
          "name": "oracleType",
          "type": "uint8"
        },
        {
          "indexed": false,
          "internalType": "uint256",
          "name": "index",
          "type": "uint256"
        }
      ],
      "name": "PoolDeactivated",
      "type": "event"
    },
    {
      "anonymous": false,
      "inputs": [
        {
          "indexed": true,
          "internalType": "address",
          "name": "asset",
          "type": "address"
        },
        {
          "indexed": false,
          "internalType": "address",
          "name": "pool",
          "type": "address"
        },
        {
          "indexed": false,
          "internalType": "uint8",
          "name": "oracleType",
          "type": "uint8"
        },
        {
          "indexed": false,
          "internalType": "uint256",
          "name": "index",
          "type": "uint256"
        },
        {
          "indexed": false,
          "internalType": "uint128",
          "name": "liquidity",
          "type": "uint128"
        },
        {
          "indexed": false,
          "internalType": "uint256",
          "name": "timestamp",
          "type": "uint256"
        }
      ],
      "name": "PoolStateUpdated",
      "type": "event"
    },
    {
      "anonymous": false,
      "inputs": [
        {
          "indexed": true,
          "internalType": "address",
          "name": "asset",
          "type": "address"
        },
        {
          "indexed": false,
          "internalType": "address",
          "name": "feed",
          "type": "address"
        },
        {
          "indexed": false,
          "internalType": "uint8",
          "name": "decimals",
          "type": "uint8"
        },
        {
          "indexed": false,
          "internalType": "uint256",
          "name": "heartbeat",
          "type": "uint256"
        },
        {
          "indexed": false,
          "internalType": "uint256",
          "name": "weight",
          "type": "uint256"
        },
        {
          "indexed": false,
          "internalType": "uint256",
          "name": "reliabilityScore",
          "type": "uint256"
        },
        {
          "indexed": false,
          "internalType": "uint256",
          "name": "index",
          "type": "uint256"
        }
      ],
      "name": "PriceFeedUpdated",
      "type": "event"
    },
    {
      "anonymous": false,
      "inputs": [
        {
          "indexed": true,
          "internalType": "address",
          "name": "asset",
          "type": "address"
        },
        {
          "indexed": false,
          "internalType": "uint256",
          "name": "price",
          "type": "uint256"
        },
        {
          "indexed": false,
          "internalType": "uint256",
          "name": "emaPrice",
          "type": "uint256"
        },
        {
          "indexed": false,
          "internalType": "uint256",
          "name": "timestamp",
          "type": "uint256"
        },
        {
          "indexed": false,
          "internalType": "uint8",
          "name": "oracleType",
          "type": "uint8"
        }
      ],
      "name": "PriceFetched",
      "type": "event"
    },
    {
      "anonymous": false,
      "inputs": [
        {
          "indexed": true,
          "internalType": "address",
          "name": "asset",
          "type": "address"
        },
        {
          "indexed": false,
          "internalType": "address",
          "name": "pool",
          "type": "address"
        },
        {
          "indexed": false,
          "internalType": "uint32",
          "name": "oldWindow",
          "type": "uint32"
        },
        {
          "indexed": false,
          "internalType": "uint32",
          "name": "newWindow",
          "type": "uint32"
        },
        {
          "indexed": false,
          "internalType": "uint8",
          "name": "oracleType",
          "type": "uint8"
        }
      ],
      "name": "TWAPWindowAdjusted",
      "type": "event"
    },
    {
      "anonymous": false,
      "inputs": [
        {
          "indexed": true,
          "internalType": "address",
          "name": "asset",
          "type": "address"
        },
        {
          "indexed": false,
          "internalType": "address",
          "name": "pool",
          "type": "address"
        },
        {
          "indexed": false,
          "internalType": "uint32",
          "name": "blockWindow",
          "type": "uint32"
        },
        {
          "indexed": false,
          "internalType": "bool",
          "name": "isToken0Base",
          "type": "bool"
        },
        {
          "indexed": false,
          "internalType": "bool",
          "name": "isSushiSwap",
          "type": "bool"
        },
        {
          "indexed": false,
          "internalType": "uint256",
          "name": "index",
          "type": "uint256"
        }
      ],
      "name": "UniswapV2PoolAdded",
      "type": "event"
    },
    {
      "anonymous": false,
      "inputs": [
        {
          "indexed": true,
          "internalType": "address",
          "name": "asset",
          "type": "address"
        },
        {
          "indexed": false,
          "internalType": "address",
          "name": "pool",
          "type": "address"
        },
        {
          "indexed": false,
          "internalType": "uint32",
          "name": "blockWindow",
          "type": "uint32"
        },
        {
          "indexed": false,
          "internalType": "uint128",
          "name": "liquidity",
          "type": "uint128"
        },
        {
          "indexed": false,
          "internalType": "bool",
          "name": "isSushiSwap",
          "type": "bool"
        },
        {
          "indexed": false,
          "internalType": "uint256",
          "name": "index",
          "type": "uint256"
        }
      ],
      "name": "UniswapV2PoolUpdated",
      "type": "event"
    },
    {
      "anonymous": false,
      "inputs": [
        {
          "indexed": true,
          "internalType": "address",
          "name": "asset",
          "type": "address"
        },
        {
          "indexed": false,
          "internalType": "address",
          "name": "pool",
          "type": "address"
        },
        {
          "indexed": false,
          "internalType": "uint32",
          "name": "twapSeconds",
          "type": "uint32"
        },
        {
          "indexed": false,
          "internalType": "bool",
          "name": "isToken0Base",
          "type": "bool"
        },
        {
          "indexed": false,
          "internalType": "uint256",
          "name": "index",
          "type": "uint256"
        }
      ],
      "name": "UniswapV3PoolAdded",
      "type": "event"
    },
    {
      "anonymous": false,
      "inputs": [
        {
          "indexed": true,
          "internalType": "address",
          "name": "asset",
          "type": "address"
        },
        {
          "indexed": false,
          "internalType": "address",
          "name": "pool",
          "type": "address"
        },
        {
          "indexed": false,
          "internalType": "uint32",
          "name": "twapSeconds",
          "type": "uint32"
        },
        {
          "indexed": false,
          "internalType": "uint128",
          "name": "liquidity",
          "type": "uint128"
        },
        {
          "indexed": false,
          "internalType": "uint256",
          "name": "index",
          "type": "uint256"
        }
      ],
      "name": "UniswapV3PoolUpdated",
      "type": "event"
    },
    {
      "anonymous": false,
      "inputs": [
        {
          "indexed": false,
          "internalType": "address",
          "name": "account",
          "type": "address"
        }
      ],
      "name": "Unpaused",
      "type": "event"
    },
    {
      "anonymous": false,
      "inputs": [
        {
          "indexed": true,
          "internalType": "address",
          "name": "implementation",
          "type": "address"
        }
      ],
      "name": "Upgraded",
      "type": "event"
    },
    {
      "anonymous": false,
      "inputs": [
        {
          "indexed": false,
          "internalType": "address",
          "name": "coordinator",
          "type": "address"
        },
        {
          "indexed": false,
          "internalType": "uint64",
          "name": "subscriptionId",
          "type": "uint64"
        },
        {
          "indexed": false,
          "internalType": "bytes32",
          "name": "keyHash",
          "type": "bytes32"
        }
      ],
      "name": "VRFConfigUpdated",
      "type": "event"
    },
    {
      "anonymous": false,
      "inputs": [
        {
          "indexed": false,
          "internalType": "uint256",
          "name": "requestId",
          "type": "uint256"
        },
        {
          "indexed": true,
          "internalType": "address",
          "name": "asset",
          "type": "address"
        },
        {
          "indexed": false,
          "internalType": "uint256",
          "name": "price",
          "type": "uint256"
        },
        {
          "indexed": false,
          "internalType": "uint8",
          "name": "oracleType",
          "type": "uint8"
        }
      ],
      "name": "VRFRequestFulfilled",
      "type": "event"
    },
    {
      "anonymous": false,
      "inputs": [
        {
          "indexed": false,
          "internalType": "uint256",
          "name": "requestId",
          "type": "uint256"
        },
        {
          "indexed": true,
          "internalType": "address",
          "name": "asset",
          "type": "address"
        }
      ],
      "name": "VRFRequestSent",
      "type": "event"
    },
    {
      "anonymous": false,
      "inputs": [
        {
          "indexed": true,
          "internalType": "address",
          "name": "asset",
          "type": "address"
        },
        {
          "indexed": false,
          "internalType": "uint256",
          "name": "volatilityIndex",
          "type": "uint256"
        }
      ],
      "name": "VolatilityUpdated",
      "type": "event"
    },
    {
      "inputs": [],
      "name": "BLOCK_TIME",
      "outputs": [
        {
          "internalType": "uint256",
          "name": "",
          "type": "uint256"
        }
      ],
      "stateMutability": "view",
      "type": "function"
    },
    {
      "inputs": [],
      "name": "DEFAULT_EMA_ALPHA",
      "outputs": [
        {
          "internalType": "uint256",
          "name": "",
          "type": "uint256"
        }
      ],
      "stateMutability": "view",
      "type": "function"
    },
    {
      "inputs": [],
      "name": "DEFAULT_HEARTBEAT",
      "outputs": [
        {
          "internalType": "uint256",
          "name": "",
          "type": "uint256"
        }
      ],
      "stateMutability": "view",
      "type": "function"
    },
    {
      "inputs": [],
      "name": "DEFAULT_MAX_FEED_DEVIATION",
      "outputs": [
        {
          "internalType": "uint256",
          "name": "",
          "type": "uint256"
        }
      ],
      "stateMutability": "view",
      "type": "function"
    },
    {
      "inputs": [],
      "name": "DEFAULT_MAX_PRICE_DEVIATION",
      "outputs": [
        {
          "internalType": "uint256",
          "name": "",
          "type": "uint256"
        }
      ],
      "stateMutability": "view",
      "type": "function"
    },
    {
      "inputs": [],
      "name": "MAX_BLOCK_WINDOW",
      "outputs": [
        {
          "internalType": "uint32",
          "name": "",
          "type": "uint32"
        }
      ],
      "stateMutability": "view",
      "type": "function"
    },
    {
      "inputs": [],
      "name": "MAX_CALLBACK_GAS_LIMIT",
      "outputs": [
        {
          "internalType": "uint32",
          "name": "",
          "type": "uint32"
        }
      ],
      "stateMutability": "view",
      "type": "function"
    },
    {
      "inputs": [],
      "name": "MAX_FEEDS_PER_ASSET",
      "outputs": [
        {
          "internalType": "uint16",
          "name": "",
          "type": "uint16"
        }
      ],
      "stateMutability": "view",
      "type": "function"
    },
    {
      "inputs": [],
      "name": "MAX_POOLS_PER_ASSET",
      "outputs": [
        {
          "internalType": "uint16",
          "name": "",
          "type": "uint16"
        }
      ],
      "stateMutability": "view",
      "type": "function"
    },
    {
      "inputs": [],
      "name": "MAX_RELIABILITY_SCORE",
      "outputs": [
        {
          "internalType": "uint256",
          "name": "",
          "type": "uint256"
        }
      ],
      "stateMutability": "view",
      "type": "function"
    },
    {
      "inputs": [],
      "name": "MAX_REQUEST_CONFIRMATIONS",
      "outputs": [
        {
          "internalType": "uint16",
          "name": "",
          "type": "uint16"
        }
      ],
      "stateMutability": "view",
      "type": "function"
    },
    {
      "inputs": [],
      "name": "MAX_TWAP_SECONDS",
      "outputs": [
        {
          "internalType": "uint32",
          "name": "",
          "type": "uint32"
        }
      ],
      "stateMutability": "view",
      "type": "function"
    },
    {
      "inputs": [],
      "name": "MIN_BLOCK_WINDOW",
      "outputs": [
        {
          "internalType": "uint32",
          "name": "",
          "type": "uint32"
        }
      ],
      "stateMutability": "view",
      "type": "function"
    },
    {
      "inputs": [],
      "name": "MIN_CALLBACK_GAS_LIMIT",
      "outputs": [
        {
          "internalType": "uint32",
          "name": "",
          "type": "uint32"
        }
      ],
      "stateMutability": "view",
      "type": "function"
    },
    {
      "inputs": [],
      "name": "MIN_LIQUIDITY_THRESHOLD",
      "outputs": [
        {
          "internalType": "uint128",
          "name": "",
          "type": "uint128"
        }
      ],
      "stateMutability": "view",
      "type": "function"
    },
    {
      "inputs": [],
      "name": "MIN_REQUEST_CONFIRMATIONS",
      "outputs": [
        {
          "internalType": "uint16",
          "name": "",
          "type": "uint16"
        }
      ],
      "stateMutability": "view",
      "type": "function"
    },
    {
      "inputs": [],
      "name": "MIN_TWAP_SECONDS",
      "outputs": [
        {
          "internalType": "uint32",
          "name": "",
          "type": "uint32"
        }
      ],
      "stateMutability": "view",
      "type": "function"
    },
    {
      "inputs": [],
      "name": "PRICE_PRECISION",
      "outputs": [
        {
          "internalType": "uint256",
          "name": "",
          "type": "uint256"
        }
      ],
      "stateMutability": "view",
      "type": "function"
    },
    {
      "inputs": [],
      "name": "VOLATILITY_PRECISION",
      "outputs": [
        {
          "internalType": "uint256",
          "name": "",
          "type": "uint256"
        }
      ],
      "stateMutability": "view",
      "type": "function"
    },
    {
      "inputs": [
        {
          "internalType": "address",
          "name": "",
          "type": "address"
        }
      ],
      "name": "assetConfigs",
      "outputs": [
        {
          "internalType": "uint8",
          "name": "primaryOracle",
          "type": "uint8"
        },
        {
          "internalType": "uint256",
          "name": "maxPriceDeviation",
          "type": "uint256"
        },
        {
          "internalType": "bool",
          "name": "useVRF",
          "type": "bool"
        },
        {
          "internalType": "uint256",
          "name": "maxFeedDeviation",
          "type": "uint256"
        },
        {
          "internalType": "uint256",
          "name": "emaPrice",
          "type": "uint256"
        },
        {
          "internalType": "uint256",
          "name": "emaAlpha",
          "type": "uint256"
        },
        {
          "internalType": "uint256",
          "name": "volatilityIndex",
          "type": "uint256"
        }
      ],
      "stateMutability": "view",
      "type": "function"
    },
    {
      "inputs": [],
      "name": "callbackGasLimit",
      "outputs": [
        {
          "internalType": "uint32",
          "name": "",
          "type": "uint32"
        }
      ],
      "stateMutability": "view",
      "type": "function"
    },
    {
      "inputs": [
        {
          "internalType": "address",
          "name": "",
          "type": "address"
        }
      ],
      "name": "emergencyOverrideActive",
      "outputs": [
        {
          "internalType": "bool",
          "name": "",
          "type": "bool"
        }
      ],
      "stateMutability": "view",
      "type": "function"
    },
    {
      "inputs": [
        {
          "internalType": "address",
          "name": "",
          "type": "address"
        }
      ],
      "name": "emergencyPrices",
      "outputs": [
        {
          "internalType": "uint256",
          "name": "",
          "type": "uint256"
        }
      ],
      "stateMutability": "view",
      "type": "function"
    },
    {
      "inputs": [],
      "name": "keyHash",
      "outputs": [
        {
          "internalType": "bytes32",
          "name": "",
          "type": "bytes32"
        }
      ],
      "stateMutability": "view",
      "type": "function"
    },
    {
      "inputs": [],
      "name": "numWords",
      "outputs": [
        {
          "internalType": "uint32",
          "name": "",
          "type": "uint32"
        }
      ],
      "stateMutability": "view",
      "type": "function"
    },
    {
      "inputs": [],
      "name": "owner",
      "outputs": [
        {
          "internalType": "address",
          "name": "",
          "type": "address"
        }
      ],
      "stateMutability": "view",
      "type": "function"
    },
    {
      "inputs": [
        {
          "internalType": "address",
          "name": "",
          "type": "address"
        }
      ],
      "name": "pancakeSwapPoolCount",
      "outputs": [
        {
          "internalType": "uint256",
          "name": "",
          "type": "uint256"
        }
      ],
      "stateMutability": "view",
      "type": "function"
    },
    {
      "inputs": [
        {
          "internalType": "address",
          "name": "",
          "type": "address"
        },
        {
          "internalType": "uint256",
          "name": "",
          "type": "uint256"
        }
      ],
      "name": "pancakeSwapPools",
      "outputs": [
        {
          "internalType": "address",
          "name": "poolAddress",
          "type": "address"
        },
        {
          "internalType": "uint32",
          "name": "blockWindow",
          "type": "uint32"
        },
        {
          "internalType": "bool",
          "name": "isToken0Base",
          "type": "bool"
        },
        {
          "internalType": "bool",
          "name": "isActive",
          "type": "bool"
        },
        {
          "internalType": "uint128",
          "name": "liquidity",
          "type": "uint128"
        },
        {
          "internalType": "uint256",
          "name": "price0CumulativeLast",
          "type": "uint256"
        },
        {
          "internalType": "uint256",
          "name": "price1CumulativeLast",
          "type": "uint256"
        },
        {
          "internalType": "uint32",
          "name": "lastBlockTimestamp",
          "type": "uint32"
        }
      ],
      "stateMutability": "view",
      "type": "function"
    },
    {
      "inputs": [],
      "name": "paused",
      "outputs": [
        {
          "internalType": "bool",
          "name": "",
          "type": "bool"
        }
      ],
      "stateMutability": "view",
      "type": "function"
    },
    {
      "inputs": [
        {
          "internalType": "address",
          "name": "",
          "type": "address"
        }
      ],
      "name": "pendingVRFRequestId",
      "outputs": [
        {
          "internalType": "uint256",
          "name": "",
          "type": "uint256"
        }
      ],
      "stateMutability": "view",
      "type": "function"
    },
    {
      "inputs": [
        {
          "internalType": "address",
          "name": "",
          "type": "address"
        }
      ],
      "name": "priceFeedCount",
      "outputs": [
        {
          "internalType": "uint256",
          "name": "",
          "type": "uint256"
        }
      ],
      "stateMutability": "view",
      "type": "function"
    },
    {
      "inputs": [
        {
          "internalType": "address",
          "name": "",
          "type": "address"
        },
        {
          "internalType": "uint256",
          "name": "",
          "type": "uint256"
        }
      ],
      "name": "priceFeeds",
      "outputs": [
        {
          "internalType": "address",
          "name": "feedAddress",
          "type": "address"
        },
        {
          "internalType": "uint8",
          "name": "decimals",
          "type": "uint8"
        },
        {
          "internalType": "bool",
          "name": "isActive",
          "type": "bool"
        },
        {
          "internalType": "uint256",
          "name": "heartbeat",
          "type": "uint256"
        },
        {
          "internalType": "uint256",
          "name": "weight",
          "type": "uint256"
        },
        {
          "internalType": "uint256",
          "name": "reliabilityScore",
          "type": "uint256"
        },
        {
          "internalType": "uint256",
          "name": "lastPrice",
          "type": "uint256"
        },
        {
          "internalType": "uint256",
          "name": "lastUpdated",
          "type": "uint256"
        }
      ],
      "stateMutability": "view",
      "type": "function"
    },
    {
      "inputs": [],
      "name": "proxiableUUID",
      "outputs": [
        {
          "internalType": "bytes32",
          "name": "",
          "type": "bytes32"
        }
      ],
      "stateMutability": "view",
      "type": "function"
    },
    {
      "inputs": [
        {
          "internalType": "uint256",
          "name": "requestId",
          "type": "uint256"
        },
        {
          "internalType": "uint256[]",
          "name": "randomWords",
          "type": "uint256[]"
        }
      ],
      "name": "rawFulfillRandomWords",
      "outputs": [],
      "stateMutability": "nonpayable",
      "type": "function"
    },
    {
      "inputs": [],
      "name": "renounceOwnership",
      "outputs": [],
      "stateMutability": "nonpayable",
      "type": "function"
    },
    {
      "inputs": [],
      "name": "requestConfirmations",
      "outputs": [
        {
          "internalType": "uint16",
          "name": "",
          "type": "uint16"
        }
      ],
      "stateMutability": "view",
      "type": "function"
    },
    {
      "inputs": [],
      "name": "subscriptionId",
      "outputs": [
        {
          "internalType": "uint64",
          "name": "",
          "type": "uint64"
        }
      ],
      "stateMutability": "view",
      "type": "function"
    },
    {
      "inputs": [
        {
          "internalType": "address",
          "name": "",
          "type": "address"
        }
      ],
      "name": "sushiSwapPoolCount",
      "outputs": [
        {
          "internalType": "uint256",
          "name": "",
          "type": "uint256"
        }
      ],
      "stateMutability": "view",
      "type": "function"
    },
    {
      "inputs": [
        {
          "internalType": "address",
          "name": "",
          "type": "address"
        },
        {
          "internalType": "uint256",
          "name": "",
          "type": "uint256"
        }
      ],
      "name": "sushiSwapPools",
      "outputs": [
        {
          "internalType": "address",
          "name": "poolAddress",
          "type": "address"
        },
        {
          "internalType": "uint32",
          "name": "blockWindow",
          "type": "uint32"
        },
        {
          "internalType": "bool",
          "name": "isToken0Base",
          "type": "bool"
        },
        {
          "internalType": "bool",
          "name": "isActive",
          "type": "bool"
        },
        {
          "internalType": "uint128",
          "name": "liquidity",
          "type": "uint128"
        },
        {
          "internalType": "uint256",
          "name": "price0CumulativeLast",
          "type": "uint256"
        },
        {
          "internalType": "uint256",
          "name": "price1CumulativeLast",
          "type": "uint256"
        },
        {
          "internalType": "uint32",
          "name": "lastBlockTimestamp",
          "type": "uint32"
        }
      ],
      "stateMutability": "view",
      "type": "function"
    },
    {
      "inputs": [
        {
          "internalType": "address",
          "name": "newOwner",
          "type": "address"
        }
      ],
      "name": "transferOwnership",
      "outputs": [],
      "stateMutability": "nonpayable",
      "type": "function"
    },
    {
      "inputs": [
        {
          "internalType": "address",
          "name": "",
          "type": "address"
        }
      ],
      "name": "uniswapV3PoolCount",
      "outputs": [
        {
          "internalType": "uint256",
          "name": "",
          "type": "uint256"
        }
      ],
      "stateMutability": "view",
      "type": "function"
    },
    {
      "inputs": [
        {
          "internalType": "address",
          "name": "",
          "type": "address"
        },
        {
          "internalType": "uint256",
          "name": "",
          "type": "uint256"
        }
      ],
      "name": "uniswapV3Pools",
      "outputs": [
        {
          "internalType": "address",
          "name": "poolAddress",
          "type": "address"
        },
        {
          "internalType": "uint32",
          "name": "twapSeconds",
          "type": "uint32"
        },
        {
          "internalType": "bool",
          "name": "isToken0Base",
          "type": "bool"
        },
        {
          "internalType": "bool",
          "name": "isActive",
          "type": "bool"
        },
        {
          "internalType": "uint128",
          "name": "liquidity",
          "type": "uint128"
        }
      ],
      "stateMutability": "view",
      "type": "function"
    },
    {
      "inputs": [
        {
          "internalType": "address",
          "name": "newImplementation",
          "type": "address"
        }
      ],
      "name": "upgradeTo",
      "outputs": [],
      "stateMutability": "nonpayable",
      "type": "function"
    },
    {
      "inputs": [
        {
          "internalType": "address",
          "name": "newImplementation",
          "type": "address"
        },
        {
          "internalType": "bytes",
          "name": "data",
          "type": "bytes"
        }
      ],
      "name": "upgradeToAndCall",
      "outputs": [],
      "stateMutability": "payable",
      "type": "function"
    },
    {
      "inputs": [],
      "name": "vrfCoordinator",
      "outputs": [
        {
          "internalType": "contract VRFCoordinatorV2Interface",
          "name": "",
          "type": "address"
        }
      ],
      "stateMutability": "view",
      "type": "function"
    },
    {
      "inputs": [
        {
          "internalType": "uint256",
          "name": "",
          "type": "uint256"
        }
      ],
      "name": "vrfRequests",
      "outputs": [
        {
          "internalType": "address",
          "name": "asset",
          "type": "address"
        },
        {
          "internalType": "uint256",
          "name": "requestId",
          "type": "uint256"
        },
        {
          "internalType": "bool",
          "name": "isPending",
          "type": "bool"
        },
        {
          "internalType": "uint256",
          "name": "price",
          "type": "uint256"
        },
        {
          "internalType": "uint256",
          "name": "timestamp",
          "type": "uint256"
        }
      ],
      "stateMutability": "view",
      "type": "function"
    },
    {
      "inputs": [
        {
          "internalType": "address",
          "name": "initialOwner",
          "type": "address"
        },
        {
          "internalType": "address",
          "name": "_vrfCoordinator",
          "type": "address"
        },
        {
          "internalType": "uint64",
          "name": "_subscriptionId",
          "type": "uint64"
        },
        {
          "internalType": "bytes32",
          "name": "_keyHash",
          "type": "bytes32"
        },
        {
          "internalType": "uint32",
          "name": "_callbackGasLimit",
          "type": "uint32"
        },
        {
          "internalType": "uint16",
          "name": "_requestConfirmations",
          "type": "uint16"
        }
      ],
      "name": "initialize",
      "outputs": [],
      "stateMutability": "nonpayable",
      "type": "function"
    },
    {
      "inputs": [
        {
          "internalType": "address",
          "name": "_vrfCoordinator",
          "type": "address"
        },
        {
          "internalType": "uint64",
          "name": "_subscriptionId",
          "type": "uint64"
        },
        {
          "internalType": "bytes32",
          "name": "_keyHash",
          "type": "bytes32"
        },
        {
          "internalType": "uint32",
          "name": "_callbackGasLimit",
          "type": "uint32"
        },
        {
          "internalType": "uint16",
          "name": "_requestConfirmations",
          "type": "uint16"
        }
      ],
      "name": "updateVRFConfig",
      "outputs": [],
      "stateMutability": "nonpayable",
      "type": "function"
    },
    {
      "inputs": [],
      "name": "pause",
      "outputs": [],
      "stateMutability": "nonpayable",
      "type": "function"
    },
    {
      "inputs": [],
      "name": "unpause",
      "outputs": [],
      "stateMutability": "nonpayable",
      "type": "function"
    },
    {
      "inputs": [
        {
          "internalType": "address",
          "name": "asset",
          "type": "address"
        },
        {
          "internalType": "address",
          "name": "feed",
          "type": "address"
        },
        {
          "internalType": "uint8",
          "name": "decimals",
          "type": "uint8"
        },
        {
          "internalType": "uint256",
          "name": "heartbeat",
          "type": "uint256"
        },
        {
          "internalType": "uint256",
          "name": "weight",
          "type": "uint256"
        },
        {
          "internalType": "uint256",
          "name": "reliabilityScore",
          "type": "uint256"
        }
      ],
      "name": "setPriceFeed",
      "outputs": [],
      "stateMutability": "nonpayable",
      "type": "function"
    },
    {
      "inputs": [
        {
          "internalType": "address",
          "name": "asset",
          "type": "address"
        },
        {
          "internalType": "uint256",
          "name": "feedIndex",
          "type": "uint256"
        }
      ],
      "name": "deactivatePriceFeed",
      "outputs": [],
      "stateMutability": "nonpayable",
      "type": "function"
    },
    {
      "inputs": [
        {
          "internalType": "address",
          "name": "asset",
          "type": "address"
        },
        {
          "internalType": "address",
          "name": "poolAddress",
          "type": "address"
        },
        {
          "internalType": "uint32",
          "name": "twapSeconds",
          "type": "uint32"
        },
        {
          "internalType": "bool",
          "name": "isToken0Base",
          "type": "bool"
        }
      ],
      "name": "addUniswapV3Pool",
      "outputs": [],
      "stateMutability": "nonpayable",
      "type": "function"
    },
    {
      "inputs": [
        {
          "internalType": "address",
          "name": "asset",
          "type": "address"
        },
        {
          "internalType": "address",
          "name": "poolAddress",
          "type": "address"
        },
        {
          "internalType": "uint32",
          "name": "blockWindow",
          "type": "uint32"
        },
        {
          "internalType": "bool",
          "name": "isToken0Base",
          "type": "bool"
        },
        {
          "internalType": "bool",
          "name": "isSushiSwap",
          "type": "bool"
        }
      ],
      "name": "addUniswapV2Pool",
      "outputs": [],
      "stateMutability": "nonpayable",
      "type": "function"
    },
    {
      "inputs": [
        {
          "internalType": "address",
          "name": "asset",
          "type": "address"
        },
        {
          "internalType": "uint8",
          "name": "oracleType",
          "type": "uint8"
        },
        {
          "internalType": "uint256",
          "name": "maxPriceDeviation",
          "type": "uint256"
        },
        {
          "internalType": "uint256",
          "name": "maxFeedDeviation",
          "type": "uint256"
        },
        {
          "internalType": "bool",
          "name": "useVRF",
          "type": "bool"
        },
        {
          "internalType": "uint256",
          "name": "emaAlpha",
          "type": "uint256"
        },
        {
          "internalType": "uint256",
          "name": "volatilityIndex",
          "type": "uint256"
        }
      ],
      "name": "setOraclePreference",
      "outputs": [],
      "stateMutability": "nonpayable",
      "type": "function"
    },
    {
      "inputs": [
        {
          "internalType": "address",
          "name": "asset",
          "type": "address"
        },
        {
          "internalType": "uint256",
          "name": "price",
          "type": "uint256"
        }
      ],
      "name": "setEmergencyPrice",
      "outputs": [],
      "stateMutability": "nonpayable",
      "type": "function"
    },
    {
      "inputs": [
        {
          "internalType": "address",
          "name": "asset",
          "type": "address"
        }
      ],
      "name": "disableEmergencyOverride",
      "outputs": [],
      "stateMutability": "nonpayable",
      "type": "function"
    },
    {
      "inputs": [
        {
          "internalType": "address",
          "name": "asset",
          "type": "address"
        },
        {
          "internalType": "uint256",
          "name": "poolIndex",
          "type": "uint256"
        },
        {
          "internalType": "uint8",
          "name": "oracleType",
          "type": "uint8"
        }
      ],
      "name": "deactivatePool",
      "outputs": [],
      "stateMutability": "nonpayable",
      "type": "function"
    },
    {
      "inputs": [
        {
          "internalType": "address",
          "name": "asset",
          "type": "address"
        },
        {
          "internalType": "uint256",
          "name": "poolIndex",
          "type": "uint256"
        },
        {
          "internalType": "uint8",
          "name": "oracleType",
          "type": "uint8"
        }
      ],
      "name": "updateTWAPWindow",
      "outputs": [],
      "stateMutability": "nonpayable",
      "type": "function"
    },
    {
      "inputs": [
        {
          "internalType": "address",
          "name": "asset",
          "type": "address"
        }
      ],
      "name": "getCurrentPrice",
      "outputs": [
        {
          "internalType": "uint256",
          "name": "",
          "type": "uint256"
        }
      ],
      "stateMutability": "view",
      "type": "function"
    },
    {
      "inputs": [
        {
          "internalType": "address",
          "name": "asset",
          "type": "address"
        }
      ],
      "name": "getPendingVRFRequest",
      "outputs": [
        {
          "internalType": "uint256",
          "name": "",
          "type": "uint256"
        }
      ],
      "stateMutability": "view",
      "type": "function"
    },
    {
      "inputs": [
        {
          "internalType": "address",
          "name": "asset",
          "type": "address"
        }
      ],
      "name": "getPrice",
      "outputs": [
        {
          "internalType": "uint256",
          "name": "",
          "type": "uint256"
        }
      ],
      "stateMutability": "nonpayable",
      "type": "function"
    },
    {
      "inputs": [
        {
          "internalType": "address",
          "name": "asset",
          "type": "address"
        },
        {
          "internalType": "uint8",
          "name": "oracleType",
          "type": "uint8"
        }
      ],
      "name": "fetchPriceWithOracle",
      "outputs": [
        {
          "internalType": "uint256",
          "name": "",
          "type": "uint256"
        }
      ],
      "stateMutability": "nonpayable",
      "type": "function"
    },
    {
      "inputs": [
        {
          "internalType": "address",
          "name": "asset",
          "type": "address"
        }
      ],
      "name": "getChainlinkPrice",
      "outputs": [
        {
          "internalType": "uint256",
          "name": "",
          "type": "uint256"
        }
      ],
      "stateMutability": "nonpayable",
      "type": "function"
    },
    {
      "inputs": [
        {
          "internalType": "address",
          "name": "asset",
          "type": "address"
        }
      ],
      "name": "getUniswapV3TWAP",
      "outputs": [
        {
          "internalType": "uint256",
          "name": "",
          "type": "uint256"
        }
      ],
      "stateMutability": "nonpayable",
      "type": "function"
    },
    {
      "inputs": [
        {
          "internalType": "address",
          "name": "asset",
          "type": "address"
        },
        {
          "internalType": "bool",
          "name": "isSushiSwap",
          "type": "bool"
        }
      ],
      "name": "getUniswapV2TWAP",
      "outputs": [
        {
          "internalType": "uint256",
          "name": "",
          "type": "uint256"
        }
      ],
      "stateMutability": "nonpayable",
      "type": "function"
    },
    {
      "inputs": [
        {
          "internalType": "address",
          "name": "asset",
          "type": "address"
        },
        {
          "internalType": "uint256",
          "name": "index",
          "type": "uint256"
        }
      ],
      "name": "getPriceFeedConfig",
      "outputs": [
        {
          "components": [
            {
              "internalType": "address",
              "name": "feedAddress",
              "type": "address"
            },
            {
              "internalType": "uint8",
              "name": "decimals",
              "type": "uint8"
            },
            {
              "internalType": "bool",
              "name": "isActive",
              "type": "bool"
            },
            {
              "internalType": "uint256",
              "name": "heartbeat",
              "type": "uint256"
            },
            {
              "internalType": "uint256",
              "name": "weight",
              "type": "uint256"
            },
            {
              "internalType": "uint256",
              "name": "reliabilityScore",
              "type": "uint256"
            },
            {
              "internalType": "uint256",
              "name": "lastPrice",
              "type": "uint256"
            },
            {
              "internalType": "uint256",
              "name": "lastUpdated",
              "type": "uint256"
            }
          ],
          "internalType": "struct PriceOracle.PriceFeedConfig",
          "name": "",
          "type": "tuple"
        }
      ],
      "stateMutability": "view",
      "type": "function"
    },
    {
      "inputs": [
        {
          "internalType": "address",
          "name": "asset",
          "type": "address"
        },
        {
          "internalType": "uint256",
          "name": "index",
          "type": "uint256"
        }
      ],
      "name": "getUniswapV3PoolConfig",
      "outputs": [
        {
          "components": [
            {
              "internalType": "address",
              "name": "poolAddress",
              "type": "address"
            },
            {
              "internalType": "uint32",
              "name": "twapSeconds",
              "type": "uint32"
            },
            {
              "internalType": "bool",
              "name": "isToken0Base",
              "type": "bool"
            },
            {
              "internalType": "bool",
              "name": "isActive",
              "type": "bool"
            },
            {
              "internalType": "uint128",
              "name": "liquidity",
              "type": "uint128"
            }
          ],
          "internalType": "struct PriceOracle.UniswapV3PoolConfig",
          "name": "",
          "type": "tuple"
        }
      ],
      "stateMutability": "view",
      "type": "function"
    },
    {
      "inputs": [
        {
          "internalType": "address",
          "name": "asset",
          "type": "address"
        },
        {
          "internalType": "uint256",
          "name": "index",
          "type": "uint256"
        },
        {
          "internalType": "bool",
          "name": "isSushiSwap",
          "type": "bool"
        }
      ],
      "name": "getUniswapV2PoolConfig",
      "outputs": [
        {
          "components": [
            {
              "internalType": "address",
              "name": "poolAddress",
              "type": "address"
            },
            {
              "internalType": "uint32",
              "name": "blockWindow",
              "type": "uint32"
            },
            {
              "internalType": "bool",
              "name": "isToken0Base",
              "type": "bool"
            },
            {
              "internalType": "bool",
              "name": "isActive",
              "type": "bool"
            },
            {
              "internalType": "uint128",
              "name": "liquidity",
              "type": "uint128"
            },
            {
              "internalType": "uint256",
              "name": "price0CumulativeLast",
              "type": "uint256"
            },
            {
              "internalType": "uint256",
              "name": "price1CumulativeLast",
              "type": "uint256"
            },
            {
              "internalType": "uint32",
              "name": "lastBlockTimestamp",
              "type": "uint32"
            }
          ],
          "internalType": "struct PriceOracle.UniswapV2PoolConfig",
          "name": "",
          "type": "tuple"
        }
      ],
      "stateMutability": "view",
      "type": "function"
    }
  ],
  "bytecode": "0x60c06040523462000049576200001e62000018620000ec565b6200010f565b60405161820f620002ca82396080518181816126c00152613294015260a05181612434015261820f90f35b600080fd5b634e487b7160e01b600052604160045260246000fd5b90601f01601f191681019081106001600160401b038211176200008657604052565b6200004e565b90620000a36200009b60405190565b928362000064565b565b6001600160a01b031690565b90565b6001600160a01b038116036200004957565b90505190620000a382620000b4565b906020828203126200004957620000b191620000c6565b620000b1620084d98038038062000103816200008c565b928339810190620000d5565b6200011a9062000124565b620000a36200024f565b6200012e62000133565b60a052565b620000a3620000a3620000a3620000a362000175565b620000b190620000a5906001600160a01b031682565b620000b19062000149565b620000b1906200015f565b62000180306200016a565b608052565b620000b19060081c5b60ff1690565b620000b1905462000185565b15620001a857565b60405162461bcd60e51b815260206004820152602760248201527f496e697469616c697a61626c653a20636f6e747261637420697320696e697469604482015266616c697a696e6760c81b6064820152608490fd5b620000b1906200018e565b620000b19054620001fd565b6200018e620000b1620000b19260ff1690565b906200023b620000b16200024b9262000214565b825460ff191660ff919091161790565b9055565b6200026d6200026762000263600062000194565b1590565b620001a0565b62000279600062000208565b60ff908116036200028657565b6200029460ff600062000227565b7f7f26b83ff96e1f2b6a682f133852f6798a09c465da95921460cefb3847402498620002bf60405190565b60ff8152602090a156fe6080604052600436101561001257600080fd5b60003560e01c80630778fe7a1461045857806308453cf81461045357806309c1ba2e1461044e57806315c48b84146104495780631a1d9252146104445780631a97300d1461043f5780631e61d3201461043a5780631f01d076146104355780631fe543e31461043057806324f746971461042b57806325cdfef614610426578063310f98c01461042157806331268b691461041c5780633659cfe614610417578063386e28171461041257806338f8d2321461040d57806339c33215146104085780633f4ba83a1461040357806341976e09146103fe5780634806532b1461038b578063488aed56146103f95780634f1ef286146103f45780634ff81a47146103ef57806352d1902d146103ea57806355f83939146103e55780635c975abb146103e05780635fdd0f31146103db57806361728f39146103d657806363133162146103d157806366379c5e146103cc5780636f218c4c146103c7578063715018a6146103c257806374add096146103bd5780637609d7f6146103b85780637927710e146103b35780637c185da6146103ae5780637c90d3c71461037c5780637ccfd7fc146103a95780637ee185c1146103a4578063807617cf1461039f5780638447120b1461039a5780638456cb591461039557806384cc315b1461039057806386c211d51461038b5780638da5cb5b1461038657806390c6b9171461038157806395082d251461037c5780639b350725146103775780639f1e212a14610372578063a30e4f1f1461036d578063a3e56fa814610368578063aeaf537214610363578063b0b92a781461035e578063b0fb162f14610359578063b38a2c2014610354578063b3d035821461034f578063bab48b721461034a578063bd58fe5614610345578063d9ada59214610340578063ddd6277a1461033b578063e438d1ee14610336578063e49a9a6e14610331578063eae563c61461032c578063eef1fbef14610327578063f1c0b4ce14610322578063f25099dc1461031d578063f2fde38b14610318578063f7aa58fc146103135763f93019100361045d57611ab1565b611a6d565b6119c6565b6119aa565b61197f565b611964565b611933565b6118c1565b611847565b6117fe565b6117b8565b611778565b61175c565b611725565b6116ea565b611615565b6115d7565b6115bc565b611583565b61152a565b6114f6565b6114c9565b6112d3565b61145c565b6113d3565b610cf9565b6113a8565b611390565b611375565b611347565b611316565b6112fb565b6112a1565b61125d565b611229565b611159565b611007565b610fec565b610fbf565b610f92565b610f42565b610f1a565b610edc565b610ec1565b610e93565b610e7a565b610e66565b610da1565b610ccc565b610cb4565b610c99565b610c4d565b610b54565b610b2b565b610b10565b610ad8565b610abc565b610a51565b610a0e565b6108ea565b6108b1565b61081c565b61077b565b610665565b61060a565b6105b1565b61055a565b600080fd5b6001600160a01b031690565b90565b61047a81610462565b0361045d57565b9050359061048e82610471565b565b8061047a565b9050359061048e82610490565b919060408382031261045d5761046e9060206104bf8286610481565b9401610496565b6104cf90610462565b9052565b9060e08061048e936104ed600082015160008601906104c6565b60208181015160ff169085015260408181015115159085015261051560608201516060860152565b61052460808201516080860152565b61053360a082015160a0860152565b61054260c082015160c0860152565b0151910152565b6101008101929161048e91906104d3565b3461045d576105826105766105703660046104a3565b90611be4565b60405191829182610549565b0390f35b600091031261045d57565b61046e61046e61046e9290565b61046e610384610591565b61046e61059e565b3461045d576105c1366004610586565b6105826105cc6105a9565b6040515b9182918290815260200190565b61046e916008021c5b6001600160401b031690565b9061046e91546105dd565b61046e601461013a6105f2565b3461045d5761061a366004610586565b6105826106256105fd565b604051918291826001600160401b03909116815260200190565b61064c61046e61046e9290565b61ffff1690565b61046e601461063f565b61046e610653565b3461045d57610675366004610586565b61058261068061065d565b6040519182918261ffff909116815260200190565b9060208282031261045d5761046e91610496565b906106b390610591565b600052602052604060002090565b61046e9054610462565b61046e9081565b61046e90546106cb565b61046e905b60ff1690565b61046e90546106dc565b6106fd906101386106a9565b610706816106c1565b91610713600183016106d2565b91610720600282016106e7565b9161046e6004610732600385016106d2565b93016106d2565b9095949261048e946107706107779261076760809661076060a088019c60008901906104c6565b6020870152565b15156040850152565b6060830152565b0152565b3461045d57610582610796610791366004610695565b6106f1565b916107a395939560405190565b95869586610739565b9060208282031261045d5761046e91610481565b61046e90610462906001600160a01b031682565b61046e906107c0565b61046e906107d4565b906106b3906107dd565b61046e916008021c81565b9061046e91546107f0565b600061081761046e926101366107e6565b6107fb565b3461045d576105826105cc6108323660046107ac565b610806565b63ffffffff811661047a565b9050359061048e82610837565b80151561047a565b9050359061048e82610850565b919060a08382031261045d5761087b8184610481565b926108898260208301610481565b9261046e61089a8460408501610843565b9360806108aa8260608701610858565b9401610858565b3461045d576108cd6108c4366004610865565b93929092612401565b604051005b61046e66470de4df820000610591565b61046e6108d2565b3461045d576108fa366004610586565b6105826105cc6108e2565b634e487b7160e01b600052604160045260246000fd5b90601f01601f191681019081106001600160401b0382111761093c57604052565b610905565b9061048e61094e60405190565b928361091b565b6001600160401b03811161093c5760208091020190565b9092919261098161097c82610955565b610941565b938185526020808601920283019281841161045d57915b8383106109a55750505050565b602080916109b38486610496565b815201920191610998565b9080601f8301121561045d5781602061046e9335910161096c565b91909160408184031261045d576109f08382610496565b9260208201356001600160401b03811161045d5761046e92016109be565b3461045d576108cd610a213660046109d9565b90612430565b61046e916008021c5b63ffffffff1690565b9061046e9154610a27565b61046e600061013c610a39565b3461045d57610a61366004610586565b610582610a6c610a44565b6040519182918263ffffffff909116815260200190565b60ff811661047a565b9050359061048e82610a83565b919060408382031261045d5761046e906020610ab58286610481565b9401610a8c565b3461045d576105826105cc610ad2366004610a99565b906124a7565b3461045d576108cd610aeb3660046107ac565b6125e0565b610a3061046e61046e9290565b61046e61012c610af0565b61046e610afd565b3461045d57610b20366004610586565b610582610a6c610b08565b3461045d576108cd610b3e3660046107ac565b612778565b600061081761046e9261012f6107e6565b3461045d576105826105cc610b6a3660046107ac565b610b43565b61046e9060a01c6106e1565b61046e9054610b6f565b61046e9060a81c6106e1565b61046e9054610b85565b90610bab610bb09261012e6107e6565b6106a9565b90610bba826106c1565b91610bc481610b7b565b91610bce82610b91565b91610bdb600182016106d2565b91610be8600283016106d2565b91610bf5600382016106d2565b9161046e6005610732600485016106d2565b9593919897969492909861010087019960008801610c24916104c6565b60ff166020870152151560408601526060850152608084015260a083015260c082015260e00152565b3461045d57610582610c69610c633660046104a3565b90610b9b565b94610c7c98969894919493929360405190565b98899889610c07565b61046e6207a120610af0565b61046e610c85565b3461045d57610ca9366004610586565b610582610a6c610c91565b3461045d57610cc4366004610586565b6108cd612794565b3461045d576105826105cc610ce23660046107ac565b612beb565b61046e600561063f565b61046e610ce7565b3461045d57610d09366004610586565b610582610680610cf1565b6001600160401b03811661047a565b9050359061048e82610d14565b61ffff811661047a565b9050359061048e82610d30565b909160c08284031261045d57610d5d8383610481565b92610d6b8160208501610481565b92610d798260408301610d23565b9261046e610d8a8460608501610496565b9360a0610d9a8260808701610843565b9401610d3a565b3461045d576108cd610db4366004610d47565b94939093929192613026565b6001600160401b03811161093c57602090601f01601f19160190565b0190565b90826000939282370152565b90929192610dfc61097c82610dc0565b938185528183011161045d5761048e916020850190610de0565b9080601f8301121561045d5781602061046e93359101610dec565b91909160408184031261045d57610e488382610481565b9260208201356001600160401b03811161045d5761046e9201610e16565b6108cd610e74366004610e31565b9061305a565b3461045d576108cd610e8d3660046104a3565b90613205565b3461045d57610ea3366004610586565b6105826105cc6132f5565b61046e610200610af0565b61046e610eae565b3461045d57610ed1366004610586565b610582610a6c610eb9565b3461045d57610eec366004610586565b610582610ef76132ff565b60405191829182901515815260200190565b600061081761046e926101356107e6565b3461045d576105826105cc610f303660046107ac565b610f09565b61046e600061013b6107fb565b3461045d57610f52366004610586565b6105826105cc610f35565b60808183031261045d57610f718282610481565b9261046e610f828460208501610481565b9360606108aa8260408701610843565b3461045d576108cd610fa5366004610f5d565b929190916137c0565b600061081761046e926101396107e6565b3461045d576105826105cc610fd53660046107ac565b610fae565b61046e6064610591565b61046e610fda565b3461045d57610ffc366004610586565b6105826105cc610fe4565b3461045d57611017366004610586565b6108cd6137e9565b61046e9060a01c610a30565b61046e905461101f565b61046e9060c01c6106e1565b61046e9054611035565b61046e9060c81c6106e1565b61046e905461104b565b61046e905b6001600160801b031690565b61046e9054611061565b61046e90610a30565b61046e905461107c565b90610bab61109f926101316107e6565b906110a9826106c1565b916110b38161102b565b916110bd82611041565b916110c781611057565b916110d460018301611072565b916110e1600282016106d2565b9161046e60046110f3600385016106d2565b9301611085565b9593919897969492909861010087019960008801611117916104c6565b63ffffffff16602087015215156040860152151560608501526001600160801b0316608084015260a083015260c082015260e00161048e9163ffffffff169052565b3461045d5761058261117561116f3660046104a3565b9061108f565b9461118898969894919493929360405190565b988998896110fa565b61119d9061012d6107e6565b6111a6816106e7565b916111b3600183016106d2565b916111c0600282016106e7565b916111cd600383016106d2565b916111da600482016106d2565b9161046e6006610732600585016106d2565b949290979695939160e0860198600087016112089160ff169052565b6020860152151560408501526060840152608083015260a082015260c00152565b3461045d5761058261124461123f3660046107ac565b611191565b9361125497959793919360405190565b978897886111ec565b3461045d576105826105cc6112733660046107ac565b6137f1565b909160608284031261045d5761046e6112918484610481565b936040610ab58260208701610496565b3461045d576108cd6112b4366004611278565b91613f82565b61046e670de0b6b3a7640000610591565b61046e6112ba565b3461045d576112e3366004610586565b6105826105cc6112cb565b61046e600661013c610a39565b3461045d5761130b366004610586565b610582610a6c6112ee565b3461045d576108cd6113293660046104a3565b9061418a565b61046e66b1a2bc2ec50000610591565b61046e61132f565b3461045d57611357366004610586565b6105826105cc61133f565b61046e61a8c0610af0565b61046e611362565b3461045d57611385366004610586565b610582610a6c61136d565b3461045d576113a0366004610586565b6108cd6141a7565b3461045d576105826105cc6113be3660046107ac565b6141af565b60208101929161048e91906104c6565b3461045d576113e3366004610586565b6105826113ee6141c9565b604051918291826113c3565b9060808061048e93611414600082015160008601906104c6565b60208181015163ffffffff169085015260408181015115159085015260608181015115159085015201516001600160801b0316910152565b60a08101929161048e91906113fa565b3461045d576105826114786114723660046104a3565b9061426e565b6040519182918261144c565b919060a08382031261045d5761149a8184610481565b926114a88260208301610d23565b9261046e6114b98460408501610496565b936080610d9a8260608701610843565b3461045d576108cd6114dc366004611484565b93929092614379565b600061081761046e926101336107e6565b3461045d576105826105cc61150c3660046107ac565b6114e5565b61046e6702c68af0bb140000610591565b61046e611511565b3461045d5761153a366004610586565b6105826105cc611522565b61046e916008021c610462565b9061046e9154611545565b61046e600061013a611552565b6104cf906107dd565b60208101929161048e919061156a565b3461045d57611593366004610586565b61058261159e61155d565b60405191829182611573565b61046e6014610af0565b61046e6115aa565b3461045d576115cc366004610586565b610582610a6c6115b4565b3461045d576108cd6115ea366004611278565b91614525565b61046e916008021c61064c565b9061046e91546115f0565b61046e600461013c6115fd565b3461045d57611625366004610586565b610582610680611608565b909160608284031261045d5761046e6116498484610481565b9360406108aa8260208701610496565b9060e08061048e93611673600082015160008601906104c6565b60208181015163ffffffff16908501526040818101511515908501526060818101511515908501526080818101516001600160801b0316908501526116bd60a082015160a0860152565b6116cc60c082015160c0860152565b015163ffffffff16910152565b6101008101929161048e9190611659565b3461045d57610582611706611700366004611630565b916145cb565b604051918291826116d9565b61046e61c350610af0565b61046e611712565b3461045d57611735366004610586565b610582610a6c61171d565b919060408382031261045d5761046e9060206108aa8286610481565b3461045d576105826105cc611772366004611740565b90614660565b3461045d576105826105cc61178e3660046107ac565b614ac0565b61106661046e61046e9290565b61046e66038d7ea4c68000611793565b61046e6117a0565b3461045d576117c8366004610586565b6105826117d36117b0565b604051918291826001600160801b03909116815260200190565b600061081761046e926101346107e6565b3461045d576105826105cc6118143660046107ac565b6117ed565b61046e916008021c6106e1565b9061046e9154611819565b600061184261046e926101376107e6565b611826565b3461045d57610582610ef761185d3660046107ac565b611831565b60e08183031261045d576118768282610481565b926118848360208401610a8c565b926118928160408501610496565b926118a08260608301610496565b9261046e6118b18460808501610858565b9360c06104bf8260a08701610496565b3461045d576108cd6118d4366004611862565b959490949391936150f8565b909160c08284031261045d576118f68383610481565b926119048160208501610481565b926119128260408301610a8c565b9261046e6119238460608501610496565b9360a06104bf8260808701610496565b3461045d576108cd6119463660046118e0565b949390939291926153d7565b61046e600361063f565b61046e611952565b3461045d57611974366004610586565b61058261068061195c565b3461045d576105826105cc6119953660046107ac565b615629565b90610bab61109f926101326107e6565b3461045d576105826111756119c03660046104a3565b9061199a565b3461045d576108cd6119d93660046107ac565b6159c7565b90610bab6119ee926101306107e6565b6119f7816106c1565b91611a018261102b565b91611a0b81611041565b9161046e6001611a1a84611057565b9301611072565b9095949261048e94611a55611a5e92610767608096611a4860a088019c60008901906104c6565b63ffffffff166020870152565b15156060830152565b01906001600160801b03169052565b3461045d57610582611a89611a833660046104a3565b906119de565b91611a9695939560405190565b95869586611a21565b61046e6006610591565b61046e611a9f565b3461045d57611ac1366004610586565b6105826105cc611aa9565b61046e610100610941565b611adf611acc565b9060008252602080808080808080890160008152016000815201600081520160005b815201600081520160008152016000905250565b61046e611ad7565b906104cf90610462565b9061048e611bd46005611b38611acc565b94611b4b611b45826106c1565b87611b1d565b611b61611b5782610b7b565b60ff166020880152565b611b76611b6d82610b91565b15156040880152565b611b8c611b85600183016106d2565b6060880152565b611ba2611b9b600283016106d2565b6080880152565b611bb8611bb1600383016106d2565b60a0880152565b611bce611bc7600483016106d2565b60c0880152565b016106d2565b60e0840152565b61046e90611b27565b61046e91610bab611c0092611bf7611b15565b5061012e6107e6565b611bdb565b9061048e94939291611c15615a20565b611f48565b61046261046e61046e9290565b61046e90611c1a565b6001600160701b03811661047a565b9050519061048e82611c30565b9050519061048e82610837565b909160608284031261045d5761046e611c728484611c3f565b936040611c828260208701611c3f565b9401611c4c565b6040513d6000823e3d90fd5b61046e9081906001600160701b031681565b634e487b7160e01b600052601160045260246000fd5b81810292918115918404141715611cd057565b611ca7565b61046e61046e61046e9261ffff1690565b6000198114611cd05760010190565b90600019905b9181191691161790565b90611d1561046e611d1c92610591565b8254611cf5565b9055565b9050519061048e82610490565b9060208282031261045d5761046e91611d20565b61046e9051610462565b906001600160a01b0390611cfb565b90611d6a61046e611d1c926107dd565b8254611d4b565b9063ffffffff60a01b9060a01b611cfb565b610a3061046e61046e9263ffffffff1690565b90611da661046e611d1c92611d83565b8254611d71565b9060ff60c01b9060c01b611cfb565b90611dcc61046e611d1c92151590565b8254611dad565b9060ff60c81b9060c81b611cfb565b90611df261046e611d1c92151590565b8254611dd3565b906001600160801b0390611cfb565b61046e90611066906001600160801b031682565b90611e2c61046e611d1c92611e08565b8254611df9565b9063ffffffff90611cfb565b90611e4f61046e611d1c92611d83565b8254611e33565b61048e91600490611f109060e090611eb785611e7a611e7484611d41565b82611d5a565b611e94611e8e602085015163ffffffff1690565b82611d96565b611eaa611ea46040850151151590565b82611dbc565b6060830151151590611de2565b611ed7611ece60808301516001600160801b031690565b60018701611e1c565b611eee611ee560a083015190565b60028701611d05565b611f05611efc60c083015190565b60038701611d05565b015163ffffffff1690565b9101611e3f565b9061048e91611e56565b9095949261048e94611a5561077792610767608096611a4860a088019c60008901906104c6565b9392936000611f5681611c27565b611f5f81610462565b611f6884610462565b149081156123e7575b506123d557611f81610a306115aa565b63ffffffff85161080156123bc575b6123aa57611fa5611fa0846107dd565b6107dd565b90611faf60405190565b630240bc6b60e21b8152606081600481865afa9081156121c157611ff891611ff3918490859261236f575b50611fe7611fed91611c95565b91611c95565b90611cbd565b611793565b6120036110666117a0565b6001600160801b0382161061234c57861561220c5761013461202d61202886836107e6565b6106d2565b61204461204061203b610ce7565b611cd5565b9190565b10156121e55784612054916107e6565b90612071612061836106d2565b9261206b84611ce6565b90611d05565b819361207c60405190565b635909c0d560e01b8152602081600481855afa9081156121c15785916121c6575b5060206120a960405190565b635a3d549360e01b815292839060049082905afa9182156121c1578592612190575b506120d542610af0565b92886120df611acc565b968701906120ec91611b1d565b63ffffffff8a1660208701528b15156040870152600160608701526001600160801b0316608086015260a085015260c084015263ffffffff1660e0830152612136846101316107e6565b90612140916106a9565b9061214a91611f17565b7f093ba5ea9e58017c897dc82e6f3fb8c07973ac1b1b6eba87af4906ad4c83e6089461217861218b936107dd565b9661218260405190565b95869586611f21565b0390a2565b6121b391925060203d6020116121ba575b6121ab818361091b565b810190611d2d565b90386120cb565b503d6121a1565b611c89565b6121df915060203d6020116121ba576121ab818361091b565b3861209d565b612208856121f260405190565b63e0df539160e01b8152918291600483016113c3565b0390fd5b61013561221c61202886836107e6565b61222a61204061203b610ce7565b10156121e5578461223a916107e6565b90612247612061836106d2565b819361225260405190565b635909c0d560e01b8152602081600481855afa9081156121c157859161232d575b50602061227f60405190565b635a3d549360e01b815292839060049082905afa9182156121c157859261230c575b506122ab42610af0565b92886122b5611acc565b968701906122c291611b1d565b63ffffffff8a1660208701528b15156040870152600160608701526001600160801b0316608086015260a085015260c084015263ffffffff1660e0830152612136846101326107e6565b61232691925060203d6020116121ba576121ab818361091b565b90386122a1565b612346915060203d6020116121ba576121ab818361091b565b38612273565b6122088561235960405190565b6380daf1e560e01b8152918291600483016113c3565b611fe79250611fed915061239a9060603d6060116123a3575b612392818361091b565b810190611c59565b50925090611fda565b503d612388565b604051638b76a8ad60e01b8152600490fd5b506123c8610a30610eae565b63ffffffff851611611f90565b60405163d92e233d60e01b8152600490fd5b6123f19150610462565b6123fa84610462565b1438611f71565b9061048e94939291611c05565b91602061048e929493612429604082019660008301906104c6565b01906104c6565b91907f00000000000000000000000000000000000000000000000000000000000000009261245d84610462565b61246633610462565b036124765761048e929350615af3565b6122088461248360405190565b63073e64fd60e21b8152918291336004840161240e565b6106e161046e61046e9290565b906124b96124b4306107dd565b610462565b6124c233610462565b03612530576124d1600061249a565b60ff821614612526576124e4600161249a565b60ff82161461251c576125016124fa600261249a565b9160ff1690565b1461251157600061046e91614660565b600161046e91614660565b5061046e90615629565b5061046e90614ac0565b60405163b4fa3fb360e01b8152600490fd5b61048e9061254e615a20565b612573565b9060ff90611cfb565b9061256c61046e611d1c92151590565b8254612553565b6125806124b46000611c27565b61258982610462565b146123d55780611fa060006125a36125a8946101376107e6565b61255c565b7fe087fd354053162145f52f99c0b1e51f44a942b0aea2ecb03af4d0622c2db80c6125d260405190565b60008152806020810161218b565b61048e90612542565b156125f057565b60405162461bcd60e51b815260206004820152602c60248201527f46756e6374696f6e206d7573742062652063616c6c6564207468726f7567682060448201526b19195b1959d85d1958d85b1b60a21b6064820152608490fd5b1561265157565b60405162461bcd60e51b815260206004820152602c60248201527f46756e6374696f6e206d7573742062652063616c6c6564207468726f7567682060448201526b6163746976652070726f787960a01b6064820152608490fd5b61048e906127136126bb306107dd565b6126f97f0000000000000000000000000000000000000000000000000000000000000000916126f26126ec84610462565b91610462565b14156125e9565b61270d6126ec6127076161ac565b92610462565b1461264a565b612752565b9061272561097c83610dc0565b918252565b369037565b9061048e61274561273f84612718565b93610dc0565b601f19016020840161272a565b600061048e91612761816161c5565b61277261276d83610591565b61272f565b90616255565b61048e906126ab565b612789615a20565b61048e61048e616395565b61048e612781565b906127ae916127a96163f3565b6127b7565b9061048e616425565b9061046e916127c461646f565b612946565b6104cf9061249a565b6127ff61048e946127f86060949897956127f1608086019a6000870152565b6020850152565b6040830152565b01906127c9565b61046e9060a01c6105e6565b61046e9054612806565b61046e9060201c61064c565b61046e905461281c565b61046e9060301c610a30565b61046e9054612832565b9095949261048e946128876128949261287c60809661286c60a088019c6000890152565b6001600160401b03166020870152565b61ffff166040850152565b63ffffffff166060830152565b019063ffffffff169052565b61046e60a0610941565b600461290d608061048e946128ca6128c460008301611d41565b86611d5a565b6128e16128d8602083015190565b60018701611d05565b6128fa6128f16040830151151590565b6002870161255c565b612908611efc606083015190565b015190565b9101611d05565b9061048e916128aa565b61293d61048e946127f86060949897956127f1608086019a6000870152565b019060ff169052565b5061295b612956826101376107e6565b6106e7565b612b9f5761296e61046e8261012d6107e6565b9061297b600283016106e7565b80612b79575b6129dc576000805160206181ba83398151915261299d826169f0565b916129bd6129b760006129b08685616482565b96016106e7565b916107dd565b926129d66129ca60405190565b9283928742918561291e565b0390a290565b90506101396129ee61202883836107e6565b916000926129fe61204085610591565b03612b5657612a11611fa061013a6106c1565b916020612a1f61013b6106d2565b93612a2b61013a612812565b90612a3761013c612828565b9187612a4461013c611085565b97612a70612a5361013c61283e565b6040519a8b97889687956305d3b1d360e41b875260048701612848565b03925af19283156121c1578493612b35575b50829082612a8e6128a0565b95612a9b82828901611b1d565b612aa6846020890152565b60016040880152612ab690610591565b95612ac2876060830152565b612acd876080830152565b612ad9846101386106a9565b90612ae391612914565b612aec916107e6565b90612af691611d05565b612aff906107dd565b90612b0960405190565b9081527faa01e3c26c8bfcdf79ff825862215e9234f28cd2ca6cdec9584cab4b518c15d490602090a290565b612b4f91935060203d6020116121ba576121ab818361091b565b9138612a82565b61220890612b6360405190565b63ac4ad0d760e01b8152918291600483016113c3565b50612b88611fa061013a6106c1565b612b986126ec6124b46000611c27565b1415612981565b612bae612028826101366107e6565b6000805160206181ba8339815191526004612bd2612bcc8486616482565b946107dd565b926129d6612bdf60405190565b928392874291856127d2565b61046e90600061279c565b61046e9060081c6106e1565b61046e9054612bf6565b15612c1357565b60405162461bcd60e51b815260206004820152602e60248201527f496e697469616c697a61626c653a20636f6e747261637420697320616c72656160448201526d191e481a5b9a5d1a585b1a5e995960921b6064820152608490fd5b6106e161046e61046e9260ff1690565b9061256c61046e611d1c92612c6f565b9061ff009060081b611cfb565b90612cac61046e611d1c92151590565b8254612c8f565b60208101929161048e91906127c9565b94929091612d139492612cdd612cd96000612c02565b1590565b968780612dae575b8015612d70575b612cf590612c0c565b87612d0a612d03600161249a565b6000612c7f565b612d5f57612eb2565b612d1957565b612d24600080612c9c565b7f7f26b83ff96e1f2b6a682f133852f6798a09c465da95921460cefb3847402498612d4e60405190565b80612d5a600182612cb3565b0390a1565b612d6b60016000612c9c565b612eb2565b50612d85612cd9612d80306107dd565b6169fb565b8015612cec5750612cf5612d9960006106e7565b612da66124fa600161249a565b149050612cec565b50612db960006106e7565b612dc66124fa600161249a565b10612ce5565b9067ffffffffffffffff60a01b9060a01b611cfb565b6105e661046e61046e926001600160401b031690565b90612e0861046e611d1c92612de2565b8254612dcc565b90611d1561046e611d1c9290565b9065ffff000000009060201b611cfb565b61064c61046e61046e9261ffff1690565b90612e4f61046e611d1c92612e2e565b8254612e1d565b9069ffffffff0000000000009060301b611cfb565b90612e7b61046e611d1c92611d83565b8254612e56565b60409061077761048e9496959396612ea2606084019860008501906104c6565b6001600160401b03166020830152565b94939193929092612ec36000611c27565b612ecc81610462565b612ed588610462565b1490811561300c575b506123d557612eee610a30611712565b63ffffffff8416108015612ff3575b612fca57612f0c61064c611952565b61ffff8216108015612fdc575b612fca577febaac0d3ce1779c81256a4ecf50cd8ebf5ac10916e42c9790716a718345c022095612fa9612fbe92612fa1612d5a96612f55616a8a565b612f5d616aaa565b612f65616aca565b612f6d616adf565b612f81612f798a6107dd565b61013a611d5a565b612f8d8a61013a612df8565b612f998761013b612e0f565b61013c611e3f565b61013c612e3f565b6119d9612fb66001610af0565b61013c612e6b565b60405193849384612e82565b60405163d753355560e01b8152600490fd5b50612fe861064c610653565b61ffff821611612f19565b50612fff610a30610c85565b63ffffffff841611612efd565b6130169150610462565b61301f85610462565b1438612ede565b9061048e9594939291612cc3565b9061048e916130456126bb306107dd565b61048e91600191613055816161c5565b616255565b9061048e91613034565b9061048e91613071615a20565b6130f5565b9060ff60a81b9060a81b611cfb565b9061309561046e611d1c92151590565b8254613076565b6104cf90610591565b91946130eb610777929897956130e160a0966130da61048e9a6130d060c08a019e60008b01906104c6565b60ff166020890152565b6040870152565b606085019061309c565b608083019061309c565b61310761046e6120288361012f6107e6565b8210156131e2578060009261012e9084808261312386866107e6565b9061312d916106a9565b019061313891613085565b80858161314586866107e6565b9061314f916106a9565b01613159906106c1565b92868261316687846107e6565b90613170916106a9565b0161317a90610b7b565b94613184916107e6565b9061318e916106a9565b60010161319a906106d2565b936131a4906107dd565b94806131af60405190565b9586956131bc95876130a5565b037ff338b0058e24bac9b666836a7aba15aab762c2ab4a04de103d9c9ec4cf779bbd91a2565b612208906131ef60405190565b636ade937960e11b8152918291600483016113c3565b9061048e91613064565b1561321657565b60405162461bcd60e51b815260206004820152603860248201527f555550535570677261646561626c653a206d757374206e6f742062652063616c6044820152771b1959081d1a1c9bdd59da0819195b1959d85d1958d85b1b60421b6064820152608490fd5b61046e906132be61328c306107dd565b6132b86126ec7f0000000000000000000000000000000000000000000000000000000000000000610462565b1461320f565b6132ec565b61046e7f360894a13ba1a3210667c828492db98dca3e2076cc3735a920a3ca505d382bbc610591565b5061046e6132c3565b61046e600061327c565b61046e60fb6106e7565b9061048e939291613318615a20565b613482565b6001600160801b03811661047a565b9050519061048e8261331d565b9060208282031261045d5761046e9161332c565b6001600160a01b03811661047a565b9050519061048e8261334d565b61047a8160020b90565b9050519061048e82613369565b9050519061048e82610d30565b9050519061048e82610a83565b9050519061048e82610850565b60e08183031261045d576133bb828261335c565b926133c98360208401613373565b926133d78160408501613380565b926133e58260608301613380565b9261046e6133f68460808501613380565b9360c06134068260a0870161338d565b940161339a565b61048e916001906134399060809061342b85611e7a611e7484611d41565b01516001600160801b031690565b9101611e1c565b9061048e9161340d565b61077761048e9461347960609498979561346c608086019a60008701906104c6565b63ffffffff166020850152565b15156040830152565b919060009261349084611c27565b61349981610462565b6134a283610462565b149081156137a6575b506123d5576134bb610a30610afd565b63ffffffff841610801561378d575b61377b57610133906134df61202882846107e6565b6134ed61204061203b610ce7565b101561376e576134ff611fa0846107dd565b9161350960405190565b630d34328160e11b815292602084600481845afa9384156121c157879461373d575b506135376110666117a0565b6001600160801b0385161061234c57604051633850c7bd60e01b81529060e082600481845afa9182156121c1578892613707575b5061357587616b29565b9161358761ffff84165b9161ffff1690565b10613647575b505081611fa07f754350ef13e3f21de7014998a168daaaf9dd773c672a2e0e1b4c14b900a92a669761361f6135c961218b9796613634966107e6565b956135e06135d6886106d2565b9761206b89611ce6565b6135f4896135ec6128a0565b948501611b1d565b63ffffffff8a1660208401528b15156040840152600160608401526001600160801b03166080830152565b61362f85610bab856101306107e6565b613440565b9561363e60405190565b9485948561344a565b8094939192943b1561045d57613688889391849261366460405190565b95869384928391906332148f6760e01b83526004830161ffff909116815260200190565b03925af180156121c1577f754350ef13e3f21de7014998a168daaaf9dd773c672a2e0e1b4c14b900a92a669761361f6135c98461218b9861363497611fa0966136db575b5096509697505050975061358d565b6136fa90863d8811613700575b6136f2818361091b565b810190610586565b386136cc565b503d6136e8565b61372a91925060e03d60e011613736575b613722818361091b565b8101906133a7565b5050949350505061356b565b503d613718565b61376091945060203d602011613767575b613758818361091b565b810190613339565b923861352b565b503d61374e565b612208906121f260405190565b604051633711a2a160e01b8152600490fd5b50613799610a30611362565b63ffffffff8416116134ca565b6137b09150610462565b6137b983610462565b14386134ab565b9061048e939291613309565b6137d4615a20565b61048e61048e6137e46000611c27565b616b61565b61048e6137cc565b61202861046e91613800600090565b506101396107e6565b9061381c92916138176163f3565b613824565b61048e616425565b9061048e929161383261646f565b61398d565b61293d61048e9461385960609498979561346c608086019a60008701906104c6565b63ffffffff166040830152565b9095949261048e94611a556107779261388d608096611a4860a088019c60008901906104c6565b6001600160801b03166040850152565b61046e61046e61046e9263ffffffff1690565b6104cf9061389d565b9095949261048e946138f1613901926138ea6080966138e060a088019c60008901906104c6565b60ff166020870152565b6040850152565b6001600160801b03166060830152565b01906138b0565b6127ff61048e9461385960609498979561346c608086019a60008701906104c6565b61077761048e9461394c60609498979561346c608086019a60008701906104c6565b6001600160801b03166040830152565b9095949261048e946138f1610777926138ea60809661398360a088019c60008901906104c6565b60208701906127c9565b919060019161399b8361249a565b60ff821603613c7657506139b761046e612028856101336107e6565b811015613c69576139d161046e82610bab866101306107e6565b91826139df612cd982611057565b613c46576139f2611fa0611fa0836106c1565b946139fc60405190565b630d34328160e11b8152946020866004818a5afa9586156121c157600096613c25575b50613a2b6110666117a0565b6001600160801b03871610613c1157613a4386616cde565b96613a4d60405190565b633850c7bd60e01b815260e081600481855afa9283156121c15788938a938893600092613beb575b50613a7f85616b29565b91613a8d61ffff841661357f565b10613b95575b5050908391613aa1876106c1565b613aaa8861102b565b96613ab4906107dd565b9b8c97889285613ac360405190565b938493613ad09385613908565b037f5b4be6d5ac7e9a25fb2dfcdb7d7817dd07e95c7411d181c33f1699d2dc3a07d491a2613afe8488611d96565b0190613b0991611e1c565b613b12846106c1565b86613b1c60405190565b938493613b29938561392a565b037fc12884c91e84ff113f79cbc9f076a6671dfe306b4a11169384d6533d99821d8191a2613b56906106c1565b90613b6060405190565b9384934292613b6f948661395c565b037f85a36085267129c9c15e9191bf6a29729f1a803d023dcaef3d9ff4aeb667653591a2565b925093509150803b1561045d57613bb460009391849261366460405190565b03925af19182156121c1578589928994928593613bd5575b81929350613a93565b613be59060006136f2818361091b565b38613bcc565b613c0591925060e03d60e01161373657613722818361091b565b50509493505050613a75565b612208613c1d846106c1565b604051612359565b613c3f91965060203d60201161376757613758818361091b565b9438613a1f565b61220885613c5360405190565b630f4c971b60e21b8152918291600483016113c3565b61220883613c5360405190565b9091613c82600261249a565b60ff83161490818215613f6d575b15612530578115613f5457613cae61046e85610bab886101316107e6565b945b8215613f4257613cc861046e612028836101346107e6565b851015613f35578590613cdd612cd983611057565b613f3557613cf0611fa0611fa0846106c1565b96613cfa60405190565b630240bc6b60e21b8152936060856004818c5afa9485156121c157600080918197613f00575b50613d3491611fed611fe7611ff393611c95565b95613d406110666117a0565b6001600160801b03881610613ef457613d5887616bfe565b99613d6260405190565b635909c0d560e01b8152602081600481855afa80156121c157613d9191600091613ed5575b5060028601611d05565b6020613d9c60405190565b635a3d549360e01b815291829060049082905afa9283156121c15788948c948693600091613eb6575b50613dd39060038301611d05565b613de08960048301611e3f565b613dea8589611d96565b0190613df591611e1c565b613dfe856106c1565b613e078661102b565b94613e11906107dd565b9a8b9586928b613e2060405190565b938493613e2d9385613837565b037f5b4be6d5ac7e9a25fb2dfcdb7d7817dd07e95c7411d181c33f1699d2dc3a07d491a288613e5b866106c1565b91613e6560405190565b948594613e729486613866565b037fdb966e135221e777d29abb23df8016434ee83deb89060f2d7b4e683147c4383491a2613e9f906106c1565b91613ea960405190565b948594613b6f94866138b9565b613ecf915060203d6020116121ba576121ab818361091b565b38613dc5565b613eee915060203d6020116121ba576121ab818361091b565b38613d87565b612208613c1d866106c1565b611fed9750613d349250611ff39150613f2a611fe79160603d6060116123a357612392818361091b565b995093509150613d20565b61220890613c5360405190565b613cc861046e612028836101356107e6565b613f6761046e85610bab886101326107e6565b94613cb0565b50613f78600361249a565b60ff841614613c90565b9061048e9291613809565b9061048e91613f9a615a20565b613fd4565b91908203918211611cd057565b634e487b7160e01b600052601260045260246000fd5b905b908115613fcf570490565b613fac565b91906000613fe46124b482611c27565b613fed85610462565b146123d557613ffb81610591565b82146141785761401061046e8561012d6107e6565b90600182019161401f836106d2565b61402b61204084610591565b116140ca575b5050507f37f25b4e09daa2755969e29b42bfec15eb5b67e1e114bb0b994738ffa7a46dc4614083846140728461406d61408f97986101366107e6565b611d05565b611fa060016125a3836101376107e6565b9283926105d060405190565b0390a27fe087fd354053162145f52f99c0b1e51f44a942b0aea2ecb03af4d0622c2db80c6140bc60405190565b60018152806020810161218b565b6140d8826140de92016106e7565b86616d71565b906140e881610591565b8211156140315761046e8285612040936141026141389690565b8211159050614168579061412d61411c8261413294613f9f565b611fed670de0b6b3a7640000610591565b613fc2565b936106d2565b1161414557388080614031565b6122088361415260405190565b6359522bc760e01b8152918291600483016113c3565b61412d61411c8261413294613f9f565b604051637c946ed760e01b8152600490fd5b9061048e91613f8d565b61419c615a20565b61048e61048e616fef565b61048e614194565b6004611bce61046e926141c0600090565b5061012d6107e6565b61046e60976106c1565b6141db6128a0565b906000825260208080808086016000611b01565b61046e6141d3565b9061048e61425560016142086128a0565b94614215611b45826106c1565b61422e6142218261102b565b63ffffffff166020880152565b61423a611b6d82611041565b61424f61424682611057565b15156060880152565b01611072565b6001600160801b03166080840152565b61046e906141f7565b61046e91610bab61428a926142816141ef565b506101306107e6565b614265565b9061048e9493929161429f615a20565b91939092936142b16124b46000611c27565b6142ba84610462565b146123d5576142ca610a30611712565b63ffffffff8616108015614360575b612fca576142e861064c611952565b61ffff8316108015614349575b612fca57612fbe612d5a92612fa17febaac0d3ce1779c81256a4ecf50cd8ebf5ac10916e42c9790716a718345c022097614331612f79886107dd565b61433d8861013a612df8565b612f998561013b612e0f565b5061435561064c610653565b61ffff8316116142f5565b5061436c610a30610c85565b63ffffffff8616116142d9565b9061048e9493929161428f565b9061048e9291614394615a20565b6143c3565b60409061077761048e94969593966143b9606084019860008501906104c6565b60208301906127c9565b90916143cf600161249a565b60ff82160361445757506143eb61046e612028836101336107e6565b821015613f355760018161218b61444461443e600061443888610bab60008051602061819a83398151915299610130614433868061442d87610bab87876107e6565b01611de2565b6107e6565b016106c1565b926107dd565b9461444e60405190565b93849384614399565b614461600261249a565b60ff8216036144bf575061447d61046e612028836101346107e6565b821015613f355760028161218b61444461443e600061443888610bab60008051602061819a83398151915299610131614433868061442d87610bab87876107e6565b6144cc6124fa600361249a565b03612530576144e361046e612028836101356107e6565b821015613f355760038161218b61444461443e600061443888610bab60008051602061819a83398151915299610132614433868061442d87610bab87876107e6565b9061048e9291614386565b9061048e6145b56004614541611acc565b9461454e611b45826106c1565b61455a6142218261102b565b614566611b6d82611041565b61457261424682611057565b61459161458160018301611072565b6001600160801b03166080880152565b6145a0611bb1600283016106d2565b6145af611bc7600383016106d2565b01611085565b63ffffffff1660e0840152565b61046e90614530565b61046e926145d7611b15565b50156145f5576145f091610bab61046e926101316107e6565b6145c2565b6145f091610bab61046e926101326107e6565b9061272561097c83610955565b9061048e61274561462584614608565b93610955565b634e487b7160e01b600052603260045260246000fd5b9061464a825190565b81101561465b576020809102010190565b61462b565b9091908215614a0957614678612028826101346107e6565b915b60009061468682610591565b8414613c695761469582610591565b9161469f85614615565b91835b865b8110156149c55787156149ad576146c461046e82610bab896101316107e6565b838101906146d4612cd983611057565b801561498e575b61497f576146ee611fa0611fa0846106c1565b604051630240bc6b60e21b815290606082600481845afa9182156121c157879261495e575b5061471d87610af0565b63ffffffff83161461494d57604051635909c0d560e01b815293602085600481855afa9485156121c157889561492d575b50602061475a60405190565b635a3d549360e01b815292839060049082905afa80156121c1578b92899161490f575b50600485019061479d61479761479284611085565b61389d565b42613f9f565b6147c261046e6147ac8661102b565b6147bd6147b7611a9f565b9161389d565b611cbd565b81106147fc576147d184611041565b156148f4576147ec906147e6600289016106d2565b89616ff7565b6147f58b610591565b8111614818575b50505050505050506148116146a49160010190565b90506146a2565b9b85979c61482e828e9b999b9895969798614641565b5261483890611ce6565b9b6148469060028a01611d05565b6148539060038901611d05565b61485c91611e3f565b614865906106c1565b6146a494614811947f85a36085267129c9c15e9191bf6a29729f1a803d023dcaef3d9ff4aeb667653592906148cd908f156148dc576148b96148b360016148ac600261249a565b9601611072565b966107dd565b95876148c460405190565b958695866138b9565b0390a2913888818080806147fc565b6148b96148b360016148ee600361249a565b9661424f565b61490a90614904600389016106d2565b83616ff7565b6147ec565b614927915060203d81116121ba576121ab818361091b565b3861477d565b61494691955060203d81116121ba576121ab818361091b565b933861474e565b505050506148116146a49160010190565b61497791925060603d81116123a357612392818361091b565b929150614713565b50506148116146a49160010190565b50614998826106c1565b6149a76126ec6124b488611c27565b146146db565b6149c061046e82610bab896101326107e6565b6146c4565b5094506149d59192939550610591565b82146149e65761046e929350617045565b612208846149f360405190565b63419098d760e11b8152918291600483016113c3565b614a18612028826101356107e6565b9161467a565b69ffffffffffffffffffff811661047a565b9050519061048e82614a1e565b919060a08382031261045d57614a538184614a30565b92614a618260208301611d20565b9261046e614a728460408501611d20565b936080614a828260608701611d20565b9401614a30565b91908201809211611cd057565b614aa29060ff166124fa565b90039060ff8211611cd057565b60ff16604d8111611cd057600a0a90565b614acf6120288261012f6107e6565b906000614adb81610591565b8314614ea357614aea81610591565b908190614af685614615565b91614b0086614615565b92845b875b811015614d3a57614b1f61046e82610bab8a61012e6107e6565b848101614b2e612cd982610b91565b8015614d1b575b614d0c57614b48611fa0611fa0836106c1565b9060a0614b5460405190565b633fabe5a360e21b815292839060049082905afa87908893818a918b93614cd6575b50614b9557505050505050614b8e614b059160010190565b9050614b03565b614ba18d9c979c6171db565b91614bab8b610591565b861315938415614cbc575b50508215614ca4575b5050614c935792614c52614b8e93614c48614c3e614c579588614be4614b059a610b7b565b8d601291614bf46124fa8461249a565b14159050614c5e575050614c0790610591565b995b614c1a8b614c17888d614641565b52565b614c38600285016120288f614c178a614c32856106d2565b92614641565b90614a89565b9860048301611d05565b6005429101611d05565b611ce6565b9660010190565b614c88611fed91614c83614c7d614c77614c8d97610591565b95610b7b565b9161249a565b614a96565b614aaf565b99614c09565b50505094614b8e614b059160010190565b614cb392509061046e91614a89565b42113880614bbf565b69ffffffffffffffffffff90811691161092503880614bb6565b9250945050614cfc915060a03d8111614d05575b614cf4818361091b565b810190614a3d565b92959091614b76565b503d614cea565b5050614b8e614b059160010190565b50614d25816106c1565b614d346126ec6124b489611c27565b14614b35565b50929695509390614d4a81610591565b8414614e80576003614d6161046e8461012d6107e6565b0190614d6c826106d2565b614d7861204083610591565b1180614e6e575b614d92575b5050509361046e939461726a565b91959094614da08585617045565b94614daa84610591565b81811015614e5a57614dc3614dbf8288614641565b5190565b871015614e2657614de78761412d61411c82614de2614dbf878d614641565b613f9f565b614df661204061046e8b6106d2565b11614e0357600101614daa565b61220889614e1060405190565b632f0b73cd60e21b8152918291600483016113c3565b614e55614e4261411c614e3c614dbf858b614641565b8a613f9f565b614e4f614dbf848a614641565b90613fc2565b614de7565b509196509450925061046e90503880614d84565b50614e796001610591565b8511614d7f565b61220882614e8d60405190565b63120521f560e21b8152918291600483016113c3565b612208826131ef60405190565b9061048e969594939291614ec2615a20565b614eda565b90815260408101929161048e9160200152565b92919495939095600093614ef06124b486611c27565b614ef982610462565b146123d557614f08600361249a565b60ff89161180156150df575b6125305785614f2861046e8361012d6107e6565b93866005860195614f38876106d2565b97614f4283610591565b87149586156150d557614f566129b7611511565b998a91614f6260405190565b918291614f6f9183614ec7565b037fd6f17cb19a305e79b9159a6688d36e1ed7332f5fbd070fe955b01d7eaa39dd7091a2600682019b614fa18d6106d2565b86141561048e9e6150229b61501498600297614fc694615058575b9150508501612c7f565b614fcf8b610591565b810361504f5750614fea614fe161132f565b60018401611d05565b614ff38a610591565b8103615046575061500e6150056108d2565b60038301611d05565b0161255c565b1561206b575061206b611511565b61502b81610591565b821415905061206b575061206b670de0b6b3a7640000610591565b61500e90615005565b614fea90614fe1565b61506181610591565b82141590506150ab57507f4c1edb2651828fe431662e0cd5bed7c8ad35e7ee373ecc15bf9a726089579c5a6150a06105cc670de0b6b3a7640000610591565b0390a2388e8e614fbc565b6150a07f4c1edb2651828fe431662e0cd5bed7c8ad35e7ee373ecc15bf9a726089579c5a916105cc565b614f5688916107dd565b506150f1670de0b6b3a7640000610591565b8211614f14565b9061048e969594939291614eb0565b9061048e9594939291615118615a20565b615209565b9060ff60a01b9060a01b611cfb565b9061513c61046e611d1c92612c6f565b825461511d565b61048e9160059061290d9060e09061518585615161611e7484611d41565b615178615172602085015160ff1690565b8261512c565b6040830151151590613085565b6151936128d8606083015190565b6151a1611ee5608083015190565b6151af611efc60a083015190565b6129086151bd60c083015190565b60048701611d05565b9061048e91615143565b9194615202610777929897956151fb60a0966130da61048e9a6130d060c08a019e60008b01906104c6565b6060850152565b6080830152565b949193909294600061521a81611c27565b61522381610462565b61522c84610462565b149081156153bd575b506123d55761524561046e610fda565b84116153ab5761012f61525b61202884836107e6565b61526961204061203b610ce7565b101561539e579261537583611fa08861536061534e7ff338b0058e24bac9b666836a7aba15aab762c2ab4a04de103d9c9ec4cf779bbd9c9b9a976152b18f9a61218b9c6107e6565b996152c86152be8c6106d2565b9b61206b8d611ce6565b8d6152d283610591565b82036153925761533e91506153376152e861059e565b6152f185610591565b8c036153885761532b61530b670de0b6b3a7640000610591565b935b615321615318611acc565b9a888c01611b1d565b60ff1660208a0152565b60016040890152611b85565b6080860152565b6153498960a0860152565b610591565b6153598160c0850152565b60e0830152565b61537087610bab8561012e6107e6565b6151c6565b9761537f60405190565b968796876151d0565b61532b8c9361530d565b61533761533e926152e8565b612208836121f260405190565b604051630655e11360e41b8152600490fd5b6153c79150610462565b6153d086610462565b1438615235565b9061048e9594939291615107565b61047a8160060b90565b9050519061048e826153e5565b9092919261540c61097c82610955565b938185526020808601920283019281841161045d57915b8383106154305750505050565b6020809161543e84866153ef565b815201920191615423565b9080601f8301121561045d57815161046e926020016153fc565b9092919261547361097c82610955565b938185526020808601920283019281841161045d57915b8383106154975750505050565b602080916154a5848661335c565b81520192019161548a565b9080601f8301121561045d57815161046e92602001615463565b91909160408184031261045d5780516001600160401b03811161045d57836154f3918301615449565b9260208201516001600160401b03811161045d5761046e92016154b0565b9061553161552a615520845190565b8084529260200190565b9260200190565b9060005b8181106155425750505090565b90919261556561555e600192865163ffffffff16815260200190565b9460200190565b929101615535565b602080825261046e92910190615511565b61558d9060060b5b9160060b90565b900390667fffffffffffff198212667fffffffffffff831317611cd057565b6155bf61046e61046e9263ffffffff1690565b66ffffffffffffff1690565b6155e161046e61046e9266ffffffffffffff1690565b60060b90565b6155f39060060b615586565b908115613fcf57667fffffffffffff198114600019831416611cd0570590565b61562361046e61046e9260060b90565b60020b90565b615638612028826101336107e6565b9060009261564584610591565b831461592a5761565484610591565b9161565e84614615565b91835b855b81101561591d578661567e61046e83610bab876101306107e6565b0161568b612cd982611057565b80156158fe575b6158f1576156a5611fa0611fa0836106c1565b604051633850c7bd60e01b81529060e082600481845afa80156121c1578a9283916158ce575b506156dd6156d88561102b565b616b29565b906156eb61ffff831661357f565b106158765750615771906156ff6002610591565b8361570982614615565b6157326157158861102b565b61572761572185610591565b84614641565b9063ffffffff169052565b61573b82610af0565b9361575460019561572761574e88610591565b85614641565b6040519586928391829163883bdbfd60e01b83526004830161556d565b03915afa849381615851575b5061579b5750505050506157946156639160010190565b9050615661565b6157a961046e849b979b5190565b1061583f5761582e6157949461582861582261581d6157fe615838986157f86157e56156639d9a6157f26157ec6157e5615721614c529e610591565b5160060b90565b94610591565b90614641565b9061557e565b61581761581261580d8761102b565b6155ac565b6155cb565b906155e7565b615613565b91611041565b906174e8565b614c17838a614641565b9560010190565b50505050936157946156639160010190565b61586e9194503d8087833e615866818361091b565b8101906154ca565b93909361577d565b9392508091503b1561045d57615893899391849261366460405190565b03925af19081156121c15761566392615794926158b2575b5060010190565b6158c8908a3d8c11613700576136f2818361091b565b386158ab565b6158e6915060e03d811161373657613722818361091b565b5050935050506156cb565b5061566390600101615794565b50615908816106c1565b6159176126ec6124b48b611c27565b14615692565b509350936149d590610591565b61220882613c5360405190565b61048e90615943615a20565b6159a3565b1561594f57565b60405162461bcd60e51b815260206004820152602660248201527f4f776e61626c653a206e6577206f776e657220697320746865207a65726f206160448201526564647265737360d01b6064820152608490fd5b61048e906137e46159b76124b46000611c27565b6159c083610462565b1415615948565b61048e90615937565b156159d757565b60405162461bcd60e51b815280612208600482016020808252818101527f4f776e61626c653a2063616c6c6572206973206e6f7420746865206f776e6572604082015260600190565b61048e615a2b6141c9565b615a376126ec33610462565b146159d0565b6001600160401b03811161093c5760200290565b61097c61046e91615a3d565b9061048e615a73615a6d84615a51565b93615a3d565b8361272a565b61046e6004615a5d565b90600481101561465b576020020190565b8115613fcf570690565b600161046e910160ff1690565b61046e61046e61046e9260ff1690565b91602061048e92949361293d604082019660008301906104c6565b90815260608101939261048e92909160409161293d906020830152565b9190615b0461046e846101386106a9565b92615b0e846106c1565b615b1e6126ec6124b46000611c27565b148015616197575b61617057615b53614dbf615b4861046e61012d615b42896106c1565b906107e6565b936157f26000610591565b936000918293615b636004615a51565b90615b90615b7e612028615b76876106c1565b61012f6107e6565b615b8b6120406000610591565b118352565b615bba615ba5612028610133615b42886106c1565b615bb26120406000610591565b116020840152565b615be4615bcf612028610134615b42886106c1565b615bdc6120406000610591565b116040840152565b615c0e615bf9612028610135615b42886106c1565b615c066120406000610591565b116060840152565b615c16615a79565b95615c216000610591565b95615c35615c2f8886615a83565b51151590565b6160be575b600197615c52615c2f615c4c8b610591565b87615a83565b61609a575b600294615c6f615c2f615c6988610591565b83615a83565b61607c575b615d17600399615c8f615c2f615c898d610591565b85615a83565b61605d575b8b615caa615c2f615ca483610591565b86615a83565b1561604757615cf3615cca614dbf615cc4614c3894610591565b88615a83565b615cd9615c2f615cc48d610591565b1561603d57614c38614dbf615ced8d610591565b89615a83565b8c615d03615c2f615cc483610591565b1561603257614dbf615cc4614c3892610591565b9b8c615d266120406000610591565b1461601e578a9b9c615d3a919b9a9b615a94565b91615d456000610591565b91615d50600061249a565b9c5b615f97575b505050506000805160206181ba83398151915297985050615db0602082615d7d306107dd565b615d86896106c1565b6000615d9160405190565b809681958294615da56325cdfef660e01b90565b845260048401615abb565b03925af160009181615f76575b50615f6c5750615dd69050615dd1856106c1565b6169f0565b90615de0816106e7565b955b8101615ded816106d2565b615dfa6120406000610591565b11615ecb575b505092611fa092615e4560008094615e31615e28615eb299615e238589016106c1565b616482565b809c8701611d05565b615e3e4260048701611d05565b840161255c565b615e62615e5184610591565b61406d610139615b428787016106c1565b7fb25e368db1934a266d203bbd4765db9eaa91bd97afc0d5f1d524f57954097ae788615e92611fa08686016106c1565b92615ea989615ea060405190565b93849384615ad6565b0390a2016106c1565b9261218b615ebf60405190565b9283924290808561291e565b615edd87615ed8886106c1565b616d71565b615ee76000610591565b8111615ef4575b50615e00565b61204061046e8286615f06615f1e9590565b811115614168579061412d61411c8261413294613f9f565b11615f2b575b8080615eee565b94505082611fa092615e4560008094615e31615e28615f5c84615f55615dd182615eb29e016106c1565b9c016106e7565b9a96995050509450505092615f24565b9591909591615de2565b615f9091925060203d6020116121ba576121ab818361091b565b9038615dbd565b8c615fa86124fa60049e9d9e61249a565b101561601657615fbd615c2f615c698f615aab565b615fd5575b615fcf8c9d9c9b9c615a9e565b9c615d52565b91615fea90614c38614dbf8f615c8990615aab565b9182841015615fc2575050505090506000805160206181ba833981519152969597908897388080615d57565b9a999a615d57565b61220861602a8a6106c1565b6040516149f3565b50614c386000610591565b614c386000610591565b50614c38615cf36160586000610591565b615cca565b6160778b614c17615c4c616071603c610591565b92610591565b615c94565b616095616089603c610591565b614c17615c8989610591565b615c74565b6160b96160a7604b610591565b614c176160b38c610591565b84615a83565b615c57565b92909793918697965b6160d961046e612028615b768a6106c1565b8110156161515761611790896160fb611c0083610bab61012e615b428e6106c1565b8a6161096040830151151590565b61611c575b50505060010190565b6160c7565b61613a614dbf6161499461613460a061613f96015190565b93615a83565b614a89565b614c178c8c615a83565b89388a61610e565b509193979092959661616a90614c38614dbf828b615a83565b95615c3a565b6122089061617d60405190565b635ffd981f60e11b81529182916004830190815260200190565b506161a7612cd9600286016106e7565b615b26565b61046e600061443861046e6132c3565b5061048e615a20565b61048e906161bc565b61046e7f4910fdfa16fed3260ed0e7147f7cc6da11a60208b5b9406d12a635614ffd9143610591565b156161fe57565b60405162461bcd60e51b815260206004820152602960248201527f45524331393637557067726164653a20756e737570706f727465642070726f786044820152681a58589b195555525160ba1b6064820152608490fd5b919061626d600061626761046e6161ce565b016106e7565b1561627d57505061048e90617624565b616289611fa0846107dd565b92602061629560405190565b6352d1902d60e01b815294859060049082905afa60009481616333575b506163135760405162461bcd60e51b815260206004820152602e60248201527f45524331393637557067726164653a206e657720696d706c656d656e7461746960448201526d6f6e206973206e6f74205555505360901b6064820152608490fd5b61632e61048e9461632861204061046e6132c3565b146161f7565b617583565b61634d91955060203d6020116121ba576121ab818361091b565b93386162b2565b61635c61768f565b61048e61636b600060fb61255c565b7f5db9ee0a495bf2e6ff9c91a7834c1ba4fdd244a5e8aa4e537bd38aeae4b073aa612d5a336113ee565b61048e616354565b61046e6002610591565b156163ae57565b60405162461bcd60e51b815260206004820152601f60248201527f5265656e7472616e637947756172643a207265656e7472616e742063616c6c006044820152606490fd5b61048e61640060c96106d2565b61641461640b61639d565b918214156163a7565b60c9611d05565b61046e6001610591565b61048e61641461641b565b1561643757565b60405162461bcd60e51b815260206004820152601060248201526f14185d5cd8589b194e881c185d5cd95960821b6044820152606490fd5b61048e61647d612cd96132ff565b616430565b9060009061648f82610591565b81146165f3576164a461046e8461012d6107e6565b9260048401926164b3846106d2565b6164bf61204083610591565b1461651957505061651361046e93614e4f61650d61202894614c386164e3886106d2565b91611fed6141326005670de0b6b3a7640000980194611fed616504876106d2565b614de28b610591565b91610591565b82611d05565b938461653061652a859784016106e7565b84616d71565b9061653a81610591565b8211806165d4575b616554575b5050505061046e91611d05565b60018261658c94959661046e9361656b6120409690565b82111590506165be579061412d61411c8261658594613f9f565b94016106d2565b1161659b578080808593616547565b612208906165a860405190565b636690a80360e11b8152918291600483016113c3565b61412d61411c826165ce94613f9f565b94611bce565b506165e1600184016106d2565b6165ed61204083610591565b11616542565b612208836165a860405190565b906127ae9161660d6163f3565b616635565b91602061048e92949361662d604082019660008301906104c6565b019015159052565b5060019061664861046e8261012d6107e6565b616651816106e7565b9060009061665e8261249a565b60ff84160361681557616670306107dd565b604051635eac7f2b60e11b81526020818061668e89600483016113c3565b038187865af18491816167f4575b506167c957506040516378e05a6760e11b8152602081806166c089600483016113c3565b038187865af18491816167d3575b506167c9575060206166df60405190565b918290635d5a45b960e11b82528186816166fd8c8c60048401616612565b03925af18391816167a8575b506167a057506167198285614660565b9485915b0192616728846106d2565b61673461204085610591565b11616742575b505050505090565b61674c9085616d71565b9161675681610591565b83111561673a5761676f926120409261046e9282614102565b1161677d578080838161673a565b6122089061678a60405190565b630eaad2ff60e21b8152918291600483016113c3565b94859161671d565b6167c291925060203d6020116121ba576121ab818361091b565b9038616709565b905094859161671d565b6167ed91925060203d6020116121ba576121ab818361091b565b90386166ce565b61680e91925060203d6020116121ba576121ab818361091b565b903861669c565b81856168208161249a565b60ff86160361690157616832306107dd565b9061683c60405190565b6378e05a6760e11b8152602081806168578b600483016113c3565b038187875af18491816168e0575b506168d457506020916168979161687b60405190565b9485938492839190635d5a45b960e11b83528c60048401616612565b03925af18391816168b3575b506167a057506167a08285614660565b6168cd91925060203d6020116121ba576121ab818361091b565b90386168a3565b9250505094859161671d565b6168fa91925060203d6020116121ba576121ab818361091b565b9038616865565b61690b600261249a565b60ff86160361692d57616897602091616923306107dd565b9061687b60405190565b5050616938306107dd565b604051635d5a45b960e11b815260208180616957878a60048401616612565b038187865af18491816169cf575b506167c95750602061697660405190565b9182906378e05a6760e11b82528186816169938b600483016113c3565b03925af18391816169ae575b506167a057506167a084614ac0565b6169c891925060203d6020116121ba576121ab818361091b565b903861699f565b6169e991925060203d6020116121ba576121ab818361091b565b9038616965565b61046e906000616600565b3b616a096120406000610591565b1190565b15616a1457565b60405162461bcd60e51b815260206004820152602b60248201527f496e697469616c697a61626c653a20636f6e7472616374206973206e6f74206960448201526a6e697469616c697a696e6760a81b6064820152608490fd5b616a7f616a7a6000612c02565b616a0d565b61048e61048e6176b6565b61048e616a6d565b616a9f616a7a6000612c02565b61048e61048e6176cb565b61048e616a92565b616abf616a7a6000612c02565b61048e61048e6176ef565b61048e616ab2565b61048e616a7a6000612c02565b61048e616ad2565b613fc49063ffffffff165b9163ffffffff1690565b61064c61046e61046e9263ffffffff1690565b616b1c9061ffff1661357f565b019061ffff8211611cd057565b616b51616b4c61046e92616b3b600090565b50616b46601e610af0565b90616ae7565b616afc565b616b5b600161063f565b90616b0f565b616b7c6129b7616b7160976106c1565b611fa0846097611d5a565b907f8be0079c531659141344cd1fd0a4f28419497f9722a3daafe3b4186f6b6457e0616ba760405190565b600090a3565b61046e9081906001600160801b031681565b6001600160801b0390811691169003906001600160801b038211611cd057565b616bee9063ffffffff16616af2565b90039063ffffffff8211611cd057565b616c066117a0565b906001600160801b0382166001600160801b03821610616cd457670de0b6b3a764000091616c3383611793565b6001600160801b03831611616cc957616c7b616ca791614e4f616c76616c67616c5e616cac97616bad565b611fed89610591565b92616c7188611793565b616bbf565b616bad565b92614de26147b7616c8a610eae565b92614e4f61650d616c996115aa565b986147bd6147928b89616bdf565b610af0565b63ffffffff821663ffffffff82161015616cc4575090565b905090565b50505061046e6115aa565b505061046e610eae565b616ce66117a0565b906001600160801b0382166001600160801b03821610616d6757670de0b6b3a764000091616d1383611793565b6001600160801b03831611616d5c57616d3e616ca791614e4f616c76616c67616c5e616cac97616bad565b92614de26147b7616d4d611362565b92614e4f61650d616c99610afd565b50505061046e610afd565b505061046e611362565b600090616d7d8261249a565b6004616d888161249a565b60ff83161015616fa157829060ff861660ff841614616f9657616daa8561249a565b60ff84161480616f74575b15616e3a57616df291602091616dca306107dd565b9087616dd560405190565b809681958294616de963bd58fe5660e01b90565b845283016113c3565b03925af1849181616e1a575b50616e125750616e0d90615a9e565b616d7d565b935050505090565b616e3391925060203d81116121ba576121ab818361091b565b9038616dfe565b6001616e458161249a565b60ff85161480616f52575b15616e855750616df291602091616e66306107dd565b9087616e7160405190565b809681958294616de963f1c0b4ce60e01b90565b915084616e92600261249a565b60ff85161480616f30575b15616ed6579160209185616df294616eb4306107dd565b92616ebe60405190565b96879586948593635d5a45b960e11b85528401616612565b9150616ee2600361249a565b60ff84161480616f0e575b616efc575050616e0d90615a9e565b8160209185616df294616eb4306107dd565b50616f1e612028856101356107e6565b616f2a61204084610591565b11616eed565b50616f40612028866101346107e6565b616f4c61204083610591565b11616e9d565b50616f62612028846101336107e6565b616f6e61204088610591565b11616e50565b50616f846120288361012f6107e6565b616f9061204087610591565b11616db5565b5050616e0d90615a9e565b50505061046e9150610591565b616fb661646f565b61048e616fc5600160fb61255c565b7f62e78cea01bee320cd4e420270b5ea74000d11b0c9f74754ebdbfc544b05a258612d5a336113ee565b61048e616fae565b617008919081811061702b57613f9f565b906170136000610591565b81146125305761046e916170256112ba565b906176fe565b614de29060001990614a89565b8015611cd0576000190190565b90919060009161705483610591565b84146125305761706384614615565b9361706d84610591565b81811015617094578061708961582e614dbf61708f9488614641565b60010190565b61706d565b50929150926001806170a581610591565b905b617124575b506002926170c86120406160716170c287610591565b88615a94565b036171105761046e93614c38614dbf614e4f946157f2617106614dbf61572161650d9861710061650d6170fa8e610591565b8b613fc2565b90613f9f565b94614e4f89610591565b506157f261046e93614e4f614dbf94610591565b848110156171d657818161713c614dbf839487614641565b81935b61715c575b61708990614c17617156949588614641565b906170a7565b91909261716887610591565b8111806171b0575b156171a85761719f9061719a61582e614dbf61719461718e87610591565b85613f9f565b8a614641565b617038565b9290918261713f565b929091617144565b506171cf614dbf6171c96171c385610591565b84613f9f565b88614641565b8310617170565b6170ac565b6006611bce6171ec926141c0600090565b806171fa6120406000610591565b1461724e575b61720f9061412d61411c61059e565b61012c61721b81610591565b82101561722c5761046e9150610591565b5061070861723981610591565b82111561724a5761046e9150610591565b5090565b5061720f617263670de0b6b3a7640000610591565b9050617200565b9193909160009161727a83610591565b861480156174c5575b6125305761729086614615565b9261729a87614615565b966172a482610591565b818110156172df57806172c061582e614dbf6172da9489614641565b6170896172d0614dbf838b614641565b614c17838d614641565b6172a4565b509394509491509460018095816172f581610591565b905b6173d7575b5061730690610591565b91617317600294614e4f6002610591565b9280925b617339575b5050505050906157f2614dbf9261710061046e95610591565b858310156173d25761735290614c38614dbf8585614641565b9182848110156173675750600101918761731b565b9097949593925090501490816173b8575b5061738c57505061046e91614dbf91614641565b61650d90614c38614dbf856157f288614c386173b2614dbf61046e9c614e4f9b9c614641565b96610591565b6173ca915061046e9061710084610591565b841038617378565b617320565b9091858210156174be57816173f0614dbf83948a614641565b6173fd614dbf8388614641565b908983955b617429575b856171c96170899493614c176174219899614c1795614641565b8192916172f7565b61743887969293959496610591565b82118061749e575b15617493579061746361748892614c1783614c32614dbf61574e6171c38b610591565b61719a61747e614dbf61747861718e88610591565b8b614641565b614c17838b614641565b939192908984617402565b949293919094617407565b506174b7614dbf6174b161718e87610591565b83614641565b8310617440565b91906172fc565b506174cf83610591565b8514617283565b61046e9081906001600160a01b031681565b906174f46000926178ee565b9150156175535761751061750a61752b926174d6565b80611cbd565b6175186112ba565b617525600160c01b610591565b916176fe565b6175356000610591565b811461753e5790565b61220861754b6000611c27565b6040516165a8565b61757e9061756b61750a6175656112ba565b926174d6565b90617579600160c01b610591565b6176fe565b61752b565b9161758d83617f84565b815161759c6120406000610591565b119081156175ba575b506175ae575050565b6175b79161800d565b50565b9050386175a5565b156175c957565b60405162461bcd60e51b815260206004820152602d60248201527f455243313936373a206e657720696d706c656d656e746174696f6e206973206e60448201526c1bdd08184818dbdb9d1c9858dd609a1b6064820152608490fd5b61048e90617639617634826169fb565b6175c2565b600061764661046e6132c3565b01611d5a565b1561765357565b60405162461bcd60e51b815260206004820152601460248201527314185d5cd8589b194e881b9bdd081c185d5cd95960621b6044820152606490fd5b61048e61769a6132ff565b61764c565b6176ac616a7a6000612c02565b61048e8033616b61565b61048e61769f565b61381c616a7a6000612c02565b61048e6176be565b6176e0616a7a6000612c02565b61048e61048e600060fb61255c565b61048e6176d3565b1561045d57565b906000906000198184099281810293848082109103039261771f6000610591565b841461780057928561046e9693617772936177859661774661773e8690565b855b116176f7565b500980860395109003600161775f8419610ddc83610591565b8416808095049604938060000304010290565b1791617785617789826177856003610591565b0290565b6177ba61650d6177fa6177eb6177dc6177cd6177be6002976177aa89610591565b186177858b82026177ba8b610591565b0390565b6177858a82026177ba8a610591565b6177858982026177ba89610591565b6177858882026177ba88610591565b6177858782026177ba87610591565b80950290565b505050506178176178116000610591565b83617740565b0490565b61562361046e61046e9290565b61046e61046e61046e9260020b90565b600160ff1b8114611cd05760000390565b61046e620d89e71961781b565b60020b627fffff198114611cd05760000390565b61046e617875617849565b617856565b1561788157565b60405162461bcd60e51b81526020600482015260016024820152601560fa1b6044820152606490fd5b6178b761046e61046e9290565b6001600160881b031690565b61046e9081906001600160881b031681565b61046e906178e961204061046e9460ff1690565b901c90565b617c4161046e916178fd600090565b5060006179098161781b565b6179138360020b90565b1215617f725761792d61534961792884617828565b617838565b915b61795061794861046e61534961794361786a565b617828565b84111561787a565b61795a6001610591565b831661796861204084610591565b14617f625761798e6179896ffffcb933bd6fad37aa2d162d1a5940016178aa565b6178c3565b926179996002610591565b81166179a761204085610591565b03617f3b575b6179b76004610591565b81166179c561204085610591565b03617f14575b6179d56008610591565b81166179e361204085610591565b03617eed575b6179f36010610591565b8116617a0161204085610591565b03617ec6575b617a116020610591565b8116617a1f61204085610591565b03617e9f575b617a2f6040610591565b8116617a3d61204085610591565b03617e6e575b608090617a4f82610591565b8116617a5d61204086610591565b03617e47575b617a6e610100610591565b8116617a7c61204086610591565b03617e20575b617a8d610200610591565b8116617a9b61204086610591565b03617df9575b617aac610400610591565b8116617aba61204086610591565b03617dd2575b617acb610800610591565b8116617ad961204086610591565b03617dab575b617aea611000610591565b8116617af861204086610591565b03617d84575b617b09612000610591565b8116617b1761204086610591565b03617d5d575b617b28614000610591565b8116617b3661204086610591565b03617d36575b617b47618000610591565b8116617b5561204086610591565b03617d0f575b617b6762010000610591565b8116617b7561204086610591565b03617ce8575b617b8762020000610591565b8116617b9561204086610591565b03617cc2575b617ba762040000610591565b8116617bb561204086610591565b03617c94575b617bc762080000610591565b16617bd461204085610591565b03617c67575b50617bee617be78361781b565b9160020b90565b13617c54575b617c1f617c0a617c04602061249a565b846178d5565b92617c19640100000000610591565b90615a94565b617c2b61204083610591565b03617c4657617c3c614c389161249a565b615aab565b611c1a565b50614c38617c3c600161249a565b90617c6190600019613fc2565b90617bf4565b617c87614c7d617c8d9395611fed6b048a170391f7dc42444e8fa2610591565b906178d5565b9138617bda565b93617cb3617cbc91611fed6d2216e584f5fa1ea926041bedfe98610591565b617c878361249a565b93617bbb565b93617cb3617ce291611fed6e5d6af8dedb81196699c329225ee604610591565b93617b9b565b93617cb3617d0991611fed6f09aa508b5b7a84e1c677de54f3e99bc9610591565b93617b7b565b93617cb3617d3091611fed6f31be135f97d08fd981231505542fcfa6610591565b93617b5b565b93617cb3617d5791611fed6f70d869a156d2a1b890bb3df62baf32f7610591565b93617b3c565b93617cb3617d7e91611fed6fa9f746462d870fdf8a65dc1f90e061e5610591565b93617b1d565b93617cb3617da591611fed6fd097f3bdfd2022b8845ad8f792aa5825610591565b93617afe565b93617cb3617dcc91611fed6fe7159475a2c29b7443b29c7fa6e889d9610591565b93617adf565b93617cb3617df391611fed6ff3392b0822b70005940c7a398e4b70f3610591565b93617ac0565b93617cb3617e1a91611fed6ff987a7253ac413176f2b074cf7815e54610591565b93617aa1565b93617cb3617e4191611fed6ffcbe86c7900a88aedcffc83b479aa3a4610591565b93617a82565b93617cb3617e6891611fed6ffe5dee046a99a2a811c461f1969c3053610591565b93617a63565b92617e8f617e9991611fed6fff2ea16466c96a3843ec78b326b52861610591565b617c87608061249a565b92617a43565b92617e8f617ec091611fed6fff973b41fa98c081472e6896dfb254c0610591565b92617a25565b92617e8f617ee791611fed6fffcb9843d60f6159c9db58835c926644610591565b92617a07565b92617e8f617f0e91611fed6fffe5caca7e10e4e61c3624eaa0941cd0610591565b926179e9565b92617e8f617f3591611fed6ffff2e50f5f656932ef12357cf3c7fdcc610591565b926179cb565b92617e8f617f5c91611fed6ffff97272373d413259a46990580e213a610591565b926179ad565b61798e617989600160801b6178aa565b617f7e61534983617828565b9161792f565b617f9190611fa081617624565b7fbc7cd75a20ee27fd9adebab32041f755214dbc6bffa90cc0225b39da2e5c2d3b617fbb60405190565b808061218b565b617fcc6027612718565b7f416464726573733a206c6f772d6c6576656c2064656c65676174652063616c6c6020820152660819985a5b195960ca1b604082015290565b61046e617fc2565b61046e91618019618005565b9161803e565b3d156180395761802e3d612718565b903d6000602084013e565b606090565b60008061046e949361804e606090565b50602081519101845af461806061801f565b916180b2565b1561806d57565b60405162461bcd60e51b815260206004820152601d60248201527f416464726573733a2063616c6c20746f206e6f6e2d636f6e74726163740000006044820152606490fd5b919290156180e4575081516180ca6120406000610591565b146180d3575090565b6180df61046e916169fb565b618066565b82618152565b60005b8381106180fd5750506000910152565b81810151838201526020016180ed565b61812e618137602093610ddc93618122815190565b80835293849260200190565b958691016180ea565b601f01601f191690565b602080825261046e9291019061810d565b9061815b825190565b6181686120406000610591565b11156181775750805190602001fd5b6122089061818460405190565b62461bcd60e51b81529182916004830161814156feca8ce0301179902160da84f30dde3ebd16ecd1e88d6c132adfe3c3b41c6b2f0927622b7604f57715e19981489ed9ad07150ef80ba5279337947dd9597f1f4b8fa2646970667358221220ad3047830483452308718f959b849571b67eafe15e7806481071e93d9e318feb64736f6c63430008180033",
  "immutableReferences": {
    "56": [
      {
        "length": 32,
        "start": 9268
      }
    ],
    "1339": [
      {
        "length": 32,
        "start": 9920
      },
      {
        "length": 32,
        "start": 12948
      }
    ]
  },
  "source": "// SPDX-License-Identifier: MIT\r\npragma solidity ^0.8.24;\r\n\r\nimport \"@openzeppelin/contracts-upgradeable/proxy/utils/Initializable.sol\";\r\nimport \"@chainlink/contracts/src/v0.8/vrf/interfaces/VRFCoordinatorV2Interface.sol\";\r\nimport \"@openzeppelin/contracts-upgradeable/proxy/utils/UUPSUpgradeable.sol\";\r\nimport \"@openzeppelin/contracts-upgradeable/access/OwnableUpgradeable.sol\";\r\nimport \"@chainlink/contracts/src/v0.8/vrf/VRFConsumerBaseV2.sol\";\r\nimport \"@chainlink/contracts/src/v0.8/vrf/dev/libraries/VRFV2PlusClient.sol\";\r\nimport \"@openzeppelin/contracts-upgradeable/security/ReentrancyGuardUpgradeable.sol\";\r\nimport \"@openzeppelin/contracts-upgradeable/security/PausableUpgradeable.sol\";\r\nimport \"@chainlink/contracts/src/v0.8/shared/interfaces/AggregatorV3Interface.sol\";\r\nimport \"./external/uniswap/v3/IUniswapV3Pool.sol\";\r\nimport \"./external/uniswap/v3/TickMath.sol\";\r\nimport \"./external/uniswap/v3/FullMath.sol\";\r\nimport \"./external/uniswap/v2/IUniswapV2Pair.sol\";\r\n\r\n/// @title PriceOracle\r\n/// @notice Upgradeable price oracle for Sonic Blockchain with multiple data sources and advanced features\r\n/// @dev Uses UUPS proxy, Chainlink VRF v2.5, and aggregates Chainlink feeds, Uniswap V3, SushiSwap, and PancakeSwap\r\ncontract PriceOracle is\r\n    Initializable,\r\n    UUPSUpgradeable,\r\n    OwnableUpgradeable,\r\n    ReentrancyGuardUpgradeable,\r\n    PausableUpgradeable,\r\n    VRFConsumerBaseV2\r\n{\r\n    error InvalidInput();\r\n    error ZeroAddress();\r\n    error InvalidVRFConfig();\r\n    error VRFRequestPending(address asset);\r\n\r\n    // Structs\r\n    struct PriceFeedConfig {\r\n        address feedAddress;\r\n        uint8 decimals;\r\n        bool isActive;\r\n        uint256 heartbeat;\r\n        uint256 weight;\r\n        uint256 reliabilityScore;\r\n        uint256 lastPrice;\r\n        uint256 lastUpdated;\r\n    }\r\n\r\n    struct UniswapV3PoolConfig {\r\n        address poolAddress;\r\n        uint32 twapSeconds;\r\n        bool isToken0Base;\r\n        bool isActive;\r\n        uint128 liquidity;\r\n    }\r\n\r\n    struct UniswapV2PoolConfig {\r\n        address poolAddress;\r\n        uint32 blockWindow;\r\n        bool isToken0Base;\r\n        bool isActive;\r\n        uint128 liquidity;\r\n        uint256 price0CumulativeLast;\r\n        uint256 price1CumulativeLast;\r\n        uint32 lastBlockTimestamp;\r\n    }\r\n\r\n    struct AssetConfig {\r\n        uint8 primaryOracle; // 0: Chainlink, 1: Uniswap V3, 2: SushiSwap, 3: PancakeSwap\r\n        uint256 maxPriceDeviation;\r\n        bool useVRF;\r\n        uint256 maxFeedDeviation;\r\n        uint256 emaPrice;\r\n        uint256 emaAlpha;\r\n        uint256 volatilityIndex;\r\n    }\r\n\r\n    struct VRFRequest {\r\n        address asset;\r\n        uint256 requestId;\r\n        bool isPending;\r\n        uint256 price;\r\n        uint256 timestamp;\r\n    }\r\n\r\n    // Storage\r\n    mapping(address => AssetConfig) public assetConfigs;\r\n    mapping(address => mapping(uint256 => PriceFeedConfig)) public priceFeeds;\r\n    mapping(address => uint256) public priceFeedCount;\r\n    mapping(address => mapping(uint256 => UniswapV3PoolConfig)) public uniswapV3Pools;\r\n    mapping(address => mapping(uint256 => UniswapV2PoolConfig)) public sushiSwapPools;\r\n    mapping(address => mapping(uint256 => UniswapV2PoolConfig)) public pancakeSwapPools;\r\n    mapping(address => uint256) public uniswapV3PoolCount;\r\n    mapping(address => uint256) public sushiSwapPoolCount;\r\n    mapping(address => uint256) public pancakeSwapPoolCount;\r\n    mapping(address => uint256) public emergencyPrices;\r\n    mapping(address => bool) public emergencyOverrideActive;\r\n    mapping(uint256 => VRFRequest) public vrfRequests;\r\n    mapping(address => uint256) public pendingVRFRequestId;\r\n\r\n    // Chainlink VRF configuration\r\n    VRFCoordinatorV2Interface public vrfCoordinator;\r\n    uint64 public subscriptionId;\r\n    bytes32 public keyHash;\r\n    uint32 public callbackGasLimit;\r\n    uint16 public requestConfirmations;\r\n    uint32 public numWords;\r\n\r\n    // Events\r\n    event PriceFeedUpdated(address indexed asset, address feed, uint8 decimals, uint256 heartbeat, uint256 weight, uint256 reliabilityScore, uint256 index);\r\n    event UniswapV3PoolAdded(address indexed asset, address pool, uint32 twapSeconds, bool isToken0Base, uint256 index);\r\n    event UniswapV2PoolAdded(address indexed asset, address pool, uint32 blockWindow, bool isToken0Base, bool isSushiSwap, uint256 index);\r\n    event UniswapV3PoolUpdated(address indexed asset, address pool, uint32 twapSeconds, uint128 liquidity, uint256 index);\r\n    event UniswapV2PoolUpdated(address indexed asset, address pool, uint32 blockWindow, uint128 liquidity, bool isSushiSwap, uint256 index);\r\n    event PoolDeactivated(address indexed asset, address pool, uint8 oracleType, uint256 index);\r\n    event PriceFetched(address indexed asset, uint256 price, uint256 emaPrice, uint256 timestamp, uint8 oracleType);\r\n    event TWAPWindowAdjusted(address indexed asset, address pool, uint32 oldWindow, uint32 newWindow, uint8 oracleType);\r\n    event EmergencyPriceSet(address indexed asset, uint256 price);\r\n    event EmergencyOverrideToggled(address indexed asset, bool isActive);\r\n    event VRFRequestSent(uint256 requestId, address indexed asset);\r\n    event VRFRequestFulfilled(uint256 requestId, address indexed asset, uint256 price, uint8 oracleType);\r\n    event VRFConfigUpdated(address coordinator, uint64 subscriptionId, bytes32 keyHash);\r\n    event VolatilityUpdated(address indexed asset, uint256 volatilityIndex);\r\n    event EMASmoothingUpdated(address indexed asset, uint256 oldAlpha, uint256 newAlpha);\r\n    event PoolStateUpdated(address indexed asset, address pool, uint8 oracleType, uint256 index, uint128 liquidity, uint256 timestamp);\r\n\r\n    // Errors\r\n    error InvalidPriceFeed(address asset);\r\n    error InvalidPool(address asset);\r\n    error StalePrice(address asset);\r\n    error InvalidPrice(address asset);\r\n    error InvalidTWAPWindow();\r\n    error InvalidBlockWindow();\r\n    error InsufficientObservations(address pool);\r\n    error InsufficientLiquidity(address pool);\r\n    error NoValidPools(address asset);\r\n    error PriceDeviationTooHigh(address asset);\r\n    error FeedDeviationTooHigh(address asset);\r\n    error ContractPaused();\r\n    error VRFNotConfigured();\r\n    error InvalidVRFRequest(uint256 requestId);\r\n    error NoValidFeeds(address asset);\r\n    error InvalidReliabilityScore();\r\n    error PoolLimitReached(address asset);\r\n    error InvalidEmergencyPrice(address asset);\r\n    error ZeroValue();\r\n\r\n    // Constants\r\n    uint256 public constant DEFAULT_HEARTBEAT = 15 minutes;\r\n    uint32 public constant MIN_TWAP_SECONDS = 5 minutes;\r\n    uint32 public constant MAX_TWAP_SECONDS = 12 hours;\r\n    uint32 public constant MIN_BLOCK_WINDOW = 20;\r\n    uint32 public constant MAX_BLOCK_WINDOW = 512;\r\n    uint256 public constant PRICE_PRECISION = 1e18;\r\n    uint128 public constant MIN_LIQUIDITY_THRESHOLD = 1e15;\r\n    uint16 public constant MAX_FEEDS_PER_ASSET = 5;\r\n    uint16 public constant MAX_POOLS_PER_ASSET = 5;\r\n    uint256 public constant BLOCK_TIME = 6;\r\n    uint256 public constant DEFAULT_MAX_PRICE_DEVIATION = 5e16;\r\n    uint256 public constant DEFAULT_MAX_FEED_DEVIATION = 2e16;\r\n    uint256 public constant DEFAULT_EMA_ALPHA = 2e17;\r\n    uint256 public constant MAX_RELIABILITY_SCORE = 100;\r\n    uint256 public constant VOLATILITY_PRECISION = 1e18;\r\n    uint32 public constant MIN_CALLBACK_GAS_LIMIT = 50_000;\r\n    uint32 public constant MAX_CALLBACK_GAS_LIMIT = 500_000;\r\n    uint16 public constant MIN_REQUEST_CONFIRMATIONS = 3;\r\n    uint16 public constant MAX_REQUEST_CONFIRMATIONS = 20;\r\n\r\n    /// @custom:oz-upgrades-unsafe-allow constructor\r\n    constructor(address _vrfCoordinator) VRFConsumerBaseV2(_vrfCoordinator) {\r\n        _disableInitializers();\r\n    }\r\n\r\n    /// @notice Authorizes contract upgrades\r\n    /// @dev Required for UUPS proxy, only owner can upgrade\r\n    function _authorizeUpgrade(address) internal override onlyOwner {}\r\n\r\n    /// @notice Initializes the contract\r\n    /// @param initialOwner The initial owner address\r\n    /// @param _vrfCoordinator Chainlink VRF Coordinator address\r\n    /// @param _subscriptionId Chainlink VRF subscription ID\r\n    /// @param _keyHash Chainlink VRF key hash\r\n    /// @param _callbackGasLimit Gas limit for VRF callback\r\n    /// @param _requestConfirmations Number of confirmations for VRF request\r\n    function initialize(\r\n        address initialOwner,\r\n        address _vrfCoordinator,\r\n        uint64 _subscriptionId,\r\n        bytes32 _keyHash,\r\n        uint32 _callbackGasLimit,\r\n        uint16 _requestConfirmations\r\n    ) external initializer {\r\n        if (initialOwner == address(0) || _vrfCoordinator == address(0)) revert ZeroAddress();\r\n        if (_callbackGasLimit < MIN_CALLBACK_GAS_LIMIT || _callbackGasLimit > MAX_CALLBACK_GAS_LIMIT) revert InvalidVRFConfig();\r\n        if (_requestConfirmations < MIN_REQUEST_CONFIRMATIONS || _requestConfirmations > MAX_REQUEST_CONFIRMATIONS) revert InvalidVRFConfig();\r\n\r\n        __Ownable_init();\r\n        __ReentrancyGuard_init();\r\n        __Pausable_init();\r\n        __UUPSUpgradeable_init();\r\n        vrfCoordinator = VRFCoordinatorV2Interface(_vrfCoordinator);\r\n        subscriptionId = _subscriptionId;\r\n        keyHash = _keyHash;\r\n        callbackGasLimit = _callbackGasLimit;\r\n        requestConfirmations = _requestConfirmations;\r\n        numWords = 1;\r\n        transferOwnership(initialOwner);\r\n        emit VRFConfigUpdated(_vrfCoordinator, _subscriptionId, _keyHash);\r\n    }\r\n\r\n    /// @notice Updates VRF configuration\r\n    /// @param _vrfCoordinator Chainlink VRF Coordinator address\r\n    /// @param _subscriptionId Chainlink VRF subscription ID\r\n    /// @param _keyHash Chainlink VRF key hash\r\n    /// @param _callbackGasLimit Gas limit for VRF callback\r\n    /// @param _requestConfirmations Number of confirmations for VRF request\r\n    function updateVRFConfig(\r\n        address _vrfCoordinator,\r\n        uint64 _subscriptionId,\r\n        bytes32 _keyHash,\r\n        uint32 _callbackGasLimit,\r\n        uint16 _requestConfirmations\r\n    ) external onlyOwner {\r\n        if (_vrfCoordinator == address(0)) revert ZeroAddress();\r\n        if (_callbackGasLimit < MIN_CALLBACK_GAS_LIMIT || _callbackGasLimit > MAX_CALLBACK_GAS_LIMIT) revert InvalidVRFConfig();\r\n        if (_requestConfirmations < MIN_REQUEST_CONFIRMATIONS || _requestConfirmations > MAX_REQUEST_CONFIRMATIONS) revert InvalidVRFConfig();\r\n\r\n        vrfCoordinator = VRFCoordinatorV2Interface(_vrfCoordinator);\r\n        subscriptionId = _subscriptionId;\r\n        keyHash = _keyHash;\r\n        callbackGasLimit = _callbackGasLimit;\r\n        requestConfirmations = _requestConfirmations;\r\n        emit VRFConfigUpdated(_vrfCoordinator, _subscriptionId, _keyHash);\r\n    }\r\n\r\n    /// @notice Pauses the contract\r\n    function pause() external onlyOwner {\r\n        _pause();\r\n    }\r\n\r\n    /// @notice Unpauses the contract\r\n    function unpause() external onlyOwner {\r\n        _unpause();\r\n    }\r\n\r\n    /// @notice Adds or updates a Chainlink price feed\r\n    /// @param asset The asset address\r\n    /// @param feed The Chainlink price feed address\r\n    /// @param decimals Decimals of the price feed\r\n    /// @param heartbeat Maximum time before priceerdings\r\n    /// @param weight Weight for weighted median calculation\r\n    /// @param reliabilityScore Reliability score for VRF selection (0-100)\r\n    function setPriceFeed(\r\n        address asset,\r\n        address feed,\r\n        uint8 decimals,\r\n        uint256 heartbeat,\r\n        uint256 weight,\r\n        uint256 reliabilityScore\r\n    ) external onlyOwner {\r\n        if (asset == address(0) || feed == address(0)) revert ZeroAddress();\r\n        if (reliabilityScore > MAX_RELIABILITY_SCORE) revert InvalidReliabilityScore();\r\n        if (priceFeedCount[asset] >= MAX_FEEDS_PER_ASSET) revert PoolLimitReached(asset);\r\n\r\n        uint256 index = priceFeedCount[asset]++;\r\n        priceFeeds[asset][index] = PriceFeedConfig({\r\n            feedAddress: feed,\r\n            decimals: decimals,\r\n            isActive: true,\r\n            heartbeat: heartbeat == 0 ? DEFAULT_HEARTBEAT : heartbeat,\r\n            weight: weight == 0 ? 1e18 : weight,\r\n            reliabilityScore: reliabilityScore,\r\n            lastPrice: 0,\r\n            lastUpdated: 0\r\n        });\r\n\r\n        emit PriceFeedUpdated(asset, feed, decimals, heartbeat, weight, reliabilityScore, index);\r\n    }\r\n\r\n    /// @notice Deactivates a Chainlink price feed\r\n    /// @param asset The asset address\r\n    /// @param feedIndex Index of the price feed\r\n    function deactivatePriceFeed(address asset, uint256 feedIndex) external onlyOwner {\r\n        if (feedIndex >= priceFeedCount[asset]) revert InvalidPriceFeed(asset);\r\n        priceFeeds[asset][feedIndex].isActive = false;\r\n        emit PriceFeedUpdated(asset, priceFeeds[asset][feedIndex].feedAddress, priceFeeds[asset][feedIndex].decimals, priceFeeds[asset][feedIndex].heartbeat, 0, 0, feedIndex);\r\n    }\r\n\r\n    /// @notice Adds a Uniswap V3 pool\r\n    /// @param asset The asset address\r\n    /// @param poolAddress The Uniswap V3 pool address\r\n    /// @param twapSeconds TWAP window in seconds\r\n    /// @param isToken0Base Whether token0 is the base token\r\n    function addUniswapV3Pool(\r\n        address asset,\r\n        address poolAddress,\r\n        uint32 twapSeconds,\r\n        bool isToken0Base\r\n    ) external onlyOwner {\r\n        if (asset == address(0) || poolAddress == address(0)) revert ZeroAddress();\r\n        if (twapSeconds < MIN_TWAP_SECONDS || twapSeconds > MAX_TWAP_SECONDS) revert InvalidTWAPWindow();\r\n        if (uniswapV3PoolCount[asset] >= MAX_POOLS_PER_ASSET) revert PoolLimitReached(asset);\r\n\r\n        IUniswapV3Pool pool = IUniswapV3Pool(poolAddress);\r\n        uint128 liquidity = pool.liquidity();\r\n        if (liquidity < MIN_LIQUIDITY_THRESHOLD) revert InsufficientLiquidity(poolAddress);\r\n\r\n        (, , , , uint16 observationCardinality, , ) = pool.slot0();\r\n        uint16 requiredCardinality = calculateRequiredCardinality(twapSeconds);\r\n        if (observationCardinality < requiredCardinality) {\r\n            pool.increaseObservationCardinalityNext(requiredCardinality);\r\n        }\r\n\r\n        uint256 index = uniswapV3PoolCount[asset]++;\r\n        uniswapV3Pools[asset][index] = UniswapV3PoolConfig({\r\n            poolAddress: poolAddress,\r\n            twapSeconds: twapSeconds,\r\n            isToken0Base: isToken0Base,\r\n            isActive: true,\r\n            liquidity: liquidity\r\n        });\r\n\r\n        emit UniswapV3PoolAdded(asset, poolAddress, twapSeconds, isToken0Base, index);\r\n    }\r\n\r\n    /// @notice Adds a Uniswap V2-style pool (SushiSwap or PancakeSwap)\r\n    /// @param asset The asset address\r\n    /// @param poolAddress The pool address\r\n    /// @param blockWindow Number of blocks for TWAP\r\n    /// @param isToken0Base Whether token0 is the base token\r\n    /// @param isSushiSwap Whether the pool is SushiSwap (true) or PancakeSwap (false)\r\n    function addUniswapV2Pool(\r\n        address asset,\r\n        address poolAddress,\r\n        uint32 blockWindow,\r\n        bool isToken0Base,\r\n        bool isSushiSwap\r\n    ) external onlyOwner {\r\n        if (asset == address(0) || poolAddress == address(0)) revert ZeroAddress();\r\n        if (blockWindow < MIN_BLOCK_WINDOW || blockWindow > MAX_BLOCK_WINDOW) revert InvalidBlockWindow();\r\n\r\n        IUniswapV2Pair pool = IUniswapV2Pair(poolAddress);\r\n        (uint112 _reserve0, uint112 _reserve1, ) = pool.getReserves();\r\n        uint128 liquidity = uint128(uint256(_reserve0) * uint256(_reserve1));\r\n        if (liquidity < MIN_LIQUIDITY_THRESHOLD) revert InsufficientLiquidity(poolAddress);\r\n\r\n        uint256 index;\r\n        if (isSushiSwap) {\r\n            if (sushiSwapPoolCount[asset] >= MAX_POOLS_PER_ASSET) revert PoolLimitReached(asset);\r\n            index = sushiSwapPoolCount[asset]++;\r\n            sushiSwapPools[asset][index] = UniswapV2PoolConfig({\r\n                poolAddress: poolAddress,\r\n                blockWindow: blockWindow,\r\n                isToken0Base: isToken0Base,\r\n                isActive: true,\r\n                liquidity: liquidity,\r\n                price0CumulativeLast: pool.price0CumulativeLast(),\r\n                price1CumulativeLast: pool.price1CumulativeLast(),\r\n                lastBlockTimestamp: uint32(block.timestamp)\r\n            });\r\n        } else {\r\n            if (pancakeSwapPoolCount[asset] >= MAX_POOLS_PER_ASSET) revert PoolLimitReached(asset);\r\n            index = pancakeSwapPoolCount[asset]++;\r\n            pancakeSwapPools[asset][index] = UniswapV2PoolConfig({\r\n                poolAddress: poolAddress,\r\n                blockWindow: blockWindow,\r\n                isToken0Base: isToken0Base,\r\n                isActive: true,\r\n                liquidity: liquidity,\r\n                price0CumulativeLast: pool.price0CumulativeLast(),\r\n                price1CumulativeLast: pool.price1CumulativeLast(),\r\n                lastBlockTimestamp: uint32(block.timestamp)\r\n            });\r\n        }\r\n\r\n        emit UniswapV2PoolAdded(asset, poolAddress, blockWindow, isToken0Base, isSushiSwap, index);\r\n    }\r\n\r\n    /// @notice Sets oracle preference and VRF usage\r\n    /// @param asset The asset address\r\n    /// @param oracleType Primary oracle type (0: Chainlink, 1: Uniswap V3, 2: SushiSwap, 3: PancakeSwap)\r\n    /// @param maxPriceDeviation Maximum allowed deviation from secondary oracle\r\n    /// @param maxFeedDeviation Maximum allowed deviation between Chainlink feeds\r\n    /// @param useVRF Whether to use VRF for oracle selection\r\n    /// @param emaAlpha EMA smoothing factor\r\n    /// @param volatilityIndex Volatility index for dynamic heartbeat\r\n    function setOraclePreference(\r\n        address asset,\r\n        uint8 oracleType,\r\n        uint256 maxPriceDeviation,\r\n        uint256 maxFeedDeviation,\r\n        bool useVRF,\r\n        uint256 emaAlpha,\r\n        uint256 volatilityIndex\r\n    ) external onlyOwner {\r\n        if (asset == address(0)) revert ZeroAddress();\r\n        if (oracleType > 3 || emaAlpha > 1e18) revert InvalidInput();\r\n\r\n        AssetConfig storage config = assetConfigs[asset];\r\n        emit EMASmoothingUpdated(asset, config.emaAlpha, emaAlpha == 0 ? DEFAULT_EMA_ALPHA : emaAlpha);\r\n        if (config.volatilityIndex != volatilityIndex) {\r\n            emit VolatilityUpdated(asset, volatilityIndex == 0 ? 1e18 : volatilityIndex);\r\n        }\r\n\r\n        config.primaryOracle = oracleType;\r\n        config.maxPriceDeviation = maxPriceDeviation == 0 ? DEFAULT_MAX_PRICE_DEVIATION : maxPriceDeviation;\r\n        config.maxFeedDeviation = maxFeedDeviation == 0 ? DEFAULT_MAX_FEED_DEVIATION : maxFeedDeviation;\r\n        config.useVRF = useVRF;\r\n        config.emaAlpha = emaAlpha == 0 ? DEFAULT_EMA_ALPHA : emaAlpha;\r\n        config.volatilityIndex = volatilityIndex == 0 ? 1e18 : volatilityIndex;\r\n    }\r\n\r\n    /// @notice Sets emergency price override with deviation check\r\n    /// @param asset The asset address\r\n    /// @param price The emergency price\r\n    function setEmergencyPrice(address asset, uint256 price) external onlyOwner {\r\n        if (asset == address(0)) revert ZeroAddress();\r\n        if (price == 0) revert ZeroValue();\r\n\r\n        AssetConfig storage config = assetConfigs[asset];\r\n        if (config.maxPriceDeviation > 0) {\r\n            uint256 secondaryPrice = getSecondaryPrice(asset, config.primaryOracle);\r\n            if (secondaryPrice > 0) {\r\n                uint256 deviation = price > secondaryPrice\r\n                    ? (price - secondaryPrice) * 1e18 / secondaryPrice\r\n                    : (secondaryPrice - price) * 1e18 / price;\r\n                if (deviation > config.maxPriceDeviation) revert InvalidEmergencyPrice(asset);\r\n            }\r\n        }\r\n\r\n        emergencyPrices[asset] = price;\r\n        emergencyOverrideActive[asset] = true;\r\n        emit EmergencyPriceSet(asset, price);\r\n        emit EmergencyOverrideToggled(asset, true);\r\n    }\r\n\r\n    /// @notice Disables emergency price override\r\n    /// @param asset The asset address\r\n    function disableEmergencyOverride(address asset) external onlyOwner {\r\n        if (asset == address(0)) revert ZeroAddress();\r\n        emergencyOverrideActive[asset] = false;\r\n        emit EmergencyOverrideToggled(asset, false);\r\n    }\r\n\r\n    /// @notice Deactivates a pool\r\n    /// @param asset The asset address\r\n    /// @param poolIndex Index of the pool\r\n    /// @param oracleType Oracle type (1: Uniswap V3, 2: SushiSwap, 3: PancakeSwap)\r\n    function deactivatePool(address asset, uint256 poolIndex, uint8 oracleType) external onlyOwner {\r\n        if (oracleType == 1) {\r\n            if (poolIndex >= uniswapV3PoolCount[asset]) revert InvalidPool(asset);\r\n            uniswapV3Pools[asset][poolIndex].isActive = false;\r\n            emit PoolDeactivated(asset, uniswapV3Pools[asset][poolIndex].poolAddress, 1, poolIndex);\r\n        } else if (oracleType == 2) {\r\n            if (poolIndex >= sushiSwapPoolCount[asset]) revert InvalidPool(asset);\r\n            sushiSwapPools[asset][poolIndex].isActive = false;\r\n            emit PoolDeactivated(asset, sushiSwapPools[asset][poolIndex].poolAddress, 2, poolIndex);\r\n        } else if (oracleType == 3) {\r\n            if (poolIndex >= pancakeSwapPoolCount[asset]) revert InvalidPool(asset);\r\n            pancakeSwapPools[asset][poolIndex].isActive = false;\r\n            emit PoolDeactivated(asset, pancakeSwapPools[asset][poolIndex].poolAddress, 3, poolIndex);\r\n        } else {\r\n            revert InvalidInput();\r\n        }\r\n    }\r\n\r\n    /// @notice Updates TWAP window for a pool\r\n    /// @param asset The asset address\r\n    /// @param poolIndex Index of the pool\r\n    /// @param oracleType Oracle type (1: Uniswap V3, 2: SushiSwap, 3: PancakeSwap)\r\n    function updateTWAPWindow(address asset, uint256 poolIndex, uint8 oracleType) external nonReentrant whenNotPaused {\r\n        if (oracleType == 1) {\r\n            if (poolIndex >= uniswapV3PoolCount[asset]) revert InvalidPool(asset);\r\n            UniswapV3PoolConfig storage poolConfig = uniswapV3Pools[asset][poolIndex];\r\n            if (!poolConfig.isActive) revert InvalidPool(asset);\r\n\r\n            IUniswapV3Pool pool = IUniswapV3Pool(poolConfig.poolAddress);\r\n            uint128 liquidity = pool.liquidity();\r\n            if (liquidity < MIN_LIQUIDITY_THRESHOLD) revert InsufficientLiquidity(poolConfig.poolAddress);\r\n\r\n            uint32 newWindow = calculateDynamicTWAPWindow(liquidity);\r\n            (, , , , uint16 observationCardinality, , ) = pool.slot0();\r\n            uint16 requiredCardinality = calculateRequiredCardinality(newWindow);\r\n            if (observationCardinality < requiredCardinality) {\r\n                pool.increaseObservationCardinalityNext(requiredCardinality);\r\n            }\r\n\r\n            emit TWAPWindowAdjusted(asset, poolConfig.poolAddress, poolConfig.twapSeconds, newWindow, 1);\r\n            poolConfig.twapSeconds = newWindow;\r\n            poolConfig.liquidity = liquidity;\r\n            emit UniswapV3PoolUpdated(asset, poolConfig.poolAddress, newWindow, liquidity, poolIndex);\r\n            emit PoolStateUpdated(asset, poolConfig.poolAddress, 1, poolIndex, liquidity, block.timestamp);\r\n        } else if (oracleType == 2 || oracleType == 3) {\r\n            UniswapV2PoolConfig storage poolConfig = oracleType == 2\r\n                ? sushiSwapPools[asset][poolIndex]\r\n                : pancakeSwapPools[asset][poolIndex];\r\n            if (poolIndex >= (oracleType == 2 ? sushiSwapPoolCount[asset] : pancakeSwapPoolCount[asset])) revert InvalidPool(asset);\r\n            if (!poolConfig.isActive) revert InvalidPool(asset);\r\n\r\n            IUniswapV2Pair pool = IUniswapV2Pair(poolConfig.poolAddress);\r\n            (uint112 _reserve0, uint112 _reserve1, uint32 blockTimestampLast) = pool.getReserves();\r\n            uint128 liquidity = uint128(uint256(_reserve0) * uint256(_reserve1));\r\n            if (liquidity < MIN_LIQUIDITY_THRESHOLD) revert InsufficientLiquidity(poolConfig.poolAddress);\r\n\r\n            uint32 newWindow = calculateDynamicBlockWindow(liquidity);\r\n            poolConfig.price0CumulativeLast = pool.price0CumulativeLast();\r\n            poolConfig.price1CumulativeLast = pool.price1CumulativeLast();\r\n            poolConfig.lastBlockTimestamp = blockTimestampLast;\r\n            poolConfig.blockWindow = newWindow;\r\n            poolConfig.liquidity = liquidity;\r\n\r\n            emit TWAPWindowAdjusted(asset, poolConfig.poolAddress, poolConfig.blockWindow, newWindow, oracleType);\r\n            emit UniswapV2PoolUpdated(asset, poolConfig.poolAddress, newWindow, liquidity, oracleType == 2, poolIndex);\r\n            emit PoolStateUpdated(asset, poolConfig.poolAddress, oracleType, poolIndex, liquidity, blockTimestampLast);\r\n        } else {\r\n            revert InvalidInput();\r\n        }\r\n    }\r\n\r\n    /// @notice Gets the current EMA price for an asset\r\n    /// @param asset The asset address\r\n    /// @return The current EMA price\r\n    function getCurrentPrice(address asset) external view returns (uint256) {\r\n        return assetConfigs[asset].emaPrice;\r\n    }\r\n\r\n    /// @notice Checks if a VRF request is pending for an asset\r\n    /// @param asset The asset address\r\n    /// @return requestId The pending VRF request ID, or 0 if none\r\n    function getPendingVRFRequest(address asset) external view returns (uint256) {\r\n        return pendingVRFRequestId[asset];\r\n    }\r\n\r\n    /// @notice Requests price with optional VRF-based oracle selection\r\n    /// @param asset The asset address\r\n    /// @return price The EMA price, or 0 if VRF request is sent\r\n    function getPrice(address asset) external nonReentrant whenNotPaused returns (uint256) {\r\n        if (emergencyOverrideActive[asset]) {\r\n            uint256 emergencyPrice = emergencyPrices[asset];\r\n            uint256 updatedEmaPrice = updateEMA(asset, emergencyPrice);\r\n            emit PriceFetched(asset, emergencyPrice, updatedEmaPrice, block.timestamp, 4);\r\n            return updatedEmaPrice;\r\n        }\r\n\r\n        AssetConfig storage config = assetConfigs[asset];\r\n        if (config.useVRF && address(vrfCoordinator) != address(0)) {\r\n            if (pendingVRFRequestId[asset] != 0) revert VRFRequestPending(asset);\r\n            uint256 requestId = vrfCoordinator.requestRandomWords(\r\n                keyHash,\r\n                subscriptionId,\r\n                requestConfirmations,\r\n                callbackGasLimit,\r\n                numWords\r\n            );\r\n            vrfRequests[requestId] = VRFRequest({\r\n                asset: asset,\r\n                requestId: requestId,\r\n                isPending: true,\r\n                price: 0,\r\n                timestamp: 0\r\n            });\r\n            pendingVRFRequestId[asset] = requestId;\r\n            emit VRFRequestSent(requestId, asset);\r\n            return 0; // Indicate VRF request is pending\r\n        }\r\n\r\n        uint256 price = fetchPriceDeterministic(asset);\r\n        uint256 emaPrice = updateEMA(asset, price);\r\n        emit PriceFetched(asset, price, emaPrice, block.timestamp, config.primaryOracle);\r\n        return emaPrice;\r\n    }\r\n\r\n    /// @notice Fulfills VRF request with weighted oracle selection\r\n    /// @param requestId The VRF request ID\r\n    /// @param randomWords The random words provided by VRF\r\n    function fulfillRandomWords(uint256 requestId, uint256[] memory randomWords) internal override {\r\n        VRFRequest storage request = vrfRequests[requestId];\r\n        if (request.asset == address(0) || !request.isPending) revert InvalidVRFRequest(requestId);\r\n\r\n        AssetConfig storage config = assetConfigs[request.asset];\r\n        uint256 randomWord = randomWords[0];\r\n        uint8 oracleType;\r\n\r\n        bool[4] memory oracleAvailability = [\r\n            priceFeedCount[request.asset] > 0,\r\n            uniswapV3PoolCount[request.asset] > 0,\r\n            sushiSwapPoolCount[request.asset] > 0,\r\n            pancakeSwapPoolCount[request.asset] > 0\r\n        ];\r\n        uint256[4] memory oracleReliabilitySums;\r\n\r\n        uint256 totalReliability = 0;\r\n        if (oracleAvailability[0]) {\r\n            for (uint256 i = 0; i < priceFeedCount[request.asset]; i++) {\r\n                PriceFeedConfig memory feed = priceFeeds[request.asset][i];\r\n                if (feed.isActive) {\r\n                    oracleReliabilitySums[0] += feed.reliabilityScore;\r\n                }\r\n            }\r\n            totalReliability += oracleReliabilitySums[0];\r\n        }\r\n        if (oracleAvailability[1]) oracleReliabilitySums[1] = 75;\r\n        if (oracleAvailability[2]) oracleReliabilitySums[2] = 60;\r\n        if (oracleAvailability[3]) oracleReliabilitySums[3] = 60;\r\n        totalReliability += (oracleAvailability[1] ? oracleReliabilitySums[1] : 0) +\r\n                            (oracleAvailability[2] ? oracleReliabilitySums[2] : 0) +\r\n                            (oracleAvailability[3] ? oracleReliabilitySums[3] : 0);\r\n\r\n        if (totalReliability == 0) revert NoValidPools(request.asset);\r\n\r\n        uint256 randomValue = randomWord % totalReliability;\r\n        uint256 cumulativeReliability = 0;\r\n        for (uint8 i = 0; i < 4; i++) {\r\n            if (oracleAvailability[i]) {\r\n                cumulativeReliability += oracleReliabilitySums[i];\r\n                if (randomValue < cumulativeReliability) {\r\n                    oracleType = i;\r\n                    break;\r\n                }\r\n            }\r\n        }\r\n\r\n        uint256 price;\r\n        try this.fetchPriceWithOracle(request.asset, oracleType) returns (uint256 _price) {\r\n            price = _price;\r\n        } catch {\r\n            price = fetchPriceDeterministic(request.asset);\r\n            oracleType = config.primaryOracle;\r\n        }\r\n\r\n        if (config.maxPriceDeviation > 0) {\r\n            uint256 secondaryPrice = getSecondaryPrice(request.asset, oracleType);\r\n            if (secondaryPrice > 0) {\r\n                uint256 deviation = price > secondaryPrice\r\n                    ? (price - secondaryPrice) * 1e18 / secondaryPrice\r\n                    : (secondaryPrice - price) * 1e18 / price;\r\n                if (deviation > config.maxPriceDeviation) {\r\n                    price = fetchPriceDeterministic(request.asset);\r\n                    oracleType = config.primaryOracle;\r\n                }\r\n            }\r\n        }\r\n\r\n        price = updateEMA(request.asset, price);\r\n        request.price = price;\r\n        request.timestamp = block.timestamp;\r\n        request.isPending = false;\r\n        pendingVRFRequestId[request.asset] = 0;\r\n        emit VRFRequestFulfilled(requestId, request.asset, price, oracleType);\r\n        emit PriceFetched(request.asset, price, price, block.timestamp, oracleType);\r\n    }\r\n\r\n    /// @notice Fetches price using deterministic logic\r\n    /// @param asset The asset address\r\n    /// @return price The fetched price\r\n    function fetchPriceDeterministic(address asset) internal nonReentrant returns (uint256) {\r\n        AssetConfig storage config = assetConfigs[asset];\r\n        uint8 oracleType = config.primaryOracle;\r\n        uint256 price;\r\n\r\n        if (oracleType == 0) {\r\n            try this.getChainlinkPrice(asset) returns (uint256 _price) {\r\n                price = _price;\r\n            } catch {\r\n                try this.getUniswapV3TWAP(asset) returns (uint256 _price) {\r\n                    price = _price;\r\n                } catch {\r\n                    try this.getUniswapV2TWAP(asset, true) returns (uint256 _price) {\r\n                        price = _price;\r\n                    } catch {\r\n                        price = getUniswapV2TWAP(asset, false);\r\n                    }\r\n                }\r\n            }\r\n        } else if (oracleType == 1) {\r\n            try this.getUniswapV3TWAP(asset) returns (uint256 _price) {\r\n                price = _price;\r\n            } catch {\r\n                try this.getUniswapV2TWAP(asset, true) returns (uint256 _price) {\r\n                    price = _price;\r\n                } catch {\r\n                    price = getUniswapV2TWAP(asset, false);\r\n                }\r\n            }\r\n        } else if (oracleType == 2) {\r\n            try this.getUniswapV2TWAP(asset, true) returns (uint256 _price) {\r\n                price = _price;\r\n            } catch {\r\n                price = getUniswapV2TWAP(asset, false);\r\n            }\r\n        } else {\r\n            try this.getUniswapV2TWAP(asset, false) returns (uint256 _price) {\r\n                price = _price;\r\n            } catch {\r\n                try this.getUniswapV3TWAP(asset) returns (uint256 _price) {\r\n                    price = _price;\r\n                } catch {\r\n                    price = getChainlinkPrice(asset);\r\n                }\r\n            }\r\n        }\r\n\r\n        if (config.maxPriceDeviation > 0) {\r\n            uint256 secondaryPrice = getSecondaryPrice(asset, oracleType);\r\n            if (secondaryPrice > 0) {\r\n                uint256 deviation = price > secondaryPrice\r\n                    ? (price - secondaryPrice) * 1e18 / secondaryPrice\r\n                    : (secondaryPrice - price) * 1e18 / price;\r\n                if (deviation > config.maxPriceDeviation) revert PriceDeviationTooHigh(asset);\r\n            }\r\n        }\r\n\r\n        return price;\r\n    }\r\n\r\n    /// @notice Fetches price with specific oracle type\r\n    /// @param asset The asset address\r\n    /// @param oracleType Oracle type (0: Chainlink, 1: Uniswap V3, 2: SushiSwap, 3: PancakeSwap)\r\n    /// @return price The fetched price\r\n    function fetchPriceWithOracle(address asset, uint8 oracleType) external returns (uint256) {\r\n        if (msg.sender != address(this)) revert InvalidInput();\r\n        if (oracleType == 0) return getChainlinkPrice(asset);\r\n        if (oracleType == 1) return getUniswapV3TWAP(asset);\r\n        if (oracleType == 2) return getUniswapV2TWAP(asset, true);\r\n        return getUniswapV2TWAP(asset, false);\r\n    }\r\n\r\n    /// @notice Gets aggregated Chainlink price\r\n    /// @param asset The asset address\r\n    /// @return price The weighted median price\r\n    function getChainlinkPrice(address asset) public returns (uint256) {\r\n        uint256 feedCount = priceFeedCount[asset];\r\n        if (feedCount == 0) revert InvalidPriceFeed(asset);\r\n\r\n        uint256 validPrices = 0;\r\n        uint256 totalWeight = 0;\r\n        uint256[] memory prices = new uint256[](feedCount);\r\n        uint256[] memory weights = new uint256[](feedCount);\r\n\r\n        for (uint256 i = 0; i < feedCount; i++) {\r\n            PriceFeedConfig storage config = priceFeeds[asset][i];\r\n            if (!config.isActive || config.feedAddress == address(0)) continue;\r\n\r\n            AggregatorV3Interface feed = AggregatorV3Interface(config.feedAddress);\r\n            try feed.latestRoundData() returns (\r\n                uint80 roundId,\r\n                int256 price,\r\n                uint256,\r\n                uint256 updatedAt,\r\n                uint80 answeredInRound\r\n            ) {\r\n                uint256 heartbeat = calculateDynamicHeartbeat(asset);\r\n                if (price <= 0 || answeredInRound < roundId || block.timestamp > updatedAt + heartbeat) continue;\r\n\r\n                uint256 adjustedPrice = config.decimals == 18 ? uint256(price) : uint256(price) * (10 ** (18 - config.decimals));\r\n                prices[validPrices] = adjustedPrice;\r\n                weights[validPrices] = config.weight;\r\n                totalWeight += config.weight;\r\n                config.lastPrice = adjustedPrice;\r\n                config.lastUpdated = block.timestamp;\r\n                validPrices++;\r\n            } catch {\r\n                continue;\r\n            }\r\n        }\r\n\r\n        if (validPrices == 0) revert NoValidFeeds(asset);\r\n\r\n        AssetConfig storage assetConfig = assetConfigs[asset];\r\n        if (assetConfig.maxFeedDeviation > 0 && validPrices > 1) {\r\n            uint256 medianPrice = calculateMedian(prices, validPrices);\r\n            for (uint256 i = 0; i < validPrices; i++) {\r\n                uint256 deviation = prices[i] > medianPrice\r\n                    ? (prices[i] - medianPrice) * 1e18 / medianPrice\r\n                    : (medianPrice - prices[i]) * 1e18 / prices[i];\r\n                if (deviation > assetConfig.maxFeedDeviation) revert FeedDeviationTooHigh(asset);\r\n            }\r\n        }\r\n\r\n        return calculateWeightedMedian(prices, weights, validPrices, totalWeight);\r\n    }\r\n\r\n    /// @notice Gets Uniswap V3 TWAP\r\n    /// @param asset The asset address\r\n    /// @return price The median TWAP price\r\n    function getUniswapV3TWAP(address asset) public returns (uint256) {\r\n        uint256 poolCount = uniswapV3PoolCount[asset];\r\n        if (poolCount == 0) revert InvalidPool(asset);\r\n\r\n        uint256 validPrices = 0;\r\n        uint256[] memory prices = new uint256[](poolCount);\r\n\r\n        for (uint256 i = 0; i < poolCount; i++) {\r\n            UniswapV3PoolConfig storage poolConfig = uniswapV3Pools[asset][i];\r\n            if (!poolConfig.isActive || poolConfig.poolAddress == address(0)) continue;\r\n\r\n            IUniswapV3Pool pool = IUniswapV3Pool(poolConfig.poolAddress);\r\n            (, , , , uint16 observationCardinality, , ) = pool.slot0();\r\n            uint16 requiredCardinality = calculateRequiredCardinality(poolConfig.twapSeconds);\r\n            if (observationCardinality < requiredCardinality) {\r\n                pool.increaseObservationCardinalityNext(requiredCardinality);\r\n                continue;\r\n            }\r\n\r\n            uint32[] memory secondsAgo = new uint32[](2);\r\n            secondsAgo[0] = poolConfig.twapSeconds;\r\n            secondsAgo[1] = 0;\r\n\r\n            try pool.observe(secondsAgo) returns (int56[] memory tickCumulatives, uint160[] memory) {\r\n                if (tickCumulatives.length < 2) continue;\r\n\r\n                int56 tickCumulativeDelta = tickCumulatives[1] - tickCumulatives[0];\r\n                int24 arithmeticMeanTick = int24(tickCumulativeDelta / int56(uint56(poolConfig.twapSeconds)));\r\n                prices[validPrices] = tickToPrice(arithmeticMeanTick, poolConfig.isToken0Base);\r\n                validPrices++;\r\n            } catch {\r\n                continue;\r\n            }\r\n        }\r\n\r\n        if (validPrices == 0) revert NoValidPools(asset);\r\n        return calculateMedian(prices, validPrices);\r\n    }\r\n\r\n    /// @notice Gets Uniswap V2-style TWAP (SushiSwap or PancakeSwap)\r\n    /// @param asset The asset address\r\n    /// @param isSushiSwap Whether to use SushiSwap (true) or PancakeSwap (false)\r\n    /// @return price The median TWAP price\r\n    function getUniswapV2TWAP(address asset, bool isSushiSwap) public returns (uint256) {\r\n        uint256 poolCount = isSushiSwap ? sushiSwapPoolCount[asset] : pancakeSwapPoolCount[asset];\r\n        if (poolCount == 0) revert InvalidPool(asset);\r\n\r\n        uint256 validPrices = 0;\r\n        uint256[] memory prices = new uint256[](poolCount);\r\n\r\n        for (uint256 i = 0; i < poolCount; i++) {\r\n            UniswapV2PoolConfig storage poolConfig = isSushiSwap\r\n                ? sushiSwapPools[asset][i]\r\n                : pancakeSwapPools[asset][i];\r\n            if (!poolConfig.isActive || poolConfig.poolAddress == address(0)) continue;\r\n\r\n            IUniswapV2Pair pool = IUniswapV2Pair(poolConfig.poolAddress);\r\n            (uint112 reserve0, uint112 reserve1, uint32 blockTimestampLast) = pool.getReserves();\r\n            if (blockTimestampLast == 0) continue;\r\n\r\n            uint256 price0Cumulative = pool.price0CumulativeLast();\r\n            uint256 price1Cumulative = pool.price1CumulativeLast();\r\n            uint256 timeElapsed = block.timestamp - poolConfig.lastBlockTimestamp;\r\n\r\n            if (timeElapsed < poolConfig.blockWindow * BLOCK_TIME) continue;\r\n\r\n            uint256 price = poolConfig.isToken0Base\r\n                ? calculateUniswapV2TWAP(price0Cumulative, poolConfig.price0CumulativeLast, timeElapsed)\r\n                : calculateUniswapV2TWAP(price1Cumulative, poolConfig.price1CumulativeLast, timeElapsed);\r\n\r\n            if (price > 0) {\r\n                prices[validPrices] = price;\r\n                validPrices++;\r\n                poolConfig.price0CumulativeLast = price0Cumulative;\r\n                poolConfig.price1CumulativeLast = price1Cumulative;\r\n                poolConfig.lastBlockTimestamp = blockTimestampLast;\r\n                emit PoolStateUpdated(asset, poolConfig.poolAddress, isSushiSwap ? 2 : 3, i, poolConfig.liquidity, blockTimestampLast);\r\n            }\r\n        }\r\n\r\n        if (validPrices == 0) revert NoValidPools(asset);\r\n        return calculateMedian(prices, validPrices);\r\n    }\r\n\r\n    /// @notice Gets secondary price for deviation check\r\n    /// @param asset The asset address\r\n    /// @param primaryOracle The primary oracle type\r\n    /// @return price The secondary price, or 0 if none available\r\n    function getSecondaryPrice(address asset, uint8 primaryOracle) internal returns (uint256) {\r\n        for (uint8 i = 0; i < 4; i++) {\r\n            if (i == primaryOracle) continue;\r\n            if (i == 0 && priceFeedCount[asset] > 0) {\r\n                try this.getChainlinkPrice(asset) returns (uint256 price) {\r\n                    return price;\r\n                } catch {\r\n                    continue;\r\n                }\r\n            } else if (i == 1 && uniswapV3PoolCount[asset] > 0) {\r\n                try this.getUniswapV3TWAP(asset) returns (uint256 price) {\r\n                    return price;\r\n                } catch {\r\n                    continue;\r\n                }\r\n            } else if (i == 2 && sushiSwapPoolCount[asset] > 0) {\r\n                try this.getUniswapV2TWAP(asset, true) returns (uint256 price) {\r\n                    return price;\r\n                } catch {\r\n                    continue;\r\n                }\r\n            } else if (i == 3 && pancakeSwapPoolCount[asset] > 0) {\r\n                try this.getUniswapV2TWAP(asset, false) returns (uint256 price) {\r\n                    return price;\r\n                } catch {\r\n                    continue;\r\n                }\r\n            }\r\n        }\r\n        return 0;\r\n    }\r\n\r\n    /// @notice Updates EMA for price smoothing\r\n    /// @param asset The asset address\r\n    /// @param newPrice The new price to incorporate\r\n    /// @return emaPrice The updated EMA price\r\n    function updateEMA(address asset, uint256 newPrice) internal returns (uint256) {\r\n        if (newPrice == 0) revert InvalidPrice(asset);\r\n        AssetConfig storage config = assetConfigs[asset];\r\n        if (config.emaPrice == 0) {\r\n            uint256 secondaryPrice = getSecondaryPrice(asset, config.primaryOracle);\r\n            if (secondaryPrice > 0 && config.maxPriceDeviation > 0) {\r\n                uint256 deviation = newPrice > secondaryPrice\r\n                    ? (newPrice - secondaryPrice) * 1e18 / secondaryPrice\r\n                    : (secondaryPrice - newPrice) * 1e18 / newPrice;\r\n                if (deviation > config.maxPriceDeviation) revert InvalidPrice(asset);\r\n            }\r\n            config.emaPrice = newPrice;\r\n            return newPrice;\r\n        }\r\n        config.emaPrice = (config.emaPrice * (1e18 - config.emaAlpha) + newPrice * config.emaAlpha) / 1e18;\r\n        return config.emaPrice;\r\n    }\r\n\r\n    /// @notice Calculates dynamic heartbeat based on volatility\r\n    /// @param asset The asset address\r\n    /// @return heartbeat The calculated heartbeat\r\n    function calculateDynamicHeartbeat(address asset) internal view returns (uint256) {\r\n        uint256 volatility = assetConfigs[asset].volatilityIndex;\r\n        if (volatility == 0) volatility = 1e18;\r\n        uint256 heartbeat = DEFAULT_HEARTBEAT * 1e18 / volatility;\r\n        return heartbeat < 5 minutes ? 5 minutes : heartbeat > 30 minutes ? 30 minutes : heartbeat;\r\n    }\r\n\r\n    /// @notice Calculates Uniswap V2 TWAP\r\n    /// @param priceCumulativeEnd The ending cumulative price\r\n    /// @param priceCumulativeStart The starting cumulative price\r\n    /// @param timeElapsed Time elapsed between prices\r\n    /// @return price The calculated TWAP\r\n    function calculateUniswapV2TWAP(\r\n        uint256 priceCumulativeEnd,\r\n        uint256 priceCumulativeStart,\r\n        uint256 timeElapsed\r\n    ) internal pure returns (uint256) {\r\n        if (priceCumulativeEnd < priceCumulativeStart) {\r\n            priceCumulativeEnd += type(uint256).max;\r\n        }\r\n        uint256 priceCumulativeDelta = priceCumulativeEnd - priceCumulativeStart;\r\n        if (timeElapsed == 0) revert InvalidInput();\r\n        return FullMath.mulDiv(priceCumulativeDelta, PRICE_PRECISION, timeElapsed);\r\n    }\r\n\r\n    /// @notice Converts Uniswap V3 tick to price\r\n    /// @param tick The Uniswap V3 tick\r\n    /// @param isToken0Base Whether token0 is the base token\r\n    /// @return price The converted price\r\n    function tickToPrice(int24 tick, bool isToken0Base) internal pure returns (uint256) {\r\n        uint160 sqrtPriceX96 = TickMath.getSqrtRatioAtTick(tick);\r\n        uint256 price;\r\n        if (isToken0Base) {\r\n            price = FullMath.mulDiv(\r\n                uint256(sqrtPriceX96) * uint256(sqrtPriceX96),\r\n                PRICE_PRECISION,\r\n                1 << 192\r\n            );\r\n        } else {\r\n            price = FullMath.mulDiv(\r\n                1 << 192,\r\n                PRICE_PRECISION,\r\n                uint256(sqrtPriceX96) * uint256(sqrtPriceX96)\r\n            );\r\n        }\r\n        if (price == 0) revert InvalidPrice(address(0));\r\n        return price;\r\n    }\r\n\r\n    /// @notice Calculates weighted median price\r\n    /// @param prices Array of prices\r\n    /// @param weights Array of weights\r\n    /// @param validCount Number of valid prices\r\n    /// @param totalWeight Total weight of valid prices\r\n    /// @return medianPrice The weighted median price\r\n    function calculateWeightedMedian(\r\n        uint256[] memory prices,\r\n        uint256[] memory weights,\r\n        uint256 validCount,\r\n        uint256 totalWeight\r\n    ) internal pure returns (uint256) {\r\n        if (validCount == 0 || totalWeight == 0) revert InvalidInput();\r\n\r\n        uint256[] memory sortedPrices = new uint256[](validCount);\r\n        uint256[] memory sortedWeights = new uint256[](validCount);\r\n        for (uint256 i = 0; i < validCount; i++) {\r\n            sortedPrices[i] = prices[i];\r\n            sortedWeights[i] = weights[i];\r\n        }\r\n\r\n        for (uint256 i = 1; i < validCount; i++) {\r\n            uint256 keyPrice = sortedPrices[i];\r\n            uint256 keyWeight = sortedWeights[i];\r\n            uint256 j = i;\r\n            while (j > 0 && sortedPrices[j - 1] > keyPrice) {\r\n                sortedPrices[j] = sortedPrices[j - 1];\r\n                sortedWeights[j] = sortedWeights[j - 1];\r\n                j--;\r\n            }\r\n            sortedPrices[j] = keyPrice;\r\n            sortedWeights[j] = keyWeight;\r\n        }\r\n\r\n        uint256 cumulativeWeight = 0;\r\n        uint256 targetWeight = totalWeight / 2;\r\n        for (uint256 i = 0; i < validCount; i++) {\r\n            cumulativeWeight += sortedWeights[i];\r\n            if (cumulativeWeight >= targetWeight) {\r\n                if (cumulativeWeight == targetWeight && i < validCount - 1) {\r\n                    return (sortedPrices[i] + sortedPrices[i + 1]) / 2;\r\n                }\r\n                return sortedPrices[i];\r\n            }\r\n        }\r\n        return sortedPrices[validCount - 1];\r\n    }\r\n\r\n    /// @notice Calculates median price\r\n    /// @param prices Array of prices\r\n    /// @param validCount Number of valid prices\r\n    /// @return medianPrice The median price\r\n    function calculateMedian(uint256[] memory prices, uint256 validCount) internal pure returns (uint256) {\r\n        if (validCount == 0) revert InvalidInput();\r\n\r\n        uint256[] memory sortedPrices = new uint256[](validCount);\r\n        for (uint256 i = 0; i < validCount; i++) {\r\n            sortedPrices[i] = prices[i];\r\n        }\r\n\r\n        for (uint256 i = 1; i < validCount; i++) {\r\n            uint256 key = sortedPrices[i];\r\n            uint256 j = i;\r\n            while (j > 0 && sortedPrices[j - 1] > key) {\r\n                sortedPrices[j] = sortedPrices[j - 1];\r\n                j--;\r\n            }\r\n            sortedPrices[j] = key;\r\n        }\r\n\r\n        if (validCount % 2 == 0) {\r\n            return (sortedPrices[validCount / 2 - 1] + sortedPrices[validCount / 2]) / 2;\r\n        } else {\r\n            return sortedPrices[validCount / 2];\r\n        }\r\n    }\r\n\r\n    /// @notice Calculates required observation cardinality for Uniswap V3\r\n    /// @param twapSeconds TWAP window in seconds\r\n    /// @return cardinality The required observation cardinality\r\n    function calculateRequiredCardinality(uint32 twapSeconds) internal pure returns (uint16) {\r\n        return uint16(twapSeconds / 30) + 1;\r\n    }\r\n\r\n    /// @notice Calculates dynamic TWAP window based on liquidity\r\n    /// @param liquidity The pool liquidity\r\n    /// @return window The calculated TWAP window\r\n    function calculateDynamicTWAPWindow(uint128 liquidity) internal pure returns (uint32) {\r\n        if (liquidity < MIN_LIQUIDITY_THRESHOLD) return MAX_TWAP_SECONDS;\r\n        if (liquidity > 1e18) return MIN_TWAP_SECONDS;\r\n        uint256 liquidityFactor = uint256(liquidity) * 1e18 / (1e18 - MIN_LIQUIDITY_THRESHOLD);\r\n        uint32 window = uint32(MAX_TWAP_SECONDS - (MAX_TWAP_SECONDS - MIN_TWAP_SECONDS) * liquidityFactor / 1e18);\r\n        return window < MIN_TWAP_SECONDS ? MIN_TWAP_SECONDS : window;\r\n    }\r\n\r\n    /// @notice Calculates dynamic block window based on liquidity\r\n    /// @param liquidity The pool liquidity\r\n    /// @return window The calculated block window\r\n    function calculateDynamicBlockWindow(uint128 liquidity) internal pure returns (uint32) {\r\n        if (liquidity < MIN_LIQUIDITY_THRESHOLD) return MAX_BLOCK_WINDOW;\r\n        if (liquidity > 1e18) return MIN_BLOCK_WINDOW;\r\n        uint256 liquidityFactor = uint256(liquidity) * 1e18 / (1e18 - MIN_LIQUIDITY_THRESHOLD);\r\n        uint32 window = uint32(MAX_BLOCK_WINDOW - (MAX_BLOCK_WINDOW - MIN_BLOCK_WINDOW) * liquidityFactor / 1e18);\r\n        return window < MIN_BLOCK_WINDOW ? MIN_BLOCK_WINDOW : window;\r\n    }\r\n\r\n    /// @notice Gets price feed configuration\r\n    /// @param asset The asset address\r\n    /// @param index The feed index\r\n    /// @return config The price feed configuration\r\n    function getPriceFeedConfig(address asset, uint256 index) external view returns (PriceFeedConfig memory) {\r\n        return priceFeeds[asset][index];\r\n    }\r\n\r\n    /// @notice Gets Uniswap V3 pool configuration\r\n    /// @param asset The asset address\r\n    /// @param index The pool index\r\n    /// @return config The Uniswap V3 pool configuration\r\n    function getUniswapV3PoolConfig(address asset, uint256 index) external view returns (UniswapV3PoolConfig memory) {\r\n        return uniswapV3Pools[asset][index];\r\n    }\r\n\r\n    /// @notice Gets Uniswap V2 pool configuration\r\n    /// @param asset The asset address\r\n    /// @param index The pool index\r\n    /// @param isSushiSwap Whether to fetch SushiSwap (true) or PancakeSwap (false)\r\n    /// @return config The Uniswap V2 pool configuration\r\n    function getUniswapV2PoolConfig(address asset, uint256 index, bool isSushiSwap) external view returns (UniswapV2PoolConfig memory) {\r\n        return isSushiSwap ? sushiSwapPools[asset][index] : pancakeSwapPools[asset][index];\r\n    }\r\n\r\n    uint256[50] private __gap; // Increased for safety\r\n}",
  "sourcePath": "C:\\Users\\DR. EMMA\\my-project\\lumora\\contracts\\PriceOracle.sol",
  "compiler": {
    "name": "solc",
    "version": "0.8.24+commit.e11b9ed9.Emscripten.clang"
  },
  "schemaVersion": "3.4.16",
  "updatedAt": "2025-06-04T21:49:36.977Z",
  "devdoc": {
    "details": "Uses UUPS proxy, Chainlink VRF v2.5, and aggregates Chainlink feeds, Uniswap V3, SushiSwap, and PancakeSwap",
    "events": {
      "AdminChanged(address,address)": {
        "details": "Emitted when the admin account has changed."
      },
      "BeaconUpgraded(address)": {
        "details": "Emitted when the beacon is changed."
      },
      "Initialized(uint8)": {
        "details": "Triggered when the contract has been initialized or reinitialized."
      },
      "Paused(address)": {
        "details": "Emitted when the pause is triggered by `account`."
      },
      "Unpaused(address)": {
        "details": "Emitted when the pause is lifted by `account`."
      },
      "Upgraded(address)": {
        "details": "Emitted when the implementation is upgraded."
      }
    },
    "kind": "dev",
    "methods": {
      "addUniswapV2Pool(address,address,uint32,bool,bool)": {
        "params": {
          "asset": "The asset address",
          "blockWindow": "Number of blocks for TWAP",
          "isSushiSwap": "Whether the pool is SushiSwap (true) or PancakeSwap (false)",
          "isToken0Base": "Whether token0 is the base token",
          "poolAddress": "The pool address"
        }
      },
      "addUniswapV3Pool(address,address,uint32,bool)": {
        "params": {
          "asset": "The asset address",
          "isToken0Base": "Whether token0 is the base token",
          "poolAddress": "The Uniswap V3 pool address",
          "twapSeconds": "TWAP window in seconds"
        }
      },
      "constructor": {
        "custom:oz-upgrades-unsafe-allow": "constructor"
      },
      "deactivatePool(address,uint256,uint8)": {
        "params": {
          "asset": "The asset address",
          "oracleType": "Oracle type (1: Uniswap V3, 2: SushiSwap, 3: PancakeSwap)",
          "poolIndex": "Index of the pool"
        }
      },
      "deactivatePriceFeed(address,uint256)": {
        "params": {
          "asset": "The asset address",
          "feedIndex": "Index of the price feed"
        }
      },
      "disableEmergencyOverride(address)": {
        "params": {
          "asset": "The asset address"
        }
      },
      "fetchPriceWithOracle(address,uint8)": {
        "params": {
          "asset": "The asset address",
          "oracleType": "Oracle type (0: Chainlink, 1: Uniswap V3, 2: SushiSwap, 3: PancakeSwap)"
        },
        "returns": {
          "_0": "price The fetched price"
        }
      },
      "getChainlinkPrice(address)": {
        "params": {
          "asset": "The asset address"
        },
        "returns": {
          "_0": "price The weighted median price"
        }
      },
      "getCurrentPrice(address)": {
        "params": {
          "asset": "The asset address"
        },
        "returns": {
          "_0": "The current EMA price"
        }
      },
      "getPendingVRFRequest(address)": {
        "params": {
          "asset": "The asset address"
        },
        "returns": {
          "_0": "requestId The pending VRF request ID, or 0 if none"
        }
      },
      "getPrice(address)": {
        "params": {
          "asset": "The asset address"
        },
        "returns": {
          "_0": "price The EMA price, or 0 if VRF request is sent"
        }
      },
      "getPriceFeedConfig(address,uint256)": {
        "params": {
          "asset": "The asset address",
          "index": "The feed index"
        },
        "returns": {
          "_0": "config The price feed configuration"
        }
      },
      "getUniswapV2PoolConfig(address,uint256,bool)": {
        "params": {
          "asset": "The asset address",
          "index": "The pool index",
          "isSushiSwap": "Whether to fetch SushiSwap (true) or PancakeSwap (false)"
        },
        "returns": {
          "_0": "config The Uniswap V2 pool configuration"
        }
      },
      "getUniswapV2TWAP(address,bool)": {
        "params": {
          "asset": "The asset address",
          "isSushiSwap": "Whether to use SushiSwap (true) or PancakeSwap (false)"
        },
        "returns": {
          "_0": "price The median TWAP price"
        }
      },
      "getUniswapV3PoolConfig(address,uint256)": {
        "params": {
          "asset": "The asset address",
          "index": "The pool index"
        },
        "returns": {
          "_0": "config The Uniswap V3 pool configuration"
        }
      },
      "getUniswapV3TWAP(address)": {
        "params": {
          "asset": "The asset address"
        },
        "returns": {
          "_0": "price The median TWAP price"
        }
      },
      "initialize(address,address,uint64,bytes32,uint32,uint16)": {
        "params": {
          "_callbackGasLimit": "Gas limit for VRF callback",
          "_keyHash": "Chainlink VRF key hash",
          "_requestConfirmations": "Number of confirmations for VRF request",
          "_subscriptionId": "Chainlink VRF subscription ID",
          "_vrfCoordinator": "Chainlink VRF Coordinator address",
          "initialOwner": "The initial owner address"
        }
      },
      "owner()": {
        "details": "Returns the address of the current owner."
      },
      "paused()": {
        "details": "Returns true if the contract is paused, and false otherwise."
      },
      "proxiableUUID()": {
        "details": "Implementation of the ERC1822 {proxiableUUID} function. This returns the storage slot used by the implementation. It is used to validate the implementation's compatibility when performing an upgrade. IMPORTANT: A proxy pointing at a proxiable contract should not be considered proxiable itself, because this risks bricking a proxy that upgrades to it, by delegating to itself until out of gas. Thus it is critical that this function revert if invoked through a proxy. This is guaranteed by the `notDelegated` modifier."
      },
      "renounceOwnership()": {
        "details": "Leaves the contract without owner. It will not be possible to call `onlyOwner` functions. Can only be called by the current owner. NOTE: Renouncing ownership will leave the contract without an owner, thereby disabling any functionality that is only available to the owner."
      },
      "setEmergencyPrice(address,uint256)": {
        "params": {
          "asset": "The asset address",
          "price": "The emergency price"
        }
      },
      "setOraclePreference(address,uint8,uint256,uint256,bool,uint256,uint256)": {
        "params": {
          "asset": "The asset address",
          "emaAlpha": "EMA smoothing factor",
          "maxFeedDeviation": "Maximum allowed deviation between Chainlink feeds",
          "maxPriceDeviation": "Maximum allowed deviation from secondary oracle",
          "oracleType": "Primary oracle type (0: Chainlink, 1: Uniswap V3, 2: SushiSwap, 3: PancakeSwap)",
          "useVRF": "Whether to use VRF for oracle selection",
          "volatilityIndex": "Volatility index for dynamic heartbeat"
        }
      },
      "setPriceFeed(address,address,uint8,uint256,uint256,uint256)": {
        "params": {
          "asset": "The asset address",
          "decimals": "Decimals of the price feed",
          "feed": "The Chainlink price feed address",
          "heartbeat": "Maximum time before priceerdings",
          "reliabilityScore": "Reliability score for VRF selection (0-100)",
          "weight": "Weight for weighted median calculation"
        }
      },
      "transferOwnership(address)": {
        "details": "Transfers ownership of the contract to a new account (`newOwner`). Can only be called by the current owner."
      },
      "updateTWAPWindow(address,uint256,uint8)": {
        "params": {
          "asset": "The asset address",
          "oracleType": "Oracle type (1: Uniswap V3, 2: SushiSwap, 3: PancakeSwap)",
          "poolIndex": "Index of the pool"
        }
      },
      "updateVRFConfig(address,uint64,bytes32,uint32,uint16)": {
        "params": {
          "_callbackGasLimit": "Gas limit for VRF callback",
          "_keyHash": "Chainlink VRF key hash",
          "_requestConfirmations": "Number of confirmations for VRF request",
          "_subscriptionId": "Chainlink VRF subscription ID",
          "_vrfCoordinator": "Chainlink VRF Coordinator address"
        }
      },
      "upgradeTo(address)": {
        "custom:oz-upgrades-unsafe-allow-reachable": "delegatecall",
        "details": "Upgrade the implementation of the proxy to `newImplementation`. Calls {_authorizeUpgrade}. Emits an {Upgraded} event."
      },
      "upgradeToAndCall(address,bytes)": {
        "custom:oz-upgrades-unsafe-allow-reachable": "delegatecall",
        "details": "Upgrade the implementation of the proxy to `newImplementation`, and subsequently execute the function call encoded in `data`. Calls {_authorizeUpgrade}. Emits an {Upgraded} event."
      }
    },
    "title": "PriceOracle",
    "version": 1
  },
  "userdoc": {
    "kind": "user",
    "methods": {
      "addUniswapV2Pool(address,address,uint32,bool,bool)": {
        "notice": "Adds a Uniswap V2-style pool (SushiSwap or PancakeSwap)"
      },
      "addUniswapV3Pool(address,address,uint32,bool)": {
        "notice": "Adds a Uniswap V3 pool"
      },
      "deactivatePool(address,uint256,uint8)": {
        "notice": "Deactivates a pool"
      },
      "deactivatePriceFeed(address,uint256)": {
        "notice": "Deactivates a Chainlink price feed"
      },
      "disableEmergencyOverride(address)": {
        "notice": "Disables emergency price override"
      },
      "fetchPriceWithOracle(address,uint8)": {
        "notice": "Fetches price with specific oracle type"
      },
      "getChainlinkPrice(address)": {
        "notice": "Gets aggregated Chainlink price"
      },
      "getCurrentPrice(address)": {
        "notice": "Gets the current EMA price for an asset"
      },
      "getPendingVRFRequest(address)": {
        "notice": "Checks if a VRF request is pending for an asset"
      },
      "getPrice(address)": {
        "notice": "Requests price with optional VRF-based oracle selection"
      },
      "getPriceFeedConfig(address,uint256)": {
        "notice": "Gets price feed configuration"
      },
      "getUniswapV2PoolConfig(address,uint256,bool)": {
        "notice": "Gets Uniswap V2 pool configuration"
      },
      "getUniswapV2TWAP(address,bool)": {
        "notice": "Gets Uniswap V2-style TWAP (SushiSwap or PancakeSwap)"
      },
      "getUniswapV3PoolConfig(address,uint256)": {
        "notice": "Gets Uniswap V3 pool configuration"
      },
      "getUniswapV3TWAP(address)": {
        "notice": "Gets Uniswap V3 TWAP"
      },
      "initialize(address,address,uint64,bytes32,uint32,uint16)": {
        "notice": "Initializes the contract"
      },
      "pause()": {
        "notice": "Pauses the contract"
      },
      "setEmergencyPrice(address,uint256)": {
        "notice": "Sets emergency price override with deviation check"
      },
      "setOraclePreference(address,uint8,uint256,uint256,bool,uint256,uint256)": {
        "notice": "Sets oracle preference and VRF usage"
      },
      "setPriceFeed(address,address,uint8,uint256,uint256,uint256)": {
        "notice": "Adds or updates a Chainlink price feed"
      },
      "unpause()": {
        "notice": "Unpauses the contract"
      },
      "updateTWAPWindow(address,uint256,uint8)": {
        "notice": "Updates TWAP window for a pool"
      },
      "updateVRFConfig(address,uint64,bytes32,uint32,uint16)": {
        "notice": "Updates VRF configuration"
      }
    },
    "notice": "Upgradeable price oracle for Sonic Blockchain with multiple data sources and advanced features",
    "version": 1
  }
}