{
  "contractName": "VRFV2PlusClient",
  "abi": [
    {
      "inputs": [],
      "name": "EXTRA_ARGS_V1_TAG",
      "outputs": [
        {
          "internalType": "bytes4",
          "name": "",
          "type": "bytes4"
        }
      ],
      "stateMutability": "view",
      "type": "function"
    }
  ],
  "bytecode": "0x608060405234601b576040516081610021823930815050608190f35b600080fdfe60806040526004361015601157600080fd5b60003560e01c63f7514ab4146030575b600080fd5b6000910312602157565b60393660046026565b60405163125fa26760e31b8152602090f3fea2646970667358221220a55d313f1fd6fc02a53f2cc00357990ccb6d99e6bc9f0d20b21c6dde635d8f9f64736f6c63430008180033",
  "immutableReferences": {},
  "source": "// SPDX-License-Identifier: MIT\npragma solidity ^0.8.4;\n\n// End consumer library.\nlibrary VRFV2PlusClient {\n  // extraArgs will evolve to support new features\n  bytes4 public constant EXTRA_ARGS_V1_TAG = bytes4(keccak256(\"VRF ExtraArgsV1\"));\n  struct ExtraArgsV1 {\n    bool nativePayment;\n  }\n\n  struct RandomWordsRequest {\n    bytes32 keyHash;\n    uint256 subId;\n    uint16 requestConfirmations;\n    uint32 callbackGasLimit;\n    uint32 numWords;\n    bytes extraArgs;\n  }\n\n  function _argsToBytes(ExtraArgsV1 memory extraArgs) internal pure returns (bytes memory bts) {\n    return abi.encodeWithSelector(EXTRA_ARGS_V1_TAG, extraArgs);\n  }\n}\n",
  "sourcePath": "@chainlink\\contracts\\src\\v0.8\\vrf\\dev\\libraries\\VRFV2PlusClient.sol",
  "compiler": {
    "name": "solc",
    "version": "0.8.24+commit.e11b9ed9.Emscripten.clang"
  },
  "schemaVersion": "3.4.16",
  "updatedAt": "2025-06-04T21:49:36.236Z",
  "devdoc": {
    "kind": "dev",
    "methods": {},
    "version": 1
  },
  "userdoc": {
    "kind": "user",
    "methods": {},
    "version": 1
  }
}